{
  "contractName": "BlockThese",
  "abi": [
    {
      "inputs": [],
      "payable": false,
      "stateMutability": "nonpayable",
      "type": "constructor"
    },
    {
      "constant": true,
      "inputs": [],
      "name": "Fin4GroupsAddress",
      "outputs": [
        {
          "internalType": "address",
          "name": "",
          "type": "address"
        }
      ],
      "payable": false,
      "stateMutability": "view",
      "type": "function"
    },
    {
      "constant": true,
      "inputs": [
        {
          "internalType": "address",
          "name": "_addr",
          "type": "address"
        }
      ],
      "name": "addressToString",
      "outputs": [
        {
          "internalType": "string",
          "name": "",
          "type": "string"
        }
      ],
      "payable": false,
      "stateMutability": "pure",
      "type": "function"
    },
    {
      "constant": true,
      "inputs": [
        {
          "internalType": "address[]",
          "name": "arr",
          "type": "address[]"
        },
        {
          "internalType": "address",
          "name": "addrToCheck",
          "type": "address"
        }
      ],
      "name": "arrayContainsAddress",
      "outputs": [
        {
          "internalType": "bool",
          "name": "",
          "type": "bool"
        }
      ],
      "payable": false,
      "stateMutability": "pure",
      "type": "function"
    },
    {
      "constant": false,
      "inputs": [
        {
          "internalType": "address",
          "name": "user",
          "type": "address"
        },
        {
          "internalType": "address",
          "name": "tokenAddrToReceiveVerifierNotice",
          "type": "address"
        },
        {
          "internalType": "uint256",
          "name": "claimId",
          "type": "uint256"
        }
      ],
      "name": "autoSubmitProof",
      "outputs": [],
      "payable": false,
      "stateMutability": "nonpayable",
      "type": "function"
    },
    {
      "constant": true,
      "inputs": [],
      "name": "contractName",
      "outputs": [
        {
          "internalType": "string",
          "name": "",
          "type": "string"
        }
      ],
      "payable": false,
      "stateMutability": "view",
      "type": "function"
    },
    {
      "constant": true,
      "inputs": [],
      "name": "description",
      "outputs": [
        {
          "internalType": "string",
          "name": "",
          "type": "string"
        }
      ],
      "payable": false,
      "stateMutability": "view",
      "type": "function"
    },
    {
      "constant": true,
      "inputs": [
        {
          "internalType": "address",
          "name": "tokenAddress",
          "type": "address"
        }
      ],
      "name": "getCreatorOfToken",
      "outputs": [
        {
          "internalType": "address",
          "name": "",
          "type": "address"
        }
      ],
      "payable": false,
      "stateMutability": "view",
      "type": "function"
    },
    {
      "constant": true,
      "inputs": [],
      "name": "getDescription",
      "outputs": [
        {
          "internalType": "string",
          "name": "",
          "type": "string"
        }
      ],
      "payable": false,
      "stateMutability": "view",
      "type": "function"
    },
    {
      "constant": true,
      "inputs": [],
      "name": "getInfo",
      "outputs": [
        {
          "internalType": "string",
          "name": "",
          "type": "string"
        },
        {
          "internalType": "string",
          "name": "",
          "type": "string"
        },
        {
          "internalType": "string",
          "name": "",
          "type": "string"
        },
        {
          "internalType": "string",
          "name": "",
          "type": "string"
        }
      ],
      "payable": false,
      "stateMutability": "view",
      "type": "function"
    },
    {
      "constant": true,
      "inputs": [],
      "name": "getName",
      "outputs": [
        {
          "internalType": "string",
          "name": "",
          "type": "string"
        }
      ],
      "payable": false,
      "stateMutability": "view",
      "type": "function"
    },
    {
      "constant": true,
      "inputs": [],
      "name": "isAutoCheckable",
      "outputs": [
        {
          "internalType": "bool",
          "name": "",
          "type": "bool"
        }
      ],
      "payable": false,
      "stateMutability": "view",
      "type": "function"
    },
    {
      "constant": true,
      "inputs": [],
      "name": "isAutoInitiable",
      "outputs": [
        {
          "internalType": "bool",
          "name": "",
          "type": "bool"
        }
      ],
      "payable": false,
      "stateMutability": "view",
      "type": "function"
    },
    {
      "constant": true,
      "inputs": [],
      "name": "name",
      "outputs": [
        {
          "internalType": "string",
          "name": "",
          "type": "string"
        }
      ],
      "payable": false,
      "stateMutability": "view",
      "type": "function"
    },
    {
      "constant": false,
      "inputs": [
        {
          "internalType": "string",
          "name": "_contractName",
          "type": "string"
        }
      ],
      "name": "setContractName",
      "outputs": [],
      "payable": false,
      "stateMutability": "nonpayable",
      "type": "function"
    },
    {
      "constant": true,
      "inputs": [
        {
          "internalType": "address",
          "name": "",
          "type": "address"
        },
        {
          "internalType": "uint256",
          "name": "",
          "type": "uint256"
        }
      ],
      "name": "tokenToBlockedGroups",
      "outputs": [
        {
          "internalType": "uint256",
          "name": "",
          "type": "uint256"
        }
      ],
      "payable": false,
      "stateMutability": "view",
      "type": "function"
    },
    {
      "constant": true,
      "inputs": [
        {
          "internalType": "address",
          "name": "",
          "type": "address"
        },
        {
          "internalType": "uint256",
          "name": "",
          "type": "uint256"
        }
      ],
      "name": "tokenToBlockedUsers",
      "outputs": [
        {
          "internalType": "address",
          "name": "",
          "type": "address"
        }
      ],
      "payable": false,
      "stateMutability": "view",
      "type": "function"
    },
    {
      "constant": false,
      "inputs": [
        {
          "internalType": "address",
          "name": "Fin4GroupsAddr",
          "type": "address"
        }
      ],
      "name": "setFin4GroupsAddress",
      "outputs": [],
      "payable": false,
      "stateMutability": "nonpayable",
      "type": "function"
    },
    {
      "constant": false,
      "inputs": [
        {
          "internalType": "address",
          "name": "user",
          "type": "address"
        },
        {
          "internalType": "address",
          "name": "tokenAddress",
          "type": "address"
        },
        {
          "internalType": "uint256",
          "name": "claimId",
          "type": "uint256"
        }
      ],
      "name": "autoCheck",
      "outputs": [],
      "payable": false,
      "stateMutability": "nonpayable",
      "type": "function"
    },
    {
      "constant": true,
      "inputs": [],
      "name": "getParameterForTokenCreatorToSetEncoded",
      "outputs": [
        {
          "internalType": "string",
          "name": "",
          "type": "string"
        }
      ],
      "payable": false,
      "stateMutability": "pure",
      "type": "function"
    },
    {
      "constant": false,
      "inputs": [
        {
          "internalType": "address",
          "name": "token",
          "type": "address"
        },
        {
          "internalType": "address[]",
          "name": "blockedUsers",
          "type": "address[]"
        },
        {
          "internalType": "uint256[]",
          "name": "blockedGroupIds",
          "type": "uint256[]"
        }
      ],
      "name": "setParameters",
      "outputs": [],
      "payable": false,
      "stateMutability": "nonpayable",
      "type": "function"
    }
  ],
  "bytecode": "0x60806040526003805461ffff191690553480156200001c57600080fd5b5060408051808201909152601c8082527f73632e76657269666965722e626c6f636b2d74686573652e6e616d650000000060209092019182526200006391600191620000aa565b506040518060600160405280602381526020016200187e6023913980516200009491600291602090910190620000aa565b506003805461ff0019166101001790556200014f565b828054600181600116156101000203166002900490600052602060002090601f016020900481019282601f10620000ed57805160ff19168380011785556200011d565b828001600101855582156200011d579182015b828111156200011d57825182559160200191906001019062000100565b506200012b9291506200012f565b5090565b6200014c91905b808211156200012b576000815560010162000136565b90565b61171f806200015f6000396000f3fe608060405234801561001057600080fd5b506004361061012c5760003560e01c80636c71d542116100ad5780639259360c116100715780639259360c1461063f578063ae18e0a5146106eb578063c05ebcc514610721578063ebbb05fc14610729578063ffc5daef146107675761012c565b80636c71d542146104c85780637284e416146104d057806375d0c0dc146104d85780637b32ac7d146104e05780638b3b39e51461050c5761012c565b80633297bf06116100f45780633297bf061461028a57806336790932146102ae5780634d1a1d5d146102d45780635a9b0b89146102f05780635e57966d146104a25761012c565b806306fdde03146101315780630b5ee006146101ae5780630e0e68b51461025457806317d7de7c1461027a5780631a09254114610282575b600080fd5b61013961079d565b6040805160208082528351818301528351919283929083019185019080838360005b8381101561017357818101518382015260200161015b565b50505050905090810190601f1680156101a05780820380516001836020036101000a031916815260200191505b509250505060405180910390f35b610252600480360360208110156101c457600080fd5b810190602081018135600160201b8111156101de57600080fd5b8201836020820111156101f057600080fd5b803590602001918460018302840111600160201b8311171561021157600080fd5b91908080601f01602080910402602001604051908101604052809392919081815260200183838082843760009201919091525092955061082a945050505050565b005b6102526004803603602081101561026a57600080fd5b50356001600160a01b0316610841565b61013961086b565b610139610901565b61029261095f565b604080516001600160a01b039092168252519081900360200190f35b610292600480360360208110156102c457600080fd5b50356001600160a01b0316610974565b6102dc6109e1565b604080519115158252519081900360200190f35b6102f86109ef565b6040518080602001806020018060200180602001858103855289818151815260200191508051906020019080838360005b83811015610341578181015183820152602001610329565b50505050905090810190601f16801561036e5780820380516001836020036101000a031916815260200191505b5085810384528851815288516020918201918a019080838360005b838110156103a1578181015183820152602001610389565b50505050905090810190601f1680156103ce5780820380516001836020036101000a031916815260200191505b50858103835287518152875160209182019189019080838360005b838110156104015781810151838201526020016103e9565b50505050905090810190601f16801561042e5780820380516001836020036101000a031916815260200191505b50858103825286518152865160209182019188019080838360005b83811015610461578181015183820152602001610449565b50505050905090810190601f16801561048e5780820380516001836020036101000a031916815260200191505b509850505050505050505060405180910390f35b610139600480360360208110156104b857600080fd5b50356001600160a01b0316610bba565b610139610d36565b610139610d56565b610139610dae565b610292600480360360408110156104f657600080fd5b506001600160a01b038135169060200135610e09565b6102526004803603606081101561052257600080fd5b6001600160a01b038235169190810190604081016020820135600160201b81111561054c57600080fd5b82018360208201111561055e57600080fd5b803590602001918460208302840111600160201b8311171561057f57600080fd5b9190808060200260200160405190810160405280939291908181526020018383602002808284376000920191909152509295949360208101935035915050600160201b8111156105ce57600080fd5b8201836020820111156105e057600080fd5b803590602001918460208302840111600160201b8311171561060157600080fd5b919080806020026020016040519081016040528093929190818152602001838360200280828437600092019190915250929550610e3e945050505050565b6102dc6004803603604081101561065557600080fd5b810190602081018135600160201b81111561066f57600080fd5b82018360208201111561068157600080fd5b803590602001918460208302840111600160201b831117156106a257600080fd5b919080806020026020016040519081016040528093929190818152602001838360200280828437600092019190915250929550505090356001600160a01b03169150610e979050565b6102526004803603606081101561070157600080fd5b506001600160a01b03813581169160208101359091169060400135610eef565b6102dc611233565b6107556004803603604081101561073f57600080fd5b506001600160a01b03813516906020013561123c565b60408051918252519081900360200190f35b6102526004803603606081101561077d57600080fd5b506001600160a01b0381358116916020810135909116906040013561122e565b60018054604080516020600284861615610100026000190190941693909304601f810184900484028201840190925281815292918301828280156108225780601f106107f757610100808354040283529160200191610822565b820191906000526020600020905b81548152906001019060200180831161080557829003601f168201915b505050505081565b805161083d9060009060208401906114cd565b5050565b600380546001600160a01b03909216620100000262010000600160b01b0319909216919091179055565b60018054604080516020601f600260001961010087891615020190951694909404938401819004810282018101909252828152606093909290918301828280156108f65780601f106108cb576101008083540402835291602001916108f6565b820191906000526020600020905b8154815290600101906020018083116108d957829003601f168201915b505050505090505b90565b60028054604080516020601f60001961010060018716150201909416859004938401819004810282018101909252828152606093909290918301828280156108f65780601f106108cb576101008083540402835291602001916108f6565b6003546201000090046001600160a01b031681565b6000816001600160a01b0316639c6790176040518163ffffffff1660e01b815260040160206040518083038186803b1580156109af57600080fd5b505afa1580156109c3573d6000803e3d6000fd5b505050506040513d60208110156109d957600080fd5b505192915050565b600354610100900460ff1681565b606080606080600060016002610a03610d36565b8354604080516020601f60026000196101006001881615020190951694909404938401819004810282018101909252828152918691830182828015610a895780601f10610a5e57610100808354040283529160200191610a89565b820191906000526020600020905b815481529060010190602001808311610a6c57829003601f168201915b5050865460408051602060026001851615610100026000190190941693909304601f810184900484028201840190925281815295995088945092508401905082828015610b175780601f10610aec57610100808354040283529160200191610b17565b820191906000526020600020905b815481529060010190602001808311610afa57829003601f168201915b5050855460408051602060026001851615610100026000190190941693909304601f810184900484028201840190925281815295985087945092508401905082828015610ba55780601f10610b7a57610100808354040283529160200191610ba5565b820191906000526020600020905b815481529060010190602001808311610b8857829003601f168201915b50505050509150935093509350935090919293565b604080518082018252601081526f181899199a1a9b1b9c1cb0b131b232b360811b60208201528151602a80825260608281019094526001600160a01b03851692918491602082018180388339019050509050600360fc1b81600081518110610c1e57fe5b60200101906001600160f81b031916908160001a905350600f60fb1b81600181518110610c4757fe5b60200101906001600160f81b031916908160001a90535060005b6014811015610d2d578260048583600c0160208110610c7c57fe5b1a60f81b6001600160f81b031916901c60f81c60ff1681518110610c9c57fe5b602001015160f81c60f81b828260020260020181518110610cb957fe5b60200101906001600160f81b031916908160001a905350828482600c0160208110610ce057fe5b825191901a600f16908110610cf157fe5b602001015160f81c60f81b828260020260030181518110610d0e57fe5b60200101906001600160f81b031916908160001a905350600101610c61565b50949350505050565b60606040518060600160405280602f8152602001611625602f9139905090565b6002805460408051602060018416156101000260001901909316849004601f810184900484028201840190925281815292918301828280156108225780601f106107f757610100808354040283529160200191610822565b6000805460408051602060026001851615610100026000190190941693909304601f810184900484028201840190925281815292918301828280156108225780601f106107f757610100808354040283529160200191610822565b60046020528160005260406000208181548110610e2257fe5b6000918252602090912001546001600160a01b03169150829050565b6001600160a01b03831660009081526004602090815260409091208351610e679285019061154b565b506001600160a01b03831660009081526005602090815260409091208251610e91928401906115ac565b50505050565b6000805b8351811015610ee357826001600160a01b0316848281518110610eba57fe5b60200260200101516001600160a01b03161415610edb576001915050610ee9565b600101610e9b565b50600090505b92915050565b6001600160a01b0382166000908152600460209081526040918290208054835181840281018401909452808452610f659392830182828015610f5a57602002820191906000526020600020905b81546001600160a01b03168152600190910190602001808311610f3c575b505050505084610e97565b8061104357506003546001600160a01b03838116600090815260056020526040908190208151634127f79f60e01b81528784166024820152600481019283528154604482018190526201000090950490931693634127f79f9391928892909182916064019085908015610ff757602002820191906000526020600020905b815481526020019060010190808311610fe3575b5050935050505060206040518083038186803b15801561101657600080fd5b505afa15801561102a573d6000803e3d6000fd5b505050506040513d602081101561104057600080fd5b50515b15611213576060826001600160a01b03166306fdde036040518163ffffffff1660e01b815260040160006040518083038186803b15801561108357600080fd5b505afa158015611097573d6000803e3d6000fd5b505050506040513d6000823e601f3d908101601f1916820160405260208110156110c057600080fd5b8101908080516040519392919084600160201b8211156110df57600080fd5b9083019060208201858111156110f457600080fd5b8251600160201b81118282018810171561110d57600080fd5b82525081516020918201929091019080838360005b8381101561113a578181015183820152602001611122565b50505050905090810190601f1680156111675780820380516001836020036101000a031916815260200191505b50604052505050604051602001808074596f757220636c61696d206f6e20746f6b656e202760581b81525060150182805190602001908083835b602083106111c05780518252601f1990920191602091820191016111a1565b6001836020036101000a0380198251168184511680821785525050505050509050018061165460979139609701915050604051602081830303815290604052905061120d3084848461126a565b5061122e565b61122e3083836040518060200160405280600081525061135d565b505050565b60035460ff1681565b6005602052816000526040600020818154811061125557fe5b90600052602060002001600091509150505481565b61127483836113e3565b50826001600160a01b0316637c41e5d88584846040518463ffffffff1660e01b815260040180846001600160a01b03166001600160a01b0316815260200183815260200180602001828103825283818151815260200191508051906020019080838360005b838110156112f15781810151838201526020016112d9565b50505050905090810190601f16801561131e5780820380516001836020036101000a031916815260200191505b50945050505050600060405180830381600087803b15801561133f57600080fd5b505af1158015611353573d6000803e3d6000fd5b5050505050505050565b61136783836113e3565b50826001600160a01b031663bdc656e98584846040518463ffffffff1660e01b815260040180846001600160a01b03166001600160a01b031681526020018381526020018060200182810382528381815181526020019150805190602001908083836000838110156112f15781810151838201526020016112d9565b6040805162379c0960e91b815230600482015260248101839052905160009182916001600160a01b03861691636f38120091604480830192602092919082900301818787803b15801561143557600080fd5b505af1158015611449573d6000803e3d6000fd5b505050506040513d602081101561145f57600080fd5b5051905060028114801590611475575080600314155b6114c6576040805162461bcd60e51b815260206004820181905260248201527f5468697320766572696669657220697320616c72656164792064656369646564604482015290519081900360640190fd5b5092915050565b828054600181600116156101000203166002900490600052602060002090601f016020900481019282601f1061150e57805160ff191683800117855561153b565b8280016001018555821561153b579182015b8281111561153b578251825591602001919060010190611520565b506115479291506115e6565b5090565b8280548282559060005260206000209081019282156115a0579160200282015b828111156115a057825182546001600160a01b0319166001600160a01b0390911617825560209092019160019091019061156b565b50611547929150611600565b82805482825590600052602060002090810192821561153b579160200282018281111561153b578251825591602001919060010190611520565b6108fe91905b8082111561154757600081556001016115ec565b6108fe91905b808211156115475780546001600160a01b031916815560010161160656fe616464726573735b5d3a626c6f636b65642075736572733a2c75696e745b5d3a626c6f636b65642067726f7570733a2720676f742072656a65637465642066726f6d20746865206e6f6e696e7465726163746976652076657269666965722027426c6f636b546865736527206265636175736520796f752061726520626c6f636b6564206f6e207468697320746f6b656e202d20656974686572206469726563746c79206f722076696120612067726f757020796f75206172652061206d656d626572206f66a265627a7a72315820634ad4011f1b17284f1eab013e20ece2b9a4282a7b21ba34255415ec465a2b4364736f6c6343000511003273632e76657269666965722e626c6f636b2d74686573652e6465736372697074696f6e",
  "source": "pragma solidity ^0.5.17;\n\nimport \"contracts/verifiers/Fin4BaseVerifierType.sol\";\nimport \"contracts/Fin4Groups.sol\";\n\ncontract BlockThese is Fin4BaseVerifierType {\n\n    constructor() public  {\n        name = \"sc.verifier.block-these.name\";\n        description = \"sc.verifier.block-these.description\";\n        isAutoCheckable = true;\n    }\n\n    address public Fin4GroupsAddress;\n\n    function setFin4GroupsAddress(address Fin4GroupsAddr) public {\n        Fin4GroupsAddress = Fin4GroupsAddr;\n    }\n\n    // @Override\n    function autoCheck(address user, address tokenAddress, uint claimId) public {\n        if (arrayContainsAddress(tokenToBlockedUsers[tokenAddress], user) ||\n            Fin4Groups(Fin4GroupsAddress).userIsInOneOfTheseGroups(tokenToBlockedGroups[tokenAddress], user)) {\n            string memory message = string(abi.encodePacked(\n                \"Your claim on token \\'\",\n                Fin4TokenStub(tokenAddress).name(),\n                \"\\' got rejected from the noninteractive verifier \\'BlockThese\\' because you are blocked on this token\"\n                \" - either directly or via a group you are a member of\"));\n            _sendRejectionNotice(address(this), tokenAddress, claimId, message);\n        } else {\n            _sendApprovalNotice(address(this), tokenAddress, claimId, \"\");\n        }\n    }\n\n    // @Override\n    function getParameterForTokenCreatorToSetEncoded() public pure returns(string memory) {\n        return \"address[]:blocked users:,uint[]:blocked groups:\";\n    }\n\n    // TODO use boolean-mapping for value instead?\n    mapping (address => address[]) public tokenToBlockedUsers;\n    mapping (address => uint[]) public tokenToBlockedGroups;\n\n    function setParameters(address token, address[] memory blockedUsers, uint[] memory blockedGroupIds) public {\n        tokenToBlockedUsers[token] = blockedUsers;\n        tokenToBlockedGroups[token] = blockedGroupIds;\n    }\n\n}\n",
  "sourcePath": "/home/cantonioupao/susDAO-saveMe/FIN4Contracts/contracts/verifiers/onchain/noninteractive/BlockThese.sol",
  "compiler": {
    "name": "solc",
    "version": "0.5.17+commit.d19bba13.Emscripten.clang"
  },
  "schemaVersion": "3.3.1",
  "updatedAt": "2020-12-03T18:27:59.006Z",
  "devdoc": {
    "methods": {}
  },
  "userdoc": {
    "methods": {}
  }
}