{
  "contractName": "ClaimableOnlyNTimesPerUser",
  "abi": [
    {
      "inputs": [],
      "payable": false,
      "stateMutability": "nonpayable",
      "type": "constructor"
    },
    {
      "constant": true,
      "inputs": [
        {
          "internalType": "address",
          "name": "_addr",
          "type": "address"
        }
      ],
      "name": "addressToString",
      "outputs": [
        {
          "internalType": "string",
          "name": "",
          "type": "string"
        }
      ],
      "payable": false,
      "stateMutability": "pure",
      "type": "function"
    },
    {
      "constant": true,
      "inputs": [
        {
          "internalType": "address[]",
          "name": "arr",
          "type": "address[]"
        },
        {
          "internalType": "address",
          "name": "addrToCheck",
          "type": "address"
        }
      ],
      "name": "arrayContainsAddress",
      "outputs": [
        {
          "internalType": "bool",
          "name": "",
          "type": "bool"
        }
      ],
      "payable": false,
      "stateMutability": "pure",
      "type": "function"
    },
    {
      "constant": false,
      "inputs": [
        {
          "internalType": "address",
          "name": "user",
          "type": "address"
        },
        {
          "internalType": "address",
          "name": "tokenAddrToReceiveVerifierNotice",
          "type": "address"
        },
        {
          "internalType": "uint256",
          "name": "claimId",
          "type": "uint256"
        }
      ],
      "name": "autoSubmitProof",
      "outputs": [],
      "payable": false,
      "stateMutability": "nonpayable",
      "type": "function"
    },
    {
      "constant": true,
      "inputs": [],
      "name": "contractName",
      "outputs": [
        {
          "internalType": "string",
          "name": "",
          "type": "string"
        }
      ],
      "payable": false,
      "stateMutability": "view",
      "type": "function"
    },
    {
      "constant": true,
      "inputs": [],
      "name": "description",
      "outputs": [
        {
          "internalType": "string",
          "name": "",
          "type": "string"
        }
      ],
      "payable": false,
      "stateMutability": "view",
      "type": "function"
    },
    {
      "constant": true,
      "inputs": [
        {
          "internalType": "address",
          "name": "tokenAddress",
          "type": "address"
        }
      ],
      "name": "getCreatorOfToken",
      "outputs": [
        {
          "internalType": "address",
          "name": "",
          "type": "address"
        }
      ],
      "payable": false,
      "stateMutability": "view",
      "type": "function"
    },
    {
      "constant": true,
      "inputs": [],
      "name": "getDescription",
      "outputs": [
        {
          "internalType": "string",
          "name": "",
          "type": "string"
        }
      ],
      "payable": false,
      "stateMutability": "view",
      "type": "function"
    },
    {
      "constant": true,
      "inputs": [],
      "name": "getInfo",
      "outputs": [
        {
          "internalType": "string",
          "name": "",
          "type": "string"
        },
        {
          "internalType": "string",
          "name": "",
          "type": "string"
        },
        {
          "internalType": "string",
          "name": "",
          "type": "string"
        },
        {
          "internalType": "string",
          "name": "",
          "type": "string"
        }
      ],
      "payable": false,
      "stateMutability": "view",
      "type": "function"
    },
    {
      "constant": true,
      "inputs": [],
      "name": "getName",
      "outputs": [
        {
          "internalType": "string",
          "name": "",
          "type": "string"
        }
      ],
      "payable": false,
      "stateMutability": "view",
      "type": "function"
    },
    {
      "constant": true,
      "inputs": [],
      "name": "isAutoCheckable",
      "outputs": [
        {
          "internalType": "bool",
          "name": "",
          "type": "bool"
        }
      ],
      "payable": false,
      "stateMutability": "view",
      "type": "function"
    },
    {
      "constant": true,
      "inputs": [],
      "name": "isAutoInitiable",
      "outputs": [
        {
          "internalType": "bool",
          "name": "",
          "type": "bool"
        }
      ],
      "payable": false,
      "stateMutability": "view",
      "type": "function"
    },
    {
      "constant": true,
      "inputs": [],
      "name": "name",
      "outputs": [
        {
          "internalType": "string",
          "name": "",
          "type": "string"
        }
      ],
      "payable": false,
      "stateMutability": "view",
      "type": "function"
    },
    {
      "constant": false,
      "inputs": [
        {
          "internalType": "string",
          "name": "_contractName",
          "type": "string"
        }
      ],
      "name": "setContractName",
      "outputs": [],
      "payable": false,
      "stateMutability": "nonpayable",
      "type": "function"
    },
    {
      "constant": true,
      "inputs": [
        {
          "internalType": "address",
          "name": "",
          "type": "address"
        }
      ],
      "name": "tokenToClaimsCap",
      "outputs": [
        {
          "internalType": "uint256",
          "name": "",
          "type": "uint256"
        }
      ],
      "payable": false,
      "stateMutability": "view",
      "type": "function"
    },
    {
      "constant": false,
      "inputs": [
        {
          "internalType": "address",
          "name": "user",
          "type": "address"
        },
        {
          "internalType": "address",
          "name": "tokenAddrToReceiveVerifierNotice",
          "type": "address"
        },
        {
          "internalType": "uint256",
          "name": "claimId",
          "type": "uint256"
        }
      ],
      "name": "autoCheck",
      "outputs": [],
      "payable": false,
      "stateMutability": "nonpayable",
      "type": "function"
    },
    {
      "constant": true,
      "inputs": [],
      "name": "getParameterForTokenCreatorToSetEncoded",
      "outputs": [
        {
          "internalType": "string",
          "name": "",
          "type": "string"
        }
      ],
      "payable": false,
      "stateMutability": "pure",
      "type": "function"
    },
    {
      "constant": false,
      "inputs": [
        {
          "internalType": "address",
          "name": "token",
          "type": "address"
        },
        {
          "internalType": "uint256",
          "name": "claimsCap",
          "type": "uint256"
        }
      ],
      "name": "setParameters",
      "outputs": [],
      "payable": false,
      "stateMutability": "nonpayable",
      "type": "function"
    }
  ],
  "bytecode": "0x60806040526003805461ffff191690553480156200001c57600080fd5b50604051806060016040528060308152602001620015fe6030913980516200004d9160019160209091019062000094565b50604051806060016040528060378152602001620015c76037913980516200007e9160029160209091019062000094565b506003805461ff00191661010017905562000139565b828054600181600116156101000203166002900490600052602060002090601f016020900481019282601f10620000d757805160ff191683800117855562000107565b8280016001018555821562000107579182015b8281111562000107578251825591602001919060010190620000ea565b506200011592915062000119565b5090565b6200013691905b8082111562000115576000815560010162000120565b90565b61147e80620001496000396000f3fe608060405234801561001057600080fd5b506004361061010b5760003560e01c80635e57966d116100a25780639259360c116100715780639259360c146104cb578063ae18e0a514610579578063c05ebcc5146105af578063c4198161146105b7578063ffc5daef146105e35761010b565b80635e57966d1461048d5780636c71d542146104b35780637284e416146104bb57806375d0c0dc146104c35761010b565b80632b406658116100de5780632b40665814610245578063367909321461027d5780634d1a1d5d146102bf5780635a9b0b89146102db5761010b565b806306fdde03146101105780630b5ee0061461018d57806317d7de7c146102355780631a0925411461023d575b600080fd5b610118610619565b6040805160208082528351818301528351919283929083019185019080838360005b8381101561015257818101518382015260200161013a565b50505050905090810190601f16801561017f5780820380516001836020036101000a031916815260200191505b509250505060405180910390f35b610233600480360360208110156101a357600080fd5b8101906020810181356401000000008111156101be57600080fd5b8201836020820111156101d057600080fd5b803590602001918460018302840111640100000000831117156101f257600080fd5b91908080601f0160208091040260200160405190810160405280939291908181526020018383808284376000920191909152509295506106a6945050505050565b005b6101186106bd565b610118610753565b61026b6004803603602081101561025b57600080fd5b50356001600160a01b03166107b1565b60408051918252519081900360200190f35b6102a36004803603602081101561029357600080fd5b50356001600160a01b03166107c3565b604080516001600160a01b039092168252519081900360200190f35b6102c7610832565b604080519115158252519081900360200190f35b6102e3610840565b6040518080602001806020018060200180602001858103855289818151815260200191508051906020019080838360005b8381101561032c578181015183820152602001610314565b50505050905090810190601f1680156103595780820380516001836020036101000a031916815260200191505b5085810384528851815288516020918201918a019080838360005b8381101561038c578181015183820152602001610374565b50505050905090810190601f1680156103b95780820380516001836020036101000a031916815260200191505b50858103835287518152875160209182019189019080838360005b838110156103ec5781810151838201526020016103d4565b50505050905090810190601f1680156104195780820380516001836020036101000a031916815260200191505b50858103825286518152865160209182019188019080838360005b8381101561044c578181015183820152602001610434565b50505050905090810190601f1680156104795780820380516001836020036101000a031916815260200191505b509850505050505050505060405180910390f35b610118600480360360208110156104a357600080fd5b50356001600160a01b0316610a0b565b610118610b87565b610118610bb2565b610118610c0a565b6102c7600480360360408110156104e157600080fd5b8101906020810181356401000000008111156104fc57600080fd5b82018360208201111561050e57600080fd5b8035906020019184602083028401116401000000008311171561053057600080fd5b919080806020026020016040519081016040528093929190818152602001838360200280828437600092019190915250929550505090356001600160a01b03169150610c659050565b6102336004803603606081101561058f57600080fd5b506001600160a01b03813581169160208101359091169060400135610cbd565b6102c7610fb6565b610233600480360360408110156105cd57600080fd5b506001600160a01b038135169060200135610fbf565b610233600480360360608110156105f957600080fd5b506001600160a01b03813581169160208101359091169060400135610fdb565b60018054604080516020600284861615610100026000190190941693909304601f8101849004840282018401909252818152929183018282801561069e5780601f106106735761010080835404028352916020019161069e565b820191906000526020600020905b81548152906001019060200180831161068157829003601f168201915b505050505081565b80516106b9906000906020840190611307565b5050565b60018054604080516020601f600260001961010087891615020190951694909404938401819004810282018101909252828152606093909290918301828280156107485780601f1061071d57610100808354040283529160200191610748565b820191906000526020600020905b81548152906001019060200180831161072b57829003601f168201915b505050505090505b90565b60028054604080516020601f60001961010060018716150201909416859004938401819004810282018101909252828152606093909290918301828280156107485780601f1061071d57610100808354040283529160200191610748565b60046020526000908152604090205481565b6000816001600160a01b0316639c6790176040518163ffffffff1660e01b815260040160206040518083038186803b1580156107fe57600080fd5b505afa158015610812573d6000803e3d6000fd5b505050506040513d602081101561082857600080fd5b505190505b919050565b600354610100900460ff1681565b606080606080600060016002610854610b87565b8354604080516020601f600260001961010060018816150201909516949094049384018190048102820181019092528281529186918301828280156108da5780601f106108af576101008083540402835291602001916108da565b820191906000526020600020905b8154815290600101906020018083116108bd57829003601f168201915b5050865460408051602060026001851615610100026000190190941693909304601f8101849004840282018401909252818152959950889450925084019050828280156109685780601f1061093d57610100808354040283529160200191610968565b820191906000526020600020905b81548152906001019060200180831161094b57829003601f168201915b5050855460408051602060026001851615610100026000190190941693909304601f8101849004840282018401909252818152959850879450925084019050828280156109f65780601f106109cb576101008083540402835291602001916109f6565b820191906000526020600020905b8154815290600101906020018083116109d957829003601f168201915b50505050509150935093509350935090919293565b604080518082018252601081526f181899199a1a9b1b9c1cb0b131b232b360811b60208201528151602a80825260608281019094526001600160a01b03851692918491602082018180388339019050509050600360fc1b81600081518110610a6f57fe5b60200101906001600160f81b031916908160001a905350600f60fb1b81600181518110610a9857fe5b60200101906001600160f81b031916908160001a90535060005b6014811015610b7e578260048583600c0160208110610acd57fe5b1a60f81b6001600160f81b031916901c60f81c60ff1681518110610aed57fe5b602001015160f81c60f81b828260020260020181518110610b0a57fe5b60200101906001600160f81b031916908160001a905350828482600c0160208110610b3157fe5b825191901a600f16908110610b4257fe5b602001015160f81c60f81b828260020260030181518110610b5f57fe5b60200101906001600160f81b031916908160001a905350600101610ab2565b50949350505050565b6040805180820190915260118152703ab4b73a1d36b0bc171031b630b4b6b99d60791b602082015290565b6002805460408051602060018416156101000260001901909316849004601f8101849004840282018401909252818152929183018282801561069e5780601f106106735761010080835404028352916020019161069e565b6000805460408051602060026001851615610100026000190190941693909304601f8101849004840282018401909252818152929183018282801561069e5780601f106106735761010080835404028352916020019161069e565b6000805b8351811015610cb157826001600160a01b0316848281518110610c8857fe5b60200260200101516001600160a01b03161415610ca9576001915050610cb7565b600101610c69565b50600090505b92915050565b6000826001600160a01b0316638364c006856040518263ffffffff1660e01b815260040180826001600160a01b03166001600160a01b03168152602001915050602060405180830381600087803b158015610d1757600080fd5b505af1158015610d2b573d6000803e3d6000fd5b505050506040513d6020811015610d4157600080fd5b50516001600160a01b038416600090815260046020526040902054909150808210610f94576060846001600160a01b03166306fdde036040518163ffffffff1660e01b815260040160006040518083038186803b158015610da157600080fd5b505afa158015610db5573d6000803e3d6000fd5b505050506040513d6000823e601f3d908101601f191682016040526020811015610dde57600080fd5b8101908080516040519392919084640100000000821115610dfe57600080fd5b908301906020820185811115610e1357600080fd5b8251640100000000811182820188101715610e2d57600080fd5b82525081516020918201929091019080838360005b83811015610e5a578181015183820152602001610e42565b50505050905090810190601f168015610e875780820380516001836020036101000a031916815260200191505b50604052505050610e9783610fe0565b604051602001808074596f757220636c61696d206f6e20746f6b656e202760581b81525060150183805190602001908083835b60208310610ee95780518252601f199092019160209182019101610eca565b6001836020036101000a038019825116818451168082178552505050505050905001806113a0606491396064016046611404823960460182805190602001908083835b60208310610f4b5780518252601f199092019160209182019101610f2c565b6001836020036101000a038019825116818451168082178552505050505050905001925050506040516020818303038152906040529050610f8e308686846110a4565b50610faf565b610faf30858560405180602001604052806000815250611197565b5050505050565b60035460ff1681565b6001600160a01b03909116600090815260046020526040902055565b505050565b606081806110075750506040805180820190915260018152600360fc1b602082015261082d565b8060005b811561101f57600101600a8204915061100b565b6060816040519080825280601f01601f19166020018201604052801561104c576020820181803883390190505b50905060001982015b841561109a57600a850660300160f81b8282806001900393508151811061107857fe5b60200101906001600160f81b031916908160001a905350600a85049450611055565b5095945050505050565b6110ae838361121d565b50826001600160a01b0316637c41e5d88584846040518463ffffffff1660e01b815260040180846001600160a01b03166001600160a01b0316815260200183815260200180602001828103825283818151815260200191508051906020019080838360005b8381101561112b578181015183820152602001611113565b50505050905090810190601f1680156111585780820380516001836020036101000a031916815260200191505b50945050505050600060405180830381600087803b15801561117957600080fd5b505af115801561118d573d6000803e3d6000fd5b5050505050505050565b6111a1838361121d565b50826001600160a01b031663bdc656e98584846040518463ffffffff1660e01b815260040180846001600160a01b03166001600160a01b0316815260200183815260200180602001828103825283818151815260200191508051906020019080838360008381101561112b578181015183820152602001611113565b6040805162379c0960e91b815230600482015260248101839052905160009182916001600160a01b03861691636f38120091604480830192602092919082900301818787803b15801561126f57600080fd5b505af1158015611283573d6000803e3d6000fd5b505050506040513d602081101561129957600080fd5b50519050600281148015906112af575080600314155b611300576040805162461bcd60e51b815260206004820181905260248201527f5468697320766572696669657220697320616c72656164792064656369646564604482015290519081900360640190fd5b5092915050565b828054600181600116156101000203166002900490600052602060002090601f016020900481019282601f1061134857805160ff1916838001178555611375565b82800160010185558215611375579182015b8281111561137557825182559160200191906001019061135a565b50611381929150611385565b5090565b61075091905b80821115611381576000815560010161138b56fe2720676f742072656a65637465642066726f6d20746865206e6f6e696e7465726163746976652076657269666965722027436c61696d61626c654f6e6c794e54696d65735065725573657227206265636175736520796f75207265616368656420746865206d6178696d756d206e756d626572206f66207375636365737366756c20636c61696d7320617320646566696e65642062792074686520746f6b656e2063726561746f723a20a265627a7a72315820bba36a71dd8de59692fcc2b8f54f9f32c6b321db8004f973108ad0baf75ad86c64736f6c6343000511003273632e76657269666965722e636c61696d61626c652d6f6e6c792d6e2d74696d65732d7065722d757365722e6465736372697074696f6e73632e76657269666965722e636c61696d61626c652d6f6e6c792d6e2d74696d65732d7065722d757365722e6e616d65",
  "source": "pragma solidity ^0.5.17;\n\nimport \"contracts/verifiers/Fin4BaseVerifierType.sol\";\n\ncontract ClaimableOnlyNTimesPerUser is Fin4BaseVerifierType {\n\n    constructor() public  {\n        name = \"sc.verifier.claimable-only-n-times-per-user.name\";\n        description = \"sc.verifier.claimable-only-n-times-per-user.description\";\n        isAutoCheckable = true;\n    }\n\n    // @Override\n    function autoCheck(address user, address tokenAddrToReceiveVerifierNotice, uint claimId) public {\n        // This would allow several parallel claims to go through if they are not approved one after the other\n        // have to check when all other verifiers are approved instead // TODO\n        uint usersClaimCountOnToken = Fin4TokenStub(tokenAddrToReceiveVerifierNotice).countApprovedClaimsOfThisUser(user);\n        uint cap = tokenToClaimsCap[tokenAddrToReceiveVerifierNotice];\n        if (usersClaimCountOnToken >= cap) {\n            string memory message = string(abi.encodePacked(\n                \"Your claim on token \\'\",\n                Fin4TokenStub(tokenAddrToReceiveVerifierNotice).name(),\n                \"\\' got rejected from the noninteractive verifier \\'ClaimableOnlyNTimesPerUser\\' because you reached the\",\n                \" maximum number of successful claims as defined by the token creator: \", uint2str(cap)));\n            _sendRejectionNotice(address(this), tokenAddrToReceiveVerifierNotice, claimId, message);\n        } else {\n            _sendApprovalNotice(address(this), tokenAddrToReceiveVerifierNotice, claimId, \"\");\n        }\n    }\n\n    // @Override\n    function getParameterForTokenCreatorToSetEncoded() public pure returns(string memory) {\n        return \"uint:max. claims:\";\n    }\n\n    mapping (address => uint) public tokenToClaimsCap;\n\n    function setParameters(address token, uint claimsCap) public {\n        tokenToClaimsCap[token] = claimsCap;\n    }\n\n}\n",
  "sourcePath": "/home/cantonioupao/susDAO-saveMe/FIN4Contracts/contracts/verifiers/onchain/noninteractive/ClaimableOnlyNTimesPerUser.sol",
  "compiler": {
    "name": "solc",
    "version": "0.5.17+commit.d19bba13.Emscripten.clang"
  },
  "schemaVersion": "3.3.1",
  "updatedAt": "2020-12-03T18:27:59.009Z",
  "devdoc": {
    "methods": {}
  },
  "userdoc": {
    "methods": {}
  }
}