{
  "contractName": "Fin4Collections",
  "abi": [
    {
      "constant": true,
      "inputs": [],
      "name": "Fin4GroupsAddress",
      "outputs": [
        {
          "internalType": "address",
          "name": "",
          "type": "address"
        }
      ],
      "payable": false,
      "stateMutability": "view",
      "type": "function"
    },
    {
      "constant": true,
      "inputs": [
        {
          "internalType": "uint256",
          "name": "",
          "type": "uint256"
        }
      ],
      "name": "collections",
      "outputs": [
        {
          "internalType": "uint256",
          "name": "collectionId",
          "type": "uint256"
        },
        {
          "internalType": "address",
          "name": "creator",
          "type": "address"
        },
        {
          "internalType": "uint256",
          "name": "adminGroupId",
          "type": "uint256"
        },
        {
          "internalType": "bool",
          "name": "adminGroupIsSet",
          "type": "bool"
        },
        {
          "internalType": "string",
          "name": "name",
          "type": "string"
        },
        {
          "internalType": "string",
          "name": "identifier",
          "type": "string"
        },
        {
          "internalType": "string",
          "name": "description",
          "type": "string"
        },
        {
          "internalType": "string",
          "name": "color",
          "type": "string"
        },
        {
          "internalType": "string",
          "name": "logoURL",
          "type": "string"
        }
      ],
      "payable": false,
      "stateMutability": "view",
      "type": "function"
    },
    {
      "constant": true,
      "inputs": [
        {
          "internalType": "string",
          "name": "",
          "type": "string"
        }
      ],
      "name": "identifiers",
      "outputs": [
        {
          "internalType": "bool",
          "name": "",
          "type": "bool"
        }
      ],
      "payable": false,
      "stateMutability": "view",
      "type": "function"
    },
    {
      "constant": true,
      "inputs": [],
      "name": "nextCollectionId",
      "outputs": [
        {
          "internalType": "uint256",
          "name": "",
          "type": "uint256"
        }
      ],
      "payable": false,
      "stateMutability": "view",
      "type": "function"
    },
    {
      "constant": false,
      "inputs": [
        {
          "internalType": "address",
          "name": "Fin4GroupsAddr",
          "type": "address"
        }
      ],
      "name": "setFin4GroupsAddress",
      "outputs": [],
      "payable": false,
      "stateMutability": "nonpayable",
      "type": "function"
    },
    {
      "constant": true,
      "inputs": [],
      "name": "getCollectionsCount",
      "outputs": [
        {
          "internalType": "uint256",
          "name": "",
          "type": "uint256"
        }
      ],
      "payable": false,
      "stateMutability": "view",
      "type": "function"
    },
    {
      "constant": false,
      "inputs": [
        {
          "internalType": "string",
          "name": "name",
          "type": "string"
        },
        {
          "internalType": "string",
          "name": "identifier",
          "type": "string"
        },
        {
          "internalType": "string",
          "name": "description",
          "type": "string"
        }
      ],
      "name": "createCollection",
      "outputs": [
        {
          "internalType": "uint256",
          "name": "",
          "type": "uint256"
        }
      ],
      "payable": false,
      "stateMutability": "nonpayable",
      "type": "function"
    },
    {
      "constant": true,
      "inputs": [
        {
          "internalType": "uint256",
          "name": "collectionId",
          "type": "uint256"
        }
      ],
      "name": "getCollection",
      "outputs": [
        {
          "internalType": "bool",
          "name": "",
          "type": "bool"
        },
        {
          "internalType": "bool",
          "name": "",
          "type": "bool"
        },
        {
          "internalType": "bool",
          "name": "",
          "type": "bool"
        },
        {
          "internalType": "uint256",
          "name": "",
          "type": "uint256"
        },
        {
          "internalType": "address[]",
          "name": "",
          "type": "address[]"
        },
        {
          "internalType": "string",
          "name": "",
          "type": "string"
        },
        {
          "internalType": "string",
          "name": "",
          "type": "string"
        },
        {
          "internalType": "string",
          "name": "",
          "type": "string"
        }
      ],
      "payable": false,
      "stateMutability": "view",
      "type": "function"
    },
    {
      "constant": true,
      "inputs": [
        {
          "internalType": "uint256",
          "name": "collectionId",
          "type": "uint256"
        },
        {
          "internalType": "address",
          "name": "user",
          "type": "address"
        }
      ],
      "name": "_userIsAdmin",
      "outputs": [
        {
          "internalType": "bool",
          "name": "",
          "type": "bool"
        }
      ],
      "payable": false,
      "stateMutability": "view",
      "type": "function"
    },
    {
      "constant": false,
      "inputs": [
        {
          "internalType": "uint256",
          "name": "collectionId",
          "type": "uint256"
        },
        {
          "internalType": "address",
          "name": "newOwner",
          "type": "address"
        }
      ],
      "name": "transferOwnership",
      "outputs": [],
      "payable": false,
      "stateMutability": "nonpayable",
      "type": "function"
    },
    {
      "constant": false,
      "inputs": [
        {
          "internalType": "uint256",
          "name": "collectionId",
          "type": "uint256"
        },
        {
          "internalType": "uint256",
          "name": "groupId",
          "type": "uint256"
        }
      ],
      "name": "setAdminGroupId",
      "outputs": [],
      "payable": false,
      "stateMutability": "nonpayable",
      "type": "function"
    },
    {
      "constant": false,
      "inputs": [
        {
          "internalType": "uint256",
          "name": "collectionId",
          "type": "uint256"
        }
      ],
      "name": "removeAdminGroup",
      "outputs": [],
      "payable": false,
      "stateMutability": "nonpayable",
      "type": "function"
    },
    {
      "constant": false,
      "inputs": [
        {
          "internalType": "uint256",
          "name": "collectionId",
          "type": "uint256"
        },
        {
          "internalType": "address[]",
          "name": "newTokens",
          "type": "address[]"
        }
      ],
      "name": "addTokens",
      "outputs": [],
      "payable": false,
      "stateMutability": "nonpayable",
      "type": "function"
    },
    {
      "constant": false,
      "inputs": [
        {
          "internalType": "uint256",
          "name": "collectionId",
          "type": "uint256"
        },
        {
          "internalType": "address",
          "name": "tokenToRemove",
          "type": "address"
        }
      ],
      "name": "removeToken",
      "outputs": [],
      "payable": false,
      "stateMutability": "nonpayable",
      "type": "function"
    }
  ],
  "bytecode": "0x6080604052600060015561270f60025534801561001b57600080fd5b50611ede8061002b6000396000f3fe608060405234801561001057600080fd5b50600436106100ea5760003560e01c80638161199d1161008c578063e144e93511610066578063e144e9351461052a578063e77d6f7c14610547578063ece86c211461054f578063fdbda0ec146106fd576100ea565b80638161199d146104235780639afb669d146104db578063a1ea775b146104fe576100ea565b80633297bf06116100c85780633297bf061461015d57806333fe5676146101815780635a1f3c28146101ad5780636b5b88081461037b576100ea565b80630e0e68b5146100ef57806329507f73146101175780632a9cec6614610143575b600080fd5b6101156004803603602081101561010557600080fd5b50356001600160a01b031661095c565b005b6101156004803603604081101561012d57600080fd5b50803590602001356001600160a01b031661097e565b61014b610a20565b60408051918252519081900360200190f35b610165610a27565b604080516001600160a01b039092168252519081900360200190f35b6101156004803603604081101561019757600080fd5b50803590602001356001600160a01b0316610a36565b6101ca600480360360208110156101c357600080fd5b5035610bc6565b6040518089151515158152602001881515151581526020018715151515815260200186815260200180602001806020018060200180602001858103855289818151815260200191508051906020019060200280838360005b8381101561023a578181015183820152602001610222565b50505050905001858103845288818151815260200191508051906020019080838360005b8381101561027657818101518382015260200161025e565b50505050905090810190601f1680156102a35780820380516001836020036101000a031916815260200191505b50858103835287518152875160209182019189019080838360005b838110156102d65781810151838201526020016102be565b50505050905090810190601f1680156103035780820380516001836020036101000a031916815260200191505b50858103825286518152865160209182019188019080838360005b8381101561033657818101518382015260200161031e565b50505050905090810190601f1680156103635780820380516001836020036101000a031916815260200191505b509c5050505050505050505050505060405180910390f35b6101156004803603604081101561039157600080fd5b81359190810190604081016020820135600160201b8111156103b257600080fd5b8201836020820111156103c457600080fd5b803590602001918460208302840111600160201b831117156103e557600080fd5b919080806020026020016040519081016040528093929190818152602001838360200280828437600092019190915250929550610fc9945050505050565b6104c76004803603602081101561043957600080fd5b810190602081018135600160201b81111561045357600080fd5b82018360208201111561046557600080fd5b803590602001918460018302840111600160201b8311171561048657600080fd5b91908080601f016020809104026020016040519081016040528093929190818152602001838380828437600092019190915250929550611114945050505050565b604080519115158252519081900360200190f35b610115600480360360408110156104f157600080fd5b5080359060200135611134565b6104c76004803603604081101561051457600080fd5b50803590602001356001600160a01b031661128c565b6101156004803603602081101561054057600080fd5b5035611376565b61014b611403565b61014b6004803603606081101561056557600080fd5b810190602081018135600160201b81111561057f57600080fd5b82018360208201111561059157600080fd5b803590602001918460018302840111600160201b831117156105b257600080fd5b91908080601f0160208091040260200160405190810160405280939291908181526020018383808284376000920191909152509295949360208101935035915050600160201b81111561060457600080fd5b82018360208201111561061657600080fd5b803590602001918460018302840111600160201b8311171561063757600080fd5b91908080601f0160208091040260200160405190810160405280939291908181526020018383808284376000920191909152509295949360208101935035915050600160201b81111561068957600080fd5b82018360208201111561069b57600080fd5b803590602001918460018302840111600160201b831117156106bc57600080fd5b91908080601f016020809104026020016040519081016040528093929190818152602001838380828437600092019190915250929550611409945050505050565b61071a6004803603602081101561071357600080fd5b503561161c565b604051808a8152602001896001600160a01b03166001600160a01b0316815260200188815260200187151515158152602001806020018060200180602001806020018060200186810386528b818151815260200191508051906020019080838360005b8381101561079557818101518382015260200161077d565b50505050905090810190601f1680156107c25780820380516001836020036101000a031916815260200191505b5086810385528a5181528a516020918201918c019080838360005b838110156107f55781810151838201526020016107dd565b50505050905090810190601f1680156108225780820380516001836020036101000a031916815260200191505b5086810384528951815289516020918201918b019080838360005b8381101561085557818101518382015260200161083d565b50505050905090810190601f1680156108825780820380516001836020036101000a031916815260200191505b5086810383528851815288516020918201918a019080838360005b838110156108b557818101518382015260200161089d565b50505050905090810190601f1680156108e25780820380516001836020036101000a031916815260200191505b50868103825287518152875160209182019189019080838360005b838110156109155781810151838201526020016108fd565b50505050905090810190601f1680156109425780820380516001836020036101000a031916815260200191505b509e50505050505050505050505050505060405180910390f35b600080546001600160a01b0319166001600160a01b0392909216919091179055565b60008281526003602052604090206001015482906001600160a01b031633146109ee576040805162461bcd60e51b815260206004820152601e60248201527f55736572206973206e6f7420636f6c6c656374696f6e2063726561746f720000604482015290519081900360640190fd5b5060009182526003602052604090912060010180546001600160a01b0319166001600160a01b03909216919091179055565b6001545b90565b6000546001600160a01b031681565b81610a41813361128c565b610a7c5760405162461bcd60e51b8152600401808060200182810382526033815260200180611e406033913960400191505060405180910390fd5b60008381526003602090815260408083206001600160a01b0386168452600581019092529091205460ff16610ae25760405162461bcd60e51b8152600401808060200182810382526037815260200180611e736037913960400191505060405180910390fd5b6000610aee8585611923565b6004830180549192506000198201828110610b0557fe5b6000918252602090912001546004840180546001600160a01b039092169184908110610b2d57fe5b9060005260206000200160006101000a8154816001600160a01b0302191690836001600160a01b03160217905550826004016001820381548110610b6d57fe5b600091825260209091200180546001600160a01b031916905560048301805490610b9b906000198301611d20565b5050506001600160a01b03909216600090815260059092016020525060409020805460ff1916905550565b600080600080606080606080610bda611d49565b60008a8152600360208181526040928390208351610140810185528154815260018201546001600160a01b0316818401526002820154818601529281015460ff1615156060840152600481018054855181850281018501909652808652939491936080860193830182828015610c7957602002820191906000526020600020905b81546001600160a01b03168152600190910190602001808311610c5b575b505050918352505060068201805460408051602060026001851615610100026000190190941693909304601f8101849004840282018401909252818152938201939291830182828015610d0d5780601f10610ce257610100808354040283529160200191610d0d565b820191906000526020600020905b815481529060010190602001808311610cf057829003601f168201915b505050918352505060078201805460408051602060026001851615610100026000190190941693909304601f8101849004840282018401909252818152938201939291830182828015610da15780601f10610d7657610100808354040283529160200191610da1565b820191906000526020600020905b815481529060010190602001808311610d8457829003601f168201915b505050918352505060088201805460408051602060026001851615610100026000190190941693909304601f8101849004840282018401909252818152938201939291830182828015610e355780601f10610e0a57610100808354040283529160200191610e35565b820191906000526020600020905b815481529060010190602001808311610e1857829003601f168201915b505050918352505060098201805460408051602060026001851615610100026000190190941693909304601f8101849004840282018401909252818152938201939291830182828015610ec95780601f10610e9e57610100808354040283529160200191610ec9565b820191906000526020600020905b815481529060010190602001808311610eac57829003601f168201915b5050509183525050600a8201805460408051602060026001851615610100026000190190941693909304601f8101849004840282018401909252818152938201939291830182828015610f5d5780601f10610f3257610100808354040283529160200191610f5d565b820191906000526020600020905b815481529060010190602001808311610f4057829003601f168201915b5050505050815250509050336001600160a01b031681602001516001600160a01b031614610f8b8b3361128c565b60608301516040840151608085015160a086015160c087015160e090970151959e50939c50919a509850965094509092509050919395975091939597565b81610fd4813361128c565b61100f5760405162461bcd60e51b8152600401808060200182810382526033815260200180611e406033913960400191505060405180910390fd5b6000838152600360205260408120905b835181101561110d5781600501600085838151811061103a57fe5b6020908102919091018101516001600160a01b031682528101919091526040016000205460ff16611105578160040184828151811061107557fe5b60209081029190910181015182546001808201855560009485529284200180546001600160a01b0319166001600160a01b039092169190911790558551909160058501918790859081106110c557fe5b60200260200101516001600160a01b03166001600160a01b0316815260200190815260200160002060006101000a81548160ff0219169083151502179055505b60010161101f565b5050505050565b805160208183018101805160048252928201919093012091525460ff1681565b60008281526003602052604090206001015482906001600160a01b031633146111a4576040805162461bcd60e51b815260206004820152601e60248201527f55736572206973206e6f7420636f6c6c656374696f6e2063726561746f720000604482015290519081900360640190fd5b600054604080516317aa4c7b60e31b81526004810185905290516001600160a01b039092169163bd5263d891602480820192602092909190829003018186803b1580156111f057600080fd5b505afa158015611204573d6000803e3d6000fd5b505050506040513d602081101561121a57600080fd5b5051611264576040805162461bcd60e51b815260206004820152601460248201527311dc9bdd5c08191bd95cc81b9bdd08195e1a5cdd60621b604482015290519081900360640190fd5b506000918252600360208190526040909220600281019190915501805460ff19166001179055565b6000828152600360205260408120600101546001600160a01b03838116911614156112b957506001611370565b6000838152600360208190526040909120015460ff161561136c576000805484825260036020908152604092839020600201548351637d9e10f560e01b815260048101919091526001600160a01b03868116602483015293519390921692637d9e10f5926044808201939291829003018186803b15801561133957600080fd5b505afa15801561134d573d6000803e3d6000fd5b505050506040513d602081101561136357600080fd5b50519050611370565b5060005b92915050565b60008181526003602052604090206001015481906001600160a01b031633146113e6576040805162461bcd60e51b815260206004820152601e60248201527f55736572206973206e6f7420636f6c6c656374696f6e2063726561746f720000604482015290519081900360640190fd5b50600090815260036020819052604090912001805460ff19169055565b60015481565b60006004836040518082805190602001908083835b6020831061143d5780518252601f19909201916020918201910161141e565b51815160209384036101000a600019018019909216911617905292019485525060405193849003019092205460ff161591506114c29050576040805162461bcd60e51b815260206004820152601960248201527f4964656e74696669657220616c726561647920696e2075736500000000000000604482015290519081900360640190fd5b60026114cd84611d1c565b1161151f576040805162461bcd60e51b815260206004820152601760248201527f4964656e74696669657220697320746f6f2073686f7274000000000000000000604482015290519081900360640190fd5b60018054600090815260036020908152604090912091820180546001600160a01b03191633179055855161155b91600684019190880190611da7565b5083516115719060078301906020870190611da7565b5082516115879060088301906020860190611da7565b5060038101805460ff191690556040518451600191600491879190819060208401908083835b602083106115cc5780518252601f1990920191602091820191016115ad565b51815160209384036101000a60001901801990921691161790529201948552506040519384900301909220805460ff19169315159390931790925550506001805480820190915595945050505050565b6003602081815260009283526040928390208054600180830154600280850154968501546006860180548a516101009682161596909602600019011692909204601f810188900488028501880190995288845293976001600160a01b03909216969560ff90941694939091908301828280156116d95780601f106116ae576101008083540402835291602001916116d9565b820191906000526020600020905b8154815290600101906020018083116116bc57829003601f168201915b5050505060078301805460408051602060026001851615610100026000190190941693909304601f81018490048402820184019092528181529495949350908301828280156117695780601f1061173e57610100808354040283529160200191611769565b820191906000526020600020905b81548152906001019060200180831161174c57829003601f168201915b5050505060088301805460408051602060026001851615610100026000190190941693909304601f81018490048402820184019092528181529495949350908301828280156117f95780601f106117ce576101008083540402835291602001916117f9565b820191906000526020600020905b8154815290600101906020018083116117dc57829003601f168201915b5050505060098301805460408051602060026001851615610100026000190190941693909304601f81018490048402820184019092528181529495949350908301828280156118895780601f1061185e57610100808354040283529160200191611889565b820191906000526020600020905b81548152906001019060200180831161186c57829003601f168201915b50505050600a8301805460408051602060026001851615610100026000190190941693909304601f81018490048402820184019092528181529495949350908301828280156119195780601f106118ee57610100808354040283529160200191611919565b820191906000526020600020905b8154815290600101906020018083116118fc57829003601f168201915b5050505050905089565b600061192d611d49565b6000848152600360208181526040928390208351610140810185528154815260018201546001600160a01b0316818401526002820154818601529281015460ff16151560608401526004810180548551818502810185019096528086529394919360808601938301828280156119cc57602002820191906000526020600020905b81546001600160a01b031681526001909101906020018083116119ae575b505050918352505060068201805460408051602060026001851615610100026000190190941693909304601f8101849004840282018401909252818152938201939291830182828015611a605780601f10611a3557610100808354040283529160200191611a60565b820191906000526020600020905b815481529060010190602001808311611a4357829003601f168201915b505050918352505060078201805460408051602060026001851615610100026000190190941693909304601f8101849004840282018401909252818152938201939291830182828015611af45780601f10611ac957610100808354040283529160200191611af4565b820191906000526020600020905b815481529060010190602001808311611ad757829003601f168201915b505050918352505060088201805460408051602060026001851615610100026000190190941693909304601f8101849004840282018401909252818152938201939291830182828015611b885780601f10611b5d57610100808354040283529160200191611b88565b820191906000526020600020905b815481529060010190602001808311611b6b57829003601f168201915b505050918352505060098201805460408051602060026001851615610100026000190190941693909304601f8101849004840282018401909252818152938201939291830182828015611c1c5780601f10611bf157610100808354040283529160200191611c1c565b820191906000526020600020905b815481529060010190602001808311611bff57829003601f168201915b5050509183525050600a8201805460408051602060026001851615610100026000190190941693909304601f8101849004840282018401909252818152938201939291830182828015611cb05780601f10611c8557610100808354040283529160200191611cb0565b820191906000526020600020905b815481529060010190602001808311611c9357829003601f168201915b505050505081525050905060008090505b816080015151811015611d1057836001600160a01b031682608001518281518110611ce857fe5b60200260200101516001600160a01b03161415611d085791506113709050565b600101611cc1565b50506002549392505050565b5190565b815481835581811115611d4457600083815260209020611d44918101908301611e25565b505050565b6040518061014001604052806000815260200160006001600160a01b03168152602001600081526020016000151581526020016060815260200160608152602001606081526020016060815260200160608152602001606081525090565b828054600181600116156101000203166002900490600052602060002090601f016020900481019282601f10611de857805160ff1916838001178555611e15565b82800160010185558215611e15579182015b82811115611e15578251825591602001919060010190611dfa565b50611e21929150611e25565b5090565b610a2491905b80821115611e215760008155600101611e2b56fe55736572206973206e6f742063726561746f72206f7220696e20746865206170706f696e7465642061646d696e2067726f7570546f6b656e206e6f7420636f6e7461696e656420696e207468697320636f6c6c656374696f6e2c2063616e27742072656d6f7665206974a265627a7a7231582065c589e91904484754eee4d4b072a057cea5efde3c4805aaa33c85ee3288728164736f6c63430005110032",
  "source": "pragma solidity ^0.5.17;\n\nimport \"solidity-util/lib/Strings.sol\";\nimport \"contracts/Fin4Groups.sol\";\n\ncontract Fin4Collections {\n    using Strings for string;\n\n    address public Fin4GroupsAddress;\n\n    function setFin4GroupsAddress(address Fin4GroupsAddr) public {\n        Fin4GroupsAddress = Fin4GroupsAddr;\n    }\n\n    struct Collection {\n        uint collectionId;\n        address creator;\n        uint adminGroupId;\n        bool adminGroupIsSet;\n        address[] tokens;\n        mapping (address => bool) tokensSet;\n        string name;\n        string identifier;\n        string description;\n        string color; // not used yet\n        string logoURL; // not used yet\n    }\n\n    uint public nextCollectionId = 0;\n    uint private INVALID_INDEX = 9999;\n\n    mapping (uint => Collection) public collections;\n    mapping (string => bool) public identifiers;\n\n    function getCollectionsCount() public view returns(uint) {\n        return nextCollectionId;\n    }\n\n    function createCollection(string memory name, string memory identifier, string memory description) public returns(uint) {\n        // TODO also check for alphanumeric? How?\n        require(!identifiers[identifier], \"Identifier already in use\");\n        require(identifier.length() > 2, \"Identifier is too short\"); // TODO #ConceptualDecision\n        Collection storage col = collections[nextCollectionId];\n        col.creator = msg.sender;\n        col.name = name;\n        col.identifier = identifier;\n        col.description = description;\n        col.adminGroupIsSet = false;\n        identifiers[identifier] = true;\n        nextCollectionId ++;\n        return nextCollectionId - 1;\n    }\n\n    function getCollection(uint collectionId) public view returns(bool, bool, bool, uint, address[] memory,\n        string memory, string memory, string memory) {\n        Collection memory col = collections[collectionId];\n\n        return(col.creator == msg.sender, _userIsAdmin(collectionId, msg.sender), col.adminGroupIsSet, col.adminGroupId,\n            col.tokens, col.name, col.identifier, col.description);\n    }\n\n    modifier userIsCreator(uint collectionId) {\n        require(collections[collectionId].creator == msg.sender, \"User is not collection creator\");\n        _;\n    }\n\n    modifier userIsAdmin(uint collectionId) {\n        require(_userIsAdmin(collectionId, msg.sender), \"User is not creator or in the appointed admin group\");\n        _;\n    }\n\n    function _userIsAdmin(uint collectionId, address user) public view returns(bool) {\n        if (collections[collectionId].creator == user) {\n            return true;\n        }\n        if (collections[collectionId].adminGroupIsSet) {\n            return Fin4Groups(Fin4GroupsAddress).isMember(collections[collectionId].adminGroupId, user);\n        }\n        return false;\n    }\n\n    function transferOwnership(uint collectionId, address newOwner) public userIsCreator(collectionId) {\n        collections[collectionId].creator = newOwner;\n    }\n\n    function setAdminGroupId(uint collectionId, uint groupId) public userIsCreator(collectionId) {\n        require(Fin4Groups(Fin4GroupsAddress).groupExists(groupId), \"Group does not exist\");\n        collections[collectionId].adminGroupId = groupId;\n        collections[collectionId].adminGroupIsSet = true;\n    }\n\n    function removeAdminGroup(uint collectionId) public userIsCreator(collectionId) {\n        collections[collectionId].adminGroupIsSet = false;\n    }\n\n    function addTokens(uint collectionId, address[] memory newTokens) public userIsAdmin(collectionId) {\n        Collection storage col = collections[collectionId];\n        for (uint i = 0; i < newTokens.length; i ++) {\n            if (!col.tokensSet[newTokens[i]]) {\n                col.tokens.push(newTokens[i]);\n                col.tokensSet[newTokens[i]] = true;\n            }\n        }\n    }\n\n    function removeToken(uint collectionId, address tokenToRemove) public userIsAdmin(collectionId) {\n        Collection storage col = collections[collectionId];\n\n        require(col.tokensSet[tokenToRemove], \"Token not contained in this collection, can't remove it\");\n\n        uint tokenIndex = getIndexOfToken(collectionId, tokenToRemove);\n        uint length = col.tokens.length;\n        col.tokens[tokenIndex] = col.tokens[length - 1];\n        delete col.tokens[length - 1];\n        col.tokens.length --;\n\n        col.tokensSet[tokenToRemove] = false;\n    }\n\n    // HELPER METHODS\n\n    function getIndexOfToken(uint collectionId, address token) private view returns(uint) {\n        Collection memory col = collections[collectionId];\n        for (uint i = 0; i < col.tokens.length; i ++) {\n            if (col.tokens[i] == token) {\n                return i;\n            }\n        }\n        return INVALID_INDEX;\n    }\n\n}\n",
  "sourcePath": "/home/cantonioupao/susDAO-saveMe/FIN4Contracts/contracts/Fin4Collections.sol",
  "compiler": {
    "name": "solc",
    "version": "0.5.17+commit.d19bba13.Emscripten.clang"
  },
  "schemaVersion": "3.3.1",
  "updatedAt": "2020-12-03T18:27:58.787Z",
  "devdoc": {
    "methods": {}
  },
  "userdoc": {
    "methods": {}
  }
}