{
  "contractName": "Fin4Claiming",
  "abi": [
    {
      "inputs": [
        {
          "internalType": "address",
          "name": "Fin4SystemParametersAddr",
          "type": "address"
        },
        {
          "internalType": "address",
          "name": "Fin4UnderlyingsAddr",
          "type": "address"
        }
      ],
      "payable": false,
      "stateMutability": "nonpayable",
      "type": "constructor"
    },
    {
      "anonymous": false,
      "inputs": [
        {
          "indexed": false,
          "internalType": "address",
          "name": "tokenAddr",
          "type": "address"
        },
        {
          "indexed": false,
          "internalType": "uint256",
          "name": "claimId",
          "type": "uint256"
        },
        {
          "indexed": false,
          "internalType": "address",
          "name": "claimer",
          "type": "address"
        },
        {
          "indexed": false,
          "internalType": "uint256",
          "name": "mintedQuantity",
          "type": "uint256"
        },
        {
          "indexed": false,
          "internalType": "uint256",
          "name": "newBalance",
          "type": "uint256"
        }
      ],
      "name": "ClaimApproved",
      "type": "event"
    },
    {
      "anonymous": false,
      "inputs": [
        {
          "indexed": false,
          "internalType": "address",
          "name": "tokenAddr",
          "type": "address"
        },
        {
          "indexed": false,
          "internalType": "uint256",
          "name": "claimId",
          "type": "uint256"
        },
        {
          "indexed": false,
          "internalType": "address",
          "name": "claimer",
          "type": "address"
        }
      ],
      "name": "ClaimRejected",
      "type": "event"
    },
    {
      "anonymous": false,
      "inputs": [
        {
          "indexed": false,
          "internalType": "address",
          "name": "tokenAddr",
          "type": "address"
        },
        {
          "indexed": false,
          "internalType": "uint256",
          "name": "claimId",
          "type": "uint256"
        },
        {
          "indexed": false,
          "internalType": "address",
          "name": "claimer",
          "type": "address"
        },
        {
          "indexed": false,
          "internalType": "uint256",
          "name": "quantity",
          "type": "uint256"
        },
        {
          "indexed": false,
          "internalType": "uint256",
          "name": "claimCreationTime",
          "type": "uint256"
        },
        {
          "indexed": false,
          "internalType": "string",
          "name": "comment",
          "type": "string"
        },
        {
          "indexed": false,
          "internalType": "address[]",
          "name": "requiredVerifierTypes",
          "type": "address[]"
        }
      ],
      "name": "ClaimSubmitted",
      "type": "event"
    },
    {
      "anonymous": false,
      "inputs": [
        {
          "indexed": false,
          "internalType": "address",
          "name": "tokenAddr",
          "type": "address"
        },
        {
          "indexed": false,
          "internalType": "uint256",
          "name": "totalSupply",
          "type": "uint256"
        }
      ],
      "name": "UpdatedTotalSupply",
      "type": "event"
    },
    {
      "anonymous": false,
      "inputs": [
        {
          "indexed": false,
          "internalType": "address",
          "name": "tokenAddrToReceiveVerifierNotice",
          "type": "address"
        },
        {
          "indexed": false,
          "internalType": "address",
          "name": "verifierTypeAddress",
          "type": "address"
        },
        {
          "indexed": false,
          "internalType": "uint256",
          "name": "claimId",
          "type": "uint256"
        },
        {
          "indexed": false,
          "internalType": "address",
          "name": "claimer",
          "type": "address"
        },
        {
          "indexed": false,
          "internalType": "string",
          "name": "message",
          "type": "string"
        }
      ],
      "name": "VerifierApproved",
      "type": "event"
    },
    {
      "anonymous": false,
      "inputs": [
        {
          "indexed": false,
          "internalType": "address",
          "name": "tokenAddrToReceiveVerifierNotice",
          "type": "address"
        },
        {
          "indexed": false,
          "internalType": "address",
          "name": "verifierTypeAddress",
          "type": "address"
        },
        {
          "indexed": false,
          "internalType": "uint256",
          "name": "claimId",
          "type": "uint256"
        },
        {
          "indexed": false,
          "internalType": "address",
          "name": "claimer",
          "type": "address"
        },
        {
          "indexed": false,
          "internalType": "string",
          "name": "message",
          "type": "string"
        }
      ],
      "name": "VerifierPending",
      "type": "event"
    },
    {
      "anonymous": false,
      "inputs": [
        {
          "indexed": false,
          "internalType": "address",
          "name": "tokenAddrToReceiveVerifierNotice",
          "type": "address"
        },
        {
          "indexed": false,
          "internalType": "address",
          "name": "verifierTypeAddress",
          "type": "address"
        },
        {
          "indexed": false,
          "internalType": "uint256",
          "name": "claimId",
          "type": "uint256"
        },
        {
          "indexed": false,
          "internalType": "address",
          "name": "claimer",
          "type": "address"
        },
        {
          "indexed": false,
          "internalType": "string",
          "name": "message",
          "type": "string"
        }
      ],
      "name": "VerifierRejected",
      "type": "event"
    },
    {
      "constant": true,
      "inputs": [],
      "name": "Fin4ReputationAddress",
      "outputs": [
        {
          "internalType": "address",
          "name": "",
          "type": "address"
        }
      ],
      "payable": false,
      "stateMutability": "view",
      "type": "function"
    },
    {
      "constant": true,
      "inputs": [],
      "name": "Fin4SystemParametersAddress",
      "outputs": [
        {
          "internalType": "address",
          "name": "",
          "type": "address"
        }
      ],
      "payable": false,
      "stateMutability": "view",
      "type": "function"
    },
    {
      "constant": true,
      "inputs": [],
      "name": "Fin4UnderlyingsAddress",
      "outputs": [
        {
          "internalType": "address",
          "name": "",
          "type": "address"
        }
      ],
      "payable": false,
      "stateMutability": "view",
      "type": "function"
    },
    {
      "constant": true,
      "inputs": [],
      "name": "creator",
      "outputs": [
        {
          "internalType": "address",
          "name": "",
          "type": "address"
        }
      ],
      "payable": false,
      "stateMutability": "view",
      "type": "function"
    },
    {
      "constant": true,
      "inputs": [
        {
          "internalType": "address",
          "name": "",
          "type": "address"
        }
      ],
      "name": "tokenToFees",
      "outputs": [
        {
          "internalType": "bool",
          "name": "exists",
          "type": "bool"
        },
        {
          "internalType": "uint256",
          "name": "amountPerClaimInWei",
          "type": "uint256"
        },
        {
          "internalType": "address",
          "name": "beneficiary",
          "type": "address"
        }
      ],
      "payable": false,
      "stateMutability": "view",
      "type": "function"
    },
    {
      "constant": true,
      "inputs": [
        {
          "internalType": "address",
          "name": "",
          "type": "address"
        },
        {
          "internalType": "uint256",
          "name": "",
          "type": "uint256"
        }
      ],
      "name": "tokensWhereUserHasClaims",
      "outputs": [
        {
          "internalType": "address",
          "name": "",
          "type": "address"
        }
      ],
      "payable": false,
      "stateMutability": "view",
      "type": "function"
    },
    {
      "constant": true,
      "inputs": [
        {
          "internalType": "uint256",
          "name": "",
          "type": "uint256"
        }
      ],
      "name": "tokensWithFees",
      "outputs": [
        {
          "internalType": "address",
          "name": "",
          "type": "address"
        }
      ],
      "payable": false,
      "stateMutability": "view",
      "type": "function"
    },
    {
      "constant": false,
      "inputs": [
        {
          "internalType": "address",
          "name": "Fin4ReputationAddr",
          "type": "address"
        }
      ],
      "name": "setFin4ReputationAddress",
      "outputs": [],
      "payable": false,
      "stateMutability": "nonpayable",
      "type": "function"
    },
    {
      "constant": false,
      "inputs": [
        {
          "internalType": "address",
          "name": "tokenAddress",
          "type": "address"
        },
        {
          "internalType": "uint256",
          "name": "amountPerClaimInWei",
          "type": "uint256"
        },
        {
          "internalType": "address",
          "name": "beneficiary",
          "type": "address"
        }
      ],
      "name": "registerClaimingFee",
      "outputs": [],
      "payable": false,
      "stateMutability": "nonpayable",
      "type": "function"
    },
    {
      "constant": true,
      "inputs": [],
      "name": "getClaimingFees",
      "outputs": [
        {
          "internalType": "address[]",
          "name": "",
          "type": "address[]"
        },
        {
          "internalType": "uint256[]",
          "name": "",
          "type": "uint256[]"
        },
        {
          "internalType": "address[]",
          "name": "",
          "type": "address[]"
        }
      ],
      "payable": false,
      "stateMutability": "view",
      "type": "function"
    },
    {
      "constant": false,
      "inputs": [
        {
          "internalType": "address",
          "name": "tokenAddress",
          "type": "address"
        },
        {
          "internalType": "uint256",
          "name": "amount",
          "type": "uint256"
        },
        {
          "internalType": "string",
          "name": "comment",
          "type": "string"
        }
      ],
      "name": "submitClaimAndPayFee",
      "outputs": [],
      "payable": true,
      "stateMutability": "payable",
      "type": "function"
    },
    {
      "constant": false,
      "inputs": [
        {
          "internalType": "address",
          "name": "tokenAddress",
          "type": "address"
        },
        {
          "internalType": "uint256",
          "name": "amount",
          "type": "uint256"
        },
        {
          "internalType": "string",
          "name": "comment",
          "type": "string"
        }
      ],
      "name": "submitClaim",
      "outputs": [],
      "payable": false,
      "stateMutability": "nonpayable",
      "type": "function"
    },
    {
      "constant": false,
      "inputs": [
        {
          "internalType": "address",
          "name": "tokenAddrToReceiveVerifierNotice",
          "type": "address"
        },
        {
          "internalType": "address",
          "name": "verifierTypeAddress",
          "type": "address"
        },
        {
          "internalType": "uint256",
          "name": "claimId",
          "type": "uint256"
        },
        {
          "internalType": "address",
          "name": "claimer",
          "type": "address"
        },
        {
          "internalType": "string",
          "name": "message",
          "type": "string"
        }
      ],
      "name": "verifierPendingPingback",
      "outputs": [],
      "payable": false,
      "stateMutability": "nonpayable",
      "type": "function"
    },
    {
      "constant": false,
      "inputs": [
        {
          "internalType": "address",
          "name": "tokenAddrToReceiveVerifierNotice",
          "type": "address"
        },
        {
          "internalType": "address",
          "name": "verifierTypeAddress",
          "type": "address"
        },
        {
          "internalType": "uint256",
          "name": "claimId",
          "type": "uint256"
        },
        {
          "internalType": "address",
          "name": "claimer",
          "type": "address"
        },
        {
          "internalType": "string",
          "name": "message",
          "type": "string"
        }
      ],
      "name": "verifierApprovalPingback",
      "outputs": [],
      "payable": false,
      "stateMutability": "nonpayable",
      "type": "function"
    },
    {
      "constant": false,
      "inputs": [
        {
          "internalType": "address",
          "name": "tokenAddrToReceiveVerifierNotice",
          "type": "address"
        },
        {
          "internalType": "address",
          "name": "verifierTypeAddress",
          "type": "address"
        },
        {
          "internalType": "uint256",
          "name": "claimId",
          "type": "uint256"
        },
        {
          "internalType": "address",
          "name": "claimer",
          "type": "address"
        },
        {
          "internalType": "string",
          "name": "message",
          "type": "string"
        }
      ],
      "name": "verifierRejectionPingback",
      "outputs": [],
      "payable": false,
      "stateMutability": "nonpayable",
      "type": "function"
    },
    {
      "constant": false,
      "inputs": [
        {
          "internalType": "address",
          "name": "tokenAddress",
          "type": "address"
        },
        {
          "internalType": "address",
          "name": "claimer",
          "type": "address"
        },
        {
          "internalType": "uint256",
          "name": "claimId",
          "type": "uint256"
        },
        {
          "internalType": "uint256",
          "name": "quantity",
          "type": "uint256"
        },
        {
          "internalType": "bool",
          "name": "canMint",
          "type": "bool"
        }
      ],
      "name": "claimApprovedPingback",
      "outputs": [],
      "payable": false,
      "stateMutability": "nonpayable",
      "type": "function"
    },
    {
      "constant": false,
      "inputs": [
        {
          "internalType": "address",
          "name": "tokenAddress",
          "type": "address"
        },
        {
          "internalType": "uint256",
          "name": "claimId",
          "type": "uint256"
        },
        {
          "internalType": "address",
          "name": "claimer",
          "type": "address"
        }
      ],
      "name": "claimRejectionPingback",
      "outputs": [],
      "payable": false,
      "stateMutability": "nonpayable",
      "type": "function"
    },
    {
      "constant": true,
      "inputs": [],
      "name": "getTokensWhereUserHasClaims",
      "outputs": [
        {
          "internalType": "address[]",
          "name": "",
          "type": "address[]"
        }
      ],
      "payable": false,
      "stateMutability": "view",
      "type": "function"
    },
    {
      "constant": true,
      "inputs": [
        {
          "internalType": "address",
          "name": "token",
          "type": "address"
        }
      ],
      "name": "getClaimsCountOnThisToken",
      "outputs": [
        {
          "internalType": "uint256",
          "name": "",
          "type": "uint256"
        }
      ],
      "payable": false,
      "stateMutability": "view",
      "type": "function"
    },
    {
      "constant": true,
      "inputs": [
        {
          "internalType": "address",
          "name": "token",
          "type": "address"
        }
      ],
      "name": "getMyClaimIdsOnThisToken",
      "outputs": [
        {
          "internalType": "uint256[]",
          "name": "",
          "type": "uint256[]"
        }
      ],
      "payable": false,
      "stateMutability": "view",
      "type": "function"
    },
    {
      "constant": true,
      "inputs": [
        {
          "internalType": "address",
          "name": "token",
          "type": "address"
        },
        {
          "internalType": "uint256",
          "name": "claimId",
          "type": "uint256"
        }
      ],
      "name": "getClaimOnThisToken",
      "outputs": [
        {
          "internalType": "address",
          "name": "",
          "type": "address"
        },
        {
          "internalType": "bool",
          "name": "",
          "type": "bool"
        },
        {
          "internalType": "bool",
          "name": "",
          "type": "bool"
        },
        {
          "internalType": "uint256",
          "name": "",
          "type": "uint256"
        },
        {
          "internalType": "uint256",
          "name": "",
          "type": "uint256"
        },
        {
          "internalType": "uint256",
          "name": "",
          "type": "uint256"
        },
        {
          "internalType": "string",
          "name": "",
          "type": "string"
        },
        {
          "internalType": "address[]",
          "name": "",
          "type": "address[]"
        },
        {
          "internalType": "uint256[]",
          "name": "",
          "type": "uint256[]"
        },
        {
          "internalType": "address[]",
          "name": "",
          "type": "address[]"
        }
      ],
      "payable": false,
      "stateMutability": "view",
      "type": "function"
    },
    {
      "constant": true,
      "inputs": [
        {
          "internalType": "address",
          "name": "token",
          "type": "address"
        },
        {
          "internalType": "uint256",
          "name": "claimId",
          "type": "uint256"
        },
        {
          "internalType": "address",
          "name": "verifierAddress",
          "type": "address"
        }
      ],
      "name": "getVerifierMessageOnClaim",
      "outputs": [
        {
          "internalType": "string",
          "name": "",
          "type": "string"
        }
      ],
      "payable": false,
      "stateMutability": "view",
      "type": "function"
    }
  ],
  "bytecode": "0x6080604052600380546001600160a01b031916905534801561002057600080fd5b506040516126043803806126048339818101604052604081101561004357600080fd5b508051602090910151600080546001600160a01b03199081163317909155600180546001600160a01b039485169083161790556002805493909216921691909117905561256f806100956000396000f3fe6080604052600436106101355760003560e01c8063a418c513116100ab578063d5e3f1911161006f578063d5e3f191146109da578063ead9ce7814610ab1578063ebdab87a14610b16578063f09729a114610b40578063f759b24e14610b73578063f9d8f4c714610bac57610135565b8063a418c513146106bd578063a56dea09146106f0578063a5c930571461074c578063b74e45551461090c578063c35ce6f0146109c557610135565b80635244a07c116100fd5780635244a07c146104235780636783731c146104fa5780638bfbca601461054b57806398f7a6a61461058e5780639d4e4acb14610665578063a0fb868a1461067a57610135565b806302d05d3f1461013a578063163063881461016b57806334dc3c661461025e57806335474dca1461032657806339f7712e1461036b575b600080fd5b34801561014657600080fd5b5061014f610bc1565b604080516001600160a01b039092168252519081900360200190f35b34801561017757600080fd5b50610180610bd0565b60405180806020018060200180602001848103845287818151815260200191508051906020019060200280838360005b838110156101c85781810151838201526020016101b0565b50505050905001848103835286818151815260200191508051906020019060200280838360005b838110156102075781810151838201526020016101ef565b50505050905001848103825285818151815260200191508051906020019060200280838360005b8381101561024657818101518382015260200161022e565b50505050905001965050505050505060405180910390f35b34801561026a57600080fd5b506103246004803603606081101561028157600080fd5b6001600160a01b0382351691602081013591810190606081016040820135600160201b8111156102b057600080fd5b8201836020820111156102c257600080fd5b803590602001918460018302840111600160201b831117156102e357600080fd5b91908080601f016020809104026020016040519081016040528093929190818152602001838380828437600092019190915250929550610d79945050505050565b005b34801561033257600080fd5b506103596004803603602081101561034957600080fd5b50356001600160a01b0316610de1565b60408051918252519081900360200190f35b34801561037757600080fd5b506103ae6004803603606081101561038e57600080fd5b506001600160a01b03813581169160208101359160409091013516610e4e565b6040805160208082528351818301528351919283929083019185019080838360005b838110156103e85781810151838201526020016103d0565b50505050905090810190601f1680156104155780820380516001836020036101000a031916815260200191505b509250505060405180910390f35b34801561042f57600080fd5b50610324600480360360a081101561044657600080fd5b6001600160a01b0382358116926020810135821692604082013592606083013516919081019060a081016080820135600160201b81111561048657600080fd5b82018360208201111561049857600080fd5b803590602001918460018302840111600160201b831117156104b957600080fd5b91908080601f016020809104026020016040519081016040528093929190818152602001838380828437600092019190915250929550610f94945050505050565b34801561050657600080fd5b50610324600480360360a081101561051d57600080fd5b506001600160a01b03813581169160208101359091169060408101359060608101359060800135151561108a565b34801561055757600080fd5b506103246004803603606081101561056e57600080fd5b506001600160a01b03813581169160208101359160409091013516611440565b34801561059a57600080fd5b50610324600480360360a08110156105b157600080fd5b6001600160a01b0382358116926020810135821692604082013592606083013516919081019060a081016080820135600160201b8111156105f157600080fd5b82018360208201111561060357600080fd5b803590602001918460018302840111600160201b8311171561062457600080fd5b91908080601f01602080910402602001604051908101604052809392919081815260200183838082843760009201919091525092955061151a945050505050565b34801561067157600080fd5b5061014f6115ca565b34801561068657600080fd5b506103246004803603606081101561069d57600080fd5b506001600160a01b038135811691602081013591604090910135166115d9565b3480156106c957600080fd5b50610324600480360360208110156106e057600080fd5b50356001600160a01b0316611628565b3480156106fc57600080fd5b506107236004803603602081101561071357600080fd5b50356001600160a01b0316611693565b60408051931515845260208401929092526001600160a01b031682820152519081900360600190f35b34801561075857600080fd5b506107856004803603604081101561076f57600080fd5b506001600160a01b0381351690602001356116c1565b604051808b6001600160a01b03166001600160a01b031681526020018a1515151581526020018915151515815260200188815260200187815260200186815260200180602001806020018060200180602001858103855289818151815260200191508051906020019080838360005b8381101561080c5781810151838201526020016107f4565b50505050905090810190601f1680156108395780820380516001836020036101000a031916815260200191505b508581038452885181528851602091820191808b01910280838360005b8381101561086e578181015183820152602001610856565b50505050905001858103835287818151815260200191508051906020019060200280838360005b838110156108ad578181015183820152602001610895565b50505050905001858103825286818151815260200191508051906020019060200280838360005b838110156108ec5781810151838201526020016108d4565b505050509050019e50505050505050505050505050505060405180910390f35b6103246004803603606081101561092257600080fd5b6001600160a01b0382351691602081013591810190606081016040820135600160201b81111561095157600080fd5b82018360208201111561096357600080fd5b803590602001918460018302840111600160201b8311171561098457600080fd5b91908080601f0160208091040260200160405190810160405280939291908181526020018383808284376000920191909152509295506119dc945050505050565b3480156109d157600080fd5b5061014f611b5f565b3480156109e657600080fd5b50610324600480360360a08110156109fd57600080fd5b6001600160a01b0382358116926020810135821692604082013592606083013516919081019060a081016080820135600160201b811115610a3d57600080fd5b820183602082011115610a4f57600080fd5b803590602001918460018302840111600160201b83111715610a7057600080fd5b91908080601f016020809104026020016040519081016040528093929190818152602001838380828437600092019190915250929550611b6e945050505050565b348015610abd57600080fd5b50610ac6611c1e565b60408051602080825283518183015283519192839290830191858101910280838360005b83811015610b02578181015183820152602001610aea565b505050509050019250505060405180910390f35b348015610b2257600080fd5b5061014f60048036036020811015610b3957600080fd5b5035611c89565b348015610b4c57600080fd5b50610ac660048036036020811015610b6357600080fd5b50356001600160a01b0316611cb0565b348015610b7f57600080fd5b5061014f60048036036040811015610b9657600080fd5b506001600160a01b038135169060200135611dc8565b348015610bb857600080fd5b5061014f611dfd565b6000546001600160a01b031681565b606080606080600580549050604051908082528060200260200182016040528015610c05578160200160208202803883390190505b5090506060600580549050604051908082528060200260200182016040528015610c39578160200160208202803883390190505b50905060005b600554811015610d0b576004600060058381548110610c5a57fe5b60009182526020808320909101546001600160a01b031683528201929092526040019020600101548351849083908110610c9057fe5b6020026020010181815250506004600060058381548110610cad57fe5b60009182526020808320909101546001600160a01b0390811684529083019390935260409091019020600201548351911690839083908110610ceb57fe5b6001600160a01b0390921660209283029190910190910152600101610c3f565b506005828282805480602002602001604051908101604052809291908181526020018280548015610d6557602002820191906000526020600020905b81546001600160a01b03168152600190910190602001808311610d47575b505050505092509450945094505050909192565b6001600160a01b03831660009081526004602052604090205460ff1615610dd15760405162461bcd60e51b81526004018080602001828103825260498152602001806124916049913960600191505060405180910390fd5b610ddc838383611e0c565b505050565b6000816001600160a01b031663a0021cf16040518163ffffffff1660e01b815260040160206040518083038186803b158015610e1c57600080fd5b505afa158015610e30573d6000803e3d6000fd5b505050506040513d6020811015610e4657600080fd5b505192915050565b604080516376e18e6f60e11b8152600481018490526001600160a01b038381166024830152915160609286169163edc31cde916044808301926000929190829003018186803b158015610ea057600080fd5b505afa158015610eb4573d6000803e3d6000fd5b505050506040513d6000823e601f3d908101601f191682016040526020811015610edd57600080fd5b8101908080516040519392919084600160201b821115610efc57600080fd5b908301906020820185811115610f1157600080fd5b8251600160201b811182820188101715610f2a57600080fd5b82525081516020918201929091019080838360005b83811015610f57578181015183820152602001610f3f565b50505050905090810190601f168015610f845780820380516001836020036101000a031916815260200191505b5060405250505090509392505050565b7f5cdfcf5a30e9f4501bad81bf27a4362c99f687978a708a69d2794b315a618402858585858560405180866001600160a01b03166001600160a01b03168152602001856001600160a01b03166001600160a01b03168152602001848152602001836001600160a01b03166001600160a01b0316815260200180602001828103825283818151815260200191508051906020019080838360005b8381101561104557818101518382015260200161102d565b50505050905090810190601f1680156110725780820380516001836020036101000a031916815260200191505b50965050505050505060405180910390a15050505050565b600081156111c55750604080516340c10f1960e01b81526001600160a01b03868116600483015260248201859052915184928816916340c10f199160448083019260209291908290030181600087803b1580156110e657600080fd5b505af11580156110fa573d6000803e3d6000fd5b505050506040513d602081101561111057600080fd5b5050604080516318160ddd60e01b815290517f784b3fc2a6765844c4b831b430e2c8de00543015d5f1877af53f73fa82c3b7609188916001600160a01b038316916318160ddd916004808301926020929190829003018186803b15801561117657600080fd5b505afa15801561118a573d6000803e3d6000fd5b505050506040513d60208110156111a057600080fd5b5051604080516001600160a01b03909316835260208301919091528051918290030190a15b6002546001600160a01b03161561124c5760025460408051632b32257b60e21b81526001600160a01b0389811660048301528881166024830152604482018790529151919092169163acc895ec91606480830192600092919082900301818387803b15801561123357600080fd5b505af1158015611247573d6000803e3d6000fd5b505050505b7ff65f021fc7e79591e4b69375bdce5ebeea66bbe20e8212599331415eba4ae806868587848a6001600160a01b03166370a082318b6040518263ffffffff1660e01b815260040180826001600160a01b03166001600160a01b0316815260200191505060206040518083038186803b1580156112c757600080fd5b505afa1580156112db573d6000803e3d6000fd5b505050506040513d60208110156112f157600080fd5b5051604080516001600160a01b039687168152602081019590955292909416838301526060830152608082019290925290519081900360a00190a16003546001600160a01b031615611438576003546001546040805163079e569d60e41b815290516001600160a01b03938416936340c10f19938a939116916379e569d091600480820192602092909190829003018186803b15801561139057600080fd5b505afa1580156113a4573d6000803e3d6000fd5b505050506040513d60208110156113ba57600080fd5b5051604080516001600160e01b031960e086901b1681526001600160a01b03909316600484015260248301919091525160448083019260209291908290030181600087803b15801561140b57600080fd5b505af115801561141f573d6000803e3d6000fd5b505050506040513d602081101561143557600080fd5b50505b505050505050565b6001600160a01b03831660009081526004602052604090205460ff16156114985760405162461bcd60e51b815260040180806020018281038252602581526020018061246c6025913960400191505060405180910390fd5b6001600160a01b039283166000818152600460205260408120805460ff191660019081178255808201959095556002018054939095166001600160a01b0319938416179094556005805493840181559093527f036b6384b5eca791c62761152d0c79bb0604c104a5fb6f4eb0703f3154bb3db090910180549091169091179055565b7fd69042bf8ecd3d5904773cdb46c409dff1de7f7fedd9f38cfbbcc095bb0eea14858585858560405180866001600160a01b03166001600160a01b03168152602001856001600160a01b03166001600160a01b03168152602001848152602001836001600160a01b03166001600160a01b0316815260200180602001828103825283818151815260200191508051906020019080838360008381101561104557818101518382015260200161102d565b6001546001600160a01b031681565b604080516001600160a01b0380861682526020820185905283168183015290517fb69a21b9cb5fabde33441f0e5e401c21427b8ae7af5dd70c6c3f7b12c336abd39181900360600190a1505050565b6000546001600160a01b031633146116715760405162461bcd60e51b815260040180806020018281038252603e8152602001806124fd603e913960400191505060405180910390fd5b600380546001600160a01b0319166001600160a01b0392909216919091179055565b60046020526000908152604090208054600182015460029092015460ff90911691906001600160a01b031683565b6000806000806000806060806060808b6001600160a01b0316635aef24478c6040518263ffffffff1660e01b81526004018082815260200191505060006040518083038186803b15801561171457600080fd5b505afa158015611728573d6000803e3d6000fd5b505050506040513d6000823e601f3d908101601f1916820160405261014081101561175257600080fd5b815160208301516040808501516060860151608087015160a088015160c08901805195519799969894979396929591948301929184600160201b82111561179857600080fd5b9083019060208201858111156117ad57600080fd5b8251600160201b8111828201881017156117c657600080fd5b82525081516020918201929091019080838360005b838110156117f35781810151838201526020016117db565b50505050905090810190601f1680156118205780820380516001836020036101000a031916815260200191505b5060405260200180516040519392919084600160201b82111561184257600080fd5b90830190602082018581111561185757600080fd5b82518660208202830111600160201b8211171561187357600080fd5b82525081516020918201928201910280838360005b838110156118a0578181015183820152602001611888565b5050505090500160405260200180516040519392919084600160201b8211156118c857600080fd5b9083019060208201858111156118dd57600080fd5b82518660208202830111600160201b821117156118f957600080fd5b82525081516020918201928201910280838360005b8381101561192657818101518382015260200161190e565b5050505090500160405260200180516040519392919084600160201b82111561194e57600080fd5b90830190602082018581111561196357600080fd5b82518660208202830111600160201b8211171561197f57600080fd5b82525081516020918201928201910280838360005b838110156119ac578181015183820152602001611994565b5050505090500160405250505099509950995099509950995099509950995099509295989b9194979a5092959850565b6001600160a01b03831660009081526004602052604090205460ff16611a335760405162461bcd60e51b81526004018080602001828103825260238152602001806124da6023913960400191505060405180910390fd5b6001600160a01b038316600090815260046020526040902060010154341015611aa3576040805162461bcd60e51b815260206004820152601760248201527f466565206973206e6f74207061696420696e2066756c6c000000000000000000604482015290519081900360640190fd5b6001600160a01b038084166000908152600460205260408082206002015490519192169034908381818185875af1925050503d8060008114611b01576040519150601f19603f3d011682016040523d82523d6000602084013e611b06565b606091505b5050905080611b4e576040805162461bcd60e51b815260206004820152600f60248201526e151c985b9cd9995c8819985a5b1959608a1b604482015290519081900360640190fd5b611b59848484611e0c565b50505050565b6002546001600160a01b031681565b7f4238e9a0d4cb3ad8aec5d3220a8e0158a0299758f0f1a4639f863f631276bc31858585858560405180866001600160a01b03166001600160a01b03168152602001856001600160a01b03166001600160a01b03168152602001848152602001836001600160a01b03166001600160a01b0316815260200180602001828103825283818151815260200191508051906020019080838360008381101561104557818101518382015260200161102d565b33600090815260066020908152604091829020805483518184028101840190945280845260609392830182828015611c7f57602002820191906000526020600020905b81546001600160a01b03168152600190910190602001808311611c61575b5050505050905090565b60058181548110611c9657fe5b6000918252602090912001546001600160a01b0316905081565b6040805163d982579360e01b815233600482015290516060916001600160a01b0384169163d982579391602480820192600092909190829003018186803b158015611cfa57600080fd5b505afa158015611d0e573d6000803e3d6000fd5b505050506040513d6000823e601f3d908101601f191682016040526020811015611d3757600080fd5b8101908080516040519392919084600160201b821115611d5657600080fd5b908301906020820185811115611d6b57600080fd5b82518660208202830111600160201b82111715611d8757600080fd5b82525081516020918201928201910280838360005b83811015611db4578181015183820152602001611d9c565b505050509050016040525050509050919050565b60066020528160005260406000208181548110611de157fe5b6000918252602090912001546001600160a01b03169150829050565b6003546001600160a01b031681565b60006060600080866001600160a01b03166334dc3c663388886040518463ffffffff1660e01b815260040180846001600160a01b03166001600160a01b0316815260200183815260200180602001828103825283818151815260200191508051906020019080838360005b83811015611e8f578181015183820152602001611e77565b50505050905090810190601f168015611ebc5780820380516001836020036101000a031916815260200191505b50945050505050600060405180830381600087803b158015611edd57600080fd5b505af1158015611ef1573d6000803e3d6000fd5b505050506040513d6000823e601f3d908101601f191682016040526080811015611f1a57600080fd5b815160208301805160405192949293830192919084600160201b821115611f4057600080fd5b908301906020820185811115611f5557600080fd5b82518660208202830111600160201b82111715611f7157600080fd5b82525081516020918201928201910280838360005b83811015611f9e578181015183820152602001611f86565b5050505091909101604090815260208301519201519599509397509550929350611fce92503391508990506123e5565b61200b573360009081526006602090815260408220805460018101825590835291200180546001600160a01b0319166001600160a01b0389161790555b7fc58b997eaafeb01637048557512974880b6edb7e7ac9314e086171e45ad80ac787853384868a8960405180886001600160a01b03166001600160a01b03168152602001878152602001866001600160a01b03166001600160a01b031681526020018581526020018481526020018060200180602001838103835285818151815260200191508051906020019080838360005b838110156120b657818101518382015260200161209e565b50505050905090810190601f1680156120e35780820380516001836020036101000a031916815260200191505b508381038252845181528451602091820191808701910280838360005b83811015612118578181015183820152602001612100565b50505050905001995050505050505050505060405180910390a160005b835181101561224b5783818151811061214a57fe5b60200260200101516001600160a01b0316634d1a1d5d6040518163ffffffff1660e01b815260040160206040518083038186803b15801561218a57600080fd5b505afa15801561219e573d6000803e3d6000fd5b505050506040513d60208110156121b457600080fd5b505115612243578381815181106121c757fe5b60209081029190910101516040805163ae18e0a560e01b81523360048201526001600160a01b038b81166024830152604482018990529151919092169163ae18e0a591606480830192600092919082900301818387803b15801561222a57600080fd5b505af115801561223e573d6000803e3d6000fd5b505050505b600101612135565b50866001600160a01b031663592b165e856040518263ffffffff1660e01b81526004018082815260200191505060206040518083038186803b15801561229057600080fd5b505afa1580156122a4573d6000803e3d6000fd5b505050506040513d60208110156122ba57600080fd5b50516123dc5760005b8351811015611435578381815181106122d857fe5b60200260200101516001600160a01b031663c05ebcc56040518163ffffffff1660e01b815260040160206040518083038186803b15801561231857600080fd5b505afa15801561232c573d6000803e3d6000fd5b505050506040513d602081101561234257600080fd5b5051156123d45783818151811061235557fe5b6020908102919091010151604080516001623a251160e01b031981523360048201526001600160a01b038b81166024830152604482018990529151919092169163ffc5daef91606480830192600092919082900301818387803b1580156123bb57600080fd5b505af11580156123cf573d6000803e3d6000fd5b505050505b6001016122c3565b50505050505050565b6000805b6001600160a01b03841660009081526006602052604090205481101561245f576001600160a01b0384811660009081526006602052604090208054918516918390811061243257fe5b6000918252602090912001546001600160a01b03161415612457576001915050612465565b6001016123e9565b50600090505b9291505056fe46656520616c7265616479207265676973746572656420666f72207468697320746f6b656e5468697320746f6b656e207265717569726573206120636c61696d696e67206665652c2075736520746865207375626d6974436c61696d416e645061794665652829206d6574686f645468697320746f6b656e207265717569726573206e6f20636c61696d696e67206665654f6e6c79207468652063726561746f72206f66207468697320736d61727420636f6e74726163742063616e2063616c6c20746869732066756e6374696f6ea265627a7a723158206fc557603122e6baa53c21aa39cb1f701ac7f3beea18cb890ee221d39be2ac6a64736f6c63430005110032",
  "source": "pragma solidity ^0.5.17;\n\nimport 'contracts/Fin4Token.sol';\nimport 'contracts/Fin4SystemParameters.sol';\nimport 'contracts/stub/MintingStub.sol';\nimport \"contracts/verifiers/Fin4BaseVerifierType.sol\";\nimport \"contracts/Fin4Underlyings.sol\";\n\ncontract Fin4Claiming {\n\n    event ClaimSubmitted(address tokenAddr, uint claimId, address claimer, uint quantity, uint claimCreationTime,\n        string comment, address[] requiredVerifierTypes);\n    event ClaimApproved(address tokenAddr, uint claimId, address claimer, uint mintedQuantity, uint256 newBalance);\n    event ClaimRejected(address tokenAddr, uint claimId, address claimer);\n    event VerifierPending(address tokenAddrToReceiveVerifierNotice, address verifierTypeAddress, uint claimId,\n        address claimer, string message);\n    event VerifierApproved(address tokenAddrToReceiveVerifierNotice, address verifierTypeAddress, uint claimId,\n        address claimer, string message);\n    event VerifierRejected(address tokenAddrToReceiveVerifierNotice, address verifierTypeAddress, uint claimId,\n        address claimer, string message);\n    event UpdatedTotalSupply(address tokenAddr, uint256 totalSupply);\n\n    /* If we go for the DNS pattern of this contract as Mark suggested #ConceptualDecision\n    struct ClaimRef {\n        address token;\n        uint claimId;\n    }\n    mapping (string => ClaimRef) public claimRefs; */\n\n    address public creator;\n    address public Fin4SystemParametersAddress;\n    address public Fin4UnderlyingsAddress;\n    address public Fin4ReputationAddress = address(0);\n\n    constructor(address Fin4SystemParametersAddr, address Fin4UnderlyingsAddr) public {\n        creator = msg.sender;\n        Fin4SystemParametersAddress = Fin4SystemParametersAddr;\n        Fin4UnderlyingsAddress = Fin4UnderlyingsAddr;\n    }\n\n    function setFin4ReputationAddress(address Fin4ReputationAddr) public {\n        require(msg.sender == creator, \"Only the creator of this smart contract can call this function\");\n        Fin4ReputationAddress = Fin4ReputationAddr;\n    }\n\n\t// TODO #ConceptualDecision this could also become a verifier instead of being added to the action step in the token creator\n    struct Fee {\n        bool exists;\n        uint amountPerClaimInWei;\n        address beneficiary;\n    }\n\n    mapping (address => Fee) public tokenToFees;\n    address[] public tokensWithFees;\n\n    function registerClaimingFee(address tokenAddress, uint amountPerClaimInWei, address beneficiary) public {\n        require(tokenToFees[tokenAddress].exists == false, \"Fee already registered for this token\");\n        Fee storage fee = tokenToFees[tokenAddress];\n        fee.exists = true;\n        fee.amountPerClaimInWei = amountPerClaimInWei;\n        fee.beneficiary = beneficiary;\n        tokensWithFees.push(tokenAddress);\n    }\n\n    function getClaimingFees() public view returns(address[] memory, uint[] memory, address[] memory) {\n        uint[] memory amountsPerClaim = new uint[](tokensWithFees.length);\n        address[] memory beneficiaries = new address[](tokensWithFees.length);\n        for (uint i = 0; i < tokensWithFees.length; i++) {\n            amountsPerClaim[i] = tokenToFees[tokensWithFees[i]].amountPerClaimInWei;\n            beneficiaries[i] = tokenToFees[tokensWithFees[i]].beneficiary;\n        }\n        return (tokensWithFees, amountsPerClaim, beneficiaries);\n    }\n\n    function submitClaimAndPayFee(address tokenAddress, uint amount, string memory comment) public payable {\n        require(tokenToFees[tokenAddress].exists, \"This token requires no claiming fee\");\n        require(msg.value >= tokenToFees[tokenAddress].amountPerClaimInWei, \"Fee is not paid in full\");\n        // that allows more then the fee to be sent to the beneficiary #ConceptualDecision\n        // using call.value() instead of send()/transfer(), via https://consensys.net/diligence/blog/2019/09/stop-using-soliditys-transfer-now/\n        // also makes it easier because then beneficiary doesn't have to be a payable address\n        (bool success, ) = tokenToFees[tokenAddress].beneficiary.call.value(msg.value)(\"\");\n        require(success, \"Transfer failed\");\n        _submitClaim(tokenAddress, amount, comment);\n    }\n\n    function submitClaim(address tokenAddress, uint amount, string memory comment) public {\n        require(!tokenToFees[tokenAddress].exists, \"This token requires a claiming fee, use the submitClaimAndPayFee() method\");\n        _submitClaim(tokenAddress, amount, comment);\n    }\n\n    function _submitClaim(address tokenAddress, uint amount, string memory comment) private {        \n        uint claimId;\n        address[] memory requiredVerifierTypes;\n        uint claimCreationTime;\n        uint quantity;\n        (claimId, requiredVerifierTypes, claimCreationTime, quantity) = Fin4Token(tokenAddress)\n            .submitClaim(msg.sender, amount, comment);\n\n        if (!userClaimedOnThisTokenAlready(msg.sender, tokenAddress)) {\n            tokensWhereUserHasClaims[msg.sender].push(tokenAddress);\n        }\n\n        emit ClaimSubmitted(tokenAddress, claimId, msg.sender, quantity, claimCreationTime, comment, requiredVerifierTypes);\n\n        for (uint i = 0; i < requiredVerifierTypes.length; i++) {\n\n            // TODO here we need to distingiush more refined then just isAutoCheckable --> autoCheck\n            // e.g. ClaimableOnlyNTimesPerUser must both be checked immediately as well as a last verifier before a claim-approval.\n            // Otherwise a scenario is possible in which someone makes a token with ClaimableOnlyNTimesPerUser = 3 and another interactive verifier.\n            // Then a user makes 10 claims without submitting proof to the interactive verifier. ClaimableOnlyNTimesPerUser will give its blessing\n            // 10 times and can't \"undo\" it when the user provides the proof for the interactive verifier. Result: 10 approved claims despite the limit of 3\n\n            if (Fin4BaseVerifierType(requiredVerifierTypes[i]).isAutoCheckable()) {\n                // Also emit VerifierPending? For now they decide immediately and so the VerifierApprove/Rejected event will follow\n                // as soon as there is some time delay (asking oracle etc.) the VerifierPending should probably be emitted\n                Fin4BaseVerifierType(requiredVerifierTypes[i]).autoCheck(msg.sender, tokenAddress, claimId);\n            }\n        }\n\n        // Only auto-init applicable verifier types if the claim didn't already got automatically rejected from a constraint in the previous loop\n        if (!Fin4Token(tokenAddress).claimGotRejected(claimId)) {\n            // auto-init claims where user would only press an \"init verifier\" button without having to supply more info\n            for (uint i = 0; i < requiredVerifierTypes.length; i++) {\n                // TODO instead of two calls, make .autoSubmitProofIfApplicable()?\n                if (Fin4BaseVerifierType(requiredVerifierTypes[i]).isAutoInitiable()) {\n                    Fin4BaseVerifierType(requiredVerifierTypes[i]).autoSubmitProof(msg.sender, tokenAddress, claimId);\n                }\n            }\n        }\n    }\n\n    function verifierPendingPingback(address tokenAddrToReceiveVerifierNotice, address verifierTypeAddress, uint claimId,\n        address claimer, string memory message) public {\n        emit VerifierPending(tokenAddrToReceiveVerifierNotice, verifierTypeAddress, claimId, claimer, message);\n    }\n\n    function verifierApprovalPingback(address tokenAddrToReceiveVerifierNotice, address verifierTypeAddress, uint claimId,\n        address claimer, string memory message) public {\n        emit VerifierApproved(tokenAddrToReceiveVerifierNotice, verifierTypeAddress, claimId, claimer, message);\n    }\n\n    function verifierRejectionPingback(address tokenAddrToReceiveVerifierNotice, address verifierTypeAddress, uint claimId,\n        address claimer, string memory message) public {\n        emit VerifierRejected(tokenAddrToReceiveVerifierNotice, verifierTypeAddress, claimId, claimer, message);\n    }\n\n    // called from Fin4TokenBase\n    function claimApprovedPingback(address tokenAddress, address claimer, uint claimId, uint quantity, bool canMint) public {\n        // TODO require...\n\n        uint mintedQuantity = 0;\n        if (canMint) {\n            // TODO verify this makes sense and msg.sender is the token\n            mintedQuantity = quantity;\n            MintingStub(tokenAddress).mint(claimer, mintedQuantity);\n            // can changes to totalSupply happen at other places too though? Definitely if we use the\n            // ERC20Plus contract with burning for instance... #ConceptualDecision\n            emit UpdatedTotalSupply(tokenAddress, Fin4Token(tokenAddress).totalSupply());\n        }\n\n        if (Fin4UnderlyingsAddress != address(0)) {\n            Fin4Underlyings(Fin4UnderlyingsAddress).callSuccessfulClaimNotifiers(tokenAddress, claimer, quantity);\n        }\n\n        // listen to this event if you provide your own minting policy\n        emit ClaimApproved(tokenAddress, claimId, claimer, mintedQuantity, Fin4Token(tokenAddress).balanceOf(claimer));\n\n        if (Fin4ReputationAddress != address(0)) {\n            // REP reward for a successful claim\n            MintingStub(Fin4ReputationAddress).mint(claimer, Fin4SystemParameters(Fin4SystemParametersAddress).REPforTokenClaim());\n        }\n    }\n\n    function claimRejectionPingback(address tokenAddress, uint claimId, address claimer) public {\n        emit ClaimRejected(tokenAddress, claimId, claimer);\n    }\n\n    // ------------------------- TOKENS WHERE USER HAS CLAIMS -------------------------\n\n    // to keep track on which tokens the user has claims (independent of their approval-statuses)\n    mapping (address => address[]) public tokensWhereUserHasClaims; // key = user, value = token addresses\n\n    function userClaimedOnThisTokenAlready(address user, address tokenAddress) private view returns (bool) {\n        for (uint i = 0; i < tokensWhereUserHasClaims[user].length; i++) {\n            if (tokensWhereUserHasClaims[user][i] == tokenAddress) {\n                return true;\n            }\n        }\n        return false;\n    }\n\n    // used in PreviousClaims\n    function getTokensWhereUserHasClaims() public view returns(address[] memory) {\n        return tokensWhereUserHasClaims[msg.sender];\n    }\n\n    // ------------------------- CLAIMS -------------------------\n\n    function getClaimsCountOnThisToken(address token) public view returns(uint) {\n        return Fin4Token(token).nextClaimId();\n    }\n\n    function getMyClaimIdsOnThisToken(address token) public view returns(uint[] memory) {\n        return Fin4Token(token).getClaimIds(msg.sender);\n    }\n\n    function getClaimOnThisToken(address token, uint claimId) public view\n        returns(address, bool, bool, uint, uint, uint, string memory, address[] memory, uint[] memory, address[] memory) {\n        return Fin4Token(token).getClaim(claimId);\n    }\n\n    function getVerifierMessageOnClaim(address token, uint claimId, address verifierAddress) public view returns(string memory) {\n        return Fin4Token(token).getVerifierMessageOnClaim(claimId, verifierAddress);\n    }\n\n}\n",
  "sourcePath": "/home/cantonioupao/susDAO-saveMe/FIN4Contracts/contracts/Fin4Claiming.sol",
  "compiler": {
    "name": "solc",
    "version": "0.5.17+commit.d19bba13.Emscripten.clang"
  },
  "schemaVersion": "3.3.1",
  "updatedAt": "2020-12-03T18:27:58.763Z",
  "devdoc": {
    "methods": {}
  },
  "userdoc": {
    "methods": {}
  }
}