{
  "contractName": "Fin4Underlyings",
  "abi": [
    {
      "constant": true,
      "inputs": [],
      "name": "countUsableForAll",
      "outputs": [
        {
          "internalType": "uint256",
          "name": "",
          "type": "uint256"
        }
      ],
      "payable": false,
      "stateMutability": "view",
      "type": "function"
    },
    {
      "constant": true,
      "inputs": [
        {
          "internalType": "uint256",
          "name": "",
          "type": "uint256"
        }
      ],
      "name": "names",
      "outputs": [
        {
          "internalType": "bytes32",
          "name": "",
          "type": "bytes32"
        }
      ],
      "payable": false,
      "stateMutability": "view",
      "type": "function"
    },
    {
      "constant": true,
      "inputs": [
        {
          "internalType": "address",
          "name": "",
          "type": "address"
        },
        {
          "internalType": "uint256",
          "name": "",
          "type": "uint256"
        }
      ],
      "name": "tokenToRegisteredUnderlyings",
      "outputs": [
        {
          "internalType": "bytes32",
          "name": "",
          "type": "bytes32"
        }
      ],
      "payable": false,
      "stateMutability": "view",
      "type": "function"
    },
    {
      "constant": true,
      "inputs": [
        {
          "internalType": "address",
          "name": "",
          "type": "address"
        }
      ],
      "name": "tokenToSourcererSettings",
      "outputs": [
        {
          "internalType": "bool",
          "name": "exists",
          "type": "bool"
        },
        {
          "internalType": "bool",
          "name": "tokenIsConstructing",
          "type": "bool"
        },
        {
          "internalType": "bool",
          "name": "allowAddPairsAfterCreation",
          "type": "bool"
        },
        {
          "internalType": "bool",
          "name": "allowCollateralPairsCreatedByOthers",
          "type": "bool"
        }
      ],
      "payable": false,
      "stateMutability": "view",
      "type": "function"
    },
    {
      "constant": true,
      "inputs": [
        {
          "internalType": "bytes32",
          "name": "",
          "type": "bytes32"
        }
      ],
      "name": "underlyings",
      "outputs": [
        {
          "internalType": "bool",
          "name": "exists",
          "type": "bool"
        },
        {
          "internalType": "bytes32",
          "name": "name",
          "type": "bytes32"
        },
        {
          "internalType": "bool",
          "name": "isSourcerer",
          "type": "bool"
        },
        {
          "internalType": "address",
          "name": "contractAddress",
          "type": "address"
        },
        {
          "internalType": "bytes32",
          "name": "attachment",
          "type": "bytes32"
        },
        {
          "internalType": "bool",
          "name": "usableForAll",
          "type": "bool"
        }
      ],
      "payable": false,
      "stateMutability": "view",
      "type": "function"
    },
    {
      "constant": false,
      "inputs": [
        {
          "internalType": "bytes32",
          "name": "name",
          "type": "bytes32"
        },
        {
          "internalType": "address",
          "name": "contractAddress",
          "type": "address"
        },
        {
          "internalType": "bool",
          "name": "isSourcerer",
          "type": "bool"
        },
        {
          "internalType": "bytes32",
          "name": "attachment",
          "type": "bytes32"
        },
        {
          "internalType": "bool",
          "name": "usableForAll",
          "type": "bool"
        }
      ],
      "name": "addUnderlying",
      "outputs": [],
      "payable": false,
      "stateMutability": "nonpayable",
      "type": "function"
    },
    {
      "constant": false,
      "inputs": [
        {
          "internalType": "bytes32[]",
          "name": "_names",
          "type": "bytes32[]"
        },
        {
          "internalType": "address[]",
          "name": "contractAddresses",
          "type": "address[]"
        },
        {
          "internalType": "bytes32[]",
          "name": "attachments",
          "type": "bytes32[]"
        },
        {
          "internalType": "bool[]",
          "name": "usableForAlls",
          "type": "bool[]"
        }
      ],
      "name": "addUnderlyings",
      "outputs": [],
      "payable": false,
      "stateMutability": "nonpayable",
      "type": "function"
    },
    {
      "constant": false,
      "inputs": [
        {
          "internalType": "bytes32",
          "name": "name",
          "type": "bytes32"
        },
        {
          "internalType": "address",
          "name": "contractAddress",
          "type": "address"
        }
      ],
      "name": "addSourcerer",
      "outputs": [],
      "payable": false,
      "stateMutability": "nonpayable",
      "type": "function"
    },
    {
      "constant": true,
      "inputs": [],
      "name": "getUnderlyings",
      "outputs": [
        {
          "internalType": "bytes32[]",
          "name": "",
          "type": "bytes32[]"
        },
        {
          "internalType": "bool[]",
          "name": "",
          "type": "bool[]"
        },
        {
          "internalType": "address[]",
          "name": "",
          "type": "address[]"
        },
        {
          "internalType": "bytes32[]",
          "name": "",
          "type": "bytes32[]"
        }
      ],
      "payable": false,
      "stateMutability": "view",
      "type": "function"
    },
    {
      "constant": true,
      "inputs": [
        {
          "internalType": "address",
          "name": "sourcererAddress",
          "type": "address"
        }
      ],
      "name": "getSourcererParams",
      "outputs": [
        {
          "internalType": "string",
          "name": "",
          "type": "string"
        }
      ],
      "payable": false,
      "stateMutability": "pure",
      "type": "function"
    },
    {
      "constant": true,
      "inputs": [
        {
          "internalType": "address",
          "name": "sourcererAddress",
          "type": "address"
        }
      ],
      "name": "getSourcererPairs",
      "outputs": [
        {
          "internalType": "address[]",
          "name": "",
          "type": "address[]"
        },
        {
          "internalType": "address[]",
          "name": "",
          "type": "address[]"
        },
        {
          "internalType": "address[]",
          "name": "",
          "type": "address[]"
        },
        {
          "internalType": "uint256[]",
          "name": "",
          "type": "uint256[]"
        },
        {
          "internalType": "uint256[]",
          "name": "",
          "type": "uint256[]"
        },
        {
          "internalType": "uint256[]",
          "name": "",
          "type": "uint256[]"
        }
      ],
      "payable": false,
      "stateMutability": "view",
      "type": "function"
    },
    {
      "constant": false,
      "inputs": [
        {
          "internalType": "address",
          "name": "tokenAddress",
          "type": "address"
        },
        {
          "internalType": "bytes32[]",
          "name": "_names",
          "type": "bytes32[]"
        }
      ],
      "name": "registerUnderlyingsWithToken",
      "outputs": [],
      "payable": false,
      "stateMutability": "nonpayable",
      "type": "function"
    },
    {
      "constant": true,
      "inputs": [
        {
          "internalType": "address",
          "name": "tokenAddress",
          "type": "address"
        }
      ],
      "name": "getUnderlyingsRegisteredOnToken",
      "outputs": [
        {
          "internalType": "bytes32[]",
          "name": "",
          "type": "bytes32[]"
        }
      ],
      "payable": false,
      "stateMutability": "view",
      "type": "function"
    },
    {
      "constant": false,
      "inputs": [
        {
          "internalType": "address",
          "name": "tokenAddress",
          "type": "address"
        },
        {
          "internalType": "address",
          "name": "claimer",
          "type": "address"
        },
        {
          "internalType": "uint256",
          "name": "quantity",
          "type": "uint256"
        }
      ],
      "name": "callSuccessfulClaimNotifiers",
      "outputs": [],
      "payable": false,
      "stateMutability": "nonpayable",
      "type": "function"
    },
    {
      "constant": false,
      "inputs": [
        {
          "internalType": "address",
          "name": "token",
          "type": "address"
        },
        {
          "internalType": "bool",
          "name": "allowAddPairsAfterCreation",
          "type": "bool"
        },
        {
          "internalType": "bool",
          "name": "allowCollateralPairsCreatedByOthers",
          "type": "bool"
        }
      ],
      "name": "setParameters",
      "outputs": [],
      "payable": false,
      "stateMutability": "nonpayable",
      "type": "function"
    },
    {
      "constant": true,
      "inputs": [
        {
          "internalType": "address",
          "name": "token",
          "type": "address"
        }
      ],
      "name": "getSourcererSettings",
      "outputs": [
        {
          "internalType": "bool",
          "name": "",
          "type": "bool"
        },
        {
          "internalType": "bool",
          "name": "",
          "type": "bool"
        }
      ],
      "payable": false,
      "stateMutability": "view",
      "type": "function"
    },
    {
      "constant": true,
      "inputs": [
        {
          "internalType": "address",
          "name": "user",
          "type": "address"
        },
        {
          "internalType": "address",
          "name": "pat",
          "type": "address"
        }
      ],
      "name": "newSourcererPairAllowedWithPat",
      "outputs": [
        {
          "internalType": "bool",
          "name": "",
          "type": "bool"
        }
      ],
      "payable": false,
      "stateMutability": "view",
      "type": "function"
    },
    {
      "constant": true,
      "inputs": [
        {
          "internalType": "address",
          "name": "user",
          "type": "address"
        },
        {
          "internalType": "address",
          "name": "pat",
          "type": "address"
        },
        {
          "internalType": "address",
          "name": "collateral",
          "type": "address"
        }
      ],
      "name": "newSourcererPairAllowedWithCollateral",
      "outputs": [
        {
          "internalType": "bool",
          "name": "",
          "type": "bool"
        }
      ],
      "payable": false,
      "stateMutability": "view",
      "type": "function"
    }
  ],
  "bytecode": "0x6080604052600060035534801561001557600080fd5b50611abc806100256000396000f3fe608060405234801561001057600080fd5b50600436106101165760003560e01c80636a98c3c2116100a2578063acc895ec11610071578063acc895ec1461068e578063b6de6248146106c4578063c25c6c83146108eb578063ebd6ce1a1461092d578063f65baefa1461097d57610116565b80636a98c3c2146103a657806377bd2c73146103ae57806384ec1e151461058157806392bd2727146105dd57610116565b80633cce3e8c116100e95780633cce3e8c146102095780634622ab031461027f57806348ec32f61461029c5780634ed8b2a914610337578063606c79eb1461036557610116565b806306b808e61461011b5780631c8a7ebe146101495780631d25f41414610187578063376bc08f146101bd575b600080fd5b6101476004803603604081101561013157600080fd5b50803590602001356001600160a01b0316610aa8565b005b6101756004803603604081101561015f57600080fd5b506001600160a01b038135169060200135610abc565b60408051918252519081900360200190f35b6101476004803603606081101561019d57600080fd5b506001600160a01b03813516906020810135151590604001351515610aea565b6101f5600480360360608110156101d357600080fd5b506001600160a01b038135811691602081013582169160409091013516610ba2565b604080519115158252519081900360200190f35b61022f6004803603602081101561021f57600080fd5b50356001600160a01b0316610c76565b60408051602080825283518183015283519192839290830191858101910280838360005b8381101561026b578181015183820152602001610253565b505050509050019250505060405180910390f35b6101756004803603602081101561029557600080fd5b5035610ce2565b6102c2600480360360208110156102b257600080fd5b50356001600160a01b0316610d00565b6040805160208082528351818301528351919283929083019185019080838360005b838110156102fc5781810151838201526020016102e4565b50505050905090810190601f1680156103295780820380516001836020036101000a031916815260200191505b509250505060405180910390f35b6101f56004803603604081101561034d57600080fd5b506001600160a01b0381358116916020013516610e2d565b61038b6004803603602081101561037b57600080fd5b50356001600160a01b0316610f2c565b60408051921515835290151560208301528051918290030190f35b610175610f8e565b6103d4600480360360208110156103c457600080fd5b50356001600160a01b0316610f94565b6040518080602001806020018060200180602001806020018060200187810387528d818151815260200191508051906020019060200280838360005b83811015610428578181015183820152602001610410565b5050505090500187810386528c818151815260200191508051906020019060200280838360005b8381101561046757818101518382015260200161044f565b5050505090500187810385528b818151815260200191508051906020019060200280838360005b838110156104a657818101518382015260200161048e565b5050505090500187810384528a818151815260200191508051906020019060200280838360005b838110156104e55781810151838201526020016104cd565b50505050905001878103835289818151815260200191508051906020019060200280838360005b8381101561052457818101518382015260200161050c565b50505050905001878103825288818151815260200191508051906020019060200280838360005b8381101561056357818101518382015260200161054b565b505050509050019c5050505050505050505050505060405180910390f35b61059e6004803603602081101561059757600080fd5b5035611350565b6040805196151587526020870195909552921515858501526001600160a01b0390911660608501526080840152151560a0830152519081900360c00190f35b610147600480360360408110156105f357600080fd5b6001600160a01b038235169190810190604081016020820135600160201b81111561061d57600080fd5b82018360208201111561062f57600080fd5b803590602001918460208302840111600160201b8311171561065057600080fd5b919080806020026020016040519081016040528093929190818152602001838360200280828437600092019190915250929550611396945050505050565b610147600480360360608110156106a457600080fd5b506001600160a01b038135811691602081013590911690604001356113d1565b610147600480360360808110156106da57600080fd5b810190602081018135600160201b8111156106f457600080fd5b82018360208201111561070657600080fd5b803590602001918460208302840111600160201b8311171561072757600080fd5b9190808060200260200160405190810160405280939291908181526020018383602002808284376000920191909152509295949360208101935035915050600160201b81111561077657600080fd5b82018360208201111561078857600080fd5b803590602001918460208302840111600160201b831117156107a957600080fd5b9190808060200260200160405190810160405280939291908181526020018383602002808284376000920191909152509295949360208101935035915050600160201b8111156107f857600080fd5b82018360208201111561080a57600080fd5b803590602001918460208302840111600160201b8311171561082b57600080fd5b9190808060200260200160405190810160405280939291908181526020018383602002808284376000920191909152509295949360208101935035915050600160201b81111561087a57600080fd5b82018360208201111561088c57600080fd5b803590602001918460208302840111600160201b831117156108ad57600080fd5b919080806020026020016040519081016040528093929190818152602001838360200280828437600092019190915250929550611549945050505050565b610147600480360360a081101561090157600080fd5b508035906001600160a01b036020820135169060408101351515906060810135906080013515156115ef565b6109536004803603602081101561094357600080fd5b50356001600160a01b03166116eb565b60408051941515855292151560208501529015158383015215156060830152519081900360800190f35b61098561171c565b6040518080602001806020018060200180602001858103855289818151815260200191508051906020019060200280838360005b838110156109d15781810151838201526020016109b9565b50505050905001858103845288818151815260200191508051906020019060200280838360005b83811015610a105781810151838201526020016109f8565b50505050905001858103835287818151815260200191508051906020019060200280838360005b83811015610a4f578181015183820152602001610a37565b50505050905001858103825286818151815260200191508051906020019060200280838360005b83811015610a8e578181015183820152602001610a76565b505050509050019850505050505050505060405180910390f35b610ab882826001600060016115ef565b5050565b60026020528160005260406000208181548110610ad557fe5b90600052602060002001600091509150505481565b6001600160a01b03831660009081526004602052604090205460ff1615610b425760405162461bcd60e51b8152600401808060200182810382526034815260200180611a2c6034913960400191505060405180910390fd5b6001600160a01b039092166000908152600460205260409020805492151563010000000263ff00000019921515620100000262ff00001961ff001960ff199096166001179590951661010017949094169390931791909116919091179055565b6001600160a01b03811660009081526004602052604081205460ff16610bca57506001610c6f565b826001600160a01b0316639c6790176040518163ffffffff1660e01b815260040160206040518083038186803b158015610c0357600080fd5b505afa158015610c17573d6000803e3d6000fd5b505050506040513d6020811015610c2d57600080fd5b50516001600160a01b0385811691161415610c4a57506001610c6f565b506001600160a01b0381166000908152600460205260409020546301000000900460ff165b9392505050565b6001600160a01b038116600090815260026020908152604091829020805483518184028101840190945280845260609392830182828015610cd657602002820191906000526020600020905b815481526020019060010190808311610cc2575b50505050509050919050565b60018181548110610cef57fe5b600091825260209091200154905081565b6060816001600160a01b0316636c71d5426040518163ffffffff1660e01b815260040160006040518083038186803b158015610d3b57600080fd5b505afa158015610d4f573d6000803e3d6000fd5b505050506040513d6000823e601f3d908101601f191682016040526020811015610d7857600080fd5b8101908080516040519392919084600160201b821115610d9757600080fd5b908301906020820185811115610dac57600080fd5b8251600160201b811182820188101715610dc557600080fd5b82525081516020918201929091019080838360005b83811015610df2578181015183820152602001610dda565b50505050905090810190601f168015610e1f5780820380516001836020036101000a031916815260200191505b506040525050509050919050565b6001600160a01b03811660009081526004602052604081205460ff16610e5557506000610f26565b816001600160a01b0316639c6790176040518163ffffffff1660e01b815260040160206040518083038186803b158015610e8e57600080fd5b505afa158015610ea2573d6000803e3d6000fd5b505050506040513d6020811015610eb857600080fd5b50516001600160a01b03848116911614610ed457506000610f26565b6001600160a01b038216600090815260046020526040902054610100900460ff1615610f0257506001610f26565b506001600160a01b03811660009081526004602052604090205462010000900460ff165b92915050565b6001600160a01b038116600090815260046020526040812054819060ff16610f5a5750600090506001610f89565b50506001600160a01b03811660009081526004602052604090205460ff62010000820481169163010000009004165b915091565b60035481565b606080606080606080866001600160a01b031663767eb5ef6040518163ffffffff1660e01b815260040160006040518083038186803b158015610fd657600080fd5b505afa158015610fea573d6000803e3d6000fd5b505050506040513d6000823e601f3d908101601f1916820160405260c081101561101357600080fd5b8101908080516040519392919084600160201b82111561103257600080fd5b90830190602082018581111561104757600080fd5b82518660208202830111600160201b8211171561106357600080fd5b82525081516020918201928201910280838360005b83811015611090578181015183820152602001611078565b5050505090500160405260200180516040519392919084600160201b8211156110b857600080fd5b9083019060208201858111156110cd57600080fd5b82518660208202830111600160201b821117156110e957600080fd5b82525081516020918201928201910280838360005b838110156111165781810151838201526020016110fe565b5050505090500160405260200180516040519392919084600160201b82111561113e57600080fd5b90830190602082018581111561115357600080fd5b82518660208202830111600160201b8211171561116f57600080fd5b82525081516020918201928201910280838360005b8381101561119c578181015183820152602001611184565b5050505090500160405260200180516040519392919084600160201b8211156111c457600080fd5b9083019060208201858111156111d957600080fd5b82518660208202830111600160201b821117156111f557600080fd5b82525081516020918201928201910280838360005b8381101561122257818101518382015260200161120a565b5050505090500160405260200180516040519392919084600160201b82111561124a57600080fd5b90830190602082018581111561125f57600080fd5b82518660208202830111600160201b8211171561127b57600080fd5b82525081516020918201928201910280838360005b838110156112a8578181015183820152602001611290565b5050505090500160405260200180516040519392919084600160201b8211156112d057600080fd5b9083019060208201858111156112e557600080fd5b82518660208202830111600160201b8211171561130157600080fd5b82525081516020918201928201910280838360005b8381101561132e578181015183820152602001611316565b5050505090500160405250505095509550955095509550955091939550919395565b6000602081905290815260409020805460018201546002830154600384015460049094015460ff938416949293808316936101009093046001600160a01b031692911686565b8051156113c8576001600160a01b038216600090815260026020908152604090912082516113c69284019061198e565b505b610ab882611948565b60005b6001600160a01b038416600090815260026020526040902054811015611543576113fc6119d9565b6001600160a01b038516600090815260026020526040812080548291908590811061142357fe5b600091825260208083209091015483528281019390935260409182019020815160c081018352815460ff90811615158252600183015494820194909452600282015480851615159382018490526001600160a01b0361010090910416606082015260038201546080820152600490910154909216151560a0830152909150806114b7575060608101516001600160a01b0316155b156114c2575061153b565b60608101516040805163db3d385f60e01b81526001600160a01b0388811660048301528781166024830152604482018790529151919092169163db3d385f91606480830192600092919082900301818387803b15801561152157600080fd5b505af1158015611535573d6000803e3d6000fd5b50505050505b6001016113d4565b50505050565b60005b84518110156115e85760008086838151811061156457fe5b60209081029190910181015182528101919091526040016000205460ff166115e0576115e085828151811061159557fe5b60200260200101518583815181106115a957fe5b602002602001015160008685815181106115bf57fe5b60200260200101518686815181106115d357fe5b60200260200101516115ef565b60010161154c565b5050505050565b60008581526020819052604090205460ff161561163d5760405162461bcd60e51b8152600401808060200182810382526028815260200180611a606028913960400191505060405180910390fd5b60008581526020819052604090208054600160ff19918216811783558201879055600282018054821686151517610100600160a81b0319166101006001600160a01b038916021790556003820184905560048201805490911683158015919091179091556116af576003805460010190555b50506001805480820182556000919091527fb10e2d527612073b26eecdfd717e6a320cf44b4afac2b0732d9fcbe2b7fa0cf60193909355505050565b60046020526000908152604090205460ff808216916101008104821691620100008204811691630100000090041684565b6060806060806060600354604051908082528060200260200182016040528015611750578160200160208202803883390190505b5090506060600354604051908082528060200260200182016040528015611781578160200160208202803883390190505b50905060606003546040519080825280602002602001820160405280156117b2578160200160208202803883390190505b50905060005b6003548110156118df576117ca6119d9565b600080600184815481106117da57fe5b60009182526020808320919091015483528281019390935260409182019020815160c081018352815460ff9081161515825260018301549482019490945260028201548085161515938201939093526101009092046001600160a01b031660608301526003810154608083015260040154909116151560a0820181905290915061186457506118d7565b806040015185838151811061187557fe5b602002602001019015159081151581525050806060015184838151811061189857fe5b60200260200101906001600160a01b031690816001600160a01b03168152505080608001518383815181106118c957fe5b602002602001018181525050505b6001016117b8565b5060018383838380548060200260200160405190810160405280929190818152602001828054801561193057602002820191906000526020600020905b81548152602001906001019080831161191c575b50505050509350965096509650965050505090919293565b6001600160a01b03811660009081526004602052604090205460ff161561198b576001600160a01b0381166000908152600460205260409020805461ff00191690555b50565b8280548282559060005260206000209081019282156119c9579160200282015b828111156119c95782518255916020019190600101906119ae565b506119d5929150611a0e565b5090565b6040805160c081018252600080825260208201819052918101829052606081018290526080810182905260a081019190915290565b611a2891905b808211156119d55760008155600101611a14565b9056fe536f757263657265722073657474696e677320666f72207468697320746f6b656e2061726520616c72656164792073746f726564556e646572796c696e6720776974682074686174206e616d6520616c726561647920657869737473a265627a7a72315820ed4f7e95b413cbe42b40331cc96fa45c6b066ecef678f5818bc7c47e0ec1574964736f6c63430005110032",
  "source": "pragma solidity ^0.5.17;\n\nimport 'contracts/stub/Fin4TokenStub.sol';\nimport 'contracts/underlyings/BaseSourcerer.sol';\nimport 'contracts/underlyings/SuccessfulClaimNotifierInterface.sol';\n\ncontract Fin4Underlyings {\n\n    mapping (bytes32 => Underlying) public underlyings; // 2nd mapping with contractAddress as key?\n    bytes32[] public names;\n    mapping(address => bytes32[]) public tokenToRegisteredUnderlyings;\n\n    struct Underlying {\n        bool exists;\n        bytes32 name;\n        bool isSourcerer;\n        address contractAddress; // can be external to Fin4, must implement SuccessfulClaimNotiferInterface\n        bytes32 attachment;\n        bool usableForAll; // if false, it will not shown under \"add existing\" in the frontend\n        // TODO: valid for / editable later on / what else?\n        // TODO a visibility boolean to optionally hide it in frontend?\n    }\n\n    uint public countUsableForAll = 0;\n\n    function addUnderlying(bytes32 name, address contractAddress, bool isSourcerer, bytes32 attachment, bool usableForAll) public {\n        require(!underlyings[name].exists, \"Underyling with that name already exists\");\n        Underlying storage underlying = underlyings[name];\n        underlying.exists = true;\n        underlying.name = name;\n        underlying.isSourcerer = isSourcerer;\n        underlying.contractAddress = contractAddress;\n        underlying.attachment = attachment;\n        underlying.usableForAll = usableForAll;\n        if (usableForAll) {\n            countUsableForAll ++;\n        }\n        names.push(name);\n    }\n\n    function addUnderlyings(bytes32[] memory _names, address[] memory contractAddresses, bytes32[] memory attachments,\n        bool[] memory usableForAlls) public {\n        for (uint i = 0; i < _names.length; i ++) {\n            if (!underlyings[_names[i]].exists) { // or use require here?\n                addUnderlying(_names[i], contractAddresses[i], false, attachments[i], usableForAlls[i]);\n            }\n        }\n    }\n\n    function addSourcerer(bytes32 name, address contractAddress) public {\n        addUnderlying(name, contractAddress, true, \"\", true);\n    }\n\n    function getUnderlyings() public view returns(bytes32[] memory, bool[] memory, address[] memory, bytes32[] memory) {\n        bool[] memory isSourcerers = new bool[](countUsableForAll);\n        address[] memory contractAddresses = new address[](countUsableForAll);\n        bytes32[] memory attachments = new bytes32[](countUsableForAll);\n        for (uint i = 0; i < countUsableForAll; i ++) {\n            Underlying memory underlying = underlyings[names[i]];\n            if (!underlying.usableForAll) {\n                continue;\n            }\n            isSourcerers[i] = underlying.isSourcerer;\n            contractAddresses[i] = underlying.contractAddress;\n            attachments[i] = underlying.attachment;\n        }\n        return (names, isSourcerers, contractAddresses, attachments);\n    }\n\n    function getSourcererParams(address sourcererAddress) public pure returns(string memory) {\n        return BaseSourcerer(sourcererAddress).getParameterForTokenCreatorToSetEncoded();\n    }\n\n    function getSourcererPairs(address sourcererAddress) public view returns(address[] memory,\n        address[] memory, address[] memory, uint[] memory, uint[] memory, uint[] memory) {\n        return BaseSourcerer(sourcererAddress).getPairs();\n    }\n\n    function registerUnderlyingsWithToken(address tokenAddress, bytes32[] memory _names) public {\n        if (_names.length > 0) {\n            tokenToRegisteredUnderlyings[tokenAddress] = _names;\n        }\n        // TODO shield against underylings being added multiple times to a token\n\n        // calling it here instead of a separate call from Fin4TokenCreator because of out of gas during deployment\n        setTokenFinishedConstructing(tokenAddress);\n    }\n\n    function getUnderlyingsRegisteredOnToken(address tokenAddress) public view returns(bytes32[] memory) {\n        return tokenToRegisteredUnderlyings[tokenAddress];\n    }\n\n    function callSuccessfulClaimNotifiers(address tokenAddress, address claimer, uint quantity) public {\n        // TODO require Fin4Claiming must be msg.sender, plus other safeguards?\n        for (uint i = 0; i < tokenToRegisteredUnderlyings[tokenAddress].length; i ++) {\n            Underlying memory underlying = underlyings[tokenToRegisteredUnderlyings[tokenAddress][i]];\n            if (underlying.isSourcerer || underlying.contractAddress == address(0)) {\n                continue;\n            }\n            SuccessfulClaimNotifierInterface(underlying.contractAddress).successfulClaimNotify(tokenAddress, claimer, quantity);\n        }\n    }\n\n    // SOURCERER SETTINGS\n\n    struct SourcererSettings {\n        bool exists;\n        // for use as PAT\n        bool tokenIsConstructing; // only true while token creation process in the frontend is not finished\n        bool allowAddPairsAfterCreation; // default: false\n        // for use as Collateral\n        bool allowCollateralPairsCreatedByOthers; // default: true\n    }\n\n    mapping(address => SourcererSettings) public tokenToSourcererSettings;\n\n    // renamed from storeSourcererSettingsForToken() to be able to reuse TokenCreationProcess.setParamsOnOtherContract() in the frontend\n    function setParameters(address token, bool allowAddPairsAfterCreation, bool allowCollateralPairsCreatedByOthers) public {\n        require(!tokenToSourcererSettings[token].exists, \"Sourcerer settings for this token are already stored\");\n        // TODO require msg.sender == token creator\n        SourcererSettings storage settings = tokenToSourcererSettings[token];\n        settings.exists = true;\n        settings.tokenIsConstructing = true;\n        settings.allowAddPairsAfterCreation = allowAddPairsAfterCreation;\n        settings.allowCollateralPairsCreatedByOthers = allowCollateralPairsCreatedByOthers;\n    }\n\n    function getSourcererSettings(address token) public view returns(bool, bool) {\n        if (!tokenToSourcererSettings[token].exists) {\n            return (false, true); // default\n        }\n        return (tokenToSourcererSettings[token].allowAddPairsAfterCreation, tokenToSourcererSettings[token].allowCollateralPairsCreatedByOthers);\n    }\n\n    function setTokenFinishedConstructing(address token) private {\n        if (tokenToSourcererSettings[token].exists) {\n            // the if as safeguard if someone somehow skipped that step in the frontend\n            tokenToSourcererSettings[token].tokenIsConstructing = false;\n        }\n    }\n\n    function newSourcererPairAllowedWithPat(address user, address pat) public view returns(bool) {\n        if (!tokenToSourcererSettings[pat].exists) {\n            return false; // by default not allowed\n        }\n        if (user != Fin4TokenStub(pat).getTokenCreator()) {\n            return false;\n        }\n        if (tokenToSourcererSettings[pat].tokenIsConstructing) {\n            return true;\n        }\n        return tokenToSourcererSettings[pat].allowAddPairsAfterCreation;\n    }\n\n    function newSourcererPairAllowedWithCollateral(address user, address pat, address collateral) public view returns(bool) {\n        if (!tokenToSourcererSettings[collateral].exists) {\n            return true; // by default allowed\n        }\n        if (user == Fin4TokenStub(pat).getTokenCreator()) {\n            return true;\n        }\n        // TODO more options, see outcommented checkboxes in Step7Sourcerers.jsx\n        return tokenToSourcererSettings[collateral].allowCollateralPairsCreatedByOthers;\n    }\n}\n",
  "sourcePath": "/home/cantonioupao/susDAO-saveMe/FIN4Contracts/contracts/Fin4Underlyings.sol",
  "compiler": {
    "name": "solc",
    "version": "0.5.17+commit.d19bba13.Emscripten.clang"
  },
  "schemaVersion": "3.3.1",
  "updatedAt": "2020-12-03T18:31:09.730Z",
  "devdoc": {
    "methods": {}
  },
  "userdoc": {
    "methods": {}
  }
}