{
  "contractName": "Fin4OracleHub",
  "abi": [
    {
      "constant": true,
      "inputs": [
        {
          "internalType": "string",
          "name": "",
          "type": "string"
        },
        {
          "internalType": "uint256",
          "name": "",
          "type": "uint256"
        }
      ],
      "name": "sensorIDtoSubscribers",
      "outputs": [
        {
          "internalType": "address",
          "name": "",
          "type": "address"
        }
      ],
      "payable": false,
      "stateMutability": "view",
      "type": "function"
    },
    {
      "constant": false,
      "inputs": [
        {
          "internalType": "string",
          "name": "sensorID",
          "type": "string"
        },
        {
          "internalType": "uint256",
          "name": "timestamp",
          "type": "uint256"
        },
        {
          "internalType": "string",
          "name": "data",
          "type": "string"
        }
      ],
      "name": "receiveSensorSignal",
      "outputs": [],
      "payable": false,
      "stateMutability": "nonpayable",
      "type": "function"
    },
    {
      "constant": false,
      "inputs": [
        {
          "internalType": "address",
          "name": "verifierType",
          "type": "address"
        },
        {
          "internalType": "string",
          "name": "sensorID",
          "type": "string"
        }
      ],
      "name": "subscribeToSensorSignals",
      "outputs": [],
      "payable": false,
      "stateMutability": "nonpayable",
      "type": "function"
    }
  ],
  "bytecode": "0x608060405234801561001057600080fd5b50610634806100206000396000f3fe608060405234801561001057600080fd5b50600436106100415760003560e01c80631a7e5966146100465780636a9f8b4d146100fc578063a26fead01461022d575b600080fd5b6100fa6004803603604081101561005c57600080fd5b6001600160a01b038235169190810190604081016020820135600160201b81111561008657600080fd5b82018360208201111561009857600080fd5b803590602001918460018302840111600160201b831117156100b957600080fd5b91908080601f0160208091040260200160405190810160405280939291908181526020018383808284376000920191909152509295506102ef945050505050565b005b6100fa6004803603606081101561011257600080fd5b810190602081018135600160201b81111561012c57600080fd5b82018360208201111561013e57600080fd5b803590602001918460018302840111600160201b8311171561015f57600080fd5b91908080601f01602080910402602001604051908101604052809392919081815260200183838082843760009201919091525092958435959094909350604081019250602001359050600160201b8111156101b957600080fd5b8201836020820111156101cb57600080fd5b803590602001918460018302840111600160201b831117156101ec57600080fd5b91908080601f016020809104026020016040519081016040528093929190818152602001838380828437600092019190915250929550610384945050505050565b6102d36004803603604081101561024357600080fd5b810190602081018135600160201b81111561025d57600080fd5b82018360208201111561026f57600080fd5b803590602001918460018302840111600160201b8311171561029057600080fd5b91908080601f01602080910402602001604051908101604052809392919081815260200183838082843760009201919091525092955050913592506105bb915050565b604080516001600160a01b039092168252519081900360200190f35b6000816040518082805190602001908083835b602083106103215780518252601f199092019160209182019101610302565b51815160209384036101000a60001901801990921691161790529201948552506040519384900381019093208054600181018255600091825293902090920180546001600160a01b0319166001600160a01b039590951694909417909355505050565b60005b6000846040518082805190602001908083835b602083106103b95780518252601f19909201916020918201910161039a565b51815160209384036101000a600019018019909216911617905292019485525060405193849003019092205483101591506105b59050576000846040518082805190602001908083835b602083106104225780518252601f199092019160209182019101610403565b51815160209384036101000a600019018019909216911617905292019485525060405193849003019092208054909250839150811061045d57fe5b9060005260206000200160009054906101000a90046001600160a01b03166001600160a01b031663d928f6a58585856040518463ffffffff1660e01b8152600401808060200184815260200180602001838103835286818151815260200191508051906020019080838360005b838110156104e25781810151838201526020016104ca565b50505050905090810190601f16801561050f5780820380516001836020036101000a031916815260200191505b50838103825284518152845160209182019186019080838360005b8381101561054257818101518382015260200161052a565b50505050905090810190601f16801561056f5780820380516001836020036101000a031916815260200191505b5095505050505050600060405180830381600087803b15801561059157600080fd5b505af11580156105a5573d6000803e3d6000fd5b5050600190920191506103879050565b50505050565b815160208184018101805160008252928201918501919091209190528054829081106105e357fe5b6000918252602090912001546001600160a01b0316915082905056fea265627a7a7231582014b0429dcd9165c220d1ed9c58fd8c38e3b3856d22d2834684c8cca5e41b07b464736f6c63430005110032",
  "source": "pragma solidity ^0.5.17;\n\nimport 'contracts/stub/SensorSignalSubscriber.sol';\n\ncontract Fin4OracleHub {\n\n    mapping (string => address[]) public sensorIDtoSubscribers;  //receives a String and maps to an addres. The ID string mapped to the Metamask address (value-key) pair\n\n    // msg.sender is the oracle: our Fin4OracleEngine server or later sensors that talk directly to smart contracts\n    function receiveSensorSignal(string memory sensorID, uint timestamp, string memory data) public { //parse all the received data from the sensors in the function\n        // require(registeredOracles(msg.sender) ... #ConceptualDecision\n        for (uint i = 0; i < sensorIDtoSubscribers[sensorID].length; i++) {  //we go through the whole list of subscribed senders  \n            SensorSignalSubscriber(sensorIDtoSubscribers[sensorID][i]).sensorSignalReceived(sensorID, timestamp, data);\n        }\n    }\n\n    function subscribeToSensorSignals(address verifierType, string memory sensorID) public {\n        sensorIDtoSubscribers[sensorID].push(verifierType);\n    }\n\n}\n",
  "sourcePath": "/home/cantonioupao/susDAO-saveMe/FIN4Contracts/contracts/Fin4OracleHub.sol",
  "compiler": {
    "name": "solc",
    "version": "0.5.17+commit.d19bba13.Emscripten.clang"
  },
  "schemaVersion": "3.3.1",
  "updatedAt": "2020-12-04T13:28:58.227Z",
  "devdoc": {
    "methods": {}
  },
  "userdoc": {
    "methods": {}
  }
}