{
  "contractName": "Fin4BaseVerifierType",
  "abi": [
    {
      "constant": true,
      "inputs": [
        {
          "internalType": "address",
          "name": "_addr",
          "type": "address"
        }
      ],
      "name": "addressToString",
      "outputs": [
        {
          "internalType": "string",
          "name": "",
          "type": "string"
        }
      ],
      "payable": false,
      "stateMutability": "pure",
      "type": "function"
    },
    {
      "constant": true,
      "inputs": [
        {
          "internalType": "address[]",
          "name": "arr",
          "type": "address[]"
        },
        {
          "internalType": "address",
          "name": "addrToCheck",
          "type": "address"
        }
      ],
      "name": "arrayContainsAddress",
      "outputs": [
        {
          "internalType": "bool",
          "name": "",
          "type": "bool"
        }
      ],
      "payable": false,
      "stateMutability": "pure",
      "type": "function"
    },
    {
      "constant": true,
      "inputs": [],
      "name": "contractName",
      "outputs": [
        {
          "internalType": "string",
          "name": "",
          "type": "string"
        }
      ],
      "payable": false,
      "stateMutability": "view",
      "type": "function"
    },
    {
      "constant": true,
      "inputs": [],
      "name": "description",
      "outputs": [
        {
          "internalType": "string",
          "name": "",
          "type": "string"
        }
      ],
      "payable": false,
      "stateMutability": "view",
      "type": "function"
    },
    {
      "constant": true,
      "inputs": [],
      "name": "isAutoCheckable",
      "outputs": [
        {
          "internalType": "bool",
          "name": "",
          "type": "bool"
        }
      ],
      "payable": false,
      "stateMutability": "view",
      "type": "function"
    },
    {
      "constant": true,
      "inputs": [],
      "name": "isAutoInitiable",
      "outputs": [
        {
          "internalType": "bool",
          "name": "",
          "type": "bool"
        }
      ],
      "payable": false,
      "stateMutability": "view",
      "type": "function"
    },
    {
      "constant": true,
      "inputs": [],
      "name": "name",
      "outputs": [
        {
          "internalType": "string",
          "name": "",
          "type": "string"
        }
      ],
      "payable": false,
      "stateMutability": "view",
      "type": "function"
    },
    {
      "constant": false,
      "inputs": [
        {
          "internalType": "string",
          "name": "_contractName",
          "type": "string"
        }
      ],
      "name": "setContractName",
      "outputs": [],
      "payable": false,
      "stateMutability": "nonpayable",
      "type": "function"
    },
    {
      "constant": true,
      "inputs": [],
      "name": "getName",
      "outputs": [
        {
          "internalType": "string",
          "name": "",
          "type": "string"
        }
      ],
      "payable": false,
      "stateMutability": "view",
      "type": "function"
    },
    {
      "constant": true,
      "inputs": [],
      "name": "getDescription",
      "outputs": [
        {
          "internalType": "string",
          "name": "",
          "type": "string"
        }
      ],
      "payable": false,
      "stateMutability": "view",
      "type": "function"
    },
    {
      "constant": true,
      "inputs": [],
      "name": "getInfo",
      "outputs": [
        {
          "internalType": "string",
          "name": "",
          "type": "string"
        },
        {
          "internalType": "string",
          "name": "",
          "type": "string"
        },
        {
          "internalType": "string",
          "name": "",
          "type": "string"
        },
        {
          "internalType": "string",
          "name": "",
          "type": "string"
        }
      ],
      "payable": false,
      "stateMutability": "view",
      "type": "function"
    },
    {
      "constant": true,
      "inputs": [],
      "name": "getParameterForTokenCreatorToSetEncoded",
      "outputs": [
        {
          "internalType": "string",
          "name": "",
          "type": "string"
        }
      ],
      "payable": false,
      "stateMutability": "pure",
      "type": "function"
    },
    {
      "constant": true,
      "inputs": [
        {
          "internalType": "address",
          "name": "tokenAddress",
          "type": "address"
        }
      ],
      "name": "getCreatorOfToken",
      "outputs": [
        {
          "internalType": "address",
          "name": "",
          "type": "address"
        }
      ],
      "payable": false,
      "stateMutability": "view",
      "type": "function"
    },
    {
      "constant": false,
      "inputs": [
        {
          "internalType": "address",
          "name": "user",
          "type": "address"
        },
        {
          "internalType": "address",
          "name": "tokenAddrToReceiveVerifierNotice",
          "type": "address"
        },
        {
          "internalType": "uint256",
          "name": "claimId",
          "type": "uint256"
        }
      ],
      "name": "autoSubmitProof",
      "outputs": [],
      "payable": false,
      "stateMutability": "nonpayable",
      "type": "function"
    },
    {
      "constant": false,
      "inputs": [
        {
          "internalType": "address",
          "name": "user",
          "type": "address"
        },
        {
          "internalType": "address",
          "name": "tokenAddrToReceiveVerifierNotice",
          "type": "address"
        },
        {
          "internalType": "uint256",
          "name": "claimId",
          "type": "uint256"
        }
      ],
      "name": "autoCheck",
      "outputs": [],
      "payable": false,
      "stateMutability": "nonpayable",
      "type": "function"
    }
  ],
  "bytecode": "0x60806040526003805461ffff1916905534801561001b57600080fd5b50610cbb8061002b6000396000f3fe608060405234801561001057600080fd5b50600436106100f55760003560e01c80635e57966d116100975780639259360c116100665780639259360c1461047d578063ae18e0a51461052b578063c05ebcc514610561578063ffc5daef1461052b576100f5565b80635e57966d1461043f5780636c71d542146104655780637284e4161461046d57806375d0c0dc14610475576100f5565b80631a092541116100d35780631a09254114610227578063367909321461022f5780634d1a1d5d146102715780635a9b0b891461028d576100f5565b806306fdde03146100fa5780630b5ee0061461017757806317d7de7c1461021f575b600080fd5b610102610569565b6040805160208082528351818301528351919283929083019185019080838360005b8381101561013c578181015183820152602001610124565b50505050905090810190601f1680156101695780820380516001836020036101000a031916815260200191505b509250505060405180910390f35b61021d6004803603602081101561018d57600080fd5b8101906020810181356401000000008111156101a857600080fd5b8201836020820111156101ba57600080fd5b803590602001918460018302840111640100000000831117156101dc57600080fd5b91908080601f0160208091040260200160405190810160405280939291908181526020018383808284376000920191909152509295506105f6945050505050565b005b61010261060d565b6101026106a3565b6102556004803603602081101561024557600080fd5b50356001600160a01b0316610701565b604080516001600160a01b039092168252519081900360200190f35b61027961076e565b604080519115158252519081900360200190f35b61029561077c565b6040518080602001806020018060200180602001858103855289818151815260200191508051906020019080838360005b838110156102de5781810151838201526020016102c6565b50505050905090810190601f16801561030b5780820380516001836020036101000a031916815260200191505b5085810384528851815288516020918201918a019080838360005b8381101561033e578181015183820152602001610326565b50505050905090810190601f16801561036b5780820380516001836020036101000a031916815260200191505b50858103835287518152875160209182019189019080838360005b8381101561039e578181015183820152602001610386565b50505050905090810190601f1680156103cb5780820380516001836020036101000a031916815260200191505b50858103825286518152865160209182019188019080838360005b838110156103fe5781810151838201526020016103e6565b50505050905090810190601f16801561042b5780820380516001836020036101000a031916815260200191505b509850505050505050505060405180910390f35b6101026004803603602081101561045557600080fd5b50356001600160a01b0316610947565b610102610ac3565b610102610ad5565b610102610b2d565b6102796004803603604081101561049357600080fd5b8101906020810181356401000000008111156104ae57600080fd5b8201836020820111156104c057600080fd5b803590602001918460208302840111640100000000831117156104e257600080fd5b919080806020026020016040519081016040528093929190818152602001838360200280828437600092019190915250929550505090356001600160a01b03169150610b889050565b61021d6004803603606081101561054157600080fd5b506001600160a01b03813581169160208101359091169060400135610be0565b610279610be5565b60018054604080516020600284861615610100026000190190941693909304601f810184900484028201840190925281815292918301828280156105ee5780601f106105c3576101008083540402835291602001916105ee565b820191906000526020600020905b8154815290600101906020018083116105d157829003601f168201915b505050505081565b8051610609906000906020840190610bee565b5050565b60018054604080516020601f600260001961010087891615020190951694909404938401819004810282018101909252828152606093909290918301828280156106985780601f1061066d57610100808354040283529160200191610698565b820191906000526020600020905b81548152906001019060200180831161067b57829003601f168201915b505050505090505b90565b60028054604080516020601f60001961010060018716150201909416859004938401819004810282018101909252828152606093909290918301828280156106985780601f1061066d57610100808354040283529160200191610698565b6000816001600160a01b0316639c6790176040518163ffffffff1660e01b815260040160206040518083038186803b15801561073c57600080fd5b505afa158015610750573d6000803e3d6000fd5b505050506040513d602081101561076657600080fd5b505192915050565b600354610100900460ff1681565b606080606080600060016002610790610ac3565b8354604080516020601f600260001961010060018816150201909516949094049384018190048102820181019092528281529186918301828280156108165780601f106107eb57610100808354040283529160200191610816565b820191906000526020600020905b8154815290600101906020018083116107f957829003601f168201915b5050865460408051602060026001851615610100026000190190941693909304601f8101849004840282018401909252818152959950889450925084019050828280156108a45780601f10610879576101008083540402835291602001916108a4565b820191906000526020600020905b81548152906001019060200180831161088757829003601f168201915b5050855460408051602060026001851615610100026000190190941693909304601f8101849004840282018401909252818152959850879450925084019050828280156109325780601f1061090757610100808354040283529160200191610932565b820191906000526020600020905b81548152906001019060200180831161091557829003601f168201915b50505050509150935093509350935090919293565b604080518082018252601081526f181899199a1a9b1b9c1cb0b131b232b360811b60208201528151602a80825260608281019094526001600160a01b03851692918491602082018180388339019050509050600360fc1b816000815181106109ab57fe5b60200101906001600160f81b031916908160001a905350600f60fb1b816001815181106109d457fe5b60200101906001600160f81b031916908160001a90535060005b6014811015610aba578260048583600c0160208110610a0957fe5b1a60f81b6001600160f81b031916901c60f81c60ff1681518110610a2957fe5b602001015160f81c60f81b828260020260020181518110610a4657fe5b60200101906001600160f81b031916908160001a905350828482600c0160208110610a6d57fe5b825191901a600f16908110610a7e57fe5b602001015160f81c60f81b828260020260030181518110610a9b57fe5b60200101906001600160f81b031916908160001a9053506001016109ee565b50949350505050565b60408051602081019091526000815290565b6002805460408051602060018416156101000260001901909316849004601f810184900484028201840190925281815292918301828280156105ee5780601f106105c3576101008083540402835291602001916105ee565b6000805460408051602060026001851615610100026000190190941693909304601f810184900484028201840190925281815292918301828280156105ee5780601f106105c3576101008083540402835291602001916105ee565b6000805b8351811015610bd457826001600160a01b0316848281518110610bab57fe5b60200260200101516001600160a01b03161415610bcc576001915050610bda565b600101610b8c565b50600090505b92915050565b505050565b60035460ff1681565b828054600181600116156101000203166002900490600052602060002090601f016020900481019282601f10610c2f57805160ff1916838001178555610c5c565b82800160010185558215610c5c579182015b82811115610c5c578251825591602001919060010190610c41565b50610c68929150610c6c565b5090565b6106a091905b80821115610c685760008155600101610c7256fea265627a7a72315820ab994da1a0facc74a263d207e682a3c308d69eb64e70c1c4c9e2d7e3729128c264736f6c63430005110032",
  "source": "pragma solidity ^0.5.17;\n\nimport \"contracts/stub/Fin4TokenStub.sol\";\nimport \"contracts/util/utils.sol\";\n\ncontract Fin4BaseVerifierType is utils {\n\n    string public contractName;\n    string public name;\n    string public description;\n    bool public isAutoInitiable = false; // shortcuts the user clicking on \"Initiate verifier\", instead that's done automatically\n    bool public isAutoCheckable = false; // TODO unify this logic with isAutoInitiable?\n\n    function setContractName(string memory _contractName) public {\n        contractName = _contractName;\n    }\n\n    function getName() public view returns(string memory) {\n        return name;\n    }\n\n    function getDescription() public view returns(string memory) {\n        return description;\n    }\n\n    function getInfo() public view returns(string memory, string memory, string memory, string memory) {\n        return (contractName, name, description, getParameterForTokenCreatorToSetEncoded());\n    }\n\n    // This method gets overriden by the verifier types and encode the parameter names\n    // to be filled by the token creator. He gets prompted to set them in the token creation process\n    function getParameterForTokenCreatorToSetEncoded() public pure returns(string memory) {\n        return \"\";\n    }\n\n    function statusIsUndecided(address token, uint claimId) internal returns(bool) {\n        // from enum Status in Fin4TokenBase: 0 = UNSUBMITTED, 1 = PENDING, 2 = APPROVED, 3 = REJECTED\n        uint status = Fin4TokenStub(token).getVerifierStatus(address(this), claimId);\n        require(status != 2 && status != 3, \"This verifier is already decided\");\n    }\n\n    // Helper method for all verifier types to go through the same method when sending their approvals\n    // to the respective claim on a token\n    function _sendApprovalNotice(address verifierTypeAddress, address tokenAddrToReceiveVerifierNotice, uint claimId,\n        string memory message) internal {\n        // TODO ensure it can only be called from within this SC?\n        statusIsUndecided(tokenAddrToReceiveVerifierNotice, claimId);\n        Fin4TokenStub(tokenAddrToReceiveVerifierNotice).receiveVerifierApprovalNotice(verifierTypeAddress, claimId, message);\n    }\n\n    function _sendRejectionNotice(address verifierTypeAddress, address tokenAddrToReceiveVerifierNotice, uint claimId,\n        string memory message) internal {\n        statusIsUndecided(tokenAddrToReceiveVerifierNotice, claimId);\n        Fin4TokenStub(tokenAddrToReceiveVerifierNotice).receiveVerifierRejectionNotice(verifierTypeAddress, claimId, message);\n    }\n\n    function _sendPendingNotice(address verifierTypeAddress, address tokenAddrToReceiveVerifierNotice, uint claimId,\n        string memory message) internal {\n        require(Fin4TokenStub(tokenAddrToReceiveVerifierNotice).getVerifierStatus(address(this), claimId) == 0,\n            \"This proof is already submitted\");\n        Fin4TokenStub(tokenAddrToReceiveVerifierNotice).receiveVerifierPendingNotice(verifierTypeAddress, claimId, message);\n    }\n\n    // Used by verifier types that require the token creator to approve something\n    function getCreatorOfToken(address tokenAddress) public view returns(address) {\n        return Fin4TokenStub(tokenAddress).getTokenCreator();\n    }\n\n    // On purpose not abstract so that deriving classes don't HAVE to implement it\n    function autoSubmitProof(address user, address tokenAddrToReceiveVerifierNotice, uint claimId) public {}\n    function autoCheck(address user, address tokenAddrToReceiveVerifierNotice, uint claimId) public {}\n\n}\n",
  "sourcePath": "/home/cantonioupao/susDAO-saveMe/FIN4Contracts/contracts/verifiers/Fin4BaseVerifierType.sol",
  "compiler": {
    "name": "solc",
    "version": "0.5.17+commit.d19bba13.Emscripten.clang"
  },
  "schemaVersion": "3.3.1",
  "updatedAt": "2020-12-03T18:31:10.039Z",
  "devdoc": {
    "methods": {}
  },
  "userdoc": {
    "methods": {}
  }
}