{
  "contractName": "Fin4Messaging",
  "abi": [
    {
      "anonymous": false,
      "inputs": [
        {
          "indexed": false,
          "internalType": "address",
          "name": "receiver",
          "type": "address"
        },
        {
          "indexed": false,
          "internalType": "uint256",
          "name": "messageId",
          "type": "uint256"
        }
      ],
      "name": "MessageMarkedAsRead",
      "type": "event"
    },
    {
      "anonymous": false,
      "inputs": [
        {
          "indexed": false,
          "internalType": "address",
          "name": "receiver",
          "type": "address"
        },
        {
          "indexed": false,
          "internalType": "uint256",
          "name": "messageId",
          "type": "uint256"
        }
      ],
      "name": "NewMessage",
      "type": "event"
    },
    {
      "constant": true,
      "inputs": [
        {
          "internalType": "address",
          "name": "",
          "type": "address"
        },
        {
          "internalType": "uint256",
          "name": "",
          "type": "uint256"
        }
      ],
      "name": "messages",
      "outputs": [
        {
          "internalType": "uint256",
          "name": "messageId",
          "type": "uint256"
        },
        {
          "internalType": "uint256",
          "name": "messageType",
          "type": "uint256"
        },
        {
          "internalType": "address",
          "name": "sender",
          "type": "address"
        },
        {
          "internalType": "string",
          "name": "senderStr",
          "type": "string"
        },
        {
          "internalType": "address",
          "name": "receiver",
          "type": "address"
        },
        {
          "internalType": "string",
          "name": "message",
          "type": "string"
        },
        {
          "internalType": "bool",
          "name": "hasBeenActedUpon",
          "type": "bool"
        },
        {
          "internalType": "string",
          "name": "attachment",
          "type": "string"
        },
        {
          "internalType": "uint256",
          "name": "pendingRequestId",
          "type": "uint256"
        }
      ],
      "payable": false,
      "stateMutability": "view",
      "type": "function"
    },
    {
      "constant": false,
      "inputs": [
        {
          "internalType": "address",
          "name": "receiver",
          "type": "address"
        },
        {
          "internalType": "string",
          "name": "message",
          "type": "string"
        }
      ],
      "name": "addUserMessage",
      "outputs": [
        {
          "internalType": "uint256",
          "name": "",
          "type": "uint256"
        }
      ],
      "payable": false,
      "stateMutability": "nonpayable",
      "type": "function"
    },
    {
      "constant": false,
      "inputs": [
        {
          "internalType": "address",
          "name": "sender",
          "type": "address"
        },
        {
          "internalType": "address",
          "name": "receiver",
          "type": "address"
        },
        {
          "internalType": "string",
          "name": "message",
          "type": "string"
        }
      ],
      "name": "addInfoMessage",
      "outputs": [
        {
          "internalType": "uint256",
          "name": "",
          "type": "uint256"
        }
      ],
      "payable": false,
      "stateMutability": "nonpayable",
      "type": "function"
    },
    {
      "constant": false,
      "inputs": [
        {
          "internalType": "address",
          "name": "sender",
          "type": "address"
        },
        {
          "internalType": "string",
          "name": "senderStr",
          "type": "string"
        },
        {
          "internalType": "address",
          "name": "receiver",
          "type": "address"
        },
        {
          "internalType": "string",
          "name": "message",
          "type": "string"
        },
        {
          "internalType": "string",
          "name": "attachment",
          "type": "string"
        },
        {
          "internalType": "uint256",
          "name": "pendingRequestId",
          "type": "uint256"
        }
      ],
      "name": "addPendingRequestMessage",
      "outputs": [
        {
          "internalType": "uint256",
          "name": "",
          "type": "uint256"
        }
      ],
      "payable": false,
      "stateMutability": "nonpayable",
      "type": "function"
    },
    {
      "constant": true,
      "inputs": [],
      "name": "getMyMessagesCount",
      "outputs": [
        {
          "internalType": "uint256",
          "name": "",
          "type": "uint256"
        }
      ],
      "payable": false,
      "stateMutability": "view",
      "type": "function"
    },
    {
      "constant": true,
      "inputs": [
        {
          "internalType": "uint256",
          "name": "index",
          "type": "uint256"
        }
      ],
      "name": "getMyMessage",
      "outputs": [
        {
          "internalType": "uint256",
          "name": "",
          "type": "uint256"
        },
        {
          "internalType": "uint256",
          "name": "",
          "type": "uint256"
        },
        {
          "internalType": "address",
          "name": "",
          "type": "address"
        },
        {
          "internalType": "string",
          "name": "",
          "type": "string"
        },
        {
          "internalType": "string",
          "name": "",
          "type": "string"
        },
        {
          "internalType": "bool",
          "name": "",
          "type": "bool"
        },
        {
          "internalType": "string",
          "name": "",
          "type": "string"
        },
        {
          "internalType": "uint256",
          "name": "",
          "type": "uint256"
        }
      ],
      "payable": false,
      "stateMutability": "view",
      "type": "function"
    },
    {
      "constant": false,
      "inputs": [
        {
          "internalType": "address",
          "name": "receiver",
          "type": "address"
        },
        {
          "internalType": "uint256",
          "name": "messageId",
          "type": "uint256"
        }
      ],
      "name": "markMessageAsActedUpon",
      "outputs": [],
      "payable": false,
      "stateMutability": "nonpayable",
      "type": "function"
    }
  ],
  "bytecode": "0x608060405234801561001057600080fd5b506110c7806100206000396000f3fe608060405234801561001057600080fd5b506004361061007d5760003560e01c80639acd8d491161005b5780639acd8d4914610319578063a12e93dd146103cd578063a3d5c43d1461059e578063c45d9bea146105a65761007d565b806351978edc146100825780635ae7f9701461021c57806392825c79146102eb575b600080fd5b61009f6004803603602081101561009857600080fd5b5035610768565b60405180898152602001888152602001876001600160a01b03166001600160a01b0316815260200180602001806020018615151515815260200180602001858152602001848103845289818151815260200191508051906020019080838360005b83811015610118578181015183820152602001610100565b50505050905090810190601f1680156101455780820380516001836020036101000a031916815260200191505b5084810383528851815288516020918201918a019080838360005b83811015610178578181015183820152602001610160565b50505050905090810190601f1680156101a55780820380516001836020036101000a031916815260200191505b50848103825286518152865160209182019188019080838360005b838110156101d85781810151838201526020016101c0565b50505050905090810190601f1680156102055780820380516001836020036101000a031916815260200191505b509b50505050505050505050505060405180910390f35b6102d96004803603606081101561023257600080fd5b6001600160a01b038235811692602081013590911691810190606081016040820135600160201b81111561026557600080fd5b82018360208201111561027757600080fd5b803590602001918460018302840111600160201b8311171561029857600080fd5b91908080601f016020809104026020016040519081016040528093929190818152602001838380828437600092019190915250929550610a0c945050505050565b60408051918252519081900360200190f35b6103176004803603604081101561030157600080fd5b506001600160a01b038135169060200135610a6a565b005b6102d96004803603604081101561032f57600080fd5b6001600160a01b038235169190810190604081016020820135600160201b81111561035957600080fd5b82018360208201111561036b57600080fd5b803590602001918460018302840111600160201b8311171561038c57600080fd5b91908080601f016020809104026020016040519081016040528093929190818152602001838380828437600092019190915250929550610afd945050505050565b6102d9600480360360c08110156103e357600080fd5b6001600160a01b038235169190810190604081016020820135600160201b81111561040d57600080fd5b82018360208201111561041f57600080fd5b803590602001918460018302840111600160201b8311171561044057600080fd5b91908080601f01602080910402602001604051908101604052809392919081815260200183838082843760009201919091525092956001600160a01b03853516959094909350604081019250602001359050600160201b8111156104a357600080fd5b8201836020820111156104b557600080fd5b803590602001918460018302840111600160201b831117156104d657600080fd5b91908080601f0160208091040260200160405190810160405280939291908181526020018383808284376000920191909152509295949360208101935035915050600160201b81111561052857600080fd5b82018360208201111561053a57600080fd5b803590602001918460018302840111600160201b8311171561055b57600080fd5b91908080601f0160208091040260200160405190810160405280939291908181526020018383808284376000920191909152509295505091359250610b5b915050565b6102d9610c36565b6105d2600480360360408110156105bc57600080fd5b506001600160a01b038135169060200135610c4a565b604051808a8152602001898152602001886001600160a01b03166001600160a01b0316815260200180602001876001600160a01b03166001600160a01b0316815260200180602001861515151581526020018060200185815260200184810384528a818151815260200191508051906020019080838360005b8381101561066357818101518382015260200161064b565b50505050905090810190601f1680156106905780820380516001836020036101000a031916815260200191505b5084810383528851815288516020918201918a019080838360005b838110156106c35781810151838201526020016106ab565b50505050905090810190601f1680156106f05780820380516001836020036101000a031916815260200191505b50848103825286518152865160209182019188019080838360005b8381101561072357818101518382015260200161070b565b50505050905090810190601f1680156107505780820380516001836020036101000a031916815260200191505b509c5050505050505050505050505060405180910390f35b600080600060608060006060600061077e610f9a565b33600090815260208190526040902080548b90811061079957fe5b6000918252602091829020604080516101208101825260099390930290910180548352600180820154848601526002808301546001600160a01b03168585015260038301805485516101009482161594909402600019011691909104601f810187900487028301870190945283825293949193606086019391929091908301828280156108675780601f1061083c57610100808354040283529160200191610867565b820191906000526020600020905b81548152906001019060200180831161084a57829003601f168201915b505050918352505060048201546001600160a01b031660208083019190915260058301805460408051601f6002600019600186161561010002019094169390930492830185900485028101850182528281529401939283018282801561090e5780601f106108e35761010080835404028352916020019161090e565b820191906000526020600020905b8154815290600101906020018083116108f157829003601f168201915b5050509183525050600682015460ff16151560208083019190915260078301805460408051601f600260001960018616156101000201909416939093049283018590048502810185018252828152940193928301828280156109b15780601f10610986576101008083540402835291602001916109b1565b820191906000526020600020905b81548152906001019060200180831161099457829003601f168201915b5050509183525050600891909101546020918201528151908201516040830151606084015160a085015160c086015160e087015161010090970151959f50939d50919b50995097509550909350915050919395975091939597565b600080610a1b81868686610e68565b604080516001600160a01b03871681526020810183905281519293507f0951e0ca7381a5c665ef8d64c982968ea7b66aaf3d6c667a004bc9926d2959b0929081900390910190a1949350505050565b6001600160a01b038216600090815260208190526040902080546001919083908110610a9257fe5b600091825260209182902060099190910201600601805460ff191692151592909217909155604080516001600160a01b038516815291820183905280517f5d7d54ba0991dcbe0f55e651e87fa4e0b84b27c6ca2483c5875021af6a53a33f9281900390910190a15050565b600080610b0d6002338686610e68565b604080516001600160a01b03871681526020810183905281519293507f0951e0ca7381a5c665ef8d64c982968ea7b66aaf3d6c667a004bc9926d2959b0929081900390910190a15092915050565b600080610b6b6001898888610e68565b6001600160a01b03871660009081526020819052604081208054929350909183908110610b9457fe5b9060005260206000209060090201905087816003019080519060200190610bbc929190610ffa565b5060068101805460ff191690558451610bde9060078301906020880190610ffa565b5060088101849055604080516001600160a01b03891681526020810184905281517f0951e0ca7381a5c665ef8d64c982968ea7b66aaf3d6c667a004bc9926d2959b0929181900390910190a150979650505050505050565b336000908152602081905260409020545b90565b60006020528160005260406000208181548110610c6357fe5b60009182526020918290206009919091020180546001808301546002808501546003860180546040805161010097831615979097026000190190911693909304601f81018990048902860189019093528285529498509196506001600160a01b0390911694919291830182828015610d1c5780601f10610cf157610100808354040283529160200191610d1c565b820191906000526020600020905b815481529060010190602001808311610cff57829003601f168201915b50505050600483015460058401805460408051602060026101006001861615026000190190941693909304601f810184900484028201840190925281815295966001600160a01b039094169593945090830182828015610dbd5780601f10610d9257610100808354040283529160200191610dbd565b820191906000526020600020905b815481529060010190602001808311610da057829003601f168201915b50505050600683015460078401805460408051602060026101006001861615026000190190941693909304601f8101849004840282018401909252818152959660ff9094169593945090830182828015610e585780601f10610e2d57610100808354040283529160200191610e58565b820191906000526020600020905b815481529060010190602001808311610e3b57829003601f168201915b5050505050908060080154905089565b6000610e72610f9a565b60208181018781526001600160a01b0387811660408086019182528883166080870181905260a0870189905260009081528086529081208054808852828752600180820180845592845292879020885160099092020190815594519185019190915590516002840180546001600160a01b0319169190931617909155606084015180519193859392610f0a9260038501920190610ffa565b5060808201516004820180546001600160a01b0319166001600160a01b0390921691909117905560a08201518051610f4c916005840191602090910190610ffa565b5060c082015160068201805460ff191691151591909117905560e08201518051610f80916007840191602090910190610ffa565b506101009190910151600890910155505195945050505050565b604051806101200160405280600081526020016000815260200160006001600160a01b031681526020016060815260200160006001600160a01b031681526020016060815260200160001515815260200160608152602001600081525090565b828054600181600116156101000203166002900490600052602060002090601f016020900481019282601f1061103b57805160ff1916838001178555611068565b82800160010185558215611068579182015b8281111561106857825182559160200191906001019061104d565b50611074929150611078565b5090565b610c4791905b80821115611074576000815560010161107e56fea265627a7a723158209ff213d71ae7d6f3e99aa132b4a5e4803a9c26ea2a243d2ac24916619b616ea464736f6c63430005110032",
  "source": "pragma solidity ^0.5.17;\n\ncontract Fin4Messaging {\n\n    event NewMessage(address receiver, uint messageId);\n    event MessageMarkedAsRead(address receiver, uint messageId);\n\n    enum MessageType { INFO, APPROVAL, USER2USER } // diferent types of message types, determine how they get rendered in the front end\n\n    struct Message {\n        uint messageId;\n        uint messageType; // is an Enum in Fin4BaseVerifierType\n        address sender;\n        string senderStr;\n        address receiver;\n        string message;\n        bool hasBeenActedUpon;\n        string attachment;\n        uint pendingRequestId;\n    }\n\n    mapping (address => Message[]) public messages;\n\n    function addMessage(uint messageType, address sender, address receiver, string memory message)\n        private returns (uint) {\n        Message memory m;\n        m.messageType = messageType;\n        m.sender = sender;\n        m.receiver = receiver;\n        m.message = message;\n        m.messageId = messages[receiver].length;\n        messages[receiver].push(m);\n        return m.messageId;\n    }\n\n    function addUserMessage(address receiver, string memory message) public returns(uint) {\n        uint messageId = addMessage(uint(MessageType.USER2USER), msg.sender, receiver, message);\n        emit NewMessage(receiver, messageId);\n    }\n\n    function addInfoMessage(address sender, address receiver, string memory message) public returns(uint) {\n        uint messageId = addMessage(uint(MessageType.INFO), sender, receiver, message);\n        emit NewMessage(receiver, messageId);\n        return messageId;\n    }\n\n    function addPendingRequestMessage(address sender, string memory senderStr, address receiver, string memory message,\n        string memory attachment, uint pendingRequestId) public returns(uint) {\n        uint messageId = addMessage(uint(MessageType.APPROVAL), sender, receiver, message);\n        Message storage m = messages[receiver][messageId];\n        m.senderStr = senderStr;\n        m.hasBeenActedUpon = false;\n        m.attachment = attachment;\n        m.pendingRequestId = pendingRequestId;\n        emit NewMessage(receiver, messageId);\n        return messageId;\n    }\n\n    function getMyMessagesCount() public view returns(uint) {\n        return messages[msg.sender].length;\n    }\n\n    // have to get messages one by one because returning string arrays is not possible\n    function getMyMessage(uint index) public view returns(uint, uint, address, string memory, string memory, bool, string memory, uint) {\n        Message memory m = messages[msg.sender][index];\n        return (m.messageId, m.messageType, m.sender, m.senderStr, m.message, m.hasBeenActedUpon, m.attachment, m.pendingRequestId);\n    }\n\n    // after a picture is approved for instance, the message doesn't need to be shown to the approver anymore\n    function markMessageAsActedUpon(address receiver, uint messageId) public {\n        messages[receiver][messageId].hasBeenActedUpon = true;\n        emit MessageMarkedAsRead(receiver, messageId);\n    }\n\n}\n",
  "sourcePath": "/home/cantonioupao/susDAO-saveMe/FIN4Contracts/contracts/Fin4Messaging.sol",
  "compiler": {
    "name": "solc",
    "version": "0.5.17+commit.d19bba13.Emscripten.clang"
  },
  "schemaVersion": "3.3.1",
  "updatedAt": "2020-12-03T18:31:09.681Z",
  "devdoc": {
    "methods": {}
  },
  "userdoc": {
    "methods": {}
  }
}