{
  "contractName": "Fin4SystemParameters",
  "abi": [
    {
      "constant": true,
      "inputs": [],
      "name": "REPforFailedVote",
      "outputs": [
        {
          "internalType": "uint256",
          "name": "",
          "type": "uint256"
        }
      ],
      "payable": false,
      "stateMutability": "view",
      "type": "function"
    },
    {
      "constant": true,
      "inputs": [],
      "name": "REPforSuccesfulVote",
      "outputs": [
        {
          "internalType": "uint256",
          "name": "",
          "type": "uint256"
        }
      ],
      "payable": false,
      "stateMutability": "view",
      "type": "function"
    },
    {
      "constant": true,
      "inputs": [],
      "name": "REPforTokenClaim",
      "outputs": [
        {
          "internalType": "uint256",
          "name": "",
          "type": "uint256"
        }
      ],
      "payable": false,
      "stateMutability": "view",
      "type": "function"
    },
    {
      "constant": true,
      "inputs": [],
      "name": "REPforTokenCreation",
      "outputs": [
        {
          "internalType": "uint256",
          "name": "",
          "type": "uint256"
        }
      ],
      "payable": false,
      "stateMutability": "view",
      "type": "function"
    },
    {
      "constant": true,
      "inputs": [],
      "name": "getSystemParameters",
      "outputs": [
        {
          "internalType": "uint256",
          "name": "",
          "type": "uint256"
        },
        {
          "internalType": "uint256",
          "name": "",
          "type": "uint256"
        },
        {
          "internalType": "uint256",
          "name": "",
          "type": "uint256"
        },
        {
          "internalType": "uint256",
          "name": "",
          "type": "uint256"
        }
      ],
      "payable": false,
      "stateMutability": "view",
      "type": "function"
    }
  ],
  "bytecode": "0x608060405261012c60005560326001556064600255606460035534801561002557600080fd5b5061010a806100356000396000f3fe6080604052348015600f57600080fd5b506004361060505760003560e01c80630654800614605557806348cd5b8714606d57806368a19d1d14607357806379e569d014609f578063a93eb36d1460a5575b600080fd5b605b60ab565b60408051918252519081900360200190f35b605b60b1565b607960b7565b604080519485526020850193909352838301919091526060830152519081900360800190f35b605b60c9565b605b60cf565b60025481565b60035481565b60005460015460025460035490919293565b60015481565b6000548156fea265627a7a723158208dc0fc19978c1ffcaa6a96c624f2127607f3d863eb4900b140b9964c9304b42864736f6c63430005110032",
  "source": "pragma solidity ^0.5.17;\n\ncontract Fin4SystemParameters {\n\n    uint public REPforTokenCreation = 300;\n    uint public REPforTokenClaim = 50;\n    uint public REPforSuccesfulVote = 100;\n    uint public REPforFailedVote = 100;\n\n    function getSystemParameters() public view returns(uint, uint, uint, uint) {\n        return (REPforTokenCreation, REPforTokenClaim, REPforSuccesfulVote, REPforFailedVote);\n    }\n\n}\n",
  "sourcePath": "/home/cantonioupao/susDAO-saveMe/FIN4Contracts/contracts/Fin4SystemParameters.sol",
  "compiler": {
    "name": "solc",
    "version": "0.5.17+commit.d19bba13.Emscripten.clang"
  },
  "schemaVersion": "3.3.1",
  "updatedAt": "2020-12-03T18:31:09.687Z",
  "devdoc": {
    "methods": {}
  },
  "userdoc": {
    "methods": {}
  }
}