{
  "contractName": "Fin4CappedTokenCreator",
  "abi": [
    {
      "inputs": [
        {
          "internalType": "address",
          "name": "Fin4ClaimingAddr",
          "type": "address"
        },
        {
          "internalType": "address",
          "name": "Fin4TokenManagementAddr",
          "type": "address"
        },
        {
          "internalType": "address",
          "name": "Fin4UnderlyingsAddr",
          "type": "address"
        }
      ],
      "payable": false,
      "stateMutability": "nonpayable",
      "type": "constructor"
    },
    {
      "anonymous": false,
      "inputs": [
        {
          "indexed": false,
          "internalType": "address",
          "name": "tokenAddress",
          "type": "address"
        }
      ],
      "name": "NewFin4TokenAddress",
      "type": "event"
    },
    {
      "constant": true,
      "inputs": [],
      "name": "Fin4ClaimingAddress",
      "outputs": [
        {
          "internalType": "address",
          "name": "",
          "type": "address"
        }
      ],
      "payable": false,
      "stateMutability": "view",
      "type": "function"
    },
    {
      "constant": true,
      "inputs": [],
      "name": "Fin4TokenManagementAddress",
      "outputs": [
        {
          "internalType": "address",
          "name": "",
          "type": "address"
        }
      ],
      "payable": false,
      "stateMutability": "view",
      "type": "function"
    },
    {
      "constant": true,
      "inputs": [],
      "name": "Fin4UnderlyingsAddress",
      "outputs": [
        {
          "internalType": "address",
          "name": "",
          "type": "address"
        }
      ],
      "payable": false,
      "stateMutability": "view",
      "type": "function"
    },
    {
      "constant": true,
      "inputs": [
        {
          "internalType": "string",
          "name": "name",
          "type": "string"
        }
      ],
      "name": "nameCheck",
      "outputs": [
        {
          "internalType": "string",
          "name": "",
          "type": "string"
        }
      ],
      "payable": false,
      "stateMutability": "pure",
      "type": "function"
    },
    {
      "constant": false,
      "inputs": [
        {
          "internalType": "address",
          "name": "tokenAddress",
          "type": "address"
        },
        {
          "internalType": "address[]",
          "name": "requiredVerifierTypes",
          "type": "address[]"
        },
        {
          "internalType": "address[]",
          "name": "minterRoles",
          "type": "address[]"
        },
        {
          "internalType": "string",
          "name": "description",
          "type": "string"
        },
        {
          "internalType": "string",
          "name": "actionsText",
          "type": "string"
        },
        {
          "internalType": "uint256",
          "name": "fixedAmount",
          "type": "uint256"
        },
        {
          "internalType": "string",
          "name": "unit",
          "type": "string"
        },
        {
          "internalType": "bytes32[]",
          "name": "underlyingNames",
          "type": "bytes32[]"
        }
      ],
      "name": "postCreationSteps",
      "outputs": [],
      "payable": false,
      "stateMutability": "nonpayable",
      "type": "function"
    },
    {
      "constant": true,
      "inputs": [
        {
          "internalType": "string",
          "name": "symbol",
          "type": "string"
        }
      ],
      "name": "symbolCheck",
      "outputs": [
        {
          "internalType": "string",
          "name": "",
          "type": "string"
        }
      ],
      "payable": false,
      "stateMutability": "view",
      "type": "function"
    },
    {
      "constant": true,
      "inputs": [
        {
          "internalType": "string",
          "name": "",
          "type": "string"
        }
      ],
      "name": "symbolIsUsed",
      "outputs": [
        {
          "internalType": "bool",
          "name": "",
          "type": "bool"
        }
      ],
      "payable": false,
      "stateMutability": "view",
      "type": "function"
    },
    {
      "constant": false,
      "inputs": [
        {
          "internalType": "string",
          "name": "name",
          "type": "string"
        },
        {
          "internalType": "string",
          "name": "symbol",
          "type": "string"
        },
        {
          "internalType": "bool[]",
          "name": "properties",
          "type": "bool[]"
        },
        {
          "internalType": "uint256[]",
          "name": "values",
          "type": "uint256[]"
        },
        {
          "internalType": "address",
          "name": "initialSupplyOwner",
          "type": "address"
        }
      ],
      "name": "createNewToken",
      "outputs": [],
      "payable": false,
      "stateMutability": "nonpayable",
      "type": "function"
    }
  ],
  "bytecode": "0x608060405234801561001057600080fd5b506040516160343803806160348339818101604052606081101561003357600080fd5b5080516020820151604090920151600080546001600160a01b039384166001600160a01b0319918216179091556001805494841694821694909417909355600280549290911691909216179055615fa58061008f6000396000f3fe60806040523480156200001157600080fd5b5060043610620000945760003560e01c80637573f28811620000635780637573f28814620005ef578063ab96f8d614620006ad578063c35ce6f014620006b7578063eb922c8614620006c15762000094565b8063280a9de51462000099578063409f952c14620001bb5780634764306f146200026557806374a98b88146200028b575b600080fd5b6200014360048036036020811015620000b157600080fd5b810190602081018135600160201b811115620000cc57600080fd5b820183602082011115620000df57600080fd5b803590602001918460018302840111600160201b831117156200010157600080fd5b91908080601f01602080910402602001604051908101604052809392919081815260200183838082843760009201919091525092955062000908945050505050565b6040805160208082528351818301528351919283929083019185019080838360005b838110156200017f57818101518382015260200162000165565b50505050905090810190601f168015620001ad5780820380516001836020036101000a031916815260200191505b509250505060405180910390f35b6200014360048036036020811015620001d357600080fd5b810190602081018135600160201b811115620001ee57600080fd5b8201836020820111156200020157600080fd5b803590602001918460018302840111600160201b831117156200022357600080fd5b91908080601f0160208091040260200160405190810160405280939291908181526020018383808284376000920191909152509295506200096f945050505050565b6200026f62000aa0565b604080516001600160a01b039092168252519081900360200190f35b620005ed6004803603610100811015620002a457600080fd5b6001600160a01b038235169190810190604081016020820135600160201b811115620002cf57600080fd5b820183602082011115620002e257600080fd5b803590602001918460208302840111600160201b831117156200030457600080fd5b9190808060200260200160405190810160405280939291908181526020018383602002808284376000920191909152509295949360208101935035915050600160201b8111156200035457600080fd5b8201836020820111156200036757600080fd5b803590602001918460208302840111600160201b831117156200038957600080fd5b9190808060200260200160405190810160405280939291908181526020018383602002808284376000920191909152509295949360208101935035915050600160201b811115620003d957600080fd5b820183602082011115620003ec57600080fd5b803590602001918460018302840111600160201b831117156200040e57600080fd5b91908080601f0160208091040260200160405190810160405280939291908181526020018383808284376000920191909152509295949360208101935035915050600160201b8111156200046157600080fd5b8201836020820111156200047457600080fd5b803590602001918460018302840111600160201b831117156200049657600080fd5b91908080601f01602080910402602001604051908101604052809392919081815260200183838082843760009201919091525092958435959094909350604081019250602001359050600160201b811115620004f157600080fd5b8201836020820111156200050457600080fd5b803590602001918460018302840111600160201b831117156200052657600080fd5b91908080601f0160208091040260200160405190810160405280939291908181526020018383808284376000920191909152509295949360208101935035915050600160201b8111156200057957600080fd5b8201836020820111156200058c57600080fd5b803590602001918460208302840111600160201b83111715620005ae57600080fd5b91908080602002602001604051908101604052809392919081815260200183836020028082843760009201919091525092955062000aaf945050505050565b005b62000699600480360360208110156200060757600080fd5b810190602081018135600160201b8111156200062257600080fd5b8201836020820111156200063557600080fd5b803590602001918460018302840111600160201b831117156200065757600080fd5b91908080601f01602080910402602001604051908101604052809392919081815260200183838082843760009201919091525092955062001179945050505050565b604080519115158252519081900360200190f35b6200026f62001199565b6200026f620011a8565b620005ed600480360360a0811015620006d957600080fd5b810190602081018135600160201b811115620006f457600080fd5b8201836020820111156200070757600080fd5b803590602001918460018302840111600160201b831117156200072957600080fd5b91908080601f0160208091040260200160405190810160405280939291908181526020018383808284376000920191909152509295949360208101935035915050600160201b8111156200077c57600080fd5b8201836020820111156200078f57600080fd5b803590602001918460018302840111600160201b83111715620007b157600080fd5b91908080601f0160208091040260200160405190810160405280939291908181526020018383808284376000920191909152509295949360208101935035915050600160201b8111156200080457600080fd5b8201836020820111156200081757600080fd5b803590602001918460208302840111600160201b831117156200083957600080fd5b9190808060200260200160405190810160405280939291908181526020018383602002808284376000920191909152509295949360208101935035915050600160201b8111156200088957600080fd5b8201836020820111156200089c57600080fd5b803590602001918460208302840111600160201b83111715620008be57600080fd5b919080806020026020016040519081016040528093929190818152602001838360200280828437600092019190915250929550505090356001600160a01b03169150620011b79050565b606060006200091783620013f0565b90506000811162000965576040805162461bcd60e51b81526020600482015260136024820152724e616d652063616e277420626520656d70747960681b604482015290519081900360640190fd5b829150505b919050565b606060006200097e83620013f0565b90506003811015801562000993575060058111155b620009d05760405162461bcd60e51b815260040180806020018281038252602b81526020018062005f46602b913960400191505060405180910390fd5b6060620009dd84620013f4565b90506003816040518082805190602001908083835b6020831062000a135780518252601f199092019160209182019101620009f2565b51815160209384036101000a600019018019909216911617905292019485525060405193849003019092205460ff1615915062000a999050576040805162461bcd60e51b815260206004820152601860248201527f53796d626f6c20697320616c726561647920696e207573650000000000000000604482015290519081900360640190fd5b9392505050565b6000546001600160a01b031681565b6000889050806001600160a01b03166379f60f1d89896040518363ffffffff1660e01b8152600401808060200180602001838103835285818151815260200191508051906020019060200280838360005b8381101562000b1a57818101518382015260200162000b00565b50505050905001838103825284818151815260200191508051906020019060200280838360005b8381101562000b5b57818101518382015260200162000b41565b50505050905001945050505050600060405180830381600087803b15801562000b8357600080fd5b505af115801562000b98573d6000803e3d6000fd5b50506002546001600160a01b031615915062000c60905057600254604080516392bd272760e01b81526001600160a01b038c8116600483019081526024830193845286516044840152865191909416936392bd2727938e9388936064909101906020808601910280838360005b8381101562000c1f57818101518382015260200162000c05565b505050509050019350505050600060405180830381600087803b15801562000c4657600080fd5b505af115801562000c5b573d6000803e3d6000fd5b505050505b6000805b885181101562000d3857826001600160a01b031663983b2d568a838151811062000c8a57fe5b60200260200101516040518263ffffffff1660e01b815260040180826001600160a01b03166001600160a01b03168152602001915050600060405180830381600087803b15801562000cdb57600080fd5b505af115801562000cf0573d6000803e3d6000fd5b50506000548b516001600160a01b0390911692508b91508390811062000d1257fe5b60200260200101516001600160a01b0316141562000d2f57600191505b60010162000c64565b50816001600160a01b031663986502756040518163ffffffff1660e01b8152600401600060405180830381600087803b15801562000d7557600080fd5b505af115801562000d8a573d6000803e3d6000fd5b50505050816001600160a01b031663330e17176000809054906101000a90046001600160a01b0316838a8a8a8a6040518763ffffffff1660e01b815260040180876001600160a01b03166001600160a01b0316815260200186151515158152602001806020018060200185815260200180602001848103845288818151815260200191508051906020019080838360005b8381101562000e3557818101518382015260200162000e1b565b50505050905090810190601f16801562000e635780820380516001836020036101000a031916815260200191505b50848103835287518152875160209182019189019080838360005b8381101562000e9857818101518382015260200162000e7e565b50505050905090810190601f16801562000ec65780820380516001836020036101000a031916815260200191505b50848103825285518152855160209182019187019080838360005b8381101562000efb57818101518382015260200162000ee1565b50505050905090810190601f16801562000f295780820380516001836020036101000a031916815260200191505b509950505050505050505050600060405180830381600087803b15801562000f5057600080fd5b505af115801562000f65573d6000803e3d6000fd5b5050505060016003836001600160a01b03166395d89b416040518163ffffffff1660e01b815260040160006040518083038186803b15801562000fa757600080fd5b505afa15801562000fbc573d6000803e3d6000fd5b505050506040513d6000823e601f3d908101601f19168201604052602081101562000fe657600080fd5b8101908080516040519392919084600160201b8211156200100657600080fd5b9083019060208201858111156200101c57600080fd5b8251600160201b8111828201881017156200103657600080fd5b82525081516020918201929091019080838360005b83811015620010655781810151838201526020016200104b565b50505050905090810190601f168015620010935780820380516001836020036101000a031916815260200191505b506040525050506040518082805190602001908083835b60208310620010cb5780518252601f199092019160209182019101620010aa565b51815160209384036101000a600019018019909216911617905292019485525060408051948590039091018420805460ff191695151595909517909455505060015463197cce8160e31b82526001600160a01b038581166004840152925192169163cbe674089160248082019260009290919082900301818387803b1580156200115457600080fd5b505af115801562001169573d6000803e3d6000fd5b5050505050505050505050505050565b805160208183018101805160038252928201919093012091525460ff1681565b6001546001600160a01b031681565b6002546001600160a01b031681565b6000620011c48662000908565b620011cf866200096f565b3386600081518110620011de57fe5b602002602001015187600181518110620011f457fe5b6020026020010151886002815181106200120a57fe5b6020026020010151886000815181106200122057fe5b6020026020010151896001815181106200123657fe5b60200260200101518a6002815181106200124c57fe5b60200260200101518a6040516200126390620014a9565b6001600160a01b03808a1660408301528815156060830152871515608083015286151560a083015260ff861660c083015260e08201859052610100820184905282166101208201526101408082528b51908201528a5181906020808301916101608401918f019080838360005b83811015620012ea578181015183820152602001620012d0565b50505050905090810190601f168015620013185780820380516001836020036101000a031916815260200191505b5083810382528c5181528c516020918201918e019080838360005b838110156200134d57818101518382015260200162001333565b50505050905090810190601f1680156200137b5780820380516001836020036101000a031916815260200191505b509c50505050505050505050505050604051809103906000f080158015620013a7573d6000803e3d6000fd5b50604080516001600160a01b038316815290519192507ff84345438ee5461932b5a3419074a0cb92fc9232ab9091eae49b7367b4d8dcbb919081900360200190a1505050505050565b5190565b60608160005b815181101562001457576200142a8282815181106200141557fe5b01602001516001600160f81b0319166200145e565b8282815181106200143757fe5b60200101906001600160f81b031916908160001a905350600101620013fa565b5092915050565b6000606160f81b6001600160f81b03198316108015906200148d5750603d60f91b6001600160f81b0319831611155b15620014a55760208260f81c0360f81b90506200096a565b5090565b614a8e80620014b88339019056fe60806040526008805461ffff60a01b1916600160a81b1790556000600a556016805460ff60201b19166401000000001790553480156200003e57600080fd5b5060405162004a8e38038062004a8e83398181016040526101408110156200006557600080fd5b81019080805160405193929190846401000000008211156200008657600080fd5b9083019060208201858111156200009c57600080fd5b8251640100000000811182820188101715620000b757600080fd5b82525081516020918201929091019080838360005b83811015620000e6578181015183820152602001620000cc565b50505050905090810190601f168015620001145780820380516001836020036101000a031916815260200191505b50604052602001805160405193929190846401000000008211156200013857600080fd5b9083019060208201858111156200014e57600080fd5b82516401000000008111828201881017156200016957600080fd5b82525081516020918201929091019080838360005b83811015620001985781810151838201526020016200017e565b50505050905090810190601f168015620001c65780820380516001836020036101000a031916815260200191505b506040908152602082810151918301516060840151608085015160a086015160c087015160e088015161010090980151426005558c51979a50949850929691959094929391928b918b9187916000918c9188918d918d918c918b918b918b918b918b918b918a918a918a918a918f918b918b918b916200024d91600d919086019062000995565b5081516200026390600e90602085019062000995565b50600f805460ff191660ff92909216919091179055506200029890506200028962000459565b6001600160e01b036200045e16565b60008111620002ee576040805162461bcd60e51b815260206004820152601560248201527f45524332304361707065643a2063617020697320300000000000000000000000604482015290519081900360640190fd5b60145562000317620003086001600160e01b036200045916565b6001600160e01b03620004b016565b6016805461ffff1916610100871515021762ff0000191662010000861515021763ff0000001916630100000085151502179055836200036357620003636001600160e01b036200050216565b6001600160a01b03861615620003875762000387866001600160e01b036200045e16565b6001600160a01b038116620003b157620003ab33836001600160e01b036200056416565b620003c6565b620003c681836001600160e01b036200056416565b6000601660046101000a81548160ff0219169083151502179055505050505050505050505050505050505050505087600160006101000a8154816001600160a01b0302191690836001600160a01b031602179055508260078190555080600860006101000a8154816001600160a01b0302191690836001600160a01b031602179055505050505050505050505062000a37565b335b90565b620004798160136200060260201b62003a791790919060201c565b6040516001600160a01b038216907f6ae172837ea30b801fbfcdd4108aa1d5bf8ff775444fd70256b44e6bf3dfc3f690600090a250565b620004cb8160156200060260201b62003a791790919060201c565b6040516001600160a01b038216907f6719d08c1888103bea251a4ed56406bd0c3e69723c8a1686e017e7bbe159b6f890600090a250565b601654640100000000900460ff166200054d5760405162461bcd60e51b815260040180806020018281038252602981526020018062004a656029913960400191505060405180910390fd5b620005626200068f60201b620031981760201c565b565b60145462000593826200057f6001600160e01b036200079c16565b620007a260201b620037f01790919060201c565b1115620005e7576040805162461bcd60e51b815260206004820152601960248201527f45524332304361707065643a2063617020657863656564656400000000000000604482015290519081900360640190fd5b620005fe82826200080460201b62003afa1760201c565b5050565b6200061782826001600160e01b036200090916565b156200066a576040805162461bcd60e51b815260206004820152601f60248201527f526f6c65733a206163636f756e7420616c72656164792068617320726f6c6500604482015290519081900360640190fd5b6001600160a01b0316600090815260209190915260409020805460ff19166001179055565b620006b5620006a66001600160e01b036200045916565b6001600160e01b036200097216565b620006f25760405162461bcd60e51b815260040180806020018281038252603081526020018062004a136030913960400191505060405180910390fd5b60165460ff16156200073e576040805162461bcd60e51b815260206004820152601060248201526f14185d5cd8589b194e881c185d5cd95960821b604482015290519081900360640190fd5b6016805460ff191660011790557f62e78cea01bee320cd4e420270b5ea74000d11b0c9f74754ebdbfc544b05a2586200077f6001600160e01b036200045916565b604080516001600160a01b039092168252519081900360200190a1565b60125490565b600082820183811015620007fd576040805162461bcd60e51b815260206004820152601b60248201527f536166654d6174683a206164646974696f6e206f766572666c6f770000000000604482015290519081900360640190fd5b9392505050565b6001600160a01b03821662000860576040805162461bcd60e51b815260206004820152601f60248201527f45524332303a206d696e7420746f20746865207a65726f206164647265737300604482015290519081900360640190fd5b6200087c81601254620007a260201b620037f01790919060201c565b6012556001600160a01b038216600090815260106020908152604090912054620008b1918390620037f0620007a2821b17901c565b6001600160a01b03831660008181526010602090815260408083209490945583518581529351929391927fddf252ad1be2c89b69c2b068fc378daa952ba7f163c4a11628f55a4df523b3ef9281900390910190a35050565b60006001600160a01b038216620009525760405162461bcd60e51b815260040180806020018281038252602281526020018062004a436022913960400191505060405180910390fd5b506001600160a01b03166000908152602091909152604090205460ff1690565b60006200098f8260156200090960201b62002fd71790919060201c565b92915050565b828054600181600116156101000203166002900490600052602060002090601f016020900481019282601f10620009d857805160ff191683800117855562000a08565b8280016001018555821562000a08579182015b8281111562000a08578251825591602001919060010190620009eb565b5062000a1692915062000a1a565b5090565b6200045b91905b8082111562000a16576000815560010162000a21565b613fcc8062000a476000396000f3fe608060405234801561001057600080fd5b50600436106102f15760003560e01c806379cc67901161019d578063a0021cf1116100e9578063cdfc81ad116100a2578063dd62ed3e1161007c578063dd62ed3e146113b6578063edc31cde146113e4578063f49d71cb14611410578063ffd34ad51461142d576102f1565b8063cdfc81ad146111ea578063d982579314611373578063db84fdcd14611399576102f1565b8063a0021cf114610fcb578063a457c2d714610fd3578063a888c2cd14610fff578063a9059cbb146110df578063aa271e1a1461110b578063bdc656e914611131576102f1565b8063883356d91161015657806395d89b411161013057806395d89b4114610f71578063983b2d5614610f795780639865027514610f9f5780639c67901714610fa7576102f1565b8063883356d914610f095780638a997a6214610f11578063907af6c014610f69576102f1565b806379cc679014610cad57806379f60f1d14610cd95780637c41e5d814610dfc57806382dc1ec414610eb55780638364c00614610edb5780638456cb5914610f01576102f1565b806340c10f191161025c5780635aef2447116102155780636f381200116101ef5780636f38120014610c4b57806370a0823114610c775780637284e41614610c9d57806377160e8f14610ca5576102f1565b80635aef244714610a975780635c975abb14610c3b5780636ef8d66d14610c43576102f1565b806340c10f191461094a57806342966c681461097657806346b45af71461099357806346fbf68e1461099b578063592b165e146109c157806359af6152146109de576102f1565b8063313ce567116102ae578063313ce567146105ff578063330e17171461061d57806334dc3c66146107ec578063355274ea1461090e57806339509351146109165780633f4ba83a14610942576102f1565b806306fdde03146102f6578063095ea7b31461037357806318160ddd146103b35780631f69565f146103cd5780632121dc75146105c157806323b872dd146105c9575b600080fd5b6102fe611435565b6040805160208082528351818301528351919283929083019185019080838360005b83811015610338578181015183820152602001610320565b50505050905090810190601f1680156103655780820380516001836020036101000a031916815260200191505b509250505060405180910390f35b61039f6004803603604081101561038957600080fd5b506001600160a01b0381351690602001356114cc565b604080519115158252519081900360200190f35b6103bb61152b565b60408051918252519081900360200190f35b6103f3600480360360208110156103e357600080fd5b50356001600160a01b0316611531565b6040518089151515158152602001806020018060200180602001806020018881526020018781526020018615151515815260200185810385528c818151815260200191508051906020019080838360005b8381101561045c578181015183820152602001610444565b50505050905090810190601f1680156104895780820380516001836020036101000a031916815260200191505b5085810384528b5181528b516020918201918d019080838360005b838110156104bc5781810151838201526020016104a4565b50505050905090810190601f1680156104e95780820380516001836020036101000a031916815260200191505b5085810383528a5181528a516020918201918c019080838360005b8381101561051c578181015183820152602001610504565b50505050905090810190601f1680156105495780820380516001836020036101000a031916815260200191505b5085810382528951815289516020918201918b019080838360005b8381101561057c578181015183820152602001610564565b50505050905090810190601f1680156105a95780820380516001836020036101000a031916815260200191505b509c5050505050505050505050505060405180910390f35b61039f6116c4565b61039f600480360360608110156105df57600080fd5b506001600160a01b038135811691602081013590911690604001356116d3565b610607611734565b6040805160ff9092168252519081900360200190f35b6107ea600480360360c081101561063357600080fd5b6001600160a01b03823516916020810135151591810190606081016040820135600160201b81111561066457600080fd5b82018360208201111561067657600080fd5b803590602001918460018302840111600160201b8311171561069757600080fd5b91908080601f0160208091040260200160405190810160405280939291908181526020018383808284376000920191909152509295949360208101935035915050600160201b8111156106e957600080fd5b8201836020820111156106fb57600080fd5b803590602001918460018302840111600160201b8311171561071c57600080fd5b91908080601f01602080910402602001604051908101604052809392919081815260200183838082843760009201919091525092958435959094909350604081019250602001359050600160201b81111561077657600080fd5b82018360208201111561078857600080fd5b803590602001918460018302840111600160201b831117156107a957600080fd5b91908080601f01602080910402602001604051908101604052809392919081815260200183838082843760009201919091525092955061173d945050505050565b005b6108a56004803603606081101561080257600080fd5b6001600160a01b0382351691602081013591810190606081016040820135600160201b81111561083157600080fd5b82018360208201111561084357600080fd5b803590602001918460018302840111600160201b8311171561086457600080fd5b91908080601f01602080910402602001604051908101604052809392919081815260200183838082843760009201919091525092955061182a945050505050565b6040518085815260200180602001848152602001838152602001828103825285818151815260200191508051906020019060200280838360005b838110156108f75781810151838201526020016108df565b505050509050019550505050505060405180910390f35b6103bb611a93565b61039f6004803603604081101561092c57600080fd5b506001600160a01b038135169060200135611a99565b6107ea611af1565b61039f6004803603604081101561096057600080fd5b506001600160a01b038135169060200135611b3b565b6107ea6004803603602081101561098c57600080fd5b5035611b9a565b61039f611bf6565b61039f600480360360208110156109b157600080fd5b50356001600160a01b0316611c06565b61039f600480360360208110156109d757600080fd5b5035611c21565b6107ea600480360360608110156109f457600080fd5b6001600160a01b0382351691602081013591810190606081016040820135600160201b811115610a2357600080fd5b820183602082011115610a3557600080fd5b803590602001918460018302840111600160201b83111715610a5657600080fd5b91908080601f016020809104026020016040519081016040528093929190818152602001838380828437600092019190915250929550611c39945050505050565b610ab460048036036020811015610aad57600080fd5b5035611d8c565b604051808b6001600160a01b03166001600160a01b031681526020018a1515151581526020018915151515815260200188815260200187815260200186815260200180602001806020018060200180602001858103855289818151815260200191508051906020019080838360005b83811015610b3b578181015183820152602001610b23565b50505050905090810190601f168015610b685780820380516001836020036101000a031916815260200191505b508581038452885181528851602091820191808b01910280838360005b83811015610b9d578181015183820152602001610b85565b50505050905001858103835287818151815260200191508051906020019060200280838360005b83811015610bdc578181015183820152602001610bc4565b50505050905001858103825286818151815260200191508051906020019060200280838360005b83811015610c1b578181015183820152602001610c03565b505050509050019e50505050505050505050505050505060405180910390f35b61039f612038565b6107ea612041565b6103bb60048036036040811015610c6157600080fd5b506001600160a01b038135169060200135612051565b6103bb60048036036020811015610c8d57600080fd5b50356001600160a01b0316612085565b6102fe6120a0565b6103bb61212b565b6107ea60048036036040811015610cc357600080fd5b506001600160a01b038135169060200135612131565b6107ea60048036036040811015610cef57600080fd5b810190602081018135600160201b811115610d0957600080fd5b820183602082011115610d1b57600080fd5b803590602001918460208302840111600160201b83111715610d3c57600080fd5b9190808060200260200160405190810160405280939291908181526020018383602002808284376000920191909152509295949360208101935035915050600160201b811115610d8b57600080fd5b820183602082011115610d9d57600080fd5b803590602001918460208302840111600160201b83111715610dbe57600080fd5b91908080602002602001604051908101604052809392919081815260200183836020028082843760009201919091525092955061218f945050505050565b6107ea60048036036060811015610e1257600080fd5b6001600160a01b0382351691602081013591810190606081016040820135600160201b811115610e4157600080fd5b820183602082011115610e5357600080fd5b803590602001918460018302840111600160201b83111715610e7457600080fd5b91908080601f0160208091040260200160405190810160405280939291908181526020018383808284376000920191909152509295506121bb945050505050565b6107ea60048036036020811015610ecb57600080fd5b50356001600160a01b0316612310565b6103bb60048036036020811015610ef157600080fd5b50356001600160a01b0316612364565b6107ea6123d7565b61039f612427565b610f19612435565b60408051602080825283518183015283519192839290830191858101910280838360005b83811015610f55578181015183820152602001610f3d565b505050509050019250505060405180910390f35b6102fe612496565b6102fe6124f1565b6107ea60048036036020811015610f8f57600080fd5b50356001600160a01b0316612552565b6107ea6125a6565b610faf6125b6565b604080516001600160a01b039092168252519081900360200190f35b6103bb6125c5565b61039f60048036036040811015610fe957600080fd5b506001600160a01b0381351690602001356125cb565b61101c6004803603602081101561101557600080fd5b5035612623565b60405180898152602001886001600160a01b03166001600160a01b03168152602001871515151581526020018681526020018060200185815260200184815260200183151515158152602001828103825286818151815260200191508051906020019080838360005b8381101561109d578181015183820152602001611085565b50505050905090810190601f1680156110ca5780820380516001836020036101000a031916815260200191505b50995050505050505050505060405180910390f35b61039f600480360360408110156110f557600080fd5b506001600160a01b0381351690602001356126ff565b61039f6004803603602081101561112157600080fd5b50356001600160a01b0316612757565b6107ea6004803603606081101561114757600080fd5b6001600160a01b0382351691602081013591810190606081016040820135600160201b81111561117657600080fd5b82018360208201111561118857600080fd5b803590602001918460018302840111600160201b831117156111a957600080fd5b91908080601f01602080910402602001604051908101604052809392919081815260200183838082843760009201919091525092955061276a945050505050565b6111f26128cd565b60405180806020018a81526020018981526020018881526020018781526020018060200180602001806020018060200186810386528f818151815260200191508051906020019060200280838360005b8381101561125a578181015183820152602001611242565b5050505090500186810385528a818151815260200191508051906020019060200280838360005b83811015611299578181015183820152602001611281565b50505050905001868103845289818151815260200191508051906020019060200280838360005b838110156112d85781810151838201526020016112c0565b50505050905001868103835288818151815260200191508051906020019080838360005b838110156113145781810151838201526020016112fc565b50505050905090810190601f1680156113415780820380516001836020036101000a031916815260200191505b508681038252875181528751602091820191808a01910280838360008315610c1b578181015183820152602001610c03565b610f196004803603602081101561138957600080fd5b50356001600160a01b0316612b81565b610faf600480360360208110156113af57600080fd5b5035612c59565b6103bb600480360360408110156113cc57600080fd5b506001600160a01b0381358116916020013516612c80565b6102fe600480360360408110156113fa57600080fd5b50803590602001356001600160a01b0316612cab565b610faf6004803603602081101561142657600080fd5b5035612d68565b6103bb612d75565b600d8054604080516020601f60026000196101006001881615020190951694909404938401819004810282018101909252828152606093909290918301828280156114c15780601f10611496576101008083540402835291602001916114c1565b820191906000526020600020905b8154815290600101906020018083116114a457829003601f168201915b505050505090505b90565b60165460009060ff161561151a576040805162461bcd60e51b815260206004820152601060248201526f14185d5cd8589b194e881c185d5cd95960821b604482015290519081900360640190fd5b6115248383612d7b565b9392505050565b60125490565b60006060806060806000806000600160009054906101000a90046001600160a01b03166001600160a01b0316896001600160a01b031614611570611435565b6115786124f1565b6002600461158461152b565b6005546006548454604080516020601f60026000196101006001881615020190951694909404938401819004810282018101909252828152921515929187918301828280156116145780601f106115e957610100808354040283529160200191611614565b820191906000526020600020905b8154815290600101906020018083116115f757829003601f168201915b5050875460408051602060026001851615610100026000190190941693909304601f8101849004840282018401909252818152959a50899450925084019050828280156116a25780601f10611677576101008083540402835291602001916116a2565b820191906000526020600020905b81548152906001019060200180831161168557829003601f168201915b5050505050935097509750975097509750975097509750919395975091939597565b60165462010000900460ff1681565b60165460009060ff1615611721576040805162461bcd60e51b815260206004820152601060248201526f14185d5cd8589b194e881c185d5cd95960821b604482015290519081900360640190fd5b61172c848484612d98565b949350505050565b600f5460ff1690565b600854600160a01b900460ff161561179c576040805162461bcd60e51b815260206004820152601e60248201527f696e697428292063616e206f6e6c792062652063616c6c6564206f6e63650000604482015290519081900360640190fd5b600080546001600160a01b0319166001600160a01b0388161790556008805460ff60a81b1916600160a81b8715150217905583516117e1906002906020870190613c2e565b5082516117f5906003906020860190613c2e565b506006829055805161180e906004906020840190613c2e565b50506008805460ff60a01b1916600160a01b1790555050505050565b60006060600080600860149054906101000a900460ff16611892576040805162461bcd60e51b815260206004820152601860248201527f546f6b656e206973206e6f7420696e697469616c697a65640000000000000000604482015290519081900360640190fd5b600a80546000908152600b6020526040902042600680830191909155915481556001810180546001600160a01b0319166001600160a01b038b1617905590546118e157600281018790556118ea565b60065460028201555b85516118ff9060038301906020890190613c2e565b50611908612435565b805161191e916004840191602090910190613cac565b5060005b60048201548110156119dc57611936613d0d565b6040805180820190915280600081526020016040518060200160405280600081525081525090508083600501600085600401858154811061197357fe5b60009182526020808320909101546001600160a01b03168352820192909252604001902081518154829060ff191660018360038111156119af57fe5b021790555060208281015180516119cc9260018501920190613c2e565b5050600190920191506119229050565b5060018101805460ff60a01b1916905560088101805460ff191690556004810154611a0c57611a0c600a54612e25565b600a805460018101909155600682015460028301546004840180546040805160208084028201810190925282815292949392918591830182828015611a7a57602002820191906000526020600020905b81546001600160a01b03168152600190910190602001808311611a5c575b5050505050925094509450945094505093509350935093565b60145490565b60165460009060ff1615611ae7576040805162461bcd60e51b815260206004820152601060248201526f14185d5cd8589b194e881c185d5cd95960821b604482015290519081900360640190fd5b6115248383612f20565b601654600160201b900460ff16611b395760405162461bcd60e51b8152600401808060200182810382526029815260200180613f4a6029913960400191505060405180910390fd5b565b6016546000906301000000900460ff16611b90576040805162461bcd60e51b8152602060048201526011602482015270436f696e206e6f74206d696e7461626c6560781b604482015290519081900360640190fd5b6115248383612f74565b601654610100900460ff16611bea576040805162461bcd60e51b8152602060048201526011602482015270436f696e206e6f74206275726e61626c6560781b604482015290519081900360640190fd5b611bf381612fc6565b50565b6016546301000000900460ff1681565b6000611c1960158363ffffffff612fd716565b90505b919050565b6000908152600b602052604090206008015460ff1690565b6000828152600b602090815260408083206001600160a01b03871684526005018252909120805460ff1916600190811782558351611c7f93919092019190840190613c2e565b5060008054838252600b6020908152604080842060010154905163d5e3f19160e01b815230600482018181526001600160a01b038a81166024850152604484018a90529384166064840181905260a060848501908152895160a48601528951959097169763d5e3f1919793968c968c9693958c9594909360c490910192860191908190849084905b83811015611d1f578181015183820152602001611d07565b50505050905090810190601f168015611d4c5780820380516001836020036101000a031916815260200191505b509650505050505050600060405180830381600087803b158015611d6f57600080fd5b505af1158015611d83573d6000803e3d6000fd5b50505050505050565b6000806000806000806060806060806000600b60008d815260200190815260200160002090506060611dbc612435565b905060608151604051908082528060200260200182016040528015611deb578160200160208202803883390190505b50905060005b8251811015611e5d57836005016000848381518110611e0c57fe5b6020908102919091018101516001600160a01b031682528101919091526040016000205460ff166003811115611e3e57fe5b828281518110611e4a57fe5b6020908102919091010152600101611df1565b5060608251604051908082528060200260200182016040528015611e8b578160200160208202803883390190505b5090506000805b8451811015611f3c576000866005016000878481518110611eaf57fe5b60200260200101516001600160a01b03166001600160a01b031681526020019081526020016000206001018054600181600116156101000203166002900490501115611f3457848181518110611f0157fe5b6020026020010151838381518110611f1557fe5b6001600160a01b03909216602092830291909101909101526001909101905b600101611e92565b50600180860154600887015460028089015460068a015460078b015460038c018054604080516020601f6000199c851615610100029c909c0190931697909704998a0182900482028701820190528886526001600160a01b0388169860ff600160a01b909904891698979097169694959394929391928d928d928d92869183018282801561200b5780601f10611fe05761010080835404028352916020019161200b565b820191906000526020600020905b815481529060010190602001808311611fee57829003601f168201915b505050505093509e509e509e509e509e509e509e509e509e509e5050505050509193959799509193959799565b60165460ff1690565b611b3961204c61303e565b613042565b6000818152600b602090815260408083206001600160a01b038616845260050190915281205460ff16600381111561152457fe5b6001600160a01b031660009081526010602052604090205490565b6002805460408051602060018416156101000260001901909316849004601f810184900484028201840190925281815292918301828280156121235780601f106120f857610100808354040283529160200191612123565b820191906000526020600020905b81548152906001019060200180831161210657829003601f168201915b505050505081565b60055481565b601654610100900460ff16612181576040805162461bcd60e51b8152602060048201526011602482015270436f696e206e6f74206275726e61626c6560781b604482015290519081900360640190fd5b61218b828261308a565b5050565b81516121a290600c906020850190613cac565b5080516121b6906009906020840190613cac565b505050565b6000828152600b602090815260408083206001600160a01b03871684526005018252909120805460ff1916600317815582516121ff92600190920191840190613c2e565b5060008054838252600b60209081526040808420600101549051634c7bd35360e11b815230600482018181526001600160a01b038a81166024850152604484018a90529384166064840181905260a060848501908152895160a4860152895195909716976398f7a6a69793968c968c9693958c9594909360c490910192860191908190849084905b8381101561229f578181015183820152602001612287565b50505050905090810190601f1680156122cc5780820380516001836020036101000a031916815260200191505b509650505050505050600060405180830381600087803b1580156122ef57600080fd5b505af1158015612303573d6000803e3d6000fd5b505050506121b682613094565b61232061231b61303e565b611c06565b61235b5760405162461bcd60e51b8152600401808060200182810382526030815260200180613da96030913960400191505060405180910390fd5b611bf381613150565b600080805b600a548110156123d0576000818152600b60205260409020600101546001600160a01b0385811691161480156123bc57506000818152600b60205260409020600190810154600160a01b900460ff161515145b156123c8576001909101905b600101612369565b5092915050565b601654600160201b900460ff1661241f5760405162461bcd60e51b8152600401808060200182810382526029815260200180613f4a6029913960400191505060405180910390fd5b611b39613198565b601654610100900460ff1681565b6060600c8054806020026020016040519081016040528092919081815260200182805480156114c157602002820191906000526020600020905b81546001600160a01b0316815260019091019060200180831161246f575050505050905090565b6004805460408051602060026001851615610100026000190190941693909304601f810184900484028201840190925281815292918301828280156121235780601f106120f857610100808354040283529160200191612123565b600e8054604080516020601f60026000196101006001881615020190951694909404938401819004810282018101909252828152606093909290918301828280156114c15780601f10611496576101008083540402835291602001916114c1565b61256261255d61303e565b612757565b61259d5760405162461bcd60e51b8152600401808060200182810382526030815260200180613e216030913960400191505060405180910390fd5b611bf38161327c565b611b396125b161303e565b6132c4565b6001546001600160a01b031690565b600a5481565b60165460009060ff1615612619576040805162461bcd60e51b815260206004820152601060248201526f14185d5cd8589b194e881c185d5cd95960821b604482015290519081900360640190fd5b611524838361330c565b600b60209081526000918252604091829020805460018083015460028085015460038601805489516101009682161596909602600019011692909204601f810188900488028501880190985287845293966001600160a01b03831696600160a01b90930460ff169593928301828280156126de5780601f106126b3576101008083540402835291602001916126de565b820191906000526020600020905b8154815290600101906020018083116126c157829003601f168201915b50505050600683015460078401546008909401549293909290915060ff1688565b60165460009060ff161561274d576040805162461bcd60e51b815260206004820152601060248201526f14185d5cd8589b194e881c185d5cd95960821b604482015290519081900360640190fd5b611524838361337a565b6000611c1960138363ffffffff612fd716565b6000828152600b602090815260408083206001600160a01b03871684526005018252909120805460ff1916600217815582516127ae92600190920191840190613c2e565b5060008054838252600b60209081526040808420600101549051631491281f60e21b815230600482018181526001600160a01b038a81166024850152604484018a90529384166064840181905260a060848501908152895160a486015289519590971697635244a07c9793968c968c9693958c9594909360c490910192860191908190849084905b8381101561284e578181015183820152602001612836565b50505050905090810190601f16801561287b5780820380516001836020036101000a031916815260200191505b509650505050505050600060405180830381600087803b15801561289e57600080fd5b505af11580156128b2573d6000803e3d6000fd5b505050506128bf8261338e565b156121b6576121b682612e25565b606060008060008060608060608060606004604051908082528060200260200182016040528015612908578160200160208202803883390190505b509050601660029054906101000a900460ff168160008151811061292857fe5b602002602001019015159081151581525050601660039054906101000a900460ff168160018151811061295757fe5b602002602001019015159081151581525050601660019054906101000a900460ff168160028151811061298657fe5b6020026020010190151590811515815250506001816003815181106129a757fe5b91151560209283029190910182015260408051600480825260a0820190925260609290919082016080803883390190505090506129e2611a93565b816000815181106129ef57fe5b602002602001018181525050612a03611734565b60ff1681600181518110612a1357fe5b60200260200101818152505060065481600281518110612a2f57fe5b60200260200101818152505060075481600381518110612a4b57fe5b602002602001018181525050600c600a54612a6533612085565b612a6d61152b565b60055486866003612a7c61340d565b885460408051602080840282018101909252828152918b91830182828015612acd57602002820191906000526020600020905b81546001600160a01b03168152600190910190602001808311612aaf575b5050855460408051602060026001851615610100026000190190941693909304601f8101849004840282018401909252818152959e5087945092508401905082828015612b5b5780601f10612b3057610100808354040283529160200191612b5b565b820191906000526020600020905b815481529060010190602001808311612b3e57829003601f168201915b505050505091509a509a509a509a509a509a509a509a509a505050909192939495969798565b60606000805b600a54811015612bc5576000818152600b60205260409020600101546001600160a01b0385811691161415612bbd576001909101905b600101612b87565b50606081604051908082528060200260200182016040528015612bf2578160200160208202803883390190505b50600092509050815b600a54811015612c51576000818152600b60205260409020600101546001600160a01b0386811691161415612c495780828481518110612c3757fe5b60209081029190910101526001909201915b600101612bfb565b509392505050565b600c8181548110612c6657fe5b6000918252602090912001546001600160a01b0316905081565b6001600160a01b03918216600090815260116020908152604080832093909416825291909152205490565b6000828152600b602090815260408083206001600160a01b0385168452600501825291829020600190810180548451600293821615610100026000190190911692909204601f81018490048402830184019094528382526060939192909190830182828015612d5b5780601f10612d3057610100808354040283529160200191612d5b565b820191906000526020600020905b815481529060010190602001808311612d3e57829003601f168201915b5050505050905092915050565b60098181548110612c6657fe5b60065481565b6000612d8f612d8861303e565b848461350f565b50600192915050565b6000612da58484846135fb565b612e1b84612db161303e565b612e1685604051806060016040528060288152602001613e72602891396001600160a01b038a16600090815260116020526040812090612def61303e565b6001600160a01b03168152602081019190915260400160002054919063ffffffff61375916565b61350f565b5060019392505050565b6000818152600b6020526040902060010154600160a01b900460ff16158015612e6057506000818152600b602052604090206008015460ff16155b15611bf3576000818152600b602052604080822060018101805460ff60a01b1916600160a01b1790819055426007830155835460029092015460085484516319e0dcc760e21b81523060048201526001600160a01b039384166024820152604481018890526064810192909252600160a81b900460ff16151560848201529251911692636783731c9260a4808201939182900301818387803b158015612f0557600080fd5b505af1158015612f19573d6000803e3d6000fd5b5050505050565b6000612d8f612f2d61303e565b84612e168560116000612f3e61303e565b6001600160a01b03908116825260208083019390935260409182016000908120918c16815292529020549063ffffffff6137f016565b6000612f8161255d61303e565b612fbc5760405162461bcd60e51b8152600401808060200182810382526030815260200180613e216030913960400191505060405180910390fd5b612d8f838361384a565b611bf3612fd161303e565b826138c2565b60006001600160a01b03821661301e5760405162461bcd60e51b8152600401808060200182810382526022815260200180613e9a6022913960400191505060405180910390fd5b506001600160a01b03166000908152602091909152604090205460ff1690565b3390565b61305360158263ffffffff6139be16565b6040516001600160a01b038216907fcd265ebaf09df2871cc7bd4133404a235ba12eff2041bb89d9c714a2621c7c7e90600090a250565b61218b8282613a25565b6000818152600b6020526040902060010154600160a01b900460ff161580156130cf57506000818152600b602052604090206008015460ff16155b15611bf3576000818152600b602052604080822060088101805460ff191660019081179091554260078301558354910154825163507dc34560e11b8152306004820152602481018690526001600160a01b039182166044820152925191169263a0fb868a926064808201939182900301818387803b158015612f0557600080fd5b61316160158263ffffffff613a7916565b6040516001600160a01b038216907f6719d08c1888103bea251a4ed56406bd0c3e69723c8a1686e017e7bbe159b6f890600090a250565b6131a361231b61303e565b6131de5760405162461bcd60e51b8152600401808060200182810382526030815260200180613da96030913960400191505060405180910390fd5b60165460ff1615613229576040805162461bcd60e51b815260206004820152601060248201526f14185d5cd8589b194e881c185d5cd95960821b604482015290519081900360640190fd5b6016805460ff191660011790557f62e78cea01bee320cd4e420270b5ea74000d11b0c9f74754ebdbfc544b05a25861325f61303e565b604080516001600160a01b039092168252519081900360200190a1565b61328d60138263ffffffff613a7916565b6040516001600160a01b038216907f6ae172837ea30b801fbfcdd4108aa1d5bf8ff775444fd70256b44e6bf3dfc3f690600090a250565b6132d560138263ffffffff6139be16565b6040516001600160a01b038216907fe94479a9f7e1952cc78f2d6baab678adc1b772d936c6583def489e524cb6669290600090a250565b6000612d8f61331961303e565b84612e1685604051806060016040528060258152602001613f73602591396011600061334361303e565b6001600160a01b03908116825260208083019390935260409182016000908120918d1681529252902054919063ffffffff61375916565b6000612d8f61338761303e565b84846135fb565b6000805b600c54811015612d8f576002600b60008581526020019081526020016000206005016000600c84815481106133c357fe5b60009182526020808320909101546001600160a01b0316835282019290925260400190205460ff1660038111156133f657fe5b14613405576000915050611c1c565b600101613392565b606080600980549050600201604051908082528060200260200182016040528015613442578160200160208202803883390190505b5060085481519192506001600160a01b031690829060009061346057fe5b6001600160a01b039283166020918202929092010152600180548351921691839190811061348a57fe5b6001600160a01b039092166020928302919091019091015260005b60095481101561350957600981815481106134bc57fe5b9060005260206000200160009054906101000a90046001600160a01b03168282600201815181106134e957fe5b6001600160a01b03909216602092830291909101909101526001016134a5565b50905090565b6001600160a01b0383166135545760405162461bcd60e51b8152600401808060200182810382526024815260200180613f266024913960400191505060405180910390fd5b6001600160a01b0382166135995760405162461bcd60e51b8152600401808060200182810382526022815260200180613dd96022913960400191505060405180910390fd5b6001600160a01b03808416600081815260116020908152604080832094871680845294825291829020859055815185815291517f8c5be1e5ebec7d5bd14f71427d1e84f3dd0314c0f7b2291e5b200ac8c7c3b9259281900390910190a3505050565b6001600160a01b0383166136405760405162461bcd60e51b8152600401808060200182810382526025815260200180613f016025913960400191505060405180910390fd5b6001600160a01b0382166136855760405162461bcd60e51b8152600401808060200182810382526023815260200180613d646023913960400191505060405180910390fd5b6136c881604051806060016040528060268152602001613dfb602691396001600160a01b038616600090815260106020526040902054919063ffffffff61375916565b6001600160a01b0380851660009081526010602052604080822093909355908416815220546136fd908263ffffffff6137f016565b6001600160a01b0380841660008181526010602090815260409182902094909455805185815290519193928716927fddf252ad1be2c89b69c2b068fc378daa952ba7f163c4a11628f55a4df523b3ef92918290030190a3505050565b600081848411156137e85760405162461bcd60e51b81526004018080602001828103825283818151815260200191508051906020019080838360005b838110156137ad578181015183820152602001613795565b50505050905090810190601f1680156137da5780820380516001836020036101000a031916815260200191505b509250505060405180910390fd5b505050900390565b600082820183811015611524576040805162461bcd60e51b815260206004820152601b60248201527f536166654d6174683a206164646974696f6e206f766572666c6f770000000000604482015290519081900360640190fd5b6014546138658261385961152b565b9063ffffffff6137f016565b11156138b8576040805162461bcd60e51b815260206004820152601960248201527f45524332304361707065643a2063617020657863656564656400000000000000604482015290519081900360640190fd5b61218b8282613afa565b6001600160a01b0382166139075760405162461bcd60e51b8152600401808060200182810382526021815260200180613ee06021913960400191505060405180910390fd5b61394a81604051806060016040528060228152602001613d87602291396001600160a01b038516600090815260106020526040902054919063ffffffff61375916565b6001600160a01b038316600090815260106020526040902055601254613976908263ffffffff613bec16565b6012556040805182815290516000916001600160a01b038516917fddf252ad1be2c89b69c2b068fc378daa952ba7f163c4a11628f55a4df523b3ef9181900360200190a35050565b6139c88282612fd7565b613a035760405162461bcd60e51b8152600401808060200182810382526021815260200180613e516021913960400191505060405180910390fd5b6001600160a01b0316600090815260209190915260409020805460ff19169055565b613a2f82826138c2565b61218b82613a3b61303e565b612e1684604051806060016040528060248152602001613ebc602491396001600160a01b038816600090815260116020526040812090612def61303e565b613a838282612fd7565b15613ad5576040805162461bcd60e51b815260206004820152601f60248201527f526f6c65733a206163636f756e7420616c72656164792068617320726f6c6500604482015290519081900360640190fd5b6001600160a01b0316600090815260209190915260409020805460ff19166001179055565b6001600160a01b038216613b55576040805162461bcd60e51b815260206004820152601f60248201527f45524332303a206d696e7420746f20746865207a65726f206164647265737300604482015290519081900360640190fd5b601254613b68908263ffffffff6137f016565b6012556001600160a01b038216600090815260106020526040902054613b94908263ffffffff6137f016565b6001600160a01b03831660008181526010602090815260408083209490945583518581529351929391927fddf252ad1be2c89b69c2b068fc378daa952ba7f163c4a11628f55a4df523b3ef9281900390910190a35050565b600061152483836040518060400160405280601e81526020017f536166654d6174683a207375627472616374696f6e206f766572666c6f770000815250613759565b828054600181600116156101000203166002900490600052602060002090601f016020900481019282601f10613c6f57805160ff1916838001178555613c9c565b82800160010185558215613c9c579182015b82811115613c9c578251825591602001919060010190613c81565b50613ca8929150613d25565b5090565b828054828255906000526020600020908101928215613d01579160200282015b82811115613d0157825182546001600160a01b0319166001600160a01b03909116178255602090920191600190910190613ccc565b50613ca8929150613d3f565b60408051808201909152600081526060602082015290565b6114c991905b80821115613ca85760008155600101613d2b565b6114c991905b80821115613ca85780546001600160a01b0319168155600101613d4556fe45524332303a207472616e7366657220746f20746865207a65726f206164647265737345524332303a206275726e20616d6f756e7420657863656564732062616c616e6365506175736572526f6c653a2063616c6c657220646f6573206e6f742068617665207468652050617573657220726f6c6545524332303a20617070726f766520746f20746865207a65726f206164647265737345524332303a207472616e7366657220616d6f756e7420657863656564732062616c616e63654d696e746572526f6c653a2063616c6c657220646f6573206e6f74206861766520746865204d696e74657220726f6c65526f6c65733a206163636f756e7420646f6573206e6f74206861766520726f6c6545524332303a207472616e7366657220616d6f756e74206578636565647320616c6c6f77616e6365526f6c65733a206163636f756e7420697320746865207a65726f206164647265737345524332303a206275726e20616d6f756e74206578636565647320616c6c6f77616e636545524332303a206275726e2066726f6d20746865207a65726f206164647265737345524332303a207472616e736665722066726f6d20746865207a65726f206164647265737345524332303a20617070726f76652066726f6d20746865207a65726f2061646472657373746869732066756e6374696f6e2063616e206f6e6c792062652072756e206f6e206372656174696f6e45524332303a2064656372656173656420616c6c6f77616e63652062656c6f77207a65726fa265627a7a723158206d119fb1d2e921bbc5e5f375f1dd2f3af3161131710621b58d06927484c3bf5464736f6c63430005110032506175736572526f6c653a2063616c6c657220646f6573206e6f742068617665207468652050617573657220726f6c65526f6c65733a206163636f756e7420697320746865207a65726f2061646472657373746869732066756e6374696f6e2063616e206f6e6c792062652072756e206f6e206372656174696f6e53796d626f6c206d7573742068617665206265747765656e203320616e6420352063686172616374657273a265627a7a723158203c96e842d5adb35f4b35c8887e61519e39d0cc2147c66f8acc09c199e2b90fe764736f6c63430005110032",
  "source": "pragma solidity ^0.5.17;\n\nimport 'contracts/Fin4Token.sol';\nimport 'contracts/Fin4TokenManagement.sol';\nimport \"solidity-util/lib/Strings.sol\";\nimport \"contracts/Fin4Underlyings.sol\";\n\ncontract Fin4TokenCreator {\n\n    // This event is only to be able to get the address of the new token into the frontend as return value of send()\n    // The \"real\" new-token event is emitted from Fin4TokenManagement.registerNewToken()\n    event NewFin4TokenAddress(address tokenAddress);\n\n    using Strings for string;\n\n    address public Fin4ClaimingAddress;\n    address public Fin4TokenManagementAddress;\n    address public Fin4UnderlyingsAddress;\n\n    mapping (string => bool) public symbolIsUsed;\n\n    constructor(address Fin4ClaimingAddr, address Fin4TokenManagementAddr, address Fin4UnderlyingsAddr) public {\n        Fin4ClaimingAddress = Fin4ClaimingAddr;\n        Fin4TokenManagementAddress = Fin4TokenManagementAddr;\n        Fin4UnderlyingsAddress = Fin4UnderlyingsAddr;\n    }\n\n    // these two methods are propbably super costly\n\n    function nameCheck(string memory name) public pure returns(string memory) {\n        uint len = name.length();\n        require(len > 0, \"Name can't be empty\");\n        return name;\n    }\n\n    function symbolCheck(string memory symbol) public view returns(string memory) {\n        uint len = symbol.length();\n        require(len >= 3 && len <= 5, \"Symbol must have between 3 and 5 characters\");\n        string memory sym = symbol.upper();\n        require(!symbolIsUsed[sym], \"Symbol is already in use\");\n        return sym;\n    }\n\n    function postCreationSteps(address tokenAddress, address[] memory requiredVerifierTypes, address[] memory minterRoles,\n        string memory description, string memory actionsText, uint fixedAmount, string memory unit, bytes32[] memory underlyingNames) public {\n\n        Fin4TokenBase token = Fin4TokenBase(tokenAddress);\n        token.storeVerifierTypesAndMinters(requiredVerifierTypes, minterRoles);\n\n        if (Fin4UnderlyingsAddress != address(0)) {\n            // also sets tokenIsConstructing to false\n            Fin4Underlyings(Fin4UnderlyingsAddress).registerUnderlyingsWithToken(tokenAddress, underlyingNames);\n        }\n\n        bool Fin4ClaimingHasMinterRole = false;\n        for (uint i = 0; i < minterRoles.length; i++) {\n            token.addMinter(minterRoles[i]);\n            if (minterRoles[i] == Fin4ClaimingAddress) {\n                Fin4ClaimingHasMinterRole = true;\n            }\n        }\n        token.renounceMinter(); // Fin4(Un)cappedTokenCreator should not have the MinterRole on tokens\n                                // TODO unless it was given explicitely in this array?\n\n        token.init(Fin4ClaimingAddress, Fin4ClaimingHasMinterRole, description, actionsText, fixedAmount, unit);\n        symbolIsUsed[token.symbol()] = true;\n\n        Fin4TokenManagement(Fin4TokenManagementAddress).registerNewToken(address(token));\n    }\n}\n\ncontract Fin4UncappedTokenCreator is Fin4TokenCreator {\n\n    constructor(address Fin4ClaimingAddr, address Fin4TokenManagementAddr, address Fin4UnderlyingsAddr)\n    Fin4TokenCreator(Fin4ClaimingAddr, Fin4TokenManagementAddr, Fin4UnderlyingsAddr)\n    public {}\n\n    function createNewToken(string memory name, string memory symbol, bool[] memory properties,\n        uint[] memory values, address initialSupplyOwner) public {\n\n        Fin4TokenBase token = new Fin4Token(nameCheck(name), symbolCheck(symbol), msg.sender,\n            properties[0], properties[1], properties[2], uint8(values[0]), values[1], initialSupplyOwner);\n\n        emit NewFin4TokenAddress(address(token));\n    }\n}\n\ncontract Fin4CappedTokenCreator is Fin4TokenCreator {\n\n    constructor(address Fin4ClaimingAddr, address Fin4TokenManagementAddr, address Fin4UnderlyingsAddr)\n    Fin4TokenCreator(Fin4ClaimingAddr, Fin4TokenManagementAddr, Fin4UnderlyingsAddr)\n    public {}\n\n    function createNewToken(string memory name, string memory symbol, bool[] memory properties,\n        uint[] memory values, address initialSupplyOwner) public {\n\n        Fin4TokenBase token = new Fin4TokenCapped(nameCheck(name), symbolCheck(symbol), msg.sender,\n            properties[0], properties[1], properties[2], uint8(values[0]), values[1], values[2], initialSupplyOwner);\n\n        emit NewFin4TokenAddress(address(token));\n    }\n}\n",
  "sourcePath": "/home/cantonioupao/susDAO-saveMe/FIN4Contracts/contracts/Fin4TokenCreator.sol",
  "compiler": {
    "name": "solc",
    "version": "0.5.17+commit.d19bba13.Emscripten.clang"
  },
  "schemaVersion": "3.3.1",
  "updatedAt": "2020-12-03T18:27:58.837Z",
  "devdoc": {
    "methods": {}
  },
  "userdoc": {
    "methods": {}
  }
}