{
  "contractName": "Fin4Token",
  "abi": [
    {
      "inputs": [
        {
          "internalType": "string",
          "name": "name",
          "type": "string"
        },
        {
          "internalType": "string",
          "name": "symbol",
          "type": "string"
        },
        {
          "internalType": "address",
          "name": "_tokenCreator",
          "type": "address"
        },
        {
          "internalType": "bool",
          "name": "isBurnable",
          "type": "bool"
        },
        {
          "internalType": "bool",
          "name": "isTransferable",
          "type": "bool"
        },
        {
          "internalType": "bool",
          "name": "isMintable",
          "type": "bool"
        },
        {
          "internalType": "uint8",
          "name": "decimals",
          "type": "uint8"
        },
        {
          "internalType": "uint256",
          "name": "_initialSupply",
          "type": "uint256"
        },
        {
          "internalType": "address",
          "name": "_initialSupplyOwner",
          "type": "address"
        }
      ],
      "payable": false,
      "stateMutability": "nonpayable",
      "type": "constructor"
    },
    {
      "anonymous": false,
      "inputs": [
        {
          "indexed": true,
          "internalType": "address",
          "name": "owner",
          "type": "address"
        },
        {
          "indexed": true,
          "internalType": "address",
          "name": "spender",
          "type": "address"
        },
        {
          "indexed": false,
          "internalType": "uint256",
          "name": "value",
          "type": "uint256"
        }
      ],
      "name": "Approval",
      "type": "event"
    },
    {
      "anonymous": false,
      "inputs": [
        {
          "indexed": true,
          "internalType": "address",
          "name": "account",
          "type": "address"
        }
      ],
      "name": "MinterAdded",
      "type": "event"
    },
    {
      "anonymous": false,
      "inputs": [
        {
          "indexed": true,
          "internalType": "address",
          "name": "account",
          "type": "address"
        }
      ],
      "name": "MinterRemoved",
      "type": "event"
    },
    {
      "anonymous": false,
      "inputs": [
        {
          "indexed": false,
          "internalType": "address",
          "name": "account",
          "type": "address"
        }
      ],
      "name": "Paused",
      "type": "event"
    },
    {
      "anonymous": false,
      "inputs": [
        {
          "indexed": true,
          "internalType": "address",
          "name": "account",
          "type": "address"
        }
      ],
      "name": "PauserAdded",
      "type": "event"
    },
    {
      "anonymous": false,
      "inputs": [
        {
          "indexed": true,
          "internalType": "address",
          "name": "account",
          "type": "address"
        }
      ],
      "name": "PauserRemoved",
      "type": "event"
    },
    {
      "anonymous": false,
      "inputs": [
        {
          "indexed": true,
          "internalType": "address",
          "name": "from",
          "type": "address"
        },
        {
          "indexed": true,
          "internalType": "address",
          "name": "to",
          "type": "address"
        },
        {
          "indexed": false,
          "internalType": "uint256",
          "name": "value",
          "type": "uint256"
        }
      ],
      "name": "Transfer",
      "type": "event"
    },
    {
      "anonymous": false,
      "inputs": [
        {
          "indexed": false,
          "internalType": "address",
          "name": "account",
          "type": "address"
        }
      ],
      "name": "Unpaused",
      "type": "event"
    },
    {
      "constant": false,
      "inputs": [
        {
          "internalType": "address",
          "name": "account",
          "type": "address"
        }
      ],
      "name": "addMinter",
      "outputs": [],
      "payable": false,
      "stateMutability": "nonpayable",
      "type": "function"
    },
    {
      "constant": false,
      "inputs": [
        {
          "internalType": "address",
          "name": "account",
          "type": "address"
        }
      ],
      "name": "addPauser",
      "outputs": [],
      "payable": false,
      "stateMutability": "nonpayable",
      "type": "function"
    },
    {
      "constant": true,
      "inputs": [
        {
          "internalType": "uint256",
          "name": "",
          "type": "uint256"
        }
      ],
      "name": "addressesWithMinterRoles",
      "outputs": [
        {
          "internalType": "address",
          "name": "",
          "type": "address"
        }
      ],
      "payable": false,
      "stateMutability": "view",
      "type": "function"
    },
    {
      "constant": true,
      "inputs": [
        {
          "internalType": "address",
          "name": "owner",
          "type": "address"
        },
        {
          "internalType": "address",
          "name": "spender",
          "type": "address"
        }
      ],
      "name": "allowance",
      "outputs": [
        {
          "internalType": "uint256",
          "name": "",
          "type": "uint256"
        }
      ],
      "payable": false,
      "stateMutability": "view",
      "type": "function"
    },
    {
      "constant": false,
      "inputs": [
        {
          "internalType": "address",
          "name": "spender",
          "type": "address"
        },
        {
          "internalType": "uint256",
          "name": "value",
          "type": "uint256"
        }
      ],
      "name": "approve",
      "outputs": [
        {
          "internalType": "bool",
          "name": "",
          "type": "bool"
        }
      ],
      "payable": false,
      "stateMutability": "nonpayable",
      "type": "function"
    },
    {
      "constant": true,
      "inputs": [
        {
          "internalType": "address",
          "name": "account",
          "type": "address"
        }
      ],
      "name": "balanceOf",
      "outputs": [
        {
          "internalType": "uint256",
          "name": "",
          "type": "uint256"
        }
      ],
      "payable": false,
      "stateMutability": "view",
      "type": "function"
    },
    {
      "constant": false,
      "inputs": [
        {
          "internalType": "uint256",
          "name": "value",
          "type": "uint256"
        }
      ],
      "name": "burn",
      "outputs": [],
      "payable": false,
      "stateMutability": "nonpayable",
      "type": "function"
    },
    {
      "constant": false,
      "inputs": [
        {
          "internalType": "address",
          "name": "from",
          "type": "address"
        },
        {
          "internalType": "uint256",
          "name": "value",
          "type": "uint256"
        }
      ],
      "name": "burnFrom",
      "outputs": [],
      "payable": false,
      "stateMutability": "nonpayable",
      "type": "function"
    },
    {
      "constant": true,
      "inputs": [
        {
          "internalType": "uint256",
          "name": "claimId",
          "type": "uint256"
        }
      ],
      "name": "claimGotRejected",
      "outputs": [
        {
          "internalType": "bool",
          "name": "",
          "type": "bool"
        }
      ],
      "payable": false,
      "stateMutability": "view",
      "type": "function"
    },
    {
      "constant": true,
      "inputs": [
        {
          "internalType": "uint256",
          "name": "",
          "type": "uint256"
        }
      ],
      "name": "claims",
      "outputs": [
        {
          "internalType": "uint256",
          "name": "claimId",
          "type": "uint256"
        },
        {
          "internalType": "address",
          "name": "claimer",
          "type": "address"
        },
        {
          "internalType": "bool",
          "name": "isApproved",
          "type": "bool"
        },
        {
          "internalType": "uint256",
          "name": "quantity",
          "type": "uint256"
        },
        {
          "internalType": "string",
          "name": "comment",
          "type": "string"
        },
        {
          "internalType": "uint256",
          "name": "claimCreationTime",
          "type": "uint256"
        },
        {
          "internalType": "uint256",
          "name": "claimApprovalOrRejectionTime",
          "type": "uint256"
        },
        {
          "internalType": "bool",
          "name": "gotRejected",
          "type": "bool"
        }
      ],
      "payable": false,
      "stateMutability": "view",
      "type": "function"
    },
    {
      "constant": true,
      "inputs": [
        {
          "internalType": "address",
          "name": "user",
          "type": "address"
        }
      ],
      "name": "countApprovedClaimsOfThisUser",
      "outputs": [
        {
          "internalType": "uint256",
          "name": "",
          "type": "uint256"
        }
      ],
      "payable": false,
      "stateMutability": "view",
      "type": "function"
    },
    {
      "constant": true,
      "inputs": [],
      "name": "decimals",
      "outputs": [
        {
          "internalType": "uint8",
          "name": "",
          "type": "uint8"
        }
      ],
      "payable": false,
      "stateMutability": "view",
      "type": "function"
    },
    {
      "constant": false,
      "inputs": [
        {
          "internalType": "address",
          "name": "spender",
          "type": "address"
        },
        {
          "internalType": "uint256",
          "name": "subtractedValue",
          "type": "uint256"
        }
      ],
      "name": "decreaseAllowance",
      "outputs": [
        {
          "internalType": "bool",
          "name": "",
          "type": "bool"
        }
      ],
      "payable": false,
      "stateMutability": "nonpayable",
      "type": "function"
    },
    {
      "constant": true,
      "inputs": [],
      "name": "description",
      "outputs": [
        {
          "internalType": "string",
          "name": "",
          "type": "string"
        }
      ],
      "payable": false,
      "stateMutability": "view",
      "type": "function"
    },
    {
      "constant": true,
      "inputs": [],
      "name": "fixedAmount",
      "outputs": [
        {
          "internalType": "uint256",
          "name": "",
          "type": "uint256"
        }
      ],
      "payable": false,
      "stateMutability": "view",
      "type": "function"
    },
    {
      "constant": true,
      "inputs": [
        {
          "internalType": "uint256",
          "name": "claimId",
          "type": "uint256"
        }
      ],
      "name": "getClaim",
      "outputs": [
        {
          "internalType": "address",
          "name": "",
          "type": "address"
        },
        {
          "internalType": "bool",
          "name": "",
          "type": "bool"
        },
        {
          "internalType": "bool",
          "name": "",
          "type": "bool"
        },
        {
          "internalType": "uint256",
          "name": "",
          "type": "uint256"
        },
        {
          "internalType": "uint256",
          "name": "",
          "type": "uint256"
        },
        {
          "internalType": "uint256",
          "name": "",
          "type": "uint256"
        },
        {
          "internalType": "string",
          "name": "",
          "type": "string"
        },
        {
          "internalType": "address[]",
          "name": "",
          "type": "address[]"
        },
        {
          "internalType": "uint256[]",
          "name": "",
          "type": "uint256[]"
        },
        {
          "internalType": "address[]",
          "name": "",
          "type": "address[]"
        }
      ],
      "payable": false,
      "stateMutability": "view",
      "type": "function"
    },
    {
      "constant": true,
      "inputs": [
        {
          "internalType": "address",
          "name": "claimer",
          "type": "address"
        }
      ],
      "name": "getClaimIds",
      "outputs": [
        {
          "internalType": "uint256[]",
          "name": "",
          "type": "uint256[]"
        }
      ],
      "payable": false,
      "stateMutability": "view",
      "type": "function"
    },
    {
      "constant": true,
      "inputs": [],
      "name": "getRequiredVerifierTypes",
      "outputs": [
        {
          "internalType": "address[]",
          "name": "",
          "type": "address[]"
        }
      ],
      "payable": false,
      "stateMutability": "view",
      "type": "function"
    },
    {
      "constant": true,
      "inputs": [],
      "name": "getTokenCreator",
      "outputs": [
        {
          "internalType": "address",
          "name": "",
          "type": "address"
        }
      ],
      "payable": false,
      "stateMutability": "view",
      "type": "function"
    },
    {
      "constant": true,
      "inputs": [
        {
          "internalType": "uint256",
          "name": "claimId",
          "type": "uint256"
        },
        {
          "internalType": "address",
          "name": "verifierAddress",
          "type": "address"
        }
      ],
      "name": "getVerifierMessageOnClaim",
      "outputs": [
        {
          "internalType": "string",
          "name": "",
          "type": "string"
        }
      ],
      "payable": false,
      "stateMutability": "view",
      "type": "function"
    },
    {
      "constant": true,
      "inputs": [
        {
          "internalType": "address",
          "name": "verifier",
          "type": "address"
        },
        {
          "internalType": "uint256",
          "name": "claimId",
          "type": "uint256"
        }
      ],
      "name": "getVerifierStatus",
      "outputs": [
        {
          "internalType": "uint256",
          "name": "",
          "type": "uint256"
        }
      ],
      "payable": false,
      "stateMutability": "view",
      "type": "function"
    },
    {
      "constant": false,
      "inputs": [
        {
          "internalType": "address",
          "name": "spender",
          "type": "address"
        },
        {
          "internalType": "uint256",
          "name": "addedValue",
          "type": "uint256"
        }
      ],
      "name": "increaseAllowance",
      "outputs": [
        {
          "internalType": "bool",
          "name": "",
          "type": "bool"
        }
      ],
      "payable": false,
      "stateMutability": "nonpayable",
      "type": "function"
    },
    {
      "constant": false,
      "inputs": [
        {
          "internalType": "address",
          "name": "Fin4ClaimingAddr",
          "type": "address"
        },
        {
          "internalType": "bool",
          "name": "_Fin4ClaimingHasMinterRole",
          "type": "bool"
        },
        {
          "internalType": "string",
          "name": "_description",
          "type": "string"
        },
        {
          "internalType": "string",
          "name": "_actionsText",
          "type": "string"
        },
        {
          "internalType": "uint256",
          "name": "_fixedAmount",
          "type": "uint256"
        },
        {
          "internalType": "string",
          "name": "_unit",
          "type": "string"
        }
      ],
      "name": "init",
      "outputs": [],
      "payable": false,
      "stateMutability": "nonpayable",
      "type": "function"
    },
    {
      "constant": true,
      "inputs": [],
      "name": "isBurnable",
      "outputs": [
        {
          "internalType": "bool",
          "name": "",
          "type": "bool"
        }
      ],
      "payable": false,
      "stateMutability": "view",
      "type": "function"
    },
    {
      "constant": true,
      "inputs": [],
      "name": "isMintable",
      "outputs": [
        {
          "internalType": "bool",
          "name": "",
          "type": "bool"
        }
      ],
      "payable": false,
      "stateMutability": "view",
      "type": "function"
    },
    {
      "constant": true,
      "inputs": [
        {
          "internalType": "address",
          "name": "account",
          "type": "address"
        }
      ],
      "name": "isMinter",
      "outputs": [
        {
          "internalType": "bool",
          "name": "",
          "type": "bool"
        }
      ],
      "payable": false,
      "stateMutability": "view",
      "type": "function"
    },
    {
      "constant": true,
      "inputs": [
        {
          "internalType": "address",
          "name": "account",
          "type": "address"
        }
      ],
      "name": "isPauser",
      "outputs": [
        {
          "internalType": "bool",
          "name": "",
          "type": "bool"
        }
      ],
      "payable": false,
      "stateMutability": "view",
      "type": "function"
    },
    {
      "constant": true,
      "inputs": [],
      "name": "isTransferable",
      "outputs": [
        {
          "internalType": "bool",
          "name": "",
          "type": "bool"
        }
      ],
      "payable": false,
      "stateMutability": "view",
      "type": "function"
    },
    {
      "constant": false,
      "inputs": [
        {
          "internalType": "address",
          "name": "to",
          "type": "address"
        },
        {
          "internalType": "uint256",
          "name": "value",
          "type": "uint256"
        }
      ],
      "name": "mint",
      "outputs": [
        {
          "internalType": "bool",
          "name": "",
          "type": "bool"
        }
      ],
      "payable": false,
      "stateMutability": "nonpayable",
      "type": "function"
    },
    {
      "constant": true,
      "inputs": [],
      "name": "name",
      "outputs": [
        {
          "internalType": "string",
          "name": "",
          "type": "string"
        }
      ],
      "payable": false,
      "stateMutability": "view",
      "type": "function"
    },
    {
      "constant": true,
      "inputs": [],
      "name": "nextClaimId",
      "outputs": [
        {
          "internalType": "uint256",
          "name": "",
          "type": "uint256"
        }
      ],
      "payable": false,
      "stateMutability": "view",
      "type": "function"
    },
    {
      "constant": false,
      "inputs": [],
      "name": "pause",
      "outputs": [],
      "payable": false,
      "stateMutability": "nonpayable",
      "type": "function"
    },
    {
      "constant": true,
      "inputs": [],
      "name": "paused",
      "outputs": [
        {
          "internalType": "bool",
          "name": "",
          "type": "bool"
        }
      ],
      "payable": false,
      "stateMutability": "view",
      "type": "function"
    },
    {
      "constant": false,
      "inputs": [
        {
          "internalType": "address",
          "name": "verifierTypeAddress",
          "type": "address"
        },
        {
          "internalType": "uint256",
          "name": "claimId",
          "type": "uint256"
        },
        {
          "internalType": "string",
          "name": "message",
          "type": "string"
        }
      ],
      "name": "receiveVerifierApprovalNotice",
      "outputs": [],
      "payable": false,
      "stateMutability": "nonpayable",
      "type": "function"
    },
    {
      "constant": false,
      "inputs": [
        {
          "internalType": "address",
          "name": "verifierTypeAddress",
          "type": "address"
        },
        {
          "internalType": "uint256",
          "name": "claimId",
          "type": "uint256"
        },
        {
          "internalType": "string",
          "name": "message",
          "type": "string"
        }
      ],
      "name": "receiveVerifierPendingNotice",
      "outputs": [],
      "payable": false,
      "stateMutability": "nonpayable",
      "type": "function"
    },
    {
      "constant": false,
      "inputs": [
        {
          "internalType": "address",
          "name": "verifierTypeAddress",
          "type": "address"
        },
        {
          "internalType": "uint256",
          "name": "claimId",
          "type": "uint256"
        },
        {
          "internalType": "string",
          "name": "message",
          "type": "string"
        }
      ],
      "name": "receiveVerifierRejectionNotice",
      "outputs": [],
      "payable": false,
      "stateMutability": "nonpayable",
      "type": "function"
    },
    {
      "constant": false,
      "inputs": [],
      "name": "renounceMinter",
      "outputs": [],
      "payable": false,
      "stateMutability": "nonpayable",
      "type": "function"
    },
    {
      "constant": false,
      "inputs": [],
      "name": "renouncePauser",
      "outputs": [],
      "payable": false,
      "stateMutability": "nonpayable",
      "type": "function"
    },
    {
      "constant": true,
      "inputs": [
        {
          "internalType": "uint256",
          "name": "",
          "type": "uint256"
        }
      ],
      "name": "requiredVerifierTypes",
      "outputs": [
        {
          "internalType": "address",
          "name": "",
          "type": "address"
        }
      ],
      "payable": false,
      "stateMutability": "view",
      "type": "function"
    },
    {
      "constant": false,
      "inputs": [
        {
          "internalType": "address[]",
          "name": "_requiredVerifierTypes",
          "type": "address[]"
        },
        {
          "internalType": "address[]",
          "name": "minters",
          "type": "address[]"
        }
      ],
      "name": "storeVerifierTypesAndMinters",
      "outputs": [],
      "payable": false,
      "stateMutability": "nonpayable",
      "type": "function"
    },
    {
      "constant": false,
      "inputs": [
        {
          "internalType": "address",
          "name": "claimer",
          "type": "address"
        },
        {
          "internalType": "uint256",
          "name": "variableAmount",
          "type": "uint256"
        },
        {
          "internalType": "string",
          "name": "comment",
          "type": "string"
        }
      ],
      "name": "submitClaim",
      "outputs": [
        {
          "internalType": "uint256",
          "name": "",
          "type": "uint256"
        },
        {
          "internalType": "address[]",
          "name": "",
          "type": "address[]"
        },
        {
          "internalType": "uint256",
          "name": "",
          "type": "uint256"
        },
        {
          "internalType": "uint256",
          "name": "",
          "type": "uint256"
        }
      ],
      "payable": false,
      "stateMutability": "nonpayable",
      "type": "function"
    },
    {
      "constant": true,
      "inputs": [],
      "name": "symbol",
      "outputs": [
        {
          "internalType": "string",
          "name": "",
          "type": "string"
        }
      ],
      "payable": false,
      "stateMutability": "view",
      "type": "function"
    },
    {
      "constant": true,
      "inputs": [],
      "name": "tokenCreationTime",
      "outputs": [
        {
          "internalType": "uint256",
          "name": "",
          "type": "uint256"
        }
      ],
      "payable": false,
      "stateMutability": "view",
      "type": "function"
    },
    {
      "constant": true,
      "inputs": [],
      "name": "totalSupply",
      "outputs": [
        {
          "internalType": "uint256",
          "name": "",
          "type": "uint256"
        }
      ],
      "payable": false,
      "stateMutability": "view",
      "type": "function"
    },
    {
      "constant": false,
      "inputs": [
        {
          "internalType": "address",
          "name": "to",
          "type": "address"
        },
        {
          "internalType": "uint256",
          "name": "value",
          "type": "uint256"
        }
      ],
      "name": "transfer",
      "outputs": [
        {
          "internalType": "bool",
          "name": "",
          "type": "bool"
        }
      ],
      "payable": false,
      "stateMutability": "nonpayable",
      "type": "function"
    },
    {
      "constant": false,
      "inputs": [
        {
          "internalType": "address",
          "name": "from",
          "type": "address"
        },
        {
          "internalType": "address",
          "name": "to",
          "type": "address"
        },
        {
          "internalType": "uint256",
          "name": "value",
          "type": "uint256"
        }
      ],
      "name": "transferFrom",
      "outputs": [
        {
          "internalType": "bool",
          "name": "",
          "type": "bool"
        }
      ],
      "payable": false,
      "stateMutability": "nonpayable",
      "type": "function"
    },
    {
      "constant": true,
      "inputs": [],
      "name": "unit",
      "outputs": [
        {
          "internalType": "string",
          "name": "",
          "type": "string"
        }
      ],
      "payable": false,
      "stateMutability": "view",
      "type": "function"
    },
    {
      "constant": false,
      "inputs": [],
      "name": "unpause",
      "outputs": [],
      "payable": false,
      "stateMutability": "nonpayable",
      "type": "function"
    },
    {
      "constant": true,
      "inputs": [
        {
          "internalType": "address",
          "name": "user",
          "type": "address"
        }
      ],
      "name": "getTokenInfo",
      "outputs": [
        {
          "internalType": "bool",
          "name": "",
          "type": "bool"
        },
        {
          "internalType": "string",
          "name": "",
          "type": "string"
        },
        {
          "internalType": "string",
          "name": "",
          "type": "string"
        },
        {
          "internalType": "string",
          "name": "",
          "type": "string"
        },
        {
          "internalType": "string",
          "name": "",
          "type": "string"
        },
        {
          "internalType": "uint256",
          "name": "",
          "type": "uint256"
        },
        {
          "internalType": "uint256",
          "name": "",
          "type": "uint256"
        },
        {
          "internalType": "bool",
          "name": "",
          "type": "bool"
        }
      ],
      "payable": false,
      "stateMutability": "view",
      "type": "function"
    },
    {
      "constant": true,
      "inputs": [],
      "name": "getDetailedTokenInfo",
      "outputs": [
        {
          "internalType": "address[]",
          "name": "",
          "type": "address[]"
        },
        {
          "internalType": "uint256",
          "name": "",
          "type": "uint256"
        },
        {
          "internalType": "uint256",
          "name": "",
          "type": "uint256"
        },
        {
          "internalType": "uint256",
          "name": "",
          "type": "uint256"
        },
        {
          "internalType": "uint256",
          "name": "",
          "type": "uint256"
        },
        {
          "internalType": "bool[]",
          "name": "",
          "type": "bool[]"
        },
        {
          "internalType": "uint256[]",
          "name": "",
          "type": "uint256[]"
        },
        {
          "internalType": "string",
          "name": "",
          "type": "string"
        },
        {
          "internalType": "address[]",
          "name": "",
          "type": "address[]"
        }
      ],
      "payable": false,
      "stateMutability": "view",
      "type": "function"
    }
  ],
  "bytecode": "0x60806040526008805461ffff60a01b1916600160a81b1790556000600a556015805460ff60201b19166401000000001790553480156200003e57600080fd5b50604051620048943803806200489483398181016040526101208110156200006557600080fd5b81019080805160405193929190846401000000008211156200008657600080fd5b9083019060208201858111156200009c57600080fd5b8251640100000000811182820188101715620000b757600080fd5b82525081516020918201929091019080838360005b83811015620000e6578181015183820152602001620000cc565b50505050905090810190601f168015620001145780820380516001836020036101000a031916815260200191505b50604052602001805160405193929190846401000000008211156200013857600080fd5b9083019060208201858111156200014e57600080fd5b82516401000000008111828201881017156200016957600080fd5b82525081516020918201929091019080838360005b83811015620001985781810151838201526020016200017e565b50505050905090810190601f168015620001c65780820380516001836020036101000a031916815260200191505b506040908152602082810151918301516060840151608085015160a086015160c087015160e090970151426005558b519699509397509195909491939092918a918a9186916000918b918b918b918a918a918a918a918a916200023091600d919086019062000842565b5081516200024690600e90602085019062000842565b50600f805460ff191660ff92909216919091179055506200027b90506200026c620003aa565b6001600160e01b03620003af16565b620002a1620002926001600160e01b03620003aa16565b6001600160e01b036200040116565b6015805461ffff1916610100871515021762ff0000191662010000861515021763ff000000191663010000008515150217905583620002ed57620002ed6001600160e01b036200045316565b6001600160a01b03861615620003115762000311866001600160e01b03620003af16565b6001600160a01b0381166200033b576200033533836001600160e01b03620004b516565b62000350565b6200035081836001600160e01b03620004b516565b50506015805460ff60201b191690555050600180546001600160a01b03199081166001600160a01b039e8f1617909155600797909755505060088054909516939099169290921790925550620008e4975050505050505050565b335b90565b620003ca816013620005ba60201b62003ac41790919060201c565b6040516001600160a01b038216907f6ae172837ea30b801fbfcdd4108aa1d5bf8ff775444fd70256b44e6bf3dfc3f690600090a250565b6200041c816014620005ba60201b62003ac41790919060201c565b6040516001600160a01b038216907f6719d08c1888103bea251a4ed56406bd0c3e69723c8a1686e017e7bbe159b6f890600090a250565b601554640100000000900460ff166200049e5760405162461bcd60e51b81526004018080602001828103825260298152602001806200486b6029913960400191505060405180910390fd5b620004b36200064760201b620031691760201c565b565b6001600160a01b03821662000511576040805162461bcd60e51b815260206004820152601f60248201527f45524332303a206d696e7420746f20746865207a65726f206164647265737300604482015290519081900360640190fd5b6200052d816012546200075460201b620037c11790919060201c565b6012556001600160a01b03821660009081526010602090815260409091205462000562918390620037c162000754821b17901c565b6001600160a01b03831660008181526010602090815260408083209490945583518581529351929391927fddf252ad1be2c89b69c2b068fc378daa952ba7f163c4a11628f55a4df523b3ef9281900390910190a35050565b620005cf82826001600160e01b03620007b616565b1562000622576040805162461bcd60e51b815260206004820152601f60248201527f526f6c65733a206163636f756e7420616c72656164792068617320726f6c6500604482015290519081900360640190fd5b6001600160a01b0316600090815260209190915260409020805460ff19166001179055565b6200066d6200065e6001600160e01b03620003aa16565b6001600160e01b036200081f16565b620006aa5760405162461bcd60e51b8152600401808060200182810382526030815260200180620048196030913960400191505060405180910390fd5b60155460ff1615620006f6576040805162461bcd60e51b815260206004820152601060248201526f14185d5cd8589b194e881c185d5cd95960821b604482015290519081900360640190fd5b6015805460ff191660011790557f62e78cea01bee320cd4e420270b5ea74000d11b0c9f74754ebdbfc544b05a258620007376001600160e01b03620003aa16565b604080516001600160a01b039092168252519081900360200190a1565b600082820183811015620007af576040805162461bcd60e51b815260206004820152601b60248201527f536166654d6174683a206164646974696f6e206f766572666c6f770000000000604482015290519081900360640190fd5b9392505050565b60006001600160a01b038216620007ff5760405162461bcd60e51b8152600401808060200182810382526022815260200180620048496022913960400191505060405180910390fd5b506001600160a01b03166000908152602091909152604090205460ff1690565b60006200083c826014620007b660201b62002fa81790919060201c565b92915050565b828054600181600116156101000203166002900490600052602060002090601f016020900481019282601f106200088557805160ff1916838001178555620008b5565b82800160010185558215620008b5579182015b82811115620008b557825182559160200191906001019062000898565b50620008c3929150620008c7565b5090565b620003ac91905b80821115620008c35760008155600101620008ce565b613f2580620008f46000396000f3fe608060405234801561001057600080fd5b50600436106102d65760003560e01c806379f60f1d11610182578063a0021cf1116100e9578063cdfc81ad116100a2578063dd62ed3e1161007c578063dd62ed3e14611393578063edc31cde146113c1578063f49d71cb146113ed578063ffd34ad51461140a576102d6565b8063cdfc81ad146111c7578063d982579314611350578063db84fdcd14611376576102d6565b8063a0021cf114610fa8578063a457c2d714610fb0578063a888c2cd14610fdc578063a9059cbb146110bc578063aa271e1a146110e8578063bdc656e91461110e576102d6565b80638a997a621161013b5780638a997a6214610eee578063907af6c014610f4657806395d89b4114610f4e578063983b2d5614610f565780639865027514610f7c5780639c67901714610f84576102d6565b806379f60f1d14610cb65780637c41e5d814610dd957806382dc1ec414610e925780638364c00614610eb85780638456cb5914610ede578063883356d914610ee6576102d6565b806342966c68116102415780635c975abb116101fa57806370a08231116101d457806370a0823114610c545780637284e41614610c7a57806377160e8f14610c8257806379cc679014610c8a576102d6565b80635c975abb14610c185780636ef8d66d14610c205780636f38120014610c28576102d6565b806342966c681461095357806346b45af71461097057806346fbf68e14610978578063592b165e1461099e57806359af6152146109bb5780635aef244714610a74576102d6565b8063313ce56711610293578063313ce567146105e4578063330e17171461060257806334dc3c66146107d157806339509351146108f35780633f4ba83a1461091f57806340c10f1914610927576102d6565b806306fdde03146102db578063095ea7b31461035857806318160ddd146103985780631f69565f146103b25780632121dc75146105a657806323b872dd146105ae575b600080fd5b6102e3611412565b6040805160208082528351818301528351919283929083019185019080838360005b8381101561031d578181015183820152602001610305565b50505050905090810190601f16801561034a5780820380516001836020036101000a031916815260200191505b509250505060405180910390f35b6103846004803603604081101561036e57600080fd5b506001600160a01b0381351690602001356114a9565b604080519115158252519081900360200190f35b6103a0611508565b60408051918252519081900360200190f35b6103d8600480360360208110156103c857600080fd5b50356001600160a01b031661150e565b6040518089151515158152602001806020018060200180602001806020018881526020018781526020018615151515815260200185810385528c818151815260200191508051906020019080838360005b83811015610441578181015183820152602001610429565b50505050905090810190601f16801561046e5780820380516001836020036101000a031916815260200191505b5085810384528b5181528b516020918201918d019080838360005b838110156104a1578181015183820152602001610489565b50505050905090810190601f1680156104ce5780820380516001836020036101000a031916815260200191505b5085810383528a5181528a516020918201918c019080838360005b838110156105015781810151838201526020016104e9565b50505050905090810190601f16801561052e5780820380516001836020036101000a031916815260200191505b5085810382528951815289516020918201918b019080838360005b83811015610561578181015183820152602001610549565b50505050905090810190601f16801561058e5780820380516001836020036101000a031916815260200191505b509c5050505050505050505050505060405180910390f35b6103846116a1565b610384600480360360608110156105c457600080fd5b506001600160a01b038135811691602081013590911690604001356116b0565b6105ec611711565b6040805160ff9092168252519081900360200190f35b6107cf600480360360c081101561061857600080fd5b6001600160a01b03823516916020810135151591810190606081016040820135600160201b81111561064957600080fd5b82018360208201111561065b57600080fd5b803590602001918460018302840111600160201b8311171561067c57600080fd5b91908080601f0160208091040260200160405190810160405280939291908181526020018383808284376000920191909152509295949360208101935035915050600160201b8111156106ce57600080fd5b8201836020820111156106e057600080fd5b803590602001918460018302840111600160201b8311171561070157600080fd5b91908080601f01602080910402602001604051908101604052809392919081815260200183838082843760009201919091525092958435959094909350604081019250602001359050600160201b81111561075b57600080fd5b82018360208201111561076d57600080fd5b803590602001918460018302840111600160201b8311171561078e57600080fd5b91908080601f01602080910402602001604051908101604052809392919081815260200183838082843760009201919091525092955061171a945050505050565b005b61088a600480360360608110156107e757600080fd5b6001600160a01b0382351691602081013591810190606081016040820135600160201b81111561081657600080fd5b82018360208201111561082857600080fd5b803590602001918460018302840111600160201b8311171561084957600080fd5b91908080601f016020809104026020016040519081016040528093929190818152602001838380828437600092019190915250929550611807945050505050565b6040518085815260200180602001848152602001838152602001828103825285818151815260200191508051906020019060200280838360005b838110156108dc5781810151838201526020016108c4565b505050509050019550505050505060405180910390f35b6103846004803603604081101561090957600080fd5b506001600160a01b038135169060200135611a70565b6107cf611ac8565b6103846004803603604081101561093d57600080fd5b506001600160a01b038135169060200135611b12565b6107cf6004803603602081101561096957600080fd5b5035611b71565b610384611bcd565b6103846004803603602081101561098e57600080fd5b50356001600160a01b0316611bdd565b610384600480360360208110156109b457600080fd5b5035611bf8565b6107cf600480360360608110156109d157600080fd5b6001600160a01b0382351691602081013591810190606081016040820135600160201b811115610a0057600080fd5b820183602082011115610a1257600080fd5b803590602001918460018302840111600160201b83111715610a3357600080fd5b91908080601f016020809104026020016040519081016040528093929190818152602001838380828437600092019190915250929550611c10945050505050565b610a9160048036036020811015610a8a57600080fd5b5035611d63565b604051808b6001600160a01b03166001600160a01b031681526020018a1515151581526020018915151515815260200188815260200187815260200186815260200180602001806020018060200180602001858103855289818151815260200191508051906020019080838360005b83811015610b18578181015183820152602001610b00565b50505050905090810190601f168015610b455780820380516001836020036101000a031916815260200191505b508581038452885181528851602091820191808b01910280838360005b83811015610b7a578181015183820152602001610b62565b50505050905001858103835287818151815260200191508051906020019060200280838360005b83811015610bb9578181015183820152602001610ba1565b50505050905001858103825286818151815260200191508051906020019060200280838360005b83811015610bf8578181015183820152602001610be0565b505050509050019e50505050505050505050505050505060405180910390f35b61038461200f565b6107cf612018565b6103a060048036036040811015610c3e57600080fd5b506001600160a01b038135169060200135612028565b6103a060048036036020811015610c6a57600080fd5b50356001600160a01b031661205c565b6102e3612077565b6103a0612102565b6107cf60048036036040811015610ca057600080fd5b506001600160a01b038135169060200135612108565b6107cf60048036036040811015610ccc57600080fd5b810190602081018135600160201b811115610ce657600080fd5b820183602082011115610cf857600080fd5b803590602001918460208302840111600160201b83111715610d1957600080fd5b9190808060200260200160405190810160405280939291908181526020018383602002808284376000920191909152509295949360208101935035915050600160201b811115610d6857600080fd5b820183602082011115610d7a57600080fd5b803590602001918460208302840111600160201b83111715610d9b57600080fd5b919080806020026020016040519081016040528093929190818152602001838360200280828437600092019190915250929550612166945050505050565b6107cf60048036036060811015610def57600080fd5b6001600160a01b0382351691602081013591810190606081016040820135600160201b811115610e1e57600080fd5b820183602082011115610e3057600080fd5b803590602001918460018302840111600160201b83111715610e5157600080fd5b91908080601f016020809104026020016040519081016040528093929190818152602001838380828437600092019190915250929550612192945050505050565b6107cf60048036036020811015610ea857600080fd5b50356001600160a01b03166122e7565b6103a060048036036020811015610ece57600080fd5b50356001600160a01b031661233b565b6107cf6123ae565b6103846123fe565b610ef661240c565b60408051602080825283518183015283519192839290830191858101910280838360005b83811015610f32578181015183820152602001610f1a565b505050509050019250505060405180910390f35b6102e361246d565b6102e36124c8565b6107cf60048036036020811015610f6c57600080fd5b50356001600160a01b0316612529565b6107cf61257d565b610f8c61258d565b604080516001600160a01b039092168252519081900360200190f35b6103a061259c565b61038460048036036040811015610fc657600080fd5b506001600160a01b0381351690602001356125a2565b610ff960048036036020811015610ff257600080fd5b50356125fa565b60405180898152602001886001600160a01b03166001600160a01b03168152602001871515151581526020018681526020018060200185815260200184815260200183151515158152602001828103825286818151815260200191508051906020019080838360005b8381101561107a578181015183820152602001611062565b50505050905090810190601f1680156110a75780820380516001836020036101000a031916815260200191505b50995050505050505050505060405180910390f35b610384600480360360408110156110d257600080fd5b506001600160a01b0381351690602001356126d6565b610384600480360360208110156110fe57600080fd5b50356001600160a01b031661272e565b6107cf6004803603606081101561112457600080fd5b6001600160a01b0382351691602081013591810190606081016040820135600160201b81111561115357600080fd5b82018360208201111561116557600080fd5b803590602001918460018302840111600160201b8311171561118657600080fd5b91908080601f016020809104026020016040519081016040528093929190818152602001838380828437600092019190915250929550612741945050505050565b6111cf6128a4565b60405180806020018a81526020018981526020018881526020018781526020018060200180602001806020018060200186810386528f818151815260200191508051906020019060200280838360005b8381101561123757818101518382015260200161121f565b5050505090500186810385528a818151815260200191508051906020019060200280838360005b8381101561127657818101518382015260200161125e565b50505050905001868103845289818151815260200191508051906020019060200280838360005b838110156112b557818101518382015260200161129d565b50505050905001868103835288818151815260200191508051906020019080838360005b838110156112f15781810151838201526020016112d9565b50505050905090810190601f16801561131e5780820380516001836020036101000a031916815260200191505b508681038252875181528751602091820191808a01910280838360008315610bf8578181015183820152602001610be0565b610ef66004803603602081101561136657600080fd5b50356001600160a01b0316612b52565b610f8c6004803603602081101561138c57600080fd5b5035612c2a565b6103a0600480360360408110156113a957600080fd5b506001600160a01b0381358116916020013516612c51565b6102e3600480360360408110156113d757600080fd5b50803590602001356001600160a01b0316612c7c565b610f8c6004803603602081101561140357600080fd5b5035612d39565b6103a0612d46565b600d8054604080516020601f600260001961010060018816150201909516949094049384018190048102820181019092528281526060939092909183018282801561149e5780601f106114735761010080835404028352916020019161149e565b820191906000526020600020905b81548152906001019060200180831161148157829003601f168201915b505050505090505b90565b60155460009060ff16156114f7576040805162461bcd60e51b815260206004820152601060248201526f14185d5cd8589b194e881c185d5cd95960821b604482015290519081900360640190fd5b6115018383612d4c565b9392505050565b60125490565b60006060806060806000806000600160009054906101000a90046001600160a01b03166001600160a01b0316896001600160a01b03161461154d611412565b6115556124c8565b60026004611561611508565b6005546006548454604080516020601f60026000196101006001881615020190951694909404938401819004810282018101909252828152921515929187918301828280156115f15780601f106115c6576101008083540402835291602001916115f1565b820191906000526020600020905b8154815290600101906020018083116115d457829003601f168201915b5050875460408051602060026001851615610100026000190190941693909304601f8101849004840282018401909252818152959a508994509250840190508282801561167f5780601f106116545761010080835404028352916020019161167f565b820191906000526020600020905b81548152906001019060200180831161166257829003601f168201915b5050505050935097509750975097509750975097509750919395975091939597565b60155462010000900460ff1681565b60155460009060ff16156116fe576040805162461bcd60e51b815260206004820152601060248201526f14185d5cd8589b194e881c185d5cd95960821b604482015290519081900360640190fd5b611709848484612d69565b949350505050565b600f5460ff1690565b600854600160a01b900460ff1615611779576040805162461bcd60e51b815260206004820152601e60248201527f696e697428292063616e206f6e6c792062652063616c6c6564206f6e63650000604482015290519081900360640190fd5b600080546001600160a01b0319166001600160a01b0388161790556008805460ff60a81b1916600160a81b8715150217905583516117be906002906020870190613b87565b5082516117d2906003906020860190613b87565b50600682905580516117eb906004906020840190613b87565b50506008805460ff60a01b1916600160a01b1790555050505050565b60006060600080600860149054906101000a900460ff1661186f576040805162461bcd60e51b815260206004820152601860248201527f546f6b656e206973206e6f7420696e697469616c697a65640000000000000000604482015290519081900360640190fd5b600a80546000908152600b6020526040902042600680830191909155915481556001810180546001600160a01b0319166001600160a01b038b1617905590546118be57600281018790556118c7565b60065460028201555b85516118dc9060038301906020890190613b87565b506118e561240c565b80516118fb916004840191602090910190613c05565b5060005b60048201548110156119b957611913613c66565b6040805180820190915280600081526020016040518060200160405280600081525081525090508083600501600085600401858154811061195057fe5b60009182526020808320909101546001600160a01b03168352820192909252604001902081518154829060ff1916600183600381111561198c57fe5b021790555060208281015180516119a99260018501920190613b87565b5050600190920191506118ff9050565b5060018101805460ff60a01b1916905560088101805460ff1916905560048101546119e9576119e9600a54612df6565b600a805460018101909155600682015460028301546004840180546040805160208084028201810190925282815292949392918591830182828015611a5757602002820191906000526020600020905b81546001600160a01b03168152600190910190602001808311611a39575b5050505050925094509450945094505093509350935093565b60155460009060ff1615611abe576040805162461bcd60e51b815260206004820152601060248201526f14185d5cd8589b194e881c185d5cd95960821b604482015290519081900360640190fd5b6115018383612ef1565b601554600160201b900460ff16611b105760405162461bcd60e51b8152600401808060200182810382526029815260200180613ea36029913960400191505060405180910390fd5b565b6015546000906301000000900460ff16611b67576040805162461bcd60e51b8152602060048201526011602482015270436f696e206e6f74206d696e7461626c6560781b604482015290519081900360640190fd5b6115018383612f45565b601554610100900460ff16611bc1576040805162461bcd60e51b8152602060048201526011602482015270436f696e206e6f74206275726e61626c6560781b604482015290519081900360640190fd5b611bca81612f97565b50565b6015546301000000900460ff1681565b6000611bf060148363ffffffff612fa816565b90505b919050565b6000908152600b602052604090206008015460ff1690565b6000828152600b602090815260408083206001600160a01b03871684526005018252909120805460ff1916600190811782558351611c5693919092019190840190613b87565b5060008054838252600b6020908152604080842060010154905163d5e3f19160e01b815230600482018181526001600160a01b038a81166024850152604484018a90529384166064840181905260a060848501908152895160a48601528951959097169763d5e3f1919793968c968c9693958c9594909360c490910192860191908190849084905b83811015611cf6578181015183820152602001611cde565b50505050905090810190601f168015611d235780820380516001836020036101000a031916815260200191505b509650505050505050600060405180830381600087803b158015611d4657600080fd5b505af1158015611d5a573d6000803e3d6000fd5b50505050505050565b6000806000806000806060806060806000600b60008d815260200190815260200160002090506060611d9361240c565b905060608151604051908082528060200260200182016040528015611dc2578160200160208202803883390190505b50905060005b8251811015611e3457836005016000848381518110611de357fe5b6020908102919091018101516001600160a01b031682528101919091526040016000205460ff166003811115611e1557fe5b828281518110611e2157fe5b6020908102919091010152600101611dc8565b5060608251604051908082528060200260200182016040528015611e62578160200160208202803883390190505b5090506000805b8451811015611f13576000866005016000878481518110611e8657fe5b60200260200101516001600160a01b03166001600160a01b031681526020019081526020016000206001018054600181600116156101000203166002900490501115611f0b57848181518110611ed857fe5b6020026020010151838381518110611eec57fe5b6001600160a01b03909216602092830291909101909101526001909101905b600101611e69565b50600180860154600887015460028089015460068a015460078b015460038c018054604080516020601f6000199c851615610100029c909c0190931697909704998a0182900482028701820190528886526001600160a01b0388169860ff600160a01b909904891698979097169694959394929391928d928d928d928691830182828015611fe25780601f10611fb757610100808354040283529160200191611fe2565b820191906000526020600020905b815481529060010190602001808311611fc557829003601f168201915b505050505093509e509e509e509e509e509e509e509e509e509e5050505050509193959799509193959799565b60155460ff1690565b611b1061202361300f565b613013565b6000818152600b602090815260408083206001600160a01b038616845260050190915281205460ff16600381111561150157fe5b6001600160a01b031660009081526010602052604090205490565b6002805460408051602060018416156101000260001901909316849004601f810184900484028201840190925281815292918301828280156120fa5780601f106120cf576101008083540402835291602001916120fa565b820191906000526020600020905b8154815290600101906020018083116120dd57829003601f168201915b505050505081565b60055481565b601554610100900460ff16612158576040805162461bcd60e51b8152602060048201526011602482015270436f696e206e6f74206275726e61626c6560781b604482015290519081900360640190fd5b612162828261305b565b5050565b815161217990600c906020850190613c05565b50805161218d906009906020840190613c05565b505050565b6000828152600b602090815260408083206001600160a01b03871684526005018252909120805460ff1916600317815582516121d692600190920191840190613b87565b5060008054838252600b60209081526040808420600101549051634c7bd35360e11b815230600482018181526001600160a01b038a81166024850152604484018a90529384166064840181905260a060848501908152895160a4860152895195909716976398f7a6a69793968c968c9693958c9594909360c490910192860191908190849084905b8381101561227657818101518382015260200161225e565b50505050905090810190601f1680156122a35780820380516001836020036101000a031916815260200191505b509650505050505050600060405180830381600087803b1580156122c657600080fd5b505af11580156122da573d6000803e3d6000fd5b5050505061218d82613065565b6122f76122f261300f565b611bdd565b6123325760405162461bcd60e51b8152600401808060200182810382526030815260200180613d026030913960400191505060405180910390fd5b611bca81613121565b600080805b600a548110156123a7576000818152600b60205260409020600101546001600160a01b03858116911614801561239357506000818152600b60205260409020600190810154600160a01b900460ff161515145b1561239f576001909101905b600101612340565b5092915050565b601554600160201b900460ff166123f65760405162461bcd60e51b8152600401808060200182810382526029815260200180613ea36029913960400191505060405180910390fd5b611b10613169565b601554610100900460ff1681565b6060600c80548060200260200160405190810160405280929190818152602001828054801561149e57602002820191906000526020600020905b81546001600160a01b03168152600190910190602001808311612446575050505050905090565b6004805460408051602060026001851615610100026000190190941693909304601f810184900484028201840190925281815292918301828280156120fa5780601f106120cf576101008083540402835291602001916120fa565b600e8054604080516020601f600260001961010060018816150201909516949094049384018190048102820181019092528281526060939092909183018282801561149e5780601f106114735761010080835404028352916020019161149e565b61253961253461300f565b61272e565b6125745760405162461bcd60e51b8152600401808060200182810382526030815260200180613d7a6030913960400191505060405180910390fd5b611bca8161324d565b611b1061258861300f565b613295565b6001546001600160a01b031690565b600a5481565b60155460009060ff16156125f0576040805162461bcd60e51b815260206004820152601060248201526f14185d5cd8589b194e881c185d5cd95960821b604482015290519081900360640190fd5b61150183836132dd565b600b60209081526000918252604091829020805460018083015460028085015460038601805489516101009682161596909602600019011692909204601f810188900488028501880190985287845293966001600160a01b03831696600160a01b90930460ff169593928301828280156126b55780601f1061268a576101008083540402835291602001916126b5565b820191906000526020600020905b81548152906001019060200180831161269857829003601f168201915b50505050600683015460078401546008909401549293909290915060ff1688565b60155460009060ff1615612724576040805162461bcd60e51b815260206004820152601060248201526f14185d5cd8589b194e881c185d5cd95960821b604482015290519081900360640190fd5b611501838361334b565b6000611bf060138363ffffffff612fa816565b6000828152600b602090815260408083206001600160a01b03871684526005018252909120805460ff19166002178155825161278592600190920191840190613b87565b5060008054838252600b60209081526040808420600101549051631491281f60e21b815230600482018181526001600160a01b038a81166024850152604484018a90529384166064840181905260a060848501908152895160a486015289519590971697635244a07c9793968c968c9693958c9594909360c490910192860191908190849084905b8381101561282557818101518382015260200161280d565b50505050905090810190601f1680156128525780820380516001836020036101000a031916815260200191505b509650505050505050600060405180830381600087803b15801561287557600080fd5b505af1158015612889573d6000803e3d6000fd5b505050506128968261335f565b1561218d5761218d82612df6565b6060600080600080606080606080606060046040519080825280602002602001820160405280156128df578160200160208202803883390190505b509050601560029054906101000a900460ff16816000815181106128ff57fe5b602002602001019015159081151581525050601560039054906101000a900460ff168160018151811061292e57fe5b602002602001019015159081151581525050601560019054906101000a900460ff168160028151811061295d57fe5b60200260200101901515908115158152505060008160038151811061297e57fe5b91151560209283029190910182015260408051600480825260a0820190925260609290919082016080803883390190505090506000816000815181106129c057fe5b6020026020010181815250506129d4611711565b60ff16816001815181106129e457fe5b60200260200101818152505060065481600281518110612a0057fe5b60200260200101818152505060075481600381518110612a1c57fe5b602002602001018181525050600c600a54612a363361205c565b612a3e611508565b60055486866003612a4d6133de565b885460408051602080840282018101909252828152918b91830182828015612a9e57602002820191906000526020600020905b81546001600160a01b03168152600190910190602001808311612a80575b5050855460408051602060026001851615610100026000190190941693909304601f8101849004840282018401909252818152959e5087945092508401905082828015612b2c5780601f10612b0157610100808354040283529160200191612b2c565b820191906000526020600020905b815481529060010190602001808311612b0f57829003601f168201915b505050505091509a509a509a509a509a509a509a509a509a505050909192939495969798565b60606000805b600a54811015612b96576000818152600b60205260409020600101546001600160a01b0385811691161415612b8e576001909101905b600101612b58565b50606081604051908082528060200260200182016040528015612bc3578160200160208202803883390190505b50600092509050815b600a54811015612c22576000818152600b60205260409020600101546001600160a01b0386811691161415612c1a5780828481518110612c0857fe5b60209081029190910101526001909201915b600101612bcc565b509392505050565b600c8181548110612c3757fe5b6000918252602090912001546001600160a01b0316905081565b6001600160a01b03918216600090815260116020908152604080832093909416825291909152205490565b6000828152600b602090815260408083206001600160a01b0385168452600501825291829020600190810180548451600293821615610100026000190190911692909204601f81018490048402830184019094528382526060939192909190830182828015612d2c5780601f10612d0157610100808354040283529160200191612d2c565b820191906000526020600020905b815481529060010190602001808311612d0f57829003601f168201915b5050505050905092915050565b60098181548110612c3757fe5b60065481565b6000612d60612d5961300f565b84846134e0565b50600192915050565b6000612d768484846135cc565b612dec84612d8261300f565b612de785604051806060016040528060288152602001613dcb602891396001600160a01b038a16600090815260116020526040812090612dc061300f565b6001600160a01b03168152602081019190915260400160002054919063ffffffff61372a16565b6134e0565b5060019392505050565b6000818152600b6020526040902060010154600160a01b900460ff16158015612e3157506000818152600b602052604090206008015460ff16155b15611bca576000818152600b602052604080822060018101805460ff60a01b1916600160a01b1790819055426007830155835460029092015460085484516319e0dcc760e21b81523060048201526001600160a01b039384166024820152604481018890526064810192909252600160a81b900460ff16151560848201529251911692636783731c9260a4808201939182900301818387803b158015612ed657600080fd5b505af1158015612eea573d6000803e3d6000fd5b5050505050565b6000612d60612efe61300f565b84612de78560116000612f0f61300f565b6001600160a01b03908116825260208083019390935260409182016000908120918c16815292529020549063ffffffff6137c116565b6000612f5261253461300f565b612f8d5760405162461bcd60e51b8152600401808060200182810382526030815260200180613d7a6030913960400191505060405180910390fd5b612d60838361381b565b611bca612fa261300f565b8261390d565b60006001600160a01b038216612fef5760405162461bcd60e51b8152600401808060200182810382526022815260200180613df36022913960400191505060405180910390fd5b506001600160a01b03166000908152602091909152604090205460ff1690565b3390565b61302460148263ffffffff613a0916565b6040516001600160a01b038216907fcd265ebaf09df2871cc7bd4133404a235ba12eff2041bb89d9c714a2621c7c7e90600090a250565b6121628282613a70565b6000818152600b6020526040902060010154600160a01b900460ff161580156130a057506000818152600b602052604090206008015460ff16155b15611bca576000818152600b602052604080822060088101805460ff191660019081179091554260078301558354910154825163507dc34560e11b8152306004820152602481018690526001600160a01b039182166044820152925191169263a0fb868a926064808201939182900301818387803b158015612ed657600080fd5b61313260148263ffffffff613ac416565b6040516001600160a01b038216907f6719d08c1888103bea251a4ed56406bd0c3e69723c8a1686e017e7bbe159b6f890600090a250565b6131746122f261300f565b6131af5760405162461bcd60e51b8152600401808060200182810382526030815260200180613d026030913960400191505060405180910390fd5b60155460ff16156131fa576040805162461bcd60e51b815260206004820152601060248201526f14185d5cd8589b194e881c185d5cd95960821b604482015290519081900360640190fd5b6015805460ff191660011790557f62e78cea01bee320cd4e420270b5ea74000d11b0c9f74754ebdbfc544b05a25861323061300f565b604080516001600160a01b039092168252519081900360200190a1565b61325e60138263ffffffff613ac416565b6040516001600160a01b038216907f6ae172837ea30b801fbfcdd4108aa1d5bf8ff775444fd70256b44e6bf3dfc3f690600090a250565b6132a660138263ffffffff613a0916565b6040516001600160a01b038216907fe94479a9f7e1952cc78f2d6baab678adc1b772d936c6583def489e524cb6669290600090a250565b6000612d606132ea61300f565b84612de785604051806060016040528060258152602001613ecc602591396011600061331461300f565b6001600160a01b03908116825260208083019390935260409182016000908120918d1681529252902054919063ffffffff61372a16565b6000612d6061335861300f565b84846135cc565b6000805b600c54811015612d60576002600b60008581526020019081526020016000206005016000600c848154811061339457fe5b60009182526020808320909101546001600160a01b0316835282019290925260400190205460ff1660038111156133c757fe5b146133d6576000915050611bf3565b600101613363565b606080600980549050600201604051908082528060200260200182016040528015613413578160200160208202803883390190505b5060085481519192506001600160a01b031690829060009061343157fe5b6001600160a01b039283166020918202929092010152600180548351921691839190811061345b57fe5b6001600160a01b039092166020928302919091019091015260005b6009548110156134da576009818154811061348d57fe5b9060005260206000200160009054906101000a90046001600160a01b03168282600201815181106134ba57fe5b6001600160a01b0390921660209283029190910190910152600101613476565b50905090565b6001600160a01b0383166135255760405162461bcd60e51b8152600401808060200182810382526024815260200180613e7f6024913960400191505060405180910390fd5b6001600160a01b03821661356a5760405162461bcd60e51b8152600401808060200182810382526022815260200180613d326022913960400191505060405180910390fd5b6001600160a01b03808416600081815260116020908152604080832094871680845294825291829020859055815185815291517f8c5be1e5ebec7d5bd14f71427d1e84f3dd0314c0f7b2291e5b200ac8c7c3b9259281900390910190a3505050565b6001600160a01b0383166136115760405162461bcd60e51b8152600401808060200182810382526025815260200180613e5a6025913960400191505060405180910390fd5b6001600160a01b0382166136565760405162461bcd60e51b8152600401808060200182810382526023815260200180613cbd6023913960400191505060405180910390fd5b61369981604051806060016040528060268152602001613d54602691396001600160a01b038616600090815260106020526040902054919063ffffffff61372a16565b6001600160a01b0380851660009081526010602052604080822093909355908416815220546136ce908263ffffffff6137c116565b6001600160a01b0380841660008181526010602090815260409182902094909455805185815290519193928716927fddf252ad1be2c89b69c2b068fc378daa952ba7f163c4a11628f55a4df523b3ef92918290030190a3505050565b600081848411156137b95760405162461bcd60e51b81526004018080602001828103825283818151815260200191508051906020019080838360005b8381101561377e578181015183820152602001613766565b50505050905090810190601f1680156137ab5780820380516001836020036101000a031916815260200191505b509250505060405180910390fd5b505050900390565b600082820183811015611501576040805162461bcd60e51b815260206004820152601b60248201527f536166654d6174683a206164646974696f6e206f766572666c6f770000000000604482015290519081900360640190fd5b6001600160a01b038216613876576040805162461bcd60e51b815260206004820152601f60248201527f45524332303a206d696e7420746f20746865207a65726f206164647265737300604482015290519081900360640190fd5b601254613889908263ffffffff6137c116565b6012556001600160a01b0382166000908152601060205260409020546138b5908263ffffffff6137c116565b6001600160a01b03831660008181526010602090815260408083209490945583518581529351929391927fddf252ad1be2c89b69c2b068fc378daa952ba7f163c4a11628f55a4df523b3ef9281900390910190a35050565b6001600160a01b0382166139525760405162461bcd60e51b8152600401808060200182810382526021815260200180613e396021913960400191505060405180910390fd5b61399581604051806060016040528060228152602001613ce0602291396001600160a01b038516600090815260106020526040902054919063ffffffff61372a16565b6001600160a01b0383166000908152601060205260409020556012546139c1908263ffffffff613b4516565b6012556040805182815290516000916001600160a01b038516917fddf252ad1be2c89b69c2b068fc378daa952ba7f163c4a11628f55a4df523b3ef9181900360200190a35050565b613a138282612fa8565b613a4e5760405162461bcd60e51b8152600401808060200182810382526021815260200180613daa6021913960400191505060405180910390fd5b6001600160a01b0316600090815260209190915260409020805460ff19169055565b613a7a828261390d565b61216282613a8661300f565b612de784604051806060016040528060248152602001613e15602491396001600160a01b038816600090815260116020526040812090612dc061300f565b613ace8282612fa8565b15613b20576040805162461bcd60e51b815260206004820152601f60248201527f526f6c65733a206163636f756e7420616c72656164792068617320726f6c6500604482015290519081900360640190fd5b6001600160a01b0316600090815260209190915260409020805460ff19166001179055565b600061150183836040518060400160405280601e81526020017f536166654d6174683a207375627472616374696f6e206f766572666c6f77000081525061372a565b828054600181600116156101000203166002900490600052602060002090601f016020900481019282601f10613bc857805160ff1916838001178555613bf5565b82800160010185558215613bf5579182015b82811115613bf5578251825591602001919060010190613bda565b50613c01929150613c7e565b5090565b828054828255906000526020600020908101928215613c5a579160200282015b82811115613c5a57825182546001600160a01b0319166001600160a01b03909116178255602090920191600190910190613c25565b50613c01929150613c98565b60408051808201909152600081526060602082015290565b6114a691905b80821115613c015760008155600101613c84565b6114a691905b80821115613c015780546001600160a01b0319168155600101613c9e56fe45524332303a207472616e7366657220746f20746865207a65726f206164647265737345524332303a206275726e20616d6f756e7420657863656564732062616c616e6365506175736572526f6c653a2063616c6c657220646f6573206e6f742068617665207468652050617573657220726f6c6545524332303a20617070726f766520746f20746865207a65726f206164647265737345524332303a207472616e7366657220616d6f756e7420657863656564732062616c616e63654d696e746572526f6c653a2063616c6c657220646f6573206e6f74206861766520746865204d696e74657220726f6c65526f6c65733a206163636f756e7420646f6573206e6f74206861766520726f6c6545524332303a207472616e7366657220616d6f756e74206578636565647320616c6c6f77616e6365526f6c65733a206163636f756e7420697320746865207a65726f206164647265737345524332303a206275726e20616d6f756e74206578636565647320616c6c6f77616e636545524332303a206275726e2066726f6d20746865207a65726f206164647265737345524332303a207472616e736665722066726f6d20746865207a65726f206164647265737345524332303a20617070726f76652066726f6d20746865207a65726f2061646472657373746869732066756e6374696f6e2063616e206f6e6c792062652072756e206f6e206372656174696f6e45524332303a2064656372656173656420616c6c6f77616e63652062656c6f77207a65726fa265627a7a72315820f7195b1aee5f3b21ee3f82618ccd0bc5a4daea968e5429bcd7ffdcc880a95bcd64736f6c63430005110032506175736572526f6c653a2063616c6c657220646f6573206e6f742068617665207468652050617573657220726f6c65526f6c65733a206163636f756e7420697320746865207a65726f2061646472657373746869732066756e6374696f6e2063616e206f6e6c792062652072756e206f6e206372656174696f6e",
  "source": "pragma solidity ^0.5.17;\n\nimport 'contracts/tokens/ERC20Plus.sol';\nimport 'contracts/Fin4TokenBase.sol';\n\ncontract Fin4Token is Fin4TokenBase, ERC20Plus {\n\n    constructor(string memory name, string memory symbol, address _tokenCreator, bool isBurnable,\n        bool isTransferable, bool isMintable, uint8 decimals, uint _initialSupply, address _initialSupplyOwner)\n        ERC20Plus(name, symbol, decimals, address(0), isBurnable, isTransferable, isMintable, _initialSupply, _initialSupplyOwner)\n        Fin4TokenBase()\n        public {\n            tokenCreator = _tokenCreator;\n            initialSupply = _initialSupply;\n            initialSupplyOwner = _initialSupplyOwner;\n            // Otherwise token creators can mint themselves rich via command line #ConceptualDecision\n            // _removeMinter(tokenCreator);\n        }\n\n    // TODO is it possible to move these two functions to Fin4TokenBase?\n\n    function getTokenInfo(address user) public view returns(bool, string memory, string memory,\n        string memory, string memory, uint256, uint, bool) {\n        return (user == tokenCreator, name(), symbol(), description, unit, totalSupply(), tokenCreationTime, fixedAmount != 0);\n    }\n\n    function getDetailedTokenInfo() public view returns(address[] memory, uint, uint256, uint256, uint,\n        bool[] memory, uint[] memory, string memory, address[] memory) {\n\n        bool[] memory props = new bool[](4);\n        props[0] = isTransferable;\n        props[1] = isMintable;\n        props[2] = isBurnable;\n        props[3] = false; // isCapped\n\n        uint[] memory values = new uint[](4);\n        values[0] = 0; // cap\n        values[1] = uint(decimals());\n        values[2] = fixedAmount;\n        values[3] = initialSupply;\n\n        return (requiredVerifierTypes, nextClaimId, balanceOf(msg.sender), totalSupply(), tokenCreationTime, props, values,\n            actionsText, getInitialSupplyOwnerAndTokenCreatorAndMinterRoles());\n    }\n}\n\n// ----------------------------------------------------------------------------------------------------\n\ncontract Fin4TokenCapped is Fin4TokenBase, ERC20PlusCapped {\n\n    constructor(string memory name, string memory symbol, address _tokenCreator, bool isBurnable,\n        bool isTransferable, bool isMintable, uint8 decimals, uint _initialSupply, uint cap, address _initialSupplyOwner)\n        ERC20PlusCapped(name, symbol, decimals, address(0), isBurnable, cap, isTransferable, isMintable, _initialSupply, _initialSupplyOwner)\n        Fin4TokenBase()\n        public {\n            tokenCreator = _tokenCreator;\n            initialSupply = _initialSupply;\n            initialSupplyOwner = _initialSupplyOwner;\n        }\n\n    function getTokenInfo(address user) public view returns(bool, string memory, string memory,\n        string memory, string memory, uint256, uint, bool) {\n        return (user == tokenCreator, name(), symbol(), description, unit, totalSupply(), tokenCreationTime, fixedAmount != 0);\n    }\n\n    function getDetailedTokenInfo() public view returns(address[] memory, uint, uint256, uint256, uint,\n        bool[] memory, uint[] memory, string memory, address[] memory) {\n\n        bool[] memory props = new bool[](4);\n        props[0] = isTransferable;\n        props[1] = isMintable;\n        props[2] = isBurnable;\n        props[3] = true; // isCapped\n\n        uint[] memory values = new uint[](4);\n        values[0] = cap();\n        values[1] = uint(decimals());\n        values[2] = fixedAmount;\n        values[3] = initialSupply;\n\n        return (requiredVerifierTypes, nextClaimId, balanceOf(msg.sender), totalSupply(), tokenCreationTime, props, values,\n            actionsText, getInitialSupplyOwnerAndTokenCreatorAndMinterRoles());\n    }\n}\n",
  "sourcePath": "/home/cantonioupao/susDAO-saveMe/FIN4Contracts/contracts/Fin4Token.sol",
  "compiler": {
    "name": "solc",
    "version": "0.5.17+commit.d19bba13.Emscripten.clang"
  },
  "schemaVersion": "3.3.1",
  "updatedAt": "2020-12-03T18:31:09.690Z",
  "devdoc": {
    "methods": {
      "allowance(address,address)": {
        "details": "See {IERC20-allowance}."
      },
      "balanceOf(address)": {
        "details": "See {IERC20-balanceOf}."
      },
      "burn(uint256)": {
        "details": "Burns a specific amount of tokens.",
        "params": {
          "value": "The amount of token to be burned."
        }
      },
      "burnFrom(address,uint256)": {
        "details": "Burns a specific amount of tokens from the target address and decrements allowance",
        "params": {
          "from": "address The address which you want to send tokens from",
          "value": "uint256 The amount of token to be burned"
        }
      },
      "decimals()": {
        "details": "Returns the number of decimals used to get its user representation. For example, if `decimals` equals `2`, a balance of `505` tokens should be displayed to a user as `5,05` (`505 / 10 ** 2`).     * Tokens usually opt for a value of 18, imitating the relationship between Ether and Wei.     * NOTE: This information is only used for _display_ purposes: it in no way affects any of the arithmetic of the contract, including {IERC20-balanceOf} and {IERC20-transfer}."
      },
      "mint(address,uint256)": {
        "details": "Function to mint tokens",
        "params": {
          "to": "The address that will receive the minted tokens.",
          "value": "The amount of tokens to mint."
        },
        "return": "A boolean that indicates if the operation was successful."
      },
      "name()": {
        "details": "Returns the name of the token."
      },
      "pause()": {
        "details": "called by the owner to pause, triggers stopped state. This means functions transfer, transferFrom, approve, increaseAllowance, and decreasAllowance, will not execute."
      },
      "paused()": {
        "details": "Returns true if the contract is paused, and false otherwise."
      },
      "symbol()": {
        "details": "Returns the symbol of the token, usually a shorter version of the name."
      },
      "totalSupply()": {
        "details": "See {IERC20-totalSupply}."
      },
      "unpause()": {
        "details": "This will undo pause(). The purpose of this declaration is to disable this function, as this function must not be called (unless making an untransferable token transferable again is wanted, but this is currently not an offered feature)."
      }
    }
  },
  "userdoc": {
    "methods": {}
  }
}