{
  "contractName": "Fin4Groups",
  "abi": [
    {
      "inputs": [
        {
          "internalType": "address",
          "name": "Fin4MessagingAddr",
          "type": "address"
        }
      ],
      "payable": false,
      "stateMutability": "nonpayable",
      "type": "constructor"
    },
    {
      "constant": true,
      "inputs": [],
      "name": "Fin4MessagingAddress",
      "outputs": [
        {
          "internalType": "address",
          "name": "",
          "type": "address"
        }
      ],
      "payable": false,
      "stateMutability": "view",
      "type": "function"
    },
    {
      "constant": true,
      "inputs": [
        {
          "internalType": "address",
          "name": "_addr",
          "type": "address"
        }
      ],
      "name": "addressToString",
      "outputs": [
        {
          "internalType": "string",
          "name": "",
          "type": "string"
        }
      ],
      "payable": false,
      "stateMutability": "pure",
      "type": "function"
    },
    {
      "constant": true,
      "inputs": [
        {
          "internalType": "address[]",
          "name": "arr",
          "type": "address[]"
        },
        {
          "internalType": "address",
          "name": "addrToCheck",
          "type": "address"
        }
      ],
      "name": "arrayContainsAddress",
      "outputs": [
        {
          "internalType": "bool",
          "name": "",
          "type": "bool"
        }
      ],
      "payable": false,
      "stateMutability": "pure",
      "type": "function"
    },
    {
      "constant": true,
      "inputs": [
        {
          "internalType": "uint256",
          "name": "",
          "type": "uint256"
        }
      ],
      "name": "groups",
      "outputs": [
        {
          "internalType": "uint256",
          "name": "groupId",
          "type": "uint256"
        },
        {
          "internalType": "address",
          "name": "creator",
          "type": "address"
        },
        {
          "internalType": "string",
          "name": "name",
          "type": "string"
        }
      ],
      "payable": false,
      "stateMutability": "view",
      "type": "function"
    },
    {
      "constant": true,
      "inputs": [],
      "name": "nextGroupId",
      "outputs": [
        {
          "internalType": "uint256",
          "name": "",
          "type": "uint256"
        }
      ],
      "payable": false,
      "stateMutability": "view",
      "type": "function"
    },
    {
      "constant": true,
      "inputs": [
        {
          "internalType": "uint256",
          "name": "groupId",
          "type": "uint256"
        }
      ],
      "name": "groupExists",
      "outputs": [
        {
          "internalType": "bool",
          "name": "",
          "type": "bool"
        }
      ],
      "payable": false,
      "stateMutability": "view",
      "type": "function"
    },
    {
      "constant": false,
      "inputs": [
        {
          "internalType": "uint256",
          "name": "groupId",
          "type": "uint256"
        }
      ],
      "name": "DeleteGroup",
      "outputs": [],
      "payable": false,
      "stateMutability": "nonpayable",
      "type": "function"
    },
    {
      "constant": false,
      "inputs": [
        {
          "internalType": "uint256",
          "name": "groupId",
          "type": "uint256"
        },
        {
          "internalType": "address",
          "name": "newOwner",
          "type": "address"
        }
      ],
      "name": "transferOwnership",
      "outputs": [],
      "payable": false,
      "stateMutability": "nonpayable",
      "type": "function"
    },
    {
      "constant": true,
      "inputs": [
        {
          "internalType": "uint256",
          "name": "groupId",
          "type": "uint256"
        }
      ],
      "name": "getGroup",
      "outputs": [
        {
          "internalType": "address",
          "name": "",
          "type": "address"
        },
        {
          "internalType": "address[]",
          "name": "",
          "type": "address[]"
        },
        {
          "internalType": "string",
          "name": "",
          "type": "string"
        }
      ],
      "payable": false,
      "stateMutability": "view",
      "type": "function"
    },
    {
      "constant": true,
      "inputs": [
        {
          "internalType": "uint256",
          "name": "groupId",
          "type": "uint256"
        }
      ],
      "name": "getGroupNameAndCreator",
      "outputs": [
        {
          "internalType": "string",
          "name": "",
          "type": "string"
        },
        {
          "internalType": "address",
          "name": "",
          "type": "address"
        }
      ],
      "payable": false,
      "stateMutability": "view",
      "type": "function"
    },
    {
      "constant": true,
      "inputs": [],
      "name": "getGroupsInfo",
      "outputs": [
        {
          "internalType": "bool[]",
          "name": "",
          "type": "bool[]"
        },
        {
          "internalType": "bool[]",
          "name": "",
          "type": "bool[]"
        }
      ],
      "payable": false,
      "stateMutability": "view",
      "type": "function"
    },
    {
      "constant": false,
      "inputs": [
        {
          "internalType": "string",
          "name": "name",
          "type": "string"
        },
        {
          "internalType": "bool",
          "name": "addCreatorAsMember",
          "type": "bool"
        }
      ],
      "name": "createGroup",
      "outputs": [
        {
          "internalType": "uint256",
          "name": "",
          "type": "uint256"
        }
      ],
      "payable": false,
      "stateMutability": "nonpayable",
      "type": "function"
    },
    {
      "constant": false,
      "inputs": [
        {
          "internalType": "uint256",
          "name": "groupId",
          "type": "uint256"
        },
        {
          "internalType": "address[]",
          "name": "newMembers",
          "type": "address[]"
        }
      ],
      "name": "addMembers",
      "outputs": [],
      "payable": false,
      "stateMutability": "nonpayable",
      "type": "function"
    },
    {
      "constant": false,
      "inputs": [
        {
          "internalType": "uint256",
          "name": "groupId",
          "type": "uint256"
        },
        {
          "internalType": "address",
          "name": "memberToRemove",
          "type": "address"
        },
        {
          "internalType": "bool",
          "name": "notifyOwner",
          "type": "bool"
        }
      ],
      "name": "removeMember",
      "outputs": [],
      "payable": false,
      "stateMutability": "nonpayable",
      "type": "function"
    },
    {
      "constant": true,
      "inputs": [
        {
          "internalType": "uint256",
          "name": "groupId",
          "type": "uint256"
        },
        {
          "internalType": "address",
          "name": "member",
          "type": "address"
        }
      ],
      "name": "getIndexOfMember",
      "outputs": [
        {
          "internalType": "uint256",
          "name": "",
          "type": "uint256"
        }
      ],
      "payable": false,
      "stateMutability": "view",
      "type": "function"
    },
    {
      "constant": true,
      "inputs": [
        {
          "internalType": "uint256",
          "name": "groupId",
          "type": "uint256"
        },
        {
          "internalType": "address",
          "name": "memberToCheck",
          "type": "address"
        }
      ],
      "name": "isMember",
      "outputs": [
        {
          "internalType": "bool",
          "name": "",
          "type": "bool"
        }
      ],
      "payable": false,
      "stateMutability": "view",
      "type": "function"
    },
    {
      "constant": true,
      "inputs": [
        {
          "internalType": "uint256",
          "name": "groupId",
          "type": "uint256"
        }
      ],
      "name": "getGroupMembers",
      "outputs": [
        {
          "internalType": "address[]",
          "name": "",
          "type": "address[]"
        }
      ],
      "payable": false,
      "stateMutability": "view",
      "type": "function"
    },
    {
      "constant": true,
      "inputs": [
        {
          "internalType": "uint256[]",
          "name": "groupIds",
          "type": "uint256[]"
        },
        {
          "internalType": "address",
          "name": "user",
          "type": "address"
        }
      ],
      "name": "userIsInOneOfTheseGroups",
      "outputs": [
        {
          "internalType": "bool",
          "name": "",
          "type": "bool"
        }
      ],
      "payable": false,
      "stateMutability": "view",
      "type": "function"
    }
  ],
  "bytecode": "0x6080604052600060015561270f60025534801561001b57600080fd5b50604051611b99380380611b998339818101604052602081101561003e57600080fd5b5051600080546001600160a01b039092166001600160a01b0319909216919091179055611b29806100706000396000f3fe608060405234801561001057600080fd5b50600436106101165760003560e01c80637d9e10f5116100a2578063b681dbeb11610071578063b681dbeb146106fd578063bd5263d814610731578063bdff86061461074e578063ceb60654146107ef578063e4ad4acd146108e257610116565b80637d9e10f5146105535780639259360c1461057f57806393b4c1251461062b57806396324bd41461064857610116565b80634127f79f116100e95780634127f79f146102a25780634ab6ba7c146103625780635ae4a81e1461040a5780635e57966d146104b05780635eda7a761461054b57610116565b80631749d9a91461011b57806329507f73146101c95780633123b25b146101f757806336cc813014610235575b600080fd5b6101386004803603602081101561013157600080fd5b5035610906565b6040518080602001836001600160a01b03166001600160a01b03168152602001828103825284818151815260200191508051906020019080838360005b8381101561018d578181015183820152602001610175565b50505050905090810190601f1680156101ba5780820380516001836020036101000a031916815260200191505b50935050505060405180910390f35b6101f5600480360360408110156101df57600080fd5b50803590602001356001600160a01b03166109c6565b005b6102236004803603604081101561020d57600080fd5b50803590602001356001600160a01b0316610a64565b60408051918252519081900360200190f35b6102526004803603602081101561024b57600080fd5b5035610bf5565b60408051602080825283518183015283519192839290830191858101910280838360005b8381101561028e578181015183820152602001610276565b505050509050019250505060405180910390f35b61034e600480360360408110156102b857600080fd5b810190602081018135600160201b8111156102d257600080fd5b8201836020820111156102e457600080fd5b803590602001918460208302840111600160201b8311171561030557600080fd5b919080806020026020016040519081016040528093929190818152602001838360200280828437600092019190915250929550505090356001600160a01b03169150610c659050565b604080519115158252519081900360200190f35b6101f56004803603604081101561037857600080fd5b81359190810190604081016020820135600160201b81111561039957600080fd5b8201836020820111156103ab57600080fd5b803590602001918460208302840111600160201b831117156103cc57600080fd5b919080806020026020016040519081016040528093929190818152602001838360200280828437600092019190915250929550610cb0945050505050565b6102236004803603604081101561042057600080fd5b810190602081018135600160201b81111561043a57600080fd5b82018360208201111561044c57600080fd5b803590602001918460018302840111600160201b8311171561046d57600080fd5b91908080601f0160208091040260200160405190810160405280939291908181526020018383808284376000920191909152509295505050503515159050610de9565b6104d6600480360360208110156104c657600080fd5b50356001600160a01b0316610e84565b6040805160208082528351818301528351919283929083019185019080838360005b838110156105105781810151838201526020016104f8565b50505050905090810190601f16801561053d5780820380516001836020036101000a031916815260200191505b509250505060405180910390f35b610223611000565b61034e6004803603604081101561056957600080fd5b50803590602001356001600160a01b0316611006565b61034e6004803603604081101561059557600080fd5b810190602081018135600160201b8111156105af57600080fd5b8201836020820111156105c157600080fd5b803590602001918460208302840111600160201b831117156105e257600080fd5b919080806020026020016040519081016040528093929190818152602001838360200280828437600092019190915250929550505090356001600160a01b031691506110349050565b6101f56004803603602081101561064157600080fd5b5035611080565b6106656004803603602081101561065e57600080fd5b50356110c4565b60405180848152602001836001600160a01b03166001600160a01b0316815260200180602001828103825283818151815260200191508051906020019080838360005b838110156106c05781810151838201526020016106a8565b50505050905090810190601f1680156106ed5780820380516001836020036101000a031916815260200191505b5094505050505060405180910390f35b6101f56004803603606081101561071357600080fd5b508035906001600160a01b036020820135169060400135151561117d565b61034e6004803603602081101561074757600080fd5b503561163f565b610756611646565b604051808060200180602001838103835285818151815260200191508051906020019060200280838360005b8381101561079a578181015183820152602001610782565b50505050905001838103825284818151815260200191508051906020019060200280838360005b838110156107d95781810151838201526020016107c1565b5050505090500194505050505060405180910390f35b61080c6004803603602081101561080557600080fd5b5035611746565b60405180846001600160a01b03166001600160a01b031681526020018060200180602001838103835285818151815260200191508051906020019060200280838360005b83811015610868578181015183820152602001610850565b50505050905001838103825284818151815260200191508051906020019080838360005b838110156108a457818101518382015260200161088c565b50505050905090810190601f1680156108d15780820380516001836020036101000a031916815260200191505b509550505050505060405180910390f35b6108ea611868565b604080516001600160a01b039092168252519081900360200190f35b6000818152600360209081526040808320600180820154600490920180548451600261010094831615949094026000190190911692909204601f81018690048602830186019094528382526060959490936001600160a01b039093169284918301828280156109b65780601f1061098b576101008083540402835291602001916109b6565b820191906000526020600020905b81548152906001019060200180831161099957829003601f168201915b5050505050915091509150915091565b60008281526003602052604090206001015482906001600160a01b03163314610a32576040805162461bcd60e51b81526020600482015260196024820152782ab9b2b91034b9903737ba1033b937bab81031b932b0ba37b960391b604482015290519081900360640190fd5b5060009182526003602052604090912060010180546001600160a01b0319166001600160a01b03909216919091179055565b6000610a6e61193b565b60008481526003602090815260409182902082516080810184528154815260018201546001600160a01b03168184015260028201805485518186028101860187528181529295939493860193830182828015610af357602002820191906000526020600020905b81546001600160a01b03168152600190910190602001808311610ad5575b505050918352505060048201805460408051602060026001851615610100026000190190941693909304601f8101849004840282018401909252818152938201939291830182828015610b875780601f10610b5c57610100808354040283529160200191610b87565b820191906000526020600020905b815481529060010190602001808311610b6a57829003601f168201915b505050505081525050905060008090505b816040015151811015610be757836001600160a01b031682604001518281518110610bbf57fe5b60200260200101516001600160a01b03161415610bdf579150610bef9050565b600101610b98565b506002549150505b92915050565b600081815260036020908152604091829020600201805483518184028101840190945280845260609392830182828015610c5857602002820191906000526020600020905b81546001600160a01b03168152600190910190602001808311610c3a575b505050505090505b919050565b6000805b8351811015610ca657610c8f848281518110610c8157fe5b602002602001015184611006565b15610c9e576001915050610bef565b600101610c69565b5060009392505050565b60008281526003602052604090206001015482906001600160a01b03163314610d1c576040805162461bcd60e51b81526020600482015260196024820152782ab9b2b91034b9903737ba1033b937bab81031b932b0ba37b960391b604482015290519081900360640190fd5b60005b8251811015610de35760036000858152602001908152602001600020600201838281518110610d4a57fe5b602090810291909101810151825460018082018555600094855283852090910180546001600160a01b0319166001600160a01b0390931692909217909155868352600391829052604083208651919392019190869085908110610da957fe5b6020908102919091018101516001600160a01b03168252810191909152604001600020805460ff1916911515919091179055600101610d1f565b50505050565b60018054600090815260036020526040812091820180546001600160a01b03191633179055908215610e5c57600281018054600181810183556000928352602080842090920180546001600160a01b031916339081179091558352600384019091526040909120805460ff191690911790555b8351610e71906004830190602087019061196c565b5050600180548082019091559392505050565b604080518082018252601081526f181899199a1a9b1b9c1cb0b131b232b360811b60208201528151602a80825260608281019094526001600160a01b03851692918491602082018180388339019050509050600360fc1b81600081518110610ee857fe5b60200101906001600160f81b031916908160001a905350600f60fb1b81600181518110610f1157fe5b60200101906001600160f81b031916908160001a90535060005b6014811015610ff7578260048583600c0160208110610f4657fe5b1a60f81b6001600160f81b031916901c60f81c60ff1681518110610f6657fe5b602001015160f81c60f81b828260020260020181518110610f8357fe5b60200101906001600160f81b031916908160001a905350828482600c0160208110610faa57fe5b825191901a600f16908110610fbb57fe5b602001015160f81c60f81b828260020260030181518110610fd857fe5b60200101906001600160f81b031916908160001a905350600101610f2b565b50949350505050565b60015481565b60008281526003602081815260408084206001600160a01b0386168552909201905290205460ff1692915050565b6000805b8351811015610ca657826001600160a01b031684828151811061105757fe5b60200260200101516001600160a01b03161415611078576001915050610bef565b600101611038565b60008181526003602052604081208181556001810180546001600160a01b0319169055906110b160028301826119ea565b6110bf600483016000611a0b565b505050565b60036020908152600091825260409182902080546001808301546004840180548751600261010095831615959095026000190190911693909304601f810187900487028401870190975286835292956001600160a01b03909116949192918301828280156111735780601f1061114857610100808354040283529160200191611173565b820191906000526020600020905b81548152906001019060200180831161115657829003601f168201915b5050505050905083565b6000838152600360205260409020600101546001600160a01b03163314806111ad5750336001600160a01b038316145b6111e85760405162461bcd60e51b815260040180806020018281038252602c815260200180611a8d602c913960400191505060405180910390fd5b60008381526003602081815260408084206001600160a01b0387168552909201905290205460ff1661124b5760405162461bcd60e51b815260040180806020018281038252603c815260200180611ab9603c913960400191505060405180910390fd5b60008381526003602081815260408084206001600160a01b038716855290920190528120805460ff191690556112818484610a64565b6000858152600360205260409020600201805491925060001982018281106112a557fe5b60009182526020808320909101548783526003909152604090912060020180546001600160a01b0390921691849081106112db57fe5b9060005260206000200160006101000a8154816001600160a01b0302191690836001600160a01b0316021790555060036000868152602001908152602001600020600201600182038154811061132d57fe5b6000918252602080832090910180546001600160a01b03191690558682526003905260409020600201805490611367906000198301611a4f565b50821561163857606061137985610e84565b600087815260036020526040902060040161139388611877565b60405160200180806402ab9b2b9160dd1b81525060050184805190602001908083835b602083106113d55780518252601f1990920191602091820191016113b6565b6001836020036101000a03801982511681845116808217855250505050505090500180740103430b9903632b33a103cb7bab91033b937bab81605d1b8152506015018380546001816001161561010002031660029004801561146e5780601f1061144c57610100808354040283529182019161146e565b820191906000526020600020905b81548152906001019060200180831161145a575b505080650101424a21d160d51b81525060060182805190602001908083835b602083106114ac5780518252601f19909201916020918201910161148d565b6001836020036101000a0380198251168184511680821785525050505050509050018061149760f11b815250600201935050505060405160208183030381529060405290506000809054906101000a90046001600160a01b03166001600160a01b0316635ae7f97030600360008a815260200190815260200160002060010160009054906101000a90046001600160a01b0316846040518463ffffffff1660e01b815260040180846001600160a01b03166001600160a01b03168152602001836001600160a01b03166001600160a01b0316815260200180602001828103825283818151815260200191508051906020019080838360005b838110156115bc5781810151838201526020016115a4565b50505050905090810190601f1680156115e95780820380516001836020036101000a031916815260200191505b50945050505050602060405180830381600087803b15801561160a57600080fd5b505af115801561161e573d6000803e3d6000fd5b505050506040513d602081101561163457600080fd5b5050505b5050505050565b6001541190565b6060806060600154604051908082528060200260200182016040528015611677578160200160208202803883390190505b50905060606001546040519080825280602002602001820160405280156116a8578160200160208202803883390190505b50905060005b60015481101561173c5760008181526003602052604090206001015483516001600160a01b03919091163314908490839081106116e757fe5b9115156020928302919091018201526000828152600380835260408083203384529091019092522054825160ff9091169083908390811061172457fe5b911515602092830291909101909101526001016116ae565b5090925090509091565b6000818152600360209081526040808320600181015460028201805484518187028101870190955280855260609586956001600160a01b039094169492936004909301929184918301828280156117c657602002820191906000526020600020905b81546001600160a01b031681526001909101906020018083116117a8575b5050845460408051602060026001851615610100026000190190941693909304601f8101849004840282018401909252818152959750869450925084019050828280156118545780601f1061182957610100808354040283529160200191611854565b820191906000526020600020905b81548152906001019060200180831161183757829003601f168201915b505050505090509250925092509193909250565b6000546001600160a01b031681565b6060818061189e5750506040805180820190915260018152600360fc1b6020820152610c60565b8060005b81156118b657600101600a820491506118a2565b6060816040519080825280601f01601f1916602001820160405280156118e3576020820181803883390190505b50905060001982015b841561193157600a850660300160f81b8282806001900393508151811061190f57fe5b60200101906001600160f81b031916908160001a905350600a850494506118ec565b5095945050505050565b60405180608001604052806000815260200160006001600160a01b0316815260200160608152602001606081525090565b828054600181600116156101000203166002900490600052602060002090601f016020900481019282601f106119ad57805160ff19168380011785556119da565b828001600101855582156119da579182015b828111156119da5782518255916020019190600101906119bf565b506119e6929150611a6f565b5090565b5080546000825590600052602060002090810190611a089190611a6f565b50565b50805460018160011615610100020316600290046000825580601f10611a315750611a08565b601f016020900490600052602060002090810190611a089190611a6f565b8154818355818111156110bf576000838152602090206110bf9181019083015b611a8991905b808211156119e65760008155600101611a75565b9056fe55736572206973206e6f742067726f75702063726561746f72206f722072656d6f7665732068696d73656c66476976656e2061646472657373206973206e6f742061206d656d62657220696e20746869732067726f75702c2063616e27742072656d6f7665206974a265627a7a72315820594e45c773b7262c704e8cfb4e0f3abb001882b09267c156e6a48f1c50c6308b64736f6c63430005110032",
  "source": "pragma solidity ^0.5.17;\n\nimport 'contracts/Fin4Messaging.sol';\nimport \"contracts/util/utils.sol\";\n\ncontract Fin4Groups is utils {\n\n    address public Fin4MessagingAddress;\n\n    constructor(address Fin4MessagingAddr) public {\n        Fin4MessagingAddress = Fin4MessagingAddr;\n    }\n\n    struct Group {\n        uint groupId;\n        address creator;\n        address[] members;\n        mapping(address => bool) membersSet;\n        string name;\n    }\n\n    uint public nextGroupId = 0;\n    uint private INVALID_INDEX = 9999;\n\n    mapping (uint => Group) public groups;\n\n    function groupExists(uint groupId) public view returns(bool) {\n        return groupId < nextGroupId; // in the future, consider group deletion? #ConceptualDecision\n    }\n\n    function DeleteGroup(uint groupId) public{\n        delete groups[groupId];\n    }\n\n    modifier userIsCreator(uint groupId) {\n        require(groups[groupId].creator == msg.sender, \"User is not group creator\");\n        _;\n    }\n\n    function transferOwnership(uint groupId, address newOwner) public userIsCreator(groupId) {\n        groups[groupId].creator = newOwner;\n    }\n\n    function getGroup(uint groupId) public view returns(address, address[] memory, string memory) {\n        return (groups[groupId].creator, groups[groupId].members, groups[groupId].name);\n    }\n\n    function getGroupNameAndCreator(uint groupId) public view returns(string memory, address) {\n        return (groups[groupId].name, groups[groupId].creator);\n    }\n\n    function getGroupsInfo() public view returns(bool[] memory, bool[] memory) {\n        bool[] memory userIsCreatorArr = new bool[](nextGroupId);\n        bool[] memory userIsMemberArr = new bool[](nextGroupId);\n        for (uint i = 0; i < nextGroupId; i ++) {\n            userIsCreatorArr[i] = groups[i].creator == msg.sender;\n            userIsMemberArr[i] = groups[i].membersSet[msg.sender];\n        }\n        return (userIsCreatorArr, userIsMemberArr);\n    }\n\n    function createGroup(string memory name, bool addCreatorAsMember) public returns(uint) {\n        Group storage group = groups[nextGroupId];\n        group.creator = msg.sender;\n        if (addCreatorAsMember) {\n            group.members.push(msg.sender);\n            group.membersSet[msg.sender] = true;\n        }\n        group.name = name;\n        nextGroupId ++;\n        return nextGroupId - 1;\n    }\n\n    function addMembers(uint groupId, address[] memory newMembers) public  userIsCreator(groupId) {\n        for (uint i = 0; i < newMembers.length; i ++) {\n            groups[groupId].members.push(newMembers[i]);\n            groups[groupId].membersSet[newMembers[i]] = true;\n        }\n    }\n\n    function removeMember(uint groupId, address memberToRemove, bool notifyOwner) public {\n        require(groups[groupId].creator == msg.sender || msg.sender == memberToRemove,\n            \"User is not group creator or removes himself\");\n        require(groups[groupId].membersSet[memberToRemove], \"Given address is not a member in this group, can't remove it\");\n        groups[groupId].membersSet[memberToRemove] = false;\n        uint index = getIndexOfMember(groupId, memberToRemove);\n        uint length = groups[groupId].members.length;\n        // overwrite the deletion candidate with the last element\n        groups[groupId].members[index] = groups[groupId].members[length - 1];\n        // then delete the last element, via https://ethereum.stackexchange.com/a/1528/56047\n        delete groups[groupId].members[length - 1];\n        groups[groupId].members.length --; // via https://stackoverflow.com/a/51171477/2474159\n        if (notifyOwner) {\n            string memory message = string(abi.encodePacked(\"User \", addressToString(memberToRemove),\n            \" has left your group \", groups[groupId].name, \" (ID: \", uint2str(groupId), \").\"));\n            Fin4Messaging(Fin4MessagingAddress).addInfoMessage(address(this), groups[groupId].creator, message);\n        }\n    }\n\n    function getIndexOfMember(uint groupId, address member) public view returns(uint) {\n        Group memory group = groups[groupId];\n        for (uint i = 0; i < group.members.length; i ++) {\n            if (group.members[i] == member) {\n                return i;\n            }\n        }\n        return INVALID_INDEX;\n    }\n\n    function isMember(uint groupId, address memberToCheck) public view returns(bool) {\n        return groups[groupId].membersSet[memberToCheck];\n    }\n\n    // can contain zero addresses\n    function getGroupMembers(uint groupId) public view returns(address[] memory) {\n        return groups[groupId].members;\n    }\n\n    // used by ApprovalByUsersOrGroups and in the BlockThese and AllowOnlyThese noninteractive verifiers\n    function userIsInOneOfTheseGroups(uint[] memory groupIds, address user) public view returns(bool) {\n        for (uint i = 0; i < groupIds.length; i ++) {\n            if (isMember(groupIds[i], user)) {\n                return true;\n            }\n        }\n        return false;\n    }\n}\n",
  "sourcePath": "/home/cantonioupao/susDAO-saveMe/FIN4Contracts/contracts/Fin4Groups.sol",
  "compiler": {
    "name": "solc",
    "version": "0.5.17+commit.d19bba13.Emscripten.clang"
  },
  "schemaVersion": "3.3.1",
  "updatedAt": "2020-12-03T18:31:09.671Z",
  "devdoc": {
    "methods": {}
  },
  "userdoc": {
    "methods": {}
  }
}