{
  "contractName": "Fin4Verifying",
  "abi": [
    {
      "anonymous": false,
      "inputs": [
        {
          "indexed": false,
          "internalType": "uint256",
          "name": "submissionId",
          "type": "uint256"
        },
        {
          "indexed": false,
          "internalType": "address",
          "name": "verifierType",
          "type": "address"
        },
        {
          "indexed": false,
          "internalType": "address",
          "name": "token",
          "type": "address"
        },
        {
          "indexed": false,
          "internalType": "address",
          "name": "user",
          "type": "address"
        },
        {
          "indexed": false,
          "internalType": "uint256",
          "name": "timestamp",
          "type": "uint256"
        },
        {
          "indexed": false,
          "internalType": "uint256",
          "name": "contentType",
          "type": "uint256"
        },
        {
          "indexed": false,
          "internalType": "string",
          "name": "content",
          "type": "string"
        }
      ],
      "name": "SubmissionAdded",
      "type": "event"
    },
    {
      "constant": true,
      "inputs": [],
      "name": "nextSubmissionId",
      "outputs": [
        {
          "internalType": "uint256",
          "name": "",
          "type": "uint256"
        }
      ],
      "payable": false,
      "stateMutability": "view",
      "type": "function"
    },
    {
      "constant": true,
      "inputs": [
        {
          "internalType": "uint256",
          "name": "",
          "type": "uint256"
        }
      ],
      "name": "submissions",
      "outputs": [
        {
          "internalType": "uint256",
          "name": "submissionId",
          "type": "uint256"
        },
        {
          "internalType": "address",
          "name": "verifierType",
          "type": "address"
        },
        {
          "internalType": "address",
          "name": "token",
          "type": "address"
        },
        {
          "internalType": "address",
          "name": "user",
          "type": "address"
        },
        {
          "internalType": "uint256",
          "name": "timestamp",
          "type": "uint256"
        },
        {
          "internalType": "uint256",
          "name": "contentType",
          "type": "uint256"
        },
        {
          "internalType": "string",
          "name": "content",
          "type": "string"
        }
      ],
      "payable": false,
      "stateMutability": "view",
      "type": "function"
    },
    {
      "constant": true,
      "inputs": [
        {
          "internalType": "uint256",
          "name": "",
          "type": "uint256"
        }
      ],
      "name": "verifierTypes",
      "outputs": [
        {
          "internalType": "address",
          "name": "",
          "type": "address"
        }
      ],
      "payable": false,
      "stateMutability": "view",
      "type": "function"
    },
    {
      "constant": true,
      "inputs": [
        {
          "internalType": "string",
          "name": "",
          "type": "string"
        }
      ],
      "name": "verifiers",
      "outputs": [
        {
          "internalType": "address",
          "name": "",
          "type": "address"
        }
      ],
      "payable": false,
      "stateMutability": "view",
      "type": "function"
    },
    {
      "constant": false,
      "inputs": [
        {
          "internalType": "address",
          "name": "verifierType",
          "type": "address"
        }
      ],
      "name": "addVerifierType",
      "outputs": [
        {
          "internalType": "bool",
          "name": "",
          "type": "bool"
        }
      ],
      "payable": false,
      "stateMutability": "nonpayable",
      "type": "function"
    },
    {
      "constant": true,
      "inputs": [],
      "name": "getVerifierTypes",
      "outputs": [
        {
          "internalType": "address[]",
          "name": "",
          "type": "address[]"
        }
      ],
      "payable": false,
      "stateMutability": "view",
      "type": "function"
    },
    {
      "constant": true,
      "inputs": [
        {
          "internalType": "address",
          "name": "verifierType",
          "type": "address"
        }
      ],
      "name": "getVerifierTypeInfo",
      "outputs": [
        {
          "internalType": "string",
          "name": "",
          "type": "string"
        },
        {
          "internalType": "string",
          "name": "",
          "type": "string"
        },
        {
          "internalType": "string",
          "name": "",
          "type": "string"
        },
        {
          "internalType": "string",
          "name": "",
          "type": "string"
        }
      ],
      "payable": false,
      "stateMutability": "view",
      "type": "function"
    },
    {
      "constant": true,
      "inputs": [
        {
          "internalType": "address",
          "name": "verifierTypeToCheck",
          "type": "address"
        }
      ],
      "name": "verifierTypeIsRegistered",
      "outputs": [
        {
          "internalType": "bool",
          "name": "",
          "type": "bool"
        }
      ],
      "payable": false,
      "stateMutability": "view",
      "type": "function"
    },
    {
      "constant": false,
      "inputs": [
        {
          "internalType": "address",
          "name": "verifierType",
          "type": "address"
        },
        {
          "internalType": "address",
          "name": "token",
          "type": "address"
        },
        {
          "internalType": "address",
          "name": "user",
          "type": "address"
        },
        {
          "internalType": "uint256",
          "name": "timestamp",
          "type": "uint256"
        },
        {
          "internalType": "uint256",
          "name": "contentType",
          "type": "uint256"
        },
        {
          "internalType": "string",
          "name": "content",
          "type": "string"
        }
      ],
      "name": "addSubmission",
      "outputs": [],
      "payable": false,
      "stateMutability": "nonpayable",
      "type": "function"
    },
    {
      "constant": true,
      "inputs": [],
      "name": "getSubmissionsCount",
      "outputs": [
        {
          "internalType": "uint256",
          "name": "",
          "type": "uint256"
        }
      ],
      "payable": false,
      "stateMutability": "view",
      "type": "function"
    }
  ],
  "bytecode": "0x6080604052600060035534801561001557600080fd5b50611069806100256000396000f3fe608060405234801561001057600080fd5b506004361061009e5760003560e01c8063ac205deb11610066578063ac205deb14610308578063ad73349e146103ac578063c99498411461045f578063efc4f6a614610485578063efdfdca9146105585761009e565b806335b96901146100a357806336029918146100bd57806359260c93146100c55780635df0c976146100fe578063680e19a114610138575b600080fd5b6100ab6105b0565b60408051918252519081900360200190f35b6100ab6105b6565b6100e2600480360360208110156100db57600080fd5b50356105bd565b604080516001600160a01b039092168252519081900360200190f35b6101246004803603602081101561011457600080fd5b50356001600160a01b03166105e4565b604080519115158252519081900360200190f35b61015e6004803603602081101561014e57600080fd5b50356001600160a01b0316610641565b6040518080602001806020018060200180602001858103855289818151815260200191508051906020019080838360005b838110156101a757818101518382015260200161018f565b50505050905090810190601f1680156101d45780820380516001836020036101000a031916815260200191505b5085810384528851815288516020918201918a019080838360005b838110156102075781810151838201526020016101ef565b50505050905090810190601f1680156102345780820380516001836020036101000a031916815260200191505b50858103835287518152875160209182019189019080838360005b8381101561026757818101518382015260200161024f565b50505050905090810190601f1680156102945780820380516001836020036101000a031916815260200191505b50858103825286518152865160209182019188019080838360005b838110156102c75781810151838201526020016102af565b50505050905090810190601f1680156102f45780820380516001836020036101000a031916815260200191505b509850505050505050505060405180910390f35b6100e26004803603602081101561031e57600080fd5b810190602081018135600160201b81111561033857600080fd5b82018360208201111561034a57600080fd5b803590602001918460018302840111600160201b8311171561036b57600080fd5b91908080601f016020809104026020016040519081016040528093929190818152602001838380828437600092019190915250929550610978945050505050565b6103c9600480360360208110156103c257600080fd5b503561099e565b60405180888152602001876001600160a01b03166001600160a01b03168152602001866001600160a01b03166001600160a01b03168152602001856001600160a01b03166001600160a01b031681526020018481526020018381526020018060200182810382528381815181526020019150805190602001908083836000838110156102c75781810151838201526020016102af565b6101246004803603602081101561047557600080fd5b50356001600160a01b0316610a88565b610556600480360360c081101561049b57600080fd5b6001600160a01b038235811692602081013582169260408201359092169160608201359160808101359181019060c0810160a0820135600160201b8111156104e257600080fd5b8201836020820111156104f457600080fd5b803590602001918460018302840111600160201b8311171561051557600080fd5b91908080601f016020809104026020016040519081016040528093929190818152602001838380828437600092019190915250929550610c7c945050505050565b005b610560610f3a565b60408051602080825283518183015283519192839290830191858101910280838360005b8381101561059c578181015183820152602001610584565b505050509050019250505060405180910390f35b60035481565b6002545b90565b600081815481106105ca57fe5b6000918252602090912001546001600160a01b0316905081565b6000805b60005481101561063657826001600160a01b03166000828154811061060957fe5b6000918252602090912001546001600160a01b0316141561062e57600191505061063c565b6001016105e8565b50600090505b919050565b606080606080846001600160a01b0316635a9b0b896040518163ffffffff1660e01b815260040160006040518083038186803b15801561068057600080fd5b505afa158015610694573d6000803e3d6000fd5b505050506040513d6000823e601f3d908101601f1916820160405260808110156106bd57600080fd5b8101908080516040519392919084600160201b8211156106dc57600080fd5b9083019060208201858111156106f157600080fd5b8251600160201b81118282018810171561070a57600080fd5b82525081516020918201929091019080838360005b8381101561073757818101518382015260200161071f565b50505050905090810190601f1680156107645780820380516001836020036101000a031916815260200191505b5060405260200180516040519392919084600160201b82111561078657600080fd5b90830190602082018581111561079b57600080fd5b8251600160201b8111828201881017156107b457600080fd5b82525081516020918201929091019080838360005b838110156107e15781810151838201526020016107c9565b50505050905090810190601f16801561080e5780820380516001836020036101000a031916815260200191505b5060405260200180516040519392919084600160201b82111561083057600080fd5b90830190602082018581111561084557600080fd5b8251600160201b81118282018810171561085e57600080fd5b82525081516020918201929091019080838360005b8381101561088b578181015183820152602001610873565b50505050905090810190601f1680156108b85780820380516001836020036101000a031916815260200191505b5060405260200180516040519392919084600160201b8211156108da57600080fd5b9083019060208201858111156108ef57600080fd5b8251600160201b81118282018810171561090857600080fd5b82525081516020918201929091019080838360005b8381101561093557818101518382015260200161091d565b50505050905090810190601f1680156109625780820380516001836020036101000a031916815260200191505b5060405250505093509350935093509193509193565b80516020818301810180516001825292820191909301209152546001600160a01b031681565b600281815481106109ab57fe5b6000918252602091829020600790910201805460018083015460028085015460038601546004870154600588015460068901805460408051601f6000199b841615610100029b909b01909216979097049889018c90048c0281018c01909652878652979a506001600160a01b03958616999386169892909516969095919392909190830182828015610a7e5780601f10610a5357610100808354040283529160200191610a7e565b820191906000526020600020905b815481529060010190602001808311610a6157829003601f168201915b5050505050905087565b60008054600180820183558280527f290decd9548b62a8d60345a988386fc84ba6bc95484008f6362f93160ef3e56390910180546001600160a01b0319166001600160a01b038516908117909155604080516305f5f79f60e21b81529051859392916317d7de7c9160048083019288929190829003018186803b158015610b0e57600080fd5b505afa158015610b22573d6000803e3d6000fd5b505050506040513d6000823e601f3d908101601f191682016040526020811015610b4b57600080fd5b8101908080516040519392919084600160201b821115610b6a57600080fd5b908301906020820185811115610b7f57600080fd5b8251600160201b811182820188101715610b9857600080fd5b82525081516020918201929091019080838360005b83811015610bc5578181015183820152602001610bad565b50505050905090810190601f168015610bf25780820380516001836020036101000a031916815260200191505b506040525050506040518082805190602001908083835b60208310610c285780518252601f199092019160209182019101610c09565b51815160209384036101000a6000190180199092169116179052920194855250604051938490030190922080546001600160a01b0319166001600160a01b0394909416939093179092555060019392505050565b6040805160e08101825260035481526001600160a01b038089166020808401918252898316948401948552888316606085019081526080850189815260a0860189815260c087018981526002805460018101808355600092909252895160079091027f405787fa12a823e0f2b7631cc41b3ba8828b3321ca811111fa75cd3aa3bb5ace810191825597517f405787fa12a823e0f2b7631cc41b3ba8828b3321ca811111fa75cd3aa3bb5acf89018054918b166001600160a01b03199283161790559a517f405787fa12a823e0f2b7631cc41b3ba8828b3321ca811111fa75cd3aa3bb5ad089018054918b16918d1691909117905594517f405787fa12a823e0f2b7631cc41b3ba8828b3321ca811111fa75cd3aa3bb5ad188018054919099169a169990991790965590517f405787fa12a823e0f2b7631cc41b3ba8828b3321ca811111fa75cd3aa3bb5ad2850155517f405787fa12a823e0f2b7631cc41b3ba8828b3321ca811111fa75cd3aa3bb5ad384015592518051610e24937f405787fa12a823e0f2b7631cc41b3ba8828b3321ca811111fa75cd3aa3bb5ad401929190910190610f9c565b505050507f07b8acf9c7175747c1d490b0ec659de445d0237c68801671cd14ddceb822fa1160035487878787878760405180888152602001876001600160a01b03166001600160a01b03168152602001866001600160a01b03166001600160a01b03168152602001856001600160a01b03166001600160a01b0316815260200184815260200183815260200180602001828103825283818151815260200191508051906020019080838360005b83811015610ee9578181015183820152602001610ed1565b50505050905090810190601f168015610f165780820380516001836020036101000a031916815260200191505b509850505050505050505060405180910390a1505060038054600101905550505050565b60606000805480602002602001604051908101604052809291908181526020018280548015610f9257602002820191906000526020600020905b81546001600160a01b03168152600190910190602001808311610f74575b5050505050905090565b828054600181600116156101000203166002900490600052602060002090601f016020900481019282601f10610fdd57805160ff191683800117855561100a565b8280016001018555821561100a579182015b8281111561100a578251825591602001919060010190610fef565b5061101692915061101a565b5090565b6105ba91905b80821115611016576000815560010161102056fea265627a7a7231582078e1854dc1f5a2064918add482fd3b337266c59a0bf4a10f05652260de71267b64736f6c63430005110032",
  "source": "pragma solidity ^0.5.17;\n\nimport 'contracts/verifiers/Fin4BaseVerifierType.sol';\n// Contract that handles communication between the FIN4 system and the verifier system\ncontract Fin4Verifying {\n\n    event SubmissionAdded(uint submissionId, address verifierType, address token, address user,\n        uint timestamp, uint contentType, string content);\n\n    // all the verifier types that token creators can use\n    address[] public verifierTypes;\n    mapping (string => address) public verifiers;\n\n    function addVerifierType(address verifierType) public returns(bool) {\n        verifierTypes.push(verifierType);\n        verifiers[Fin4BaseVerifierType(verifierType).getName()] = verifierType;\n        return true;\n    }\n\n    function getVerifierTypes() public view returns(address[] memory) {\n        return verifierTypes;\n    }\n\n    function getVerifierTypeInfo(address verifierType) public view returns(string memory, string memory, string memory, string memory) {\n        // require(verifierTypeIsRegistered(verifierType), \"Address is not registered as verifier type\");\n        return Fin4BaseVerifierType(verifierType).getInfo();\n    }\n\n    // called from Fin4Token instances to ensure the required verifier types there are a subset of the verifierTypes here\n    function verifierTypeIsRegistered(address verifierTypeToCheck) public view returns(bool) {\n        for (uint i = 0; i < verifierTypes.length; i++) {\n            if (verifierTypes[i] == verifierTypeToCheck) {\n                return true;\n            }\n        }\n        return false;\n    }\n\n    // ------------------------- COLLECTING SUBMISSIONS -------------------------\n\n    struct Submission {\n        uint submissionId;\n        address verifierType; // The verifier type who sent this submission in\n        address token;\n        address user;\n        uint timestamp;\n        uint contentType; // 0 = text, 1 = picture (IPFS hash), 2 = vote / TODO use enum\n        string content;\n    }\n\n    Submission[] public submissions; // submissions() used directly as getter in frontend\n    uint public nextSubmissionId = 0;\n\n    function addSubmission(address verifierType, address token, address user, uint timestamp, uint contentType, string memory content) public {\n        submissions.push(Submission(nextSubmissionId, verifierType, token, user, timestamp, contentType, content));\n        emit SubmissionAdded(nextSubmissionId, verifierType, token, user, timestamp, contentType, content);\n        nextSubmissionId += 1;\n    }\n\n    function getSubmissionsCount() public view returns(uint) {\n        return submissions.length;\n    }\n}\n",
  "sourcePath": "/home/cantonioupao/susDAO-saveMe/FIN4Contracts/contracts/Fin4Verifying.sol",
  "compiler": {
    "name": "solc",
    "version": "0.5.17+commit.d19bba13.Emscripten.clang"
  },
  "schemaVersion": "3.3.1",
  "updatedAt": "2020-12-03T18:31:09.737Z",
  "devdoc": {
    "methods": {}
  },
  "userdoc": {
    "methods": {}
  }
}