{
  "contractName": "Fin4TokenManagement",
  "abi": [
    {
      "inputs": [
        {
          "internalType": "address",
          "name": "Fin4SystemParametersAddr",
          "type": "address"
        }
      ],
      "payable": false,
      "stateMutability": "nonpayable",
      "type": "constructor"
    },
    {
      "anonymous": false,
      "inputs": [
        {
          "indexed": false,
          "internalType": "address",
          "name": "addr",
          "type": "address"
        },
        {
          "indexed": false,
          "internalType": "string",
          "name": "name",
          "type": "string"
        },
        {
          "indexed": false,
          "internalType": "string",
          "name": "symbol",
          "type": "string"
        },
        {
          "indexed": false,
          "internalType": "string",
          "name": "description",
          "type": "string"
        },
        {
          "indexed": false,
          "internalType": "string",
          "name": "unit",
          "type": "string"
        },
        {
          "indexed": false,
          "internalType": "address",
          "name": "creator",
          "type": "address"
        },
        {
          "indexed": false,
          "internalType": "uint256",
          "name": "creationTime",
          "type": "uint256"
        },
        {
          "indexed": false,
          "internalType": "bool",
          "name": "hasFixedMintingQuantity",
          "type": "bool"
        }
      ],
      "name": "Fin4TokenCreated",
      "type": "event"
    },
    {
      "constant": true,
      "inputs": [],
      "name": "Fin4ReputationAddress",
      "outputs": [
        {
          "internalType": "address",
          "name": "",
          "type": "address"
        }
      ],
      "payable": false,
      "stateMutability": "view",
      "type": "function"
    },
    {
      "constant": true,
      "inputs": [],
      "name": "Fin4SystemParametersAddress",
      "outputs": [
        {
          "internalType": "address",
          "name": "",
          "type": "address"
        }
      ],
      "payable": false,
      "stateMutability": "view",
      "type": "function"
    },
    {
      "constant": true,
      "inputs": [
        {
          "internalType": "uint256",
          "name": "",
          "type": "uint256"
        }
      ],
      "name": "allFin4Tokens",
      "outputs": [
        {
          "internalType": "address",
          "name": "",
          "type": "address"
        }
      ],
      "payable": false,
      "stateMutability": "view",
      "type": "function"
    },
    {
      "constant": true,
      "inputs": [],
      "name": "creator",
      "outputs": [
        {
          "internalType": "address",
          "name": "",
          "type": "address"
        }
      ],
      "payable": false,
      "stateMutability": "view",
      "type": "function"
    },
    {
      "constant": false,
      "inputs": [
        {
          "internalType": "address",
          "name": "Fin4ReputationAddr",
          "type": "address"
        }
      ],
      "name": "setFin4ReputationAddress",
      "outputs": [],
      "payable": false,
      "stateMutability": "nonpayable",
      "type": "function"
    },
    {
      "constant": false,
      "inputs": [
        {
          "internalType": "address",
          "name": "tokenAddress",
          "type": "address"
        }
      ],
      "name": "registerNewToken",
      "outputs": [],
      "payable": false,
      "stateMutability": "nonpayable",
      "type": "function"
    },
    {
      "constant": true,
      "inputs": [],
      "name": "getAllFin4Tokens",
      "outputs": [
        {
          "internalType": "address[]",
          "name": "",
          "type": "address[]"
        }
      ],
      "payable": false,
      "stateMutability": "view",
      "type": "function"
    },
    {
      "constant": true,
      "inputs": [
        {
          "internalType": "address",
          "name": "tokenAddr",
          "type": "address"
        }
      ],
      "name": "getTokenInfo",
      "outputs": [
        {
          "internalType": "bool",
          "name": "",
          "type": "bool"
        },
        {
          "internalType": "string",
          "name": "",
          "type": "string"
        },
        {
          "internalType": "string",
          "name": "",
          "type": "string"
        },
        {
          "internalType": "string",
          "name": "",
          "type": "string"
        },
        {
          "internalType": "string",
          "name": "",
          "type": "string"
        },
        {
          "internalType": "uint256",
          "name": "",
          "type": "uint256"
        },
        {
          "internalType": "uint256",
          "name": "",
          "type": "uint256"
        },
        {
          "internalType": "bool",
          "name": "",
          "type": "bool"
        }
      ],
      "payable": false,
      "stateMutability": "view",
      "type": "function"
    },
    {
      "constant": true,
      "inputs": [
        {
          "internalType": "address",
          "name": "user",
          "type": "address"
        },
        {
          "internalType": "address",
          "name": "tokenAddress",
          "type": "address"
        }
      ],
      "name": "getBalance",
      "outputs": [
        {
          "internalType": "uint256",
          "name": "",
          "type": "uint256"
        }
      ],
      "payable": false,
      "stateMutability": "view",
      "type": "function"
    },
    {
      "constant": true,
      "inputs": [],
      "name": "getMyNonzeroTokenBalances",
      "outputs": [
        {
          "internalType": "address[]",
          "name": "",
          "type": "address[]"
        },
        {
          "internalType": "uint256[]",
          "name": "",
          "type": "uint256[]"
        }
      ],
      "payable": false,
      "stateMutability": "view",
      "type": "function"
    }
  ],
  "bytecode": "0x6080604052600280546001600160a01b031916905534801561002057600080fd5b506040516115b03803806115b08339818101604052602081101561004357600080fd5b5051600080546001600160a01b03199081163317909155600180546001600160a01b039093169290911691909117905561152e806100826000396000f3fe608060405234801561001057600080fd5b506004361061009e5760003560e01c8063a418c51311610066578063a418c51314610338578063cbe6740814610360578063d4fac45d14610386578063e304603f146103c6578063f9d8f4c7146104675761009e565b806302d05d3f146100a3578063166d29e6146100c75780631f69565f146100e457806337be8795146102d85780639d4e4acb14610330575b600080fd5b6100ab61046f565b604080516001600160a01b039092168252519081900360200190f35b6100ab600480360360208110156100dd57600080fd5b503561047e565b61010a600480360360208110156100fa57600080fd5b50356001600160a01b03166104a5565b6040518089151515158152602001806020018060200180602001806020018881526020018781526020018615151515815260200185810385528c818151815260200191508051906020019080838360005b8381101561017357818101518382015260200161015b565b50505050905090810190601f1680156101a05780820380516001836020036101000a031916815260200191505b5085810384528b5181528b516020918201918d019080838360005b838110156101d35781810151838201526020016101bb565b50505050905090810190601f1680156102005780820380516001836020036101000a031916815260200191505b5085810383528a5181528a516020918201918c019080838360005b8381101561023357818101518382015260200161021b565b50505050905090810190601f1680156102605780820380516001836020036101000a031916815260200191505b5085810382528951815289516020918201918b019080838360005b8381101561029357818101518382015260200161027b565b50505050905090810190601f1680156102c05780820380516001836020036101000a031916815260200191505b509c5050505050505050505050505060405180910390f35b6102e0610835565b60408051602080825283518183015283519192839290830191858101910280838360005b8381101561031c578181015183820152602001610304565b505050509050019250505060405180910390f35b6100ab610897565b61035e6004803603602081101561034e57600080fd5b50356001600160a01b03166108a6565b005b61035e6004803603602081101561037657600080fd5b50356001600160a01b0316610911565b6103b46004803603604081101561039c57600080fd5b506001600160a01b03813581169160200135166112b9565b60408051918252519081900360200190f35b6103ce611344565b604051808060200180602001838103835285818151815260200191508051906020019060200280838360005b838110156104125781810151838201526020016103fa565b50505050905001838103825284818151815260200191508051906020019060200280838360005b83811015610451578181015183820152602001610439565b5050505090500194505050505060405180910390f35b6100ab6114ac565b6000546001600160a01b031681565b6003818154811061048b57fe5b6000918252602090912001546001600160a01b0316905081565b60006060806060806000806000886001600160a01b0316631f69565f336040518263ffffffff1660e01b815260040180826001600160a01b03166001600160a01b0316815260200191505060006040518083038186803b15801561050857600080fd5b505afa15801561051c573d6000803e3d6000fd5b505050506040513d6000823e601f3d908101601f1916820160405261010081101561054657600080fd5b815160208301805160405192949293830192919084600160201b82111561056c57600080fd5b90830190602082018581111561058157600080fd5b8251600160201b81118282018810171561059a57600080fd5b82525081516020918201929091019080838360005b838110156105c75781810151838201526020016105af565b50505050905090810190601f1680156105f45780820380516001836020036101000a031916815260200191505b5060405260200180516040519392919084600160201b82111561061657600080fd5b90830190602082018581111561062b57600080fd5b8251600160201b81118282018810171561064457600080fd5b82525081516020918201929091019080838360005b83811015610671578181015183820152602001610659565b50505050905090810190601f16801561069e5780820380516001836020036101000a031916815260200191505b5060405260200180516040519392919084600160201b8211156106c057600080fd5b9083019060208201858111156106d557600080fd5b8251600160201b8111828201881017156106ee57600080fd5b82525081516020918201929091019080838360005b8381101561071b578181015183820152602001610703565b50505050905090810190601f1680156107485780820380516001836020036101000a031916815260200191505b5060405260200180516040519392919084600160201b82111561076a57600080fd5b90830190602082018581111561077f57600080fd5b8251600160201b81118282018810171561079857600080fd5b82525081516020918201929091019080838360005b838110156107c55781810151838201526020016107ad565b50505050905090810190601f1680156107f25780820380516001836020036101000a031916815260200191505b5060405260200180519060200190929190805190602001909291908051906020019092919050505097509750975097509750975097509750919395975091939597565b6060600380548060200260200160405190810160405280929190818152602001828054801561088d57602002820191906000526020600020905b81546001600160a01b0316815260019091019060200180831161086f575b5050505050905090565b6001546001600160a01b031681565b6000546001600160a01b031633146108ef5760405162461bcd60e51b815260040180806020018281038252603e8152602001806114bc603e913960400191505060405180910390fd5b600280546001600160a01b0319166001600160a01b0392909216919091179055565b60025481906001600160a01b031615610a9a57600260009054906101000a90046001600160a01b03166001600160a01b03166340c10f19826001600160a01b0316639c6790176040518163ffffffff1660e01b815260040160206040518083038186803b15801561098157600080fd5b505afa158015610995573d6000803e3d6000fd5b505050506040513d60208110156109ab57600080fd5b50516001546040805163a93eb36d60e01b815290516001600160a01b039092169163a93eb36d91600480820192602092909190829003018186803b1580156109f257600080fd5b505afa158015610a06573d6000803e3d6000fd5b505050506040513d6020811015610a1c57600080fd5b5051604080516001600160e01b031960e086901b1681526001600160a01b03909316600484015260248301919091525160448083019260209291908290030181600087803b158015610a6d57600080fd5b505af1158015610a81573d6000803e3d6000fd5b505050506040513d6020811015610a9757600080fd5b50505b6003805460018101825560009182527fc2575a0e9e593c00f959f8c92f12db2869c3395a3b0502d05e2516446f71f85b0180546001600160a01b0319166001600160a01b0385811691909117909155604080516306fdde0360e01b815290517f61c635cfe0bfa64def5a0dcdfe4575df2ccb684f9e991927a06d5d1c0cf3e4489386938616926306fdde039260048083019392829003018186803b158015610b4157600080fd5b505afa158015610b55573d6000803e3d6000fd5b505050506040513d6000823e601f3d908101601f191682016040526020811015610b7e57600080fd5b8101908080516040519392919084600160201b821115610b9d57600080fd5b908301906020820185811115610bb257600080fd5b8251600160201b811182820188101715610bcb57600080fd5b82525081516020918201929091019080838360005b83811015610bf8578181015183820152602001610be0565b50505050905090810190601f168015610c255780820380516001836020036101000a031916815260200191505b50604052505050836001600160a01b03166395d89b416040518163ffffffff1660e01b815260040160006040518083038186803b158015610c6557600080fd5b505afa158015610c79573d6000803e3d6000fd5b505050506040513d6000823e601f3d908101601f191682016040526020811015610ca257600080fd5b8101908080516040519392919084600160201b821115610cc157600080fd5b908301906020820185811115610cd657600080fd5b8251600160201b811182820188101715610cef57600080fd5b82525081516020918201929091019080838360005b83811015610d1c578181015183820152602001610d04565b50505050905090810190601f168015610d495780820380516001836020036101000a031916815260200191505b50604052505050846001600160a01b0316637284e4166040518163ffffffff1660e01b815260040160006040518083038186803b158015610d8957600080fd5b505afa158015610d9d573d6000803e3d6000fd5b505050506040513d6000823e601f3d908101601f191682016040526020811015610dc657600080fd5b8101908080516040519392919084600160201b821115610de557600080fd5b908301906020820185811115610dfa57600080fd5b8251600160201b811182820188101715610e1357600080fd5b82525081516020918201929091019080838360005b83811015610e40578181015183820152602001610e28565b50505050905090810190601f168015610e6d5780820380516001836020036101000a031916815260200191505b50604052505050856001600160a01b031663907af6c06040518163ffffffff1660e01b815260040160006040518083038186803b158015610ead57600080fd5b505afa158015610ec1573d6000803e3d6000fd5b505050506040513d6000823e601f3d908101601f191682016040526020811015610eea57600080fd5b8101908080516040519392919084600160201b821115610f0957600080fd5b908301906020820185811115610f1e57600080fd5b8251600160201b811182820188101715610f3757600080fd5b82525081516020918201929091019080838360005b83811015610f64578181015183820152602001610f4c565b50505050905090810190601f168015610f915780820380516001836020036101000a031916815260200191505b50604052505050866001600160a01b0316639c6790176040518163ffffffff1660e01b815260040160206040518083038186803b158015610fd157600080fd5b505afa158015610fe5573d6000803e3d6000fd5b505050506040513d6020811015610ffb57600080fd5b5051604080516377160e8f60e01b815290516001600160a01b038a16916377160e8f916004808301926020929190829003018186803b15801561103d57600080fd5b505afa158015611051573d6000803e3d6000fd5b505050506040513d602081101561106757600080fd5b5051604080516001622cb52b60e01b0319815290516001600160a01b038b169163ffd34ad5916004808301926020929190829003018186803b1580156110ac57600080fd5b505afa1580156110c0573d6000803e3d6000fd5b505050506040513d60208110156110d657600080fd5b5051604080516001600160a01b03808b168252851660a082015260c0810184905291151560e0830181905261010060208481018281528b51928601929092528a51929493919291840191606085019160808601916101208701918e019080838360005b83811015611151578181015183820152602001611139565b50505050905090810190601f16801561117e5780820380516001836020036101000a031916815260200191505b5085810384528b5181528b516020918201918d019080838360005b838110156111b1578181015183820152602001611199565b50505050905090810190601f1680156111de5780820380516001836020036101000a031916815260200191505b5085810383528a5181528a516020918201918c019080838360005b838110156112115781810151838201526020016111f9565b50505050905090810190601f16801561123e5780820380516001836020036101000a031916815260200191505b5085810382528951815289516020918201918b019080838360005b83811015611271578181015183820152602001611259565b50505050905090810190601f16801561129e5780820380516001836020036101000a031916815260200191505b509c5050505050505050505050505060405180910390a15050565b6000816001600160a01b03166370a08231846040518263ffffffff1660e01b815260040180826001600160a01b03166001600160a01b0316815260200191505060206040518083038186803b15801561131157600080fd5b505afa158015611325573d6000803e3d6000fd5b505050506040513d602081101561133b57600080fd5b50519392505050565b6060806000805b600354811015611397576000611382336003848154811061136857fe5b6000918252602090912001546001600160a01b03166112b9565b111561138f576001909101905b60010161134b565b506060816040519080825280602002602001820160405280156113c4578160200160208202803883390190505b5090506060826040519080825280602002602001820160405280156113f3578160200160208202803883390190505b50600093509050825b6003548110156114a1576000611419336003848154811061136857fe5b90508015611498576003828154811061142e57fe5b9060005260206000200160009054906101000a90046001600160a01b031684868151811061145857fe5b60200260200101906001600160a01b031690816001600160a01b0316815250508083868151811061148557fe5b6020026020010181815250506001850194505b506001016113fc565b509093509150509091565b6002546001600160a01b03168156fe4f6e6c79207468652063726561746f72206f66207468697320736d61727420636f6e74726163742063616e2063616c6c20746869732066756e6374696f6ea265627a7a72315820f0f9a11ab904e1471354c127f469ee6f3ad9e8efb6db1ebb695991f43097018564736f6c63430005110032",
  "source": "pragma solidity ^0.5.17;\n// pragma experimental ABIEncoderV2; --> allows string[] memory\n\nimport 'contracts/Fin4Token.sol';\nimport 'contracts/stub/MintingStub.sol';\nimport 'contracts/Fin4SystemParameters.sol';\n\ncontract Fin4TokenManagement {\n\n    // TODO do we need the indexed keyword for event params?\n    event Fin4TokenCreated(address addr, string name, string symbol, string description, string unit, address creator,\n        uint creationTime, bool hasFixedMintingQuantity);\n\n    address public creator;\n    address public Fin4SystemParametersAddress;\n    address public Fin4ReputationAddress = address(0);\n\n    constructor(address Fin4SystemParametersAddr) public {\n        creator = msg.sender;\n        Fin4SystemParametersAddress = Fin4SystemParametersAddr;\n    }\n\n    function setFin4ReputationAddress(address Fin4ReputationAddr) public {\n        require(msg.sender == creator, \"Only the creator of this smart contract can call this function\");\n        // TODO furthermore it should be only callable once? #ConceptualDecision #NoBackdoors\n        Fin4ReputationAddress = Fin4ReputationAddr;\n    }\n\n    address[] public allFin4Tokens;\n\n    function registerNewToken(address tokenAddress) public {\n        Fin4TokenBase token = Fin4TokenBase(tokenAddress);\n\n        if (Fin4ReputationAddress != address(0)) {\n            // REP reward for creating a new token\n            MintingStub(Fin4ReputationAddress).mint(token.getTokenCreator(), Fin4SystemParameters(Fin4SystemParametersAddress).REPforTokenCreation());\n        }\n\n        allFin4Tokens.push(tokenAddress);\n\n        // or cheaper/better to get these values via one getter?\n        emit Fin4TokenCreated(tokenAddress, token.name(), token.symbol(), token.description(), token.unit(),\n            token.getTokenCreator(), token.tokenCreationTime(), token.fixedAmount() != 0);\n    }\n\n    function getAllFin4Tokens() public view returns(address[] memory) {\n        return allFin4Tokens;\n    }\n\n    // relay-functions to not have to call Fin4Token contracts directly from the frontend\n\n    function getTokenInfo(address tokenAddr) public view returns(bool, string memory, string memory,\n        string memory, string memory, uint256, uint, bool) {\n        return Fin4Token(tokenAddr).getTokenInfo(msg.sender);\n    }\n\n    // ------------------------- BALANCE -------------------------\n\n    function getBalance(address user, address tokenAddress) public view returns(uint256) {\n        return Fin4Token(tokenAddress).balanceOf(user);\n    }\n\n    function getMyNonzeroTokenBalances() public view returns(address[] memory, uint256[] memory) {\n        uint count = 0;\n        for (uint i = 0; i < allFin4Tokens.length; i ++) {\n            if (getBalance(msg.sender, allFin4Tokens[i]) > 0) {\n                count ++;\n            }\n        }\n        // combine this with actionsWhereUserHasClaims to toss the upper loop?\n        address[] memory nonzeroBalanceTokens = new address[](count);\n        uint256[] memory balances = new uint256[](count);\n        count = 0;\n        for (uint i = 0; i < allFin4Tokens.length; i ++) {\n            uint256 balance = getBalance(msg.sender, allFin4Tokens[i]);\n            if (balance > 0) {\n                nonzeroBalanceTokens[count] = allFin4Tokens[i];\n                balances[count] = balance;\n                count += 1;\n            }\n        }\n        return (nonzeroBalanceTokens, balances);\n    }\n\n}\n",
  "sourcePath": "/home/cantonioupao/susDAO-saveMe/FIN4Contracts/contracts/Fin4TokenManagement.sol",
  "compiler": {
    "name": "solc",
    "version": "0.5.17+commit.d19bba13.Emscripten.clang"
  },
  "schemaVersion": "3.3.1",
  "updatedAt": "2020-12-03T18:31:09.722Z",
  "devdoc": {
    "methods": {}
  },
  "userdoc": {
    "methods": {}
  }
}