{
  "contractName": "HappyMoment",
  "abi": [
    {
      "inputs": [],
      "payable": false,
      "stateMutability": "nonpayable",
      "type": "constructor"
    },
    {
      "constant": true,
      "inputs": [],
      "name": "Fin4VerifyingAddress",
      "outputs": [
        {
          "internalType": "address",
          "name": "",
          "type": "address"
        }
      ],
      "payable": false,
      "stateMutability": "view",
      "type": "function"
    },
    {
      "constant": true,
      "inputs": [
        {
          "internalType": "address",
          "name": "_addr",
          "type": "address"
        }
      ],
      "name": "addressToString",
      "outputs": [
        {
          "internalType": "string",
          "name": "",
          "type": "string"
        }
      ],
      "payable": false,
      "stateMutability": "pure",
      "type": "function"
    },
    {
      "constant": true,
      "inputs": [
        {
          "internalType": "address[]",
          "name": "arr",
          "type": "address[]"
        },
        {
          "internalType": "address",
          "name": "addrToCheck",
          "type": "address"
        }
      ],
      "name": "arrayContainsAddress",
      "outputs": [
        {
          "internalType": "bool",
          "name": "",
          "type": "bool"
        }
      ],
      "payable": false,
      "stateMutability": "pure",
      "type": "function"
    },
    {
      "constant": false,
      "inputs": [
        {
          "internalType": "address",
          "name": "user",
          "type": "address"
        },
        {
          "internalType": "address",
          "name": "tokenAddrToReceiveVerifierNotice",
          "type": "address"
        },
        {
          "internalType": "uint256",
          "name": "claimId",
          "type": "uint256"
        }
      ],
      "name": "autoCheck",
      "outputs": [],
      "payable": false,
      "stateMutability": "nonpayable",
      "type": "function"
    },
    {
      "constant": false,
      "inputs": [
        {
          "internalType": "address",
          "name": "user",
          "type": "address"
        },
        {
          "internalType": "address",
          "name": "tokenAddrToReceiveVerifierNotice",
          "type": "address"
        },
        {
          "internalType": "uint256",
          "name": "claimId",
          "type": "uint256"
        }
      ],
      "name": "autoSubmitProof",
      "outputs": [],
      "payable": false,
      "stateMutability": "nonpayable",
      "type": "function"
    },
    {
      "constant": true,
      "inputs": [],
      "name": "contractName",
      "outputs": [
        {
          "internalType": "string",
          "name": "",
          "type": "string"
        }
      ],
      "payable": false,
      "stateMutability": "view",
      "type": "function"
    },
    {
      "constant": true,
      "inputs": [],
      "name": "description",
      "outputs": [
        {
          "internalType": "string",
          "name": "",
          "type": "string"
        }
      ],
      "payable": false,
      "stateMutability": "view",
      "type": "function"
    },
    {
      "constant": true,
      "inputs": [
        {
          "internalType": "address",
          "name": "tokenAddress",
          "type": "address"
        }
      ],
      "name": "getCreatorOfToken",
      "outputs": [
        {
          "internalType": "address",
          "name": "",
          "type": "address"
        }
      ],
      "payable": false,
      "stateMutability": "view",
      "type": "function"
    },
    {
      "constant": true,
      "inputs": [],
      "name": "getDescription",
      "outputs": [
        {
          "internalType": "string",
          "name": "",
          "type": "string"
        }
      ],
      "payable": false,
      "stateMutability": "view",
      "type": "function"
    },
    {
      "constant": true,
      "inputs": [],
      "name": "getInfo",
      "outputs": [
        {
          "internalType": "string",
          "name": "",
          "type": "string"
        },
        {
          "internalType": "string",
          "name": "",
          "type": "string"
        },
        {
          "internalType": "string",
          "name": "",
          "type": "string"
        },
        {
          "internalType": "string",
          "name": "",
          "type": "string"
        }
      ],
      "payable": false,
      "stateMutability": "view",
      "type": "function"
    },
    {
      "constant": true,
      "inputs": [],
      "name": "getName",
      "outputs": [
        {
          "internalType": "string",
          "name": "",
          "type": "string"
        }
      ],
      "payable": false,
      "stateMutability": "view",
      "type": "function"
    },
    {
      "constant": true,
      "inputs": [],
      "name": "getParameterForTokenCreatorToSetEncoded",
      "outputs": [
        {
          "internalType": "string",
          "name": "",
          "type": "string"
        }
      ],
      "payable": false,
      "stateMutability": "pure",
      "type": "function"
    },
    {
      "constant": true,
      "inputs": [],
      "name": "isAutoCheckable",
      "outputs": [
        {
          "internalType": "bool",
          "name": "",
          "type": "bool"
        }
      ],
      "payable": false,
      "stateMutability": "view",
      "type": "function"
    },
    {
      "constant": true,
      "inputs": [],
      "name": "isAutoInitiable",
      "outputs": [
        {
          "internalType": "bool",
          "name": "",
          "type": "bool"
        }
      ],
      "payable": false,
      "stateMutability": "view",
      "type": "function"
    },
    {
      "constant": true,
      "inputs": [],
      "name": "name",
      "outputs": [
        {
          "internalType": "string",
          "name": "",
          "type": "string"
        }
      ],
      "payable": false,
      "stateMutability": "view",
      "type": "function"
    },
    {
      "constant": false,
      "inputs": [
        {
          "internalType": "string",
          "name": "_contractName",
          "type": "string"
        }
      ],
      "name": "setContractName",
      "outputs": [],
      "payable": false,
      "stateMutability": "nonpayable",
      "type": "function"
    },
    {
      "constant": false,
      "inputs": [
        {
          "internalType": "address",
          "name": "Fin4VerifyingAddr",
          "type": "address"
        }
      ],
      "name": "setFin4VerifyingAddress",
      "outputs": [],
      "payable": false,
      "stateMutability": "nonpayable",
      "type": "function"
    },
    {
      "constant": false,
      "inputs": [
        {
          "internalType": "address",
          "name": "tokenAddrToReceiveVerifierNotice",
          "type": "address"
        },
        {
          "internalType": "uint256",
          "name": "claimId",
          "type": "uint256"
        },
        {
          "internalType": "string",
          "name": "IPFShash",
          "type": "string"
        }
      ],
      "name": "submitProof_HappyMoment",
      "outputs": [],
      "payable": false,
      "stateMutability": "nonpayable",
      "type": "function"
    }
  ],
  "bytecode": "0x60806040526003805461ffff191690553480156200001c57600080fd5b5060408051808201909152601d8082527f73632e76657269666965722e68617070792d6d6f6d656e742e6e616d65000000602090920191825262000063916001916200009b565b506040518060600160405280602481526020016200124d60249139805162000094916002916020909101906200009b565b5062000140565b828054600181600116156101000203166002900490600052602060002090601f016020900481019282601f10620000de57805160ff19168380011785556200010e565b828001600101855582156200010e579182015b828111156200010e578251825591602001919060010190620000f1565b506200011c92915062000120565b5090565b6200013d91905b808211156200011c576000815560010162000127565b90565b6110fd80620001506000396000f3fe608060405234801561001057600080fd5b50600436106101165760003560e01c80635e57966d116100a25780639259360c116100715780639259360c146104cc578063ae18e0a51461057a578063bac28c7d146105b0578063c05ebcc51461066b578063ffc5daef1461057a57610116565b80635e57966d1461048e5780636c71d542146104b45780637284e416146104bc57806375d0c0dc146104c457610116565b80631a092541116100e95780631a0925411461026e57806336790932146102765780634036e3b3146102b85780634d1a1d5d146102c05780635a9b0b89146102dc57610116565b806306fdde031461011b5780630b5ee006146101985780630d4c73ca1461024057806317d7de7c14610266575b600080fd5b610123610673565b6040805160208082528351818301528351919283929083019185019080838360005b8381101561015d578181015183820152602001610145565b50505050905090810190601f16801561018a5780820380516001836020036101000a031916815260200191505b509250505060405180910390f35b61023e600480360360208110156101ae57600080fd5b8101906020810181356401000000008111156101c957600080fd5b8201836020820111156101db57600080fd5b803590602001918460018302840111640100000000831117156101fd57600080fd5b91908080601f016020809104026020016040519081016040528093929190818152602001838380828437600092019190915250929550610700945050505050565b005b61023e6004803603602081101561025657600080fd5b50356001600160a01b0316610717565b610123610741565b6101236107d7565b61029c6004803603602081101561028c57600080fd5b50356001600160a01b0316610835565b604080516001600160a01b039092168252519081900360200190f35b61029c6108a2565b6102c86108b7565b604080519115158252519081900360200190f35b6102e46108c5565b6040518080602001806020018060200180602001858103855289818151815260200191508051906020019080838360005b8381101561032d578181015183820152602001610315565b50505050905090810190601f16801561035a5780820380516001836020036101000a031916815260200191505b5085810384528851815288516020918201918a019080838360005b8381101561038d578181015183820152602001610375565b50505050905090810190601f1680156103ba5780820380516001836020036101000a031916815260200191505b50858103835287518152875160209182019189019080838360005b838110156103ed5781810151838201526020016103d5565b50505050905090810190601f16801561041a5780820380516001836020036101000a031916815260200191505b50858103825286518152865160209182019188019080838360005b8381101561044d578181015183820152602001610435565b50505050905090810190601f16801561047a5780820380516001836020036101000a031916815260200191505b509850505050505050505060405180910390f35b610123600480360360208110156104a457600080fd5b50356001600160a01b0316610a90565b610123610c0c565b610123610c1e565b610123610c76565b6102c8600480360360408110156104e257600080fd5b8101906020810181356401000000008111156104fd57600080fd5b82018360208201111561050f57600080fd5b8035906020019184602083028401116401000000008311171561053157600080fd5b919080806020026020016040519081016040528093929190818152602001838360200280828437600092019190915250929550505090356001600160a01b03169150610cd19050565b61023e6004803603606081101561059057600080fd5b506001600160a01b03813581169160208101359091169060400135610d29565b61023e600480360360608110156105c657600080fd5b6001600160a01b03823516916020810135918101906060810160408201356401000000008111156105f657600080fd5b82018360208201111561060857600080fd5b8035906020019184600183028401116401000000008311171561062a57600080fd5b91908080601f016020809104026020016040519081016040528093929190818152602001838380828437600092019190915250929550610d2e945050505050565b6102c8610e4a565b60018054604080516020600284861615610100026000190190941693909304601f810184900484028201840190925281815292918301828280156106f85780601f106106cd576101008083540402835291602001916106f8565b820191906000526020600020905b8154815290600101906020018083116106db57829003601f168201915b505050505081565b8051610713906000906020840190611030565b5050565b600380546001600160a01b03909216620100000262010000600160b01b0319909216919091179055565b60018054604080516020601f600260001961010087891615020190951694909404938401819004810282018101909252828152606093909290918301828280156107cc5780601f106107a1576101008083540402835291602001916107cc565b820191906000526020600020905b8154815290600101906020018083116107af57829003601f168201915b505050505090505b90565b60028054604080516020601f60001961010060018716150201909416859004938401819004810282018101909252828152606093909290918301828280156107cc5780601f106107a1576101008083540402835291602001916107cc565b6000816001600160a01b0316639c6790176040518163ffffffff1660e01b815260040160206040518083038186803b15801561087057600080fd5b505afa158015610884573d6000803e3d6000fd5b505050506040513d602081101561089a57600080fd5b505192915050565b6003546201000090046001600160a01b031681565b600354610100900460ff1681565b6060806060806000600160026108d9610c0c565b8354604080516020601f6002600019610100600188161502019095169490940493840181900481028201810190925282815291869183018282801561095f5780601f106109345761010080835404028352916020019161095f565b820191906000526020600020905b81548152906001019060200180831161094257829003601f168201915b5050865460408051602060026001851615610100026000190190941693909304601f8101849004840282018401909252818152959950889450925084019050828280156109ed5780601f106109c2576101008083540402835291602001916109ed565b820191906000526020600020905b8154815290600101906020018083116109d057829003601f168201915b5050855460408051602060026001851615610100026000190190941693909304601f810184900484028201840190925281815295985087945092508401905082828015610a7b5780601f10610a5057610100808354040283529160200191610a7b565b820191906000526020600020905b815481529060010190602001808311610a5e57829003601f168201915b50505050509150935093509350935090919293565b604080518082018252601081526f181899199a1a9b1b9c1cb0b131b232b360811b60208201528151602a80825260608281019094526001600160a01b03851692918491602082018180388339019050509050600360fc1b81600081518110610af457fe5b60200101906001600160f81b031916908160001a905350600f60fb1b81600181518110610b1d57fe5b60200101906001600160f81b031916908160001a90535060005b6014811015610c03578260048583600c0160208110610b5257fe5b1a60f81b6001600160f81b031916901c60f81c60ff1681518110610b7257fe5b602001015160f81c60f81b828260020260020181518110610b8f57fe5b60200101906001600160f81b031916908160001a905350828482600c0160208110610bb657fe5b825191901a600f16908110610bc757fe5b602001015160f81c60f81b828260020260030181518110610be457fe5b60200101906001600160f81b031916908160001a905350600101610b37565b50949350505050565b60408051602081019091526000815290565b6002805460408051602060018416156101000260001901909316849004601f810184900484028201840190925281815292918301828280156106f85780601f106106cd576101008083540402835291602001916106f8565b6000805460408051602060026001851615610100026000190190941693909304601f810184900484028201840190925281815292918301828280156106f85780601f106106cd576101008083540402835291602001916106f8565b6000805b8351811015610d1d57826001600160a01b0316848281518110610cf457fe5b60200260200101516001600160a01b03161415610d15576001915050610d23565b600101610cd5565b50600090505b92915050565b505050565b6003546040516377e27b5360e11b815230600482018181526001600160a01b0387811660248501523360448501819052426064860181905260016084870181905260c060a48801908152895160c48901528951620100009099049094169763efc4f6a6978c969495939492938b9392909160e40190602085019080838360005b83811015610dc6578181015183820152602001610dae565b50505050905090810190601f168015610df35780820380516001836020036101000a031916815260200191505b50975050505050505050600060405180830381600087803b158015610e1757600080fd5b505af1158015610e2b573d6000803e3d6000fd5b50505050610d2930848460405180602001604052806000815250610e53565b60035460ff1681565b610e5d8383610f46565b50826001600160a01b031663bdc656e98584846040518463ffffffff1660e01b815260040180846001600160a01b03166001600160a01b0316815260200183815260200180602001828103825283818151815260200191508051906020019080838360005b83811015610eda578181015183820152602001610ec2565b50505050905090810190601f168015610f075780820380516001836020036101000a031916815260200191505b50945050505050600060405180830381600087803b158015610f2857600080fd5b505af1158015610f3c573d6000803e3d6000fd5b5050505050505050565b6040805162379c0960e91b815230600482015260248101839052905160009182916001600160a01b03861691636f38120091604480830192602092919082900301818787803b158015610f9857600080fd5b505af1158015610fac573d6000803e3d6000fd5b505050506040513d6020811015610fc257600080fd5b5051905060028114801590610fd8575080600314155b611029576040805162461bcd60e51b815260206004820181905260248201527f5468697320766572696669657220697320616c72656164792064656369646564604482015290519081900360640190fd5b5092915050565b828054600181600116156101000203166002900490600052602060002090601f016020900481019282601f1061107157805160ff191683800117855561109e565b8280016001018555821561109e579182015b8281111561109e578251825591602001919060010190611083565b506110aa9291506110ae565b5090565b6107d491905b808211156110aa57600081556001016110b456fea265627a7a7231582038624abfc6c5cc05a69f52d26ca3a1e186450677e2865018e9575ff65fdaf31164736f6c6343000511003273632e76657269666965722e68617070792d6d6f6d656e742e6465736372697074696f6e",
  "source": "pragma solidity ^0.5.17;\n\nimport \"contracts/verifiers/Fin4BaseVerifierType.sol\";\nimport \"contracts/Fin4Verifying.sol\";\n\ncontract HappyMoment is Fin4BaseVerifierType {\n\n    constructor() public  {\n        name = \"sc.verifier.happy-moment.name\";\n        description = \"sc.verifier.happy-moment.description\";\n    }\n\n    address public Fin4VerifyingAddress;\n\n    function setFin4VerifyingAddress(address Fin4VerifyingAddr) public {\n        Fin4VerifyingAddress = Fin4VerifyingAddr;\n    }\n\n    function submitProof_HappyMoment(address tokenAddrToReceiveVerifierNotice, uint claimId, string memory IPFShash) public {\n        Fin4Verifying(Fin4VerifyingAddress).addSubmission(address(this), tokenAddrToReceiveVerifierNotice, msg.sender, now, 1, IPFShash);\n        _sendApprovalNotice(address(this), tokenAddrToReceiveVerifierNotice, claimId, \"\");\n    }\n\n}\n",
  "sourcePath": "/home/cantonioupao/susDAO-saveMe/FIN4Contracts/contracts/verifiers/onchain/interactive/HappyMoment.sol",
  "compiler": {
    "name": "solc",
    "version": "0.5.17+commit.d19bba13.Emscripten.clang"
  },
  "schemaVersion": "3.3.1",
  "updatedAt": "2020-12-03T18:27:58.992Z",
  "devdoc": {
    "methods": {}
  },
  "userdoc": {
    "methods": {}
  }
}