{
  "contractName": "LimitedVoting",
  "abi": [
    {
      "inputs": [],
      "payable": false,
      "stateMutability": "nonpayable",
      "type": "constructor"
    },
    {
      "constant": true,
      "inputs": [],
      "name": "Fin4MessagingAddress",
      "outputs": [
        {
          "internalType": "address",
          "name": "",
          "type": "address"
        }
      ],
      "payable": false,
      "stateMutability": "view",
      "type": "function"
    },
    {
      "constant": true,
      "inputs": [],
      "name": "Fin4ReputationAddress",
      "outputs": [
        {
          "internalType": "address",
          "name": "",
          "type": "address"
        }
      ],
      "payable": false,
      "stateMutability": "view",
      "type": "function"
    },
    {
      "constant": true,
      "inputs": [],
      "name": "Fin4SystemParametersAddress",
      "outputs": [
        {
          "internalType": "address",
          "name": "",
          "type": "address"
        }
      ],
      "payable": false,
      "stateMutability": "view",
      "type": "function"
    },
    {
      "constant": true,
      "inputs": [],
      "name": "Fin4VotingAddress",
      "outputs": [
        {
          "internalType": "address",
          "name": "",
          "type": "address"
        }
      ],
      "payable": false,
      "stateMutability": "view",
      "type": "function"
    },
    {
      "constant": true,
      "inputs": [
        {
          "internalType": "address",
          "name": "_addr",
          "type": "address"
        }
      ],
      "name": "addressToString",
      "outputs": [
        {
          "internalType": "string",
          "name": "",
          "type": "string"
        }
      ],
      "payable": false,
      "stateMutability": "pure",
      "type": "function"
    },
    {
      "constant": true,
      "inputs": [
        {
          "internalType": "address[]",
          "name": "arr",
          "type": "address[]"
        },
        {
          "internalType": "address",
          "name": "addrToCheck",
          "type": "address"
        }
      ],
      "name": "arrayContainsAddress",
      "outputs": [
        {
          "internalType": "bool",
          "name": "",
          "type": "bool"
        }
      ],
      "payable": false,
      "stateMutability": "pure",
      "type": "function"
    },
    {
      "constant": false,
      "inputs": [
        {
          "internalType": "address",
          "name": "user",
          "type": "address"
        },
        {
          "internalType": "address",
          "name": "tokenAddrToReceiveVerifierNotice",
          "type": "address"
        },
        {
          "internalType": "uint256",
          "name": "claimId",
          "type": "uint256"
        }
      ],
      "name": "autoCheck",
      "outputs": [],
      "payable": false,
      "stateMutability": "nonpayable",
      "type": "function"
    },
    {
      "constant": false,
      "inputs": [
        {
          "internalType": "address",
          "name": "user",
          "type": "address"
        },
        {
          "internalType": "address",
          "name": "tokenAddrToReceiveVerifierNotice",
          "type": "address"
        },
        {
          "internalType": "uint256",
          "name": "claimId",
          "type": "uint256"
        }
      ],
      "name": "autoSubmitProof",
      "outputs": [],
      "payable": false,
      "stateMutability": "nonpayable",
      "type": "function"
    },
    {
      "constant": true,
      "inputs": [],
      "name": "contractName",
      "outputs": [
        {
          "internalType": "string",
          "name": "",
          "type": "string"
        }
      ],
      "payable": false,
      "stateMutability": "view",
      "type": "function"
    },
    {
      "constant": true,
      "inputs": [],
      "name": "creator",
      "outputs": [
        {
          "internalType": "address",
          "name": "",
          "type": "address"
        }
      ],
      "payable": false,
      "stateMutability": "view",
      "type": "function"
    },
    {
      "constant": true,
      "inputs": [],
      "name": "description",
      "outputs": [
        {
          "internalType": "string",
          "name": "",
          "type": "string"
        }
      ],
      "payable": false,
      "stateMutability": "view",
      "type": "function"
    },
    {
      "constant": true,
      "inputs": [
        {
          "internalType": "address",
          "name": "tokenAddress",
          "type": "address"
        }
      ],
      "name": "getCreatorOfToken",
      "outputs": [
        {
          "internalType": "address",
          "name": "",
          "type": "address"
        }
      ],
      "payable": false,
      "stateMutability": "view",
      "type": "function"
    },
    {
      "constant": true,
      "inputs": [],
      "name": "getDescription",
      "outputs": [
        {
          "internalType": "string",
          "name": "",
          "type": "string"
        }
      ],
      "payable": false,
      "stateMutability": "view",
      "type": "function"
    },
    {
      "constant": true,
      "inputs": [],
      "name": "getInfo",
      "outputs": [
        {
          "internalType": "string",
          "name": "",
          "type": "string"
        },
        {
          "internalType": "string",
          "name": "",
          "type": "string"
        },
        {
          "internalType": "string",
          "name": "",
          "type": "string"
        },
        {
          "internalType": "string",
          "name": "",
          "type": "string"
        }
      ],
      "payable": false,
      "stateMutability": "view",
      "type": "function"
    },
    {
      "constant": true,
      "inputs": [],
      "name": "getName",
      "outputs": [
        {
          "internalType": "string",
          "name": "",
          "type": "string"
        }
      ],
      "payable": false,
      "stateMutability": "view",
      "type": "function"
    },
    {
      "constant": true,
      "inputs": [],
      "name": "isAutoCheckable",
      "outputs": [
        {
          "internalType": "bool",
          "name": "",
          "type": "bool"
        }
      ],
      "payable": false,
      "stateMutability": "view",
      "type": "function"
    },
    {
      "constant": true,
      "inputs": [],
      "name": "isAutoInitiable",
      "outputs": [
        {
          "internalType": "bool",
          "name": "",
          "type": "bool"
        }
      ],
      "payable": false,
      "stateMutability": "view",
      "type": "function"
    },
    {
      "constant": true,
      "inputs": [],
      "name": "name",
      "outputs": [
        {
          "internalType": "string",
          "name": "",
          "type": "string"
        }
      ],
      "payable": false,
      "stateMutability": "view",
      "type": "function"
    },
    {
      "constant": true,
      "inputs": [],
      "name": "nextclaimId",
      "outputs": [
        {
          "internalType": "uint256",
          "name": "",
          "type": "uint256"
        }
      ],
      "payable": false,
      "stateMutability": "view",
      "type": "function"
    },
    {
      "constant": true,
      "inputs": [
        {
          "internalType": "uint256",
          "name": "",
          "type": "uint256"
        }
      ],
      "name": "pendingApprovals",
      "outputs": [
        {
          "internalType": "uint256",
          "name": "claimId",
          "type": "uint256"
        },
        {
          "internalType": "address",
          "name": "tokenAddrToReceiveVerifierNotice",
          "type": "address"
        },
        {
          "internalType": "uint256",
          "name": "claimIdOnTokenToReceiveVerifierDecision",
          "type": "uint256"
        },
        {
          "internalType": "address",
          "name": "requester",
          "type": "address"
        },
        {
          "internalType": "uint256",
          "name": "start",
          "type": "uint256"
        },
        {
          "internalType": "bool",
          "name": "isIndividualApprover",
          "type": "bool"
        },
        {
          "internalType": "uint256",
          "name": "approverGroupId",
          "type": "uint256"
        },
        {
          "internalType": "string",
          "name": "attachment",
          "type": "string"
        },
        {
          "internalType": "uint256",
          "name": "nbApproved",
          "type": "uint256"
        },
        {
          "internalType": "uint256",
          "name": "nbRejected",
          "type": "uint256"
        },
        {
          "internalType": "bool",
          "name": "isApproved",
          "type": "bool"
        },
        {
          "internalType": "uint256",
          "name": "linkedWithclaimId",
          "type": "uint256"
        }
      ],
      "payable": false,
      "stateMutability": "view",
      "type": "function"
    },
    {
      "constant": false,
      "inputs": [
        {
          "internalType": "string",
          "name": "_contractName",
          "type": "string"
        }
      ],
      "name": "setContractName",
      "outputs": [],
      "payable": false,
      "stateMutability": "nonpayable",
      "type": "function"
    },
    {
      "constant": true,
      "inputs": [
        {
          "internalType": "address",
          "name": "",
          "type": "address"
        }
      ],
      "name": "tokenToParameter",
      "outputs": [
        {
          "internalType": "uint256",
          "name": "",
          "type": "uint256"
        }
      ],
      "payable": false,
      "stateMutability": "view",
      "type": "function"
    },
    {
      "constant": true,
      "inputs": [
        {
          "internalType": "address",
          "name": "",
          "type": "address"
        }
      ],
      "name": "tokenToParameterTime",
      "outputs": [
        {
          "internalType": "uint256",
          "name": "",
          "type": "uint256"
        }
      ],
      "payable": false,
      "stateMutability": "view",
      "type": "function"
    },
    {
      "constant": false,
      "inputs": [
        {
          "internalType": "address",
          "name": "Fin4MessagingAddr",
          "type": "address"
        }
      ],
      "name": "setFin4MessagingAddress",
      "outputs": [],
      "payable": false,
      "stateMutability": "nonpayable",
      "type": "function"
    },
    {
      "constant": false,
      "inputs": [
        {
          "internalType": "address",
          "name": "SystemParametersAddr",
          "type": "address"
        }
      ],
      "name": "setFin4SystemParametersAddress",
      "outputs": [],
      "payable": false,
      "stateMutability": "nonpayable",
      "type": "function"
    },
    {
      "constant": false,
      "inputs": [
        {
          "internalType": "address",
          "name": "VotingAddr",
          "type": "address"
        }
      ],
      "name": "setFin4VotingAddress",
      "outputs": [],
      "payable": false,
      "stateMutability": "nonpayable",
      "type": "function"
    },
    {
      "constant": false,
      "inputs": [
        {
          "internalType": "address",
          "name": "Fin4ReputationAddr",
          "type": "address"
        }
      ],
      "name": "setFin4ReputationAddress",
      "outputs": [],
      "payable": false,
      "stateMutability": "nonpayable",
      "type": "function"
    },
    {
      "constant": false,
      "inputs": [],
      "name": "init",
      "outputs": [],
      "payable": false,
      "stateMutability": "nonpayable",
      "type": "function"
    },
    {
      "constant": false,
      "inputs": [
        {
          "internalType": "address",
          "name": "tokenAddrToReceiveVerifierNotice",
          "type": "address"
        },
        {
          "internalType": "uint256",
          "name": "claimId",
          "type": "uint256"
        },
        {
          "internalType": "string",
          "name": "IPFShash",
          "type": "string"
        }
      ],
      "name": "submitProof_LimitedVoting",
      "outputs": [],
      "payable": false,
      "stateMutability": "nonpayable",
      "type": "function"
    },
    {
      "constant": true,
      "inputs": [
        {
          "internalType": "uint256",
          "name": "claimId",
          "type": "uint256"
        }
      ],
      "name": "endVotePossible",
      "outputs": [
        {
          "internalType": "bool",
          "name": "",
          "type": "bool"
        }
      ],
      "payable": false,
      "stateMutability": "view",
      "type": "function"
    },
    {
      "constant": false,
      "inputs": [
        {
          "internalType": "uint256",
          "name": "claimId",
          "type": "uint256"
        }
      ],
      "name": "endVote",
      "outputs": [],
      "payable": false,
      "stateMutability": "nonpayable",
      "type": "function"
    },
    {
      "constant": true,
      "inputs": [],
      "name": "getMessageText",
      "outputs": [
        {
          "internalType": "string",
          "name": "",
          "type": "string"
        }
      ],
      "payable": false,
      "stateMutability": "pure",
      "type": "function"
    },
    {
      "constant": true,
      "inputs": [],
      "name": "getParameterForTokenCreatorToSetEncoded",
      "outputs": [
        {
          "internalType": "string",
          "name": "",
          "type": "string"
        }
      ],
      "payable": false,
      "stateMutability": "pure",
      "type": "function"
    },
    {
      "constant": false,
      "inputs": [
        {
          "internalType": "address",
          "name": "token",
          "type": "address"
        },
        {
          "internalType": "uint256",
          "name": "nbUsers",
          "type": "uint256"
        },
        {
          "internalType": "uint256",
          "name": "timeInMinutes",
          "type": "uint256"
        }
      ],
      "name": "setParameters",
      "outputs": [],
      "payable": false,
      "stateMutability": "nonpayable",
      "type": "function"
    },
    {
      "constant": true,
      "inputs": [
        {
          "internalType": "address",
          "name": "token",
          "type": "address"
        }
      ],
      "name": "_getNbUsers",
      "outputs": [
        {
          "internalType": "uint256",
          "name": "",
          "type": "uint256"
        }
      ],
      "payable": false,
      "stateMutability": "view",
      "type": "function"
    },
    {
      "constant": true,
      "inputs": [
        {
          "internalType": "address",
          "name": "token",
          "type": "address"
        }
      ],
      "name": "_getTimeInMinutes",
      "outputs": [
        {
          "internalType": "uint256",
          "name": "",
          "type": "uint256"
        }
      ],
      "payable": false,
      "stateMutability": "view",
      "type": "function"
    },
    {
      "constant": true,
      "inputs": [
        {
          "internalType": "address[]",
          "name": "voters",
          "type": "address[]"
        },
        {
          "internalType": "address",
          "name": "member",
          "type": "address"
        }
      ],
      "name": "getIndexOf",
      "outputs": [
        {
          "internalType": "uint256",
          "name": "",
          "type": "uint256"
        }
      ],
      "payable": false,
      "stateMutability": "pure",
      "type": "function"
    },
    {
      "constant": false,
      "inputs": [
        {
          "internalType": "uint256",
          "name": "claimId",
          "type": "uint256"
        },
        {
          "internalType": "string",
          "name": "attachedMessage",
          "type": "string"
        }
      ],
      "name": "receiveApproval",
      "outputs": [],
      "payable": false,
      "stateMutability": "nonpayable",
      "type": "function"
    },
    {
      "constant": false,
      "inputs": [
        {
          "internalType": "uint256",
          "name": "claimId",
          "type": "uint256"
        },
        {
          "internalType": "string",
          "name": "attachedMessage",
          "type": "string"
        }
      ],
      "name": "receiveRejection",
      "outputs": [],
      "payable": false,
      "stateMutability": "nonpayable",
      "type": "function"
    },
    {
      "constant": false,
      "inputs": [
        {
          "internalType": "uint256",
          "name": "claimId",
          "type": "uint256"
        }
      ],
      "name": "markMessagesAsRead",
      "outputs": [],
      "payable": false,
      "stateMutability": "nonpayable",
      "type": "function"
    },
    {
      "constant": false,
      "inputs": [
        {
          "internalType": "uint256",
          "name": "claimId",
          "type": "uint256"
        },
        {
          "internalType": "uint256",
          "name": "index",
          "type": "uint256"
        }
      ],
      "name": "markMessageAsRead",
      "outputs": [],
      "payable": false,
      "stateMutability": "nonpayable",
      "type": "function"
    }
  ],
  "bytecode": "0x60806040526003805461ffff1916905560006008553480156200002157600080fd5b506003805462010000600160b01b031916336201000002179055620000456200004b565b6200015a565b60408051808201909152600d8082526c4c696d69746564566f74696e6760981b60209092019182526200008191600191620000b5565b50604051806060016040528060388152602001620048ea603891398051620000b291600291602090910190620000b5565b50565b828054600181600116156101000203166002900490600052602060002090601f016020900481019282601f10620000f857805160ff191683800117855562000128565b8280016001018555821562000128579182015b82811115620001285782518255916020019190600101906200010b565b50620001369291506200013a565b5090565b6200015791905b8082111562000136576000815560010162000141565b90565b614780806200016a6000396000f3fe608060405234801561001057600080fd5b50600436106102535760003560e01c80637f1a5c2011610146578063be1f37e4116100c3578063cce6e21511610087578063cce6e21514610bd1578063e1c7392a14610bf7578063e4ad4acd14610bff578063eb92f76a14610c07578063f9d8f4c714610cb2578063ffc5daef14610b1957610253565b8063be1f37e414610b4f578063c05ebcc514610b75578063c493a69414610b7d578063c646529c14610ba3578063ca0b4a0414610bc957610253565b80639e9be9171161010a5780639e9be9171461096b578063a418c5131461098e578063a49ef750146109b4578063acb72bb114610a6d578063ae18e0a514610b1957610253565b80637f1a5c201461086c578063865df0ad146108745780638bbfc6eb146108915780639259360c146108b75780639d4e4acb1461096357610253565b806336790932116101d45780636c71d542116101985780636c71d5421461081a5780637284e4161461082257806375d0c0dc1461082a5780637720e378146108325780637947f9651461083a57610253565b806336790932146105065780634d1a1d5d1461052c5780635a9b0b89146105345780635e57966d146106e6578063686b656e1461070c57610253565b806317d7de7c1161021b57806317d7de7c146103fd5780631a0925411461040557806324b4de261461040d578063304f88ac146104b857806331d8785e146104e957610253565b806302d05d3f1461025857806306fdde031461027c57806308b62990146102f95780630abac0d8146103315780630b5ee00614610357575b600080fd5b610260610cba565b604080516001600160a01b039092168252519081900360200190f35b610284610ccf565b6040805160208082528351818301528351919283929083019185019080838360005b838110156102be5781810151838201526020016102a6565b50505050905090810190601f1680156102eb5780820380516001836020036101000a031916815260200191505b509250505060405180910390f35b61031f6004803603602081101561030f57600080fd5b50356001600160a01b0316610d5c565b60408051918252519081900360200190f35b61031f6004803603602081101561034757600080fd5b50356001600160a01b0316610d6e565b6103fb6004803603602081101561036d57600080fd5b810190602081018135600160201b81111561038757600080fd5b82018360208201111561039957600080fd5b803590602001918460018302840111600160201b831117156103ba57600080fd5b91908080601f016020809104026020016040519081016040528093929190818152602001838380828437600092019190915250929550610d8d945050505050565b005b610284610da4565b610284610e3a565b6103fb6004803603604081101561042357600080fd5b81359190810190604081016020820135600160201b81111561044457600080fd5b82018360208201111561045657600080fd5b803590602001918460018302840111600160201b8311171561047757600080fd5b91908080601f016020809104026020016040519081016040528093929190818152602001838380828437600092019190915250929550610e98945050505050565b6104d5600480360360208110156104ce57600080fd5b5035611698565b604080519115158252519081900360200190f35b6103fb600480360360208110156104ff57600080fd5b50356119da565b6102606004803603602081101561051c57600080fd5b50356001600160a01b0316611db7565b6104d5611e24565b61053c611e32565b6040518080602001806020018060200180602001858103855289818151815260200191508051906020019080838360005b8381101561058557818101518382015260200161056d565b50505050905090810190601f1680156105b25780820380516001836020036101000a031916815260200191505b5085810384528851815288516020918201918a019080838360005b838110156105e55781810151838201526020016105cd565b50505050905090810190601f1680156106125780820380516001836020036101000a031916815260200191505b50858103835287518152875160209182019189019080838360005b8381101561064557818101518382015260200161062d565b50505050905090810190601f1680156106725780820380516001836020036101000a031916815260200191505b50858103825286518152865160209182019188019080838360005b838110156106a557818101518382015260200161068d565b50505050905090810190601f1680156106d25780820380516001836020036101000a031916815260200191505b509850505050505050505060405180910390f35b610284600480360360208110156106fc57600080fd5b50356001600160a01b0316611ffd565b6107296004803603602081101561072257600080fd5b5035612179565b604051808d81526020018c6001600160a01b03166001600160a01b031681526020018b81526020018a6001600160a01b03166001600160a01b03168152602001898152602001881515151581526020018781526020018060200186815260200185815260200184151515158152602001838152602001828103825287818151815260200191508051906020019080838360005b838110156107d45781810151838201526020016107bc565b50505050905090810190601f1680156108015780820380516001836020036101000a031916815260200191505b509d505050505050505050505050505060405180910390f35b61028461227a565b61028461229a565b6102846122f2565b61026061234d565b6103fb6004803603606081101561085057600080fd5b506001600160a01b03813516906020810135906040013561235c565b610284612384565b6103fb6004803603602081101561088a57600080fd5b50356123a4565b6103fb600480360360208110156108a757600080fd5b50356001600160a01b0316612764565b6104d5600480360360408110156108cd57600080fd5b810190602081018135600160201b8111156108e757600080fd5b8201836020820111156108f957600080fd5b803590602001918460208302840111600160201b8311171561091a57600080fd5b919080806020026020016040519081016040528093929190818152602001838360200280828437600092019190915250929550505090356001600160a01b031691506127869050565b6102606127de565b6103fb6004803603604081101561098157600080fd5b50803590602001356127ed565b6103fb600480360360208110156109a457600080fd5b50356001600160a01b0316612bae565b6103fb600480360360608110156109ca57600080fd5b6001600160a01b0382351691602081013591810190606081016040820135600160201b8111156109f957600080fd5b820183602082011115610a0b57600080fd5b803590602001918460018302840111600160201b83111715610a2c57600080fd5b91908080601f016020809104026020016040519081016040528093929190818152602001838380828437600092019190915250929550612c1f945050505050565b61031f60048036036040811015610a8357600080fd5b810190602081018135600160201b811115610a9d57600080fd5b820183602082011115610aaf57600080fd5b803590602001918460208302840111600160201b83111715610ad057600080fd5b919080806020026020016040519081016040528093929190818152602001838360200280828437600092019190915250929550505090356001600160a01b03169150612c329050565b6103fb60048036036060811015610b2f57600080fd5b506001600160a01b03813581169160208101359091169060400135611db2565b6103fb60048036036020811015610b6557600080fd5b50356001600160a01b0316612c7b565b6104d5612c9d565b61031f60048036036020811015610b9357600080fd5b50356001600160a01b0316612ca6565b61031f60048036036020811015610bb957600080fd5b50356001600160a01b0316612cc1565b61031f612cd3565b6103fb60048036036020811015610be757600080fd5b50356001600160a01b0316612cd9565b6103fb612cfb565b610260612d60565b6103fb60048036036040811015610c1d57600080fd5b81359190810190604081016020820135600160201b811115610c3e57600080fd5b820183602082011115610c5057600080fd5b803590602001918460018302840111600160201b83111715610c7157600080fd5b91908080601f016020809104026020016040519081016040528093929190818152602001838380828437600092019190915250929550612d6f945050505050565b6102606137d2565b6003546201000090046001600160a01b031681565b60018054604080516020600284861615610100026000190190941693909304601f81018490048402820184019092528181529291830182828015610d545780601f10610d2957610100808354040283529160200191610d54565b820191906000526020600020905b815481529060010190602001808311610d3757829003601f168201915b505050505081565b600b6020526000908152604090205481565b6001600160a01b0381166000908152600a60205260409020545b919050565b8051610da09060009060208401906143e7565b5050565b60018054604080516020601f60026000196101008789161502019095169490940493840181900481028201810190925282815260609390929091830182828015610e2f5780601f10610e0457610100808354040283529160200191610e2f565b820191906000526020600020905b815481529060010190602001808311610e1257829003601f168201915b505050505090505b90565b60028054604080516020601f6000196101006001871615020190941685900493840181900481028201810190925282815260609390929091830182828015610e2f5780601f10610e0457610100808354040283529160200191610e2f565b33610ea1614465565b6000848152600960209081526040918290208251610220810184528154815260018201546001600160a01b0390811682850152600283015482860152600383015416606082015260048201546080820152600582015460ff16151560a0820152600682015460c08201526007820180548551818602810186019096528086529194929360e08601939290830182828015610f6457602002820191906000526020600020905b81546001600160a01b03168152600190910190602001808311610f46575b5050505050815260200160088201805480602002602001604051908101604052809291908181526020018280548015610fbc57602002820191906000526020600020905b815481526020019060010190808311610fa8575b505050505081526020016009820180548060200260200160405190810160405280929190818152602001828054801561101e57602002820191906000526020600020905b81546001600160a01b03168152600190910190602001808311611000575b50505050508152602001600a820180548060200260200160405190810160405280929190818152602001828054801561108057602002820191906000526020600020905b81546001600160a01b03168152600190910190602001808311611062575b50505050508152602001600b82018054806020026020016040519081016040528092919081815260200182805480156110d857602002820191906000526020600020905b8154815260200190600101908083116110c4575b5050509183525050600c8201805460408051602060026001851615610100026000190190941693909304601f810184900484028201840190925281815293820193929183018282801561116c5780601f106111415761010080835404028352916020019161116c565b820191906000526020600020905b81548152906001019060200180831161114f57829003601f168201915b5050509183525050600d8201546020820152600e8201546040820152600f82015460ff161515606082015260109091015460809091015260e08101519091506111c09085906111bb9085612c32565b6127ed565b81816101200151826101a00151815181106111d757fe5b6001600160a01b03909216602092830291909101909101526101a081018051600101905260e08101515160029004816101a0015111156114e05761121a846119da565b6101a08101516000908190156112b557826101a00151600560009054906101000a90046001600160a01b03166001600160a01b031663065480066040518163ffffffff1660e01b815260040160206040518083038186803b15801561127e57600080fd5b505afa158015611292573d6000803e3d6000fd5b505050506040513d60208110156112a857600080fd5b5051816112b157fe5b0491505b6101c08301511561134b57826101c00151600560009054906101000a90046001600160a01b03166001600160a01b03166348cd5b876040518163ffffffff1660e01b815260040160206040518083038186803b15801561131457600080fd5b505afa158015611328573d6000803e3d6000fd5b505050506040513d602081101561133e57600080fd5b50518161134757fe5b0490505b60005b836101a0015181101561140f5760065461012085015180516001600160a01b03909216916340c10f1991908490811061138357fe5b6020026020010151856040518363ffffffff1660e01b815260040180836001600160a01b03166001600160a01b0316815260200182815260200192505050602060405180830381600087803b1580156113db57600080fd5b505af11580156113ef573d6000803e3d6000fd5b505050506040513d602081101561140557600080fd5b505060010161134e565b5060005b836101c001518110156114c45760065461014085015180516001600160a01b03909216916379cc679091908490811061144857fe5b6020026020010151846040518363ffffffff1660e01b815260040180836001600160a01b03166001600160a01b0316815260200182815260200192505050600060405180830381600087803b1580156114a057600080fd5b505af11580156114b4573d6000803e3d6000fd5b5050600190920191506114139050565b506114d93084602001518560400151886137e1565b5050611525565b806101c00151816101a0015114801561150c575060028160e00151518161150357fe5b04816101a00151145b15611525576115253082602001518360400151866138d4565b60008481526009602090815260409182902083518155838201516001820180546001600160a01b03199081166001600160a01b039384161790915593850151600283015560608501516003830180549095169116179092556080830151600483015560a083015160058301805460ff191691151591909117905560c0830151600683015560e083015180518493926115c49260078501929101906144ff565b5061010082015180516115e1916008840191602090910190614560565b5061012082015180516115fe9160098401916020909101906144ff565b50610140820151805161161b91600a8401916020909101906144ff565b50610160820151805161163891600b840191602090910190614560565b50610180820151805161165591600c8401916020909101906143e7565b506101a0820151600d8201556101c0820151600e8201556101e0820151600f8201805460ff19169115159190911790556102009091015160109091015550505050565b60006116a2614465565b6000838152600960209081526040918290208251610220810184528154815260018201546001600160a01b0390811682850152600283015482860152600383015416606082015260048201546080820152600582015460ff16151560a0820152600682015460c08201526007820180548551818602810186019096528086529194929360e0860193929083018282801561176557602002820191906000526020600020905b81546001600160a01b03168152600190910190602001808311611747575b50505050508152602001600882018054806020026020016040519081016040528092919081815260200182805480156117bd57602002820191906000526020600020905b8154815260200190600101908083116117a9575b505050505081526020016009820180548060200260200160405190810160405280929190818152602001828054801561181f57602002820191906000526020600020905b81546001600160a01b03168152600190910190602001808311611801575b50505050508152602001600a820180548060200260200160405190810160405280929190818152602001828054801561188157602002820191906000526020600020905b81546001600160a01b03168152600190910190602001808311611863575b50505050508152602001600b82018054806020026020016040519081016040528092919081815260200182805480156118d957602002820191906000526020600020905b8154815260200190600101908083116118c5575b5050509183525050600c8201805460408051602060026001851615610100026000190190941693909304601f810184900484028201840190925281815293820193929183018282801561196d5780601f106119425761010080835404028352916020019161196d565b820191906000526020600020905b81548152906001019060200180831161195057829003601f168201915b5050509183525050600d820154602080830191909152600e8301546040830152600f83015460ff16151560608301526010909201546080909101528101519091506119b790612ca6565b603c028160800151014211156119d1576001915050610d88565b50600092915050565b6119e2614465565b6000828152600960209081526040918290208251610220810184528154815260018201546001600160a01b0390811682850152600283015482860152600383015416606082015260048201546080820152600582015460ff16151560a0820152600682015460c08201526007820180548551818602810186019096528086529194929360e08601939290830182828015611aa557602002820191906000526020600020905b81546001600160a01b03168152600190910190602001808311611a87575b5050505050815260200160088201805480602002602001604051908101604052809291908181526020018280548015611afd57602002820191906000526020600020905b815481526020019060010190808311611ae9575b5050505050815260200160098201805480602002602001604051908101604052809291908181526020018280548015611b5f57602002820191906000526020600020905b81546001600160a01b03168152600190910190602001808311611b41575b50505050508152602001600a8201805480602002602001604051908101604052809291908181526020018280548015611bc157602002820191906000526020600020905b81546001600160a01b03168152600190910190602001808311611ba3575b50505050508152602001600b8201805480602002602001604051908101604052809291908181526020018280548015611c1957602002820191906000526020600020905b815481526020019060010190808311611c05575b5050509183525050600c8201805460408051602060026001851615610100026000190190941693909304601f8101849004840282018401909252818152938201939291830182828015611cad5780601f10611c8257610100808354040283529160200191611cad565b820191906000526020600020905b815481529060010190602001808311611c9057829003601f168201915b5050509183525050600d8201546020820152600e8201546040820152600f82015460ff1615156060820152601090910154608090910152905060005b81610100015151811015611db25760045460e083015180516001600160a01b03909216916392825c79919084908110611d1e57fe5b60200260200101518461010001518481518110611d3757fe5b60200260200101516040518363ffffffff1660e01b815260040180836001600160a01b03166001600160a01b0316815260200182815260200192505050600060405180830381600087803b158015611d8e57600080fd5b505af1158015611da2573d6000803e3d6000fd5b505060019092019150611ce99050565b505050565b6000816001600160a01b0316639c6790176040518163ffffffff1660e01b815260040160206040518083038186803b158015611df257600080fd5b505afa158015611e06573d6000803e3d6000fd5b505050506040513d6020811015611e1c57600080fd5b505192915050565b600354610100900460ff1681565b606080606080600060016002611e4661227a565b8354604080516020601f60026000196101006001881615020190951694909404938401819004810282018101909252828152918691830182828015611ecc5780601f10611ea157610100808354040283529160200191611ecc565b820191906000526020600020905b815481529060010190602001808311611eaf57829003601f168201915b5050865460408051602060026001851615610100026000190190941693909304601f810184900484028201840190925281815295995088945092508401905082828015611f5a5780601f10611f2f57610100808354040283529160200191611f5a565b820191906000526020600020905b815481529060010190602001808311611f3d57829003601f168201915b5050855460408051602060026001851615610100026000190190941693909304601f810184900484028201840190925281815295985087945092508401905082828015611fe85780601f10611fbd57610100808354040283529160200191611fe8565b820191906000526020600020905b815481529060010190602001808311611fcb57829003601f168201915b50505050509150935093509350935090919293565b604080518082018252601081526f181899199a1a9b1b9c1cb0b131b232b360811b60208201528151602a80825260608281019094526001600160a01b03851692918491602082018180388339019050509050600360fc1b8160008151811061206157fe5b60200101906001600160f81b031916908160001a905350600f60fb1b8160018151811061208a57fe5b60200101906001600160f81b031916908160001a90535060005b6014811015612170578260048583600c01602081106120bf57fe5b1a60f81b6001600160f81b031916901c60f81c60ff16815181106120df57fe5b602001015160f81c60f81b8282600202600201815181106120fc57fe5b60200101906001600160f81b031916908160001a905350828482600c016020811061212357fe5b825191901a600f1690811061213457fe5b602001015160f81c60f81b82826002026003018151811061215157fe5b60200101906001600160f81b031916908160001a9053506001016120a4565b50949350505050565b60096020908152600091825260409182902080546001808301546002808501546003860154600487015460058801546006890154600c8a0180548d51601f6000199b831615610100029b909b01909116979097049889018c90048c0287018c01909c52878652979a6001600160a01b039687169a94999390961697919660ff90911695919492938301828280156122515780601f1061222657610100808354040283529160200191612251565b820191906000526020600020905b81548152906001019060200180831161223457829003601f168201915b505050600d840154600e850154600f8601546010909601549495919490935060ff90911691508c565b606060405180606001604052806029815260200161466660299139905090565b6002805460408051602060018416156101000260001901909316849004601f81018490048402820184019092528181529291830182828015610d545780601f10610d2957610100808354040283529160200191610d54565b6000805460408051602060026001851615610100026000190190941693909304601f81018490048402820184019092528181529291830182828015610d545780601f10610d2957610100808354040283529160200191610d54565b6007546001600160a01b031681565b6001600160a01b039092166000908152600a6020908152604080832093909355600b90522055565b60606040518060800160405280605581526020016145d960559139905090565b6123ac614465565b6000828152600960209081526040918290208251610220810184528154815260018201546001600160a01b0390811682850152600283015482860152600383015416606082015260048201546080820152600582015460ff16151560a0820152600682015460c08201526007820180548551818602810186019096528086529194929360e0860193929083018282801561246f57602002820191906000526020600020905b81546001600160a01b03168152600190910190602001808311612451575b50505050508152602001600882018054806020026020016040519081016040528092919081815260200182805480156124c757602002820191906000526020600020905b8154815260200190600101908083116124b3575b505050505081526020016009820180548060200260200160405190810160405280929190818152602001828054801561252957602002820191906000526020600020905b81546001600160a01b0316815260019091019060200180831161250b575b50505050508152602001600a820180548060200260200160405190810160405280929190818152602001828054801561258b57602002820191906000526020600020905b81546001600160a01b0316815260019091019060200180831161256d575b50505050508152602001600b82018054806020026020016040519081016040528092919081815260200182805480156125e357602002820191906000526020600020905b8154815260200190600101908083116125cf575b5050509183525050600c8201805460408051602060026001851615610100026000190190941693909304601f81018490048402820184019092528181529382019392918301828280156126775780601f1061264c57610100808354040283529160200191612677565b820191906000526020600020905b81548152906001019060200180831161265a57829003601f168201915b5050509183525050600d8201546020820152600e8201546040820152600f82015460ff161515606082015260109091015460809091015290506126b982611698565b15610da0576126c7826119da565b6101c08101516101a082015160e08301515191019060029004811161270e576127093083602001518460400151604051806020016040528060008152506138d4565b611db2565b60028104826101a001511115612741576127093083602001518460400151604051806020016040528060008152506137e1565b611db23083602001518460400151604051806020016040528060008152506138d4565b600480546001600160a01b0319166001600160a01b0392909216919091179055565b6000805b83518110156127d257826001600160a01b03168482815181106127a957fe5b60200260200101516001600160a01b031614156127ca5760019150506127d8565b60010161278a565b50600090505b92915050565b6005546001600160a01b031681565b6127f5614465565b6000838152600960209081526040918290208251610220810184528154815260018201546001600160a01b0390811682850152600283015482860152600383015416606082015260048201546080820152600582015460ff16151560a0820152600682015460c08201526007820180548551818602810186019096528086529194929360e086019392908301828280156128b857602002820191906000526020600020905b81546001600160a01b0316815260019091019060200180831161289a575b505050505081526020016008820180548060200260200160405190810160405280929190818152602001828054801561291057602002820191906000526020600020905b8154815260200190600101908083116128fc575b505050505081526020016009820180548060200260200160405190810160405280929190818152602001828054801561297257602002820191906000526020600020905b81546001600160a01b03168152600190910190602001808311612954575b50505050508152602001600a82018054806020026020016040519081016040528092919081815260200182805480156129d457602002820191906000526020600020905b81546001600160a01b031681526001909101906020018083116129b6575b50505050508152602001600b8201805480602002602001604051908101604052809291908181526020018280548015612a2c57602002820191906000526020600020905b815481526020019060010190808311612a18575b5050509183525050600c8201805460408051602060026001851615610100026000190190941693909304601f8101849004840282018401909252818152938201939291830182828015612ac05780601f10612a9557610100808354040283529160200191612ac0565b820191906000526020600020905b815481529060010190602001808311612aa357829003601f168201915b5050509183525050600d8201546020820152600e8201546040820152600f82015460ff161515606082015260109091015460809091015260045460e082015180519293506001600160a01b03909116916392825c79919085908110612b2157fe5b60200260200101518361010001518581518110612b3a57fe5b60200260200101516040518363ffffffff1660e01b815260040180836001600160a01b03166001600160a01b0316815260200182815260200192505050600060405180830381600087803b158015612b9157600080fd5b505af1158015612ba5573d6000803e3d6000fd5b50505050505050565b6003546201000090046001600160a01b03163314612bfd5760405162461bcd60e51b815260040180806020018281038252603e81526020018061470e603e913960400191505060405180910390fd5b600680546001600160a01b0319166001600160a01b0392909216919091179055565b33612c2c8484838561395a565b50505050565b6000805b83518110156127d257826001600160a01b0316848281518110612c5557fe5b60200260200101516001600160a01b03161415612c735790506127d8565b600101612c36565b600580546001600160a01b0319166001600160a01b0392909216919091179055565b60035460ff1681565b6001600160a01b03166000908152600b602052604090205490565b600a6020526000908152604090205481565b60085481565b600780546001600160a01b0319166001600160a01b0392909216919091179055565b60408051808201909152600d8082526c4c696d69746564566f74696e6760981b6020909201918252612d2f916001916143e7565b5060405180606001604052806038815260200161462e603891398051612d5d916002916020909101906143e7565b50565b6004546001600160a01b031681565b33612d78614465565b6000848152600960209081526040918290208251610220810184528154815260018201546001600160a01b0390811682850152600283015482860152600383015416606082015260048201546080820152600582015460ff16151560a0820152600682015460c08201526007820180548551818602810186019096528086529194929360e08601939290830182828015612e3b57602002820191906000526020600020905b81546001600160a01b03168152600190910190602001808311612e1d575b5050505050815260200160088201805480602002602001604051908101604052809291908181526020018280548015612e9357602002820191906000526020600020905b815481526020019060010190808311612e7f575b5050505050815260200160098201805480602002602001604051908101604052809291908181526020018280548015612ef557602002820191906000526020600020905b81546001600160a01b03168152600190910190602001808311612ed7575b50505050508152602001600a8201805480602002602001604051908101604052809291908181526020018280548015612f5757602002820191906000526020600020905b81546001600160a01b03168152600190910190602001808311612f39575b50505050508152602001600b8201805480602002602001604051908101604052809291908181526020018280548015612faf57602002820191906000526020600020905b815481526020019060010190808311612f9b575b5050509183525050600c8201805460408051602060026001851615610100026000190190941693909304601f81018490048402820184019092528181529382019392918301828280156130435780601f1061301857610100808354040283529160200191613043565b820191906000526020600020905b81548152906001019060200180831161302657829003601f168201915b5050509183525050600d8201546020820152600e8201546040820152600f82015460ff161515606082015260109091015460809091015260e08101519091506130929085906111bb9085612c32565b606081602001516001600160a01b03166306fdde036040518163ffffffff1660e01b815260040160006040518083038186803b1580156130d157600080fd5b505afa1580156130e5573d6000803e3d6000fd5b505050506040513d6000823e601f3d908101601f19168201604052602081101561310e57600080fd5b8101908080516040519392919084600160201b82111561312d57600080fd5b90830190602082018581111561314257600080fd5b8251600160201b81118282018810171561315b57600080fd5b82525081516020918201929091019080838360005b83811015613188578181015183820152602001613170565b50505050905090810190601f1680156131b55780820380516001836020036101000a031916815260200191505b5060405250505060405160200180806146be6050913960500182805190602001908083835b602083106131f95780518252601f1990920191602091820191016131da565b6001836020036101000a03801982511681845116808217855250505050505090500191505060405160208183030381529060405290506000845111156132fb5780846040516020018083805190602001908083835b6020831061326d5780518252601f19909201916020918201910161324e565b51815160209384036101000a60001901801990921691161790526101d160f51b919093019081528451600290910192850191508083835b602083106132c35780518252601f1990920191602091820191016132a4565b6001836020036101000a0380198251168184511680821785525050505050509050019250505060405160208183030381529060405290505b82826101400151836101c001518151811061331257fe5b6001600160a01b03909216602092830291909101909101526101c082018051600101905260e08201515160029004826101c00151111561361957600080613358876119da565b6101c0840151156133ee57836101c00151600560009054906101000a90046001600160a01b03166001600160a01b031663065480066040518163ffffffff1660e01b815260040160206040518083038186803b1580156133b757600080fd5b505afa1580156133cb573d6000803e3d6000fd5b505050506040513d60208110156133e157600080fd5b5051816133ea57fe5b0491505b6101a08401511561348457836101a00151600560009054906101000a90046001600160a01b03166001600160a01b03166348cd5b876040518163ffffffff1660e01b815260040160206040518083038186803b15801561344d57600080fd5b505afa158015613461573d6000803e3d6000fd5b505050506040513d602081101561347757600080fd5b50518161348057fe5b0490505b60005b846101c001518110156135485760065461014086015180516001600160a01b03909216916340c10f199190849081106134bc57fe5b6020026020010151856040518363ffffffff1660e01b815260040180836001600160a01b03166001600160a01b0316815260200182815260200192505050602060405180830381600087803b15801561351457600080fd5b505af1158015613528573d6000803e3d6000fd5b505050506040513d602081101561353e57600080fd5b5050600101613487565b5060005b846101a001518110156135fd5760065461012086015180516001600160a01b03909216916379cc679091908490811061358157fe5b6020026020010151846040518363ffffffff1660e01b815260040180836001600160a01b03166001600160a01b0316815260200182815260200192505050600060405180830381600087803b1580156135d957600080fd5b505af11580156135ed573d6000803e3d6000fd5b50506001909201915061354c9050565b506136123085602001518660400151866138d4565b505061365e565b816101c00151826101a00151148015613645575060028260e00151518161363c57fe5b04826101a00151145b1561365e5761365e3083602001518460400151846138d4565b60008581526009602090815260409182902084518155848201516001820180546001600160a01b03199081166001600160a01b039384161790915593860151600283015560608601516003830180549095169116179092556080840151600483015560a084015160058301805460ff191691151591909117905560c0840151600683015560e084015180518593926136fd9260078501929101906144ff565b50610100820151805161371a916008840191602090910190614560565b5061012082015180516137379160098401916020909101906144ff565b50610140820151805161375491600a8401916020909101906144ff565b50610160820151805161377191600b840191602090910190614560565b50610180820151805161378e91600c8401916020909101906143e7565b506101a0820151600d8201556101c0820151600e8201556101e0820151600f8201805460ff1916911515919091179055610200909101516010909101555050505050565b6006546001600160a01b031681565b6137eb83836141b6565b50826001600160a01b031663bdc656e98584846040518463ffffffff1660e01b815260040180846001600160a01b03166001600160a01b0316815260200183815260200180602001828103825283818151815260200191508051906020019080838360005b83811015613868578181015183820152602001613850565b50505050905090810190601f1680156138955780820380516001836020036101000a031916815260200191505b50945050505050600060405180830381600087803b1580156138b657600080fd5b505af11580156138ca573d6000803e3d6000fd5b5050505050505050565b6138de83836141b6565b50826001600160a01b0316637c41e5d88584846040518463ffffffff1660e01b815260040180846001600160a01b03166001600160a01b03168152602001838152602001806020018281038252838181518152602001915080519060200190808383600083811015613868578181015183820152602001613850565b613962614465565b4260808201526001600160a01b0380861660208301526040820185905284825283811660608084019190915260075490911663869b0de26139a288610d6e565b866040518363ffffffff1660e01b815260040180838152602001826001600160a01b03166001600160a01b031681526020019250505060006040518083038186803b1580156139f057600080fd5b505afa158015613a04573d6000803e3d6000fd5b505050506040513d6000823e601f3d908101601f191682016040526020811015613a2d57600080fd5b8101908080516040519392919084600160201b821115613a4c57600080fd5b908301906020820185811115613a6157600080fd5b82518660208202830111600160201b82111715613a7d57600080fd5b82525081516020918201928201910280838360005b83811015613aaa578181015183820152602001613a92565b5050505091909101604052505060006101a086018190526101c08601819052610180860187905260a08601525090915060609050613ae6612384565b876001600160a01b03166306fdde036040518163ffffffff1660e01b815260040160006040518083038186803b158015613b1f57600080fd5b505afa158015613b33573d6000803e3d6000fd5b505050506040513d6000823e601f3d908101601f191682016040526020811015613b5c57600080fd5b8101908080516040519392919084600160201b821115613b7b57600080fd5b908301906020820185811115613b9057600080fd5b8251600160201b811182820188101715613ba957600080fd5b82525081516020918201929091019080838360005b83811015613bd6578181015183820152602001613bbe565b50505050905090810190601f168015613c035780820380516001836020036101000a031916815260200191505b506040525050506040516020018083805190602001908083835b60208310613c3c5780518252601f199092019160209182019101613c1d565b51815160209384036101000a600019018019909216911617905285519190930192850191508083835b60208310613c845780518252601f199092019160209182019101613c65565b6001836020036101000a0380198251168184511680821785525050505050509050018061468f602f9139602f019250505060405160208183030381529060405290508151604051908082528060200260200182016040528015613cf1578160200160208202803883390190505b5060e08401528151604080518281526020808402820101909152908015613d22578160200160208202803883390190505b506101208401528151604080518281526020808402820101909152908015613d54578160200160208202803883390190505b506101408401528151604080518281526020808402820101909152908015613d86578160200160208202803883390190505b506101008401528151604080518281526020808402820101909152908015613db8578160200160208202803883390190505b5061016084015260005b825181101561402a57828181518110613dd757fe5b60200260200101518460e001518281518110613def57fe5b6001600160a01b039283166020918202929092010152600454845191169063a12e93dd908890600190879086908110613e2457fe5b602090810291909101015188516040516001600160e01b031960e087901b1681526001600160a01b0380861660048301908152908416604483015260a4820183905260c06024830190815285546002600019610100600184161502019091160460c484018190528b948f94909392916064820191608481019160e4909101908a908015613ef25780601f10613ec757610100808354040283529160200191613ef2565b820191906000526020600020905b815481529060010190602001808311613ed557829003601f168201915b5050848103835287518152875160209182019189019080838360005b83811015613f26578181015183820152602001613f0e565b50505050905090810190601f168015613f535780820380516001836020036101000a031916815260200191505b50848103825286518152865160209182019188019080838360005b83811015613f86578181015183820152602001613f6e565b50505050905090810190601f168015613fb35780820380516001836020036101000a031916815260200191505b509950505050505050505050602060405180830381600087803b158015613fd957600080fd5b505af1158015613fed573d6000803e3d6000fd5b505050506040513d602081101561400357600080fd5b505161010085015180518390811061401757fe5b6020908102919091010152600101613dc2565b5060008681526009602090815260409182902085518155858201516001820180546001600160a01b03199081166001600160a01b039384161790915593870151600283015560608701516003830180549095169116179092556080850151600483015560a085015160058301805460ff191691151591909117905560c0850151600683015560e085015180518693926140ca9260078501929101906144ff565b5061010082015180516140e7916008840191602090910190614560565b5061012082015180516141049160098401916020909101906144ff565b50610140820151805161412191600a8401916020909101906144ff565b50610160820151805161413e91600b840191602090910190614560565b50610180820151805161415b91600c8401916020909101906143e7565b506101a0820151600d8201556101c0820151600e8201556101e0820151600f8201805460ff191691151591909117905561020090910151601090910155604080516020810190915260008152612ba5903090899089906142a0565b6040805162379c0960e91b815230600482015260248101839052905160009182916001600160a01b03861691636f38120091604480830192602092919082900301818787803b15801561420857600080fd5b505af115801561421c573d6000803e3d6000fd5b505050506040513d602081101561423257600080fd5b5051905060028114801590614248575080600314155b614299576040805162461bcd60e51b815260206004820181905260248201527f5468697320766572696669657220697320616c72656164792064656369646564604482015290519081900360640190fd5b5092915050565b6040805162379c0960e91b81523060048201526024810184905290516001600160a01b03851691636f3812009160448083019260209291908290030181600087803b1580156142ee57600080fd5b505af1158015614302573d6000803e3d6000fd5b505050506040513d602081101561431857600080fd5b50511561436c576040805162461bcd60e51b815260206004820152601f60248201527f546869732070726f6f6620697320616c7265616479207375626d697474656400604482015290519081900360640190fd5b826001600160a01b03166359af61528584846040518463ffffffff1660e01b815260040180846001600160a01b03166001600160a01b03168152602001838152602001806020018281038252838181518152602001915080519060200190808383600083811015613868578181015183820152602001613850565b828054600181600116156101000203166002900490600052602060002090601f016020900481019282601f1061442857805160ff1916838001178555614455565b82800160010185558215614455579182015b8281111561445557825182559160200191906001019061443a565b5061446192915061459a565b5090565b6040518061022001604052806000815260200160006001600160a01b031681526020016000815260200160006001600160a01b0316815260200160008152602001600015158152602001600081526020016060815260200160608152602001606081526020016060815260200160608152602001606081526020016000815260200160008152602001600015158152602001600081525090565b828054828255906000526020600020908101928215614554579160200282015b8281111561455457825182546001600160a01b0319166001600160a01b0390911617825560209092019160019091019061451f565b506144619291506145b4565b828054828255906000526020600020908101928215614455579160200282018281111561445557825182559160200191906001019061443a565b610e3791905b8082111561446157600081556001016145a0565b610e3791905b808211156144615780546001600160a01b03191681556001016145ba56fe596f752068617665206265656e2072616e646f6d6c792073656c656374656420746f20706172746963697061746520696e20766f74696e6720666f72207468697320636c61696d206f6e2074686520746f6b656e205468652070726f6f662069732073656e7420746f207468652075736572732064756520746f20612072616e646f6d206d656368616e69736d75696e743a4e756d626572206f662055736572732c75696e743a54696d6520696e204d696e757465732e20436f6e73656e7375732069732072656163686564207573696e67204162736f6c757465204d616a6f726974792e41206d656d626572206f6620746865206170706f696e74656420617070726f7665722067726f7570206861732072656a656374656420796f757220617070726f76616c207265717565737420666f72204f6e6c79207468652063726561746f72206f66207468697320736d61727420636f6e74726163742063616e2063616c6c20746869732066756e6374696f6ea265627a7a723158204d4ac1944b38740ae9f349d1a664fcb4a5605653e672eef9b68cb5fcda52d0ae64736f6c634300051100325468652070726f6f662069732073656e7420746f207468652075736572732064756520746f20612072616e646f6d206d656368616e69736d",
  "source": "pragma solidity ^0.5.17;\nimport \"contracts/verifiers/Fin4BaseVerifierType.sol\";\nimport \"contracts/Fin4TokenBase.sol\";\nimport \"contracts/Fin4Messaging.sol\";\nimport 'contracts/stub/MintingStub.sol';\nimport 'contracts/stub/BurningStub.sol';\nimport 'contracts/Fin4SystemParameters.sol';\nimport 'contracts/Fin4Voting.sol';\n\ncontract LimitedVoting is Fin4BaseVerifierType {\n\n     constructor() public  {\n        creator = msg.sender;\n        init();\n    }\n\n    address public creator;\n    address public Fin4MessagingAddress;\n    address public Fin4SystemParametersAddress;\n    address public Fin4ReputationAddress;\n    address public Fin4VotingAddress;\n\n    function setFin4MessagingAddress(address Fin4MessagingAddr) public {\n        Fin4MessagingAddress = Fin4MessagingAddr;\n    }\n\n    function setFin4SystemParametersAddress(address SystemParametersAddr) public {\n        Fin4SystemParametersAddress = SystemParametersAddr;\n    }\n\n    function setFin4VotingAddress(address VotingAddr) public {\n        Fin4VotingAddress = VotingAddr;\n    }\n\n    function setFin4ReputationAddress(address Fin4ReputationAddr) public {\n        require(msg.sender == creator, \"Only the creator of this smart contract can call this function\");\n        Fin4ReputationAddress = Fin4ReputationAddr;\n    }\n\n    // @Override\n    function init() public {\n        name = \"LimitedVoting\";\n        description = \"The proof is sent to the users due to a random mechanism\";\n    }\n\n    uint public nextclaimId = 0;\n    mapping (uint => PendingApproval) public pendingApprovals; // just use an array? TODO\n\n    struct PendingApproval {\n        uint claimId;\n        address tokenAddrToReceiveVerifierNotice;\n        uint claimIdOnTokenToReceiveVerifierDecision;\n        address requester;\n        uint start;\n        bool isIndividualApprover; // false means group-usage\n\n        uint approverGroupId;\n        // the following two arrays belong tightly together\n        address[] groupMemberAddresses; // store a snapshot of those here or not? #ConceptualDecision\n                                        // if not, a mechanism to mark messages as read is needed\n        uint[] messageIds;\n        address[] Approved;\n        address[] Rejected;\n        uint[] reputation;\n        string attachment;\n        uint nbApproved;\n        uint nbRejected;\n        bool isApproved; // in case of multiple PendingApprovals waiting for each other\n        uint linkedWithclaimId;\n    }\n\n    function submitProof_LimitedVoting(address tokenAddrToReceiveVerifierNotice, uint claimId, string memory IPFShash) public {\n        address claimer = msg.sender;\n        _submitProof_LimitedVoting(tokenAddrToReceiveVerifierNotice, claimId, claimer, IPFShash);\n    }\n\n    function _submitProof_LimitedVoting(address tokenAddrToReceiveVerifierNotice, uint claimId, address claimer, string memory IPFShash) internal {\n        PendingApproval memory pa;\n        pa.start = block.timestamp;\n        pa.tokenAddrToReceiveVerifierNotice = tokenAddrToReceiveVerifierNotice;\n        pa.claimIdOnTokenToReceiveVerifierDecision = claimId;\n        pa.claimId = claimId;\n        pa.requester = claimer;\n        address[] memory members = Fin4Voting(Fin4VotingAddress)\n            .createRandomGroupOfUsers(_getNbUsers(tokenAddrToReceiveVerifierNotice), claimer);\n        pa.nbApproved = 0;\n        pa.nbRejected = 0;\n        pa.attachment = IPFShash;\n        pa.isIndividualApprover = false;\n        string memory message = string(abi.encodePacked(getMessageText(), Fin4TokenBase(tokenAddrToReceiveVerifierNotice).name(),\n            \". Consensus is reached using Absolute Majority.\")); // The action that is supposed to be done is: \", Fin4TokenBase(tokenAddrToReceiveVerifierNotice).getAction()));\n\n        // address[] memory members = Fin4Groups(Fin4GroupsAddress).getGroupMembers(groupId);\n        pa.groupMemberAddresses = new address[](members.length);\n        pa.Approved = new address[](members.length);\n        pa.Rejected = new address[](members.length);\n        pa.messageIds = new uint[](members.length);\n        pa.reputation = new uint[](members.length);\n        for (uint i = 0; i < members.length; i ++) {\n            pa.groupMemberAddresses[i] = members[i];\n            pa.messageIds[i] = Fin4Messaging(Fin4MessagingAddress)\n                .addPendingRequestMessage(claimer, name, members[i], message, IPFShash, pa.claimId);\n        }\n\n        pendingApprovals[claimId] = pa;\n        _sendPendingNotice(address(this), tokenAddrToReceiveVerifierNotice, claimId, \"\");\n    }\n\n    // Check if time has elapsed\n    function endVotePossible(uint claimId) public view returns (bool) {\n        PendingApproval memory pa = pendingApprovals[claimId];\n        if (block.timestamp > pa.start + _getTimeInMinutes(pa.tokenAddrToReceiveVerifierNotice) * 1 minutes) {\n            return true;\n        }\n        return false;\n    }\n\n    // Performs end of vote if time has elapsed\n    function endVote(uint claimId) public {\n        PendingApproval memory pa = pendingApprovals[claimId];\n        if (endVotePossible(claimId)) {\n            markMessagesAsRead(claimId);\n            uint quorum = pa.nbApproved + pa.nbRejected;\n            // Check if Quorum is reached\n            // If not\n            if (quorum <= pa.groupMemberAddresses.length / 2) {\n                _sendRejectionNotice(address(this), pa.tokenAddrToReceiveVerifierNotice, pa.claimIdOnTokenToReceiveVerifierDecision, \"\");\n            }\n            // If yes check simple majority\n            else {\n                if (pa.nbApproved > quorum / 2) {\n                    _sendApprovalNotice(address(this), pa.tokenAddrToReceiveVerifierNotice, pa.claimIdOnTokenToReceiveVerifierDecision, \"\");\n                } else {\n                    _sendRejectionNotice(address(this), pa.tokenAddrToReceiveVerifierNotice, pa.claimIdOnTokenToReceiveVerifierDecision, \"\");\n                }\n            }\n        }\n    }\n\n    function getMessageText() public pure returns(string memory) {\n        return \"You have been randomly selected to participate in voting for this claim on the token \";\n    }\n\n    // @Override\n    function getParameterForTokenCreatorToSetEncoded() public pure returns(string memory) {\n      return \"uint:Number of Users,uint:Time in Minutes\";\n    }\n\n    mapping (address => uint) public tokenToParameter;\n    mapping (address => uint) public tokenToParameterTime;\n\n    // Called when creating a token with this verifier\n    function setParameters(address token, uint nbUsers, uint timeInMinutes) public {\n        tokenToParameter[token] = nbUsers;\n        tokenToParameterTime[token] = timeInMinutes;\n    }\n\n    function _getNbUsers(address token) public view returns(uint) {\n        return tokenToParameter[token];\n    }\n\n    function _getTimeInMinutes(address token) public view returns(uint) {\n        return tokenToParameterTime[token];\n    }\n\n    // copied method signature from SpecificAddress, then nothing has to be changed in Messages.jsx\n\n    function getIndexOf(address[] memory voters, address member) public pure returns(uint) {\n        for (uint i = 0; i < voters.length; i ++) {\n            if (voters[i] == member) {\n                return i;\n            }\n        }\n        return 0;\n    }\n\n    function receiveApproval(uint claimId, string memory attachedMessage) public {\n        address voter = msg.sender;\n        PendingApproval memory pa = pendingApprovals[claimId];\n        markMessageAsRead(claimId, getIndexOf(pa.groupMemberAddresses, voter));\n        pa.Approved[pa.nbApproved] = voter;\n        pa.nbApproved = pa.nbApproved + 1;\n        // Check if consensus is reached\n        if (pa.nbApproved > pa.groupMemberAddresses.length/2){\n            markMessagesAsRead(claimId);\n            uint REPS = 0;\n            uint REPF = 0;\n            if (pa.nbApproved != 0) {\n                REPS = Fin4SystemParameters(Fin4SystemParametersAddress).REPforSuccesfulVote() / pa.nbApproved;\n            }\n            if (pa.nbRejected != 0) {\n                REPF = Fin4SystemParameters(Fin4SystemParametersAddress).REPforFailedVote() / pa.nbRejected;\n            }\n            // Reward voters that approved\n            for (uint i = 0; i < pa.nbApproved; i++) {\n               MintingStub(Fin4ReputationAddress).mint(pa.Approved[i], REPS);\n            }\n            // Punish voters that rejected\n            for (uint i = 0; i < pa.nbRejected; i++) {\n                BurningStub(Fin4ReputationAddress).burnFrom(pa.Rejected[i], REPF);\n            }\n            _sendApprovalNotice(address(this), pa.tokenAddrToReceiveVerifierNotice, pa.claimIdOnTokenToReceiveVerifierDecision, attachedMessage);\n        }\n        else if (pa.nbApproved==pa.nbRejected && pa.nbApproved==pa.groupMemberAddresses.length / 2) {\n            _sendRejectionNotice(address(this), pa.tokenAddrToReceiveVerifierNotice, pa.claimIdOnTokenToReceiveVerifierDecision, attachedMessage);\n        }\n        pendingApprovals[claimId] = pa;\n    }\n\n    function receiveRejection(uint claimId, string memory attachedMessage) public {\n        address voter = msg.sender;\n        PendingApproval memory pa = pendingApprovals[claimId];\n        markMessageAsRead(claimId, getIndexOf(pa.groupMemberAddresses, voter));\n        string memory message = string(abi.encodePacked(\n            \"A member of the appointed approver group has rejected your approval request for \",\n            Fin4TokenBase(pa.tokenAddrToReceiveVerifierNotice).name()));\n        if (bytes(attachedMessage).length > 0) {\n            message = string(abi.encodePacked(message, ': ', attachedMessage));\n        }\n        pa.Rejected[pa.nbRejected] = voter;\n        pa.nbRejected = pa.nbRejected + 1;\n        if (pa.nbRejected > pa.groupMemberAddresses.length / 2) {\n            uint REPS = 0;\n            uint REPF = 0;\n            markMessagesAsRead(claimId);\n            if(pa.nbRejected != 0) {\n                REPS = Fin4SystemParameters(Fin4SystemParametersAddress).REPforSuccesfulVote() / pa.nbRejected;\n            }\n            if(pa.nbApproved != 0) {\n                REPF = Fin4SystemParameters(Fin4SystemParametersAddress).REPforFailedVote() / pa.nbApproved;\n            }\n            for (uint i = 0; i < pa.nbRejected; i++) {\n                MintingStub(Fin4ReputationAddress).mint(pa.Rejected[i], REPS);\n            }\n            for (uint i = 0; i < pa.nbApproved; i++) {\n                BurningStub(Fin4ReputationAddress).burnFrom(pa.Approved[i], REPF);\n            }\n            _sendRejectionNotice(address(this), pa.tokenAddrToReceiveVerifierNotice, pa.claimIdOnTokenToReceiveVerifierDecision, message);\n            // Fin4Groups(Fin4GroupsAddress).DeleteGroup(pa.approverGroupId);\n        }\n        else if (pa.nbApproved==pa.nbRejected && pa.nbApproved==pa.groupMemberAddresses.length / 2) {\n            _sendRejectionNotice(address(this), pa.tokenAddrToReceiveVerifierNotice, pa.claimIdOnTokenToReceiveVerifierDecision, message);\n        }\n        pendingApprovals[claimId] = pa;\n    }\n\n    // Mark messages of all users as read\n    function markMessagesAsRead(uint claimId) public {\n        PendingApproval memory pa = pendingApprovals[claimId];\n        for (uint i = 0; i < pa.messageIds.length; i ++) {\n            Fin4Messaging(Fin4MessagingAddress).markMessageAsActedUpon(pa.groupMemberAddresses[i], pa.messageIds[i]);\n        }\n    }\n\n    // Mark message of current user as read\n    function markMessageAsRead(uint claimId, uint index) public {\n        PendingApproval memory pa = pendingApprovals[claimId];\n        Fin4Messaging(Fin4MessagingAddress).markMessageAsActedUpon(pa.groupMemberAddresses[index], pa.messageIds[index]);\n    }\n}\n",
  "sourcePath": "/home/cantonioupao/susDAO-saveMe/FIN4Contracts/contracts/verifiers/onchain/social/LimitedVoting.sol",
  "compiler": {
    "name": "solc",
    "version": "0.5.17+commit.d19bba13.Emscripten.clang"
  },
  "schemaVersion": "3.3.1",
  "updatedAt": "2020-12-03T18:31:10.059Z",
  "devdoc": {
    "methods": {}
  },
  "userdoc": {
    "methods": {}
  }
}