{
  "contractName": "Location",
  "abi": [
    {
      "inputs": [],
      "payable": false,
      "stateMutability": "nonpayable",
      "type": "constructor"
    },
    {
      "constant": true,
      "inputs": [
        {
          "internalType": "address",
          "name": "_addr",
          "type": "address"
        }
      ],
      "name": "addressToString",
      "outputs": [
        {
          "internalType": "string",
          "name": "",
          "type": "string"
        }
      ],
      "payable": false,
      "stateMutability": "pure",
      "type": "function"
    },
    {
      "constant": true,
      "inputs": [
        {
          "internalType": "address[]",
          "name": "arr",
          "type": "address[]"
        },
        {
          "internalType": "address",
          "name": "addrToCheck",
          "type": "address"
        }
      ],
      "name": "arrayContainsAddress",
      "outputs": [
        {
          "internalType": "bool",
          "name": "",
          "type": "bool"
        }
      ],
      "payable": false,
      "stateMutability": "pure",
      "type": "function"
    },
    {
      "constant": false,
      "inputs": [
        {
          "internalType": "address",
          "name": "user",
          "type": "address"
        },
        {
          "internalType": "address",
          "name": "tokenAddrToReceiveVerifierNotice",
          "type": "address"
        },
        {
          "internalType": "uint256",
          "name": "claimId",
          "type": "uint256"
        }
      ],
      "name": "autoCheck",
      "outputs": [],
      "payable": false,
      "stateMutability": "nonpayable",
      "type": "function"
    },
    {
      "constant": false,
      "inputs": [
        {
          "internalType": "address",
          "name": "user",
          "type": "address"
        },
        {
          "internalType": "address",
          "name": "tokenAddrToReceiveVerifierNotice",
          "type": "address"
        },
        {
          "internalType": "uint256",
          "name": "claimId",
          "type": "uint256"
        }
      ],
      "name": "autoSubmitProof",
      "outputs": [],
      "payable": false,
      "stateMutability": "nonpayable",
      "type": "function"
    },
    {
      "constant": true,
      "inputs": [],
      "name": "contractName",
      "outputs": [
        {
          "internalType": "string",
          "name": "",
          "type": "string"
        }
      ],
      "payable": false,
      "stateMutability": "view",
      "type": "function"
    },
    {
      "constant": true,
      "inputs": [],
      "name": "description",
      "outputs": [
        {
          "internalType": "string",
          "name": "",
          "type": "string"
        }
      ],
      "payable": false,
      "stateMutability": "view",
      "type": "function"
    },
    {
      "constant": true,
      "inputs": [
        {
          "internalType": "address",
          "name": "tokenAddress",
          "type": "address"
        }
      ],
      "name": "getCreatorOfToken",
      "outputs": [
        {
          "internalType": "address",
          "name": "",
          "type": "address"
        }
      ],
      "payable": false,
      "stateMutability": "view",
      "type": "function"
    },
    {
      "constant": true,
      "inputs": [],
      "name": "getDescription",
      "outputs": [
        {
          "internalType": "string",
          "name": "",
          "type": "string"
        }
      ],
      "payable": false,
      "stateMutability": "view",
      "type": "function"
    },
    {
      "constant": true,
      "inputs": [],
      "name": "getInfo",
      "outputs": [
        {
          "internalType": "string",
          "name": "",
          "type": "string"
        },
        {
          "internalType": "string",
          "name": "",
          "type": "string"
        },
        {
          "internalType": "string",
          "name": "",
          "type": "string"
        },
        {
          "internalType": "string",
          "name": "",
          "type": "string"
        }
      ],
      "payable": false,
      "stateMutability": "view",
      "type": "function"
    },
    {
      "constant": true,
      "inputs": [],
      "name": "getName",
      "outputs": [
        {
          "internalType": "string",
          "name": "",
          "type": "string"
        }
      ],
      "payable": false,
      "stateMutability": "view",
      "type": "function"
    },
    {
      "constant": true,
      "inputs": [],
      "name": "isAutoCheckable",
      "outputs": [
        {
          "internalType": "bool",
          "name": "",
          "type": "bool"
        }
      ],
      "payable": false,
      "stateMutability": "view",
      "type": "function"
    },
    {
      "constant": true,
      "inputs": [],
      "name": "isAutoInitiable",
      "outputs": [
        {
          "internalType": "bool",
          "name": "",
          "type": "bool"
        }
      ],
      "payable": false,
      "stateMutability": "view",
      "type": "function"
    },
    {
      "constant": true,
      "inputs": [
        {
          "internalType": "address",
          "name": "",
          "type": "address"
        }
      ],
      "name": "lat0",
      "outputs": [
        {
          "internalType": "int256",
          "name": "",
          "type": "int256"
        }
      ],
      "payable": false,
      "stateMutability": "view",
      "type": "function"
    },
    {
      "constant": true,
      "inputs": [
        {
          "internalType": "address",
          "name": "",
          "type": "address"
        }
      ],
      "name": "lon0",
      "outputs": [
        {
          "internalType": "int256",
          "name": "",
          "type": "int256"
        }
      ],
      "payable": false,
      "stateMutability": "view",
      "type": "function"
    },
    {
      "constant": true,
      "inputs": [],
      "name": "name",
      "outputs": [
        {
          "internalType": "string",
          "name": "",
          "type": "string"
        }
      ],
      "payable": false,
      "stateMutability": "view",
      "type": "function"
    },
    {
      "constant": false,
      "inputs": [
        {
          "internalType": "string",
          "name": "_contractName",
          "type": "string"
        }
      ],
      "name": "setContractName",
      "outputs": [],
      "payable": false,
      "stateMutability": "nonpayable",
      "type": "function"
    },
    {
      "constant": true,
      "inputs": [
        {
          "internalType": "address",
          "name": "",
          "type": "address"
        }
      ],
      "name": "tokenToLatLonStrParameter",
      "outputs": [
        {
          "internalType": "string",
          "name": "",
          "type": "string"
        }
      ],
      "payable": false,
      "stateMutability": "view",
      "type": "function"
    },
    {
      "constant": true,
      "inputs": [
        {
          "internalType": "address",
          "name": "",
          "type": "address"
        }
      ],
      "name": "tokenToMaxDistParameter",
      "outputs": [
        {
          "internalType": "uint256",
          "name": "",
          "type": "uint256"
        }
      ],
      "payable": false,
      "stateMutability": "view",
      "type": "function"
    },
    {
      "constant": true,
      "inputs": [
        {
          "internalType": "int256",
          "name": "lat0",
          "type": "int256"
        },
        {
          "internalType": "int256",
          "name": "lon0",
          "type": "int256"
        },
        {
          "internalType": "int256",
          "name": "lat1",
          "type": "int256"
        },
        {
          "internalType": "int256",
          "name": "lon1",
          "type": "int256"
        }
      ],
      "name": "calculateDistance",
      "outputs": [
        {
          "internalType": "uint256",
          "name": "",
          "type": "uint256"
        }
      ],
      "payable": false,
      "stateMutability": "pure",
      "type": "function"
    },
    {
      "constant": false,
      "inputs": [
        {
          "internalType": "address",
          "name": "tokenAddrToReceiveVerifierNotice",
          "type": "address"
        },
        {
          "internalType": "uint256",
          "name": "claimId",
          "type": "uint256"
        },
        {
          "internalType": "uint256",
          "name": "distanceToLocation",
          "type": "uint256"
        }
      ],
      "name": "submitProof_Location",
      "outputs": [],
      "payable": false,
      "stateMutability": "nonpayable",
      "type": "function"
    },
    {
      "constant": false,
      "inputs": [
        {
          "internalType": "address",
          "name": "tokenAddrToReceiveVerifierNotice",
          "type": "address"
        },
        {
          "internalType": "uint256",
          "name": "claimId",
          "type": "uint256"
        },
        {
          "internalType": "int256",
          "name": "lat1",
          "type": "int256"
        },
        {
          "internalType": "int256",
          "name": "lon1",
          "type": "int256"
        }
      ],
      "name": "submitProof_Location_Server",
      "outputs": [],
      "payable": false,
      "stateMutability": "nonpayable",
      "type": "function"
    },
    {
      "constant": true,
      "inputs": [
        {
          "internalType": "address",
          "name": "token",
          "type": "address"
        },
        {
          "internalType": "uint256",
          "name": "distanceToLocation",
          "type": "uint256"
        }
      ],
      "name": "locationIsWithinMaxDistToSpecifiedLocation",
      "outputs": [
        {
          "internalType": "bool",
          "name": "",
          "type": "bool"
        }
      ],
      "payable": false,
      "stateMutability": "view",
      "type": "function"
    },
    {
      "constant": false,
      "inputs": [
        {
          "internalType": "address",
          "name": "token",
          "type": "address"
        },
        {
          "internalType": "string",
          "name": "latLonString",
          "type": "string"
        },
        {
          "internalType": "uint256",
          "name": "maxDistance",
          "type": "uint256"
        }
      ],
      "name": "setParameters",
      "outputs": [],
      "payable": false,
      "stateMutability": "nonpayable",
      "type": "function"
    },
    {
      "constant": true,
      "inputs": [
        {
          "internalType": "address",
          "name": "token",
          "type": "address"
        }
      ],
      "name": "getLatitudeLongitudeString",
      "outputs": [
        {
          "internalType": "string",
          "name": "",
          "type": "string"
        }
      ],
      "payable": false,
      "stateMutability": "view",
      "type": "function"
    },
    {
      "constant": true,
      "inputs": [],
      "name": "getParameterForTokenCreatorToSetEncoded",
      "outputs": [
        {
          "internalType": "string",
          "name": "",
          "type": "string"
        }
      ],
      "payable": false,
      "stateMutability": "pure",
      "type": "function"
    }
  ],
  "bytecode": "0x60806040526003805461ffff191690553480156200001c57600080fd5b50604080518082019091526008808252672637b1b0ba34b7b760c11b60209092019182526200004e9160019162000086565b506040518060a0016040528060638152602001620020026063913980516200007f9160029160209091019062000086565b506200012b565b828054600181600116156101000203166002900490600052602060002090601f016020900481019282601f10620000c957805160ff1916838001178555620000f9565b82800160010185558215620000f9579182015b82811115620000f9578251825591602001919060010190620000dc565b50620001079291506200010b565b5090565b6200012891905b8082111562000107576000815560010162000112565b90565b611ec7806200013b6000396000f3fe608060405234801561001057600080fd5b50600436106101735760003560e01c806357c35d0b116100de57806375d0c0dc11610097578063a30e3f2511610071578063a30e3f25146107ca578063ae18e0a5146107f0578063c05ebcc514610826578063ffc5daef146107f057610173565b806375d0c0dc146106ea5780637eac78da146106f25780639259360c1461071e57610173565b806357c35d0b146104b65780635a9b0b89146104dc5780635e57966d1461068e5780636c71d542146106b457806370298fbc146106bc5780637284e416146106e257610173565b80631a092541116101305780631a0925411461033c57806320800cd41461034457806328ad654b1461036a57806336790932146103a257806337820cd4146103e45780634d1a1d5d1461049a57610173565b806306fdde03146101785780630b281a48146101f55780630b5ee0061461022957806312718525146102cd578063152b07251461030e57806317d7de7c14610334575b600080fd5b61018061082e565b6040805160208082528351818301528351919283929083019185019080838360005b838110156101ba5781810151838201526020016101a2565b50505050905090810190601f1680156101e75780820380516001836020036101000a031916815260200191505b509250505060405180910390f35b6102276004803603606081101561020b57600080fd5b506001600160a01b0381351690602081013590604001356108bb565b005b6102276004803603602081101561023f57600080fd5b810190602081018135600160201b81111561025957600080fd5b82018360208201111561026b57600080fd5b803590602001918460018302840111600160201b8311171561028c57600080fd5b91908080601f016020809104026020016040519081016040528093929190818152602001838380828437600092019190915250929550610ac0945050505050565b6102fc600480360360808110156102e357600080fd5b5080359060208101359060408101359060600135610ad7565b60408051918252519081900360200190f35b6102fc6004803603602081101561032457600080fd5b50356001600160a01b0316610b61565b610180610b73565b610180610c09565b6102fc6004803603602081101561035a57600080fd5b50356001600160a01b0316610c67565b6102276004803603608081101561038057600080fd5b506001600160a01b038135169060208101359060408101359060600135610c79565b6103c8600480360360208110156103b857600080fd5b50356001600160a01b0316610eb2565b604080516001600160a01b039092168252519081900360200190f35b610227600480360360608110156103fa57600080fd5b6001600160a01b038235169190810190604081016020820135600160201b81111561042457600080fd5b82018360208201111561043657600080fd5b803590602001918460018302840111600160201b8311171561045757600080fd5b91908080601f0160208091040260200160405190810160405280939291908181526020018383808284376000920191909152509295505091359250610f21915050565b6104a2611002565b604080519115158252519081900360200190f35b6102fc600480360360208110156104cc57600080fd5b50356001600160a01b0316611010565b6104e4611022565b6040518080602001806020018060200180602001858103855289818151815260200191508051906020019080838360005b8381101561052d578181015183820152602001610515565b50505050905090810190601f16801561055a5780820380516001836020036101000a031916815260200191505b5085810384528851815288516020918201918a019080838360005b8381101561058d578181015183820152602001610575565b50505050905090810190601f1680156105ba5780820380516001836020036101000a031916815260200191505b50858103835287518152875160209182019189019080838360005b838110156105ed5781810151838201526020016105d5565b50505050905090810190601f16801561061a5780820380516001836020036101000a031916815260200191505b50858103825286518152865160209182019188019080838360005b8381101561064d578181015183820152602001610635565b50505050905090810190601f16801561067a5780820380516001836020036101000a031916815260200191505b509850505050505050505060405180910390f35b610180600480360360208110156106a457600080fd5b50356001600160a01b03166111ed565b610180611369565b610180600480360360208110156106d257600080fd5b50356001600160a01b0316611389565b61018061139a565b6101806113f2565b6104a26004803603604081101561070857600080fd5b506001600160a01b03813516906020013561144d565b6104a26004803603604081101561073457600080fd5b810190602081018135600160201b81111561074e57600080fd5b82018360208201111561076057600080fd5b803590602001918460208302840111600160201b8311171561078157600080fd5b919080806020026020016040519081016040528093929190818152602001838360200280828437600092019190915250929550505090356001600160a01b031691506114629050565b610180600480360360208110156107e057600080fd5b50356001600160a01b03166114b8565b6102276004803603606081101561080657600080fd5b506001600160a01b03813581169160208101359091169060400135610abb565b6104a2611520565b60018054604080516020600284861615610100026000190190941693909304601f810184900484028201840190925281815292918301828280156108b35780601f10610888576101008083540402835291602001916108b3565b820191906000526020600020905b81548152906001019060200180831161089657829003601f168201915b505050505081565b6108c5838261144d565b156108ea576108e530848460405180602001604052806000815250611529565b610abb565b6060836001600160a01b03166306fdde036040518163ffffffff1660e01b815260040160006040518083038186803b15801561092557600080fd5b505afa158015610939573d6000803e3d6000fd5b505050506040513d6000823e601f3d908101601f19168201604052602081101561096257600080fd5b8101908080516040519392919084600160201b82111561098157600080fd5b90830190602082018581111561099657600080fd5b8251600160201b8111828201881017156109af57600080fd5b82525081516020918201929091019080838360005b838110156109dc5781810151838201526020016109c4565b50505050905090810190601f168015610a095780820380516001836020036101000a031916815260200191505b50604052505050604051602001808074596f757220636c61696d206f6e20746f6b656e202760581b81525060150182805190602001908083835b60208310610a625780518252601f199092019160209182019101610a43565b6001836020036101000a03801982511681845116808217855250505050505090500180611e1f603491396034016040611e5382396040019150506040516020818303038152906040529050610ab93085858461161c565b505b505050565b8051610ad3906000906020840190611d3a565b5050565b600080610ae3866116a2565b90506000610af0856116a2565b90506000610afd876116a2565b90506000610b0a866116a2565b90506000612710610b1f60028a8d01056116af565b8484030281610b2a57fe5b059050848403612710610b4283800283800201611768565b6303cc23300281610b4f57fe5b0496505050505050505b949350505050565b60046020526000908152604090205481565b60018054604080516020601f60026000196101008789161502019095169490940493840181900481028201810190925282815260609390929091830182828015610bfe5780601f10610bd357610100808354040283529160200191610bfe565b820191906000526020600020905b815481529060010190602001808311610be157829003601f168201915b505050505090505b90565b60028054604080516020601f6000196101006001871615020190941685900493840181900481028201810190925282815260609390929091830182828015610bfe5780601f10610bd357610100808354040283529160200191610bfe565b60076020526000908152604090205481565b6001600160a01b0384166000908152600660209081526040808320546007909252822054610ca991908585610ad7565b9050610cb5858261144d565b15610cda57610cd530868660405180602001604052806000815250611529565b610eab565b6060856001600160a01b03166306fdde036040518163ffffffff1660e01b815260040160006040518083038186803b158015610d1557600080fd5b505afa158015610d29573d6000803e3d6000fd5b505050506040513d6000823e601f3d908101601f191682016040526020811015610d5257600080fd5b8101908080516040519392919084600160201b821115610d7157600080fd5b908301906020820185811115610d8657600080fd5b8251600160201b811182820188101715610d9f57600080fd5b82525081516020918201929091019080838360005b83811015610dcc578181015183820152602001610db4565b50505050905090810190601f168015610df95780820380516001836020036101000a031916815260200191505b50604052505050604051602001808074596f757220636c61696d206f6e20746f6b656e202760581b81525060150182805190602001908083835b60208310610e525780518252601f199092019160209182019101610e33565b6001836020036101000a03801982511681845116808217855250505050505090500180611e1f603491396034016040611e5382396040019150506040516020818303038152906040529050610ea93087878461161c565b505b5050505050565b6000816001600160a01b0316639c6790176040518163ffffffff1660e01b815260040160206040518083038186803b158015610eed57600080fd5b505afa158015610f01573d6000803e3d6000fd5b505050506040513d6020811015610f1757600080fd5b505190505b919050565b6001600160a01b03831660009081526005602090815260409091208351610f4a92850190611d3a565b506001600160a01b0383166000908152600460205260409020819055610f6e611db8565b610f778361179f565b9050610fbb610fb6610fb1610fa4604051806040016040528060018152602001602f60f81b81525061179f565b849063ffffffff6117c416565b6117de565b61182e565b6001600160a01b038516600090815260066020526040902055610fe0610fb6826117de565b6001600160a01b03909416600090815260076020526040902093909355505050565b600354610100900460ff1681565b60066020526000908152604090205481565b606080606080600060016002611036611369565b8354604080516020601f600260001961010060018816150201909516949094049384018190048102820181019092528281529186918301828280156110bc5780601f10611091576101008083540402835291602001916110bc565b820191906000526020600020905b81548152906001019060200180831161109f57829003601f168201915b5050865460408051602060026001851615610100026000190190941693909304601f81018490048402820184019092528181529599508894509250840190508282801561114a5780601f1061111f5761010080835404028352916020019161114a565b820191906000526020600020905b81548152906001019060200180831161112d57829003601f168201915b5050855460408051602060026001851615610100026000190190941693909304601f8101849004840282018401909252818152959850879450925084019050828280156111d85780601f106111ad576101008083540402835291602001916111d8565b820191906000526020600020905b8154815290600101906020018083116111bb57829003601f168201915b50505050509150935093509350935090919293565b604080518082018252601081526f181899199a1a9b1b9c1cb0b131b232b360811b60208201528151602a80825260608281019094526001600160a01b03851692918491602082018180388339019050509050600360fc1b8160008151811061125157fe5b60200101906001600160f81b031916908160001a905350600f60fb1b8160018151811061127a57fe5b60200101906001600160f81b031916908160001a90535060005b6014811015611360578260048583600c01602081106112af57fe5b1a60f81b6001600160f81b031916901c60f81c60ff16815181106112cf57fe5b602001015160f81c60f81b8282600202600201815181106112ec57fe5b60200101906001600160f81b031916908160001a905350828482600c016020811061131357fe5b825191901a600f1690811061132457fe5b602001015160f81c60f81b82826002026003018151811061134157fe5b60200101906001600160f81b031916908160001a905350600101611294565b50949350505050565b6060604051806060016040528060328152602001611ded60329139905090565b6060611394826119eb565b92915050565b6002805460408051602060018416156101000260001901909316849004601f810184900484028201840190925281815292918301828280156108b35780601f10610888576101008083540402835291602001916108b3565b6000805460408051602060026001851615610100026000190190941693909304601f810184900484028201840190925281815292918301828280156108b35780601f10610888576101008083540402835291602001916108b3565b600061145883611a96565b9091111592915050565b6000805b83518110156114ae57826001600160a01b031684828151811061148557fe5b60200260200101516001600160a01b031614156114a6576001915050611394565b600101611466565b5060009392505050565b60056020908152600091825260409182902080548351601f6002600019610100600186161502019093169290920491820184900484028101840190945280845290918301828280156108b35780601f10610888576101008083540402835291602001916108b3565b60035460ff1681565b6115338383611ab1565b50826001600160a01b031663bdc656e98584846040518463ffffffff1660e01b815260040180846001600160a01b03166001600160a01b0316815260200183815260200180602001828103825283818151815260200191508051906020019080838360005b838110156115b0578181015183820152602001611598565b50505050905090810190601f1680156115dd5780820380516001836020036101000a031916815260200191505b50945050505050600060405180830381600087803b1580156115fe57600080fd5b505af1158015611612573d6000803e3d6000fd5b5050505050505050565b6116268383611ab1565b50826001600160a01b0316637c41e5d88584846040518463ffffffff1660e01b815260040180846001600160a01b03166001600160a01b031681526020018381526020018060200182810382528381815181526020019150805190602001908083836000838110156115b0578181015183820152602001611598565b61271060ae919091020590565b60008073__Trigonometry__________________________63564a6b946116e0620dbba06000876110006000611b94565b6040518263ffffffff1660e01b8152600401808261ffff1661ffff16815260200191505060206040518083038186803b15801561171c57600080fd5b505af4158015611730573d6000803e3d6000fd5b505050506040513d602081101561174657600080fd5b50519050611761617fff617ffe198361271061270f19611b94565b9392505050565b80600260018201045b818110156117995780915060028182858161178857fe5b04018161179157fe5b049050611771565b50919050565b6117a7611db8565b506040805180820190915281518152602082810190820152919050565b6117cc611db8565b6117d7838383611bd0565b5092915050565b60608082600001516040519080825280601f01601f191660200182016040528015611810576020820181803883390190505b50905060006020820190506117d78185602001518660000151611c41565b6000606061183b83610c06565b90506000806001815b845181101561192c57600360fc1b6001600160f81b03191685828151811061186857fe5b01602001516001600160f81b03191610806118aa5750603960f81b6001600160f81b03191685828151811061189957fe5b01602001516001600160f81b031916115b80156119115750602b60f81b6001600160f81b0319168582815181106118cc57fe5b01602001516001600160f81b031916148015906119115750602d60f81b6001600160f81b0319168582815181106118ff57fe5b01602001516001600160f81b03191614155b1561192457600095505050505050610f1c565b600101611844565b50602d60f81b6001600160f81b0319168460008151811061194957fe5b01602001516001600160f81b031916141561196b5750600190506000196119a1565b602b60f81b6001600160f81b0319168460008151811061198757fe5b01602001516001600160f81b03191614156119a157600191505b815b84518110156119de5780600101855103600a0a60308683815181106119c457fe5b016020015160f81c0360ff160293909301926001016119a3565b5091909102949350505050565b6001600160a01b03811660009081526005602090815260409182902080548351601f6002600019610100600186161502019093169290920491820184900484028101840190945280845260609392830182828015611a8a5780601f10611a5f57610100808354040283529160200191611a8a565b820191906000526020600020905b815481529060010190602001808311611a6d57829003601f168201915b50505050509050919050565b6001600160a01b031660009081526004602052604090205490565b6040805162379c0960e91b815230600482015260248101839052905160009182916001600160a01b03861691636f38120091604480830192602092919082900301818787803b158015611b0357600080fd5b505af1158015611b17573d6000803e3d6000fd5b505050506040513d6020811015611b2d57600080fd5b5051905060028114801590611b43575080600314155b6117d7576040805162461bcd60e51b815260206004820181905260248201527f5468697320766572696669657220697320616c72656164792064656369646564604482015290519081900360640190fd5b6000848613611b9f57fe5b818313611ba857fe5b84860382840386860360008382840281611bbe57fe5b05860194505050505095945050505050565b611bd8611db8565b6000611bf68560000151866020015186600001518760200151611c7f565b60208087018051918601919091528051820385528651905191925001811415611c225760008552611c38565b8351835186519101900385528351810160208601525b50909392505050565b5b60208110611c61578151835260209283019290910190601f1901611c42565b905182516020929092036101000a6000190180199091169116179052565b60008381868511611d2d5760208511611cf25783518251600019600860208990030260020a011991821690888a018890039083165b828114611ce457818610611cd2578a8a019650505050505050610b59565b50600190940180519094908316611cb4565b859650505050505050610b59565b508383206000905b8588038211611d2b5785832081811415611d1a5783945050505050610b59565b506001928301929190910190611cfa565b505b5050509290910192915050565b828054600181600116156101000203166002900490600052602060002090601f016020900481019282601f10611d7b57805160ff1916838001178555611da8565b82800160010185558215611da8579182015b82811115611da8578251825591602001919060010190611d8d565b50611db4929150611dd2565b5090565b604051806040016040528060008152602001600081525090565b610c0691905b80821115611db45760008155600101611dd856fe737472696e673a6c61746974756465202f206c6f6e6769747564653a6770732c75696e743a6d617844697374616e63653a6d2720676f742072656a65637465642066726f6d207665726966696572207479706520274c6f636174696f6e27206265636175736520796f7572206c6f636174696f6e206973206e6f742077697468696e206120636972636c652074686520746f6b656e2063726561746f7220646566696e65642ea265627a7a7231582010e44a32c0d76d126ab48104c80bec9f42e8bce2be35f52300f665bd1e9a2eae64736f6c6343000511003241206c6f636174696f6e2c2077686963682069732077697468696e206120726164697573206f662061206c6f636174696f6e2074686520746f6b656e2063726561746f7220646566696e65732c206e6565647320746f2062652070726f76696465642e",
  "source": "pragma solidity ^0.5.17;\n\nimport \"contracts/verifiers/Fin4BaseVerifierType.sol\";\nimport \"contracts/util/Trigonometry.sol\";\nimport \"contracts/util/strings.sol\";\n\ncontract Location is Fin4BaseVerifierType {\n    using strings for *;\n\n    // Trigonemtric functions\n    function cosineAdjusted(int256 degree) private pure returns (int256) {\n        int cosine = Trigonometry.cos(uint16(rtres(900000, 0, degree, 4096, 0)));\n        return rtres(32767, -32767, cosine, 10000, -10000);\n    }\n    // rule of three\n    function rtres(int256 _max1, int256 _min1, int256 _value, int256 _max2, int256 _min2) private pure returns (int256) {\n        assert(_max1 > _min1);\n        assert(_max2 > _min2);\n        int256 max1 = _max1 - _min1;\n        int256 max2 = _max2 - _min2;\n        int256 value = _value - _min1;\n        int256 retorno = (value * max2 ) / max1;\n        return retorno + _min2;\n    }\n    // https://en.wikipedia.org/wiki/Methods_of_computing_square_roots#Babylonian_method\n    function sqrt(uint x) private pure returns (uint y) {\n        uint z = (x + 1) / 2;\n        y = x;\n        while (z < y) {\n            y = z;\n            z = (x / z + z) / 2;\n        }\n    }\n    /*\n    Conversion helper functions\n    */\n    //Converts degrees in radiands\n    function toRadiands(int256 degree) private pure returns (int256) {\n        int256 PI = 31415;\n        int256 radiands = degree * (PI / 180 ) / 10000;\n        return radiands;\n    }\n\n    // https://jonisalonen.com/2014/computing-distance-between-coordinates-can-be-simple-and-fast/\n    function calculateDistance(int256 lat0, int256 lon0, int256 lat1, int256 lon1) public pure returns(uint) {\n        //converts to radiands\n        int256 _lat1 = toRadiands(lat0);\n        int256 _lat2 = toRadiands(lat1);\n        int256 _log1 = toRadiands(lon0);\n        int256 _log2 = toRadiands(lon1);\n        int256 x = (_log2 - _log1 ) * cosineAdjusted((lat1 + lat0)/2)/10000;\n        int256 y = _lat2 - _lat1;\n        return sqrt(uint256((x * x) + (y * y))) * 63710000/10000;\n    }\n\n    constructor() public {\n        name = \"Location\";\n        description = \"A location, which is within a radius of a location the token creator defines, needs to be provided.\";\n    }\n\n    // (Deprecated) Function that assumes location is calculated in front end\n    function submitProof_Location(address tokenAddrToReceiveVerifierNotice, uint claimId, uint distanceToLocation) public {\n        if (locationIsWithinMaxDistToSpecifiedLocation(tokenAddrToReceiveVerifierNotice, distanceToLocation)) {\n            _sendApprovalNotice(address(this), tokenAddrToReceiveVerifierNotice, claimId, \"\");\n        } else {\n            string memory message = string(abi.encodePacked(\n                \"Your claim on token '\",\n                Fin4TokenStub(tokenAddrToReceiveVerifierNotice).name(),\n                \"' got rejected from verifier type 'Location' because\",\n                \" your location is not within a circle the token creator defined.\"));\n            _sendRejectionNotice(address(this), tokenAddrToReceiveVerifierNotice, claimId, message);\n        }\n    }\n\n    // Calculates distance on chain using a cheap approximation algorithm\n    function submitProof_Location_Server(address tokenAddrToReceiveVerifierNotice, uint claimId, int256 lat1, int256 lon1) public {\n        uint distanceToLocation = calculateDistance(lat0[tokenAddrToReceiveVerifierNotice],lon0[tokenAddrToReceiveVerifierNotice], lat1, lon1);\n        if (locationIsWithinMaxDistToSpecifiedLocation(tokenAddrToReceiveVerifierNotice, distanceToLocation)) {\n            _sendApprovalNotice(address(this), tokenAddrToReceiveVerifierNotice, claimId, \"\");\n        } else {\n            string memory message = string(abi.encodePacked(\n                \"Your claim on token '\",\n                Fin4TokenStub(tokenAddrToReceiveVerifierNotice).name(),\n                \"' got rejected from verifier type 'Location' because\",\n                \" your location is not within a circle the token creator defined.\"));\n            _sendRejectionNotice(address(this), tokenAddrToReceiveVerifierNotice, claimId, message);\n        }\n    }\n\n    function locationIsWithinMaxDistToSpecifiedLocation(address token, uint distanceToLocation) public view returns(bool) {\n        return distanceToLocation <= _getMaxDistance(token);\n    }\n\n    mapping (address => uint) public tokenToMaxDistParameter;\n    mapping (address => string) public tokenToLatLonStrParameter;\n    mapping (address => int256) public lat0;\n    mapping (address => int256) public lon0;\n\n    // Sets information during Token Creation\n    function setParameters(address token, string memory latLonString, uint maxDistance) public {\n        tokenToLatLonStrParameter[token] = latLonString;\n        tokenToMaxDistParameter[token] = maxDistance;\n        strings.slice memory s = latLonString.toSlice();\n        lat0[token] = convertStringToInt(s.split(strings.toSlice(\"/\")).toString());\n        lon0[token] = convertStringToInt(s.toString());\n    }\n\n    function getLatitudeLongitudeString(address token) public view returns(string memory) {\n        return _getLatLonStr(token);\n    }\n\n    // @Override\n    function getParameterForTokenCreatorToSetEncoded() public pure returns(string memory) {\n        return \"string:latitude / longitude:gps,uint:maxDistance:m\";\n    }\n\n    function _getLatLonStr(address token) private view returns(string memory) {\n        return tokenToLatLonStrParameter[token];\n    }\n\n    function _getMaxDistance(address token) private view returns(uint) {\n        return tokenToMaxDistParameter[token];\n    }\n\n    function convertStringToInt(string memory stringValue) private returns (int) {\n        bytes memory byteValue = convertStringToBytes(stringValue);\n\n        int result = 0;\n        uint start = 0;\n        int phase = 1;\n\n        for (uint i = 0; i < byteValue.length; i++) {\n            if ((byteValue[i] < byte(\"0\") || byteValue[i] > byte(\"9\")) && (byteValue[i] != byte(\"+\") && byteValue[i] != byte(\"-\"))) {\n                return 0;\n            }\n        }\n\n        if (byteValue[0] == byte(\"-\")) {\n            phase = -1;\n            start = 1;\n        } else if (byteValue[0] == byte(\"+\")) {\n            start = 1;\n        }\n\n        for(uint j = start; j < byteValue.length ; j++) {\n            result += (uint8(byteValue[j]) - 48) * int(10 ** (byteValue.length - (j + 1)));\n        }\n\n        result *= phase;\n        return result;\n    }\n\n    function convertStringToBytes(string memory str) private pure returns (bytes memory) {\n        return bytes(str);\n    }\n}\n",
  "sourcePath": "/home/cantonioupao/susDAO-saveMe/FIN4Contracts/contracts/verifiers/onchain/interactive/Location.sol",
  "compiler": {
    "name": "solc",
    "version": "0.5.17+commit.d19bba13.Emscripten.clang"
  },
  "schemaVersion": "3.3.1",
  "updatedAt": "2020-12-03T18:27:58.993Z",
  "devdoc": {
    "methods": {}
  },
  "userdoc": {
    "methods": {}
  }
}