{
  "contractName": "MaximumQuantityPerInterval",
  "abi": [
    {
      "inputs": [],
      "payable": false,
      "stateMutability": "nonpayable",
      "type": "constructor"
    },
    {
      "constant": true,
      "inputs": [
        {
          "internalType": "address",
          "name": "_addr",
          "type": "address"
        }
      ],
      "name": "addressToString",
      "outputs": [
        {
          "internalType": "string",
          "name": "",
          "type": "string"
        }
      ],
      "payable": false,
      "stateMutability": "pure",
      "type": "function"
    },
    {
      "constant": true,
      "inputs": [
        {
          "internalType": "address[]",
          "name": "arr",
          "type": "address[]"
        },
        {
          "internalType": "address",
          "name": "addrToCheck",
          "type": "address"
        }
      ],
      "name": "arrayContainsAddress",
      "outputs": [
        {
          "internalType": "bool",
          "name": "",
          "type": "bool"
        }
      ],
      "payable": false,
      "stateMutability": "pure",
      "type": "function"
    },
    {
      "constant": false,
      "inputs": [
        {
          "internalType": "address",
          "name": "user",
          "type": "address"
        },
        {
          "internalType": "address",
          "name": "tokenAddrToReceiveVerifierNotice",
          "type": "address"
        },
        {
          "internalType": "uint256",
          "name": "claimId",
          "type": "uint256"
        }
      ],
      "name": "autoCheck",
      "outputs": [],
      "payable": false,
      "stateMutability": "nonpayable",
      "type": "function"
    },
    {
      "constant": false,
      "inputs": [
        {
          "internalType": "address",
          "name": "user",
          "type": "address"
        },
        {
          "internalType": "address",
          "name": "tokenAddrToReceiveVerifierNotice",
          "type": "address"
        },
        {
          "internalType": "uint256",
          "name": "claimId",
          "type": "uint256"
        }
      ],
      "name": "autoSubmitProof",
      "outputs": [],
      "payable": false,
      "stateMutability": "nonpayable",
      "type": "function"
    },
    {
      "constant": true,
      "inputs": [],
      "name": "contractName",
      "outputs": [
        {
          "internalType": "string",
          "name": "",
          "type": "string"
        }
      ],
      "payable": false,
      "stateMutability": "view",
      "type": "function"
    },
    {
      "constant": true,
      "inputs": [],
      "name": "description",
      "outputs": [
        {
          "internalType": "string",
          "name": "",
          "type": "string"
        }
      ],
      "payable": false,
      "stateMutability": "view",
      "type": "function"
    },
    {
      "constant": true,
      "inputs": [
        {
          "internalType": "address",
          "name": "tokenAddress",
          "type": "address"
        }
      ],
      "name": "getCreatorOfToken",
      "outputs": [
        {
          "internalType": "address",
          "name": "",
          "type": "address"
        }
      ],
      "payable": false,
      "stateMutability": "view",
      "type": "function"
    },
    {
      "constant": true,
      "inputs": [],
      "name": "getDescription",
      "outputs": [
        {
          "internalType": "string",
          "name": "",
          "type": "string"
        }
      ],
      "payable": false,
      "stateMutability": "view",
      "type": "function"
    },
    {
      "constant": true,
      "inputs": [],
      "name": "getInfo",
      "outputs": [
        {
          "internalType": "string",
          "name": "",
          "type": "string"
        },
        {
          "internalType": "string",
          "name": "",
          "type": "string"
        },
        {
          "internalType": "string",
          "name": "",
          "type": "string"
        },
        {
          "internalType": "string",
          "name": "",
          "type": "string"
        }
      ],
      "payable": false,
      "stateMutability": "view",
      "type": "function"
    },
    {
      "constant": true,
      "inputs": [],
      "name": "getName",
      "outputs": [
        {
          "internalType": "string",
          "name": "",
          "type": "string"
        }
      ],
      "payable": false,
      "stateMutability": "view",
      "type": "function"
    },
    {
      "constant": true,
      "inputs": [],
      "name": "isAutoCheckable",
      "outputs": [
        {
          "internalType": "bool",
          "name": "",
          "type": "bool"
        }
      ],
      "payable": false,
      "stateMutability": "view",
      "type": "function"
    },
    {
      "constant": true,
      "inputs": [],
      "name": "isAutoInitiable",
      "outputs": [
        {
          "internalType": "bool",
          "name": "",
          "type": "bool"
        }
      ],
      "payable": false,
      "stateMutability": "view",
      "type": "function"
    },
    {
      "constant": true,
      "inputs": [],
      "name": "name",
      "outputs": [
        {
          "internalType": "string",
          "name": "",
          "type": "string"
        }
      ],
      "payable": false,
      "stateMutability": "view",
      "type": "function"
    },
    {
      "constant": false,
      "inputs": [
        {
          "internalType": "string",
          "name": "_contractName",
          "type": "string"
        }
      ],
      "name": "setContractName",
      "outputs": [],
      "payable": false,
      "stateMutability": "nonpayable",
      "type": "function"
    },
    {
      "constant": true,
      "inputs": [
        {
          "internalType": "address",
          "name": "",
          "type": "address"
        },
        {
          "internalType": "uint256",
          "name": "",
          "type": "uint256"
        }
      ],
      "name": "tokenToParameters",
      "outputs": [
        {
          "internalType": "uint256",
          "name": "",
          "type": "uint256"
        }
      ],
      "payable": false,
      "stateMutability": "view",
      "type": "function"
    },
    {
      "constant": false,
      "inputs": [
        {
          "internalType": "address",
          "name": "tokenAddrToReceiveVerifierNotice",
          "type": "address"
        },
        {
          "internalType": "uint256",
          "name": "claimId",
          "type": "uint256"
        }
      ],
      "name": "submitProof_MaximumQuantityPerInterval",
      "outputs": [],
      "payable": false,
      "stateMutability": "nonpayable",
      "type": "function"
    },
    {
      "constant": true,
      "inputs": [],
      "name": "getParameterForTokenCreatorToSetEncoded",
      "outputs": [
        {
          "internalType": "string",
          "name": "",
          "type": "string"
        }
      ],
      "payable": false,
      "stateMutability": "pure",
      "type": "function"
    },
    {
      "constant": false,
      "inputs": [
        {
          "internalType": "address",
          "name": "token",
          "type": "address"
        },
        {
          "internalType": "uint256",
          "name": "interval",
          "type": "uint256"
        },
        {
          "internalType": "uint256",
          "name": "maxQuantity",
          "type": "uint256"
        }
      ],
      "name": "setParameters",
      "outputs": [],
      "payable": false,
      "stateMutability": "nonpayable",
      "type": "function"
    }
  ],
  "bytecode": "0x60806040526003805461ffff191690553480156200001c57600080fd5b506040518060600160405280602e815260200162001664602e913980516200004d9160019160209091019062000085565b50604051806060016040528060358152602001620016926035913980516200007e9160029160209091019062000085565b506200012a565b828054600181600116156101000203166002900490600052602060002090601f016020900481019282601f10620000c857805160ff1916838001178555620000f8565b82800160010185558215620000f8579182015b82811115620000f8578251825591602001919060010190620000db565b50620001069291506200010a565b5090565b6200012791905b8082111562000106576000815560010162000111565b90565b61152a806200013a6000396000f3fe608060405234801561001057600080fd5b50600436106101165760003560e01c80637284e416116100a2578063ae18e0a511610071578063ae18e0a51461057e578063c04e02e8146105b4578063c05ebcc5146105f2578063e29fac6d146105fa578063ffc5daef1461057e57610116565b80637284e4161461048e57806375d0c0dc146104965780637947f9651461049e5780639259360c146104d057610116565b806336790932116100e957806336790932146102505780634d1a1d5d146102925780635a9b0b89146102ae5780635e57966d146104605780636c71d5421461048657610116565b806306fdde031461011b5780630b5ee0061461019857806317d7de7c146102405780631a09254114610248575b600080fd5b610123610626565b6040805160208082528351818301528351919283929083019185019080838360005b8381101561015d578181015183820152602001610145565b50505050905090810190601f16801561018a5780820380516001836020036101000a031916815260200191505b509250505060405180910390f35b61023e600480360360208110156101ae57600080fd5b8101906020810181356401000000008111156101c957600080fd5b8201836020820111156101db57600080fd5b803590602001918460018302840111640100000000831117156101fd57600080fd5b91908080601f0160208091040260200160405190810160405280939291908181526020018383808284376000920191909152509295506106b3945050505050565b005b6101236106ca565b610123610760565b6102766004803603602081101561026657600080fd5b50356001600160a01b03166107be565b604080516001600160a01b039092168252519081900360200190f35b61029a61082d565b604080519115158252519081900360200190f35b6102b661083b565b6040518080602001806020018060200180602001858103855289818151815260200191508051906020019080838360005b838110156102ff5781810151838201526020016102e7565b50505050905090810190601f16801561032c5780820380516001836020036101000a031916815260200191505b5085810384528851815288516020918201918a019080838360005b8381101561035f578181015183820152602001610347565b50505050905090810190601f16801561038c5780820380516001836020036101000a031916815260200191505b50858103835287518152875160209182019189019080838360005b838110156103bf5781810151838201526020016103a7565b50505050905090810190601f1680156103ec5780820380516001836020036101000a031916815260200191505b50858103825286518152865160209182019188019080838360005b8381101561041f578181015183820152602001610407565b50505050905090810190601f16801561044c5780820380516001836020036101000a031916815260200191505b509850505050505050505060405180910390f35b6101236004803603602081101561047657600080fd5b50356001600160a01b0316610a06565b610123610b82565b610123610ba2565b610123610bfa565b61023e600480360360608110156104b457600080fd5b506001600160a01b038135169060208101359060400135610c55565b61029a600480360360408110156104e657600080fd5b81019060208101813564010000000081111561050157600080fd5b82018360208201111561051357600080fd5b8035906020019184602083028401116401000000008311171561053557600080fd5b919080806020026020016040519081016040528093929190818152602001838360200280828437600092019190915250929550505090356001600160a01b03169150610c929050565b61023e6004803603606081101561059457600080fd5b506001600160a01b03813581169160208101359091169060400135610cea565b6105e0600480360360408110156105ca57600080fd5b506001600160a01b038135169060200135610cef565b60408051918252519081900360200190f35b61029a610d1d565b61023e6004803603604081101561061057600080fd5b506001600160a01b038135169060200135610d26565b60018054604080516020600284861615610100026000190190941693909304601f810184900484028201840190925281815292918301828280156106ab5780601f10610680576101008083540402835291602001916106ab565b820191906000526020600020905b81548152906001019060200180831161068e57829003601f168201915b505050505081565b80516106c690600090602084019061138c565b5050565b60018054604080516020601f600260001961010087891615020190951694909404938401819004810282018101909252828152606093909290918301828280156107555780601f1061072a57610100808354040283529160200191610755565b820191906000526020600020905b81548152906001019060200180831161073857829003601f168201915b505050505090505b90565b60028054604080516020601f60001961010060018716150201909416859004938401819004810282018101909252828152606093909290918301828280156107555780601f1061072a57610100808354040283529160200191610755565b6000816001600160a01b0316639c6790176040518163ffffffff1660e01b815260040160206040518083038186803b1580156107f957600080fd5b505afa15801561080d573d6000803e3d6000fd5b505050506040513d602081101561082357600080fd5b505190505b919050565b600354610100900460ff1681565b60608060608060006001600261084f610b82565b8354604080516020601f600260001961010060018816150201909516949094049384018190048102820181019092528281529186918301828280156108d55780601f106108aa576101008083540402835291602001916108d5565b820191906000526020600020905b8154815290600101906020018083116108b857829003601f168201915b5050865460408051602060026001851615610100026000190190941693909304601f8101849004840282018401909252818152959950889450925084019050828280156109635780601f1061093857610100808354040283529160200191610963565b820191906000526020600020905b81548152906001019060200180831161094657829003601f168201915b5050855460408051602060026001851615610100026000190190941693909304601f8101849004840282018401909252818152959850879450925084019050828280156109f15780601f106109c6576101008083540402835291602001916109f1565b820191906000526020600020905b8154815290600101906020018083116109d457829003601f168201915b50505050509150935093509350935090919293565b604080518082018252601081526f181899199a1a9b1b9c1cb0b131b232b360811b60208201528151602a80825260608281019094526001600160a01b03851692918491602082018180388339019050509050600360fc1b81600081518110610a6a57fe5b60200101906001600160f81b031916908160001a905350600f60fb1b81600181518110610a9357fe5b60200101906001600160f81b031916908160001a90535060005b6014811015610b79578260048583600c0160208110610ac857fe5b1a60f81b6001600160f81b031916901c60f81c60ff1681518110610ae857fe5b602001015160f81c60f81b828260020260020181518110610b0557fe5b60200101906001600160f81b031916908160001a905350828482600c0160208110610b2c57fe5b825191901a600f16908110610b3d57fe5b602001015160f81c60f81b828260020260030181518110610b5a57fe5b60200101906001600160f81b031916908160001a905350600101610aad565b50949350505050565b60606040518060600160405280602c81526020016114ca602c9139905090565b6002805460408051602060018416156101000260001901909316849004601f810184900484028201840190925281815292918301828280156106ab5780601f10610680576101008083540402835291602001916106ab565b6000805460408051602060026001851615610100026000190190941693909304601f810184900484028201840190925281815292918301828280156106ab5780601f10610680576101008083540402835291602001916106ab565b60408051808201825283815260208082018490526001600160a01b0386166000908152600490915291909120610c8c91600261140a565b50505050565b6000805b8351811015610cde57826001600160a01b0316848281518110610cb557fe5b60200260200101516001600160a01b03161415610cd6576001915050610ce4565b600101610c96565b50600090505b92915050565b505050565b60046020528160005260406000208181548110610d0857fe5b90600052602060002001600091509150505481565b60035460ff1681565b610d31823383610feb565b15610d5657610d5130838360405180602001604052806000815250610ff4565b6106c6565b6060826001600160a01b03166306fdde036040518163ffffffff1660e01b815260040160006040518083038186803b158015610d9157600080fd5b505afa158015610da5573d6000803e3d6000fd5b505050506040513d6000823e601f3d908101601f191682016040526020811015610dce57600080fd5b8101908080516040519392919084640100000000821115610dee57600080fd5b908301906020820185811115610e0357600080fd5b8251640100000000811182820188101715610e1d57600080fd5b82525081516020918201929091019080838360005b83811015610e4a578181015183820152602001610e32565b50505050905090810190601f168015610e775780820380516001836020036101000a031916815260200191505b50604052505050610e9a6103e8610e8d866110e7565b81610e9457fe5b04611121565b610eab610ea6866111e5565b611121565b6040516020018084805190602001908083835b60208310610edd5780518252601f199092019160209182019101610ebe565b6001836020036101000a0380198251168184511680821785525050505050509050018061145f606b9139606b0183805190602001908083835b60208310610f355780518252601f199092019160209182019101610f16565b51815160209384036101000a600019018019909216911617905271039961036b0bc171038bab0b73a34ba3c9d160751b919093019081528451601290910192850191508083835b60208310610f9b5780518252601f199092019160209182019101610f7c565b6001836020036101000a03801982511681845116808217855250505050505090500180601760f91b81525060010193505050506040516020818303038152906040529050610cea3084848461121c565b60019392505050565b610ffe83836112a2565b50826001600160a01b031663bdc656e98584846040518463ffffffff1660e01b815260040180846001600160a01b03166001600160a01b0316815260200183815260200180602001828103825283818151815260200191508051906020019080838360005b8381101561107b578181015183820152602001611063565b50505050905090810190601f1680156110a85780820380516001836020036101000a031916815260200191505b50945050505050600060405180830381600087803b1580156110c957600080fd5b505af11580156110dd573d6000803e3d6000fd5b5050505050505050565b6001600160a01b03811660009081526004602052604081208054829061110957fe5b6000918252602090912001546305265c000292915050565b606081806111485750506040805180820190915260018152600360fc1b6020820152610828565b8060005b811561116057600101600a8204915061114c565b6060816040519080825280601f01601f19166020018201604052801561118d576020820181803883390190505b50905060001982015b84156111db57600a850660300160f81b828280600190039350815181106111b957fe5b60200101906001600160f81b031916908160001a905350600a85049450611196565b5095945050505050565b6001600160a01b03811660009081526004602052604081208054600190811061120a57fe5b90600052602060002001549050919050565b61122683836112a2565b50826001600160a01b0316637c41e5d88584846040518463ffffffff1660e01b815260040180846001600160a01b03166001600160a01b0316815260200183815260200180602001828103825283818151815260200191508051906020019080838360008381101561107b578181015183820152602001611063565b6040805162379c0960e91b815230600482015260248101839052905160009182916001600160a01b03861691636f38120091604480830192602092919082900301818787803b1580156112f457600080fd5b505af1158015611308573d6000803e3d6000fd5b505050506040513d602081101561131e57600080fd5b5051905060028114801590611334575080600314155b611385576040805162461bcd60e51b815260206004820181905260248201527f5468697320766572696669657220697320616c72656164792064656369646564604482015290519081900360640190fd5b5092915050565b828054600181600116156101000203166002900490600052602060002090601f016020900481019282601f106113cd57805160ff19168380011785556113fa565b828001600101855582156113fa579182015b828111156113fa5782518255916020019190600101906113df565b50611406929150611444565b5090565b8280548282559060005260206000209081019282156113fa57916020028201828111156113fa5782518255916020019190600101906113df565b61075d91905b80821115611406576000815560010161144a56fe3a20546865207175616e7469747920796f752061726520636c61696d696e6720776f756c642074616b6520796f75206265796f6e642074686520616c6c6f77656420616d6f756e7420666f722074686520676976656e20696e74657276616c2e20496e74657276616c3a2075696e743a696e74657276616c3a646179732c75696e743a6d61785175616e746974793a7175616e74697479a265627a7a7231582099a5ceb4b973a9ec94155935f0a7da6425addf2c629d5930a59d3629e6de6af864736f6c6343000511003273632e76657269666965722e6d6178696d756d2d7175616e746974792d7065722d696e74657276616c2e6e616d6573632e76657269666965722e6d6178696d756d2d7175616e746974792d7065722d696e74657276616c2e6465736372697074696f6e",
  "source": "pragma solidity ^0.5.17;\n\nimport \"contracts/verifiers/Fin4BaseVerifierType.sol\";\n\ncontract MaximumQuantityPerInterval is Fin4BaseVerifierType {\n\n    constructor() public  {\n        name = \"sc.verifier.maximum-quantity-per-interval.name\";\n        description = \"sc.verifier.maximum-quantity-per-interval.description\";\n        // interval = 1 * 24 * 60 * 60 * 1000; // 1 day\n        // maxQuantity = 10;\n    }\n\n    function submitProof_MaximumQuantityPerInterval(address tokenAddrToReceiveVerifierNotice, uint claimId) public {\n        if (requirementMet(tokenAddrToReceiveVerifierNotice, msg.sender, claimId)) {\n            _sendApprovalNotice(address(this), tokenAddrToReceiveVerifierNotice, claimId, \"\");\n        } else {\n            string memory message = string(abi.encodePacked(\n                Fin4TokenStub(tokenAddrToReceiveVerifierNotice).name(),\n                \": The quantity you are claiming would take you beyond the allowed amount for the given interval. Interval: \",\n                uint2str(_getInterval(tokenAddrToReceiveVerifierNotice) / 1000), \"s, max. quantity: \",\n                uint2str(_getMaxQuantity(tokenAddrToReceiveVerifierNotice)), \".\"\n            ));\n            _sendRejectionNotice(address(this), tokenAddrToReceiveVerifierNotice, claimId, message);\n        }\n    }\n\n    function requirementMet(address tokenAddressUsingThisverifierType, address claimer, uint claimId) private view returns(bool) {\n        /*\n        uint sum;\n        uint requestedQuantity;\n        (sum, requestedQuantity) = Fin4TokenStub(tokenAddressUsingThisverifierType)\n            .sumUpQuantitiesWithinIntervalBeforeThisClaim(claimer, claimId, _getInterval(tokenAddressUsingThisverifierType));\n        return sum + requestedQuantity <= _getMaxQuantity(tokenAddressUsingThisverifierType);\n        */\n        return true; // TODO\n    }\n\n    /* // Archived here from Fin4TokenBase\n    function sumUpQuantitiesWithinIntervalBeforeThisClaim(address claimer, uint claimId, uint interval) public view returns(uint, uint) {\n        uint[] memory ids = getClaimIds(claimer);\n        if (ids.length < 2 || ids[0] == claimId) {\n            return (0, claims[claimId].quantity);\n        }\n\n        uint dateOfRequestingClaim = claims[claimId].claimCreationTime; // TODO check if that's actually the claimers claim\n        uint sum = 0;\n\n        for (uint i = 0; i < ids.length; i ++) {\n            if (ids[i] != claimId && dateOfRequestingClaim - claims[ids[i]].claimCreationTime <= interval) {\n            sum = sum + claims[ids[i]].quantity;\n        }\n        return (sum, claims[claimId].quantity);\n    }\n    */\n\n    // @Override\n    function getParameterForTokenCreatorToSetEncoded() public pure returns(string memory) {\n        return \"uint:interval:days,uint:maxQuantity:quantity\";\n    }\n\n    mapping (address => uint[]) public tokenToParameters;\n\n    function setParameters(address token, uint interval, uint maxQuantity) public {\n        tokenToParameters[token] = [interval, maxQuantity];\n    }\n\n    /*\n    function getParameterizedDescription(address token) public view returns(string memory) {\n        return string(abi.encodePacked(\n            \"The token creator defined a maximum quantity of \",\n            uint2str(_getMaxQuantity(token)),\n            \" to be claimable in an interval of \",\n            uint2str(_getInterval(token) / (1000 * 60 * 60 * 24)), \" days.\"\n        ));\n    }*/\n\n    function _getInterval(address token) private view returns(uint) {\n        return tokenToParameters[token][0] * 24 * 60 * 60 * 1000; // from days to miliseconds\n    }\n\n    function _getMaxQuantity(address token) private view returns(uint) {\n        return tokenToParameters[token][1];\n    }\n\n}\n",
  "sourcePath": "/home/cantonioupao/susDAO-saveMe/FIN4Contracts/contracts/verifiers/inactive/MaximumQuantityPerInterval.sol",
  "compiler": {
    "name": "solc",
    "version": "0.5.17+commit.d19bba13.Emscripten.clang"
  },
  "schemaVersion": "3.3.1",
  "updatedAt": "2020-12-03T18:27:58.980Z",
  "devdoc": {
    "methods": {}
  },
  "userdoc": {
    "methods": {}
  }
}