{
  "contractName": "MinimumInterval",
  "abi": [
    {
      "inputs": [],
      "payable": false,
      "stateMutability": "nonpayable",
      "type": "constructor"
    },
    {
      "constant": true,
      "inputs": [
        {
          "internalType": "address",
          "name": "_addr",
          "type": "address"
        }
      ],
      "name": "addressToString",
      "outputs": [
        {
          "internalType": "string",
          "name": "",
          "type": "string"
        }
      ],
      "payable": false,
      "stateMutability": "pure",
      "type": "function"
    },
    {
      "constant": true,
      "inputs": [
        {
          "internalType": "address[]",
          "name": "arr",
          "type": "address[]"
        },
        {
          "internalType": "address",
          "name": "addrToCheck",
          "type": "address"
        }
      ],
      "name": "arrayContainsAddress",
      "outputs": [
        {
          "internalType": "bool",
          "name": "",
          "type": "bool"
        }
      ],
      "payable": false,
      "stateMutability": "pure",
      "type": "function"
    },
    {
      "constant": false,
      "inputs": [
        {
          "internalType": "address",
          "name": "user",
          "type": "address"
        },
        {
          "internalType": "address",
          "name": "tokenAddrToReceiveVerifierNotice",
          "type": "address"
        },
        {
          "internalType": "uint256",
          "name": "claimId",
          "type": "uint256"
        }
      ],
      "name": "autoCheck",
      "outputs": [],
      "payable": false,
      "stateMutability": "nonpayable",
      "type": "function"
    },
    {
      "constant": false,
      "inputs": [
        {
          "internalType": "address",
          "name": "user",
          "type": "address"
        },
        {
          "internalType": "address",
          "name": "tokenAddrToReceiveVerifierNotice",
          "type": "address"
        },
        {
          "internalType": "uint256",
          "name": "claimId",
          "type": "uint256"
        }
      ],
      "name": "autoSubmitProof",
      "outputs": [],
      "payable": false,
      "stateMutability": "nonpayable",
      "type": "function"
    },
    {
      "constant": true,
      "inputs": [],
      "name": "contractName",
      "outputs": [
        {
          "internalType": "string",
          "name": "",
          "type": "string"
        }
      ],
      "payable": false,
      "stateMutability": "view",
      "type": "function"
    },
    {
      "constant": true,
      "inputs": [],
      "name": "description",
      "outputs": [
        {
          "internalType": "string",
          "name": "",
          "type": "string"
        }
      ],
      "payable": false,
      "stateMutability": "view",
      "type": "function"
    },
    {
      "constant": true,
      "inputs": [
        {
          "internalType": "address",
          "name": "tokenAddress",
          "type": "address"
        }
      ],
      "name": "getCreatorOfToken",
      "outputs": [
        {
          "internalType": "address",
          "name": "",
          "type": "address"
        }
      ],
      "payable": false,
      "stateMutability": "view",
      "type": "function"
    },
    {
      "constant": true,
      "inputs": [],
      "name": "getDescription",
      "outputs": [
        {
          "internalType": "string",
          "name": "",
          "type": "string"
        }
      ],
      "payable": false,
      "stateMutability": "view",
      "type": "function"
    },
    {
      "constant": true,
      "inputs": [],
      "name": "getInfo",
      "outputs": [
        {
          "internalType": "string",
          "name": "",
          "type": "string"
        },
        {
          "internalType": "string",
          "name": "",
          "type": "string"
        },
        {
          "internalType": "string",
          "name": "",
          "type": "string"
        },
        {
          "internalType": "string",
          "name": "",
          "type": "string"
        }
      ],
      "payable": false,
      "stateMutability": "view",
      "type": "function"
    },
    {
      "constant": true,
      "inputs": [],
      "name": "getName",
      "outputs": [
        {
          "internalType": "string",
          "name": "",
          "type": "string"
        }
      ],
      "payable": false,
      "stateMutability": "view",
      "type": "function"
    },
    {
      "constant": true,
      "inputs": [],
      "name": "isAutoCheckable",
      "outputs": [
        {
          "internalType": "bool",
          "name": "",
          "type": "bool"
        }
      ],
      "payable": false,
      "stateMutability": "view",
      "type": "function"
    },
    {
      "constant": true,
      "inputs": [],
      "name": "isAutoInitiable",
      "outputs": [
        {
          "internalType": "bool",
          "name": "",
          "type": "bool"
        }
      ],
      "payable": false,
      "stateMutability": "view",
      "type": "function"
    },
    {
      "constant": true,
      "inputs": [],
      "name": "name",
      "outputs": [
        {
          "internalType": "string",
          "name": "",
          "type": "string"
        }
      ],
      "payable": false,
      "stateMutability": "view",
      "type": "function"
    },
    {
      "constant": false,
      "inputs": [
        {
          "internalType": "string",
          "name": "_contractName",
          "type": "string"
        }
      ],
      "name": "setContractName",
      "outputs": [],
      "payable": false,
      "stateMutability": "nonpayable",
      "type": "function"
    },
    {
      "constant": true,
      "inputs": [
        {
          "internalType": "address",
          "name": "",
          "type": "address"
        }
      ],
      "name": "tokenToParameter",
      "outputs": [
        {
          "internalType": "uint256",
          "name": "",
          "type": "uint256"
        }
      ],
      "payable": false,
      "stateMutability": "view",
      "type": "function"
    },
    {
      "constant": false,
      "inputs": [
        {
          "internalType": "address",
          "name": "tokenAddrToReceiveVerifierNotice",
          "type": "address"
        },
        {
          "internalType": "uint256",
          "name": "claimId",
          "type": "uint256"
        }
      ],
      "name": "submitProof_MinimumInterval",
      "outputs": [],
      "payable": false,
      "stateMutability": "nonpayable",
      "type": "function"
    },
    {
      "constant": true,
      "inputs": [],
      "name": "getParameterForTokenCreatorToSetEncoded",
      "outputs": [
        {
          "internalType": "string",
          "name": "",
          "type": "string"
        }
      ],
      "payable": false,
      "stateMutability": "pure",
      "type": "function"
    },
    {
      "constant": false,
      "inputs": [
        {
          "internalType": "address",
          "name": "token",
          "type": "address"
        },
        {
          "internalType": "uint256",
          "name": "minimumInterval",
          "type": "uint256"
        }
      ],
      "name": "setParameters",
      "outputs": [],
      "payable": false,
      "stateMutability": "nonpayable",
      "type": "function"
    }
  ],
  "bytecode": "0x60806040526003805461ffff191690553480156200001c57600080fd5b50604051806060016040528060218152602001620015276021913980516200004d9160019160209091019062000085565b50604051806060016040528060288152602001620014ff6028913980516200007e9160029160209091019062000085565b506200012a565b828054600181600116156101000203166002900490600052602060002090601f016020900481019282601f10620000c857805160ff1916838001178555620000f8565b82800160010185558215620000f8579182015b82811115620000f8578251825591602001919060010190620000db565b50620001069291506200010a565b5090565b6200012791905b8082111562000106576000815560010162000111565b90565b6113c5806200013a6000396000f3fe608060405234801561001057600080fd5b50600436106101165760003560e01c80637284e416116100a2578063ae18e0a511610071578063ae18e0a514610578578063c05ebcc5146105ae578063c4198161146105b6578063c646529c146105e2578063ffc5daef1461057857610116565b80637284e4161461048e57806375d0c0dc146104965780639259360c1461049e5780639ce29fb01461054c57610116565b806336790932116100e957806336790932146102505780634d1a1d5d146102925780635a9b0b89146102ae5780635e57966d146104605780636c71d5421461048657610116565b806306fdde031461011b5780630b5ee0061461019857806317d7de7c146102405780631a09254114610248575b600080fd5b61012361061a565b6040805160208082528351818301528351919283929083019185019080838360005b8381101561015d578181015183820152602001610145565b50505050905090810190601f16801561018a5780820380516001836020036101000a031916815260200191505b509250505060405180910390f35b61023e600480360360208110156101ae57600080fd5b8101906020810181356401000000008111156101c957600080fd5b8201836020820111156101db57600080fd5b803590602001918460018302840111640100000000831117156101fd57600080fd5b91908080601f0160208091040260200160405190810160405280939291908181526020018383808284376000920191909152509295506106a7945050505050565b005b6101236106be565b610123610754565b6102766004803603602081101561026657600080fd5b50356001600160a01b03166107b2565b604080516001600160a01b039092168252519081900360200190f35b61029a610821565b604080519115158252519081900360200190f35b6102b661082f565b6040518080602001806020018060200180602001858103855289818151815260200191508051906020019080838360005b838110156102ff5781810151838201526020016102e7565b50505050905090810190601f16801561032c5780820380516001836020036101000a031916815260200191505b5085810384528851815288516020918201918a019080838360005b8381101561035f578181015183820152602001610347565b50505050905090810190601f16801561038c5780820380516001836020036101000a031916815260200191505b50858103835287518152875160209182019189019080838360005b838110156103bf5781810151838201526020016103a7565b50505050905090810190601f1680156103ec5780820380516001836020036101000a031916815260200191505b50858103825286518152865160209182019188019080838360005b8381101561041f578181015183820152602001610407565b50505050905090810190601f16801561044c5780820380516001836020036101000a031916815260200191505b509850505050505050505060405180910390f35b6101236004803603602081101561047657600080fd5b50356001600160a01b03166109fa565b610123610b76565b610123610bad565b610123610c05565b61029a600480360360408110156104b457600080fd5b8101906020810181356401000000008111156104cf57600080fd5b8201836020820111156104e157600080fd5b8035906020019184602083028401116401000000008311171561050357600080fd5b919080806020026020016040519081016040528093929190818152602001838360200280828437600092019190915250929550505090356001600160a01b03169150610c609050565b61023e6004803603604081101561056257600080fd5b506001600160a01b038135169060200135610cb8565b61023e6004803603606081101561058e57600080fd5b506001600160a01b03813581169160208101359091169060400135610f06565b61029a610f0b565b61023e600480360360408110156105cc57600080fd5b506001600160a01b038135169060200135610f14565b610608600480360360208110156105f857600080fd5b50356001600160a01b0316610f30565b60408051918252519081900360200190f35b60018054604080516020600284861615610100026000190190941693909304601f8101849004840282018401909252818152929183018282801561069f5780601f106106745761010080835404028352916020019161069f565b820191906000526020600020905b81548152906001019060200180831161068257829003601f168201915b505050505081565b80516106ba906000906020840190611293565b5050565b60018054604080516020601f600260001961010087891615020190951694909404938401819004810282018101909252828152606093909290918301828280156107495780601f1061071e57610100808354040283529160200191610749565b820191906000526020600020905b81548152906001019060200180831161072c57829003601f168201915b505050505090505b90565b60028054604080516020601f60001961010060018716150201909416859004938401819004810282018101909252828152606093909290918301828280156107495780601f1061071e57610100808354040283529160200191610749565b6000816001600160a01b0316639c6790176040518163ffffffff1660e01b815260040160206040518083038186803b1580156107ed57600080fd5b505afa158015610801573d6000803e3d6000fd5b505050506040513d602081101561081757600080fd5b505190505b919050565b600354610100900460ff1681565b606080606080600060016002610843610b76565b8354604080516020601f600260001961010060018816150201909516949094049384018190048102820181019092528281529186918301828280156108c95780601f1061089e576101008083540402835291602001916108c9565b820191906000526020600020905b8154815290600101906020018083116108ac57829003601f168201915b5050865460408051602060026001851615610100026000190190941693909304601f8101849004840282018401909252818152959950889450925084019050828280156109575780601f1061092c57610100808354040283529160200191610957565b820191906000526020600020905b81548152906001019060200180831161093a57829003601f168201915b5050855460408051602060026001851615610100026000190190941693909304601f8101849004840282018401909252818152959850879450925084019050828280156109e55780601f106109ba576101008083540402835291602001916109e5565b820191906000526020600020905b8154815290600101906020018083116109c857829003601f168201915b50505050509150935093509350935090919293565b604080518082018252601081526f181899199a1a9b1b9c1cb0b131b232b360811b60208201528151602a80825260608281019094526001600160a01b03851692918491602082018180388339019050509050600360fc1b81600081518110610a5e57fe5b60200101906001600160f81b031916908160001a905350600f60fb1b81600181518110610a8757fe5b60200101906001600160f81b031916908160001a90535060005b6014811015610b6d578260048583600c0160208110610abc57fe5b1a60f81b6001600160f81b031916901c60f81c60ff1681518110610adc57fe5b602001015160f81c60f81b828260020260020181518110610af957fe5b60200101906001600160f81b031916908160001a905350828482600c0160208110610b2057fe5b825191901a600f16908110610b3157fe5b602001015160f81c60f81b828260020260030181518110610b4e57fe5b60200101906001600160f81b031916908160001a905350600101610aa1565b50949350505050565b60408051808201909152601981527f75696e743a6d696e696d756d496e74657276616c3a6461797300000000000000602082015290565b6002805460408051602060018416156101000260001901909316849004601f8101849004840282018401909252818152929183018282801561069f5780601f106106745761010080835404028352916020019161069f565b6000805460408051602060026001851615610100026000190190941693909304601f8101849004840282018401909252818152929183018282801561069f5780601f106106745761010080835404028352916020019161069f565b6000805b8351811015610cac57826001600160a01b0316848281518110610c8357fe5b60200260200101516001600160a01b03161415610ca4576001915050610cb2565b600101610c64565b50600090505b92915050565b610cc3823383610f42565b15610ce857610ce330838360405180602001604052806000815250610f4b565b6106ba565b6060826001600160a01b03166306fdde036040518163ffffffff1660e01b815260040160006040518083038186803b158015610d2357600080fd5b505afa158015610d37573d6000803e3d6000fd5b505050506040513d6000823e601f3d908101601f191682016040526020811015610d6057600080fd5b8101908080516040519392919084640100000000821115610d8057600080fd5b908301906020820185811115610d9557600080fd5b8251640100000000811182820188101715610daf57600080fd5b82525081516020918201929091019080838360005b83811015610ddc578181015183820152602001610dc4565b50505050905090810190601f168015610e095780820380516001836020036101000a031916815260200191505b50604052505050610e2c6103e8610e1f8661103e565b81610e2657fe5b0461105f565b6040516020018083805190602001908083835b60208310610e5e5780518252601f199092019160209182019101610e3f565b6001836020036101000a0380198251168184511680821785525050505050509050018061132c6065913960650182805190602001908083835b60208310610eb65780518252601f199092019160209182019101610e97565b6001836020036101000a0380198251168184511680821785525050505050509050018061399760f11b815250600201925050506040516020818303038152906040529050610f0630848484611123565b505050565b60035460ff1681565b6001600160a01b03909116600090815260046020526040902055565b60046020526000908152604090205481565b60019392505050565b610f5583836111a9565b50826001600160a01b031663bdc656e98584846040518463ffffffff1660e01b815260040180846001600160a01b03166001600160a01b0316815260200183815260200180602001828103825283818151815260200191508051906020019080838360005b83811015610fd2578181015183820152602001610fba565b50505050905090810190601f168015610fff5780820380516001836020036101000a031916815260200191505b50945050505050600060405180830381600087803b15801561102057600080fd5b505af1158015611034573d6000803e3d6000fd5b5050505050505050565b6001600160a01b03166000908152600460205260409020546305265c000290565b606081806110865750506040805180820190915260018152600360fc1b602082015261081c565b8060005b811561109e57600101600a8204915061108a565b6060816040519080825280601f01601f1916602001820160405280156110cb576020820181803883390190505b50905060001982015b841561111957600a850660300160f81b828280600190039350815181106110f757fe5b60200101906001600160f81b031916908160001a905350600a850494506110d4565b5095945050505050565b61112d83836111a9565b50826001600160a01b0316637c41e5d88584846040518463ffffffff1660e01b815260040180846001600160a01b03166001600160a01b03168152602001838152602001806020018281038252838181518152602001915080519060200190808383600083811015610fd2578181015183820152602001610fba565b6040805162379c0960e91b815230600482015260248101839052905160009182916001600160a01b03861691636f38120091604480830192602092919082900301818787803b1580156111fb57600080fd5b505af115801561120f573d6000803e3d6000fd5b505050506040513d602081101561122557600080fd5b505190506002811480159061123b575080600314155b61128c576040805162461bcd60e51b815260206004820181905260248201527f5468697320766572696669657220697320616c72656164792064656369646564604482015290519081900360640190fd5b5092915050565b828054600181600116156101000203166002900490600052602060002090601f016020900481019282601f106112d457805160ff1916838001178555611301565b82800160010185558215611301579182015b828111156113015782518255916020019190600101906112e6565b5061130d929150611311565b5090565b61075191905b8082111561130d576000815560010161131756fe3a205468652074696d65206265747765656e20796f75722070726576696f757320636c61696d20616e642074686973206f6e652069732073686f72746572207468616e20746865206d696e696d756d2072657175697265642074696d657370616e206f6620a265627a7a723158203bb9ac3001a95a6920219c3ef2dbbabcebb9810b4c1714e2cc00025e675e690364736f6c6343000511003273632e76657269666965722e6d696e696d756d2d696e74657276616c2e6465736372697074696f6e73632e76657269666965722e6d696e696d756d2d696e74657276616c2e6e616d65",
  "source": "pragma solidity ^0.5.17;\n\nimport \"contracts/verifiers/Fin4BaseVerifierType.sol\";\n\ncontract MinimumInterval is Fin4BaseVerifierType {\n\n    constructor() public  {\n        name = \"sc.verifier.minimum-interval.name\";\n        description = \"sc.verifier.minimum-interval.description\";\n        // minimumInterval = 1 * 24 * 60 * 60 * 1000; // 1 day\n    }\n\n    function submitProof_MinimumInterval(address tokenAddrToReceiveVerifierNotice, uint claimId) public {\n        if (minimumIntervalRequirementMet(tokenAddrToReceiveVerifierNotice, msg.sender, claimId)) {\n            _sendApprovalNotice(address(this), tokenAddrToReceiveVerifierNotice, claimId, \"\");\n        } else {\n            string memory message = string(abi.encodePacked(\n                Fin4TokenStub(tokenAddrToReceiveVerifierNotice).name(),\n                \": The time between your previous claim and this one is shorter than the minimum required timespan of \",\n                uint2str(_getMinimumInterval(tokenAddrToReceiveVerifierNotice) / 1000), \"s.\"\n            ));\n            _sendRejectionNotice(address(this), tokenAddrToReceiveVerifierNotice, claimId, message);\n        }\n    }\n\n    function minimumIntervalRequirementMet(address tokenAddressUsingThisverifierType, address claimer, uint claimId) private view returns(bool) {\n        /*\n        uint timeBetween = Fin4TokenStub(tokenAddressUsingThisverifierType).getTimeBetweenThisClaimAndThatClaimersPreviousOne(claimer, claimId);\n        return timeBetween >= _getMinimumInterval(tokenAddressUsingThisverifierType);\n        */\n        return true; // TODO\n    }\n\n    /* // Archived here from Fin4TokenBase\n    function getTimeBetweenThisClaimAndThatClaimersPreviousOne(address claimer, uint claimId) public view returns(uint) {\n        uint[] memory ids = getClaimIds(claimer);\n        if (ids.length < 2 || ids[0] == claimId) {\n            return 365 * 24 * 60 * 60 * 1000; // a year as indicator that it's not applicable (can't do -1 unfortunately)\n        }\n        uint previousId;\n        for (uint i = 0; i < ids.length; i ++) {\n            if(ids[i] == claimId) {\n                return claims[claimId].claimCreationTime - claims[previousId].claimCreationTime;\n            }\n            previousId = ids[i];\n        }\n        // TODO fallback return?\n    }\n    */\n\n    // @Override\n    function getParameterForTokenCreatorToSetEncoded() public pure returns(string memory) {\n        return \"uint:minimumInterval:days\";\n    }\n\n    mapping (address => uint) public tokenToParameter;\n\n    function setParameters(address token, uint minimumInterval) public {\n        // TODO safeguard\n        tokenToParameter[token] = minimumInterval;\n    }\n\n    /*\n    function getParameterizedDescription(address token) public view returns(string memory) {\n        return string(abi.encodePacked(\n            \"The token creator defined the minimum time that has to pass between claims as \",\n            uint2str(_getMinimumInterval(token) / (1000 * 60 * 60 * 24)), \" days.\"\n        ));\n    }*/\n\n    function _getMinimumInterval(address token) private view returns(uint) {\n        return tokenToParameter[token] * 24 * 60 * 60 * 1000; // from days to miliseconds\n    }\n\n}\n",
  "sourcePath": "/home/cantonioupao/susDAO-saveMe/FIN4Contracts/contracts/verifiers/inactive/MinimumInterval.sol",
  "compiler": {
    "name": "solc",
    "version": "0.5.17+commit.d19bba13.Emscripten.clang"
  },
  "schemaVersion": "3.3.1",
  "updatedAt": "2020-12-03T18:27:58.982Z",
  "devdoc": {
    "methods": {}
  },
  "userdoc": {
    "methods": {}
  }
}