{
  "contractName": "PictureGivenApprovers",
  "abi": [
    {
      "constant": true,
      "inputs": [],
      "name": "Fin4GroupsAddress",
      "outputs": [
        {
          "internalType": "address",
          "name": "",
          "type": "address"
        }
      ],
      "payable": false,
      "stateMutability": "view",
      "type": "function"
    },
    {
      "constant": true,
      "inputs": [],
      "name": "Fin4MessagingAddress",
      "outputs": [
        {
          "internalType": "address",
          "name": "",
          "type": "address"
        }
      ],
      "payable": false,
      "stateMutability": "view",
      "type": "function"
    },
    {
      "constant": true,
      "inputs": [
        {
          "internalType": "address",
          "name": "_addr",
          "type": "address"
        }
      ],
      "name": "addressToString",
      "outputs": [
        {
          "internalType": "string",
          "name": "",
          "type": "string"
        }
      ],
      "payable": false,
      "stateMutability": "pure",
      "type": "function"
    },
    {
      "constant": true,
      "inputs": [
        {
          "internalType": "address[]",
          "name": "arr",
          "type": "address[]"
        },
        {
          "internalType": "address",
          "name": "addrToCheck",
          "type": "address"
        }
      ],
      "name": "arrayContainsAddress",
      "outputs": [
        {
          "internalType": "bool",
          "name": "",
          "type": "bool"
        }
      ],
      "payable": false,
      "stateMutability": "pure",
      "type": "function"
    },
    {
      "constant": false,
      "inputs": [
        {
          "internalType": "address",
          "name": "user",
          "type": "address"
        },
        {
          "internalType": "address",
          "name": "tokenAddrToReceiveVerifierNotice",
          "type": "address"
        },
        {
          "internalType": "uint256",
          "name": "claimId",
          "type": "uint256"
        }
      ],
      "name": "autoCheck",
      "outputs": [],
      "payable": false,
      "stateMutability": "nonpayable",
      "type": "function"
    },
    {
      "constant": false,
      "inputs": [
        {
          "internalType": "address",
          "name": "user",
          "type": "address"
        },
        {
          "internalType": "address",
          "name": "tokenAddrToReceiveVerifierNotice",
          "type": "address"
        },
        {
          "internalType": "uint256",
          "name": "claimId",
          "type": "uint256"
        }
      ],
      "name": "autoSubmitProof",
      "outputs": [],
      "payable": false,
      "stateMutability": "nonpayable",
      "type": "function"
    },
    {
      "constant": true,
      "inputs": [],
      "name": "contractName",
      "outputs": [
        {
          "internalType": "string",
          "name": "",
          "type": "string"
        }
      ],
      "payable": false,
      "stateMutability": "view",
      "type": "function"
    },
    {
      "constant": true,
      "inputs": [],
      "name": "description",
      "outputs": [
        {
          "internalType": "string",
          "name": "",
          "type": "string"
        }
      ],
      "payable": false,
      "stateMutability": "view",
      "type": "function"
    },
    {
      "constant": true,
      "inputs": [
        {
          "internalType": "address",
          "name": "tokenAddress",
          "type": "address"
        }
      ],
      "name": "getCreatorOfToken",
      "outputs": [
        {
          "internalType": "address",
          "name": "",
          "type": "address"
        }
      ],
      "payable": false,
      "stateMutability": "view",
      "type": "function"
    },
    {
      "constant": true,
      "inputs": [],
      "name": "getDescription",
      "outputs": [
        {
          "internalType": "string",
          "name": "",
          "type": "string"
        }
      ],
      "payable": false,
      "stateMutability": "view",
      "type": "function"
    },
    {
      "constant": true,
      "inputs": [],
      "name": "getInfo",
      "outputs": [
        {
          "internalType": "string",
          "name": "",
          "type": "string"
        },
        {
          "internalType": "string",
          "name": "",
          "type": "string"
        },
        {
          "internalType": "string",
          "name": "",
          "type": "string"
        },
        {
          "internalType": "string",
          "name": "",
          "type": "string"
        }
      ],
      "payable": false,
      "stateMutability": "view",
      "type": "function"
    },
    {
      "constant": true,
      "inputs": [],
      "name": "getName",
      "outputs": [
        {
          "internalType": "string",
          "name": "",
          "type": "string"
        }
      ],
      "payable": false,
      "stateMutability": "view",
      "type": "function"
    },
    {
      "constant": true,
      "inputs": [],
      "name": "getParameterForTokenCreatorToSetEncoded",
      "outputs": [
        {
          "internalType": "string",
          "name": "",
          "type": "string"
        }
      ],
      "payable": false,
      "stateMutability": "pure",
      "type": "function"
    },
    {
      "constant": true,
      "inputs": [],
      "name": "isAutoCheckable",
      "outputs": [
        {
          "internalType": "bool",
          "name": "",
          "type": "bool"
        }
      ],
      "payable": false,
      "stateMutability": "view",
      "type": "function"
    },
    {
      "constant": true,
      "inputs": [],
      "name": "isAutoInitiable",
      "outputs": [
        {
          "internalType": "bool",
          "name": "",
          "type": "bool"
        }
      ],
      "payable": false,
      "stateMutability": "view",
      "type": "function"
    },
    {
      "constant": true,
      "inputs": [],
      "name": "name",
      "outputs": [
        {
          "internalType": "string",
          "name": "",
          "type": "string"
        }
      ],
      "payable": false,
      "stateMutability": "view",
      "type": "function"
    },
    {
      "constant": true,
      "inputs": [],
      "name": "nextPendingRequestId",
      "outputs": [
        {
          "internalType": "uint256",
          "name": "",
          "type": "uint256"
        }
      ],
      "payable": false,
      "stateMutability": "view",
      "type": "function"
    },
    {
      "constant": true,
      "inputs": [
        {
          "internalType": "uint256",
          "name": "",
          "type": "uint256"
        }
      ],
      "name": "pendingRequests",
      "outputs": [
        {
          "internalType": "uint256",
          "name": "pendingRequestId",
          "type": "uint256"
        },
        {
          "internalType": "address",
          "name": "tokenAddrToReceiveVerifierNotice",
          "type": "address"
        },
        {
          "internalType": "uint256",
          "name": "claimIdOnTokenToReceiveVerifierDecision",
          "type": "uint256"
        },
        {
          "internalType": "address",
          "name": "requester",
          "type": "address"
        },
        {
          "internalType": "bool",
          "name": "isDecided",
          "type": "bool"
        },
        {
          "internalType": "string",
          "name": "attachment",
          "type": "string"
        }
      ],
      "payable": false,
      "stateMutability": "view",
      "type": "function"
    },
    {
      "constant": false,
      "inputs": [
        {
          "internalType": "uint256",
          "name": "pendingRequestId",
          "type": "uint256"
        },
        {
          "internalType": "string",
          "name": "attachedMessage",
          "type": "string"
        }
      ],
      "name": "receiveApproval",
      "outputs": [],
      "payable": false,
      "stateMutability": "nonpayable",
      "type": "function"
    },
    {
      "constant": false,
      "inputs": [
        {
          "internalType": "uint256",
          "name": "pendingRequestId",
          "type": "uint256"
        },
        {
          "internalType": "string",
          "name": "attachedMessage",
          "type": "string"
        }
      ],
      "name": "receiveRejection",
      "outputs": [],
      "payable": false,
      "stateMutability": "nonpayable",
      "type": "function"
    },
    {
      "constant": false,
      "inputs": [
        {
          "internalType": "string",
          "name": "_contractName",
          "type": "string"
        }
      ],
      "name": "setContractName",
      "outputs": [],
      "payable": false,
      "stateMutability": "nonpayable",
      "type": "function"
    },
    {
      "constant": false,
      "inputs": [
        {
          "internalType": "address",
          "name": "Fin4GroupsAddr",
          "type": "address"
        }
      ],
      "name": "setFin4GroupsAddress",
      "outputs": [],
      "payable": false,
      "stateMutability": "nonpayable",
      "type": "function"
    },
    {
      "constant": false,
      "inputs": [
        {
          "internalType": "address",
          "name": "Fin4MessagingAddr",
          "type": "address"
        }
      ],
      "name": "setFin4MessagingAddress",
      "outputs": [],
      "payable": false,
      "stateMutability": "nonpayable",
      "type": "function"
    },
    {
      "constant": false,
      "inputs": [
        {
          "internalType": "address",
          "name": "token",
          "type": "address"
        },
        {
          "internalType": "address[]",
          "name": "individualApprovers",
          "type": "address[]"
        },
        {
          "internalType": "uint256[]",
          "name": "approverGroupIDs",
          "type": "uint256[]"
        }
      ],
      "name": "setParameters",
      "outputs": [],
      "payable": false,
      "stateMutability": "nonpayable",
      "type": "function"
    },
    {
      "constant": true,
      "inputs": [
        {
          "internalType": "address",
          "name": "",
          "type": "address"
        },
        {
          "internalType": "uint256",
          "name": "",
          "type": "uint256"
        }
      ],
      "name": "tokenToApproverGroupIDs",
      "outputs": [
        {
          "internalType": "uint256",
          "name": "",
          "type": "uint256"
        }
      ],
      "payable": false,
      "stateMutability": "view",
      "type": "function"
    },
    {
      "constant": true,
      "inputs": [
        {
          "internalType": "address",
          "name": "",
          "type": "address"
        },
        {
          "internalType": "uint256",
          "name": "",
          "type": "uint256"
        }
      ],
      "name": "tokenToIndividualApprovers",
      "outputs": [
        {
          "internalType": "address",
          "name": "",
          "type": "address"
        }
      ],
      "payable": false,
      "stateMutability": "view",
      "type": "function"
    },
    {
      "constant": false,
      "inputs": [],
      "name": "init",
      "outputs": [],
      "payable": false,
      "stateMutability": "nonpayable",
      "type": "function"
    },
    {
      "constant": false,
      "inputs": [
        {
          "internalType": "address",
          "name": "tokenAddrToReceiveVerifierNotice",
          "type": "address"
        },
        {
          "internalType": "uint256",
          "name": "claimId",
          "type": "uint256"
        },
        {
          "internalType": "string",
          "name": "IPFShash",
          "type": "string"
        }
      ],
      "name": "submitProof_PictureGivenApprovers",
      "outputs": [],
      "payable": false,
      "stateMutability": "nonpayable",
      "type": "function"
    }
  ],
  "bytecode": "0x60806040526003805461ffff191690556000600555620000276001600160e01b036200002d16565b62000136565b604051806060016040528060288152602001620033146028913980516200005d9160019160209091019062000091565b506040518060600160405280602f81526020016200333c602f913980516200008e9160029160209091019062000091565b50565b828054600181600116156101000203166002900490600052602060002090601f016020900481019282601f10620000d457805160ff191683800117855562000104565b8280016001018555821562000104579182015b8281111562000104578251825591602001919060010190620000e7565b506200011292915062000116565b5090565b6200013391905b808211156200011257600081556001016200011d565b90565b6131ce80620001466000396000f3fe608060405234801561001057600080fd5b50600436106101c45760003560e01c80636c71d542116100f9578063b9501b2f11610097578063e1c7392a11610071578063e1c7392a14610a71578063e4ad4acd14610a79578063eb92f76a14610a81578063ffc5daef14610b2c576101c4565b8063b9501b2f14610a35578063c05ebcc514610a3d578063de16f59414610a45576101c4565b80638b3b39e5116100d35780638b3b39e5146107fa5780638bbfc6eb1461092d5780639259360c14610953578063ae18e0a5146109ff576101c4565b80636c71d542146107e25780637284e416146107ea57806375d0c0dc146107f2576101c4565b80633297bf06116101665780633fff6b17116101405780633fff6b17146105b05780634d1a1d5d146105ee5780635a9b0b891461060a5780635e57966d146107bc576101c4565b80633297bf061461048657806336790932146104aa5780633c652a9a146104d0576101c4565b806312bdcd88116101a257806312bdcd881461031257806317d7de7c146103cb5780631a092541146103d357806324b4de26146103db576101c4565b806306fdde03146101c95780630b5ee006146102465780630e0e68b5146102ec575b600080fd5b6101d1610b62565b6040805160208082528351818301528351919283929083019185019080838360005b8381101561020b5781810151838201526020016101f3565b50505050905090810190601f1680156102385780820380516001836020036101000a031916815260200191505b509250505060405180910390f35b6102ea6004803603602081101561025c57600080fd5b810190602081018135600160201b81111561027657600080fd5b82018360208201111561028857600080fd5b803590602001918460018302840111600160201b831117156102a957600080fd5b91908080601f016020809104026020016040519081016040528093929190818152602001838380828437600092019190915250929550610bef945050505050565b005b6102ea6004803603602081101561030257600080fd5b50356001600160a01b0316610c06565b6102ea6004803603606081101561032857600080fd5b6001600160a01b0382351691602081013591810190606081016040820135600160201b81111561035757600080fd5b82018360208201111561036957600080fd5b803590602001918460018302840111600160201b8311171561038a57600080fd5b91908080601f016020809104026020016040519081016040528093929190818152602001838380828437600092019190915250929550610c30945050505050565b6101d1610c5a565b6101d1610cf0565b6102ea600480360360408110156103f157600080fd5b81359190810190604081016020820135600160201b81111561041257600080fd5b82018360208201111561042457600080fd5b803590602001918460018302840111600160201b8311171561044557600080fd5b91908080601f016020809104026020016040519081016040528093929190818152602001838380828437600092019190915250929550610d4e945050505050565b61048e610d5b565b604080516001600160a01b039092168252519081900360200190f35b61048e600480360360208110156104c057600080fd5b50356001600160a01b0316610d70565b6104ed600480360360208110156104e657600080fd5b5035610ddd565b60405180878152602001866001600160a01b03166001600160a01b03168152602001858152602001846001600160a01b03166001600160a01b031681526020018315151515815260200180602001828103825283818151815260200191508051906020019080838360005b83811015610570578181015183820152602001610558565b50505050905090810190601f16801561059d5780820380516001836020036101000a031916815260200191505b5097505050505050505060405180910390f35b6105dc600480360360408110156105c657600080fd5b506001600160a01b038135169060200135610ead565b60408051918252519081900360200190f35b6105f6610edb565b604080519115158252519081900360200190f35b610612610ee9565b6040518080602001806020018060200180602001858103855289818151815260200191508051906020019080838360005b8381101561065b578181015183820152602001610643565b50505050905090810190601f1680156106885780820380516001836020036101000a031916815260200191505b5085810384528851815288516020918201918a019080838360005b838110156106bb5781810151838201526020016106a3565b50505050905090810190601f1680156106e85780820380516001836020036101000a031916815260200191505b50858103835287518152875160209182019189019080838360005b8381101561071b578181015183820152602001610703565b50505050905090810190601f1680156107485780820380516001836020036101000a031916815260200191505b50858103825286518152865160209182019188019080838360005b8381101561077b578181015183820152602001610763565b50505050905090810190601f1680156107a85780820380516001836020036101000a031916815260200191505b509850505050505050505060405180910390f35b6101d1600480360360208110156107d257600080fd5b50356001600160a01b03166110b4565b6101d1611230565b6101d1611250565b6101d16112a8565b6102ea6004803603606081101561081057600080fd5b6001600160a01b038235169190810190604081016020820135600160201b81111561083a57600080fd5b82018360208201111561084c57600080fd5b803590602001918460208302840111600160201b8311171561086d57600080fd5b9190808060200260200160405190810160405280939291908181526020018383602002808284376000920191909152509295949360208101935035915050600160201b8111156108bc57600080fd5b8201836020820111156108ce57600080fd5b803590602001918460208302840111600160201b831117156108ef57600080fd5b919080806020026020016040519081016040528093929190818152602001838360200280828437600092019190915250929550611303945050505050565b6102ea6004803603602081101561094357600080fd5b50356001600160a01b0316611444565b6105f66004803603604081101561096957600080fd5b810190602081018135600160201b81111561098357600080fd5b82018360208201111561099557600080fd5b803590602001918460208302840111600160201b831117156109b657600080fd5b919080806020026020016040519081016040528093929190818152602001838360200280828437600092019190915250929550505090356001600160a01b031691506114669050565b6102ea60048036036060811015610a1557600080fd5b506001600160a01b03813581169160208101359091169060400135610c55565b6105dc6114be565b6105f66114c4565b61048e60048036036040811015610a5b57600080fd5b506001600160a01b0381351690602001356114cd565b6102ea611502565b61048e611560565b6102ea60048036036040811015610a9757600080fd5b81359190810190604081016020820135600160201b811115610ab857600080fd5b820183602082011115610aca57600080fd5b803590602001918460018302840111600160201b83111715610aeb57600080fd5b91908080601f01602080910402602001604051908101604052809392919081815260200183838082843760009201919091525092955061156f945050505050565b6102ea60048036036060811015610b4257600080fd5b506001600160a01b0381358116916020810135909116906040013561157c565b60018054604080516020600284861615610100026000190190941693909304601f81018490048402820184019092528181529291830182828015610be75780601f10610bbc57610100808354040283529160200191610be7565b820191906000526020600020905b815481529060010190602001808311610bca57829003601f168201915b505050505081565b8051610c02906000906020840190612cb2565b5050565b600380546001600160a01b03909216620100000262010000600160b01b0319909216919091179055565b610c55338484846040518060800160405280604f8152602001612f82604f91396115ac565b505050565b60018054604080516020601f60026000196101008789161502019095169490940493840181900481028201810190925282815260609390929091830182828015610ce55780601f10610cba57610100808354040283529160200191610ce5565b820191906000526020600020905b815481529060010190602001808311610cc857829003601f168201915b505050505090505b90565b60028054604080516020601f6000196101006001871615020190941685900493840181900481028201810190925282815260609390929091830182828015610ce55780601f10610cba57610100808354040283529160200191610ce5565b610c028233836001612037565b6003546201000090046001600160a01b031681565b6000816001600160a01b0316639c6790176040518163ffffffff1660e01b815260040160206040518083038186803b158015610dab57600080fd5b505afa158015610dbf573d6000803e3d6000fd5b505050506040513d6020811015610dd557600080fd5b505192915050565b60066020818152600092835260409283902080546001808301546002808501546003860154978601546007870180548b516101009782161597909702600019011693909304601f8101899004890286018901909a5289855294986001600160a01b03938416989197939091169560ff909516949392830182828015610ea35780601f10610e7857610100808354040283529160200191610ea3565b820191906000526020600020905b815481529060010190602001808311610e8657829003601f168201915b5050505050905086565b60086020528160005260406000208181548110610ec657fe5b90600052602060002001600091509150505481565b600354610100900460ff1681565b606080606080600060016002610efd611230565b8354604080516020601f60026000196101006001881615020190951694909404938401819004810282018101909252828152918691830182828015610f835780601f10610f5857610100808354040283529160200191610f83565b820191906000526020600020905b815481529060010190602001808311610f6657829003601f168201915b5050865460408051602060026001851615610100026000190190941693909304601f8101849004840282018401909252818152959950889450925084019050828280156110115780601f10610fe657610100808354040283529160200191611011565b820191906000526020600020905b815481529060010190602001808311610ff457829003601f168201915b5050855460408051602060026001851615610100026000190190941693909304601f81018490048402820184019092528181529598508794509250840190508282801561109f5780601f106110745761010080835404028352916020019161109f565b820191906000526020600020905b81548152906001019060200180831161108257829003601f168201915b50505050509150935093509350935090919293565b604080518082018252601081526f181899199a1a9b1b9c1cb0b131b232b360811b60208201528151602a80825260608281019094526001600160a01b03851692918491602082018180388339019050509050600360fc1b8160008151811061111857fe5b60200101906001600160f81b031916908160001a905350600f60fb1b8160018151811061114157fe5b60200101906001600160f81b031916908160001a90535060005b6014811015611227578260048583600c016020811061117657fe5b1a60f81b6001600160f81b031916901c60f81c60ff168151811061119657fe5b602001015160f81c60f81b8282600202600201815181106111b357fe5b60200101906001600160f81b031916908160001a905350828482600c01602081106111da57fe5b825191901a600f169081106111eb57fe5b602001015160f81c60f81b82826002026003018151811061120857fe5b60200101906001600160f81b031916908160001a90535060010161115b565b50949350505050565b60606040518060800160405280604b8152602001612fd1604b9139905090565b6002805460408051602060018416156101000260001901909316849004601f81018490048402820184019092528181529291830182828015610be75780601f10610bbc57610100808354040283529160200191610be7565b6000805460408051602060026001851615610100026000190190941693909304601f81018490048402820184019092528181529291830182828015610be75780601f10610bbc57610100808354040283529160200191610be7565b60005b81518110156113ea57600360029054906101000a90046001600160a01b03166001600160a01b031663bd5263d883838151811061133f57fe5b60200260200101516040518263ffffffff1660e01b81526004018082815260200191505060206040518083038186803b15801561137b57600080fd5b505afa15801561138f573d6000803e3d6000fd5b505050506040513d60208110156113a557600080fd5b50516113e25760405162461bcd60e51b81526004018080602001828103825260358152602001806130e06035913960400191505060405180910390fd5b600101611306565b506001600160a01b0383166000908152600760209081526040909120835161141492850190612d30565b506001600160a01b0383166000908152600860209081526040909120825161143e92840190612d91565b50505050565b600480546001600160a01b0319166001600160a01b0392909216919091179055565b6000805b83518110156114b257826001600160a01b031684828151811061148957fe5b60200260200101516001600160a01b031614156114aa5760019150506114b8565b60010161146a565b50600090505b92915050565b60055481565b60035460ff1681565b600760205281600052604060002081815481106114e657fe5b6000918252602090912001546001600160a01b03169150829050565b604051806060016040528060288152602001612e6360289139805161152f91600191602090910190612cb2565b506040518060600160405280602f8152602001612ecd602f9139805161155d91600291602090910190612cb2565b50565b6004546001600160a01b031681565b610c028233836000612037565b610c5583838360405180602001604052806000815250604051806080016040528060478152602001612f3b604791395b60006115ba86868686612741565b90506060856001600160a01b03166306fdde036040518163ffffffff1660e01b815260040160006040518083038186803b1580156115f757600080fd5b505afa15801561160b573d6000803e3d6000fd5b505050506040513d6000823e601f3d908101601f19168201604052602081101561163457600080fd5b8101908080516040519392919084600160201b82111561165357600080fd5b90830190602082018581111561166857600080fd5b8251600160201b81118282018810171561168157600080fd5b82525081516020918201929091019080838360005b838110156116ae578181015183820152602001611696565b50505050905090810190601f1680156116db5780820380516001836020036101000a031916815260200191505b506040525050506040516020018080612efc603f9139603f0182805190602001908083835b6020831061171f5780518252601f199092019160209182019101611700565b6001836020036101000a03801982511681845116808217855250505050505090500180613115608591396040805160658184030181526001600160a01b038b1660009081526007602090815290839020805460a5928102860183019094526085850184815292975060609650919450909201828280156117c857602002820191906000526020600020905b81546001600160a01b031681526001909101906020018083116117aa575b50939450600093505050505b8151811015611b0157886001600160a01b03168282815181106117f357fe5b60200260200101516001600160a01b031614156118415760405162461bcd60e51b8152600401808060200182810382526042815260200180612e8b6042913960600191505060405180910390fd5b6006600085815260200190815260200160002060040182828151811061186357fe5b602090810291909101810151825460018101845560009384528284200180546001600160a01b0319166001600160a01b03928316179055868352600690915260408220600454855160059092019392169163a12e93dd918d91908790879081106118c957fe5b602002602001015188600660008c81526020019081526020016000206007018b6040518763ffffffff1660e01b815260040180876001600160a01b03166001600160a01b0316815260200180602001866001600160a01b03166001600160a01b0316815260200180602001806020018581526020018481038452898181546001816001161561010002031660029004815260200191508054600181600116156101000203166002900480156119bf5780601f10611994576101008083540402835291602001916119bf565b820191906000526020600020905b8154815290600101906020018083116119a257829003601f168201915b5050848103835287518152875160209182019189019080838360005b838110156119f35781810151838201526020016119db565b50505050905090810190601f168015611a205780820380516001836020036101000a031916815260200191505b50848103825286546002600019610100600184161502019091160480825260209091019087908015611a935780601f10611a6857610100808354040283529160200191611a93565b820191906000526020600020905b815481529060010190602001808311611a7657829003601f168201915b50509950505050505050505050602060405180830381600087803b158015611aba57600080fd5b505af1158015611ace573d6000803e3d6000fd5b505050506040513d6020811015611ae457600080fd5b5051815460018181018455600093845260209093200155016117d4565b506001600160a01b038716600090815260086020908152604091829020805483518184028101840190945280845260609392830182828015611b6257602002820191906000526020600020905b815481526020019060010190808311611b4e575b50939450600093505050505b815181101561201f576060600360029054906101000a90046001600160a01b03166001600160a01b03166336cc8130848481518110611ba957fe5b60200260200101516040518263ffffffff1660e01b81526004018082815260200191505060006040518083038186803b158015611be557600080fd5b505afa158015611bf9573d6000803e3d6000fd5b505050506040513d6000823e601f3d908101601f191682016040526020811015611c2257600080fd5b8101908080516040519392919084600160201b821115611c4157600080fd5b908301906020820185811115611c5657600080fd5b82518660208202830111600160201b82111715611c7257600080fd5b82525081516020918201928201910280838360005b83811015611c9f578181015183820152602001611c87565b50505050905001604052505050905060008090505b8151811015612015578b6001600160a01b0316828281518110611cd357fe5b60200260200101516001600160a01b03161415611d215760405162461bcd60e51b815260040180806020018281038252604b815260200180613062604b913960600191505060405180910390fd5b60066000888152602001908152602001600020600401828281518110611d4357fe5b602002602001015190806001815401808255809150509060018203906000526020600020016000909192909190916101000a8154816001600160a01b0302191690836001600160a01b031602179055505060066000888152602001908152602001600020600501600460009054906101000a90046001600160a01b03166001600160a01b031663a12e93dd8e6000868681518110611ddd57fe5b60200260200101518b600660008f81526020019081526020016000206007018e6040518763ffffffff1660e01b815260040180876001600160a01b03166001600160a01b0316815260200180602001866001600160a01b03166001600160a01b031681526020018060200180602001858152602001848103845289818154600181600116156101000203166002900481526020019150805460018160011615610100020316600290048015611ed35780601f10611ea857610100808354040283529160200191611ed3565b820191906000526020600020905b815481529060010190602001808311611eb657829003601f168201915b5050848103835287518152875160209182019189019080838360005b83811015611f07578181015183820152602001611eef565b50505050905090810190601f168015611f345780820380516001836020036101000a031916815260200191505b50848103825286546002600019610100600184161502019091160480825260209091019087908015611fa75780601f10611f7c57610100808354040283529160200191611fa7565b820191906000526020600020905b815481529060010190602001808311611f8a57829003601f168201915b50509950505050505050505050602060405180830381600087803b158015611fce57600080fd5b505af1158015611fe2573d6000803e3d6000fd5b505050506040513d6020811015611ff857600080fd5b505181546001818101845560009384526020909320015501611cb4565b5050600101611b6e565b5061202c3089898861284a565b505050505050505050565b61203f612dcb565b6000858152600660209081526040918290208251610100810184528154815260018201546001600160a01b0390811682850152600283015482860152600383015416606082015260048201805485518186028101860190965280865291949293608086019392908301828280156120df57602002820191906000526020600020905b81546001600160a01b031681526001909101906020018083116120c1575b505050505081526020016005820180548060200260200160405190810160405280929190818152602001828054801561213757602002820191906000526020600020905b815481526020019060010190808311612123575b5050509183525050600682015460ff16151560208083019190915260078301805460408051601f600260001960018616156101000201909416939093049283018590048502810185018252828152940193928301828280156121da5780601f106121af576101008083540402835291602001916121da565b820191906000526020600020905b8154815290600101906020018083116121bd57829003601f168201915b5050505050815250509050836001600160a01b031681606001516001600160a01b03161415612250576040805162461bcd60e51b815260206004820152601760248201527f4e6f2073656c662d617070726f766520616c6c6f776564000000000000000000604482015290519081900360640190fd5b6020810151600061226182876129f4565b8061233f57506003546001600160a01b03838116600090815260086020526040908190208151634127f79f60e01b81528a84166024820152600481019283528154604482018190526201000090950490931693634127f79f9391928b929091829160640190859080156122f357602002820191906000526020600020905b8154815260200190600101908083116122df575b5050935050505060206040518083038186803b15801561231257600080fd5b505afa158015612326573d6000803e3d6000fd5b505050506040513d602081101561233c57600080fd5b50515b90508061237d5760405162461bcd60e51b81526004018080602001828103825260338152602001806130ad6033913960400191505060405180910390fd5b8260c00151156123d4576040805162461bcd60e51b815260206004820152601f60248201527f54686973207265717565737420697320616c7265616479206465636964656400604482015290519081900360640190fd5b60005b8360a001515181101561249e57600454608085015180516001600160a01b03909216916392825c7991908490811061240b57fe5b60200260200101518660a00151848151811061242357fe5b60200260200101516040518363ffffffff1660e01b815260040180836001600160a01b03166001600160a01b0316815260200182815260200192505050600060405180830381600087803b15801561247a57600080fd5b505af115801561248e573d6000803e3d6000fd5b5050600190920191506123d79050565b50600160c084015283156124c1576124bc3083856040015188612abc565b612738565b6060826001600160a01b03166306fdde036040518163ffffffff1660e01b815260040160006040518083038186803b1580156124fc57600080fd5b505afa158015612510573d6000803e3d6000fd5b505050506040513d6000823e601f3d908101601f19168201604052602081101561253957600080fd5b8101908080516040519392919084600160201b82111561255857600080fd5b90830190602082018581111561256d57600080fd5b8251600160201b81118282018810171561258657600080fd5b82525081516020918201929091019080838360005b838110156125b357818101518382015260200161259b565b50505050905090810190601f1680156125e05780820380516001836020036101000a031916815260200191505b50604052505050604051602001808061301c6046913960460182805190602001908083835b602083106126245780518252601f199092019160209182019101612605565b6001836020036101000a03801982511681845116808217855250505050505090500191505060405160208183030381529060405290506000865111156127265780866040516020018083805190602001908083835b602083106126985780518252601f199092019160209182019101612679565b51815160209384036101000a60001901801990921691161790526101d160f51b919093019081528451600290910192850191508083835b602083106126ee5780518252601f1990920191602091820191016126cf565b6001836020036101000a0380198251168184511680821785525050505050509050019250505060405160208183030381529060405290505b6127363084866040015184612b42565b505b50505050505050565b600061274b612dcb565b6001600160a01b03808616602080840191825260408085018881528a851660608701908152600554808852600060c0890181905260e089018b905290815260068552929092208651815593516001850180549187166001600160a01b0319928316179055905160028501559051600384018054919095169116179092556080830151805184936127e2926004850192910190612d30565b5060a082015180516127fe916005840191602090910190612d91565b5060c082015160068201805460ff191691151591909117905560e08201518051612832916007840191602090910190612cb2565b50506005805460018101909155979650505050505050565b6040805162379c0960e91b81523060048201526024810184905290516001600160a01b03851691636f3812009160448083019260209291908290030181600087803b15801561289857600080fd5b505af11580156128ac573d6000803e3d6000fd5b505050506040513d60208110156128c257600080fd5b505115612916576040805162461bcd60e51b815260206004820152601f60248201527f546869732070726f6f6620697320616c7265616479207375626d697474656400604482015290519081900360640190fd5b826001600160a01b03166359af61528584846040518463ffffffff1660e01b815260040180846001600160a01b03166001600160a01b0316815260200183815260200180602001828103825283818151815260200191508051906020019080838360005b8381101561299257818101518382015260200161297a565b50505050905090810190601f1680156129bf5780820380516001836020036101000a031916815260200191505b50945050505050600060405180830381600087803b1580156129e057600080fd5b505af1158015612736573d6000803e3d6000fd5b6001600160a01b03821660009081526007602090815260408083208054825181850281018501909352808352606093830182828015612a5c57602002820191906000526020600020905b81546001600160a01b03168152600190910190602001808311612a3e575b50939450600093505050505b8151811015612ab157836001600160a01b0316828281518110612a8757fe5b60200260200101516001600160a01b03161415612aa9576001925050506114b8565b600101612a68565b506000949350505050565b612ac68383612bc8565b50826001600160a01b031663bdc656e98584846040518463ffffffff1660e01b815260040180846001600160a01b03166001600160a01b0316815260200183815260200180602001828103825283818151815260200191508051906020019080838360008381101561299257818101518382015260200161297a565b612b4c8383612bc8565b50826001600160a01b0316637c41e5d88584846040518463ffffffff1660e01b815260040180846001600160a01b03166001600160a01b0316815260200183815260200180602001828103825283818151815260200191508051906020019080838360008381101561299257818101518382015260200161297a565b6040805162379c0960e91b815230600482015260248101839052905160009182916001600160a01b03861691636f38120091604480830192602092919082900301818787803b158015612c1a57600080fd5b505af1158015612c2e573d6000803e3d6000fd5b505050506040513d6020811015612c4457600080fd5b5051905060028114801590612c5a575080600314155b612cab576040805162461bcd60e51b815260206004820181905260248201527f5468697320766572696669657220697320616c72656164792064656369646564604482015290519081900360640190fd5b5092915050565b828054600181600116156101000203166002900490600052602060002090601f016020900481019282601f10612cf357805160ff1916838001178555612d20565b82800160010185558215612d20579182015b82811115612d20578251825591602001919060010190612d05565b50612d2c929150612e24565b5090565b828054828255906000526020600020908101928215612d85579160200282015b82811115612d8557825182546001600160a01b0319166001600160a01b03909116178255602090920191600190910190612d50565b50612d2c929150612e3e565b828054828255906000526020600020908101928215612d205791602002820182811115612d20578251825591602001919060010190612d05565b6040518061010001604052806000815260200160006001600160a01b031681526020016000815260200160006001600160a01b031681526020016060815260200160608152602001600015158152602001606081525090565b610ced91905b80821115612d2c5760008155600101612e2a565b610ced91905b80821115612d2c5780546001600160a01b0319168155600101612e4456fe73632e76657269666965722e706963747572652d676976656e2d617070726f766572732e6e616d65436c61696d6572206973206c697374656420617320696e646976696475616c20617070726f7665722c206e6f2073656c662d617070726f76616c20616c6c6f77656473632e76657269666965722e706963747572652d676976656e2d617070726f766572732e6465736372697074696f6e596f7520617265206f6e65206f6620746865206170706f696e74656420617070726f7665727320666f7220636c61696d73206f6e2074686520746f6b656e20546865206170706f696e74656420617070726f766572732068617665206265656e206e6f7469666965642061626f757420796f757220617070726f76616c20726571756573742e546865206170706f696e74656420617070726f766572732068617665206265656e206e6f7469666965642061626f757420796f7572207069637475726520617070726f76616c20726571756573742e616464726573735b5d3a55736572733a61646472657373657320636f6d6d61207365706172617465642c75696e745b5d3a47726f7570733a49447320636f6d6d61207365706172617465644f6e65206f6620746865206170706f696e74656420617070726f76657273206861732072656a656374656420796f757220617070726f76616c207265717565737420666f7220436c61696d657220697320696e206174206c65617374206f6e65206f662074686520617070726f7665722067726f7570732c206e6f2073656c662d617070726f76616c20616c6c6f776564596f7520646f6e27742068617665207065726d697373696f6e20746f20646563696465206f6e207468697320726571756573744174206c65617374206f6e65206f662074686520617070726f7665722067726f75702049447320646f6573206e6f742065786973742e204f6e6365206f6e6520617070726f766572206769766573207468656972206465636973696f6e2c2074686973206d6573736167652067657473206d61726b6564206173207265616420666f7220616c6c206f746865727320616e6420746865792063616e2774206368616e676520746865206465636973696f6e20616e796d6f72652ea265627a7a72315820735a21e2dae58047b4b9e011e6eacf671b89806cd08981afd85d616d568b8b1f64736f6c6343000511003273632e76657269666965722e706963747572652d676976656e2d617070726f766572732e6e616d6573632e76657269666965722e706963747572652d676976656e2d617070726f766572732e6465736372697074696f6e",
  "source": "pragma solidity ^0.5.17;\n\nimport \"contracts/verifiers/onchain/social/ApprovalByUsersOrGroups.sol\";\n\ncontract PictureGivenApprovers is ApprovalByUsersOrGroups {\n\n    // @Override\n    function init() public {\n        name = \"sc.verifier.picture-given-approvers.name\";\n        description = \"sc.verifier.picture-given-approvers.description\";\n    }\n\n    function submitProof_PictureGivenApprovers(address tokenAddrToReceiveVerifierNotice, uint claimId, string memory IPFShash) public {\n        submitProof(msg.sender, tokenAddrToReceiveVerifierNotice, claimId, IPFShash,\n            \"The appointed approvers have been notified about your picture approval request.\");\n    }\n}\n",
  "sourcePath": "/home/cantonioupao/susDAO-saveMe/FIN4Contracts/contracts/verifiers/onchain/social/PictureGivenApprovers.sol",
  "compiler": {
    "name": "solc",
    "version": "0.5.17+commit.d19bba13.Emscripten.clang"
  },
  "schemaVersion": "3.3.1",
  "updatedAt": "2020-12-03T18:27:59.030Z",
  "devdoc": {
    "methods": {}
  },
  "userdoc": {
    "methods": {}
  }
}