{
  "contractName": "PictureSelfChosenApprover",
  "abi": [
    {
      "inputs": [],
      "payable": false,
      "stateMutability": "nonpayable",
      "type": "constructor"
    },
    {
      "constant": true,
      "inputs": [],
      "name": "Fin4MessagingAddress",
      "outputs": [
        {
          "internalType": "address",
          "name": "",
          "type": "address"
        }
      ],
      "payable": false,
      "stateMutability": "view",
      "type": "function"
    },
    {
      "constant": true,
      "inputs": [
        {
          "internalType": "address",
          "name": "_addr",
          "type": "address"
        }
      ],
      "name": "addressToString",
      "outputs": [
        {
          "internalType": "string",
          "name": "",
          "type": "string"
        }
      ],
      "payable": false,
      "stateMutability": "pure",
      "type": "function"
    },
    {
      "constant": true,
      "inputs": [
        {
          "internalType": "address[]",
          "name": "arr",
          "type": "address[]"
        },
        {
          "internalType": "address",
          "name": "addrToCheck",
          "type": "address"
        }
      ],
      "name": "arrayContainsAddress",
      "outputs": [
        {
          "internalType": "bool",
          "name": "",
          "type": "bool"
        }
      ],
      "payable": false,
      "stateMutability": "pure",
      "type": "function"
    },
    {
      "constant": false,
      "inputs": [
        {
          "internalType": "address",
          "name": "user",
          "type": "address"
        },
        {
          "internalType": "address",
          "name": "tokenAddrToReceiveVerifierNotice",
          "type": "address"
        },
        {
          "internalType": "uint256",
          "name": "claimId",
          "type": "uint256"
        }
      ],
      "name": "autoCheck",
      "outputs": [],
      "payable": false,
      "stateMutability": "nonpayable",
      "type": "function"
    },
    {
      "constant": false,
      "inputs": [
        {
          "internalType": "address",
          "name": "user",
          "type": "address"
        },
        {
          "internalType": "address",
          "name": "tokenAddrToReceiveVerifierNotice",
          "type": "address"
        },
        {
          "internalType": "uint256",
          "name": "claimId",
          "type": "uint256"
        }
      ],
      "name": "autoSubmitProof",
      "outputs": [],
      "payable": false,
      "stateMutability": "nonpayable",
      "type": "function"
    },
    {
      "constant": true,
      "inputs": [],
      "name": "contractName",
      "outputs": [
        {
          "internalType": "string",
          "name": "",
          "type": "string"
        }
      ],
      "payable": false,
      "stateMutability": "view",
      "type": "function"
    },
    {
      "constant": true,
      "inputs": [],
      "name": "description",
      "outputs": [
        {
          "internalType": "string",
          "name": "",
          "type": "string"
        }
      ],
      "payable": false,
      "stateMutability": "view",
      "type": "function"
    },
    {
      "constant": true,
      "inputs": [
        {
          "internalType": "address",
          "name": "tokenAddress",
          "type": "address"
        }
      ],
      "name": "getCreatorOfToken",
      "outputs": [
        {
          "internalType": "address",
          "name": "",
          "type": "address"
        }
      ],
      "payable": false,
      "stateMutability": "view",
      "type": "function"
    },
    {
      "constant": true,
      "inputs": [],
      "name": "getDescription",
      "outputs": [
        {
          "internalType": "string",
          "name": "",
          "type": "string"
        }
      ],
      "payable": false,
      "stateMutability": "view",
      "type": "function"
    },
    {
      "constant": true,
      "inputs": [],
      "name": "getInfo",
      "outputs": [
        {
          "internalType": "string",
          "name": "",
          "type": "string"
        },
        {
          "internalType": "string",
          "name": "",
          "type": "string"
        },
        {
          "internalType": "string",
          "name": "",
          "type": "string"
        },
        {
          "internalType": "string",
          "name": "",
          "type": "string"
        }
      ],
      "payable": false,
      "stateMutability": "view",
      "type": "function"
    },
    {
      "constant": true,
      "inputs": [],
      "name": "getName",
      "outputs": [
        {
          "internalType": "string",
          "name": "",
          "type": "string"
        }
      ],
      "payable": false,
      "stateMutability": "view",
      "type": "function"
    },
    {
      "constant": true,
      "inputs": [],
      "name": "getParameterForTokenCreatorToSetEncoded",
      "outputs": [
        {
          "internalType": "string",
          "name": "",
          "type": "string"
        }
      ],
      "payable": false,
      "stateMutability": "pure",
      "type": "function"
    },
    {
      "constant": true,
      "inputs": [],
      "name": "isAutoCheckable",
      "outputs": [
        {
          "internalType": "bool",
          "name": "",
          "type": "bool"
        }
      ],
      "payable": false,
      "stateMutability": "view",
      "type": "function"
    },
    {
      "constant": true,
      "inputs": [],
      "name": "isAutoInitiable",
      "outputs": [
        {
          "internalType": "bool",
          "name": "",
          "type": "bool"
        }
      ],
      "payable": false,
      "stateMutability": "view",
      "type": "function"
    },
    {
      "constant": true,
      "inputs": [],
      "name": "name",
      "outputs": [
        {
          "internalType": "string",
          "name": "",
          "type": "string"
        }
      ],
      "payable": false,
      "stateMutability": "view",
      "type": "function"
    },
    {
      "constant": true,
      "inputs": [
        {
          "internalType": "address",
          "name": "",
          "type": "address"
        },
        {
          "internalType": "uint256",
          "name": "",
          "type": "uint256"
        }
      ],
      "name": "pendingApprovals",
      "outputs": [
        {
          "internalType": "address",
          "name": "tokenAddrToReceiveVerifierNotice",
          "type": "address"
        },
        {
          "internalType": "uint256",
          "name": "claimIdOnTokenToReceiveVerifierDecision",
          "type": "uint256"
        },
        {
          "internalType": "address",
          "name": "requester",
          "type": "address"
        },
        {
          "internalType": "address",
          "name": "approver",
          "type": "address"
        },
        {
          "internalType": "string",
          "name": "attachment",
          "type": "string"
        },
        {
          "internalType": "uint256",
          "name": "messageId",
          "type": "uint256"
        },
        {
          "internalType": "bool",
          "name": "isApproved",
          "type": "bool"
        },
        {
          "internalType": "address",
          "name": "linkedWith",
          "type": "address"
        },
        {
          "internalType": "uint256",
          "name": "pendingApprovalId",
          "type": "uint256"
        },
        {
          "internalType": "uint256",
          "name": "linkedWithPendingApprovalId",
          "type": "uint256"
        }
      ],
      "payable": false,
      "stateMutability": "view",
      "type": "function"
    },
    {
      "constant": false,
      "inputs": [
        {
          "internalType": "uint256",
          "name": "pendingApprovalId",
          "type": "uint256"
        },
        {
          "internalType": "string",
          "name": "attachedMessage",
          "type": "string"
        }
      ],
      "name": "receiveApproval",
      "outputs": [],
      "payable": false,
      "stateMutability": "nonpayable",
      "type": "function"
    },
    {
      "constant": false,
      "inputs": [
        {
          "internalType": "uint256",
          "name": "pendingApprovalId",
          "type": "uint256"
        },
        {
          "internalType": "string",
          "name": "attachedMessage",
          "type": "string"
        }
      ],
      "name": "receiveRejection",
      "outputs": [],
      "payable": false,
      "stateMutability": "nonpayable",
      "type": "function"
    },
    {
      "constant": false,
      "inputs": [
        {
          "internalType": "string",
          "name": "_contractName",
          "type": "string"
        }
      ],
      "name": "setContractName",
      "outputs": [],
      "payable": false,
      "stateMutability": "nonpayable",
      "type": "function"
    },
    {
      "constant": false,
      "inputs": [
        {
          "internalType": "address",
          "name": "Fin4MessagingAddr",
          "type": "address"
        }
      ],
      "name": "setFin4MessagingAddress",
      "outputs": [],
      "payable": false,
      "stateMutability": "nonpayable",
      "type": "function"
    },
    {
      "constant": false,
      "inputs": [
        {
          "internalType": "address",
          "name": "tokenAddrToReceiveVerifierNotice",
          "type": "address"
        },
        {
          "internalType": "uint256",
          "name": "claimId",
          "type": "uint256"
        },
        {
          "internalType": "address",
          "name": "approver",
          "type": "address"
        }
      ],
      "name": "submitProof_SpecificAddress",
      "outputs": [],
      "payable": false,
      "stateMutability": "nonpayable",
      "type": "function"
    },
    {
      "constant": false,
      "inputs": [],
      "name": "init",
      "outputs": [],
      "payable": false,
      "stateMutability": "nonpayable",
      "type": "function"
    },
    {
      "constant": false,
      "inputs": [
        {
          "internalType": "address",
          "name": "tokenAddrToReceiveVerifierNotice",
          "type": "address"
        },
        {
          "internalType": "uint256",
          "name": "claimId",
          "type": "uint256"
        },
        {
          "internalType": "address",
          "name": "approver",
          "type": "address"
        },
        {
          "internalType": "string",
          "name": "IPFShash",
          "type": "string"
        }
      ],
      "name": "submitProof_PictureSelfChosenApprover",
      "outputs": [],
      "payable": false,
      "stateMutability": "nonpayable",
      "type": "function"
    },
    {
      "constant": true,
      "inputs": [],
      "name": "getMessageText",
      "outputs": [
        {
          "internalType": "string",
          "name": "",
          "type": "string"
        }
      ],
      "payable": false,
      "stateMutability": "pure",
      "type": "function"
    }
  ],
  "bytecode": "0x60806040526003805461ffff191690553480156200001c57600080fd5b50620000306001600160e01b036200003616565b6200013f565b6040518060600160405280602d815260200162002bcf602d9139805162000066916001916020909101906200009a565b5060405180606001604052806034815260200162002b9b60349139805162000097916002916020909101906200009a565b50565b828054600181600116156101000203166002900490600052602060002090601f016020900481019282601f10620000dd57805160ff19168380011785556200010d565b828001600101855582156200010d579182015b828111156200010d578251825591602001919060010190620000f0565b506200011b9291506200011f565b5090565b6200013c91905b808211156200011b576000815560010162000126565b90565b612a4c806200014f6000396000f3fe608060405234801561001057600080fd5b50600436106101585760003560e01c80636c71d542116100c3578063ae18e0a51161007c578063ae18e0a51461088b578063c05ebcc5146108c1578063e1c7392a146108c9578063e4ad4acd146108d1578063eb92f76a146108d9578063ffc5daef1461088b57610158565b80636c71d542146107995780637284e416146107a157806375d0c0dc146107a95780637f1a5c20146107b15780638bbfc6eb146107b95780639259360c146107df57610158565b806324b4de261161011557806324b4de261461038957806336790932146104345780633939f53d146104765780634d1a1d5d146105a55780635a9b0b89146105c15780635e57966d1461077357610158565b806306fdde031461015d5780630b5ee006146101da5780630df726301461028057806317d7de7c146103435780631a0925411461034b5780631f3a5c4514610353575b600080fd5b610165610984565b6040805160208082528351818301528351919283929083019185019080838360005b8381101561019f578181015183820152602001610187565b50505050905090810190601f1680156101cc5780820380516001836020036101000a031916815260200191505b509250505060405180910390f35b61027e600480360360208110156101f057600080fd5b810190602081018135600160201b81111561020a57600080fd5b82018360208201111561021c57600080fd5b803590602001918460018302840111600160201b8311171561023d57600080fd5b91908080601f016020809104026020016040519081016040528093929190818152602001838380828437600092019190915250929550610a11945050505050565b005b61027e6004803603608081101561029657600080fd5b6001600160a01b038235811692602081013592604082013590921691810190608081016060820135600160201b8111156102cf57600080fd5b8201836020820111156102e157600080fd5b803590602001918460018302840111600160201b8311171561030257600080fd5b91908080601f016020809104026020016040519081016040528093929190818152602001838380828437600092019190915250929550610a28945050505050565b610165610ff5565b61016561108b565b61027e6004803603606081101561036957600080fd5b506001600160a01b038135811691602081013591604090910135166110e9565b61027e6004803603604081101561039f57600080fd5b81359190810190604081016020820135600160201b8111156103c057600080fd5b8201836020820111156103d257600080fd5b803590602001918460018302840111600160201b831117156103f357600080fd5b91908080601f01602080910402602001604051908101604052809392919081815260200183838082843760009201919091525092955061165b945050505050565b61045a6004803603602081101561044a57600080fd5b50356001600160a01b0316611881565b604080516001600160a01b039092168252519081900360200190f35b6104a26004803603604081101561048c57600080fd5b506001600160a01b0381351690602001356118ee565b604051808b6001600160a01b03166001600160a01b031681526020018a8152602001896001600160a01b03166001600160a01b03168152602001886001600160a01b03166001600160a01b031681526020018060200187815260200186151515158152602001856001600160a01b03166001600160a01b03168152602001848152602001838152602001828103825288818151815260200191508051906020019080838360005b83811015610561578181015183820152602001610549565b50505050905090810190601f16801561058e5780820380516001836020036101000a031916815260200191505b509b50505050505050505050505060405180910390f35b6105ad6119ff565b604080519115158252519081900360200190f35b6105c9611a0d565b6040518080602001806020018060200180602001858103855289818151815260200191508051906020019080838360005b838110156106125781810151838201526020016105fa565b50505050905090810190601f16801561063f5780820380516001836020036101000a031916815260200191505b5085810384528851815288516020918201918a019080838360005b8381101561067257818101518382015260200161065a565b50505050905090810190601f16801561069f5780820380516001836020036101000a031916815260200191505b50858103835287518152875160209182019189019080838360005b838110156106d25781810151838201526020016106ba565b50505050905090810190601f1680156106ff5780820380516001836020036101000a031916815260200191505b50858103825286518152865160209182019188019080838360005b8381101561073257818101518382015260200161071a565b50505050905090810190601f16801561075f5780820380516001836020036101000a031916815260200191505b509850505050505050505060405180910390f35b6101656004803603602081101561078957600080fd5b50356001600160a01b0316611bd8565b610165611d54565b610165611d66565b610165611dbe565b610165611e19565b61027e600480360360208110156107cf57600080fd5b50356001600160a01b0316611e39565b6105ad600480360360408110156107f557600080fd5b810190602081018135600160201b81111561080f57600080fd5b82018360208201111561082157600080fd5b803590602001918460208302840111600160201b8311171561084257600080fd5b919080806020026020016040519081016040528093929190818152602001838360200280828437600092019190915250929550505090356001600160a01b03169150611e639050565b61027e600480360360608110156108a157600080fd5b506001600160a01b0381358116916020810135909116906040013561187c565b6105ad611ebb565b61027e611ec4565b61045a611f22565b61027e600480360360408110156108ef57600080fd5b81359190810190604081016020820135600160201b81111561091057600080fd5b82018360208201111561092257600080fd5b803590602001918460018302840111600160201b8311171561094357600080fd5b91908080601f016020809104026020016040519081016040528093929190818152602001838380828437600092019190915250929550611f37945050505050565b60018054604080516020600284861615610100026000190190941693909304601f81018490048402820184019092528181529291830182828015610a095780601f106109de57610100808354040283529160200191610a09565b820191906000526020600020905b8154815290600101906020018083116109ec57829003601f168201915b505050505081565b8051610a249060009060208401906127dc565b5050565b336001600160a01b0383161415610a86576040805162461bcd60e51b815260206004820152601d60248201527f53656c662d617070726f76616c206973206e6f7420616c6c6f7765642e000000604482015290519081900360640190fd5b610a8e61285a565b6001600160a01b038086168252602080830186905233604080850191909152918516606080850182905260808501869052600091825260049092529190912054610100830152610adc611e19565b866001600160a01b03166306fdde036040518163ffffffff1660e01b815260040160006040518083038186803b158015610b1557600080fd5b505afa158015610b29573d6000803e3d6000fd5b505050506040513d6000823e601f3d908101601f191682016040526020811015610b5257600080fd5b8101908080516040519392919084600160201b821115610b7157600080fd5b908301906020820185811115610b8657600080fd5b8251600160201b811182820188101715610b9f57600080fd5b82525081516020918201929091019080838360005b83811015610bcc578181015183820152602001610bb4565b50505050905090810190601f168015610bf95780820380516001836020036101000a031916815260200191505b506040525050506040516020018083805190602001908083835b60208310610c325780518252601f199092019160209182019101610c13565b51815160209384036101000a600019018019909216911617905285519190930192850191508083835b60208310610c7a5780518252601f199092019160209182019101610c5b565b6001836020036101000a038019825116818451168082178552505050505050905001925050506040516020818303038152906040529050600360029054906101000a90046001600160a01b03166001600160a01b031663a12e93dd3360018785888861010001516040518763ffffffff1660e01b815260040180876001600160a01b03166001600160a01b0316815260200180602001866001600160a01b03166001600160a01b031681526020018060200180602001858152602001848103845289818154600181600116156101000203166002900481526020019150805460018160011615610100020316600290048015610db75780601f10610d8c57610100808354040283529160200191610db7565b820191906000526020600020905b815481529060010190602001808311610d9a57829003601f168201915b5050848103835287518152875160209182019189019080838360005b83811015610deb578181015183820152602001610dd3565b50505050905090810190601f168015610e185780820380516001836020036101000a031916815260200191505b50848103825286518152865160209182019188019080838360005b83811015610e4b578181015183820152602001610e33565b50505050905090810190601f168015610e785780820380516001836020036101000a031916815260200191505b509950505050505050505050602060405180830381600087803b158015610e9e57600080fd5b505af1158015610eb2573d6000803e3d6000fd5b505050506040513d6020811015610ec857600080fd5b505160a08301526001600160a01b0380851660009081526004602081815260408084208054600181810180845592875295849020895160099092020180549188166001600160a01b031992831617815589850151968101969096559188015160028601805491881691841691909117905560608801516003860180549190971692169190911790945560808601518051879493610f6a939085019201906127dc565b5060a0820151600582015560c082015160068201805460e085015160ff1990911692151592909217610100600160a81b0319166101006001600160a01b0390931683021790558201516007820155610120909101516008909101555060408051606081019091526032808252610fed913091899189916129196020830139612432565b505050505050565b60018054604080516020601f600260001961010087891615020190951694909404938401819004810282018101909252828152606093909290918301828280156110805780601f1061105557610100808354040283529160200191611080565b820191906000526020600020905b81548152906001019060200180831161106357829003601f168201915b505050505090505b90565b60028054604080516020601f60001961010060018716150201909416859004938401819004810282018101909252828152606093909290918301828280156110805780601f1061105557610100808354040283529160200191611080565b336001600160a01b0382161415611147576040805162461bcd60e51b815260206004820152601d60248201527f53656c662d617070726f76616c206973206e6f7420616c6c6f7765642e000000604482015290519081900360640190fd5b61114f61285a565b6001600160a01b0380851682526020808301859052336040808501919091529184166060808501829052600091825260049092529190912054610100830152611196611e19565b856001600160a01b03166306fdde036040518163ffffffff1660e01b815260040160006040518083038186803b1580156111cf57600080fd5b505afa1580156111e3573d6000803e3d6000fd5b505050506040513d6000823e601f3d908101601f19168201604052602081101561120c57600080fd5b8101908080516040519392919084600160201b82111561122b57600080fd5b90830190602082018581111561124057600080fd5b8251600160201b81118282018810171561125957600080fd5b82525081516020918201929091019080838360005b8381101561128657818101518382015260200161126e565b50505050905090810190601f1680156112b35780820380516001836020036101000a031916815260200191505b506040525050506040516020018083805190602001908083835b602083106112ec5780518252601f1990920191602091820191016112cd565b51815160209384036101000a600019018019909216911617905285519190930192850191508083835b602083106113345780518252601f199092019160209182019101611315565b6001836020036101000a038019825116818451168082178552505050505050905001925050506040516020818303038152906040529050600360029054906101000a90046001600160a01b03166001600160a01b031663a12e93dd33600086858761010001516040518663ffffffff1660e01b815260040180866001600160a01b03166001600160a01b0316815260200180602001856001600160a01b03166001600160a01b0316815260200180602001806020018581526020018481038452888181546001816001161561010002031660029004815260200191508054600181600116156101000203166002900480156114705780601f1061144557610100808354040283529160200191611470565b820191906000526020600020905b81548152906001019060200180831161145357829003601f168201915b5050848103835286518152865160209182019188019080838360005b838110156114a457818101518382015260200161148c565b50505050905090810190601f1680156114d15780820380516001836020036101000a031916815260200191505b5084810382526000815260200160200198505050505050505050602060405180830381600087803b15801561150557600080fd5b505af1158015611519573d6000803e3d6000fd5b505050506040513d602081101561152f57600080fd5b505160a08301526001600160a01b0380841660009081526004602081815260408084208054600181810180845592875295849020895160099092020180549188166001600160a01b0319928316178155898501519681019690965591880151600286018054918816918416919091179055606088015160038601805491909716921691909117909455608086015180518794936115d1939085019201906127dc565b5060a0820151600582015560c082015160068201805460e085015160ff1990911692151592909217610100600160a81b0319166101006001600160a01b0390931683021790558201516007820155610120909101516008909101555060408051606081019091526032808252611654913091889188916129196020830139612432565b5050505050565b61166361285a565b33600090815260046020526040902080548490811061167e57fe5b6000918252602091829020604080516101408101825260099390930290910180546001600160a01b039081168452600180830154858701526002808401548316868601526003840154909216606086015260048301805485516101009382161593909302600019011692909204601f8101879004870282018701909452838152939491936080860193909283018282801561175a5780601f1061172f5761010080835404028352916020019161175a565b820191906000526020600020905b81548152906001019060200180831161173d57829003601f168201915b505050918352505060058201546020820152600682015460ff8116151560408301526001600160a01b0361010090910481166060808401919091526007840154608084015260089093015460a090920191909152908201519192501633146117f35760405162461bcd60e51b815260040180806020018281038252604481526020018061297f6044913960600191505060405180910390fd5b60035460a0820151604080516392825c7960e01b8152336004820152602481019290925251620100009092046001600160a01b0316916392825c799160448082019260009290919082900301818387803b15801561185057600080fd5b505af1158015611864573d6000803e3d6000fd5b5050505061187c3082600001518360200151856125e6565b505050565b6000816001600160a01b0316639c6790176040518163ffffffff1660e01b815260040160206040518083038186803b1580156118bc57600080fd5b505afa1580156118d0573d6000803e3d6000fd5b505050506040513d60208110156118e657600080fd5b505192915050565b6004602052816000526040600020818154811061190757fe5b600091825260209182902060099190910201805460018083015460028085015460038601546004870180546040805161010098831615989098026000190190911694909404601f81018a90048a0287018a019094528386526001600160a01b039687169a5093985090851696941694938301828280156119c85780601f1061199d576101008083540402835291602001916119c8565b820191906000526020600020905b8154815290600101906020018083116119ab57829003601f168201915b505050506005830154600684015460078501546008909501549394919360ff821693506101009091046001600160a01b031691908a565b600354610100900460ff1681565b606080606080600060016002611a21611d54565b8354604080516020601f60026000196101006001881615020190951694909404938401819004810282018101909252828152918691830182828015611aa75780601f10611a7c57610100808354040283529160200191611aa7565b820191906000526020600020905b815481529060010190602001808311611a8a57829003601f168201915b5050865460408051602060026001851615610100026000190190941693909304601f810184900484028201840190925281815295995088945092508401905082828015611b355780601f10611b0a57610100808354040283529160200191611b35565b820191906000526020600020905b815481529060010190602001808311611b1857829003601f168201915b5050855460408051602060026001851615610100026000190190941693909304601f810184900484028201840190925281815295985087945092508401905082828015611bc35780601f10611b9857610100808354040283529160200191611bc3565b820191906000526020600020905b815481529060010190602001808311611ba657829003601f168201915b50505050509150935093509350935090919293565b604080518082018252601081526f181899199a1a9b1b9c1cb0b131b232b360811b60208201528151602a80825260608281019094526001600160a01b03851692918491602082018180388339019050509050600360fc1b81600081518110611c3c57fe5b60200101906001600160f81b031916908160001a905350600f60fb1b81600181518110611c6557fe5b60200101906001600160f81b031916908160001a90535060005b6014811015611d4b578260048583600c0160208110611c9a57fe5b1a60f81b6001600160f81b031916901c60f81c60ff1681518110611cba57fe5b602001015160f81c60f81b828260020260020181518110611cd757fe5b60200101906001600160f81b031916908160001a905350828482600c0160208110611cfe57fe5b825191901a600f16908110611d0f57fe5b602001015160f81c60f81b828260020260030181518110611d2c57fe5b60200101906001600160f81b031916908160001a905350600101611c7f565b50949350505050565b60408051602081019091526000815290565b6002805460408051602060018416156101000260001901909316849004601f81018490048402820184019092528181529291830182828015610a095780601f106109de57610100808354040283529160200191610a09565b6000805460408051602060026001851615610100026000190190941693909304601f81018490048402820184019092528181529291830182828015610a095780601f106109de57610100808354040283529160200191610a09565b60606040518060800160405280605181526020016128c860519139905090565b600380546001600160a01b03909216620100000262010000600160b01b0319909216919091179055565b6000805b8351811015611eaf57826001600160a01b0316848281518110611e8657fe5b60200260200101516001600160a01b03161415611ea7576001915050611eb5565b600101611e67565b50600090505b92915050565b60035460ff1681565b6040518060600160405280602d81526020016129c3602d91398051611ef1916001916020909101906127dc565b5060405180606001604052806034815260200161294b603491398051611f1f916002916020909101906127dc565b50565b6003546201000090046001600160a01b031681565b611f3f61285a565b336000908152600460205260409020805484908110611f5a57fe5b6000918252602091829020604080516101408101825260099390930290910180546001600160a01b039081168452600180830154858701526002808401548316868601526003840154909216606086015260048301805485516101009382161593909302600019011692909204601f810187900487028201870190945283815293949193608086019390928301828280156120365780601f1061200b57610100808354040283529160200191612036565b820191906000526020600020905b81548152906001019060200180831161201957829003601f168201915b505050918352505060058201546020820152600682015460ff8116151560408301526001600160a01b0361010090910481166060808401919091526007840154608084015260089093015460a090920191909152908201519192501633146120cf5760405162461bcd60e51b815260040180806020018281038252604481526020018061297f6044913960600191505060405180910390fd5b60035460a0820151604080516392825c7960e01b8152336004820152602481019290925251620100009092046001600160a01b0316916392825c799160448082019260009290919082900301818387803b15801561212c57600080fd5b505af1158015612140573d6000803e3d6000fd5b5050505060606121538260600151611bd8565b82600001516001600160a01b03166306fdde036040518163ffffffff1660e01b815260040160006040518083038186803b15801561219057600080fd5b505afa1580156121a4573d6000803e3d6000fd5b505050506040513d6000823e601f3d908101601f1916820160405260208110156121cd57600080fd5b8101908080516040519392919084600160201b8211156121ec57600080fd5b90830190602082018581111561220157600080fd5b8251600160201b81118282018810171561221a57600080fd5b82525081516020918201929091019080838360005b8381101561224757818101518382015260200161222f565b50505050905090810190601f1680156122745780820380516001836020036101000a031916815260200191505b5060405250505060405160200180806402ab9b2b9160dd1b81525060050183805190602001908083835b602083106122bd5780518252601f19909201916020918201910161229e565b6001836020036101000a038019825116818451168082178552505050505050905001806129f06028913960280182805190602001908083835b602083106123155780518252601f1990920191602091820191016122f6565b6001836020036101000a0380198251168184511680821785525050505050509050019250505060405160208183030381529060405290506000835111156124185780836040516020018083805190602001908083835b6020831061238a5780518252601f19909201916020918201910161236b565b51815160209384036101000a60001901801990921691161790526101d160f51b919093019081528451600290910192850191508083835b602083106123e05780518252601f1990920191602091820191016123c1565b6001836020036101000a0380198251168184511680821785525050505050509050019250505060405160208183030381529060405290505b61242c30836000015184602001518461266c565b50505050565b6040805162379c0960e91b81523060048201526024810184905290516001600160a01b03851691636f3812009160448083019260209291908290030181600087803b15801561248057600080fd5b505af1158015612494573d6000803e3d6000fd5b505050506040513d60208110156124aa57600080fd5b5051156124fe576040805162461bcd60e51b815260206004820152601f60248201527f546869732070726f6f6620697320616c7265616479207375626d697474656400604482015290519081900360640190fd5b826001600160a01b03166359af61528584846040518463ffffffff1660e01b815260040180846001600160a01b03166001600160a01b0316815260200183815260200180602001828103825283818151815260200191508051906020019080838360005b8381101561257a578181015183820152602001612562565b50505050905090810190601f1680156125a75780820380516001836020036101000a031916815260200191505b50945050505050600060405180830381600087803b1580156125c857600080fd5b505af11580156125dc573d6000803e3d6000fd5b5050505050505050565b6125f083836126f2565b50826001600160a01b031663bdc656e98584846040518463ffffffff1660e01b815260040180846001600160a01b03166001600160a01b0316815260200183815260200180602001828103825283818151815260200191508051906020019080838360008381101561257a578181015183820152602001612562565b61267683836126f2565b50826001600160a01b0316637c41e5d88584846040518463ffffffff1660e01b815260040180846001600160a01b03166001600160a01b0316815260200183815260200180602001828103825283818151815260200191508051906020019080838360008381101561257a578181015183820152602001612562565b6040805162379c0960e91b815230600482015260248101839052905160009182916001600160a01b03861691636f38120091604480830192602092919082900301818787803b15801561274457600080fd5b505af1158015612758573d6000803e3d6000fd5b505050506040513d602081101561276e57600080fd5b5051905060028114801590612784575080600314155b6127d5576040805162461bcd60e51b815260206004820181905260248201527f5468697320766572696669657220697320616c72656164792064656369646564604482015290519081900360640190fd5b5092915050565b828054600181600116156101000203166002900490600052602060002090601f016020900481019282601f1061281d57805160ff191683800117855561284a565b8280016001018555821561284a579182015b8281111561284a57825182559160200191906001019061282f565b506128569291506128ad565b5090565b60408051610140810182526000808252602082018190529181018290526060808201839052608082015260a0810182905260c0810182905260e08101829052610100810182905261012081019190915290565b61108891905b8082111561285657600081556001016128b356fe506c6561736520636865636b2074686973207069637475726520766572696669657220616e6420617070726f76652074686520636f727265637420616d6f756e74206f66207468697320746f6b656e3a20596f757220617070726f76657220686173206265656e206e6f7469666965642061626f75742074686520726571756573742e73632e76657269666965722e706963747572652d73656c662d63686f73656e2d617070726f7665722e6465736372697074696f6e546869732061646472657373206973206e6f74207265676973746572656420617320617070726f76657220666f7220746869732070656e64696e6720617070726f76616c73632e76657269666965722e706963747572652d73656c662d63686f73656e2d617070726f7665722e6e616d65206861732072656a656374656420796f757220617070726f76616c207265717565737420666f7220a265627a7a72315820dc5894a1cbe841f68aa9491317f9313f98ee5fbebd13fbdd9d39ff50f371ec4964736f6c6343000511003273632e76657269666965722e706963747572652d73656c662d63686f73656e2d617070726f7665722e6465736372697074696f6e73632e76657269666965722e706963747572652d73656c662d63686f73656e2d617070726f7665722e6e616d65",
  "source": "pragma solidity ^0.5.17;\n\nimport \"contracts/verifiers/onchain/social/SpecificAddress.sol\";\n\ncontract PictureSelfChosenApprover is SpecificAddress {\n\n    constructor() public  {}\n\n    // @Override\n    function init() public {\n        name = \"sc.verifier.picture-self-chosen-approver.name\";\n        description = \"sc.verifier.picture-self-chosen-approver.description\";\n    }\n\n    function submitProof_PictureSelfChosenApprover(address tokenAddrToReceiveVerifierNotice, uint claimId, address approver, string memory IPFShash) public {\n        require(msg.sender != approver, \"Self-approval is not allowed.\");\n        // TODO minimize duplicate code by reusing super method\n        PendingApproval memory pa;\n        pa.tokenAddrToReceiveVerifierNotice = tokenAddrToReceiveVerifierNotice;\n        pa.claimIdOnTokenToReceiveVerifierDecision = claimId;\n        pa.requester = msg.sender;\n        pa.approver = approver;\n        pa.attachment = IPFShash;\n        pa.pendingApprovalId = pendingApprovals[approver].length;\n        string memory message = string(abi.encodePacked(getMessageText(),\n            Fin4TokenBase(tokenAddrToReceiveVerifierNotice).name()));\n        pa.messageId = Fin4Messaging(Fin4MessagingAddress).addPendingRequestMessage(\n            msg.sender, name, approver, message, IPFShash, pa.pendingApprovalId);\n        pendingApprovals[approver].push(pa);\n        _sendPendingNotice(address(this), tokenAddrToReceiveVerifierNotice, claimId, \"Your approver has been notified about the request.\");\n    }\n\n    // @Override\n    function getMessageText() public pure returns(string memory) {\n        // TODO include the quantity into the message\n        return \"Please check this picture verifier and approve the correct amount of this token: \";\n    }\n\n}\n",
  "sourcePath": "/home/cantonioupao/susDAO-saveMe/FIN4Contracts/contracts/verifiers/onchain/social/PictureSelfChosenApprover.sol",
  "compiler": {
    "name": "solc",
    "version": "0.5.17+commit.d19bba13.Emscripten.clang"
  },
  "schemaVersion": "3.3.1",
  "updatedAt": "2020-12-03T18:27:59.032Z",
  "devdoc": {
    "methods": {}
  },
  "userdoc": {
    "methods": {}
  }
}