{
  "contractName": "PLCRFactory",
  "abi": [
    {
      "inputs": [],
      "payable": false,
      "stateMutability": "nonpayable",
      "type": "constructor"
    },
    {
      "anonymous": false,
      "inputs": [
        {
          "indexed": false,
          "internalType": "address",
          "name": "creator",
          "type": "address"
        },
        {
          "indexed": false,
          "internalType": "contract GOV",
          "name": "token",
          "type": "address"
        },
        {
          "indexed": false,
          "internalType": "contract PLCRVoting",
          "name": "plcr",
          "type": "address"
        }
      ],
      "name": "newPLCR",
      "type": "event"
    },
    {
      "constant": true,
      "inputs": [],
      "name": "canonizedPLCR",
      "outputs": [
        {
          "internalType": "contract PLCRVoting",
          "name": "",
          "type": "address"
        }
      ],
      "payable": false,
      "stateMutability": "view",
      "type": "function"
    },
    {
      "constant": true,
      "inputs": [],
      "name": "proxyFactory",
      "outputs": [
        {
          "internalType": "contract ProxyFactory",
          "name": "",
          "type": "address"
        }
      ],
      "payable": false,
      "stateMutability": "view",
      "type": "function"
    },
    {
      "constant": false,
      "inputs": [
        {
          "internalType": "contract GOV",
          "name": "_token",
          "type": "address"
        }
      ],
      "name": "newPLCRBYOToken",
      "outputs": [
        {
          "internalType": "contract PLCRVoting",
          "name": "",
          "type": "address"
        }
      ],
      "payable": false,
      "stateMutability": "nonpayable",
      "type": "function"
    },
    {
      "constant": false,
      "inputs": [
        {
          "internalType": "uint256",
          "name": "_supply",
          "type": "uint256"
        },
        {
          "internalType": "string",
          "name": "_name",
          "type": "string"
        },
        {
          "internalType": "uint8",
          "name": "_decimals",
          "type": "uint8"
        },
        {
          "internalType": "string",
          "name": "_symbol",
          "type": "string"
        }
      ],
      "name": "newPLCRWithToken",
      "outputs": [
        {
          "internalType": "contract PLCRVoting",
          "name": "",
          "type": "address"
        }
      ],
      "payable": false,
      "stateMutability": "nonpayable",
      "type": "function"
    }
  ],
  "bytecode": "0x608060405234801561001057600080fd5b5060405161001d906100a8565b604051809103906000f080158015610039573d6000803e3d6000fd5b50600180546001600160a01b0319166001600160a01b0392909216919091179055604051610066906100b5565b604051809103906000f080158015610082573d6000803e3d6000fd5b50600080546001600160a01b0319166001600160a01b03929092169190911790556100c2565b6123e9806130a383390190565b6103fa8061548c83390190565b612fd2806100d16000396000f3fe60806040523480156200001157600080fd5b5060043610620000525760003560e01c80635ad22eb31462000057578063bf6c4de9146200007d578063c10f1a7514620001c5578063d5b8169c14620001cf575b600080fd5b62000061620001f8565b604080516001600160a01b039092168252519081900360200190f35b62000061600480360360808110156200009557600080fd5b81359190810190604081016020820135640100000000811115620000b857600080fd5b820183602082011115620000cb57600080fd5b80359060200191846001830284011164010000000083111715620000ee57600080fd5b91908080601f016020809104026020016040519081016040528093929190818152602001838380828437600092019190915250929560ff8535169590949093506040810192506020013590506401000000008111156200014d57600080fd5b8201836020820111156200016057600080fd5b803590602001918460018302840111640100000000831117156200018357600080fd5b91908080601f01602080910402602001604051908101604052809392919081815260200183838082843760009201919091525092955062000207945050505050565b6200006162000522565b6200006160048036036020811015620001e757600080fd5b50356001600160a01b031662000531565b6001546001600160a01b031681565b600080848385600060018060008c60405162000223906200067b565b60ff871660408201526001600160a01b0386166060820152841515608082015283151560a082015282151560c082015260e08101829052610100808252895190820152885181906020808301916101208401918d019080838360005b83811015620002995781810151838201526020016200027f565b50505050905090810190601f168015620002c75780820380516001836020036101000a031916815260200191505b5083810382528a5181528a516020918201918c019080838360005b83811015620002fc578181015183820152602001620002e2565b50505050905090810190601f1680156200032a5780820380516001836020036101000a031916815260200191505b509a5050505050505050505050604051809103906000f08015801562000354573d6000803e3d6000fd5b506040805163a9059cbb60e01b81523360048201526024810189905290519192506001600160a01b0383169163a9059cbb916044808201926020929091908290030181600087803b158015620003a957600080fd5b505af1158015620003be573d6000803e3d6000fd5b505050506040513d6020811015620003d557600080fd5b505060008054600154604080516361b69abd60e01b81526001600160a01b0392831660048201526024810182905260448101859052905191909216916361b69abd91608480830192602092919082900301818787803b1580156200043857600080fd5b505af11580156200044d573d6000803e3d6000fd5b505050506040513d60208110156200046457600080fd5b50516040805163066ad14f60e21b81526001600160a01b0385811660048301529151929350908316916319ab453c9160248082019260009290919082900301818387803b158015620004b557600080fd5b505af1158015620004ca573d6000803e3d6000fd5b5050604080513381526001600160a01b03808716602083015285168183015290517f8e8268f738322382d18bd4348386011274749c84683d2f667c7a21982a7d44609350908190036060019150a19695505050505050565b6000546001600160a01b031681565b60008054600154604080516361b69abd60e01b81526001600160a01b03928316600482015260248101829052604481018590529051849392909216916361b69abd9160848082019260209290919082900301818787803b1580156200059557600080fd5b505af1158015620005aa573d6000803e3d6000fd5b505050506040513d6020811015620005c157600080fd5b50516040805163066ad14f60e21b81526001600160a01b0386811660048301529151929350908316916319ab453c9160248082019260009290919082900301818387803b1580156200061257600080fd5b505af115801562000627573d6000803e3d6000fd5b5050604080513381526001600160a01b03808816602083015285168183015290517f8e8268f738322382d18bd4348386011274749c84683d2f667c7a21982a7d44609350908190036060019150a192915050565b612914806200068a8339019056fe60806040526008805460ff60201b19166401000000001790553480156200002557600080fd5b50604051620029143803806200291483398181016040526101008110156200004c57600080fd5b81019080805160405193929190846401000000008211156200006d57600080fd5b9083019060208201858111156200008357600080fd5b82516401000000008111828201881017156200009e57600080fd5b82525081516020918201929091019080838360005b83811015620000cd578181015183820152602001620000b3565b50505050905090810190601f168015620000fb5780820380516001836020036101000a031916815260200191505b50604052602001805160405193929190846401000000008211156200011f57600080fd5b9083019060208201858111156200013557600080fd5b82516401000000008111828201881017156200015057600080fd5b82525081516020918201929091019080838360005b838110156200017f57818101518382015260200162000165565b50505050905090810190601f168015620001ad5780820380516001836020036101000a031916815260200191505b506040908152602082810151918301516060840151608085015160a086015160c0909601518a51959850929650909490939092899189918991899189918991899189916000918a918a918a9162000209918691860190620007e6565b5081516200021f906001906020850190620007e6565b506002805460ff191660ff9290921691909117905550620002549050620002456200034e565b6001600160e01b036200035316565b6200027a6200026b6001600160e01b036200034e16565b6001600160e01b03620003a516565b6008805461ffff1916610100871515021762ff0000191662010000861515021763ff000000191663010000008515150217905583620002c657620002c66001600160e01b03620003f716565b6001600160a01b03861615620002ea57620002ea866001600160e01b036200035316565b6001600160a01b03811662000314576200030e33836001600160e01b036200045916565b62000329565b6200032981836001600160e01b036200045916565b50506008805460ff60201b1916905550620008889d5050505050505050505050505050565b335b90565b6200036e8160066200055e60201b62001be31790919060201c565b6040516001600160a01b038216907f6ae172837ea30b801fbfcdd4108aa1d5bf8ff775444fd70256b44e6bf3dfc3f690600090a250565b620003c08160076200055e60201b62001be31790919060201c565b6040516001600160a01b038216907f6719d08c1888103bea251a4ed56406bd0c3e69723c8a1686e017e7bbe159b6f890600090a250565b600854640100000000900460ff16620004425760405162461bcd60e51b8152600401808060200182810382526029815260200180620028eb6029913960400191505060405180910390fd5b62000457620005eb60201b6200149b1760201c565b565b6001600160a01b038216620004b5576040805162461bcd60e51b815260206004820152601f60248201527f45524332303a206d696e7420746f20746865207a65726f206164647265737300604482015290519081900360640190fd5b620004d181600554620006f860201b6200176c1790919060201c565b6005556001600160a01b038216600090815260036020908152604090912054620005069183906200176c620006f8821b17901c565b6001600160a01b03831660008181526003602090815260408083209490945583518581529351929391927fddf252ad1be2c89b69c2b068fc378daa952ba7f163c4a11628f55a4df523b3ef9281900390910190a35050565b6200057382826001600160e01b036200075a16565b15620005c6576040805162461bcd60e51b815260206004820152601f60248201527f526f6c65733a206163636f756e7420616c72656164792068617320726f6c6500604482015290519081900360640190fd5b6001600160a01b0316600090815260209190915260409020805460ff19166001179055565b62000611620006026001600160e01b036200034e16565b6001600160e01b03620007c316565b6200064e5760405162461bcd60e51b8152600401808060200182810382526030815260200180620028996030913960400191505060405180910390fd5b60085460ff16156200069a576040805162461bcd60e51b815260206004820152601060248201526f14185d5cd8589b194e881c185d5cd95960821b604482015290519081900360640190fd5b6008805460ff191660011790557f62e78cea01bee320cd4e420270b5ea74000d11b0c9f74754ebdbfc544b05a258620006db6001600160e01b036200034e16565b604080516001600160a01b039092168252519081900360200190a1565b60008282018381101562000753576040805162461bcd60e51b815260206004820152601b60248201527f536166654d6174683a206164646974696f6e206f766572666c6f770000000000604482015290519081900360640190fd5b9392505050565b60006001600160a01b038216620007a35760405162461bcd60e51b8152600401808060200182810382526022815260200180620028c96022913960400191505060405180910390fd5b506001600160a01b03166000908152602091909152604090205460ff1690565b6000620007e08260076200075a60201b620013961790919060201c565b92915050565b828054600181600116156101000203166002900490600052602060002090601f016020900481019282601f106200082957805160ff191683800117855562000859565b8280016001018555821562000859579182015b82811115620008595782518255916020019190600101906200083c565b50620008679291506200086b565b5090565b6200035091905b8082111562000867576000815560010162000872565b61200180620008986000396000f3fe608060405234801561001057600080fd5b50600436106102065760003560e01c806370a082311161011a57806398650275116100ad578063aa271e1a1161007c578063aa271e1a146105c7578063dd62ed3e146105ed578063e1e3f9151461061b578063e9bb94a214610623578063fce1ccca1461064f57610206565b8063986502751461055f5780639e5adbcc14610567578063a457c2d71461056f578063a9059cbb1461059b57610206565b80638456cb59116100e95780638456cb5914610521578063883356d91461052957806395d89b4114610531578063983b2d561461053957610206565b806370a082311461048557806379cc6790146104ab5780637b103999146104d757806382dc1ec4146104fb57610206565b8063313ce5671161019d57806342966c681161016c57806342966c681461042a57806346b45af71461044757806346fbf68e1461044f5780635c975abb146104755780636ef8d66d1461047d57610206565b8063313ce567146103ac57806339509351146103ca5780633f4ba83a146103f657806340c10f19146103fe57610206565b806318160ddd116101d957806318160ddd1461032c578063184b9559146103345780632121dc751461036e57806323b872dd1461037657610206565b8063026e402b1461020b57806303ad29f71461024b57806306fdde0314610283578063095ea7b314610300575b600080fd5b6102376004803603604081101561022157600080fd5b506001600160a01b038135169060200135610657565b604080519115158252519081900360200190f35b6102716004803603602081101561026157600080fd5b50356001600160a01b031661076a565b60408051918252519081900360200190f35b61028b610785565b6040805160208082528351818301528351919283929083019185019080838360005b838110156102c55781810151838201526020016102ad565b50505050905090810190601f1680156102f25780820380516001836020036101000a031916815260200191505b509250505060405180910390f35b6102376004803603604081101561031657600080fd5b506001600160a01b03813516906020013561081b565b61027161087a565b61036c6004803603606081101561034a57600080fd5b506001600160a01b038135811691602081013582169160409091013516610880565b005b610237610931565b6102376004803603606081101561038c57600080fd5b506001600160a01b03813581169160208101359091169060400135610940565b6103b4610a79565b6040805160ff9092168252519081900360200190f35b610237600480360360408110156103e057600080fd5b506001600160a01b038135169060200135610a82565b61036c610ada565b6102376004803603604081101561041457600080fd5b506001600160a01b038135169060200135610b25565b61036c6004803603602081101561044057600080fd5b5035610b84565b610237610be0565b6102376004803603602081101561046557600080fd5b50356001600160a01b0316610bf0565b610237610c09565b61036c610c12565b6102716004803603602081101561049b57600080fd5b50356001600160a01b0316610c22565b61036c600480360360408110156104c157600080fd5b506001600160a01b038135169060200135610c3d565b6104df610c9b565b604080516001600160a01b039092168252519081900360200190f35b61036c6004803603602081101561051157600080fd5b50356001600160a01b0316610caa565b61036c610cfe565b610237610d4f565b61028b610d5d565b61036c6004803603602081101561054f57600080fd5b50356001600160a01b0316610dbd565b61036c610e11565b610271610e21565b6102376004803603604081101561058557600080fd5b506001600160a01b038135169060200135610e34565b610237600480360360408110156105b157600080fd5b506001600160a01b038135169060200135610e8c565b610237600480360360208110156105dd57600080fd5b50356001600160a01b0316610fb3565b6102716004803603604081101561060357600080fd5b506001600160a01b0381358116916020013516610fc6565b6104df610ff1565b6102376004803603604081101561063957600080fd5b506001600160a01b038135169060200135611000565b6104df611100565b6000336001600160a01b03841614156106b7576040805162461bcd60e51b815260206004820152601f60248201527f596f752063616e6e6f742064656c656761746520746f20796f757273656c6600604482015290519081900360640190fd5b336000818152600b602052604090205483916106d290610c22565b0310156107105760405162461bcd60e51b8152600401808060200182810382526032815260200180611def6032913960400191505060405180910390fd5b3360008181526009602090815260408083206001600160a01b03881684528252808320805487019055600b8252808320805487019055838352600a909152902080548401905561076190848461110f565b50600192915050565b6001600160a01b03166000908152600a602052604090205490565b60008054604080516020601f60026000196101006001881615020190951694909404938401819004810282018101909252828152606093909290918301828280156108115780601f106107e657610100808354040283529160200191610811565b820191906000526020600020905b8154815290600101906020018083116107f457829003601f168201915b5050505050905090565b60085460009060ff1615610869576040805162461bcd60e51b815260206004820152601060248201526f14185d5cd8589b194e881c185d5cd95960821b604482015290519081900360640190fd5b610873838361126d565b9392505050565b60055490565b6001600160a01b038316158015906108a15750600e546001600160a01b0316155b6108f2576040805162461bcd60e51b815260206004820152601c60248201527f436f6e747261637420616c726561647920696e697469616c697a656400000000604482015290519081900360640190fd5b600e80546001600160a01b039485166001600160a01b031991821617909155600d805493851693821693909317909255600c8054919093169116179055565b60085462010000900460ff1681565b60008161094c85610c22565b101561099f576040805162461bcd60e51b815260206004820181905260248201527f7472616e7366657246726f6d3a204e6f7420656e6f7567682062616c616e6365604482015290519081900360640190fd5b600c546001600160a01b038581169116148015906109cb5750600d546001600160a01b03858116911614155b80156109e55750600e546001600160a01b03858116911614155b15610a6657600c546001600160a01b0384811691161480610a135750600d546001600160a01b038481169116145b80610a2b5750600e546001600160a01b038481169116145b610a665760405162461bcd60e51b8152600401808060200182810382526056815260200180611d526056913960600191505060405180910390fd5b610a71848484611281565b949350505050565b60025460ff1690565b60085460009060ff1615610ad0576040805162461bcd60e51b815260206004820152601060248201526f14185d5cd8589b194e881c185d5cd95960821b604482015290519081900360640190fd5b61087383836112da565b600854640100000000900460ff16610b235760405162461bcd60e51b8152600401808060200182810382526029815260200180611f7f6029913960400191505060405180910390fd5b565b6008546000906301000000900460ff16610b7a576040805162461bcd60e51b8152602060048201526011602482015270436f696e206e6f74206d696e7461626c6560781b604482015290519081900360640190fd5b6108738383611333565b600854610100900460ff16610bd4576040805162461bcd60e51b8152602060048201526011602482015270436f696e206e6f74206275726e61626c6560781b604482015290519081900360640190fd5b610bdd81611385565b50565b6008546301000000900460ff1681565b6000610c0360078363ffffffff61139616565b92915050565b60085460ff1690565b610b23610c1d6113fd565b611401565b6001600160a01b031660009081526003602052604090205490565b600854610100900460ff16610c8d576040805162461bcd60e51b8152602060048201526011602482015270436f696e206e6f74206275726e61626c6560781b604482015290519081900360640190fd5b610c978282611449565b5050565b600e546001600160a01b031681565b610cba610cb56113fd565b610bf0565b610cf55760405162461bcd60e51b8152600401808060200182810382526030815260200180611d006030913960400191505060405180910390fd5b610bdd81611453565b600854640100000000900460ff16610d475760405162461bcd60e51b8152600401808060200182810382526029815260200180611f7f6029913960400191505060405180910390fd5b610b2361149b565b600854610100900460ff1681565b60018054604080516020601f600260001961010087891615020190951694909404938401819004810282018101909252828152606093909290918301828280156108115780601f106107e657610100808354040283529160200191610811565b610dcd610dc86113fd565b610fb3565b610e085760405162461bcd60e51b8152600401808060200182810382526030815260200180611e216030913960400191505060405180910390fd5b610bdd8161157f565b610b23610e1c6113fd565b6115c7565b336000908152600b602052604090205490565b60085460009060ff1615610e82576040805162461bcd60e51b815260206004820152601060248201526f14185d5cd8589b194e881c185d5cd95960821b604482015290519081900360640190fd5b610873838361160f565b600081610e9833610c22565b1015610eeb576040805162461bcd60e51b815260206004820152601c60248201527f7472616e736665723a204e6f7420656e6f7567682062616c616e636500000000604482015290519081900360640190fd5b600c546001600160a01b03163314801590610f115750600d546001600160a01b03163314155b8015610f285750600e546001600160a01b03163314155b15610fa957600c546001600160a01b0384811691161480610f565750600d546001600160a01b038481169116145b80610f6e5750600e546001600160a01b038481169116145b610fa95760405162461bcd60e51b8152600401808060200182810382526056815260200180611d526056913960600191505060405180910390fd5b610873838361167d565b6000610c0360068363ffffffff61139616565b6001600160a01b03918216600090815260046020908152604080832093909416825291909152205490565b600d546001600160a01b031681565b60008161100c84610c22565b10156110495760405162461bcd60e51b8152600401808060200182810382526021815260200180611dce6021913960400191505060405180910390fd5b3360009081526009602090815260408083206001600160a01b03871684529091529020548211156110ab5760405162461bcd60e51b8152600401808060200182810382526035815260200180611e726035913960400191505060405180910390fd5b3360008181526009602090815260408083206001600160a01b0388168452825280832080548790039055600b825280832080548790039055838352600a9091529020805484900390556107619084908461110f565b600c546001600160a01b031681565b6001600160a01b0383166111545760405162461bcd60e51b8152600401808060200182810382526025815260200180611f366025913960400191505060405180910390fd5b6001600160a01b0382166111995760405162461bcd60e51b8152600401808060200182810382526023815260200180611cbb6023913960400191505060405180910390fd5b6111dc81604051806060016040528060268152602001611da8602691396001600160a01b038616600090815260036020526040902054919063ffffffff6116d516565b6001600160a01b038085166000908152600360205260408082209390935590841681522054611211908263ffffffff61176c16565b6001600160a01b0380841660008181526003602090815260409182902094909455805185815290519193928716927fddf252ad1be2c89b69c2b068fc378daa952ba7f163c4a11628f55a4df523b3ef92918290030190a3505050565b600061076161127a6113fd565b84846117c6565b60085460009060ff16156112cf576040805162461bcd60e51b815260206004820152601060248201526f14185d5cd8589b194e881c185d5cd95960821b604482015290519081900360640190fd5b610a718484846118b2565b60006107616112e76113fd565b8461132e85600460006112f86113fd565b6001600160a01b03908116825260208083019390935260409182016000908120918c16815292529020549063ffffffff61176c16565b6117c6565b6000611340610dc86113fd565b61137b5760405162461bcd60e51b8152600401808060200182810382526030815260200180611e216030913960400191505060405180910390fd5b610761838361193a565b610bdd6113906113fd565b82611a2c565b60006001600160a01b0382166113dd5760405162461bcd60e51b8152600401808060200182810382526022815260200180611ecf6022913960400191505060405180910390fd5b506001600160a01b03166000908152602091909152604090205460ff1690565b3390565b61141260078263ffffffff611b2816565b6040516001600160a01b038216907fcd265ebaf09df2871cc7bd4133404a235ba12eff2041bb89d9c714a2621c7c7e90600090a250565b610c978282611b8f565b61146460078263ffffffff611be316565b6040516001600160a01b038216907f6719d08c1888103bea251a4ed56406bd0c3e69723c8a1686e017e7bbe159b6f890600090a250565b6114a6610cb56113fd565b6114e15760405162461bcd60e51b8152600401808060200182810382526030815260200180611d006030913960400191505060405180910390fd5b60085460ff161561152c576040805162461bcd60e51b815260206004820152601060248201526f14185d5cd8589b194e881c185d5cd95960821b604482015290519081900360640190fd5b6008805460ff191660011790557f62e78cea01bee320cd4e420270b5ea74000d11b0c9f74754ebdbfc544b05a2586115626113fd565b604080516001600160a01b039092168252519081900360200190a1565b61159060068263ffffffff611be316565b6040516001600160a01b038216907f6ae172837ea30b801fbfcdd4108aa1d5bf8ff775444fd70256b44e6bf3dfc3f690600090a250565b6115d860068263ffffffff611b2816565b6040516001600160a01b038216907fe94479a9f7e1952cc78f2d6baab678adc1b772d936c6583def489e524cb6669290600090a250565b600061076161161c6113fd565b8461132e85604051806060016040528060258152602001611fa860259139600460006116466113fd565b6001600160a01b03908116825260208083019390935260409182016000908120918d1681529252902054919063ffffffff6116d516565b60085460009060ff16156116cb576040805162461bcd60e51b815260206004820152601060248201526f14185d5cd8589b194e881c185d5cd95960821b604482015290519081900360640190fd5b6108738383611c64565b600081848411156117645760405162461bcd60e51b81526004018080602001828103825283818151815260200191508051906020019080838360005b83811015611729578181015183820152602001611711565b50505050905090810190601f1680156117565780820380516001836020036101000a031916815260200191505b509250505060405180910390fd5b505050900390565b600082820183811015610873576040805162461bcd60e51b815260206004820152601b60248201527f536166654d6174683a206164646974696f6e206f766572666c6f770000000000604482015290519081900360640190fd5b6001600160a01b03831661180b5760405162461bcd60e51b8152600401808060200182810382526024815260200180611f5b6024913960400191505060405180910390fd5b6001600160a01b0382166118505760405162461bcd60e51b8152600401808060200182810382526022815260200180611d306022913960400191505060405180910390fd5b6001600160a01b03808416600081815260046020908152604080832094871680845294825291829020859055815185815291517f8c5be1e5ebec7d5bd14f71427d1e84f3dd0314c0f7b2291e5b200ac8c7c3b9259281900390910190a3505050565b60006118bf84848461110f565b611930846118cb6113fd565b61132e85604051806060016040528060288152602001611ea7602891396001600160a01b038a166000908152600460205260408120906119096113fd565b6001600160a01b03168152602081019190915260400160002054919063ffffffff6116d516565b5060019392505050565b6001600160a01b038216611995576040805162461bcd60e51b815260206004820152601f60248201527f45524332303a206d696e7420746f20746865207a65726f206164647265737300604482015290519081900360640190fd5b6005546119a8908263ffffffff61176c16565b6005556001600160a01b0382166000908152600360205260409020546119d4908263ffffffff61176c16565b6001600160a01b03831660008181526003602090815260408083209490945583518581529351929391927fddf252ad1be2c89b69c2b068fc378daa952ba7f163c4a11628f55a4df523b3ef9281900390910190a35050565b6001600160a01b038216611a715760405162461bcd60e51b8152600401808060200182810382526021815260200180611f156021913960400191505060405180910390fd5b611ab481604051806060016040528060228152602001611cde602291396001600160a01b038516600090815260036020526040902054919063ffffffff6116d516565b6001600160a01b038316600090815260036020526040902055600554611ae0908263ffffffff611c7816565b6005556040805182815290516000916001600160a01b038516917fddf252ad1be2c89b69c2b068fc378daa952ba7f163c4a11628f55a4df523b3ef9181900360200190a35050565b611b328282611396565b611b6d5760405162461bcd60e51b8152600401808060200182810382526021815260200180611e516021913960400191505060405180910390fd5b6001600160a01b0316600090815260209190915260409020805460ff19169055565b611b998282611a2c565b610c9782611ba56113fd565b61132e84604051806060016040528060248152602001611ef1602491396001600160a01b0388166000908152600460205260408120906119096113fd565b611bed8282611396565b15611c3f576040805162461bcd60e51b815260206004820152601f60248201527f526f6c65733a206163636f756e7420616c72656164792068617320726f6c6500604482015290519081900360640190fd5b6001600160a01b0316600090815260209190915260409020805460ff19166001179055565b6000610761611c716113fd565b848461110f565b600061087383836040518060400160405280601e81526020017f536166654d6174683a207375627472616374696f6e206f766572666c6f7700008152506116d556fe45524332303a207472616e7366657220746f20746865207a65726f206164647265737345524332303a206275726e20616d6f756e7420657863656564732062616c616e6365506175736572526f6c653a2063616c6c657220646f6573206e6f742068617665207468652050617573657220726f6c6545524332303a20617070726f766520746f20746865207a65726f2061646472657373596f7520646f206e6f74206861766520656e6f75676820546f6b656e732e20596f752063616e206f6e6c79207573652064656c65676174656420746f6b656e73206f6e20526567697374727920636f6e74726163747345524332303a207472616e7366657220616d6f756e7420657863656564732062616c616e63655468652062616c616e6365206f66207265636976657220697320746f6f206c6f77596f7520646f206e6f74206861766520656e6f75676820746f6b656e7320666f722074686973207472616e73616374696f6e4d696e746572526f6c653a2063616c6c657220646f6573206e6f74206861766520746865204d696e74657220726f6c65526f6c65733a206163636f756e7420646f6573206e6f74206861766520726f6c65596f7520646f206e6f7420686176652074686174206d7563682064656c65676174696f6e20666f722074686973206163636f756e7445524332303a207472616e7366657220616d6f756e74206578636565647320616c6c6f77616e6365526f6c65733a206163636f756e7420697320746865207a65726f206164647265737345524332303a206275726e20616d6f756e74206578636565647320616c6c6f77616e636545524332303a206275726e2066726f6d20746865207a65726f206164647265737345524332303a207472616e736665722066726f6d20746865207a65726f206164647265737345524332303a20617070726f76652066726f6d20746865207a65726f2061646472657373746869732066756e6374696f6e2063616e206f6e6c792062652072756e206f6e206372656174696f6e45524332303a2064656372656173656420616c6c6f77616e63652062656c6f77207a65726fa265627a7a72315820023e2245624f10da466a2f2e15f8ff15c04c4eea5ba3cda5b3576dde2c2cd03864736f6c63430005110032506175736572526f6c653a2063616c6c657220646f6573206e6f742068617665207468652050617573657220726f6c65526f6c65733a206163636f756e7420697320746865207a65726f2061646472657373746869732066756e6374696f6e2063616e206f6e6c792062652072756e206f6e206372656174696f6ea265627a7a72315820d6b0e65ff702573481d9d850b933ece158b4a7ae60f9e4706f92154e0e9d94be64736f6c63430005110032608060405234801561001057600080fd5b506123c9806100206000396000f3fe608060405234801561001057600080fd5b50600436106101f05760003560e01c8063819b02931161010f578063b11d8bb8116100a2578063d9548e5311610071578063d9548e53146108d8578063e7b1d43c146108f5578063ee68483014610912578063fc0c546a1461092f576101f0565b8063b11d8bb8146107b6578063bb11ed7e146107df578063d138209214610880578063d901402b146108ac576101f0565b8063a1103f37116100de578063a1103f3714610724578063a25236fe14610750578063a4439dc51461076d578063aa7ca4641461078a576101f0565b8063819b0293146106aa57806388d21ff3146106e257806397508f36146106ff5780639760356014610707576101f0565b8063427fa1d2116101875780636b2d95d4116101565780636b2d95d41461051b5780636cbf9c5e146105415780637f97e836146105705780638090f92e1461059c576101f0565b8063427fa1d21461045f578063441c77c01461048557806349403183146104b65780636148fed5146104d3576101f0565b80632c052031116101c35780632c0520311461028057806332ed3d60146102b25780633b930294146102db5780633ec36b9914610301576101f0565b8063053e71a6146101f55780630c03fbd71461022457806319ab453c146102505780632173a10f14610278575b600080fd5b6102126004803603602081101561020b57600080fd5b5035610953565b60408051918252519081900360200190f35b6102126004803603604081101561023a57600080fd5b506001600160a01b0381351690602001356109a6565b6102766004803603602081101561026657600080fd5b50356001600160a01b0316610a84565b005b610212610ad4565b6102126004803603606081101561029657600080fd5b506001600160a01b038135169060208101359060400135610ad9565b610212600480360360608110156102c857600080fd5b5080359060208101359060400135610c6e565b610212600480360360208110156102f157600080fd5b50356001600160a01b0316610d4b565b6102766004803603608081101561031757600080fd5b810190602081018135600160201b81111561033157600080fd5b82018360208201111561034357600080fd5b803590602001918460208302840111600160201b8311171561036457600080fd5b919390929091602081019035600160201b81111561038157600080fd5b82018360208201111561039357600080fd5b803590602001918460208302840111600160201b831117156103b457600080fd5b919390929091602081019035600160201b8111156103d157600080fd5b8201836020820111156103e357600080fd5b803590602001918460208302840111600160201b8311171561040457600080fd5b919390929091602081019035600160201b81111561042157600080fd5b82018360208201111561043357600080fd5b803590602001918460208302840111600160201b8311171561045457600080fd5b509092509050610d5d565b6102126004803603602081101561047557600080fd5b50356001600160a01b0316610df3565b6104a26004803603602081101561049b57600080fd5b5035610e94565b604080519115158252519081900360200190f35b6104a2600480360360208110156104cc57600080fd5b5035610edd565b6104f0600480360360208110156104e957600080fd5b5035610f58565b6040805195865260208601949094528484019290925260608401526080830152519081900360a00190f35b6102126004803603602081101561053157600080fd5b50356001600160a01b0316610f86565b6102766004803603608081101561055757600080fd5b5080359060208101359060408101359060600135610f9a565b6104a26004803603604081101561058657600080fd5b506001600160a01b0381351690602001356115a2565b610276600480360360608110156105b257600080fd5b810190602081018135600160201b8111156105cc57600080fd5b8201836020820111156105de57600080fd5b803590602001918460208302840111600160201b831117156105ff57600080fd5b919390929091602081019035600160201b81111561061c57600080fd5b82018360208201111561062e57600080fd5b803590602001918460208302840111600160201b8311171561064f57600080fd5b919390929091602081019035600160201b81111561066c57600080fd5b82018360208201111561067e57600080fd5b803590602001918460208302840111600160201b8311171561069f57600080fd5b50909250905061162d565b6104a2600480360360808110156106c057600080fd5b508035906020810135906001600160a01b0360408201351690606001356116a2565b6104a2600480360360208110156106f857600080fd5b50356116e3565b6102126116f8565b6102766004803603602081101561071d57600080fd5b50356116fe565b6102126004803603604081101561073a57600080fd5b506001600160a01b03813516906020013561186c565b6102766004803603602081101561076657600080fd5b50356118b0565b6104a26004803603602081101561078357600080fd5b5035611a87565b6104a2600480360360408110156107a057600080fd5b506001600160a01b038135169060200135611afb565b610276600480360360608110156107cc57600080fd5b5080359060208101359060400135611b3e565b610276600480360360208110156107f557600080fd5b810190602081018135600160201b81111561080f57600080fd5b82018360208201111561082157600080fd5b803590602001918460208302840111600160201b8311171561084257600080fd5b919080806020026020016040519081016040528093929190818152602001838360200280828437600092019190915250929550611e4c945050505050565b6102126004803603604081101561089657600080fd5b506001600160a01b038135169060200135611e80565b610212600480360360408110156108c257600080fd5b506001600160a01b038135169060200135611f3b565b6104a2600480360360208110156108ee57600080fd5b5035611fc4565b6102766004803603602081101561090b57600080fd5b5035611fc9565b6104a26004803603602081101561092857600080fd5b50356120da565b61093761210a565b604080516001600160a01b039092168252519081900360200190f35b600061095e826120da565b61096757600080fd5b61097082610edd565b1561098d57506000818152600160205260409020600301546109a1565b506000818152600160205260409020600401545b919050565b60006109b1826120da565b6109ba57600080fd5b60008281526001602090815260408083206001600160a01b038716845260060190915290205460ff166109ec57600080fd5b60006109f783610edd565b610a02576000610a05565b60015b60008481526001602090815260408083206001600160a01b038916845260070190915290205460ff919091169150808214610a715760405162461bcd60e51b81526004018080602001828103825260278152602001806123056027913960400191505060405180910390fd5b610a7b8585611e80565b95945050505050565b6001600160a01b03811615801590610aa557506005546001600160a01b0316155b610aae57600080fd5b600580546001600160a01b0319166001600160a01b039290921691909117905560008055565b600081565b600080610ae585610df3565b90506000610af38683611e80565b90505b8115610c6357610b068683611e80565b9050848111610bbf5783821415610bb7576001600160a01b038616600090815260036020908152604091829020825163187f050560e11b8152600481019190915260248101859052915173__DLL___________________________________926330fe0a0a926044808301939192829003018186803b158015610b8857600080fd5b505af4158015610b9c573d6000803e3d6000fd5b505050506040513d6020811015610bb257600080fd5b505191505b509050610c67565b6001600160a01b038616600090815260036020908152604091829020825163187f050560e11b8152600481019190915260248101859052915173__DLL___________________________________926330fe0a0a926044808301939192829003018186803b158015610c3057600080fd5b505af4158015610c44573d6000803e3d6000fd5b505050506040513d6020811015610c5a57600080fd5b50519150610af6565b5090505b9392505050565b60008054600101815580610c88428563ffffffff61211916565b90506000610c9c828563ffffffff61211916565b6040805160a08101825284815260208082018481528284018b8152600060608086018281526080870183815283548452600180885289852098518955955195880195909555925160028701559151600386015591516004909401939093555483518b8152918201879052818401859052925193945033937f404f1f1c229d9eb2a949e7584da6ffde9d059ef2169f487ca815434cce0640d0929181900390910190a35050600054949350505050565b60026020526000908152604090205481565b868514610d6957600080fd5b868314610d7557600080fd5b868114610d8157600080fd5b60005b87811015610de857610de0898983818110610d9b57fe5b90506020020135888884818110610dae57fe5b90506020020135878785818110610dc157fe5b90506020020135868686818110610dd457fe5b90506020020135610f9a565b600101610d84565b505050505050505050565b6001600160a01b0381166000908152600360209081526040808320815163187f050560e11b8152600481019190915260248101849052905173__DLL___________________________________926330fe0a0a9260448082019391829003018186803b158015610e6257600080fd5b505af4158015610e76573d6000803e3d6000fd5b505050506040513d6020811015610e8c57600080fd5b505192915050565b6000610e9f826116e3565b610ea857600080fd5b60008281526001602081905260409091200154610ec490611fc4565b158015610ed75750610ed582611a87565b155b92915050565b6000610ee8826120da565b610ef157600080fd5b610ef9612247565b5050600090815260016020818152604092839020835160a0810185528154815292810154918301919091526002810154928201839052600381015460608301819052600490910154608090920182905290810190910260649091021190565b6001602081905260009182526040909120805491810154600282015460038301546004909301549192909185565b6000610ed782610f9584610df3565b611e80565b610fa384611a87565b610ff4576040805162461bcd60e51b815260206004820152601860248201527f436f6d6d697420706572696f64206e6f74204163746976650000000000000000604482015290519081900360640190fd5b33600090815260026020526040902054821115611039573360009081526002602052604081205461102c90849063ffffffff61217316565b9050611037816118b0565b505b336000908152600260205260409020548211156110875760405162461bcd60e51b81526004018080602001828103825260248152602001806122b46024913960400191505060405180910390fd5b836110c35760405162461bcd60e51b815260040180806020018281038252602781526020018061236e6027913960400191505060405180910390fd5b82611108576040805162461bcd60e51b815260206004820152601060248201526f0736563726574206861736820697320360841b604482015290519081900360640190fd5b8015806111a55750336000908152600360209081526040918290208251631b352dd160e11b8152600481019190915260248101849052915173__DLL___________________________________9263366a5ba2926044808301939192829003018186803b15801561117857600080fd5b505af415801561118c573d6000803e3d6000fd5b505050506040513d60208110156111a257600080fd5b50515b6111e05760405162461bcd60e51b815260040180806020018281038252604281526020018061232c6042913960600191505060405180910390fd5b33600090815260036020908152604080832081516307d29ac960e01b8152600481019190915260248101859052905173__DLL___________________________________926307d29ac99260448082019391829003018186803b15801561124657600080fd5b505af415801561125a573d6000803e3d6000fd5b505050506040513d602081101561127057600080fd5b5051905084811415611313573360009081526003602090815260409182902082516307d29ac960e01b8152600481019190915260248101889052915173__DLL___________________________________926307d29ac9926044808301939192829003018186803b1580156112e457600080fd5b505af41580156112f8573d6000803e3d6000fd5b505050506040513d602081101561130e57600080fd5b505190505b61131f828233866116a2565b611370576040805162461bcd60e51b815260206004820181905260248201527f506f736974696f6e206f662070726576506f6c6c4944206e6f742076616c6964604482015290519081900360640190fd5b336000908152600360205260408082208151639735c51b60e01b81526004810191909152602481018590526044810188905260648101849052905173__DLL___________________________________92639735c51b9260848082019391829003018186803b1580156113e257600080fd5b505af41580156113f6573d6000803e3d6000fd5b505050506000611406338761186c565b6040805163977aa03160e01b815260048181015260248101839052606481018790526080604482015260096084820152686e756d546f6b656e7360b81b60a4820152905191925073__AttributeStore________________________9163977aa0319160c480820192600092909190829003018186803b15801561148957600080fd5b505af415801561149d573d6000803e3d6000fd5b50506040805163977aa03160e01b8152600481810152602481018590526064810189905260806044820152600a6084820152690c6dedadad2e890c2e6d60b31b60a4820152905173__AttributeStore________________________935063977aa031925060c4808301926000929190829003018186803b15801561152157600080fd5b505af4158015611535573d6000803e3d6000fd5b5050506000878152600160208181526040808420338086526005909101835293819020805460ff19169093179092558151888152915192935089927fea7979e4280d7e6bffc1c7d83a1ac99f16d02ecc14465ce41016226783b663d79281900390910190a3505050505050565b60006115ad826116e3565b6115fe576040805162461bcd60e51b815260206004820152601a60248201527f5468697320706f6c6c494420646f6573206e6f74206578697374000000000000604482015290519081900360640190fd5b5060009081526001602090815260408083206001600160a01b0394909416835260059093019052205460ff1690565b84831461163957600080fd5b84811461164557600080fd5b60005b858110156116995761169187878381811061165f57fe5b9050602002013586868481811061167257fe5b9050602002013585858581811061168557fe5b90506020020135611b3e565b600101611648565b50505050505050565b6000806116af8487611e80565b831015905060006116c08587611e80565b841115806116cc575085155b90508180156116d85750805b979650505050505050565b60008115801590610ed7575050600054101590565b60005481565b6000818152600160208190526040909120015461171a90611fc4565b61172357600080fd5b336000908152600360209081526040918290208251631b352dd160e11b8152600481019190915260248101849052915173__DLL___________________________________9263366a5ba2926044808301939192829003018186803b15801561178b57600080fd5b505af415801561179f573d6000803e3d6000fd5b505050506040513d60208110156117b557600080fd5b50516117c057600080fd5b3360009081526003602052604080822081516306d900ed60e41b8152600481019190915260248101849052905173__DLL___________________________________92636d900ed09260448082019391829003018186803b15801561182457600080fd5b505af4158015611838573d6000803e3d6000fd5b50506040513392508391507f402507661c8c8cb90e0a796450b8bdd28b6c516f05279c0cd29e84c344e1699a90600090a350565b6040805160609390931b6bffffffffffffffffffffffff19166020808501919091526034808501939093528151808503909301835260549093019052805191012090565b600554604080516370a0823160e01b8152336004820152905183926001600160a01b0316916370a08231916024808301926020929190829003018186803b1580156118fa57600080fd5b505afa15801561190e573d6000803e3d6000fd5b505050506040513d602081101561192457600080fd5b505110156119635760405162461bcd60e51b815260040180806020018281038252602d8152602001806122d8602d913960400191505060405180910390fd5b33600081815260026020908152604080832080548601905560055481516323b872dd60e01b815260048101959095523060248601526044850186905290516001600160a01b03909116936323b872dd9360648083019493928390030190829087803b1580156119d157600080fd5b505af11580156119e5573d6000803e3d6000fd5b505050506040513d60208110156119fb57600080fd5b5051611a4e576040805162461bcd60e51b815260206004820152601e60248201527f43616e6e6f74207472616e736665722066726f6d20474f56546f6b656e730000604482015290519081900360640190fd5b60408051828152905133917ff7aaf024511d9982df8cd0d437c71c30106e6848cd1ba3d288d7a9c0e276aeda919081900360200190a250565b6000611a92826116e3565b611ae3576040805162461bcd60e51b815260206004820152601a60248201527f5468697320706f6c6c494420646f6573206e6f74206578697374000000000000604482015290519081900360640190fd5b600082815260016020526040902054610ed590611fc4565b6000611b06826116e3565b611b0f57600080fd5b5060009081526001602090815260408083206001600160a01b0394909416835260069093019052205460ff1690565b611b4783610e94565b611b98576040805162461bcd60e51b815260206004820152601860248201527f52657665616c20706572696f64206e6f74206163746976650000000000000000604482015290519081900360640190fd5b600083815260016020908152604080832033845260050190915290205460ff16611c09576040805162461bcd60e51b815260206004820152601860248201527f596f7572207573657220646964206e6f7420636f6d6d69740000000000000000604482015290519081900360640190fd5b600083815260016020908152604080832033845260060190915290205460ff1615611c7b576040805162461bcd60e51b815260206004820152601e60248201527f596f757220757365722068617320616c72656164792052657665616c65640000604482015290519081900360640190fd5b611c853384611f3b565b6040805160208082018690528183018590528251808303840181526060909201909252805191012014611ce95760405162461bcd60e51b815260040180806020018281038252603d815260200180612277603d913960400191505060405180910390fd5b6000611cf53385611e80565b90508260011415611d1c576000848152600160205260409020600301805482019055611d34565b60008481526001602052604090206004018054820190555b3360009081526003602052604080822081516306d900ed60e41b8152600481019190915260248101879052905173__DLL___________________________________92636d900ed09260448082019391829003018186803b158015611d9857600080fd5b505af4158015611dac573d6000803e3d6000fd5b505050600085815260016020818152604080842033808652600682018452828620805460ff1916861790558086526007820184528286208a9055948a9052928252600383015460049093015481518781529283019390935281810192909252606081018690529051919250859187917f9b19aaec524fad29c0ced9b9973a15e3045d7c3be156d71394ab40f0d5f119ff919081900360800190a450505050565b60005b8151811015611e7c57611e74828281518110611e6757fe5b60200260200101516116fe565b600101611e4f565b5050565b600073__AttributeStore________________________6350389f5c6004611ea8868661186c565b6040518363ffffffff1660e01b8152600401808381526020018281526020018060200182810382526009815260200180686e756d546f6b656e7360b81b815250602001935050505060206040518083038186803b158015611f0857600080fd5b505af4158015611f1c573d6000803e3d6000fd5b505050506040513d6020811015611f3257600080fd5b50519392505050565b600073__AttributeStore________________________6350389f5c6004611f63868661186c565b6040518363ffffffff1660e01b815260040180838152602001828152602001806020018281038252600a815260200180690c6dedadad2e890c2e6d60b31b815250602001935050505060206040518083038186803b158015611f0857600080fd5b421190565b6000611ff3611fd733610f86565b336000908152600260205260409020549063ffffffff61217316565b90508181101561200257600080fd5b33600081815260026020908152604080832080548790039055600554815163a9059cbb60e01b815260048101959095526024850187905290516001600160a01b039091169363a9059cbb9360448083019493928390030190829087803b15801561206b57600080fd5b505af115801561207f573d6000803e3d6000fd5b505050506040513d602081101561209557600080fd5b50516120a057600080fd5b60408051838152905133917ffaeb7dbb9992397d26ea1944efd40c80b40f702faf69b46c67ad10aba68ccb79919081900360200190a25050565b60006120e5826116e3565b6120ee57600080fd5b60008281526001602081905260409091200154610ed790611fc4565b6005546001600160a01b031681565b600082820183811015610c67576040805162461bcd60e51b815260206004820152601b60248201527f536166654d6174683a206164646974696f6e206f766572666c6f770000000000604482015290519081900360640190fd5b6000610c6783836040518060400160405280601e81526020017f536166654d6174683a207375627472616374696f6e206f766572666c6f7700008152506000818484111561223f5760405162461bcd60e51b81526004018080602001828103825283818151815260200191508051906020019080838360005b838110156122045781810151838201526020016121ec565b50505050905090810190601f1680156122315780820380516001836020036101000a031916815260200191505b509250505060405180910390fd5b505050900390565b6040518060a001604052806000815260200160008152602001600081526020016000815260200160008152509056fe566f746520616e642053616c74206861736820646f206e6f7420636f727265736f706f6e6420776974682074686520636f6d6d697465642076616c7565596f7520646f206e6f74206861766520656e6f75676820766f74696e6720726967687473474f5628746f6b656e292e62616c616e63654f66286d73672e73656e64657229203c205f6e756d546f6b656e73566f7465722072657665616c65642c20627574206e6f7420696e20746865206d616a6f7269747970726576506f6c6c494420646f6573206e6f742065786973747320696e207468652075736572277320444c4c20616e64205f70726576506f6c6c4944206e6f7420307573657220636f6d6d697474656420746f207a65726f206e6f646520706c616365686f6c646572a265627a7a723158202e43ec75bbc3500214048d9d381e67068bfb0862ed5f018436a068093649c34564736f6c63430005110032608060405234801561001057600080fd5b506103da806100206000396000f3fe608060405234801561001057600080fd5b50600436106100365760003560e01c806361b69abd1461003b5780637b8b82a81461010d575b600080fd5b6100f16004803603604081101561005157600080fd5b6001600160a01b03823516919081019060408101602082013564010000000081111561007c57600080fd5b82018360208201111561008e57600080fd5b803590602001918460018302840111640100000000831117156100b057600080fd5b91908080601f0160208091040260200160405190810160405280939291908181526020018383808284376000920191909152509295506101ca945050505050565b604080516001600160a01b039092168252519081900360200190f35b6101c86004803603606081101561012357600080fd5b8135916001600160a01b036020820135169181019060608101604082013564010000000081111561015357600080fd5b82018360208201111561016557600080fd5b8035906020019184600183028401116401000000008311171561018757600080fd5b91908080601f016020809104026020016040519081016040528093929190818152602001838380828437600092019190915250929550610224945050505050565b005b60006101d6838361032a565b604080516001600160a01b0380841682528616602082015281519293507f3d2489efb661e8b1c3679865db649ca1de61d76a71184a1234de2e55786a6aad929081900390910190a192915050565b606083604051908082528060200260200182016040528015610250578160200160208202803883390190505b50905060005b8481101561029457610268848461032a565b82828151811061027457fe5b6001600160a01b0390921660209283029190910190910152600101610256565b507fb2985f082ae86fc659eabac0809f572d48e4fab9171c7dc2848b56d7bf3f107281846040518080602001836001600160a01b03166001600160a01b03168152602001828103825284818151815260200191508051906020019060200280838360005b838110156103105781810151838201526020016102f8565b50505050905001935050505060405180910390a150505050565b600060405183600b82015276603160008181600b9039f36000808080803680928037736009820352705af43d828181803e808314602f57f35bfd60781b602b820152603c816000f09150813b61037f57600080fd5b8251801561039d5760008082602087016000875af161039d57600080fd5b50509291505056fea265627a7a72315820e5bd6bbdc7f2277177b90f3d3fa07b5d2d0724c8fcb2f34309f3b767aa44608264736f6c63430005110032",
  "source": "pragma solidity ^0.5.17;\n\nimport \"./../../tokens/GOV.sol\";\nimport \"./PLCRVoting.sol\";\nimport \"./ProxyFactory.sol\";\n\ncontract PLCRFactory {\n\n    event newPLCR(address creator, GOV token, PLCRVoting plcr);\n\n    ProxyFactory public proxyFactory;\n    PLCRVoting public canonizedPLCR;\n\n    /// @dev constructor deploys a new canonical PLCRVoting contract and a proxyFactory.\n    constructor() public {\n        canonizedPLCR = new PLCRVoting();\n        proxyFactory = new ProxyFactory();\n    }\n\n    /*\n    @dev deploys and initializes a new PLCRVoting contract that consumes a token at an address\n    supplied by the user.\n    @param _token an ERC20 token to be consumed by the new PLCR contract\n    */\n    function newPLCRBYOToken(GOV _token) public returns (PLCRVoting) {\n        PLCRVoting plcr = PLCRVoting(proxyFactory.createProxy(address(canonizedPLCR), \"\"));\n        plcr.init(address(_token));\n\n        emit newPLCR(msg.sender, _token, plcr);\n\n        return plcr;\n    }\n\n    /*\n    @dev deploys and initializes a new PLCRVoting contract and an ERC20 to be consumed by the PLCR's\n    initializer.\n    @param _supply the total number of tokens to mint in the ERC20 contract\n    @param _name the name of the new ERC20 token\n    @param _decimals the decimal precision to be used in rendering balances in the ERC20 token\n    @param _symbol the symbol of the new ERC20 token\n    */\n    function newPLCRWithToken(\n        uint _supply,\n        string memory _name,\n        uint8 _decimals,\n        string memory _symbol\n    ) public returns (PLCRVoting) {\n        // Create a new token and give all the tokens to the PLCR creator\n        GOV token = new GOV(_name, _symbol, _decimals, address(0), true, true, false, _supply);\n\n        token.transfer(msg.sender, _supply);\n\n        // Create and initialize a new PLCR contract\n        PLCRVoting plcr = PLCRVoting(proxyFactory.createProxy(address(canonizedPLCR), \"\"));\n        plcr.init(address(token));\n\n        emit newPLCR(msg.sender, token, plcr);\n\n        return plcr;\n    }\n}\n",
  "sourcePath": "/home/cantonioupao/susDAO-saveMe/FIN4Contracts/contracts/tcr/PLCR/PLCRFactory.sol",
  "compiler": {
    "name": "solc",
    "version": "0.5.17+commit.d19bba13.Emscripten.clang"
  },
  "schemaVersion": "3.3.1",
  "updatedAt": "2020-12-03T18:31:09.753Z",
  "devdoc": {
    "methods": {
      "constructor": {
        "details": "constructor deploys a new canonical PLCRVoting contract and a proxyFactory."
      }
    }
  },
  "userdoc": {
    "methods": {}
  }
}