{
  "contractName": "ProxyFactory",
  "abi": [
    {
      "anonymous": false,
      "inputs": [
        {
          "indexed": false,
          "internalType": "address[]",
          "name": "proxyAddresses",
          "type": "address[]"
        },
        {
          "indexed": false,
          "internalType": "address",
          "name": "targetAddress",
          "type": "address"
        }
      ],
      "name": "ProxiesDeployed",
      "type": "event"
    },
    {
      "anonymous": false,
      "inputs": [
        {
          "indexed": false,
          "internalType": "address",
          "name": "proxyAddress",
          "type": "address"
        },
        {
          "indexed": false,
          "internalType": "address",
          "name": "targetAddress",
          "type": "address"
        }
      ],
      "name": "ProxyDeployed",
      "type": "event"
    },
    {
      "constant": false,
      "inputs": [
        {
          "internalType": "uint256",
          "name": "_count",
          "type": "uint256"
        },
        {
          "internalType": "address",
          "name": "_target",
          "type": "address"
        },
        {
          "internalType": "bytes",
          "name": "_data",
          "type": "bytes"
        }
      ],
      "name": "createManyProxies",
      "outputs": [],
      "payable": false,
      "stateMutability": "nonpayable",
      "type": "function"
    },
    {
      "constant": false,
      "inputs": [
        {
          "internalType": "address",
          "name": "_target",
          "type": "address"
        },
        {
          "internalType": "bytes",
          "name": "_data",
          "type": "bytes"
        }
      ],
      "name": "createProxy",
      "outputs": [
        {
          "internalType": "address",
          "name": "proxyContract",
          "type": "address"
        }
      ],
      "payable": false,
      "stateMutability": "nonpayable",
      "type": "function"
    }
  ],
  "bytecode": "0x608060405234801561001057600080fd5b506103da806100206000396000f3fe608060405234801561001057600080fd5b50600436106100365760003560e01c806361b69abd1461003b5780637b8b82a81461010d575b600080fd5b6100f16004803603604081101561005157600080fd5b6001600160a01b03823516919081019060408101602082013564010000000081111561007c57600080fd5b82018360208201111561008e57600080fd5b803590602001918460018302840111640100000000831117156100b057600080fd5b91908080601f0160208091040260200160405190810160405280939291908181526020018383808284376000920191909152509295506101ca945050505050565b604080516001600160a01b039092168252519081900360200190f35b6101c86004803603606081101561012357600080fd5b8135916001600160a01b036020820135169181019060608101604082013564010000000081111561015357600080fd5b82018360208201111561016557600080fd5b8035906020019184600183028401116401000000008311171561018757600080fd5b91908080601f016020809104026020016040519081016040528093929190818152602001838380828437600092019190915250929550610224945050505050565b005b60006101d6838361032a565b604080516001600160a01b0380841682528616602082015281519293507f3d2489efb661e8b1c3679865db649ca1de61d76a71184a1234de2e55786a6aad929081900390910190a192915050565b606083604051908082528060200260200182016040528015610250578160200160208202803883390190505b50905060005b8481101561029457610268848461032a565b82828151811061027457fe5b6001600160a01b0390921660209283029190910190910152600101610256565b507fb2985f082ae86fc659eabac0809f572d48e4fab9171c7dc2848b56d7bf3f107281846040518080602001836001600160a01b03166001600160a01b03168152602001828103825284818151815260200191508051906020019060200280838360005b838110156103105781810151838201526020016102f8565b50505050905001935050505060405180910390a150505050565b600060405183600b82015276603160008181600b9039f36000808080803680928037736009820352705af43d828181803e808314602f57f35bfd60781b602b820152603c816000f09150813b61037f57600080fd5b8251801561039d5760008082602087016000875af161039d57600080fd5b50509291505056fea265627a7a72315820e5bd6bbdc7f2277177b90f3d3fa07b5d2d0724c8fcb2f34309f3b767aa44608264736f6c63430005110032",
  "source": "/***\n* Shoutouts:\n* \n* Bytecode origin https://www.reddit.com/r/ethereum/comments/6ic49q/any_assembly_programmers_willing_to_write_a/dj5ceuw/\n* Modified version of Vitalik's https://www.reddit.com/r/ethereum/comments/6c1jui/delegatecall_forwarders_how_to_save_5098_on/\n* Credits to Jorge Izquierdo (@izqui) for coming up with this design here: https://gist.github.com/izqui/7f904443e6d19c1ab52ec7f5ad46b3a8\n* Credits to Stefan George (@Georgi87) for inspiration for many of the improvements from Gnosis Safe: https://github.com/gnosis/gnosis-safe-contracts\n* \n* This version has many improvements over the original @izqui's library like using REVERT instead of THROWing on failed calls.\n* It also implements the awesome design pattern for initializing code as seen in Gnosis Safe Factory: https://github.com/gnosis/gnosis-safe-contracts/blob/master/contracts/ProxyFactory.sol\n* but unlike this last one it doesn't require that you waste storage on both the proxy and the proxied contracts (v. https://github.com/gnosis/gnosis-safe-contracts/blob/master/contracts/Proxy.sol#L8 & https://github.com/gnosis/gnosis-safe-contracts/blob/master/contracts/GnosisSafe.sol#L14)\n* \n* \n* v0.0.2\n* The proxy is now only 60 bytes long in total. Constructor included.\n* No functionalities were added. The change was just to make the proxy leaner.\n* \n* v0.0.3\n* Thanks @dacarley for noticing the incorrect check for the subsequent call to the proxy. 🙌\n* Note: I'm creating a new version of this that doesn't need that one call.\n*       Will add tests and put this in its own repository soon™.\n* \n* v0.0.4\n* All the merit in this fix + update of the factory is @dacarley 's. 🙌\n* Thank you! 😄\n*\n* Potential updates can be found at https://gist.github.com/GNSPS/ba7b88565c947cfd781d44cf469c2ddb\n* \n***/\n\npragma solidity ^0.5.17;\n\n/* solhint-disable no-inline-assembly, indent, state-visibility, avoid-low-level-calls */\n\ncontract ProxyFactory {\n    event ProxyDeployed(address proxyAddress, address targetAddress);\n    event ProxiesDeployed(address[] proxyAddresses, address targetAddress);\n\n    function createManyProxies(uint256 _count, address _target, bytes memory _data)\n        public\n    {\n        address[] memory proxyAddresses = new address[](_count);\n\n        for (uint256 i = 0; i < _count; ++i) {\n            proxyAddresses[i] = createProxyImpl(_target, _data);\n        }\n\n        emit ProxiesDeployed(proxyAddresses, _target);\n    }\n\n    function createProxy(address _target, bytes memory _data)\n        public\n        returns (address proxyContract)\n    {\n        proxyContract = createProxyImpl(_target, _data);\n\n        emit ProxyDeployed(proxyContract, _target);\n    }\n    \n    function createProxyImpl(address _target, bytes memory _data)\n        internal\n        returns (address proxyContract)\n    {\n        assembly {\n            let contractCode := mload(0x40) // Find empty storage location using \"free memory pointer\"\n           \n            mstore(add(contractCode, 0x0b), _target) // Add target address, with a 11 bytes [i.e. 23 - (32 - 20)] offset to later accomodate first part of the bytecode\n            mstore(sub(contractCode, 0x09), 0x000000000000000000603160008181600b9039f3600080808080368092803773) // First part of the bytecode, shifted left by 9 bytes, overwrites left padding of target address\n            mstore(add(contractCode, 0x2b), 0x5af43d828181803e808314602f57f35bfd000000000000000000000000000000) // Final part of bytecode, offset by 43 bytes\n\n            proxyContract := create(0, contractCode, 60) // total length 60 bytes\n            if iszero(extcodesize(proxyContract)) {\n                revert(0, 0)\n            }\n           \n            // check if the _data.length > 0 and if it is forward it to the newly created contract\n            let dataLength := mload(_data) \n            if iszero(iszero(dataLength)) {\n                if iszero(call(gas, proxyContract, 0, add(_data, 0x20), dataLength, 0, 0)) {\n                    revert(0, 0)\n                }\n            }\n        }\n    }\n}\n\n",
  "sourcePath": "/home/cantonioupao/susDAO-saveMe/FIN4Contracts/contracts/tcr/PLCR/ProxyFactory.sol",
  "compiler": {
    "name": "solc",
    "version": "0.5.17+commit.d19bba13.Emscripten.clang"
  },
  "schemaVersion": "3.3.1",
  "updatedAt": "2020-12-03T18:27:58.887Z",
  "devdoc": {
    "methods": {}
  },
  "userdoc": {
    "methods": {}
  }
}