{
  "contractName": "RegistryFactory",
  "abi": [
    {
      "inputs": [
        {
          "internalType": "contract ParameterizerFactory",
          "name": "_parameterizerFactory",
          "type": "address"
        }
      ],
      "payable": false,
      "stateMutability": "nonpayable",
      "type": "constructor"
    },
    {
      "anonymous": false,
      "inputs": [
        {
          "indexed": false,
          "internalType": "address",
          "name": "creator",
          "type": "address"
        },
        {
          "indexed": false,
          "internalType": "contract GOV",
          "name": "token",
          "type": "address"
        },
        {
          "indexed": false,
          "internalType": "contract PLCRVoting",
          "name": "plcr",
          "type": "address"
        },
        {
          "indexed": false,
          "internalType": "contract Parameterizer",
          "name": "parameterizer",
          "type": "address"
        },
        {
          "indexed": false,
          "internalType": "contract Registry",
          "name": "registry",
          "type": "address"
        }
      ],
      "name": "NewRegistry",
      "type": "event"
    },
    {
      "constant": true,
      "inputs": [],
      "name": "canonizedRegistry",
      "outputs": [
        {
          "internalType": "contract Registry",
          "name": "",
          "type": "address"
        }
      ],
      "payable": false,
      "stateMutability": "view",
      "type": "function"
    },
    {
      "constant": true,
      "inputs": [],
      "name": "parameterizerFactory",
      "outputs": [
        {
          "internalType": "contract ParameterizerFactory",
          "name": "",
          "type": "address"
        }
      ],
      "payable": false,
      "stateMutability": "view",
      "type": "function"
    },
    {
      "constant": true,
      "inputs": [],
      "name": "proxyFactory",
      "outputs": [
        {
          "internalType": "contract ProxyFactory",
          "name": "",
          "type": "address"
        }
      ],
      "payable": false,
      "stateMutability": "view",
      "type": "function"
    },
    {
      "constant": false,
      "inputs": [
        {
          "internalType": "contract GOV",
          "name": "_token",
          "type": "address"
        },
        {
          "internalType": "uint256[]",
          "name": "_parameters",
          "type": "uint256[]"
        },
        {
          "internalType": "string",
          "name": "_name",
          "type": "string"
        }
      ],
      "name": "newRegistryBYOToken",
      "outputs": [
        {
          "internalType": "contract Registry",
          "name": "",
          "type": "address"
        }
      ],
      "payable": false,
      "stateMutability": "nonpayable",
      "type": "function"
    },
    {
      "constant": false,
      "inputs": [
        {
          "internalType": "uint256",
          "name": "_supply",
          "type": "uint256"
        },
        {
          "internalType": "string",
          "name": "_tokenName",
          "type": "string"
        },
        {
          "internalType": "uint8",
          "name": "_decimals",
          "type": "uint8"
        },
        {
          "internalType": "string",
          "name": "_symbol",
          "type": "string"
        },
        {
          "internalType": "uint256[]",
          "name": "_parameters",
          "type": "uint256[]"
        },
        {
          "internalType": "string",
          "name": "_registryName",
          "type": "string"
        }
      ],
      "name": "newRegistryWithToken",
      "outputs": [
        {
          "internalType": "contract Registry",
          "name": "",
          "type": "address"
        }
      ],
      "payable": false,
      "stateMutability": "nonpayable",
      "type": "function"
    }
  ],
  "bytecode": "0x608060405234801561001057600080fd5b506040516149d43803806149d48339818101604052602081101561003357600080fd5b5051600080546001600160a01b0319166001600160a01b0380841691909117918290556040805163c10f1a7560e01b81529051929091169163c10f1a7591600480820192602092909190829003018186803b15801561009157600080fd5b505afa1580156100a5573d6000803e3d6000fd5b505050506040513d60208110156100bb57600080fd5b5051600180546001600160a01b0319166001600160a01b039092169190911790556040516100e89061012b565b604051809103906000f080158015610104573d6000803e3d6000fd5b50600280546001600160a01b0319166001600160a01b039290921691909117905550610138565b613c2780610dad83390190565b610c66806101476000396000f3fe608060405234801561001057600080fd5b50600436106100575760003560e01c80632d3d165d1461005c5780633d23af26146100805780637cc5a42e146102c2578063c10f1a75146103f8578063dde41aa914610400575b600080fd5b610064610408565b604080516001600160a01b039092168252519081900360200190f35b610064600480360360c081101561009657600080fd5b81359190810190604081016020820135600160201b8111156100b757600080fd5b8201836020820111156100c957600080fd5b803590602001918460018302840111600160201b831117156100ea57600080fd5b91908080601f016020809104026020016040519081016040528093929190818152602001838380828437600092019190915250929560ff853516959094909350604081019250602001359050600160201b81111561014757600080fd5b82018360208201111561015957600080fd5b803590602001918460018302840111600160201b8311171561017a57600080fd5b91908080601f0160208091040260200160405190810160405280939291908181526020018383808284376000920191909152509295949360208101935035915050600160201b8111156101cc57600080fd5b8201836020820111156101de57600080fd5b803590602001918460208302840111600160201b831117156101ff57600080fd5b9190808060200260200160405190810160405280939291908181526020018383602002808284376000920191909152509295949360208101935035915050600160201b81111561024e57600080fd5b82018360208201111561026057600080fd5b803590602001918460018302840111600160201b8311171561028157600080fd5b91908080601f016020809104026020016040519081016040528093929190818152602001838380828437600092019190915250929550610417945050505050565b610064600480360360608110156102d857600080fd5b6001600160a01b038235169190810190604081016020820135600160201b81111561030257600080fd5b82018360208201111561031457600080fd5b803590602001918460208302840111600160201b8311171561033557600080fd5b9190808060200260200160405190810160405280939291908181526020018383602002808284376000920191909152509295949360208101935035915050600160201b81111561038457600080fd5b82018360208201111561039657600080fd5b803590602001918460018302840111600160201b831117156103b757600080fd5b91908080601f016020809104026020016040519081016040528093929190818152602001838380828437600092019190915250929550610903945050505050565b610064610c13565b610064610c22565b6000546001600160a01b031681565b6000806000809054906101000a90046001600160a01b03166001600160a01b0316631f4d7ec489898989896040518663ffffffff1660e01b815260040180868152602001806020018560ff1660ff1681526020018060200180602001848103845288818151815260200191508051906020019080838360005b838110156104a8578181015183820152602001610490565b50505050905090810190601f1680156104d55780820380516001836020036101000a031916815260200191505b50848103835286518152865160209182019188019080838360005b838110156105085781810151838201526020016104f0565b50505050905090810190601f1680156105355780820380516001836020036101000a031916815260200191505b508481038252855181528551602091820191808801910280838360005b8381101561056a578181015183820152602001610552565b5050505090500198505050505050505050602060405180830381600087803b15801561059557600080fd5b505af11580156105a9573d6000803e3d6000fd5b505050506040513d60208110156105bf57600080fd5b505160408051637e062a3560e11b815290519192506000916001600160a01b0384169163fc0c546a916004808301926020929190829003018186803b15801561060757600080fd5b505afa15801561061b573d6000803e3d6000fd5b505050506040513d602081101561063157600080fd5b50516040805163a9059cbb60e01b8152336004820152602481018c905290519192506001600160a01b0383169163a9059cbb916044808201926020929091908290030181600087803b15801561068657600080fd5b505af115801561069a573d6000803e3d6000fd5b505050506040513d60208110156106b057600080fd5b505060408051637e70e66560e11b815290516000916001600160a01b0385169163fce1ccca91600480820192602092909190829003018186803b1580156106f657600080fd5b505afa15801561070a573d6000803e3d6000fd5b505050506040513d602081101561072057600080fd5b5051600154600254604080516361b69abd60e01b81526001600160a01b039283166004820152602481018290526000604482018190529151949550909391909216916361b69abd91608480830192602092919082900301818787803b15801561078857600080fd5b505af115801561079c573d6000803e3d6000fd5b505050506040513d60208110156107b257600080fd5b50516040516324f91d8360e01b81526001600160a01b0385811660048301908152858216602484015287821660448401526080606484019081528a5160848501528a51949550918516936324f91d8393889388938b938e9391929160a40190602085019080838360005b8381101561083457818101518382015260200161081c565b50505050905090810190601f1680156108615780820380516001836020036101000a031916815260200191505b5095505050505050600060405180830381600087803b15801561088357600080fd5b505af1158015610897573d6000803e3d6000fd5b5050604080513381526001600160a01b0380881660208301528087168284015280891660608301528516608082015290517f7b894b0f9b218ebfdacd6513466ec77d3e27f22d23fe928fa3a7b4a299a6fe3493509081900360a0019150a19a9950505050505050505050565b6000805460408051631c21fb0560e21b81526001600160a01b03878116600483019081526024830193845287516044840152875186959290921693637087ec14938a938a93929160640190602080860191028083838c5b8381101561097257818101518382015260200161095a565b505050509050019350505050602060405180830381600087803b15801561099857600080fd5b505af11580156109ac573d6000803e3d6000fd5b505050506040513d60208110156109c257600080fd5b505160408051637e70e66560e11b815290519192506000916001600160a01b0384169163fce1ccca916004808301926020929190829003018186803b158015610a0a57600080fd5b505afa158015610a1e573d6000803e3d6000fd5b505050506040513d6020811015610a3457600080fd5b5051600154600254604080516361b69abd60e01b81526001600160a01b039283166004820152602481018290526000604482018190529151949550909391909216916361b69abd91608480830192602092919082900301818787803b158015610a9c57600080fd5b505af1158015610ab0573d6000803e3d6000fd5b505050506040513d6020811015610ac657600080fd5b50516040516324f91d8360e01b81526001600160a01b038981166004830190815285821660248401528682166044840152608060648401908152895160848501528951949550918516936324f91d83938c9388938a938d9391929160a40190602085019080838360005b83811015610b48578181015183820152602001610b30565b50505050905090810190601f168015610b755780820380516001836020036101000a031916815260200191505b5095505050505050600060405180830381600087803b158015610b9757600080fd5b505af1158015610bab573d6000803e3d6000fd5b5050604080513381526001600160a01b03808c1660208301528087168284015280881660608301528516608082015290517f7b894b0f9b218ebfdacd6513466ec77d3e27f22d23fe928fa3a7b4a299a6fe3493509081900360a0019150a19695505050505050565b6001546001600160a01b031681565b6002546001600160a01b03168156fea265627a7a72315820f17496e77b1f64d9fd4a8a1aa1a24fc98415e9b3df0362368f2d0fb807e4dac164736f6c63430005110032608060405234801561001057600080fd5b50613c07806100206000396000f3fe608060405234801561001057600080fd5b50600436106101cf5760003560e01c80638a59eb5611610104578063c18b8db4116100a2578063ead7454e11610071578063ead7454e146109ce578063f1b2d6a314610a26578063fc0c546a14610a2e578063fce1ccca14610a36576101cf565b8063c18b8db414610928578063c8187cf114610985578063da91254c146109a2578063e1e3f915146109c6576101cf565b80638f1d3776116100de5780638f1d37761461085b578063a5ba3b1e146108b3578063ae169a50146108df578063bd0ae405146108fc576101cf565b80638a59eb56146107805780638c82dccb1461079d5780638cf8151f1461083e576101cf565b806324f91d831161017157806346c7c1261161014b57806346c7c126146104f05780635eac6239146106a5578063691a38ab1461074657806377609a4114610763576101cf565b806324f91d831461032157806341b65c59146103e657806343cffefe14610469576101cf565b806307b99366116101ad57806307b99366146102a75780630960db7c146102c45780631b7bbecb146102e15780631de26e16146102fe576101cf565b806301a5e3fe146101d4578063040cf0201461020557806306fdde031461022a575b600080fd5b6101f1600480360360208110156101ea57600080fd5b5035610a3e565b604080519115158252519081900360200190f35b6102286004803603604081101561021b57600080fd5b5080359060200135610a59565b005b610232610c17565b6040805160208082528351818301528351919283929083019185019080838360005b8381101561026c578181015183820152602001610254565b50505050905090810190601f1680156102995780820380516001836020036101000a031916815260200191505b509250505060405180910390f35b610228600480360360208110156102bd57600080fd5b5035610ca5565b610228600480360360208110156102da57600080fd5b5035610ed8565b6101f1600480360360208110156102f757600080fd5b5035610fb8565b6102286004803603604081101561031457600080fd5b5080359060200135610ffa565b6102286004803603608081101561033757600080fd5b6001600160a01b0382358116926020810135821692604082013590921691810190608081016060820135600160201b81111561037257600080fd5b82018360208201111561038457600080fd5b803590602001918460018302840111600160201b831117156103a557600080fd5b91908080601f016020809104026020016040519081016040528093929190818152602001838380828437600092019190915250929550611108945050505050565b610228600480360360608110156103fc57600080fd5b6001600160a01b0382351691602081013591810190606081016040820135600160201b81111561042b57600080fd5b82018360208201111561043d57600080fd5b803590602001918460018302840111600160201b8311171561045e57600080fd5b5090925090506111dd565b6104de6004803603604081101561047f57600080fd5b81359190810190604081016020820135600160201b8111156104a057600080fd5b8201836020820111156104b257600080fd5b803590602001918460018302840111600160201b831117156104d357600080fd5b509092509050611625565b60408051918252519081900360200190f35b6104f8611d1c565b6040518080602001806020018060200180602001806020018060200187810387528d818151815260200191508051906020019060200280838360005b8381101561054c578181015183820152602001610534565b5050505090500187810386528c818151815260200191508051906020019060200280838360005b8381101561058b578181015183820152602001610573565b5050505090500187810385528b818151815260200191508051906020019060200280838360005b838110156105ca5781810151838201526020016105b2565b5050505090500187810384528a818151815260200191508051906020019060200280838360005b838110156106095781810151838201526020016105f1565b50505050905001878103835289818151815260200191508051906020019060200280838360005b83811015610648578181015183820152602001610630565b50505050905001878103825288818151815260200191508051906020019060200280838360005b8381101561068757818101518382015260200161066f565b505050509050019c5050505050505050505050505060405180910390f35b610228600480360360208110156106bb57600080fd5b810190602081018135600160201b8111156106d557600080fd5b8201836020820111156106e757600080fd5b803590602001918460208302840111600160201b8311171561070857600080fd5b919080806020026020016040519081016040528093929190818152602001838360200280828437600092019190915250929550611ffd945050505050565b6101f16004803603602081101561075c57600080fd5b5035612031565b6101f16004803603602081101561077957600080fd5b50356120c0565b6102286004803603602081101561079657600080fd5b5035612163565b610228600480360360208110156107b357600080fd5b810190602081018135600160201b8111156107cd57600080fd5b8201836020820111156107df57600080fd5b803590602001918460208302840111600160201b8311171561080057600080fd5b9190808060200260200160405190810160405280939291908181526020018383602002808284376000920191909152509295506121da945050505050565b6101f16004803603602081101561085457600080fd5b503561220a565b6108786004803603602081101561087157600080fd5b503561221e565b604080519687526001600160a01b039095166020870152921515858501529015156060850152608084015260a0830152519081900360c00190f35b6101f1600480360360408110156108c957600080fd5b50803590602001356001600160a01b0316612263565b610228600480360360208110156108f557600080fd5b5035612293565b6104de6004803603604081101561091257600080fd5b506001600160a01b038135169060200135612470565b6109456004803603602081101561093e57600080fd5b5035612525565b6040805197885295151560208801526001600160a01b03909416868601526060860192909252608085015260a084015260c0830152519081900360e00190f35b6104de6004803603602081101561099b57600080fd5b503561256e565b6109aa612703565b604080516001600160a01b039092168252519081900360200190f35b6109aa612708565b6109d6612717565b60408051602080825283518183015283519192839290830191858101910280838360005b83811015610a125781810151838201526020016109fa565b505050509050019250505060405180910390f35b6104f861282b565b6109aa612ba3565b6109aa612bb2565b60008181526003602052604090206001015460ff165b919050565b6000828152600360205260409020600181015461010090046001600160a01b03163314610a8557600080fd5b8060020154821115610a9657600080fd5b6006546040805163349f642f60e11b8152602060048201819052600a6024830152691b5a5b91195c1bdcda5d60b21b604483015291516001600160a01b039093169263693ec85e92606480840193919291829003018186803b158015610afb57600080fd5b505afa158015610b0f573d6000803e3d6000fd5b505050506040513d6020811015610b2557600080fd5b505160028201548390031015610b3a57600080fd5b6002810180548390039055600480546040805163a9059cbb60e01b8152339381019390935260248301859052516001600160a01b039091169163a9059cbb9160448083019260209291908290030181600087803b158015610b9a57600080fd5b505af1158015610bae573d6000803e3d6000fd5b505050506040513d6020811015610bc457600080fd5b5051610bcf57600080fd5b60028101546040805184815260208101929092528051339286927f9d9ed58779badf90c56d72f3b54def9f73dc875d8f86416c8334b55328c6c10692918290030190a3505050565b6007805460408051602060026001851615610100026000190190941693909304601f81018490048402820184019092528181529291830182828015610c9d5780601f10610c7257610100808354040283529160200191610c9d565b820191906000526020600020905b815481529060010190602001808311610c8057829003601f168201915b505050505081565b6000818152600360205260409020600181015461010090046001600160a01b03163314610cd157600080fd5b610cda82610a3e565b610ce357600080fd5b60038101541580610d125750600381015460009081526001602081905260409091200154600160a01b900460ff165b610d1b57600080fd5b60048101541580610d2f5750806005015442115b610d3857600080fd5b6006546040805163349f642f60e11b8152602060048201819052600d60248301526c6578697454696d6544656c617960981b60448301529151610dd9936001600160a01b03169263693ec85e9260648082019391829003018186803b158015610da057600080fd5b505afa158015610db4573d6000803e3d6000fd5b505050506040513d6020811015610dca57600080fd5b5051429063ffffffff612bc116565b6004808301919091556006546040805163349f642f60e11b81526020938101849052600d60248201526c32bc34ba2832b934b7b22632b760991b60448201529051610e88936001600160a01b039093169263693ec85e9260648082019391829003018186803b158015610e4b57600080fd5b505afa158015610e5f573d6000803e3d6000fd5b505050506040513d6020811015610e7557600080fd5b505160048301549063ffffffff612bc116565b6005820181905560048201546040805191825260208201929092528151339285927f4b137a01f77b8f1b4ccaca2abac799475d550c8adc298e399e75ee95d317b546929081900390910190a35050565b6000818152600360205260409020600181015461010090046001600160a01b03163314610f0457600080fd5b610f0d82610a3e565b610f1657600080fd5b60038101541580610f455750600381015460009081526001602081905260409091200154600160a01b900460ff165b610f4e57600080fd5b6000816004015411610f5f57600080fd5b428160040154108015610f755750806005015442105b610f7e57600080fd5b610f8782612c1b565b604051339083907f7d16ed55582bcf69d7bb762cda5b82042371fba7de3a8ebea4517079d892f52290600090a35050565b6000818152600360208190526040822001548015801590610ff3575060008181526001602081905260409091200154600160a01b900460ff16155b9392505050565b6000828152600360205260409020600181015461010090046001600160a01b0316331461102657600080fd5b6002810180548301905560048054604080516323b872dd60e01b8152339381019390935230602484015260448301859052516001600160a01b03909116916323b872dd9160648083019260209291908290030181600087803b15801561108b57600080fd5b505af115801561109f573d6000803e3d6000fd5b505050506040513d60208110156110b557600080fd5b50516110c057600080fd5b60028101546040805184815260208101929092528051339286927ff63fcfb210c709154f0260502b2586fcee5550d17dc828be3127ccdedec620ab92918290030190a3505050565b6001600160a01b0384161580159061112957506004546001600160a01b0316155b61113257600080fd5b6001600160a01b0383161580159061115357506005546001600160a01b0316155b61115c57600080fd5b6001600160a01b0382161580159061117d57506006546001600160a01b0316155b61118657600080fd5b600480546001600160a01b038087166001600160a01b03199283161790925560058054868416908316179055600680549285169290911691909117905580516111d6906007906020840190613a09565b5050505050565b6001600160a01b0384166111f081610a3e565b15611242576040805162461bcd60e51b815260206004820152601e60248201527f6c697374696e6748617368206973206e6f742077686974656c69737465640000604482015290519081900360640190fd5b61124b8161220a565b1561129d576040805162461bcd60e51b815260206004820181905260248201527f61707020776173206e6f74206d61646520666f72206c697374696e6748617368604482015290519081900360640190fd5b6006546040805163349f642f60e11b815260206004820181905260096024830152680e4caecd2caeea8c2f60bb1b604483015291516001600160a01b039093169263693ec85e92606480840193919291829003018186803b15801561130157600080fd5b505afa158015611315573d6000803e3d6000fd5b505050506040513d602081101561132b57600080fd5b50516006546040805163349f642f60e11b8152602060048201819052600a6024830152691b5a5b91195c1bdcda5d60b21b604483015291516001600160a01b039093169263693ec85e92606480840193919291829003018186803b15801561139257600080fd5b505afa1580156113a6573d6000803e3d6000fd5b505050506040513d60208110156113bc57600080fd5b5051018410156113fd5760405162461bcd60e51b815260040180806020018281038252602d815260200180613ba6602d913960400191505060405180910390fd5b6002805460018082019092557f405787fa12a823e0f2b7631cc41b3ba8828b3321ca811111fa75cd3aa3bb5ace018290556000828152600360209081526040918290209283018054610100600160a81b0319163361010002179055600654825163349f642f60e11b815260048101839052600d60248201526c30b838363ca9ba30b3b2a632b760991b604482015292516114be936001600160a01b039092169263693ec85e9260648082019391829003018186803b158015610da057600080fd5b815560028101859055600480546001830154604080516323b872dd60e01b81526001600160a01b0361010090930483169481019490945230602485015260448401899052519116916323b872dd9160648083019260209291908290030181600087803b15801561152d57600080fd5b505af1158015611541573d6000803e3d6000fd5b505050506040513d602081101561155757600080fd5b50516115945760405162461bcd60e51b8152600401808060200182810382526038815260200180613b4d6038913960400191505060405180910390fd5b61159d82612d8e565b50336001600160a01b0316827fa27f550c3c7a7c6d8369e5383fdc7a3b4850d8ce9e20066f9d496f6989f00864878460000154888860405180858152602001848152602001806020018281038252848482818152602001925080828437600083820152604051601f909101601f191690920182900397509095505050505050a3505050505050565b6000838152600360209081526040808320600654825163349f642f60e11b815260048101859052600a6024820152691b5a5b91195c1bdcda5d60b21b60448201529251919385936001600160a01b039092169263693ec85e926064808201939291829003018186803b15801561169a57600080fd5b505afa1580156116ae573d6000803e3d6000fd5b505050506040513d60208110156116c457600080fd5b505190506116d18661220a565b806116e05750600182015460ff165b6116e957600080fd5b600382015415806117185750600382015460009081526001602081905260409091200154600160a01b900460ff165b61172157600080fd5b808260020154101561176c5761173686612c1b565b60405186907f4a9ee335af9e32f32f2229943dc7a0d3b5adf7e4c5c4062b372eae8c476d928690600090a2600092505050610ff3565b6005546006546040805163349f642f60e11b815260206004820181905260136024830152726368616c6c656e6765566f746551756f72756d60681b604483015291516000946001600160a01b03908116946332ed3d609491169263693ec85e9260648083019392829003018186803b1580156117e757600080fd5b505afa1580156117fb573d6000803e3d6000fd5b505050506040513d602081101561181157600080fd5b50516006546040805163349f642f60e11b8152602060048201819052600e60248301526d31b7b6b6b4ba29ba30b3b2a632b760911b604483015291516001600160a01b039093169263693ec85e92606480840193919291829003018186803b15801561187c57600080fd5b505afa158015611890573d6000803e3d6000fd5b505050506040513d60208110156118a657600080fd5b50516006546040805163349f642f60e11b8152602060048201819052600e60248301526d3932bb32b0b629ba30b3b2a632b760911b604483015291516001600160a01b039093169263693ec85e92606480840193919291829003018186803b15801561191157600080fd5b505afa158015611925573d6000803e3d6000fd5b505050506040513d602081101561193b57600080fd5b5051604080516001600160e01b031960e087901b1681526004810194909452602484019290925260448301525160648083019260209291908290030181600087803b15801561198957600080fd5b505af115801561199d573d6000803e3d6000fd5b505050506040513d60208110156119b357600080fd5b50516040805160c0810180835260065463349f642f60e11b909152602060c48301819052600f60e48401526e191a5cdc195b9cd85d1a5bdb9418dd608a1b610104840152925193945060649391928392611a92928692611a86928a92611a7a926001600160a01b039091169163693ec85e91610124808b019290818c03018186803b158015611a4157600080fd5b505afa158015611a55573d6000803e3d6000fd5b505050506040513d6020811015611a6b57600080fd5b5051889063ffffffff61333216565b9063ffffffff61337416565b9063ffffffff6133cd16565b815233602080830182905260006040808501829052606080860183905260808087018b905260a09687018490528984526001808652838520895181558987015181830180548c880151968d01516001600160a01b03199091166001600160a01b039384161760ff60a01b1916600160a01b971515979097029690961760ff60a81b1916600160a81b9615159690960295909517909455918901516002808401919091559890970151600391820155835496870184558380527f290decd9548b62a8d60345a988386fc84ba6bc95484008f6362f93160ef3e563909601899055948a01889055948901805489900390556004805486516323b872dd60e01b81529182019490945230602482015260448101899052945192909316936323b872dd93606480830194928390030190829087803b158015611bcf57600080fd5b505af1158015611be3573d6000803e3d6000fd5b505050506040513d6020811015611bf957600080fd5b5051611c0457600080fd5b60055460408051636148fed560e01b815260048101859052905160009283926001600160a01b0390911691636148fed59160248082019260a092909190829003018186803b158015611c5557600080fd5b505afa158015611c69573d6000803e3d6000fd5b505050506040513d60a0811015611c7f57600080fd5b508051602091820151604080518881529081018390526060810182905260809381018481529381018c9052919450925033918c917ff98a08756a3603420a080d66764f73deb1e30896c315cfed03e17f88f5eb30f79188918e918e91899189919060a08201868680828437600083820152604051601f909101601f19169092018290039850909650505050505050a3509198975050505050505050565b6060806060806060806060600080549050604051908082528060200260200182016040528015611d56578160200160208202803883390190505b5090506060600080549050604051908082528060200260200182016040528015611d8a578160200160208202803883390190505b5090506060600080549050604051908082528060200260200182016040528015611dbe578160200160208202803883390190505b5090506060600080549050604051908082528060200260200182016040528015611df2578160200160208202803883390190505b5090506060600080549050604051908082528060200260200182016040528015611e26578160200160208202803883390190505b5090506060600080549050604051908082528060200260200182016040528015611e5a578160200160208202803883390190505b50905060005b600054811015611fe957611e72613a87565b60016000808481548110611e8257fe5b600091825260208083209091015483528281019390935260409182018120825160c0810184528154815260018201546001600160a01b0381169582019590955260ff600160a01b86048116151594820194909452600160a81b909404909216151560608401526002820154608084015260039091015460a083015280549192509083908110611f0d57fe5b9060005260206000200154888381518110611f2457fe5b6020026020010181815250508060000151878381518110611f4157fe5b6020026020010181815250508060200151868381518110611f5e57fe5b60200260200101906001600160a01b031690816001600160a01b0316815250508060600151858381518110611f8f57fe5b6020026020010190151590811515815250508060400151848381518110611fb257fe5b6020026020010190151590811515815250508060a00151838381518110611fd557fe5b602090810291909101015250600101611e60565b50949b939a50919850965094509092509050565b60005b815181101561202d5761202582828151811061201857fe5b6020026020010151612293565b600101612000565b5050565b60008181526003602081905260408220015461204c8361220a565b8015612065575060008381526003602052604090205442115b8015612077575061207583610a3e565b155b80156120a857508015806120a857506000818152600160208190526040909120810154600160a01b900460ff161515145b156120b7576001915050610a54565b50600092915050565b6000818152600360208190526040822001546120db83610fb8565b6120e457600080fd5b60055460408051630ee6848360e41b81526004810184905290516001600160a01b039092169163ee68483091602480820192602092909190829003018186803b15801561213057600080fd5b505afa158015612144573d6000803e3d6000fd5b505050506040513d602081101561215a57600080fd5b50519392505050565b61216c81612031565b1561217f5761217a8161340f565b6121d7565b612188816120c0565b156121965761217a81613474565b6040805162461bcd60e51b81526020600482015260116024820152704e6f7468696e6720746f2075706461746560781b604482015290519081900360640190fd5b50565b60005b815181101561202d576122028282815181106121f557fe5b6020026020010151612163565b6001016121dd565b600090815260036020526040902054151590565b600160208190526000918252604090912080549181015460028201546003909201546001600160a01b0382169260ff600160a01b8404811693600160a81b9004169186565b60008281526001602090815260408083206001600160a01b038516845260040190915290205460ff165b92915050565b6000818152600160209081526040808320338452600481019092529091205460ff16156122bf57600080fd5b600181810154600160a01b900460ff161515146122db57600080fd5b60055460408051630c03fbd760e01b81523360048201526024810185905290516000926001600160a01b031691630c03fbd7916044808301926020929190829003018186803b15801561232d57600080fd5b505afa158015612341573d6000803e3d6000fd5b505050506040513d602081101561235757600080fd5b50516003830154835491925060009161237c9190611a8690859063ffffffff61337416565b600384018054849003905583548190038455336000818152600480870160209081526040808420805460ff191660011790558254815163a9059cbb60e01b81529384019590955260248301869052519495506001600160a01b039093169363a9059cbb9360448084019491938390030190829087803b1580156123fe57600080fd5b505af1158015612412573d6000803e3d6000fd5b505050506040513d602081101561242857600080fd5b505161243357600080fd5b604080518281529051339186917f6f4c982acc31b0af2cf1dc1556f21c0325d893782d65e83c68a5534a33f599579181900360200190a350505050565b6000818152600160209081526040808320600381015490546005548351630c03fbd760e01b81526001600160a01b038981166004830152602482018990529451939592948794921692630c03fbd792604480840193829003018186803b1580156124d957600080fd5b505afa1580156124ed573d6000803e3d6000fd5b505050506040513d602081101561250357600080fd5b5051905061251b83611a86838563ffffffff61337416565b9695505050505050565b6003602081905260009182526040909120805460018201546002830154938301546004840154600590940154929460ff8316946101009093046001600160a01b03169390929087565b600081815260016020819052604082200154600160a01b900460ff1615801561260b575060055460408051630ee6848360e41b81526004810185905290516001600160a01b039092169163ee68483091602480820192602092909190829003018186803b1580156125de57600080fd5b505afa1580156125f2573d6000803e3d6000fd5b505050506040513d602081101561260857600080fd5b50515b61261457600080fd5b60008281526001602081905260409091200154600160a81b900460ff161561264e5750600081815260016020526040902060020154610a54565b6005546040805163029f38d360e11b81526004810185905290516001600160a01b039092169163053e71a691602480820192602092909190829003018186803b15801561269a57600080fd5b505afa1580156126ae573d6000803e3d6000fd5b505050506040513d60208110156126c457600080fd5b50516126e55750600081815260016020526040902060029081015402610a54565b50600090815260016020526040902080546002918201549091020390565b335b90565b6006546001600160a01b031681565b60606000805b60025481101561276e57600360006002838154811061273857fe5b6000918252602080832090910154835282019290925260400190206001015460ff1615612766576001909101905b60010161271d565b5060608160405190808252806020026020018201604052801561279b578160200160208202803883390190505b50600092509050815b6002548110156128245760036000600283815481106127bf57fe5b6000918252602080832090910154835282019290925260400190206001015460ff161561281c57600281815481106127f357fe5b906000526020600020015482848151811061280a57fe5b60209081029190910101526001909201915b6001016127a4565b5091505090565b6060806060806060806060600280549050604051908082528060200260200182016040528015612865578160200160208202803883390190505b5090506060600280549050604051908082528060200260200182016040528015612899578160200160208202803883390190505b50905060606002805490506040519080825280602002602001820160405280156128cd578160200160208202803883390190505b5090506060600280549050604051908082528060200260200182016040528015612901578160200160208202803883390190505b5090506060600280549050604051908082528060200260200182016040528015612935578160200160208202803883390190505b5090506060600280549050604051908082528060200260200182016040528015612969578160200160208202803883390190505b509050606060028054905060405190808252806020026020018201604052801561299d578160200160208202803883390190505b50905060005b600254811015612b2e576129b5613aca565b60036000600284815481106129c657fe5b60009182526020808320919091015483528281019390935260409182019020815160e0810183528154808252600183015460ff81161515958301959095526101009094046001600160a01b0316928101929092526002810154606083015260038101546080830152600481015460a08301526005015460c08201528a519092508a9084908110612a5257fe5b6020026020010181815250508060200151888381518110612a6f57fe5b6020026020010190151590811515815250508060400151878381518110612a9257fe5b60200260200101906001600160a01b031690816001600160a01b0316815250508060600151868381518110612ac357fe5b6020026020010181815250508060800151858381518110612ae057fe5b6020026020010181815250508060a00151848381518110612afd57fe5b6020026020010181815250508060c00151838381518110612b1a57fe5b6020908102919091010152506001016129a3565b506002878787878785805480602002602001604051908101604052809291908181526020018280548015612b8157602002820191906000526020600020905b815481526020019060010190808311612b6d575b505050505095509c509c509c509c509c509c5050505050505050909192939495565b6004546001600160a01b031681565b6005546001600160a01b031681565b600082820183811015610ff3576040805162461bcd60e51b815260206004820152601b60248201527f536166654d6174683a206164646974696f6e206f766572666c6f770000000000604482015290519081900360640190fd5b6000818152600360205260409020600181015460ff1615612c665760405182907fd1ffb796b7108387b2f02adf47b4b81a1690cf2a190422c87a4f670780103e6390600090a2612c92565b60405182907f2e5ec035f6eac8ff1cf7cdf36cfeca7c85413f9f67652dc2c13d20f337204a2690600090a25b6001818101546002808401546000868152600360208190526040822082815595860180546001600160a81b03191690559285018190559184018290556004840182905560059093015561010090046001600160a01b031690612cf38461379d565b8015612d8857600480546040805163a9059cbb60e01b81526001600160a01b0386811694820194909452602481018590529051929091169163a9059cbb916044808201926020929091908290030181600087803b158015612d5357600080fd5b505af1158015612d67573d6000803e3d6000fd5b505050506040513d6020811015612d7d57600080fd5b5051612d8857600080fd5b50505050565b6000818152600360209081526040808320600654825163349f642f60e11b81526004810185905260096024820152680e4caecd2caeea8c2f60bb1b60448201529251919385936001600160a01b039092169263693ec85e926064808201939291829003018186803b158015612e0257600080fd5b505afa158015612e16573d6000803e3d6000fd5b505050506040513d6020811015612e2c57600080fd5b50516006546040805163349f642f60e11b8152602060048201819052600a6024830152691b5a5b91195c1bdcda5d60b21b604483015291519394506000936001600160a01b039093169263693ec85e92606480840193919291829003018186803b158015612e9957600080fd5b505afa158015612ead573d6000803e3d6000fd5b505050506040513d6020811015612ec357600080fd5b50516005546006546040805163349f642f60e11b8152602060048201819052601060248301526f726576696577566f746551756f72756d60801b604483015291519495506000946001600160a01b03948516946332ed3d6094169263693ec85e9260648082019391829003018186803b158015612f3f57600080fd5b505afa158015612f53573d6000803e3d6000fd5b505050506040513d6020811015612f6957600080fd5b50516006546040805163349f642f60e11b8152602060048201819052600d60248301526c30b838363ca9ba30b3b2a632b760991b60448301529151613010936002936001600160a01b039091169263693ec85e9260648083019392829003018186803b158015612fd857600080fd5b505afa158015612fec573d6000803e3d6000fd5b505050506040513d602081101561300257600080fd5b50519063ffffffff6133cd16565b6006546040805163349f642f60e11b8152602060048201819052600d60248301526c30b838363ca9ba30b3b2a632b760991b6044830152915161307d936002936001600160a01b039091169263693ec85e9260648083019392829003018186803b158015612fd857600080fd5b6040518463ffffffff1660e01b8152600401808481526020018381526020018281526020019350505050602060405180830381600087803b1580156130c157600080fd5b505af11580156130d5573d6000803e3d6000fd5b505050506040513d60208110156130eb57600080fd5b50516040805160c0810182528581523360208083019182526000838501818152600160608601818152608087018b815260a088018581528a86528387528986209851895596518884018054955193516001600160a01b03199096166001600160a01b039283161760ff60a01b1916600160a01b941515949094029390931760ff60a81b1916600160a81b95151595909502949094179091555160028701559351600395860155815493840182559080527f290decd9548b62a8d60345a988386fc84ba6bc95484008f6362f93160ef3e563909201859055918801849055600654835163349f642f60e11b815260048101849052600a6024820152691b5a5b91195c1bdcda5d60b21b60448201529351949550169263693ec85e926064808201939291829003018186803b15801561322157600080fd5b505afa158015613235573d6000803e3d6000fd5b505050506040513d602081101561324b57600080fd5b505160028501805491909103849003905560055460408051636148fed560e01b815260048101849052905160009283926001600160a01b0390911691636148fed59160248082019260a092909190829003018186803b1580156132ad57600080fd5b505afa1580156132c1573d6000803e3d6000fd5b505050506040513d60a08110156132d757600080fd5b5080516020918201516040805187815293840183905283810182905251919450925089917f3ccc67a1842348fa7bbc39483f60c45c599d493257d3bc9bab3663c9e8f439ea919081900360600190a250909695505050505050565b6000610ff383836040518060400160405280601e81526020017f536166654d6174683a207375627472616374696f6e206f766572666c6f770000815250613858565b6000826133835750600061228d565b8282028284828161339057fe5b0414610ff35760405162461bcd60e51b8152600401808060200182810382526021815260200180613b856021913960400191505060405180910390fd5b6000610ff383836040518060400160405280601a81526020017f536166654d6174683a206469766973696f6e206279207a65726f0000000000008152506138ef565b60008181526003602052604090206001015460ff166134545760405181907fa7bc1d57d9006d9d248707c7b6828c1bab8c51719cc06d78c82a3ee891ef967c90600090a25b60009081526003602052604090206001908101805460ff19169091179055565b600081815260036020819052604082200154906134908261256e565b600083815260016020818152604092839020909101805460ff60a01b1916600160a01b179055600554825163029f38d360e11b81526004810187905292519394506001600160a01b03169263053e71a6926024808201939291829003018186803b1580156134fd57600080fd5b505afa158015613511573d6000803e3d6000fd5b505050506040513d602081101561352757600080fd5b505160008381526001602052604090206003015561354482613954565b60055460408051634940318360e01b81526004810185905290516001600160a01b0390921691634940318391602480820192602092909190829003018186803b15801561359057600080fd5b505afa1580156135a4573d6000803e3d6000fd5b505050506040513d60208110156135ba57600080fd5b50511561365d576135ca8361340f565b60008381526003602090815260408083206002018054850190558483526001918290529091200154600160a81b900460ff166136585760008281526001602090815260409182902080546003909101548351918252918101919091528151849286927fc4497224aa78dd50c9b3e344aab02596201ca1e6dca4057a91a6c02f83f4f6c1929081900390910190a35b613798565b61366683612c1b565b60008281526001602081905260409091200154600160a81b900460ff16156136a1576000828152600160205260409020805482019055613740565b60048054600084815260016020818152604080842090920154825163a9059cbb60e01b81526001600160a01b0391821696810196909652602486018790529151919093169363a9059cbb936044808301949193928390030190829087803b15801561370b57600080fd5b505af115801561371f573d6000803e3d6000fd5b505050506040513d602081101561373557600080fd5b505161374057600080fd5b60008281526001602090815260409182902080546003909101548351918252918101919091528151849286927f362a12431f779a2baff4f77f75ba7960ae993a5c41b425df11f7fd0af2b9cbe6929081900390910190a35b505050565b60005b6002546000190181101561202d5781600282815481106137bc57fe5b9060005260206000200154141561385057805b6002546000190181101561381957600281600101815481106137ed57fe5b90600052602060002001546002828154811061380557fe5b6000918252602090912001556001016137cf565b5060028054600019810190811061382c57fe5b6000918252602082200155600280549061384a906000198301613b12565b5061202d565b6001016137a0565b600081848411156138e75760405162461bcd60e51b81526004018080602001828103825283818151815260200191508051906020019080838360005b838110156138ac578181015183820152602001613894565b50505050905090810190601f1680156138d95780820380516001836020036101000a031916815260200191505b509250505060405180910390fd5b505050900390565b6000818361393e5760405162461bcd60e51b81526020600482018181528351602484015283519092839260449091019190850190808383600083156138ac578181015183820152602001613894565b50600083858161394a57fe5b0495945050505050565b60005b6000546000190181101561202d57816000828154811061397357fe5b90600052602060002001541415613a0157805b600054600019018110156139d057600081600101815481106139a457fe5b9060005260206000200154600082815481106139bc57fe5b600091825260209091200155600101613986565b506000805460001981019081106139e357fe5b6000918252602082200181905580549061384a906000198301613b12565b600101613957565b828054600181600116156101000203166002900490600052602060002090601f016020900481019282601f10613a4a57805160ff1916838001178555613a77565b82800160010185558215613a77579182015b82811115613a77578251825591602001919060010190613a5c565b50613a83929150613b32565b5090565b6040518060c001604052806000815260200160006001600160a01b0316815260200160001515815260200160001515815260200160008152602001600081525090565b6040518060e001604052806000815260200160001515815260200160006001600160a01b03168152602001600081526020016000815260200160008152602001600081525090565b815481835581811115613798576000838152602090206137989181019083015b61270591905b80821115613a835760008155600101613b3856fe4661696c656420746f207472616e7366657220746f6b656e732066726f6d207573657220746f20526567697374727920636f6e7472616374536166654d6174683a206d756c7469706c69636174696f6e206f766572666c6f77616d6f756e7420697320736d616c6c6572207468656e206d696e4465706f736974202b20726576696577546178a265627a7a7231582066143690c21103c04329b24e38cc86f6d540c1dbb24221214a5b27cb31f9237c64736f6c63430005110032",
  "source": "pragma solidity ^0.5.17;\n\nimport \"../tokens/GOV.sol\";\nimport \"./ParameterizerFactory.sol\";\nimport \"./Registry.sol\";\nimport \"./PLCR/PLCRVoting.sol\";\nimport \"./Parameterizer.sol\";\n\ncontract RegistryFactory {\n\n    event NewRegistry(address creator, GOV token, PLCRVoting plcr, Parameterizer parameterizer, Registry registry);\n\n    ParameterizerFactory public parameterizerFactory;\n    ProxyFactory public proxyFactory;\n    Registry public canonizedRegistry;\n\n    /// @dev constructor deploys a new proxyFactory.\n    constructor(ParameterizerFactory _parameterizerFactory) public {\n        parameterizerFactory = _parameterizerFactory;\n        proxyFactory = parameterizerFactory.proxyFactory();\n        canonizedRegistry = new Registry();\n    }\n\n    /*\n    @dev deploys and initializes a new Registry contract that consumes a token at an address\n        supplied by the user.\n    @param _token           an GOV token to be consumed by the new Registry contract\n    */\n    function newRegistryBYOToken(\n        GOV _token,\n        uint[] memory _parameters,\n        string memory _name\n    ) public returns (Registry) {\n        Parameterizer parameterizer = parameterizerFactory.newParameterizerBYOToken(_token, _parameters);\n        PLCRVoting plcr = parameterizer.voting();\n\n        Registry registry = Registry(proxyFactory.createProxy(address(canonizedRegistry), \"\"));\n        registry.init(address(_token), address(plcr), address(parameterizer), _name);\n\n        emit NewRegistry(msg.sender, _token, plcr, parameterizer, registry);\n        return registry;\n    }\n\n    /*\n    @dev deploys and initializes a new Registry contract, an GOV, a PLCRVoting, and Parameterizer\n        to be consumed by the Registry's initializer.\n    @param _supply          the total number of tokens to mint in the GOV contract\n    @param _name            the name of the new GOV token\n    @param _decimals        the decimal precision to be used in rendering balances in the GOV token\n    @param _symbol          the symbol of the new GOV token\n    */\n    function newRegistryWithToken(\n        uint _supply,\n        string memory _tokenName,\n        uint8 _decimals,\n        string memory _symbol,\n        uint[] memory _parameters,\n        string memory _registryName\n    ) public returns (Registry) {\n        // Creates a new GOV token & transfers the supply to creator (msg.sender)\n        // Deploys & initializes (1) PLCRVoting contract & (2) Parameterizer contract\n        Parameterizer parameterizer = parameterizerFactory.newParameterizerWithToken(_supply, _tokenName, _decimals, _symbol, _parameters);\n        GOV token = GOV(parameterizer.token());\n        token.transfer(msg.sender, _supply);\n        PLCRVoting plcr = parameterizer.voting();\n\n        // Create & initialize a new Registry contract\n        Registry registry = Registry(proxyFactory.createProxy(address(canonizedRegistry), \"\"));\n        registry.init(address(token), address(plcr), address(parameterizer), _registryName);\n\n        emit NewRegistry(msg.sender, token, plcr, parameterizer, registry);\n        return registry;\n    }\n}\n\n",
  "sourcePath": "/home/cantonioupao/susDAO-saveMe/FIN4Contracts/contracts/tcr/RegistryFactory.sol",
  "compiler": {
    "name": "solc",
    "version": "0.5.17+commit.d19bba13.Emscripten.clang"
  },
  "schemaVersion": "3.3.1",
  "updatedAt": "2020-12-03T18:31:09.902Z",
  "devdoc": {
    "methods": {
      "constructor": {
        "details": "constructor deploys a new proxyFactory."
      }
    }
  },
  "userdoc": {
    "methods": {}
  }
}