{
  "contractName": "Registry",
  "abi": [
    {
      "anonymous": false,
      "inputs": [
        {
          "indexed": true,
          "internalType": "bytes32",
          "name": "listingHash",
          "type": "bytes32"
        },
        {
          "indexed": false,
          "internalType": "uint256",
          "name": "deposit",
          "type": "uint256"
        },
        {
          "indexed": false,
          "internalType": "uint256",
          "name": "appEndDate",
          "type": "uint256"
        },
        {
          "indexed": false,
          "internalType": "string",
          "name": "data",
          "type": "string"
        },
        {
          "indexed": true,
          "internalType": "address",
          "name": "applicant",
          "type": "address"
        }
      ],
      "name": "_Application",
      "type": "event"
    },
    {
      "anonymous": false,
      "inputs": [
        {
          "indexed": true,
          "internalType": "bytes32",
          "name": "listingHash",
          "type": "bytes32"
        }
      ],
      "name": "_ApplicationRemoved",
      "type": "event"
    },
    {
      "anonymous": false,
      "inputs": [
        {
          "indexed": true,
          "internalType": "bytes32",
          "name": "listingHash",
          "type": "bytes32"
        }
      ],
      "name": "_ApplicationWhitelisted",
      "type": "event"
    },
    {
      "anonymous": false,
      "inputs": [
        {
          "indexed": true,
          "internalType": "bytes32",
          "name": "listingHash",
          "type": "bytes32"
        },
        {
          "indexed": false,
          "internalType": "uint256",
          "name": "challengeID",
          "type": "uint256"
        },
        {
          "indexed": false,
          "internalType": "string",
          "name": "data",
          "type": "string"
        },
        {
          "indexed": false,
          "internalType": "uint256",
          "name": "commitEndDate",
          "type": "uint256"
        },
        {
          "indexed": false,
          "internalType": "uint256",
          "name": "revealEndDate",
          "type": "uint256"
        },
        {
          "indexed": true,
          "internalType": "address",
          "name": "challenger",
          "type": "address"
        }
      ],
      "name": "_Challenge",
      "type": "event"
    },
    {
      "anonymous": false,
      "inputs": [
        {
          "indexed": true,
          "internalType": "bytes32",
          "name": "listingHash",
          "type": "bytes32"
        },
        {
          "indexed": true,
          "internalType": "uint256",
          "name": "challengeID",
          "type": "uint256"
        },
        {
          "indexed": false,
          "internalType": "uint256",
          "name": "rewardPool",
          "type": "uint256"
        },
        {
          "indexed": false,
          "internalType": "uint256",
          "name": "totalTokens",
          "type": "uint256"
        }
      ],
      "name": "_ChallengeFailed",
      "type": "event"
    },
    {
      "anonymous": false,
      "inputs": [
        {
          "indexed": true,
          "internalType": "bytes32",
          "name": "listingHash",
          "type": "bytes32"
        },
        {
          "indexed": true,
          "internalType": "uint256",
          "name": "challengeID",
          "type": "uint256"
        },
        {
          "indexed": false,
          "internalType": "uint256",
          "name": "rewardPool",
          "type": "uint256"
        },
        {
          "indexed": false,
          "internalType": "uint256",
          "name": "totalTokens",
          "type": "uint256"
        }
      ],
      "name": "_ChallengeSucceeded",
      "type": "event"
    },
    {
      "anonymous": false,
      "inputs": [
        {
          "indexed": true,
          "internalType": "bytes32",
          "name": "listingHash",
          "type": "bytes32"
        },
        {
          "indexed": false,
          "internalType": "uint256",
          "name": "added",
          "type": "uint256"
        },
        {
          "indexed": false,
          "internalType": "uint256",
          "name": "newTotal",
          "type": "uint256"
        },
        {
          "indexed": true,
          "internalType": "address",
          "name": "owner",
          "type": "address"
        }
      ],
      "name": "_Deposit",
      "type": "event"
    },
    {
      "anonymous": false,
      "inputs": [
        {
          "indexed": true,
          "internalType": "bytes32",
          "name": "listingHash",
          "type": "bytes32"
        },
        {
          "indexed": false,
          "internalType": "uint256",
          "name": "exitTime",
          "type": "uint256"
        },
        {
          "indexed": false,
          "internalType": "uint256",
          "name": "exitDelayEndDate",
          "type": "uint256"
        },
        {
          "indexed": true,
          "internalType": "address",
          "name": "owner",
          "type": "address"
        }
      ],
      "name": "_ExitInitialized",
      "type": "event"
    },
    {
      "anonymous": false,
      "inputs": [
        {
          "indexed": true,
          "internalType": "bytes32",
          "name": "listingHash",
          "type": "bytes32"
        }
      ],
      "name": "_ListingRemoved",
      "type": "event"
    },
    {
      "anonymous": false,
      "inputs": [
        {
          "indexed": true,
          "internalType": "bytes32",
          "name": "listingHash",
          "type": "bytes32"
        },
        {
          "indexed": true,
          "internalType": "address",
          "name": "owner",
          "type": "address"
        }
      ],
      "name": "_ListingWithdrawn",
      "type": "event"
    },
    {
      "anonymous": false,
      "inputs": [
        {
          "indexed": true,
          "internalType": "bytes32",
          "name": "listingHash",
          "type": "bytes32"
        },
        {
          "indexed": false,
          "internalType": "uint256",
          "name": "reviewID",
          "type": "uint256"
        },
        {
          "indexed": false,
          "internalType": "uint256",
          "name": "commitEndDate",
          "type": "uint256"
        },
        {
          "indexed": false,
          "internalType": "uint256",
          "name": "revealEndDate",
          "type": "uint256"
        }
      ],
      "name": "_Review",
      "type": "event"
    },
    {
      "anonymous": false,
      "inputs": [
        {
          "indexed": true,
          "internalType": "uint256",
          "name": "challengeID",
          "type": "uint256"
        },
        {
          "indexed": false,
          "internalType": "uint256",
          "name": "reward",
          "type": "uint256"
        },
        {
          "indexed": true,
          "internalType": "address",
          "name": "voter",
          "type": "address"
        }
      ],
      "name": "_RewardClaimed",
      "type": "event"
    },
    {
      "anonymous": false,
      "inputs": [
        {
          "indexed": true,
          "internalType": "bytes32",
          "name": "listingHash",
          "type": "bytes32"
        }
      ],
      "name": "_TouchAndRemoved",
      "type": "event"
    },
    {
      "anonymous": false,
      "inputs": [
        {
          "indexed": true,
          "internalType": "bytes32",
          "name": "listingHash",
          "type": "bytes32"
        },
        {
          "indexed": false,
          "internalType": "uint256",
          "name": "withdrew",
          "type": "uint256"
        },
        {
          "indexed": false,
          "internalType": "uint256",
          "name": "newTotal",
          "type": "uint256"
        },
        {
          "indexed": true,
          "internalType": "address",
          "name": "owner",
          "type": "address"
        }
      ],
      "name": "_Withdrawal",
      "type": "event"
    },
    {
      "constant": true,
      "inputs": [
        {
          "internalType": "uint256",
          "name": "",
          "type": "uint256"
        }
      ],
      "name": "challenges",
      "outputs": [
        {
          "internalType": "uint256",
          "name": "rewardPool",
          "type": "uint256"
        },
        {
          "internalType": "address",
          "name": "challenger",
          "type": "address"
        },
        {
          "internalType": "bool",
          "name": "resolved",
          "type": "bool"
        },
        {
          "internalType": "bool",
          "name": "isReview",
          "type": "bool"
        },
        {
          "internalType": "uint256",
          "name": "stake",
          "type": "uint256"
        },
        {
          "internalType": "uint256",
          "name": "totalTokens",
          "type": "uint256"
        }
      ],
      "payable": false,
      "stateMutability": "view",
      "type": "function"
    },
    {
      "constant": true,
      "inputs": [
        {
          "internalType": "bytes32",
          "name": "",
          "type": "bytes32"
        }
      ],
      "name": "listings",
      "outputs": [
        {
          "internalType": "uint256",
          "name": "applicationExpiry",
          "type": "uint256"
        },
        {
          "internalType": "bool",
          "name": "whitelisted",
          "type": "bool"
        },
        {
          "internalType": "address",
          "name": "owner",
          "type": "address"
        },
        {
          "internalType": "uint256",
          "name": "unstakedDeposit",
          "type": "uint256"
        },
        {
          "internalType": "uint256",
          "name": "challengeID",
          "type": "uint256"
        },
        {
          "internalType": "uint256",
          "name": "exitTime",
          "type": "uint256"
        },
        {
          "internalType": "uint256",
          "name": "exitTimeExpiry",
          "type": "uint256"
        }
      ],
      "payable": false,
      "stateMutability": "view",
      "type": "function"
    },
    {
      "constant": true,
      "inputs": [],
      "name": "name",
      "outputs": [
        {
          "internalType": "string",
          "name": "",
          "type": "string"
        }
      ],
      "payable": false,
      "stateMutability": "view",
      "type": "function"
    },
    {
      "constant": true,
      "inputs": [],
      "name": "parameterizer",
      "outputs": [
        {
          "internalType": "contract Parameterizer",
          "name": "",
          "type": "address"
        }
      ],
      "payable": false,
      "stateMutability": "view",
      "type": "function"
    },
    {
      "constant": true,
      "inputs": [],
      "name": "token",
      "outputs": [
        {
          "internalType": "contract GOV",
          "name": "",
          "type": "address"
        }
      ],
      "payable": false,
      "stateMutability": "view",
      "type": "function"
    },
    {
      "constant": true,
      "inputs": [],
      "name": "voting",
      "outputs": [
        {
          "internalType": "contract PLCRVoting",
          "name": "",
          "type": "address"
        }
      ],
      "payable": false,
      "stateMutability": "view",
      "type": "function"
    },
    {
      "constant": false,
      "inputs": [
        {
          "internalType": "address",
          "name": "_token",
          "type": "address"
        },
        {
          "internalType": "address",
          "name": "_voting",
          "type": "address"
        },
        {
          "internalType": "address",
          "name": "_parameterizer",
          "type": "address"
        },
        {
          "internalType": "string",
          "name": "_name",
          "type": "string"
        }
      ],
      "name": "init",
      "outputs": [],
      "payable": false,
      "stateMutability": "nonpayable",
      "type": "function"
    },
    {
      "constant": false,
      "inputs": [
        {
          "internalType": "address",
          "name": "tokenAddress",
          "type": "address"
        },
        {
          "internalType": "uint256",
          "name": "_amount",
          "type": "uint256"
        },
        {
          "internalType": "string",
          "name": "_data",
          "type": "string"
        }
      ],
      "name": "applyToken",
      "outputs": [],
      "payable": false,
      "stateMutability": "nonpayable",
      "type": "function"
    },
    {
      "constant": false,
      "inputs": [
        {
          "internalType": "bytes32",
          "name": "_listingHash",
          "type": "bytes32"
        },
        {
          "internalType": "uint256",
          "name": "_amount",
          "type": "uint256"
        }
      ],
      "name": "deposit",
      "outputs": [],
      "payable": false,
      "stateMutability": "nonpayable",
      "type": "function"
    },
    {
      "constant": false,
      "inputs": [
        {
          "internalType": "bytes32",
          "name": "_listingHash",
          "type": "bytes32"
        },
        {
          "internalType": "uint256",
          "name": "_amount",
          "type": "uint256"
        }
      ],
      "name": "withdraw",
      "outputs": [],
      "payable": false,
      "stateMutability": "nonpayable",
      "type": "function"
    },
    {
      "constant": false,
      "inputs": [
        {
          "internalType": "bytes32",
          "name": "_listingHash",
          "type": "bytes32"
        }
      ],
      "name": "initExit",
      "outputs": [],
      "payable": false,
      "stateMutability": "nonpayable",
      "type": "function"
    },
    {
      "constant": false,
      "inputs": [
        {
          "internalType": "bytes32",
          "name": "_listingHash",
          "type": "bytes32"
        }
      ],
      "name": "finalizeExit",
      "outputs": [],
      "payable": false,
      "stateMutability": "nonpayable",
      "type": "function"
    },
    {
      "constant": false,
      "inputs": [
        {
          "internalType": "bytes32",
          "name": "_listingHash",
          "type": "bytes32"
        },
        {
          "internalType": "string",
          "name": "_data",
          "type": "string"
        }
      ],
      "name": "challenge",
      "outputs": [
        {
          "internalType": "uint256",
          "name": "challengeID",
          "type": "uint256"
        }
      ],
      "payable": false,
      "stateMutability": "nonpayable",
      "type": "function"
    },
    {
      "constant": false,
      "inputs": [
        {
          "internalType": "bytes32",
          "name": "_listingHash",
          "type": "bytes32"
        }
      ],
      "name": "updateStatus",
      "outputs": [],
      "payable": false,
      "stateMutability": "nonpayable",
      "type": "function"
    },
    {
      "constant": false,
      "inputs": [
        {
          "internalType": "bytes32[]",
          "name": "_listingHashes",
          "type": "bytes32[]"
        }
      ],
      "name": "updateStatuses",
      "outputs": [],
      "payable": false,
      "stateMutability": "nonpayable",
      "type": "function"
    },
    {
      "constant": false,
      "inputs": [
        {
          "internalType": "uint256",
          "name": "_challengeID",
          "type": "uint256"
        }
      ],
      "name": "claimReward",
      "outputs": [],
      "payable": false,
      "stateMutability": "nonpayable",
      "type": "function"
    },
    {
      "constant": false,
      "inputs": [
        {
          "internalType": "uint256[]",
          "name": "_challengeIDs",
          "type": "uint256[]"
        }
      ],
      "name": "claimRewards",
      "outputs": [],
      "payable": false,
      "stateMutability": "nonpayable",
      "type": "function"
    },
    {
      "constant": true,
      "inputs": [
        {
          "internalType": "address",
          "name": "_voter",
          "type": "address"
        },
        {
          "internalType": "uint256",
          "name": "_challengeID",
          "type": "uint256"
        }
      ],
      "name": "voterReward",
      "outputs": [
        {
          "internalType": "uint256",
          "name": "",
          "type": "uint256"
        }
      ],
      "payable": false,
      "stateMutability": "view",
      "type": "function"
    },
    {
      "constant": true,
      "inputs": [
        {
          "internalType": "bytes32",
          "name": "_listingHash",
          "type": "bytes32"
        }
      ],
      "name": "canBeWhitelisted",
      "outputs": [
        {
          "internalType": "bool",
          "name": "",
          "type": "bool"
        }
      ],
      "payable": false,
      "stateMutability": "view",
      "type": "function"
    },
    {
      "constant": true,
      "inputs": [
        {
          "internalType": "bytes32",
          "name": "_listingHash",
          "type": "bytes32"
        }
      ],
      "name": "isWhitelisted",
      "outputs": [
        {
          "internalType": "bool",
          "name": "whitelisted",
          "type": "bool"
        }
      ],
      "payable": false,
      "stateMutability": "view",
      "type": "function"
    },
    {
      "constant": true,
      "inputs": [
        {
          "internalType": "bytes32",
          "name": "_listingHash",
          "type": "bytes32"
        }
      ],
      "name": "appWasMade",
      "outputs": [
        {
          "internalType": "bool",
          "name": "exists",
          "type": "bool"
        }
      ],
      "payable": false,
      "stateMutability": "view",
      "type": "function"
    },
    {
      "constant": true,
      "inputs": [
        {
          "internalType": "bytes32",
          "name": "_listingHash",
          "type": "bytes32"
        }
      ],
      "name": "challengeExists",
      "outputs": [
        {
          "internalType": "bool",
          "name": "",
          "type": "bool"
        }
      ],
      "payable": false,
      "stateMutability": "view",
      "type": "function"
    },
    {
      "constant": true,
      "inputs": [
        {
          "internalType": "bytes32",
          "name": "_listingHash",
          "type": "bytes32"
        }
      ],
      "name": "challengeCanBeResolved",
      "outputs": [
        {
          "internalType": "bool",
          "name": "",
          "type": "bool"
        }
      ],
      "payable": false,
      "stateMutability": "view",
      "type": "function"
    },
    {
      "constant": true,
      "inputs": [
        {
          "internalType": "uint256",
          "name": "_challengeID",
          "type": "uint256"
        }
      ],
      "name": "determineReward",
      "outputs": [
        {
          "internalType": "uint256",
          "name": "",
          "type": "uint256"
        }
      ],
      "payable": false,
      "stateMutability": "view",
      "type": "function"
    },
    {
      "constant": true,
      "inputs": [
        {
          "internalType": "uint256",
          "name": "_challengeID",
          "type": "uint256"
        },
        {
          "internalType": "address",
          "name": "_voter",
          "type": "address"
        }
      ],
      "name": "tokenClaims",
      "outputs": [
        {
          "internalType": "bool",
          "name": "",
          "type": "bool"
        }
      ],
      "payable": false,
      "stateMutability": "view",
      "type": "function"
    },
    {
      "constant": true,
      "inputs": [],
      "name": "getListings",
      "outputs": [
        {
          "internalType": "bytes32[]",
          "name": "",
          "type": "bytes32[]"
        },
        {
          "internalType": "uint256[]",
          "name": "",
          "type": "uint256[]"
        },
        {
          "internalType": "bool[]",
          "name": "",
          "type": "bool[]"
        },
        {
          "internalType": "address[]",
          "name": "",
          "type": "address[]"
        },
        {
          "internalType": "uint256[]",
          "name": "",
          "type": "uint256[]"
        },
        {
          "internalType": "uint256[]",
          "name": "",
          "type": "uint256[]"
        }
      ],
      "payable": false,
      "stateMutability": "view",
      "type": "function"
    },
    {
      "constant": true,
      "inputs": [],
      "name": "getWhitelistedListingKeys",
      "outputs": [
        {
          "internalType": "bytes32[]",
          "name": "",
          "type": "bytes32[]"
        }
      ],
      "payable": false,
      "stateMutability": "view",
      "type": "function"
    },
    {
      "constant": true,
      "inputs": [],
      "name": "getChallenges",
      "outputs": [
        {
          "internalType": "uint256[]",
          "name": "",
          "type": "uint256[]"
        },
        {
          "internalType": "uint256[]",
          "name": "",
          "type": "uint256[]"
        },
        {
          "internalType": "address[]",
          "name": "",
          "type": "address[]"
        },
        {
          "internalType": "bool[]",
          "name": "",
          "type": "bool[]"
        },
        {
          "internalType": "bool[]",
          "name": "",
          "type": "bool[]"
        },
        {
          "internalType": "uint256[]",
          "name": "",
          "type": "uint256[]"
        }
      ],
      "payable": false,
      "stateMutability": "view",
      "type": "function"
    },
    {
      "constant": true,
      "inputs": [],
      "name": "whoAmI",
      "outputs": [
        {
          "internalType": "address",
          "name": "",
          "type": "address"
        }
      ],
      "payable": false,
      "stateMutability": "view",
      "type": "function"
    }
  ],
  "bytecode": "0x608060405234801561001057600080fd5b50613c07806100206000396000f3fe608060405234801561001057600080fd5b50600436106101cf5760003560e01c80638a59eb5611610104578063c18b8db4116100a2578063ead7454e11610071578063ead7454e146109ce578063f1b2d6a314610a26578063fc0c546a14610a2e578063fce1ccca14610a36576101cf565b8063c18b8db414610928578063c8187cf114610985578063da91254c146109a2578063e1e3f915146109c6576101cf565b80638f1d3776116100de5780638f1d37761461085b578063a5ba3b1e146108b3578063ae169a50146108df578063bd0ae405146108fc576101cf565b80638a59eb56146107805780638c82dccb1461079d5780638cf8151f1461083e576101cf565b806324f91d831161017157806346c7c1261161014b57806346c7c126146104f05780635eac6239146106a5578063691a38ab1461074657806377609a4114610763576101cf565b806324f91d831461032157806341b65c59146103e657806343cffefe14610469576101cf565b806307b99366116101ad57806307b99366146102a75780630960db7c146102c45780631b7bbecb146102e15780631de26e16146102fe576101cf565b806301a5e3fe146101d4578063040cf0201461020557806306fdde031461022a575b600080fd5b6101f1600480360360208110156101ea57600080fd5b5035610a3e565b604080519115158252519081900360200190f35b6102286004803603604081101561021b57600080fd5b5080359060200135610a59565b005b610232610c17565b6040805160208082528351818301528351919283929083019185019080838360005b8381101561026c578181015183820152602001610254565b50505050905090810190601f1680156102995780820380516001836020036101000a031916815260200191505b509250505060405180910390f35b610228600480360360208110156102bd57600080fd5b5035610ca5565b610228600480360360208110156102da57600080fd5b5035610ed8565b6101f1600480360360208110156102f757600080fd5b5035610fb8565b6102286004803603604081101561031457600080fd5b5080359060200135610ffa565b6102286004803603608081101561033757600080fd5b6001600160a01b0382358116926020810135821692604082013590921691810190608081016060820135600160201b81111561037257600080fd5b82018360208201111561038457600080fd5b803590602001918460018302840111600160201b831117156103a557600080fd5b91908080601f016020809104026020016040519081016040528093929190818152602001838380828437600092019190915250929550611108945050505050565b610228600480360360608110156103fc57600080fd5b6001600160a01b0382351691602081013591810190606081016040820135600160201b81111561042b57600080fd5b82018360208201111561043d57600080fd5b803590602001918460018302840111600160201b8311171561045e57600080fd5b5090925090506111dd565b6104de6004803603604081101561047f57600080fd5b81359190810190604081016020820135600160201b8111156104a057600080fd5b8201836020820111156104b257600080fd5b803590602001918460018302840111600160201b831117156104d357600080fd5b509092509050611625565b60408051918252519081900360200190f35b6104f8611d1c565b6040518080602001806020018060200180602001806020018060200187810387528d818151815260200191508051906020019060200280838360005b8381101561054c578181015183820152602001610534565b5050505090500187810386528c818151815260200191508051906020019060200280838360005b8381101561058b578181015183820152602001610573565b5050505090500187810385528b818151815260200191508051906020019060200280838360005b838110156105ca5781810151838201526020016105b2565b5050505090500187810384528a818151815260200191508051906020019060200280838360005b838110156106095781810151838201526020016105f1565b50505050905001878103835289818151815260200191508051906020019060200280838360005b83811015610648578181015183820152602001610630565b50505050905001878103825288818151815260200191508051906020019060200280838360005b8381101561068757818101518382015260200161066f565b505050509050019c5050505050505050505050505060405180910390f35b610228600480360360208110156106bb57600080fd5b810190602081018135600160201b8111156106d557600080fd5b8201836020820111156106e757600080fd5b803590602001918460208302840111600160201b8311171561070857600080fd5b919080806020026020016040519081016040528093929190818152602001838360200280828437600092019190915250929550611ffd945050505050565b6101f16004803603602081101561075c57600080fd5b5035612031565b6101f16004803603602081101561077957600080fd5b50356120c0565b6102286004803603602081101561079657600080fd5b5035612163565b610228600480360360208110156107b357600080fd5b810190602081018135600160201b8111156107cd57600080fd5b8201836020820111156107df57600080fd5b803590602001918460208302840111600160201b8311171561080057600080fd5b9190808060200260200160405190810160405280939291908181526020018383602002808284376000920191909152509295506121da945050505050565b6101f16004803603602081101561085457600080fd5b503561220a565b6108786004803603602081101561087157600080fd5b503561221e565b604080519687526001600160a01b039095166020870152921515858501529015156060850152608084015260a0830152519081900360c00190f35b6101f1600480360360408110156108c957600080fd5b50803590602001356001600160a01b0316612263565b610228600480360360208110156108f557600080fd5b5035612293565b6104de6004803603604081101561091257600080fd5b506001600160a01b038135169060200135612470565b6109456004803603602081101561093e57600080fd5b5035612525565b6040805197885295151560208801526001600160a01b03909416868601526060860192909252608085015260a084015260c0830152519081900360e00190f35b6104de6004803603602081101561099b57600080fd5b503561256e565b6109aa612703565b604080516001600160a01b039092168252519081900360200190f35b6109aa612708565b6109d6612717565b60408051602080825283518183015283519192839290830191858101910280838360005b83811015610a125781810151838201526020016109fa565b505050509050019250505060405180910390f35b6104f861282b565b6109aa612ba3565b6109aa612bb2565b60008181526003602052604090206001015460ff165b919050565b6000828152600360205260409020600181015461010090046001600160a01b03163314610a8557600080fd5b8060020154821115610a9657600080fd5b6006546040805163349f642f60e11b8152602060048201819052600a6024830152691b5a5b91195c1bdcda5d60b21b604483015291516001600160a01b039093169263693ec85e92606480840193919291829003018186803b158015610afb57600080fd5b505afa158015610b0f573d6000803e3d6000fd5b505050506040513d6020811015610b2557600080fd5b505160028201548390031015610b3a57600080fd5b6002810180548390039055600480546040805163a9059cbb60e01b8152339381019390935260248301859052516001600160a01b039091169163a9059cbb9160448083019260209291908290030181600087803b158015610b9a57600080fd5b505af1158015610bae573d6000803e3d6000fd5b505050506040513d6020811015610bc457600080fd5b5051610bcf57600080fd5b60028101546040805184815260208101929092528051339286927f9d9ed58779badf90c56d72f3b54def9f73dc875d8f86416c8334b55328c6c10692918290030190a3505050565b6007805460408051602060026001851615610100026000190190941693909304601f81018490048402820184019092528181529291830182828015610c9d5780601f10610c7257610100808354040283529160200191610c9d565b820191906000526020600020905b815481529060010190602001808311610c8057829003601f168201915b505050505081565b6000818152600360205260409020600181015461010090046001600160a01b03163314610cd157600080fd5b610cda82610a3e565b610ce357600080fd5b60038101541580610d125750600381015460009081526001602081905260409091200154600160a01b900460ff165b610d1b57600080fd5b60048101541580610d2f5750806005015442115b610d3857600080fd5b6006546040805163349f642f60e11b8152602060048201819052600d60248301526c6578697454696d6544656c617960981b60448301529151610dd9936001600160a01b03169263693ec85e9260648082019391829003018186803b158015610da057600080fd5b505afa158015610db4573d6000803e3d6000fd5b505050506040513d6020811015610dca57600080fd5b5051429063ffffffff612bc116565b6004808301919091556006546040805163349f642f60e11b81526020938101849052600d60248201526c32bc34ba2832b934b7b22632b760991b60448201529051610e88936001600160a01b039093169263693ec85e9260648082019391829003018186803b158015610e4b57600080fd5b505afa158015610e5f573d6000803e3d6000fd5b505050506040513d6020811015610e7557600080fd5b505160048301549063ffffffff612bc116565b6005820181905560048201546040805191825260208201929092528151339285927f4b137a01f77b8f1b4ccaca2abac799475d550c8adc298e399e75ee95d317b546929081900390910190a35050565b6000818152600360205260409020600181015461010090046001600160a01b03163314610f0457600080fd5b610f0d82610a3e565b610f1657600080fd5b60038101541580610f455750600381015460009081526001602081905260409091200154600160a01b900460ff165b610f4e57600080fd5b6000816004015411610f5f57600080fd5b428160040154108015610f755750806005015442105b610f7e57600080fd5b610f8782612c1b565b604051339083907f7d16ed55582bcf69d7bb762cda5b82042371fba7de3a8ebea4517079d892f52290600090a35050565b6000818152600360208190526040822001548015801590610ff3575060008181526001602081905260409091200154600160a01b900460ff16155b9392505050565b6000828152600360205260409020600181015461010090046001600160a01b0316331461102657600080fd5b6002810180548301905560048054604080516323b872dd60e01b8152339381019390935230602484015260448301859052516001600160a01b03909116916323b872dd9160648083019260209291908290030181600087803b15801561108b57600080fd5b505af115801561109f573d6000803e3d6000fd5b505050506040513d60208110156110b557600080fd5b50516110c057600080fd5b60028101546040805184815260208101929092528051339286927ff63fcfb210c709154f0260502b2586fcee5550d17dc828be3127ccdedec620ab92918290030190a3505050565b6001600160a01b0384161580159061112957506004546001600160a01b0316155b61113257600080fd5b6001600160a01b0383161580159061115357506005546001600160a01b0316155b61115c57600080fd5b6001600160a01b0382161580159061117d57506006546001600160a01b0316155b61118657600080fd5b600480546001600160a01b038087166001600160a01b03199283161790925560058054868416908316179055600680549285169290911691909117905580516111d6906007906020840190613a09565b5050505050565b6001600160a01b0384166111f081610a3e565b15611242576040805162461bcd60e51b815260206004820152601e60248201527f6c697374696e6748617368206973206e6f742077686974656c69737465640000604482015290519081900360640190fd5b61124b8161220a565b1561129d576040805162461bcd60e51b815260206004820181905260248201527f61707020776173206e6f74206d61646520666f72206c697374696e6748617368604482015290519081900360640190fd5b6006546040805163349f642f60e11b815260206004820181905260096024830152680e4caecd2caeea8c2f60bb1b604483015291516001600160a01b039093169263693ec85e92606480840193919291829003018186803b15801561130157600080fd5b505afa158015611315573d6000803e3d6000fd5b505050506040513d602081101561132b57600080fd5b50516006546040805163349f642f60e11b8152602060048201819052600a6024830152691b5a5b91195c1bdcda5d60b21b604483015291516001600160a01b039093169263693ec85e92606480840193919291829003018186803b15801561139257600080fd5b505afa1580156113a6573d6000803e3d6000fd5b505050506040513d60208110156113bc57600080fd5b5051018410156113fd5760405162461bcd60e51b815260040180806020018281038252602d815260200180613ba6602d913960400191505060405180910390fd5b6002805460018082019092557f405787fa12a823e0f2b7631cc41b3ba8828b3321ca811111fa75cd3aa3bb5ace018290556000828152600360209081526040918290209283018054610100600160a81b0319163361010002179055600654825163349f642f60e11b815260048101839052600d60248201526c30b838363ca9ba30b3b2a632b760991b604482015292516114be936001600160a01b039092169263693ec85e9260648082019391829003018186803b158015610da057600080fd5b815560028101859055600480546001830154604080516323b872dd60e01b81526001600160a01b0361010090930483169481019490945230602485015260448401899052519116916323b872dd9160648083019260209291908290030181600087803b15801561152d57600080fd5b505af1158015611541573d6000803e3d6000fd5b505050506040513d602081101561155757600080fd5b50516115945760405162461bcd60e51b8152600401808060200182810382526038815260200180613b4d6038913960400191505060405180910390fd5b61159d82612d8e565b50336001600160a01b0316827fa27f550c3c7a7c6d8369e5383fdc7a3b4850d8ce9e20066f9d496f6989f00864878460000154888860405180858152602001848152602001806020018281038252848482818152602001925080828437600083820152604051601f909101601f191690920182900397509095505050505050a3505050505050565b6000838152600360209081526040808320600654825163349f642f60e11b815260048101859052600a6024820152691b5a5b91195c1bdcda5d60b21b60448201529251919385936001600160a01b039092169263693ec85e926064808201939291829003018186803b15801561169a57600080fd5b505afa1580156116ae573d6000803e3d6000fd5b505050506040513d60208110156116c457600080fd5b505190506116d18661220a565b806116e05750600182015460ff165b6116e957600080fd5b600382015415806117185750600382015460009081526001602081905260409091200154600160a01b900460ff165b61172157600080fd5b808260020154101561176c5761173686612c1b565b60405186907f4a9ee335af9e32f32f2229943dc7a0d3b5adf7e4c5c4062b372eae8c476d928690600090a2600092505050610ff3565b6005546006546040805163349f642f60e11b815260206004820181905260136024830152726368616c6c656e6765566f746551756f72756d60681b604483015291516000946001600160a01b03908116946332ed3d609491169263693ec85e9260648083019392829003018186803b1580156117e757600080fd5b505afa1580156117fb573d6000803e3d6000fd5b505050506040513d602081101561181157600080fd5b50516006546040805163349f642f60e11b8152602060048201819052600e60248301526d31b7b6b6b4ba29ba30b3b2a632b760911b604483015291516001600160a01b039093169263693ec85e92606480840193919291829003018186803b15801561187c57600080fd5b505afa158015611890573d6000803e3d6000fd5b505050506040513d60208110156118a657600080fd5b50516006546040805163349f642f60e11b8152602060048201819052600e60248301526d3932bb32b0b629ba30b3b2a632b760911b604483015291516001600160a01b039093169263693ec85e92606480840193919291829003018186803b15801561191157600080fd5b505afa158015611925573d6000803e3d6000fd5b505050506040513d602081101561193b57600080fd5b5051604080516001600160e01b031960e087901b1681526004810194909452602484019290925260448301525160648083019260209291908290030181600087803b15801561198957600080fd5b505af115801561199d573d6000803e3d6000fd5b505050506040513d60208110156119b357600080fd5b50516040805160c0810180835260065463349f642f60e11b909152602060c48301819052600f60e48401526e191a5cdc195b9cd85d1a5bdb9418dd608a1b610104840152925193945060649391928392611a92928692611a86928a92611a7a926001600160a01b039091169163693ec85e91610124808b019290818c03018186803b158015611a4157600080fd5b505afa158015611a55573d6000803e3d6000fd5b505050506040513d6020811015611a6b57600080fd5b5051889063ffffffff61333216565b9063ffffffff61337416565b9063ffffffff6133cd16565b815233602080830182905260006040808501829052606080860183905260808087018b905260a09687018490528984526001808652838520895181558987015181830180548c880151968d01516001600160a01b03199091166001600160a01b039384161760ff60a01b1916600160a01b971515979097029690961760ff60a81b1916600160a81b9615159690960295909517909455918901516002808401919091559890970151600391820155835496870184558380527f290decd9548b62a8d60345a988386fc84ba6bc95484008f6362f93160ef3e563909601899055948a01889055948901805489900390556004805486516323b872dd60e01b81529182019490945230602482015260448101899052945192909316936323b872dd93606480830194928390030190829087803b158015611bcf57600080fd5b505af1158015611be3573d6000803e3d6000fd5b505050506040513d6020811015611bf957600080fd5b5051611c0457600080fd5b60055460408051636148fed560e01b815260048101859052905160009283926001600160a01b0390911691636148fed59160248082019260a092909190829003018186803b158015611c5557600080fd5b505afa158015611c69573d6000803e3d6000fd5b505050506040513d60a0811015611c7f57600080fd5b508051602091820151604080518881529081018390526060810182905260809381018481529381018c9052919450925033918c917ff98a08756a3603420a080d66764f73deb1e30896c315cfed03e17f88f5eb30f79188918e918e91899189919060a08201868680828437600083820152604051601f909101601f19169092018290039850909650505050505050a3509198975050505050505050565b6060806060806060806060600080549050604051908082528060200260200182016040528015611d56578160200160208202803883390190505b5090506060600080549050604051908082528060200260200182016040528015611d8a578160200160208202803883390190505b5090506060600080549050604051908082528060200260200182016040528015611dbe578160200160208202803883390190505b5090506060600080549050604051908082528060200260200182016040528015611df2578160200160208202803883390190505b5090506060600080549050604051908082528060200260200182016040528015611e26578160200160208202803883390190505b5090506060600080549050604051908082528060200260200182016040528015611e5a578160200160208202803883390190505b50905060005b600054811015611fe957611e72613a87565b60016000808481548110611e8257fe5b600091825260208083209091015483528281019390935260409182018120825160c0810184528154815260018201546001600160a01b0381169582019590955260ff600160a01b86048116151594820194909452600160a81b909404909216151560608401526002820154608084015260039091015460a083015280549192509083908110611f0d57fe5b9060005260206000200154888381518110611f2457fe5b6020026020010181815250508060000151878381518110611f4157fe5b6020026020010181815250508060200151868381518110611f5e57fe5b60200260200101906001600160a01b031690816001600160a01b0316815250508060600151858381518110611f8f57fe5b6020026020010190151590811515815250508060400151848381518110611fb257fe5b6020026020010190151590811515815250508060a00151838381518110611fd557fe5b602090810291909101015250600101611e60565b50949b939a50919850965094509092509050565b60005b815181101561202d5761202582828151811061201857fe5b6020026020010151612293565b600101612000565b5050565b60008181526003602081905260408220015461204c8361220a565b8015612065575060008381526003602052604090205442115b8015612077575061207583610a3e565b155b80156120a857508015806120a857506000818152600160208190526040909120810154600160a01b900460ff161515145b156120b7576001915050610a54565b50600092915050565b6000818152600360208190526040822001546120db83610fb8565b6120e457600080fd5b60055460408051630ee6848360e41b81526004810184905290516001600160a01b039092169163ee68483091602480820192602092909190829003018186803b15801561213057600080fd5b505afa158015612144573d6000803e3d6000fd5b505050506040513d602081101561215a57600080fd5b50519392505050565b61216c81612031565b1561217f5761217a8161340f565b6121d7565b612188816120c0565b156121965761217a81613474565b6040805162461bcd60e51b81526020600482015260116024820152704e6f7468696e6720746f2075706461746560781b604482015290519081900360640190fd5b50565b60005b815181101561202d576122028282815181106121f557fe5b6020026020010151612163565b6001016121dd565b600090815260036020526040902054151590565b600160208190526000918252604090912080549181015460028201546003909201546001600160a01b0382169260ff600160a01b8404811693600160a81b9004169186565b60008281526001602090815260408083206001600160a01b038516845260040190915290205460ff165b92915050565b6000818152600160209081526040808320338452600481019092529091205460ff16156122bf57600080fd5b600181810154600160a01b900460ff161515146122db57600080fd5b60055460408051630c03fbd760e01b81523360048201526024810185905290516000926001600160a01b031691630c03fbd7916044808301926020929190829003018186803b15801561232d57600080fd5b505afa158015612341573d6000803e3d6000fd5b505050506040513d602081101561235757600080fd5b50516003830154835491925060009161237c9190611a8690859063ffffffff61337416565b600384018054849003905583548190038455336000818152600480870160209081526040808420805460ff191660011790558254815163a9059cbb60e01b81529384019590955260248301869052519495506001600160a01b039093169363a9059cbb9360448084019491938390030190829087803b1580156123fe57600080fd5b505af1158015612412573d6000803e3d6000fd5b505050506040513d602081101561242857600080fd5b505161243357600080fd5b604080518281529051339186917f6f4c982acc31b0af2cf1dc1556f21c0325d893782d65e83c68a5534a33f599579181900360200190a350505050565b6000818152600160209081526040808320600381015490546005548351630c03fbd760e01b81526001600160a01b038981166004830152602482018990529451939592948794921692630c03fbd792604480840193829003018186803b1580156124d957600080fd5b505afa1580156124ed573d6000803e3d6000fd5b505050506040513d602081101561250357600080fd5b5051905061251b83611a86838563ffffffff61337416565b9695505050505050565b6003602081905260009182526040909120805460018201546002830154938301546004840154600590940154929460ff8316946101009093046001600160a01b03169390929087565b600081815260016020819052604082200154600160a01b900460ff1615801561260b575060055460408051630ee6848360e41b81526004810185905290516001600160a01b039092169163ee68483091602480820192602092909190829003018186803b1580156125de57600080fd5b505afa1580156125f2573d6000803e3d6000fd5b505050506040513d602081101561260857600080fd5b50515b61261457600080fd5b60008281526001602081905260409091200154600160a81b900460ff161561264e5750600081815260016020526040902060020154610a54565b6005546040805163029f38d360e11b81526004810185905290516001600160a01b039092169163053e71a691602480820192602092909190829003018186803b15801561269a57600080fd5b505afa1580156126ae573d6000803e3d6000fd5b505050506040513d60208110156126c457600080fd5b50516126e55750600081815260016020526040902060029081015402610a54565b50600090815260016020526040902080546002918201549091020390565b335b90565b6006546001600160a01b031681565b60606000805b60025481101561276e57600360006002838154811061273857fe5b6000918252602080832090910154835282019290925260400190206001015460ff1615612766576001909101905b60010161271d565b5060608160405190808252806020026020018201604052801561279b578160200160208202803883390190505b50600092509050815b6002548110156128245760036000600283815481106127bf57fe5b6000918252602080832090910154835282019290925260400190206001015460ff161561281c57600281815481106127f357fe5b906000526020600020015482848151811061280a57fe5b60209081029190910101526001909201915b6001016127a4565b5091505090565b6060806060806060806060600280549050604051908082528060200260200182016040528015612865578160200160208202803883390190505b5090506060600280549050604051908082528060200260200182016040528015612899578160200160208202803883390190505b50905060606002805490506040519080825280602002602001820160405280156128cd578160200160208202803883390190505b5090506060600280549050604051908082528060200260200182016040528015612901578160200160208202803883390190505b5090506060600280549050604051908082528060200260200182016040528015612935578160200160208202803883390190505b5090506060600280549050604051908082528060200260200182016040528015612969578160200160208202803883390190505b509050606060028054905060405190808252806020026020018201604052801561299d578160200160208202803883390190505b50905060005b600254811015612b2e576129b5613aca565b60036000600284815481106129c657fe5b60009182526020808320919091015483528281019390935260409182019020815160e0810183528154808252600183015460ff81161515958301959095526101009094046001600160a01b0316928101929092526002810154606083015260038101546080830152600481015460a08301526005015460c08201528a519092508a9084908110612a5257fe5b6020026020010181815250508060200151888381518110612a6f57fe5b6020026020010190151590811515815250508060400151878381518110612a9257fe5b60200260200101906001600160a01b031690816001600160a01b0316815250508060600151868381518110612ac357fe5b6020026020010181815250508060800151858381518110612ae057fe5b6020026020010181815250508060a00151848381518110612afd57fe5b6020026020010181815250508060c00151838381518110612b1a57fe5b6020908102919091010152506001016129a3565b506002878787878785805480602002602001604051908101604052809291908181526020018280548015612b8157602002820191906000526020600020905b815481526020019060010190808311612b6d575b505050505095509c509c509c509c509c509c5050505050505050909192939495565b6004546001600160a01b031681565b6005546001600160a01b031681565b600082820183811015610ff3576040805162461bcd60e51b815260206004820152601b60248201527f536166654d6174683a206164646974696f6e206f766572666c6f770000000000604482015290519081900360640190fd5b6000818152600360205260409020600181015460ff1615612c665760405182907fd1ffb796b7108387b2f02adf47b4b81a1690cf2a190422c87a4f670780103e6390600090a2612c92565b60405182907f2e5ec035f6eac8ff1cf7cdf36cfeca7c85413f9f67652dc2c13d20f337204a2690600090a25b6001818101546002808401546000868152600360208190526040822082815595860180546001600160a81b03191690559285018190559184018290556004840182905560059093015561010090046001600160a01b031690612cf38461379d565b8015612d8857600480546040805163a9059cbb60e01b81526001600160a01b0386811694820194909452602481018590529051929091169163a9059cbb916044808201926020929091908290030181600087803b158015612d5357600080fd5b505af1158015612d67573d6000803e3d6000fd5b505050506040513d6020811015612d7d57600080fd5b5051612d8857600080fd5b50505050565b6000818152600360209081526040808320600654825163349f642f60e11b81526004810185905260096024820152680e4caecd2caeea8c2f60bb1b60448201529251919385936001600160a01b039092169263693ec85e926064808201939291829003018186803b158015612e0257600080fd5b505afa158015612e16573d6000803e3d6000fd5b505050506040513d6020811015612e2c57600080fd5b50516006546040805163349f642f60e11b8152602060048201819052600a6024830152691b5a5b91195c1bdcda5d60b21b604483015291519394506000936001600160a01b039093169263693ec85e92606480840193919291829003018186803b158015612e9957600080fd5b505afa158015612ead573d6000803e3d6000fd5b505050506040513d6020811015612ec357600080fd5b50516005546006546040805163349f642f60e11b8152602060048201819052601060248301526f726576696577566f746551756f72756d60801b604483015291519495506000946001600160a01b03948516946332ed3d6094169263693ec85e9260648082019391829003018186803b158015612f3f57600080fd5b505afa158015612f53573d6000803e3d6000fd5b505050506040513d6020811015612f6957600080fd5b50516006546040805163349f642f60e11b8152602060048201819052600d60248301526c30b838363ca9ba30b3b2a632b760991b60448301529151613010936002936001600160a01b039091169263693ec85e9260648083019392829003018186803b158015612fd857600080fd5b505afa158015612fec573d6000803e3d6000fd5b505050506040513d602081101561300257600080fd5b50519063ffffffff6133cd16565b6006546040805163349f642f60e11b8152602060048201819052600d60248301526c30b838363ca9ba30b3b2a632b760991b6044830152915161307d936002936001600160a01b039091169263693ec85e9260648083019392829003018186803b158015612fd857600080fd5b6040518463ffffffff1660e01b8152600401808481526020018381526020018281526020019350505050602060405180830381600087803b1580156130c157600080fd5b505af11580156130d5573d6000803e3d6000fd5b505050506040513d60208110156130eb57600080fd5b50516040805160c0810182528581523360208083019182526000838501818152600160608601818152608087018b815260a088018581528a86528387528986209851895596518884018054955193516001600160a01b03199096166001600160a01b039283161760ff60a01b1916600160a01b941515949094029390931760ff60a81b1916600160a81b95151595909502949094179091555160028701559351600395860155815493840182559080527f290decd9548b62a8d60345a988386fc84ba6bc95484008f6362f93160ef3e563909201859055918801849055600654835163349f642f60e11b815260048101849052600a6024820152691b5a5b91195c1bdcda5d60b21b60448201529351949550169263693ec85e926064808201939291829003018186803b15801561322157600080fd5b505afa158015613235573d6000803e3d6000fd5b505050506040513d602081101561324b57600080fd5b505160028501805491909103849003905560055460408051636148fed560e01b815260048101849052905160009283926001600160a01b0390911691636148fed59160248082019260a092909190829003018186803b1580156132ad57600080fd5b505afa1580156132c1573d6000803e3d6000fd5b505050506040513d60a08110156132d757600080fd5b5080516020918201516040805187815293840183905283810182905251919450925089917f3ccc67a1842348fa7bbc39483f60c45c599d493257d3bc9bab3663c9e8f439ea919081900360600190a250909695505050505050565b6000610ff383836040518060400160405280601e81526020017f536166654d6174683a207375627472616374696f6e206f766572666c6f770000815250613858565b6000826133835750600061228d565b8282028284828161339057fe5b0414610ff35760405162461bcd60e51b8152600401808060200182810382526021815260200180613b856021913960400191505060405180910390fd5b6000610ff383836040518060400160405280601a81526020017f536166654d6174683a206469766973696f6e206279207a65726f0000000000008152506138ef565b60008181526003602052604090206001015460ff166134545760405181907fa7bc1d57d9006d9d248707c7b6828c1bab8c51719cc06d78c82a3ee891ef967c90600090a25b60009081526003602052604090206001908101805460ff19169091179055565b600081815260036020819052604082200154906134908261256e565b600083815260016020818152604092839020909101805460ff60a01b1916600160a01b179055600554825163029f38d360e11b81526004810187905292519394506001600160a01b03169263053e71a6926024808201939291829003018186803b1580156134fd57600080fd5b505afa158015613511573d6000803e3d6000fd5b505050506040513d602081101561352757600080fd5b505160008381526001602052604090206003015561354482613954565b60055460408051634940318360e01b81526004810185905290516001600160a01b0390921691634940318391602480820192602092909190829003018186803b15801561359057600080fd5b505afa1580156135a4573d6000803e3d6000fd5b505050506040513d60208110156135ba57600080fd5b50511561365d576135ca8361340f565b60008381526003602090815260408083206002018054850190558483526001918290529091200154600160a81b900460ff166136585760008281526001602090815260409182902080546003909101548351918252918101919091528151849286927fc4497224aa78dd50c9b3e344aab02596201ca1e6dca4057a91a6c02f83f4f6c1929081900390910190a35b613798565b61366683612c1b565b60008281526001602081905260409091200154600160a81b900460ff16156136a1576000828152600160205260409020805482019055613740565b60048054600084815260016020818152604080842090920154825163a9059cbb60e01b81526001600160a01b0391821696810196909652602486018790529151919093169363a9059cbb936044808301949193928390030190829087803b15801561370b57600080fd5b505af115801561371f573d6000803e3d6000fd5b505050506040513d602081101561373557600080fd5b505161374057600080fd5b60008281526001602090815260409182902080546003909101548351918252918101919091528151849286927f362a12431f779a2baff4f77f75ba7960ae993a5c41b425df11f7fd0af2b9cbe6929081900390910190a35b505050565b60005b6002546000190181101561202d5781600282815481106137bc57fe5b9060005260206000200154141561385057805b6002546000190181101561381957600281600101815481106137ed57fe5b90600052602060002001546002828154811061380557fe5b6000918252602090912001556001016137cf565b5060028054600019810190811061382c57fe5b6000918252602082200155600280549061384a906000198301613b12565b5061202d565b6001016137a0565b600081848411156138e75760405162461bcd60e51b81526004018080602001828103825283818151815260200191508051906020019080838360005b838110156138ac578181015183820152602001613894565b50505050905090810190601f1680156138d95780820380516001836020036101000a031916815260200191505b509250505060405180910390fd5b505050900390565b6000818361393e5760405162461bcd60e51b81526020600482018181528351602484015283519092839260449091019190850190808383600083156138ac578181015183820152602001613894565b50600083858161394a57fe5b0495945050505050565b60005b6000546000190181101561202d57816000828154811061397357fe5b90600052602060002001541415613a0157805b600054600019018110156139d057600081600101815481106139a457fe5b9060005260206000200154600082815481106139bc57fe5b600091825260209091200155600101613986565b506000805460001981019081106139e357fe5b6000918252602082200181905580549061384a906000198301613b12565b600101613957565b828054600181600116156101000203166002900490600052602060002090601f016020900481019282601f10613a4a57805160ff1916838001178555613a77565b82800160010185558215613a77579182015b82811115613a77578251825591602001919060010190613a5c565b50613a83929150613b32565b5090565b6040518060c001604052806000815260200160006001600160a01b0316815260200160001515815260200160001515815260200160008152602001600081525090565b6040518060e001604052806000815260200160001515815260200160006001600160a01b03168152602001600081526020016000815260200160008152602001600081525090565b815481835581811115613798576000838152602090206137989181019083015b61270591905b80821115613a835760008155600101613b3856fe4661696c656420746f207472616e7366657220746f6b656e732066726f6d207573657220746f20526567697374727920636f6e7472616374536166654d6174683a206d756c7469706c69636174696f6e206f766572666c6f77616d6f756e7420697320736d616c6c6572207468656e206d696e4465706f736974202b20726576696577546178a265627a7a7231582066143690c21103c04329b24e38cc86f6d540c1dbb24221214a5b27cb31f9237c64736f6c63430005110032",
  "source": "pragma solidity ^0.5.17;\n\nimport \"../tokens/GOV.sol\";\nimport \"./Parameterizer.sol\";\nimport \"./PLCR/PLCRVoting.sol\";\nimport \"@openzeppelin/contracts/math/SafeMath.sol\";\n\ncontract Registry {\n\n    // ------\n    // EVENTS\n    // ------\n\n    event _Application(bytes32 indexed listingHash, uint deposit, uint appEndDate, string data, address indexed applicant);\n    event _Challenge(bytes32 indexed listingHash, uint challengeID, string data, uint commitEndDate, uint revealEndDate, address indexed challenger);\n    event _Review(bytes32 indexed listingHash, uint reviewID, uint commitEndDate, uint revealEndDate);   \n    event _Deposit(bytes32 indexed listingHash, uint added, uint newTotal, address indexed owner);\n    event _Withdrawal(bytes32 indexed listingHash, uint withdrew, uint newTotal, address indexed owner);\n    event _ApplicationWhitelisted(bytes32 indexed listingHash);\n    event _ApplicationRemoved(bytes32 indexed listingHash);\n    event _ListingRemoved(bytes32 indexed listingHash);\n    event _ListingWithdrawn(bytes32 indexed listingHash, address indexed owner);\n    event _TouchAndRemoved(bytes32 indexed listingHash);\n    event _ChallengeFailed(bytes32 indexed listingHash, uint indexed challengeID, uint rewardPool, uint totalTokens);\n    event _ChallengeSucceeded(bytes32 indexed listingHash, uint indexed challengeID, uint rewardPool, uint totalTokens);\n    event _RewardClaimed(uint indexed challengeID, uint reward, address indexed voter);\n    event _ExitInitialized(bytes32 indexed listingHash, uint exitTime, uint exitDelayEndDate, address indexed owner);\n\n    using SafeMath for uint;\n\n    struct Listing {\n        uint applicationExpiry; // Expiration date of apply stage\n        bool whitelisted;       // Indicates registry status\n        address owner;          // Owner of Listing\n        uint unstakedDeposit;   // Number of tokens in the listing not locked in a challenge\n        uint challengeID;       // Corresponds to a PollID in PLCRVoting\n\t    uint exitTime;\t\t// Time the listing may leave the registry\n        uint exitTimeExpiry;    // Expiration date of exit period\n    }\n\n    struct Challenge {\n        uint rewardPool;        // (remaining) Pool of tokens to be distributed to winning voters\n        address challenger;     // Owner of Challenge\n        bool resolved;          // Indication of if challenge is resolved\n        bool isReview;\n        uint stake;             // Number of tokens at stake for either party during challenge\n        uint totalTokens;       // (remaining) Number of tokens used in voting by the winning side\n        mapping(address => bool) tokenClaims; // Indicates whether a voter has claimed a reward yet\n    }\n\n    // Maps challengeIDs to associated challenge data\n    uint[] private challengesIndexes;\n    mapping(uint => Challenge) public challenges;\n\n    // Maps listingHashes to associated listingHash data\n    bytes32[] private listingsIndexes;\n    mapping(bytes32 => Listing) public listings;\n\n    // Global Variables\n    GOV public token;\n    PLCRVoting public voting;\n    Parameterizer public parameterizer;\n    string public name;\n\n    /**\n    @dev Initializer. Can only be called once.\n    @param _token The address where the GOV token contract is deployed\n    */\n    function init(address _token, address _voting, address _parameterizer, string memory _name) public {\n        require(_token != address(0) && address(token) == address(0));\n        require(_voting != address(0) && address(voting) == address(0));\n        require(_parameterizer != address(0) && address(parameterizer) == address(0));\n\n        token = GOV(_token);\n        voting = PLCRVoting(_voting);\n        parameterizer = Parameterizer(_parameterizer);\n        name = _name;\n    }\n\n    // --------------------\n    // PUBLISHER INTERFACE:\n    // --------------------\n\n    /**\n    @dev                Allows a user to start an application. Takes tokens from user and sets\n                        apply stage end time.\n    @param tokenAddress The hash of a potential listing a user is applying to add to the registry // TODO adapt comment\n    @param _amount      The number of GOV tokens a user is willing to potentially stake\n    @param _data        Extra data relevant to the application. Think IPFS hashes.\n    */\n    function applyToken(address tokenAddress, uint _amount, string calldata _data) external {\n        // conversion to bytes32 added (Sergiu)\n        bytes32 _listingHash = bytes32(uint256(tokenAddress)); // convert back via address adr = address(uint160(uint256(test))), from https://ethereum.stackexchange.com/a/68358 and https://ethereum.stackexchange.com/a/41356\n        //\n        require(!isWhitelisted(_listingHash), \"listingHash is not whitelisted\");\n        require(!appWasMade(_listingHash), \"app was not made for listingHash\");\n        require(_amount >= parameterizer.get(\"minDeposit\") + parameterizer.get(\"reviewTax\"), \"amount is smaller then minDeposit + reviewTax\");\n\n        // Sets owner\n        listingsIndexes.push(_listingHash);\n        Listing storage listing = listings[_listingHash];\n        listing.owner = msg.sender;\n\n        // Sets apply stage end time\n        listing.applicationExpiry = block.timestamp.add(parameterizer.get(\"applyStageLen\"));\n        listing.unstakedDeposit = _amount;\n\n        // Transfers tokens from user to Registry contract\n        require(GOV(token).transferFrom(listing.owner, address(this), _amount), \"Failed to transfer tokens from user to Registry contract\");\n\n        review(_listingHash);\n\n        emit _Application(_listingHash, _amount, listing.applicationExpiry, _data, msg.sender);\n    }\n\n    /**\n    @dev                Allows the owner of a listingHash to increase their unstaked deposit.\n    @param _listingHash A listingHash msg.sender is the owner of\n    @param _amount      The number of GOV tokens to increase a user's unstaked deposit\n    */\n    function deposit(bytes32 _listingHash, uint _amount) external {\n        Listing storage listing = listings[_listingHash];\n\n        require(listing.owner == msg.sender);\n\n        listing.unstakedDeposit += _amount;\n        require(GOV(token).transferFrom(msg.sender, address(this), _amount));\n\n        emit _Deposit(_listingHash, _amount, listing.unstakedDeposit, msg.sender);\n    }\n\n    /**\n    @dev                Allows the owner of a listingHash to decrease their unstaked deposit.\n    @param _listingHash A listingHash msg.sender is the owner of.\n    @param _amount      The number of GOV tokens to withdraw from the unstaked deposit.\n    */\n    function withdraw(bytes32 _listingHash, uint _amount) external {\n        Listing storage listing = listings[_listingHash];\n\n        require(listing.owner == msg.sender);\n        require(_amount <= listing.unstakedDeposit);\n        require(listing.unstakedDeposit - _amount >= parameterizer.get(\"minDeposit\"));\n\n        listing.unstakedDeposit -= _amount;\n        require(token.transfer(msg.sender, _amount));\n\n        emit _Withdrawal(_listingHash, _amount, listing.unstakedDeposit, msg.sender);\n    }\n\n    /**\n    @dev\t\tInitialize an exit timer for a listing to leave the whitelist\n    @param _listingHash\tA listing hash msg.sender is the owner of\n    */\n    function initExit(bytes32 _listingHash) external {\n        Listing storage listing = listings[_listingHash];\n\n        require(msg.sender == listing.owner);\n        require(isWhitelisted(_listingHash));\n        // Cannot exit during ongoing challenge\n        require(listing.challengeID == 0 || challenges[listing.challengeID].resolved);\n\n        // Ensure user never initializedExit or exitPeriodLen passed\n        require(listing.exitTime == 0 || now > listing.exitTimeExpiry);\n\n        // Set when the listing may be removed from the whitelist\n        listing.exitTime = now.add(parameterizer.get(\"exitTimeDelay\"));\n\t    // Set exit period end time\n\t    listing.exitTimeExpiry = listing.exitTime.add(parameterizer.get(\"exitPeriodLen\"));\n        emit _ExitInitialized(_listingHash, listing.exitTime, listing.exitTimeExpiry, msg.sender);\n    }\n\n    /**\n    @dev\t\tAllow a listing to leave the whitelist\n    @param _listingHash A listing hash msg.sender is the owner of\n    */\n    function finalizeExit(bytes32 _listingHash) external {\n        Listing storage listing = listings[_listingHash];\n\n        require(msg.sender == listing.owner);\n        require(isWhitelisted(_listingHash));\n        // Cannot exit during ongoing challenge\n        require(listing.challengeID == 0 || challenges[listing.challengeID].resolved);\n\n        // Make sure the exit was initialized\n        require(listing.exitTime > 0);\n        // Time to exit has to be after exit delay but before the exitPeriodLen is over\n\t    require(listing.exitTime < now && now < listing.exitTimeExpiry);\n\n        resetListing(_listingHash);\n        emit _ListingWithdrawn(_listingHash, msg.sender);\n    }\n\n    // -----------------------\n    // TOKEN HOLDER INTERFACE:\n    // -----------------------\n\n    /**\n    @dev                Starts a poll for a listingHash which is already in the whitelist.\n                        Tokens are taken from the challenger and the applicant's deposits are locked.\n    @param _listingHash The listingHash being challenged, whether listed or in application\n    @param _data        Extra data relevant to the challenge. Think IPFS hashes.\n    */\n    function challenge(bytes32 _listingHash, string calldata _data) external returns (uint challengeID) {\n        Listing storage listing = listings[_listingHash];\n        uint minDeposit = parameterizer.get(\"minDeposit\");\n\n        // Listing must be in apply stage or already on the whitelist\n        require(appWasMade(_listingHash) || listing.whitelisted);\n        // Prevent multiple challenges\n        require(listing.challengeID == 0 || challenges[listing.challengeID].resolved);\n\n        if (listing.unstakedDeposit < minDeposit) {\n            // Not enough tokens, listingHash auto-delisted\n            resetListing(_listingHash);\n            emit _TouchAndRemoved(_listingHash);\n            return 0;\n        }\n\n        // Starts poll\n        uint pollID = voting.startPoll(\n            parameterizer.get(\"challengeVoteQuorum\"),\n            parameterizer.get(\"commitStageLen\"),\n            parameterizer.get(\"revealStageLen\")\n        );\n\n        uint oneHundred = 100; // Kludge that we need to use SafeMath\n        challenges[pollID] = Challenge({\n            challenger: msg.sender,\n            rewardPool: ((oneHundred.sub(parameterizer.get(\"dispensationPct\"))).mul(minDeposit)).div(100),\n            stake: minDeposit,\n            resolved: false,\n            isReview: false,\n            totalTokens: 0\n        });\n        challengesIndexes.push(pollID);\n        // Updates listingHash to store most recent challenge\n        listing.challengeID = pollID;\n\n        // Locks tokens for listingHash during challenge\n        listing.unstakedDeposit -= minDeposit;\n\n        // Takes tokens from challenger\n        require(GOV(token).transferFrom(msg.sender, address(this), minDeposit));\n\n        (uint commitEndDate, uint revealEndDate,,,) = voting.pollMap(pollID);\n\n        emit _Challenge(_listingHash, pollID, _data, commitEndDate, revealEndDate, msg.sender);\n        return pollID;\n    }\n\n    /**\n    @dev                Updates a listingHash's status from 'application' to 'listing' or resolves\n                        a challenge if one exists.\n    @param _listingHash The listingHash whose status is being updated\n    */\n    function updateStatus(bytes32 _listingHash) public {\n        if (canBeWhitelisted(_listingHash)) {\n            whitelistApplication(_listingHash);\n        } else if (challengeCanBeResolved(_listingHash)) {\n            resolveChallenge(_listingHash);\n        } else {\n            revert(\"Nothing to update\");\n        }\n    }\n\n    /**\n    @dev                  Updates an array of listingHashes' status from 'application' to 'listing' or resolves\n                          a challenge if one exists.\n    @param _listingHashes The listingHashes whose status are being updated\n    */\n    function updateStatuses(bytes32[] memory _listingHashes) public {\n        // loop through arrays, revealing each individual vote values\n        for (uint i = 0; i < _listingHashes.length; i++) {\n            updateStatus(_listingHashes[i]);\n        }\n    }\n\n    // ----------------\n    // TOKEN FUNCTIONS:\n    // ----------------\n\n    /**\n    @dev                Called by a voter to claim their reward for each completed vote. Someone\n                        must call updateStatus() before this can be called.\n    @param _challengeID The PLCR pollID of the challenge a reward is being claimed for\n    */\n    function claimReward(uint _challengeID) public {\n        Challenge storage challengeInstance = challenges[_challengeID];\n        // Ensures the voter has not already claimed tokens and challengeInstance results have\n        // been processed\n        require(challengeInstance.tokenClaims[msg.sender] == false);\n        require(challengeInstance.resolved == true);\n\n        uint voterTokens = voting.getNumPassingTokens(msg.sender, _challengeID);\n        uint reward = voterTokens.mul(challengeInstance.rewardPool)\n                      .div(challengeInstance.totalTokens);\n\n        // Subtracts the voter's information to preserve the participation ratios\n        // of other voters compared to the remaining pool of rewards\n        challengeInstance.totalTokens -= voterTokens;\n        challengeInstance.rewardPool -= reward;\n\n        // Ensures a voter cannot claim tokens again\n        challengeInstance.tokenClaims[msg.sender] = true;\n\n        require(token.transfer(msg.sender, reward));\n\n        emit _RewardClaimed(_challengeID, reward, msg.sender);\n    }\n\n    /**\n    @dev                 Called by a voter to claim their rewards for each completed vote. Someone\n                         must call updateStatus() before this can be called.\n    @param _challengeIDs The PLCR pollIDs of the challenges rewards are being claimed for\n    */\n    function claimRewards(uint[] memory _challengeIDs) public {\n        // loop through arrays, claiming each individual vote reward\n        for (uint i = 0; i < _challengeIDs.length; i++) {\n            claimReward(_challengeIDs[i]);\n        }\n    }\n\n    // --------\n    // GETTERS:\n    // --------\n\n    /**\n    @dev                Calculates the provided voter's token reward for the given poll.\n    @param _voter       The address of the voter whose reward balance is to be returned\n    @param _challengeID The pollID of the challenge a reward balance is being queried for\n    @return             The uint indicating the voter's reward\n    */\n    function voterReward(address _voter, uint _challengeID)\n    public view returns (uint) {\n        uint totalTokens = challenges[_challengeID].totalTokens;\n        uint rewardPool = challenges[_challengeID].rewardPool;\n        uint voterTokens = voting.getNumPassingTokens(_voter, _challengeID);\n        return voterTokens.mul(rewardPool).div(totalTokens);\n    }\n\n    /**\n    @dev                Determines whether the given listingHash be whitelisted.\n    @param _listingHash The listingHash whose status is to be examined\n    */\n    function canBeWhitelisted(bytes32 _listingHash) public view returns (bool) {\n        uint challengeID = listings[_listingHash].challengeID;\n\n        // Ensures that the application was made,\n        // the application period has ended,\n        // the listingHash can be whitelisted,\n        // and either: the challengeID == 0, or the challenge has been resolved.\n        if (\n            appWasMade(_listingHash) &&\n            listings[_listingHash].applicationExpiry < now &&\n            !isWhitelisted(_listingHash) &&\n            (challengeID == 0 || challenges[challengeID].resolved == true)\n        ) {\n            return true;\n        }\n\n        return false;\n    }\n\n    /**\n    @dev                Returns true if the provided listingHash is whitelisted\n    @param _listingHash The listingHash whose status is to be examined\n    */\n    function isWhitelisted(bytes32 _listingHash) public view returns (bool whitelisted) {\n        return listings[_listingHash].whitelisted;\n    }\n\n    /**\n    @dev                Returns true if apply was called for this listingHash\n    @param _listingHash The listingHash whose status is to be examined\n    */\n    function appWasMade(bytes32 _listingHash) public view returns (bool exists) {\n        return listings[_listingHash].applicationExpiry > 0;\n    }\n\n    /**\n    @dev                Returns true if the application/listingHash has an unresolved challenge\n    @param _listingHash The listingHash whose status is to be examined\n    */\n    function challengeExists(bytes32 _listingHash) public view returns (bool) {\n        uint challengeID = listings[_listingHash].challengeID;\n\n        return (listings[_listingHash].challengeID > 0 && !challenges[challengeID].resolved);\n    }\n\n    /**\n    @dev                Determines whether voting has concluded in a challenge for a given\n                        listingHash. Throws if no challenge exists.\n    @param _listingHash A listingHash with an unresolved challenge\n    */\n    function challengeCanBeResolved(bytes32 _listingHash) public view returns (bool) {\n        uint challengeID = listings[_listingHash].challengeID;\n\n        require(challengeExists(_listingHash));\n\n        return voting.pollEnded(challengeID);\n    }\n\n    /**\n    @dev                Determines the number of tokens awarded to the winning party in a challenge.\n    @param _challengeID The challengeID to determine a reward for\n    */\n    function determineReward(uint _challengeID) public view returns (uint) {\n        require(!challenges[_challengeID].resolved && voting.pollEnded(_challengeID));\n\n        if (challenges[_challengeID].isReview) {\n            return challenges[_challengeID].stake;\n        }\n\n        // Edge case, nobody voted, give all tokens to the challenger.\n        if (voting.getTotalNumberOfTokensForWinningOption(_challengeID) == 0) {\n            return 2 * challenges[_challengeID].stake;\n        }\n\n        return (2 * challenges[_challengeID].stake) - challenges[_challengeID].rewardPool;\n    }\n\n    /**\n    @dev                Getter for Challenge tokenClaims mappings\n    @param _challengeID The challengeID to query\n    @param _voter       The voter whose claim status to query for the provided challengeID\n    */\n    function tokenClaims(uint _challengeID, address _voter) public view returns (bool) {\n        return challenges[_challengeID].tokenClaims[_voter];\n    }\n\n    /**\n    @dev Getter for easy handling of listings in the Front-End\n    */\n    function getListings () public view returns (bytes32[] memory, uint[] memory,\n    bool[] memory, address[] memory, uint[] memory, uint[] memory) {\n        uint[] memory applicationExpiries = new uint[](listingsIndexes.length);\n        bool[] memory whitelistees = new bool[](listingsIndexes.length);\n        address[] memory owners = new address[](listingsIndexes.length);\n        uint[] memory unstakedDeposits = new uint[](listingsIndexes.length);\n        uint[] memory challengeIDs = new uint[](listingsIndexes.length);\n\t    uint[] memory exitTimes = new uint[](listingsIndexes.length);\n        uint[] memory exitTimeExpiries = new uint[](listingsIndexes.length);\n\n        for (uint i = 0; i < listingsIndexes.length; i++) {\n            Listing memory lst = listings[listingsIndexes[i]];\n            applicationExpiries[i] = lst.applicationExpiry;\n            whitelistees[i] = lst.whitelisted;\n            owners[i] = lst.owner;\n            unstakedDeposits[i] = lst.unstakedDeposit;\n            challengeIDs[i] = lst.challengeID;\n            exitTimes[i] = lst.exitTime;\n            exitTimeExpiries[i] = lst.exitTimeExpiry;\n        }\n        return (listingsIndexes, applicationExpiries, whitelistees, owners,\n            unstakedDeposits, challengeIDs);\n    }\n\n    /**\n    @dev Gets only the listingKeys from whitelisted listings, for easy display in frontend token lists which are curated\n    */\n    function getWhitelistedListingKeys() public view returns (bytes32[] memory) {\n        uint count = 0;\n        for (uint i = 0; i < listingsIndexes.length; i++) {\n            if (listings[listingsIndexes[i]].whitelisted) {\n                count ++;\n            }\n        }\n        bytes32[] memory whitelistedListingKeys = new bytes32[](count);\n        count = 0;\n        for (uint i = 0; i < listingsIndexes.length; i++) {\n            if (listings[listingsIndexes[i]].whitelisted) {\n                whitelistedListingKeys[count] = listingsIndexes[i];\n                count ++;\n            }\n        }\n        return whitelistedListingKeys;\n    }\n\n    /**\n    @dev Getter for easy handling of Challenges in the Front-End\n    */\n    function getChallenges () public view returns (uint[] memory, uint[] memory,\n    address[] memory, bool[] memory, bool[] memory, uint[] memory) {\n        uint[] memory challengeID = new uint[](challengesIndexes.length);\n        uint[] memory rewardPool = new uint[](challengesIndexes.length);\n        address[] memory challenger = new address[](challengesIndexes.length);\n        bool[] memory isReview = new bool[](challengesIndexes.length);\n        bool[] memory resolved = new bool[](challengesIndexes.length);\n\t    uint[] memory totalTokens = new uint[](challengesIndexes.length);\n\n        for (uint i = 0; i < challengesIndexes.length; i++){\n            Challenge memory lst = challenges[challengesIndexes[i]];\n            challengeID[i] = challengesIndexes[i];\n            rewardPool[i] = lst.rewardPool;\n            challenger[i] = lst.challenger;\n            isReview[i] = lst.isReview;\n            resolved[i] = lst.resolved;\n            totalTokens[i] = lst.totalTokens;\n        }\n        return (challengeID, rewardPool, challenger, isReview,\n            resolved, totalTokens);\n    }\n\n    /**\n    @dev Getter used for testing\n    */\n    function whoAmI() public view returns (address) {\n        return msg.sender;\n    }\n\n    // ----------------\n    // PRIVATE FUNCTIONS:\n    // ----------------\n\n/**\n    @dev Starts a poll for a listingHash which is in the apply stage.\n    @param _listingHash The listingHash being reviewed\n    */\n    function review(bytes32 _listingHash) internal returns (uint reviewID) {\n        Listing storage listing = listings[_listingHash];\n        uint reviewTax = parameterizer.get(\"reviewTax\");\n        uint minDeposit = parameterizer.get(\"minDeposit\");\n\n        // Starts poll\n        uint pollID = voting.startPoll(\n            parameterizer.get(\"reviewVoteQuorum\"),\n            parameterizer.get(\"applyStageLen\").div(2),\n            parameterizer.get(\"applyStageLen\").div(2)\n        );\n\n        challenges[pollID] = Challenge({\n            challenger: msg.sender,\n            rewardPool: reviewTax,\n            stake: minDeposit,\n            resolved: false,\n            isReview: true,\n            totalTokens: 0\n        });\n        challengesIndexes.push(pollID);\n        // Updates listingHash to store most recent challenge\n        listing.challengeID = pollID;\n\n        // Locks tokens for listingHash during challenge\n        listing.unstakedDeposit -= parameterizer.get(\"minDeposit\");\n        listing.unstakedDeposit -= reviewTax;\n\n        (uint commitEndDate, uint revealEndDate,,,) = voting.pollMap(pollID);\n\n        emit _Review(_listingHash, pollID, commitEndDate, revealEndDate);\n        return pollID;\n    }\n\n    /**\n    @dev                Determines the winner in a challenge. Rewards the winner tokens and\n                        either whitelists or de-whitelists the listingHash.\n    @param _listingHash A listingHash with a challenge that is to be resolved\n    */\n    function resolveChallenge(bytes32 _listingHash) private {\n        uint challengeID = listings[_listingHash].challengeID;\n\n        // Calculates the winner's reward,\n        // which is: (winner's full stake) + (dispensationPct * loser's stake)\n        uint reward = determineReward(challengeID);\n\n        // Sets flag on challenge being processed\n        challenges[challengeID].resolved = true;\n\n        // Stores the total tokens used for voting by the winning side for reward purposes\n        challenges[challengeID].totalTokens = voting.getTotalNumberOfTokensForWinningOption(challengeID);\n\n        // Remove the challenge index\n        removeChallengeIndex(challengeID);\n\n        // Case: challenge failed\n        if (voting.isPassed(challengeID)) {\n            whitelistApplication(_listingHash);\n            // Unlock stake so that it can be retrieved by the applicant\n            listings[_listingHash].unstakedDeposit += reward;\n            if (!challenges[challengeID].isReview){\n                emit _ChallengeFailed(_listingHash, challengeID, challenges[challengeID].rewardPool, challenges[challengeID].totalTokens);\n            }\n        }\n        // Case: challenge succeeded or nobody voted\n        else {\n            resetListing(_listingHash);\n            if(challenges[challengeID].isReview){\n                // If Review, add reward to the voter's rewardpool\n                challenges[challengeID].rewardPool += reward;\n            } else {\n                // Transfer the reward to the challenger\n                require(token.transfer(challenges[challengeID].challenger, reward));\n            }\n\n            emit _ChallengeSucceeded(_listingHash, challengeID, challenges[challengeID].rewardPool, challenges[challengeID].totalTokens);\n        }\n    }\n\n    /**\n    @dev                Called by updateStatus() if the applicationExpiry date passed without a\n                        challenge being made. Called by resolveChallenge() if an\n                        application/listing beat a challenge.\n    @param _listingHash The listingHash of an application/listingHash to be whitelisted\n    */\n    function whitelistApplication(bytes32 _listingHash) private {\n        if (!listings[_listingHash].whitelisted) {\n            emit _ApplicationWhitelisted(_listingHash);\n        }\n        listings[_listingHash].whitelisted = true;\n    }\n\n    /**\n    @dev                Deletes a listingHash from the whitelist and transfers tokens back to owner\n    @param _listingHash The listing hash to delete\n    */\n    function resetListing(bytes32 _listingHash) private {\n        Listing storage listing = listings[_listingHash];\n\n\n        // Emit events before deleting listing to check whether is whitelisted\n        if (listing.whitelisted) {\n            emit _ListingRemoved(_listingHash);\n        } else {\n            emit _ApplicationRemoved(_listingHash);\n        }\n\n        // Deleting listing to prevent reentry\n        address owner = listing.owner;\n        uint unstakedDeposit = listing.unstakedDeposit;\n        delete listings[_listingHash];\n        removeListingIndex(_listingHash);\n\n        // Transfers any remaining balance back to the owner\n        if (unstakedDeposit > 0) {\n            require(token.transfer(owner, unstakedDeposit));\n        }\n    }\n    /**\n    @dev                Deletes entry from the listingIndex\n    @param _listingHash The listing hash to delete\n    */\n    function removeListingIndex(bytes32 _listingHash) private {\n        for (uint i = 0; i<listingsIndexes.length-1; i++){\n            if (listingsIndexes[i] == _listingHash) {\n                for (uint j = i; j<listingsIndexes.length-1; j++){\n                    listingsIndexes[j] = listingsIndexes[j+1];\n                }\n                delete listingsIndexes[listingsIndexes.length-1];\n                listingsIndexes.length--;\n                break;\n            }\n        }\n    }\n\n    /**\n    @dev                Deletes entry from the listingIndex\n    @param _challengeID The listing hash to delete\n    */\n    function removeChallengeIndex(uint _challengeID) private {\n        for (uint i = 0; i<challengesIndexes.length-1; i++){\n            if (challengesIndexes[i] == _challengeID) {\n                for (uint j = i; j<challengesIndexes.length-1; j++){\n                    challengesIndexes[j] = challengesIndexes[j+1];\n                }\n                delete challengesIndexes[challengesIndexes.length-1];\n                challengesIndexes.length--;\n                break;\n            }\n        }\n    }\n}\n",
  "sourcePath": "/home/cantonioupao/susDAO-saveMe/FIN4Contracts/contracts/tcr/Registry.sol",
  "compiler": {
    "name": "solc",
    "version": "0.5.17+commit.d19bba13.Emscripten.clang"
  },
  "schemaVersion": "3.3.1",
  "updatedAt": "2020-12-03T18:31:09.875Z",
  "devdoc": {
    "methods": {
      "appWasMade(bytes32)": {
        "details": "Returns true if apply was called for this listingHash",
        "params": {
          "_listingHash": "The listingHash whose status is to be examined"
        }
      },
      "applyToken(address,uint256,string)": {
        "details": "Allows a user to start an application. Takes tokens from user and sets apply stage end time.",
        "params": {
          "_amount": "The number of GOV tokens a user is willing to potentially stake",
          "_data": "Extra data relevant to the application. Think IPFS hashes.",
          "tokenAddress": "The hash of a potential listing a user is applying to add to the registry // TODO adapt comment"
        }
      },
      "canBeWhitelisted(bytes32)": {
        "details": "Determines whether the given listingHash be whitelisted.",
        "params": {
          "_listingHash": "The listingHash whose status is to be examined"
        }
      },
      "challenge(bytes32,string)": {
        "details": "Starts a poll for a listingHash which is already in the whitelist. Tokens are taken from the challenger and the applicant's deposits are locked.",
        "params": {
          "_data": "Extra data relevant to the challenge. Think IPFS hashes.",
          "_listingHash": "The listingHash being challenged, whether listed or in application"
        }
      },
      "challengeCanBeResolved(bytes32)": {
        "details": "Determines whether voting has concluded in a challenge for a given listingHash. Throws if no challenge exists.",
        "params": {
          "_listingHash": "A listingHash with an unresolved challenge"
        }
      },
      "challengeExists(bytes32)": {
        "details": "Returns true if the application/listingHash has an unresolved challenge",
        "params": {
          "_listingHash": "The listingHash whose status is to be examined"
        }
      },
      "claimReward(uint256)": {
        "details": "Called by a voter to claim their reward for each completed vote. Someone must call updateStatus() before this can be called.",
        "params": {
          "_challengeID": "The PLCR pollID of the challenge a reward is being claimed for"
        }
      },
      "claimRewards(uint256[])": {
        "details": "Called by a voter to claim their rewards for each completed vote. Someone must call updateStatus() before this can be called.",
        "params": {
          "_challengeIDs": "The PLCR pollIDs of the challenges rewards are being claimed for"
        }
      },
      "deposit(bytes32,uint256)": {
        "details": "Allows the owner of a listingHash to increase their unstaked deposit.",
        "params": {
          "_amount": "The number of GOV tokens to increase a user's unstaked deposit",
          "_listingHash": "A listingHash msg.sender is the owner of"
        }
      },
      "determineReward(uint256)": {
        "details": "Determines the number of tokens awarded to the winning party in a challenge.",
        "params": {
          "_challengeID": "The challengeID to determine a reward for"
        }
      },
      "finalizeExit(bytes32)": {
        "details": "Allow a listing to leave the whitelist",
        "params": {
          "_listingHash": "A listing hash msg.sender is the owner of"
        }
      },
      "getChallenges()": {
        "details": "Getter for easy handling of Challenges in the Front-End"
      },
      "getListings()": {
        "details": "Getter for easy handling of listings in the Front-End"
      },
      "getWhitelistedListingKeys()": {
        "details": "Gets only the listingKeys from whitelisted listings, for easy display in frontend token lists which are curated"
      },
      "init(address,address,address,string)": {
        "details": "Initializer. Can only be called once.",
        "params": {
          "_token": "The address where the GOV token contract is deployed"
        }
      },
      "initExit(bytes32)": {
        "details": "Initialize an exit timer for a listing to leave the whitelist",
        "params": {
          "_listingHash": "A listing hash msg.sender is the owner of"
        }
      },
      "isWhitelisted(bytes32)": {
        "details": "Returns true if the provided listingHash is whitelisted",
        "params": {
          "_listingHash": "The listingHash whose status is to be examined"
        }
      },
      "tokenClaims(uint256,address)": {
        "details": "Getter for Challenge tokenClaims mappings",
        "params": {
          "_challengeID": "The challengeID to query",
          "_voter": "The voter whose claim status to query for the provided challengeID"
        }
      },
      "updateStatus(bytes32)": {
        "details": "Updates a listingHash's status from 'application' to 'listing' or resolves a challenge if one exists.",
        "params": {
          "_listingHash": "The listingHash whose status is being updated"
        }
      },
      "updateStatuses(bytes32[])": {
        "details": "Updates an array of listingHashes' status from 'application' to 'listing' or resolves a challenge if one exists.",
        "params": {
          "_listingHashes": "The listingHashes whose status are being updated"
        }
      },
      "voterReward(address,uint256)": {
        "details": "Calculates the provided voter's token reward for the given poll.",
        "params": {
          "_challengeID": "The pollID of the challenge a reward balance is being queried for",
          "_voter": "The address of the voter whose reward balance is to be returned"
        },
        "return": "The uint indicating the voter's reward"
      },
      "whoAmI()": {
        "details": "Getter used for testing"
      },
      "withdraw(bytes32,uint256)": {
        "details": "Allows the owner of a listingHash to decrease their unstaked deposit.",
        "params": {
          "_amount": "The number of GOV tokens to withdraw from the unstaked deposit.",
          "_listingHash": "A listingHash msg.sender is the owner of."
        }
      }
    }
  },
  "userdoc": {
    "methods": {}
  }
}