{
  "contractName": "TestImplOfSuccClaimNotifer",
  "abi": [
    {
      "constant": true,
      "inputs": [],
      "name": "dev",
      "outputs": [
        {
          "internalType": "string",
          "name": "",
          "type": "string"
        }
      ],
      "payable": false,
      "stateMutability": "view",
      "type": "function"
    },
    {
      "constant": false,
      "inputs": [
        {
          "internalType": "address",
          "name": "tokenAddress",
          "type": "address"
        },
        {
          "internalType": "address",
          "name": "claimer",
          "type": "address"
        },
        {
          "internalType": "uint256",
          "name": "claimedQuantity",
          "type": "uint256"
        }
      ],
      "name": "successfulClaimNotify",
      "outputs": [],
      "payable": false,
      "stateMutability": "nonpayable",
      "type": "function"
    }
  ],
  "bytecode": "0x60c0604052601060808190526f1b9bdd1a1a5b99c81a185c1c195b995960821b60a09081526100319160009190610044565b5034801561003e57600080fd5b506100df565b828054600181600116156101000203166002900490600052602060002090601f016020900481019282601f1061008557805160ff19168380011785556100b2565b828001600101855582156100b2579182015b828111156100b2578251825591602001919060010190610097565b506100be9291506100c2565b5090565b6100dc91905b808211156100be57600081556001016100c8565b90565b610287806100ee6000396000f3fe608060405234801561001057600080fd5b50600436106100365760003560e01c806391cca3db1461003b578063db3d385f146100b8575b600080fd5b6100436100f0565b6040805160208082528351818301528351919283929083019185019080838360005b8381101561007d578181015183820152602001610065565b50505050905090810190601f1680156100aa5780820380516001836020036101000a031916815260200191505b509250505060405180910390f35b6100ee600480360360608110156100ce57600080fd5b506001600160a01b0381358116916020810135909116906040013561017e565b005b6000805460408051602060026001851615610100026000190190941693909304601f810184900484028201840190925281815292918301828280156101765780601f1061014b57610100808354040283529160200191610176565b820191906000526020600020905b81548152906001019060200180831161015957829003601f168201915b505050505081565b60408051808201909152600c8082526b7468617420776f726b65642160a01b60209092019182526101b1916000916101b7565b50505050565b828054600181600116156101000203166002900490600052602060002090601f016020900481019282601f106101f857805160ff1916838001178555610225565b82800160010185558215610225579182015b8281111561022557825182559160200191906001019061020a565b50610231929150610235565b5090565b61024f91905b80821115610231576000815560010161023b565b9056fea265627a7a72315820d2a088cfee79f3722b96ac6bd5001647f6d24889437a8dcd039ee6f317dc66b464736f6c63430005110032",
  "source": "pragma solidity ^0.5.17;\n\nimport 'contracts/underlyings/SuccessfulClaimNotifierInterface.sol';\n\ncontract TestImplOfSuccClaimNotifer is SuccessfulClaimNotifierInterface {\n\n    string public dev = \"nothing happened\";\n\n    function successfulClaimNotify(address tokenAddress, address claimer, uint claimedQuantity) public {\n        dev = \"that worked!\";\n    }\n\n}\n",
  "sourcePath": "/home/cantonioupao/susDAO-saveMe/FIN4Contracts/contracts/underlyings/TestImplOfSuccClaimNotifer.sol",
  "compiler": {
    "name": "solc",
    "version": "0.5.17+commit.d19bba13.Emscripten.clang"
  },
  "schemaVersion": "3.3.1",
  "updatedAt": "2020-12-03T18:27:58.955Z",
  "devdoc": {
    "methods": {}
  },
  "userdoc": {
    "methods": {}
  }
}