{
  "contractName": "TokenCreatorApproval",
  "abi": [
    {
      "inputs": [],
      "payable": false,
      "stateMutability": "nonpayable",
      "type": "constructor"
    },
    {
      "constant": true,
      "inputs": [],
      "name": "Fin4MessagingAddress",
      "outputs": [
        {
          "internalType": "address",
          "name": "",
          "type": "address"
        }
      ],
      "payable": false,
      "stateMutability": "view",
      "type": "function"
    },
    {
      "constant": true,
      "inputs": [
        {
          "internalType": "address",
          "name": "_addr",
          "type": "address"
        }
      ],
      "name": "addressToString",
      "outputs": [
        {
          "internalType": "string",
          "name": "",
          "type": "string"
        }
      ],
      "payable": false,
      "stateMutability": "pure",
      "type": "function"
    },
    {
      "constant": true,
      "inputs": [
        {
          "internalType": "address[]",
          "name": "arr",
          "type": "address[]"
        },
        {
          "internalType": "address",
          "name": "addrToCheck",
          "type": "address"
        }
      ],
      "name": "arrayContainsAddress",
      "outputs": [
        {
          "internalType": "bool",
          "name": "",
          "type": "bool"
        }
      ],
      "payable": false,
      "stateMutability": "pure",
      "type": "function"
    },
    {
      "constant": false,
      "inputs": [
        {
          "internalType": "address",
          "name": "user",
          "type": "address"
        },
        {
          "internalType": "address",
          "name": "tokenAddrToReceiveVerifierNotice",
          "type": "address"
        },
        {
          "internalType": "uint256",
          "name": "claimId",
          "type": "uint256"
        }
      ],
      "name": "autoCheck",
      "outputs": [],
      "payable": false,
      "stateMutability": "nonpayable",
      "type": "function"
    },
    {
      "constant": false,
      "inputs": [
        {
          "internalType": "address",
          "name": "user",
          "type": "address"
        },
        {
          "internalType": "address",
          "name": "tokenAddrToReceiveVerifierNotice",
          "type": "address"
        },
        {
          "internalType": "uint256",
          "name": "claimId",
          "type": "uint256"
        }
      ],
      "name": "autoSubmitProof",
      "outputs": [],
      "payable": false,
      "stateMutability": "nonpayable",
      "type": "function"
    },
    {
      "constant": true,
      "inputs": [],
      "name": "contractName",
      "outputs": [
        {
          "internalType": "string",
          "name": "",
          "type": "string"
        }
      ],
      "payable": false,
      "stateMutability": "view",
      "type": "function"
    },
    {
      "constant": true,
      "inputs": [],
      "name": "description",
      "outputs": [
        {
          "internalType": "string",
          "name": "",
          "type": "string"
        }
      ],
      "payable": false,
      "stateMutability": "view",
      "type": "function"
    },
    {
      "constant": true,
      "inputs": [
        {
          "internalType": "address",
          "name": "tokenAddress",
          "type": "address"
        }
      ],
      "name": "getCreatorOfToken",
      "outputs": [
        {
          "internalType": "address",
          "name": "",
          "type": "address"
        }
      ],
      "payable": false,
      "stateMutability": "view",
      "type": "function"
    },
    {
      "constant": true,
      "inputs": [],
      "name": "getDescription",
      "outputs": [
        {
          "internalType": "string",
          "name": "",
          "type": "string"
        }
      ],
      "payable": false,
      "stateMutability": "view",
      "type": "function"
    },
    {
      "constant": true,
      "inputs": [],
      "name": "getInfo",
      "outputs": [
        {
          "internalType": "string",
          "name": "",
          "type": "string"
        },
        {
          "internalType": "string",
          "name": "",
          "type": "string"
        },
        {
          "internalType": "string",
          "name": "",
          "type": "string"
        },
        {
          "internalType": "string",
          "name": "",
          "type": "string"
        }
      ],
      "payable": false,
      "stateMutability": "view",
      "type": "function"
    },
    {
      "constant": true,
      "inputs": [],
      "name": "getName",
      "outputs": [
        {
          "internalType": "string",
          "name": "",
          "type": "string"
        }
      ],
      "payable": false,
      "stateMutability": "view",
      "type": "function"
    },
    {
      "constant": true,
      "inputs": [],
      "name": "getParameterForTokenCreatorToSetEncoded",
      "outputs": [
        {
          "internalType": "string",
          "name": "",
          "type": "string"
        }
      ],
      "payable": false,
      "stateMutability": "pure",
      "type": "function"
    },
    {
      "constant": true,
      "inputs": [],
      "name": "isAutoCheckable",
      "outputs": [
        {
          "internalType": "bool",
          "name": "",
          "type": "bool"
        }
      ],
      "payable": false,
      "stateMutability": "view",
      "type": "function"
    },
    {
      "constant": true,
      "inputs": [],
      "name": "isAutoInitiable",
      "outputs": [
        {
          "internalType": "bool",
          "name": "",
          "type": "bool"
        }
      ],
      "payable": false,
      "stateMutability": "view",
      "type": "function"
    },
    {
      "constant": true,
      "inputs": [],
      "name": "name",
      "outputs": [
        {
          "internalType": "string",
          "name": "",
          "type": "string"
        }
      ],
      "payable": false,
      "stateMutability": "view",
      "type": "function"
    },
    {
      "constant": true,
      "inputs": [
        {
          "internalType": "address",
          "name": "",
          "type": "address"
        },
        {
          "internalType": "uint256",
          "name": "",
          "type": "uint256"
        }
      ],
      "name": "pendingApprovals",
      "outputs": [
        {
          "internalType": "address",
          "name": "tokenAddrToReceiveVerifierNotice",
          "type": "address"
        },
        {
          "internalType": "uint256",
          "name": "claimIdOnTokenToReceiveVerifierDecision",
          "type": "uint256"
        },
        {
          "internalType": "address",
          "name": "requester",
          "type": "address"
        },
        {
          "internalType": "address",
          "name": "approver",
          "type": "address"
        },
        {
          "internalType": "string",
          "name": "attachment",
          "type": "string"
        },
        {
          "internalType": "uint256",
          "name": "messageId",
          "type": "uint256"
        },
        {
          "internalType": "bool",
          "name": "isApproved",
          "type": "bool"
        },
        {
          "internalType": "address",
          "name": "linkedWith",
          "type": "address"
        },
        {
          "internalType": "uint256",
          "name": "pendingApprovalId",
          "type": "uint256"
        },
        {
          "internalType": "uint256",
          "name": "linkedWithPendingApprovalId",
          "type": "uint256"
        }
      ],
      "payable": false,
      "stateMutability": "view",
      "type": "function"
    },
    {
      "constant": false,
      "inputs": [
        {
          "internalType": "uint256",
          "name": "pendingApprovalId",
          "type": "uint256"
        },
        {
          "internalType": "string",
          "name": "attachedMessage",
          "type": "string"
        }
      ],
      "name": "receiveApproval",
      "outputs": [],
      "payable": false,
      "stateMutability": "nonpayable",
      "type": "function"
    },
    {
      "constant": false,
      "inputs": [
        {
          "internalType": "uint256",
          "name": "pendingApprovalId",
          "type": "uint256"
        },
        {
          "internalType": "string",
          "name": "attachedMessage",
          "type": "string"
        }
      ],
      "name": "receiveRejection",
      "outputs": [],
      "payable": false,
      "stateMutability": "nonpayable",
      "type": "function"
    },
    {
      "constant": false,
      "inputs": [
        {
          "internalType": "string",
          "name": "_contractName",
          "type": "string"
        }
      ],
      "name": "setContractName",
      "outputs": [],
      "payable": false,
      "stateMutability": "nonpayable",
      "type": "function"
    },
    {
      "constant": false,
      "inputs": [
        {
          "internalType": "address",
          "name": "Fin4MessagingAddr",
          "type": "address"
        }
      ],
      "name": "setFin4MessagingAddress",
      "outputs": [],
      "payable": false,
      "stateMutability": "nonpayable",
      "type": "function"
    },
    {
      "constant": false,
      "inputs": [
        {
          "internalType": "address",
          "name": "tokenAddrToReceiveVerifierNotice",
          "type": "address"
        },
        {
          "internalType": "uint256",
          "name": "claimId",
          "type": "uint256"
        },
        {
          "internalType": "address",
          "name": "approver",
          "type": "address"
        }
      ],
      "name": "submitProof_SpecificAddress",
      "outputs": [],
      "payable": false,
      "stateMutability": "nonpayable",
      "type": "function"
    },
    {
      "constant": false,
      "inputs": [],
      "name": "init",
      "outputs": [],
      "payable": false,
      "stateMutability": "nonpayable",
      "type": "function"
    },
    {
      "constant": false,
      "inputs": [
        {
          "internalType": "address",
          "name": "tokenAddrToReceiveVerifierNotice",
          "type": "address"
        },
        {
          "internalType": "uint256",
          "name": "claimId",
          "type": "uint256"
        }
      ],
      "name": "submitProof_TokenCreatorApproval",
      "outputs": [],
      "payable": false,
      "stateMutability": "nonpayable",
      "type": "function"
    },
    {
      "constant": true,
      "inputs": [],
      "name": "getMessageText",
      "outputs": [
        {
          "internalType": "string",
          "name": "",
          "type": "string"
        }
      ],
      "payable": false,
      "stateMutability": "pure",
      "type": "function"
    }
  ],
  "bytecode": "0x60806040526003805461ffff191690553480156200001c57600080fd5b50620000306001600160e01b036200003616565b6200013f565b6040518060600160405280602781526020016200255460279139805162000066916001916020909101906200009a565b506040518060600160405280602e81526020016200257b602e9139805162000097916002916020909101906200009a565b50565b828054600181600116156101000203166002900490600052602060002090601f016020900481019282601f10620000dd57805160ff19168380011785556200010d565b828001600101855582156200010d579182015b828111156200010d578251825591602001919060010190620000f0565b506200011b9291506200011f565b5090565b6200013c91905b808211156200011b576000815560010162000126565b90565b612405806200014f6000396000f3fe608060405234801561001057600080fd5b50600436106101585760003560e01c80637284e416116100c3578063c05ebcc51161007c578063c05ebcc5146107fe578063cec547cc14610806578063e1c7392a14610832578063e4ad4acd1461083a578063eb92f76a14610842578063ffc5daef146107c857610158565b80637284e416146106de57806375d0c0dc146106e65780637f1a5c20146106ee5780638bbfc6eb146106f65780639259360c1461071c578063ae18e0a5146107c857610158565b8063367909321161011557806336790932146103715780633939f53d146103b35780634d1a1d5d146104e25780635a9b0b89146104fe5780635e57966d146106b05780636c71d542146106d657610158565b806306fdde031461015d5780630b5ee006146101da57806317d7de7c146102805780631a092541146102885780631f3a5c451461029057806324b4de26146102c6575b600080fd5b6101656108ed565b6040805160208082528351818301528351919283929083019185019080838360005b8381101561019f578181015183820152602001610187565b50505050905090810190601f1680156101cc5780820380516001836020036101000a031916815260200191505b509250505060405180910390f35b61027e600480360360208110156101f057600080fd5b810190602081018135600160201b81111561020a57600080fd5b82018360208201111561021c57600080fd5b803590602001918460018302840111600160201b8311171561023d57600080fd5b91908080601f01602080910402602001604051908101604052809392919081815260200183838082843760009201919091525092955061097a945050505050565b005b610165610991565b610165610a27565b61027e600480360360608110156102a657600080fd5b506001600160a01b03813581169160208101359160409091013516610a85565b61027e600480360360408110156102dc57600080fd5b81359190810190604081016020820135600160201b8111156102fd57600080fd5b82018360208201111561030f57600080fd5b803590602001918460018302840111600160201b8311171561033057600080fd5b91908080601f016020809104026020016040519081016040528093929190818152602001838380828437600092019190915250929550610ff7945050505050565b6103976004803603602081101561038757600080fd5b50356001600160a01b031661121d565b604080516001600160a01b039092168252519081900360200190f35b6103df600480360360408110156103c957600080fd5b506001600160a01b03813516906020013561128a565b604051808b6001600160a01b03166001600160a01b031681526020018a8152602001896001600160a01b03166001600160a01b03168152602001886001600160a01b03166001600160a01b031681526020018060200187815260200186151515158152602001856001600160a01b03166001600160a01b03168152602001848152602001838152602001828103825288818151815260200191508051906020019080838360005b8381101561049e578181015183820152602001610486565b50505050905090810190601f1680156104cb5780820380516001836020036101000a031916815260200191505b509b50505050505050505050505060405180910390f35b6104ea61139b565b604080519115158252519081900360200190f35b6105066113a9565b6040518080602001806020018060200180602001858103855289818151815260200191508051906020019080838360005b8381101561054f578181015183820152602001610537565b50505050905090810190601f16801561057c5780820380516001836020036101000a031916815260200191505b5085810384528851815288516020918201918a019080838360005b838110156105af578181015183820152602001610597565b50505050905090810190601f1680156105dc5780820380516001836020036101000a031916815260200191505b50858103835287518152875160209182019189019080838360005b8381101561060f5781810151838201526020016105f7565b50505050905090810190601f16801561063c5780820380516001836020036101000a031916815260200191505b50858103825286518152865160209182019188019080838360005b8381101561066f578181015183820152602001610657565b50505050905090810190601f16801561069c5780820380516001836020036101000a031916815260200191505b509850505050505050505060405180910390f35b610165600480360360208110156106c657600080fd5b50356001600160a01b0316611574565b6101656116f0565b610165611702565b61016561175a565b6101656117b5565b61027e6004803603602081101561070c57600080fd5b50356001600160a01b03166117d5565b6104ea6004803603604081101561073257600080fd5b810190602081018135600160201b81111561074c57600080fd5b82018360208201111561075e57600080fd5b803590602001918460208302840111600160201b8311171561077f57600080fd5b919080806020026020016040519081016040528093929190818152602001838360200280828437600092019190915250929550505090356001600160a01b031691506117ff9050565b61027e600480360360608110156107de57600080fd5b506001600160a01b03813581169160208101359091169060400135611218565b6104ea611857565b61027e6004803603604081101561081c57600080fd5b506001600160a01b038135169060200135611860565b61027e611873565b6103976118d1565b61027e6004803603604081101561085857600080fd5b81359190810190604081016020820135600160201b81111561087957600080fd5b82018360208201111561088b57600080fd5b803590602001918460018302840111600160201b831117156108ac57600080fd5b91908080601f0160208091040260200160405190810160405280939291908181526020018383808284376000920191909152509295506118e6945050505050565b60018054604080516020600284861615610100026000190190941693909304601f810184900484028201840190925281815292918301828280156109725780601f1061094757610100808354040283529160200191610972565b820191906000526020600020905b81548152906001019060200180831161095557829003601f168201915b505050505081565b805161098d90600090602084019061218b565b5050565b60018054604080516020601f60026000196101008789161502019095169490940493840181900481028201810190925282815260609390929091830182828015610a1c5780601f106109f157610100808354040283529160200191610a1c565b820191906000526020600020905b8154815290600101906020018083116109ff57829003601f168201915b505050505090505b90565b60028054604080516020601f6000196101006001871615020190941685900493840181900481028201810190925282815260609390929091830182828015610a1c5780601f106109f157610100808354040283529160200191610a1c565b336001600160a01b0382161415610ae3576040805162461bcd60e51b815260206004820152601d60248201527f53656c662d617070726f76616c206973206e6f7420616c6c6f7765642e000000604482015290519081900360640190fd5b610aeb612209565b6001600160a01b0380851682526020808301859052336040808501919091529184166060808501829052600091825260049092529190912054610100830152610b326117b5565b856001600160a01b03166306fdde036040518163ffffffff1660e01b815260040160006040518083038186803b158015610b6b57600080fd5b505afa158015610b7f573d6000803e3d6000fd5b505050506040513d6000823e601f3d908101601f191682016040526020811015610ba857600080fd5b8101908080516040519392919084600160201b821115610bc757600080fd5b908301906020820185811115610bdc57600080fd5b8251600160201b811182820188101715610bf557600080fd5b82525081516020918201929091019080838360005b83811015610c22578181015183820152602001610c0a565b50505050905090810190601f168015610c4f5780820380516001836020036101000a031916815260200191505b506040525050506040516020018083805190602001908083835b60208310610c885780518252601f199092019160209182019101610c69565b51815160209384036101000a600019018019909216911617905285519190930192850191508083835b60208310610cd05780518252601f199092019160209182019101610cb1565b6001836020036101000a038019825116818451168082178552505050505050905001925050506040516020818303038152906040529050600360029054906101000a90046001600160a01b03166001600160a01b031663a12e93dd33600086858761010001516040518663ffffffff1660e01b815260040180866001600160a01b03166001600160a01b0316815260200180602001856001600160a01b03166001600160a01b031681526020018060200180602001858152602001848103845288818154600181600116156101000203166002900481526020019150805460018160011615610100020316600290048015610e0c5780601f10610de157610100808354040283529160200191610e0c565b820191906000526020600020905b815481529060010190602001808311610def57829003601f168201915b5050848103835286518152865160209182019188019080838360005b83811015610e40578181015183820152602001610e28565b50505050905090810190601f168015610e6d5780820380516001836020036101000a031916815260200191505b5084810382526000815260200160200198505050505050505050602060405180830381600087803b158015610ea157600080fd5b505af1158015610eb5573d6000803e3d6000fd5b505050506040513d6020811015610ecb57600080fd5b505160a08301526001600160a01b0380841660009081526004602081815260408084208054600181810180845592875295849020895160099092020180549188166001600160a01b031992831617815589850151968101969096559188015160028601805491881691841691909117905560608801516003860180549190971692169190911790945560808601518051879493610f6d9390850192019061218b565b5060a0820151600582015560c082015160068201805460e085015160ff1990911692151592909217610100600160a81b0319166101006001600160a01b0390931683021790558201516007820155610120909101516008909101555060408051606081019091526032808252610ff0913091889188916122de6020830139611de1565b5050505050565b610fff612209565b33600090815260046020526040902080548490811061101a57fe5b6000918252602091829020604080516101408101825260099390930290910180546001600160a01b039081168452600180830154858701526002808401548316868601526003840154909216606086015260048301805485516101009382161593909302600019011692909204601f810187900487028201870190945283815293949193608086019390928301828280156110f65780601f106110cb576101008083540402835291602001916110f6565b820191906000526020600020905b8154815290600101906020018083116110d957829003601f168201915b505050918352505060058201546020820152600682015460ff8116151560408301526001600160a01b0361010090910481166060808401919091526007840154608084015260089093015460a0909201919091529082015191925016331461118f5760405162461bcd60e51b81526004018080602001828103825260448152602001806123656044913960600191505060405180910390fd5b60035460a0820151604080516392825c7960e01b8152336004820152602481019290925251620100009092046001600160a01b0316916392825c799160448082019260009290919082900301818387803b1580156111ec57600080fd5b505af1158015611200573d6000803e3d6000fd5b50505050611218308260000151836020015185611f95565b505050565b6000816001600160a01b0316639c6790176040518163ffffffff1660e01b815260040160206040518083038186803b15801561125857600080fd5b505afa15801561126c573d6000803e3d6000fd5b505050506040513d602081101561128257600080fd5b505192915050565b600460205281600052604060002081815481106112a357fe5b600091825260209182902060099190910201805460018083015460028085015460038601546004870180546040805161010098831615989098026000190190911694909404601f81018a90048a0287018a019094528386526001600160a01b039687169a5093985090851696941694938301828280156113645780601f1061133957610100808354040283529160200191611364565b820191906000526020600020905b81548152906001019060200180831161134757829003601f168201915b505050506005830154600684015460078501546008909501549394919360ff821693506101009091046001600160a01b031691908a565b600354610100900460ff1681565b6060806060806000600160026113bd6116f0565b8354604080516020601f600260001961010060018816150201909516949094049384018190048102820181019092528281529186918301828280156114435780601f1061141857610100808354040283529160200191611443565b820191906000526020600020905b81548152906001019060200180831161142657829003601f168201915b5050865460408051602060026001851615610100026000190190941693909304601f8101849004840282018401909252818152959950889450925084019050828280156114d15780601f106114a6576101008083540402835291602001916114d1565b820191906000526020600020905b8154815290600101906020018083116114b457829003601f168201915b5050855460408051602060026001851615610100026000190190941693909304601f81018490048402820184019092528181529598508794509250840190508282801561155f5780601f106115345761010080835404028352916020019161155f565b820191906000526020600020905b81548152906001019060200180831161154257829003601f168201915b50505050509150935093509350935090919293565b604080518082018252601081526f181899199a1a9b1b9c1cb0b131b232b360811b60208201528151602a80825260608281019094526001600160a01b03851692918491602082018180388339019050509050600360fc1b816000815181106115d857fe5b60200101906001600160f81b031916908160001a905350600f60fb1b8160018151811061160157fe5b60200101906001600160f81b031916908160001a90535060005b60148110156116e7578260048583600c016020811061163657fe5b1a60f81b6001600160f81b031916901c60f81c60ff168151811061165657fe5b602001015160f81c60f81b82826002026002018151811061167357fe5b60200101906001600160f81b031916908160001a905350828482600c016020811061169a57fe5b825191901a600f169081106116ab57fe5b602001015160f81c60f81b8282600202600301815181106116c857fe5b60200101906001600160f81b031916908160001a90535060010161161b565b50949350505050565b60408051602081019091526000815290565b6002805460408051602060018416156101000260001901909316849004601f810184900484028201840190925281815292918301828280156109725780601f1061094757610100808354040283529160200191610972565b6000805460408051602060026001851615610100026000190190941693909304601f810184900484028201840190925281815292918301828280156109725780601f1061094757610100808354040283529160200191610972565b60606040518060a001604052806067815260200161227760679139905090565b600380546001600160a01b03909216620100000262010000600160b01b0319909216919091179055565b6000805b835181101561184b57826001600160a01b031684828151811061182257fe5b60200260200101516001600160a01b03161415611843576001915050611851565b600101611803565b50600090505b92915050565b60035460ff1681565b61098d828261186e8561121d565b610a85565b6040518060600160405280602781526020016123106027913980516118a09160019160209091019061218b565b506040518060600160405280602e8152602001612337602e913980516118ce9160029160209091019061218b565b50565b6003546201000090046001600160a01b031681565b6118ee612209565b33600090815260046020526040902080548490811061190957fe5b6000918252602091829020604080516101408101825260099390930290910180546001600160a01b039081168452600180830154858701526002808401548316868601526003840154909216606086015260048301805485516101009382161593909302600019011692909204601f810187900487028201870190945283815293949193608086019390928301828280156119e55780601f106119ba576101008083540402835291602001916119e5565b820191906000526020600020905b8154815290600101906020018083116119c857829003601f168201915b505050918352505060058201546020820152600682015460ff8116151560408301526001600160a01b0361010090910481166060808401919091526007840154608084015260089093015460a09092019190915290820151919250163314611a7e5760405162461bcd60e51b81526004018080602001828103825260448152602001806123656044913960600191505060405180910390fd5b60035460a0820151604080516392825c7960e01b8152336004820152602481019290925251620100009092046001600160a01b0316916392825c799160448082019260009290919082900301818387803b158015611adb57600080fd5b505af1158015611aef573d6000803e3d6000fd5b505050506060611b028260600151611574565b82600001516001600160a01b03166306fdde036040518163ffffffff1660e01b815260040160006040518083038186803b158015611b3f57600080fd5b505afa158015611b53573d6000803e3d6000fd5b505050506040513d6000823e601f3d908101601f191682016040526020811015611b7c57600080fd5b8101908080516040519392919084600160201b821115611b9b57600080fd5b908301906020820185811115611bb057600080fd5b8251600160201b811182820188101715611bc957600080fd5b82525081516020918201929091019080838360005b83811015611bf6578181015183820152602001611bde565b50505050905090810190601f168015611c235780820380516001836020036101000a031916815260200191505b5060405250505060405160200180806402ab9b2b9160dd1b81525060050183805190602001908083835b60208310611c6c5780518252601f199092019160209182019101611c4d565b6001836020036101000a038019825116818451168082178552505050505050905001806123a96028913960280182805190602001908083835b60208310611cc45780518252601f199092019160209182019101611ca5565b6001836020036101000a038019825116818451168082178552505050505050905001925050506040516020818303038152906040529050600083511115611dc75780836040516020018083805190602001908083835b60208310611d395780518252601f199092019160209182019101611d1a565b51815160209384036101000a60001901801990921691161790526101d160f51b919093019081528451600290910192850191508083835b60208310611d8f5780518252601f199092019160209182019101611d70565b6001836020036101000a0380198251168184511680821785525050505050509050019250505060405160208183030381529060405290505b611ddb30836000015184602001518461201b565b50505050565b6040805162379c0960e91b81523060048201526024810184905290516001600160a01b03851691636f3812009160448083019260209291908290030181600087803b158015611e2f57600080fd5b505af1158015611e43573d6000803e3d6000fd5b505050506040513d6020811015611e5957600080fd5b505115611ead576040805162461bcd60e51b815260206004820152601f60248201527f546869732070726f6f6620697320616c7265616479207375626d697474656400604482015290519081900360640190fd5b826001600160a01b03166359af61528584846040518463ffffffff1660e01b815260040180846001600160a01b03166001600160a01b0316815260200183815260200180602001828103825283818151815260200191508051906020019080838360005b83811015611f29578181015183820152602001611f11565b50505050905090810190601f168015611f565780820380516001836020036101000a031916815260200191505b50945050505050600060405180830381600087803b158015611f7757600080fd5b505af1158015611f8b573d6000803e3d6000fd5b5050505050505050565b611f9f83836120a1565b50826001600160a01b031663bdc656e98584846040518463ffffffff1660e01b815260040180846001600160a01b03166001600160a01b03168152602001838152602001806020018281038252838181518152602001915080519060200190808383600083811015611f29578181015183820152602001611f11565b61202583836120a1565b50826001600160a01b0316637c41e5d88584846040518463ffffffff1660e01b815260040180846001600160a01b03166001600160a01b03168152602001838152602001806020018281038252838181518152602001915080519060200190808383600083811015611f29578181015183820152602001611f11565b6040805162379c0960e91b815230600482015260248101839052905160009182916001600160a01b03861691636f38120091604480830192602092919082900301818787803b1580156120f357600080fd5b505af1158015612107573d6000803e3d6000fd5b505050506040513d602081101561211d57600080fd5b5051905060028114801590612133575080600314155b612184576040805162461bcd60e51b815260206004820181905260248201527f5468697320766572696669657220697320616c72656164792064656369646564604482015290519081900360640190fd5b5092915050565b828054600181600116156101000203166002900490600052602060002090601f016020900481019282601f106121cc57805160ff19168380011785556121f9565b828001600101855582156121f9579182015b828111156121f95782518255916020019190600101906121de565b5061220592915061225c565b5090565b60408051610140810182526000808252602082018190529181018290526060808201839052608082015260a0810182905260c0810182905260e08101829052610100810182905261012081019190915290565b610a2491905b80821115612205576000815560010161226256fe596f752061732074686520746f6b656e2063726561746f7220776572652072657175657374656420746f20617070726f766520746865207665726966696572207479706520546f6b656e43726561746f72417070726f76616c206f6e2074686520746f6b656e20596f757220617070726f76657220686173206265656e206e6f7469666965642061626f75742074686520726571756573742e73632e76657269666965722e746f6b656e2d63726561746f722d617070726f76616c2e6e616d6573632e76657269666965722e746f6b656e2d63726561746f722d617070726f76616c2e6465736372697074696f6e546869732061646472657373206973206e6f74207265676973746572656420617320617070726f76657220666f7220746869732070656e64696e6720617070726f76616c206861732072656a656374656420796f757220617070726f76616c207265717565737420666f7220a265627a7a7231582078d44df1da7579014c25ef7f048cb7412f4d8d349b910aba502ac3746cb82dee64736f6c6343000511003273632e76657269666965722e746f6b656e2d63726561746f722d617070726f76616c2e6e616d6573632e76657269666965722e746f6b656e2d63726561746f722d617070726f76616c2e6465736372697074696f6e",
  "source": "pragma solidity ^0.5.17;\n\nimport \"contracts/verifiers/onchain/social/SpecificAddress.sol\";\n\ncontract TokenCreatorApproval is SpecificAddress {\n\n    constructor() public {}\n\n    // @Override\n    function init() public {\n        name = \"sc.verifier.token-creator-approval.name\";\n        description = \"sc.verifier.token-creator-approval.description\";\n    }\n\n    // TODO can be autoSubmit\n    function submitProof_TokenCreatorApproval(address tokenAddrToReceiveVerifierNotice, uint claimId) public {\n        // Sends a message to the token creator so that he either approves or rejects\n        submitProof_SpecificAddress(tokenAddrToReceiveVerifierNotice, claimId, getCreatorOfToken(tokenAddrToReceiveVerifierNotice));\n    }\n\n    // @Override\n    function getMessageText() public pure returns(string memory) {\n        return \"You as the token creator were requested to approve the verifier type TokenCreatorApproval on the token \";\n    }\n\n}\n",
  "sourcePath": "/home/cantonioupao/susDAO-saveMe/FIN4Contracts/contracts/verifiers/onchain/social/TokenCreatorApproval.sol",
  "compiler": {
    "name": "solc",
    "version": "0.5.17+commit.d19bba13.Emscripten.clang"
  },
  "schemaVersion": "3.3.1",
  "updatedAt": "2020-12-03T18:27:59.040Z",
  "devdoc": {
    "methods": {}
  },
  "userdoc": {
    "methods": {}
  }
}