{
  "contractName": "utils",
  "abi": [
    {
      "constant": true,
      "inputs": [
        {
          "internalType": "address",
          "name": "_addr",
          "type": "address"
        }
      ],
      "name": "addressToString",
      "outputs": [
        {
          "internalType": "string",
          "name": "",
          "type": "string"
        }
      ],
      "payable": false,
      "stateMutability": "pure",
      "type": "function"
    },
    {
      "constant": true,
      "inputs": [
        {
          "internalType": "address[]",
          "name": "arr",
          "type": "address[]"
        },
        {
          "internalType": "address",
          "name": "addrToCheck",
          "type": "address"
        }
      ],
      "name": "arrayContainsAddress",
      "outputs": [
        {
          "internalType": "bool",
          "name": "",
          "type": "bool"
        }
      ],
      "payable": false,
      "stateMutability": "pure",
      "type": "function"
    }
  ],
  "bytecode": "0x608060405234801561001057600080fd5b506103a1806100206000396000f3fe608060405234801561001057600080fd5b50600436106100365760003560e01c80635e57966d1461003b5780639259360c146100d6575b600080fd5b6100616004803603602081101561005157600080fd5b50356001600160a01b0316610198565b6040805160208082528351818301528351919283929083019185019080838360005b8381101561009b578181015183820152602001610083565b50505050905090810190601f1680156100c85780820380516001836020036101000a031916815260200191505b509250505060405180910390f35b610184600480360360408110156100ec57600080fd5b81019060208101813564010000000081111561010757600080fd5b82018360208201111561011957600080fd5b8035906020019184602083028401116401000000008311171561013b57600080fd5b919080806020026020016040519081016040528093929190818152602001838360200280828437600092019190915250929550505090356001600160a01b031691506103149050565b604080519115158252519081900360200190f35b604080518082018252601081526f181899199a1a9b1b9c1cb0b131b232b360811b60208201528151602a80825260608281019094526001600160a01b03851692918491602082018180388339019050509050600360fc1b816000815181106101fc57fe5b60200101906001600160f81b031916908160001a905350600f60fb1b8160018151811061022557fe5b60200101906001600160f81b031916908160001a90535060005b601481101561030b578260048583600c016020811061025a57fe5b1a60f81b6001600160f81b031916901c60f81c60ff168151811061027a57fe5b602001015160f81c60f81b82826002026002018151811061029757fe5b60200101906001600160f81b031916908160001a905350828482600c01602081106102be57fe5b825191901a600f169081106102cf57fe5b602001015160f81c60f81b8282600202600301815181106102ec57fe5b60200101906001600160f81b031916908160001a90535060010161023f565b50949350505050565b6000805b835181101561036057826001600160a01b031684828151811061033757fe5b60200260200101516001600160a01b03161415610358576001915050610366565b600101610318565b50600090505b9291505056fea265627a7a72315820c24668fec3e85364b1cf3f4f5c86b6d0fe22ceb03475fb91eea0db83ddc1a0f864736f6c63430005110032",
  "source": "pragma solidity ^0.5.17;\n\ncontract utils {\n\n    // from https://ethereum.stackexchange.com/a/40977\n    function uint2str(uint numb) internal pure returns (string memory) {\n        uint _i = numb;\n        if (_i == 0) {\n            return \"0\";\n        }\n        uint j = _i;\n        uint len;\n        while (j != 0) {\n            len++;\n            j /= 10;\n        }\n        bytes memory bstr = new bytes(len);\n        uint k = len - 1;\n        while (_i != 0) {\n            bstr[k--] = byte(uint8(48 + _i % 10));\n            _i /= 10;\n        }\n        return string(bstr);\n    }\n\n    // from https://ethereum.stackexchange.com/a/72679/56047, plus using 42 from the comment below\n    function addressToString(address _addr) public pure returns(string memory) {\n        bytes32 value = bytes32(uint256(_addr));\n        bytes memory alphabet = \"0123456789abcdef\";\n        bytes memory str = new bytes(42);\n        str[0] = '0';\n        str[1] = 'x';\n        for (uint256 i = 0; i < 20; i++) {\n            str[2+i*2] = alphabet[uint8(value[i + 12] >> 4)];\n            str[3+i*2] = alphabet[uint8(value[i + 12] & 0x0f)];\n        }\n        return string(str);\n    }\n\n    function arrayContainsAddress(address[] memory arr, address addrToCheck) public pure returns(bool) {\n        for (uint i = 0; i < arr.length; i++) {\n            if (arr[i] == addrToCheck) {\n                return true;\n            }\n        }\n        return false;\n    }\n\n/*function _countNonZeroBytes(bytes32 value) private returns(uint8) {\n        // via https://ethereum.stackexchange.com/a/80456/56047\n        uint8 i = 0;\n        while(i < 32 && value[i] != 0) {\n            i++;\n        }\n        return i;\n    }*/\n}\n",
  "sourcePath": "/home/cantonioupao/susDAO-saveMe/FIN4Contracts/contracts/util/utils.sol",
  "compiler": {
    "name": "solc",
    "version": "0.5.17+commit.d19bba13.Emscripten.clang"
  },
  "schemaVersion": "3.3.1",
  "updatedAt": "2020-12-03T18:31:10.035Z",
  "devdoc": {
    "methods": {}
  },
  "userdoc": {
    "methods": {}
  }
}