{
  "contractName": "VideoVoting",
  "abi": [
    {
      "inputs": [],
      "payable": false,
      "stateMutability": "nonpayable",
      "type": "constructor"
    },
    {
      "constant": true,
      "inputs": [],
      "name": "Fin4MessagingAddress",
      "outputs": [
        {
          "internalType": "address",
          "name": "",
          "type": "address"
        }
      ],
      "payable": false,
      "stateMutability": "view",
      "type": "function"
    },
    {
      "constant": true,
      "inputs": [],
      "name": "Fin4ReputationAddress",
      "outputs": [
        {
          "internalType": "address",
          "name": "",
          "type": "address"
        }
      ],
      "payable": false,
      "stateMutability": "view",
      "type": "function"
    },
    {
      "constant": true,
      "inputs": [],
      "name": "Fin4SystemParametersAddress",
      "outputs": [
        {
          "internalType": "address",
          "name": "",
          "type": "address"
        }
      ],
      "payable": false,
      "stateMutability": "view",
      "type": "function"
    },
    {
      "constant": true,
      "inputs": [],
      "name": "Fin4VotingAddress",
      "outputs": [
        {
          "internalType": "address",
          "name": "",
          "type": "address"
        }
      ],
      "payable": false,
      "stateMutability": "view",
      "type": "function"
    },
    {
      "constant": true,
      "inputs": [
        {
          "internalType": "address",
          "name": "token",
          "type": "address"
        }
      ],
      "name": "_getNbUsers",
      "outputs": [
        {
          "internalType": "uint256",
          "name": "",
          "type": "uint256"
        }
      ],
      "payable": false,
      "stateMutability": "view",
      "type": "function"
    },
    {
      "constant": true,
      "inputs": [
        {
          "internalType": "address",
          "name": "token",
          "type": "address"
        }
      ],
      "name": "_getTimeInMinutes",
      "outputs": [
        {
          "internalType": "uint256",
          "name": "",
          "type": "uint256"
        }
      ],
      "payable": false,
      "stateMutability": "view",
      "type": "function"
    },
    {
      "constant": true,
      "inputs": [
        {
          "internalType": "address",
          "name": "_addr",
          "type": "address"
        }
      ],
      "name": "addressToString",
      "outputs": [
        {
          "internalType": "string",
          "name": "",
          "type": "string"
        }
      ],
      "payable": false,
      "stateMutability": "pure",
      "type": "function"
    },
    {
      "constant": true,
      "inputs": [
        {
          "internalType": "address[]",
          "name": "arr",
          "type": "address[]"
        },
        {
          "internalType": "address",
          "name": "addrToCheck",
          "type": "address"
        }
      ],
      "name": "arrayContainsAddress",
      "outputs": [
        {
          "internalType": "bool",
          "name": "",
          "type": "bool"
        }
      ],
      "payable": false,
      "stateMutability": "pure",
      "type": "function"
    },
    {
      "constant": false,
      "inputs": [
        {
          "internalType": "address",
          "name": "user",
          "type": "address"
        },
        {
          "internalType": "address",
          "name": "tokenAddrToReceiveVerifierNotice",
          "type": "address"
        },
        {
          "internalType": "uint256",
          "name": "claimId",
          "type": "uint256"
        }
      ],
      "name": "autoCheck",
      "outputs": [],
      "payable": false,
      "stateMutability": "nonpayable",
      "type": "function"
    },
    {
      "constant": false,
      "inputs": [
        {
          "internalType": "address",
          "name": "user",
          "type": "address"
        },
        {
          "internalType": "address",
          "name": "tokenAddrToReceiveVerifierNotice",
          "type": "address"
        },
        {
          "internalType": "uint256",
          "name": "claimId",
          "type": "uint256"
        }
      ],
      "name": "autoSubmitProof",
      "outputs": [],
      "payable": false,
      "stateMutability": "nonpayable",
      "type": "function"
    },
    {
      "constant": true,
      "inputs": [],
      "name": "contractName",
      "outputs": [
        {
          "internalType": "string",
          "name": "",
          "type": "string"
        }
      ],
      "payable": false,
      "stateMutability": "view",
      "type": "function"
    },
    {
      "constant": true,
      "inputs": [],
      "name": "creator",
      "outputs": [
        {
          "internalType": "address",
          "name": "",
          "type": "address"
        }
      ],
      "payable": false,
      "stateMutability": "view",
      "type": "function"
    },
    {
      "constant": true,
      "inputs": [],
      "name": "description",
      "outputs": [
        {
          "internalType": "string",
          "name": "",
          "type": "string"
        }
      ],
      "payable": false,
      "stateMutability": "view",
      "type": "function"
    },
    {
      "constant": false,
      "inputs": [
        {
          "internalType": "uint256",
          "name": "claimId",
          "type": "uint256"
        }
      ],
      "name": "endVote",
      "outputs": [],
      "payable": false,
      "stateMutability": "nonpayable",
      "type": "function"
    },
    {
      "constant": true,
      "inputs": [
        {
          "internalType": "uint256",
          "name": "claimId",
          "type": "uint256"
        }
      ],
      "name": "endVotePossible",
      "outputs": [
        {
          "internalType": "bool",
          "name": "",
          "type": "bool"
        }
      ],
      "payable": false,
      "stateMutability": "view",
      "type": "function"
    },
    {
      "constant": true,
      "inputs": [
        {
          "internalType": "address",
          "name": "tokenAddress",
          "type": "address"
        }
      ],
      "name": "getCreatorOfToken",
      "outputs": [
        {
          "internalType": "address",
          "name": "",
          "type": "address"
        }
      ],
      "payable": false,
      "stateMutability": "view",
      "type": "function"
    },
    {
      "constant": true,
      "inputs": [],
      "name": "getDescription",
      "outputs": [
        {
          "internalType": "string",
          "name": "",
          "type": "string"
        }
      ],
      "payable": false,
      "stateMutability": "view",
      "type": "function"
    },
    {
      "constant": true,
      "inputs": [
        {
          "internalType": "address[]",
          "name": "voters",
          "type": "address[]"
        },
        {
          "internalType": "address",
          "name": "member",
          "type": "address"
        }
      ],
      "name": "getIndexOf",
      "outputs": [
        {
          "internalType": "uint256",
          "name": "",
          "type": "uint256"
        }
      ],
      "payable": false,
      "stateMutability": "pure",
      "type": "function"
    },
    {
      "constant": true,
      "inputs": [],
      "name": "getInfo",
      "outputs": [
        {
          "internalType": "string",
          "name": "",
          "type": "string"
        },
        {
          "internalType": "string",
          "name": "",
          "type": "string"
        },
        {
          "internalType": "string",
          "name": "",
          "type": "string"
        },
        {
          "internalType": "string",
          "name": "",
          "type": "string"
        }
      ],
      "payable": false,
      "stateMutability": "view",
      "type": "function"
    },
    {
      "constant": true,
      "inputs": [],
      "name": "getName",
      "outputs": [
        {
          "internalType": "string",
          "name": "",
          "type": "string"
        }
      ],
      "payable": false,
      "stateMutability": "view",
      "type": "function"
    },
    {
      "constant": true,
      "inputs": [],
      "name": "getParameterForTokenCreatorToSetEncoded",
      "outputs": [
        {
          "internalType": "string",
          "name": "",
          "type": "string"
        }
      ],
      "payable": false,
      "stateMutability": "pure",
      "type": "function"
    },
    {
      "constant": true,
      "inputs": [],
      "name": "isAutoCheckable",
      "outputs": [
        {
          "internalType": "bool",
          "name": "",
          "type": "bool"
        }
      ],
      "payable": false,
      "stateMutability": "view",
      "type": "function"
    },
    {
      "constant": true,
      "inputs": [],
      "name": "isAutoInitiable",
      "outputs": [
        {
          "internalType": "bool",
          "name": "",
          "type": "bool"
        }
      ],
      "payable": false,
      "stateMutability": "view",
      "type": "function"
    },
    {
      "constant": false,
      "inputs": [
        {
          "internalType": "uint256",
          "name": "claimId",
          "type": "uint256"
        },
        {
          "internalType": "uint256",
          "name": "index",
          "type": "uint256"
        }
      ],
      "name": "markMessageAsRead",
      "outputs": [],
      "payable": false,
      "stateMutability": "nonpayable",
      "type": "function"
    },
    {
      "constant": false,
      "inputs": [
        {
          "internalType": "uint256",
          "name": "claimId",
          "type": "uint256"
        }
      ],
      "name": "markMessagesAsRead",
      "outputs": [],
      "payable": false,
      "stateMutability": "nonpayable",
      "type": "function"
    },
    {
      "constant": true,
      "inputs": [],
      "name": "name",
      "outputs": [
        {
          "internalType": "string",
          "name": "",
          "type": "string"
        }
      ],
      "payable": false,
      "stateMutability": "view",
      "type": "function"
    },
    {
      "constant": true,
      "inputs": [],
      "name": "nextclaimId",
      "outputs": [
        {
          "internalType": "uint256",
          "name": "",
          "type": "uint256"
        }
      ],
      "payable": false,
      "stateMutability": "view",
      "type": "function"
    },
    {
      "constant": true,
      "inputs": [
        {
          "internalType": "uint256",
          "name": "",
          "type": "uint256"
        }
      ],
      "name": "pendingApprovals",
      "outputs": [
        {
          "internalType": "uint256",
          "name": "claimId",
          "type": "uint256"
        },
        {
          "internalType": "address",
          "name": "tokenAddrToReceiveVerifierNotice",
          "type": "address"
        },
        {
          "internalType": "uint256",
          "name": "claimIdOnTokenToReceiveVerifierDecision",
          "type": "uint256"
        },
        {
          "internalType": "address",
          "name": "requester",
          "type": "address"
        },
        {
          "internalType": "uint256",
          "name": "start",
          "type": "uint256"
        },
        {
          "internalType": "bool",
          "name": "isIndividualApprover",
          "type": "bool"
        },
        {
          "internalType": "uint256",
          "name": "approverGroupId",
          "type": "uint256"
        },
        {
          "internalType": "string",
          "name": "attachment",
          "type": "string"
        },
        {
          "internalType": "uint256",
          "name": "nbApproved",
          "type": "uint256"
        },
        {
          "internalType": "uint256",
          "name": "nbRejected",
          "type": "uint256"
        },
        {
          "internalType": "bool",
          "name": "isApproved",
          "type": "bool"
        },
        {
          "internalType": "uint256",
          "name": "linkedWithclaimId",
          "type": "uint256"
        }
      ],
      "payable": false,
      "stateMutability": "view",
      "type": "function"
    },
    {
      "constant": false,
      "inputs": [
        {
          "internalType": "uint256",
          "name": "claimId",
          "type": "uint256"
        },
        {
          "internalType": "string",
          "name": "attachedMessage",
          "type": "string"
        }
      ],
      "name": "receiveApproval",
      "outputs": [],
      "payable": false,
      "stateMutability": "nonpayable",
      "type": "function"
    },
    {
      "constant": false,
      "inputs": [
        {
          "internalType": "uint256",
          "name": "claimId",
          "type": "uint256"
        },
        {
          "internalType": "string",
          "name": "attachedMessage",
          "type": "string"
        }
      ],
      "name": "receiveRejection",
      "outputs": [],
      "payable": false,
      "stateMutability": "nonpayable",
      "type": "function"
    },
    {
      "constant": false,
      "inputs": [
        {
          "internalType": "string",
          "name": "_contractName",
          "type": "string"
        }
      ],
      "name": "setContractName",
      "outputs": [],
      "payable": false,
      "stateMutability": "nonpayable",
      "type": "function"
    },
    {
      "constant": false,
      "inputs": [
        {
          "internalType": "address",
          "name": "Fin4MessagingAddr",
          "type": "address"
        }
      ],
      "name": "setFin4MessagingAddress",
      "outputs": [],
      "payable": false,
      "stateMutability": "nonpayable",
      "type": "function"
    },
    {
      "constant": false,
      "inputs": [
        {
          "internalType": "address",
          "name": "Fin4ReputationAddr",
          "type": "address"
        }
      ],
      "name": "setFin4ReputationAddress",
      "outputs": [],
      "payable": false,
      "stateMutability": "nonpayable",
      "type": "function"
    },
    {
      "constant": false,
      "inputs": [
        {
          "internalType": "address",
          "name": "SystemParametersAddr",
          "type": "address"
        }
      ],
      "name": "setFin4SystemParametersAddress",
      "outputs": [],
      "payable": false,
      "stateMutability": "nonpayable",
      "type": "function"
    },
    {
      "constant": false,
      "inputs": [
        {
          "internalType": "address",
          "name": "VotingAddr",
          "type": "address"
        }
      ],
      "name": "setFin4VotingAddress",
      "outputs": [],
      "payable": false,
      "stateMutability": "nonpayable",
      "type": "function"
    },
    {
      "constant": false,
      "inputs": [
        {
          "internalType": "address",
          "name": "token",
          "type": "address"
        },
        {
          "internalType": "uint256",
          "name": "nbUsers",
          "type": "uint256"
        },
        {
          "internalType": "uint256",
          "name": "timeInMinutes",
          "type": "uint256"
        }
      ],
      "name": "setParameters",
      "outputs": [],
      "payable": false,
      "stateMutability": "nonpayable",
      "type": "function"
    },
    {
      "constant": false,
      "inputs": [
        {
          "internalType": "address",
          "name": "tokenAddrToReceiveVerifierNotice",
          "type": "address"
        },
        {
          "internalType": "uint256",
          "name": "claimId",
          "type": "uint256"
        },
        {
          "internalType": "string",
          "name": "IPFShash",
          "type": "string"
        }
      ],
      "name": "submitProof_LimitedVoting",
      "outputs": [],
      "payable": false,
      "stateMutability": "nonpayable",
      "type": "function"
    },
    {
      "constant": true,
      "inputs": [
        {
          "internalType": "address",
          "name": "",
          "type": "address"
        }
      ],
      "name": "tokenToParameter",
      "outputs": [
        {
          "internalType": "uint256",
          "name": "",
          "type": "uint256"
        }
      ],
      "payable": false,
      "stateMutability": "view",
      "type": "function"
    },
    {
      "constant": true,
      "inputs": [
        {
          "internalType": "address",
          "name": "",
          "type": "address"
        }
      ],
      "name": "tokenToParameterTime",
      "outputs": [
        {
          "internalType": "uint256",
          "name": "",
          "type": "uint256"
        }
      ],
      "payable": false,
      "stateMutability": "view",
      "type": "function"
    },
    {
      "constant": false,
      "inputs": [],
      "name": "init",
      "outputs": [],
      "payable": false,
      "stateMutability": "nonpayable",
      "type": "function"
    },
    {
      "constant": false,
      "inputs": [
        {
          "internalType": "address",
          "name": "tokenAddrToReceiveVerifierNotice",
          "type": "address"
        },
        {
          "internalType": "uint256",
          "name": "claimId",
          "type": "uint256"
        },
        {
          "internalType": "string",
          "name": "IPFShash",
          "type": "string"
        }
      ],
      "name": "submitProof_VideoVoting",
      "outputs": [],
      "payable": false,
      "stateMutability": "nonpayable",
      "type": "function"
    },
    {
      "constant": true,
      "inputs": [],
      "name": "getMessageText",
      "outputs": [
        {
          "internalType": "string",
          "name": "",
          "type": "string"
        }
      ],
      "payable": false,
      "stateMutability": "pure",
      "type": "function"
    }
  ],
  "bytecode": "0x60806040526003805461ffff1916905560006008553480156200002157600080fd5b506003805462010000600160b01b031916336201000002179055620000456200004b565b62000158565b60408051808201909152600b8082526a566964656f566f74696e6760a81b60209092019182526200007f91600191620000b3565b5060405180608001604052806056815260200162004909605691398051620000b091600291602090910190620000b3565b50565b828054600181600116156101000203166002900490600052602060002090601f016020900481019282601f10620000f657805160ff191683800117855562000126565b8280016001018555821562000126579182015b828111156200012657825182559160200191906001019062000109565b506200013492915062000138565b5090565b6200015591905b808211156200013457600081556001016200013f565b90565b6147a180620001686000396000f3fe608060405234801561001057600080fd5b506004361061025e5760003560e01c8063865df0ad11610146578063c05ebcc5116100c3578063cf54fe9011610087578063cf54fe90146109bf578063e1c7392a14610c02578063e4ad4acd14610c0a578063eb92f76a14610c12578063f9d8f4c714610cbd578063ffc5daef14610b245761025e565b8063c05ebcc514610b80578063c493a69414610b88578063c646529c14610bae578063ca0b4a0414610bd4578063cce6e21514610bdc5761025e565b8063a418c5131161010a578063a418c51314610999578063a49ef750146109bf578063acb72bb114610a78578063ae18e0a514610b24578063be1f37e414610b5a5761025e565b8063865df0ad1461087f5780638bbfc6eb1461089c5780639259360c146108c25780639d4e4acb1461096e5780639e9be917146109765761025e565b806336790932116101df5780636c71d542116101a35780636c71d542146108255780637284e4161461082d57806375d0c0dc146108355780637720e3781461083d5780637947f965146108455780637f1a5c20146108775761025e565b806336790932146105115780634d1a1d5d146105375780635a9b0b891461053f5780635e57966d146106f1578063686b656e146107175761025e565b806317d7de7c1161022657806317d7de7c146104085780631a0925411461041057806324b4de2614610418578063304f88ac146104c357806331d8785e146104f45761025e565b806302d05d3f1461026357806306fdde031461028757806308b62990146103045780630abac0d81461033c5780630b5ee00614610362575b600080fd5b61026b610cc5565b604080516001600160a01b039092168252519081900360200190f35b61028f610cda565b6040805160208082528351818301528351919283929083019185019080838360005b838110156102c95781810151838201526020016102b1565b50505050905090810190601f1680156102f65780820380516001836020036101000a031916815260200191505b509250505060405180910390f35b61032a6004803603602081101561031a57600080fd5b50356001600160a01b0316610d67565b60408051918252519081900360200190f35b61032a6004803603602081101561035257600080fd5b50356001600160a01b0316610d79565b6104066004803603602081101561037857600080fd5b810190602081018135600160201b81111561039257600080fd5b8201836020820111156103a457600080fd5b803590602001918460018302840111600160201b831117156103c557600080fd5b91908080601f016020809104026020016040519081016040528093929190818152602001838380828437600092019190915250929550610d98945050505050565b005b61028f610daf565b61028f610e45565b6104066004803603604081101561042e57600080fd5b81359190810190604081016020820135600160201b81111561044f57600080fd5b82018360208201111561046157600080fd5b803590602001918460018302840111600160201b8311171561048257600080fd5b91908080601f016020809104026020016040519081016040528093929190818152602001838380828437600092019190915250929550610ea3945050505050565b6104e0600480360360208110156104d957600080fd5b50356116a3565b604080519115158252519081900360200190f35b6104066004803603602081101561050a57600080fd5b50356119e5565b61026b6004803603602081101561052757600080fd5b50356001600160a01b0316611dc2565b6104e0611e2f565b610547611e3d565b6040518080602001806020018060200180602001858103855289818151815260200191508051906020019080838360005b83811015610590578181015183820152602001610578565b50505050905090810190601f1680156105bd5780820380516001836020036101000a031916815260200191505b5085810384528851815288516020918201918a019080838360005b838110156105f05781810151838201526020016105d8565b50505050905090810190601f16801561061d5780820380516001836020036101000a031916815260200191505b50858103835287518152875160209182019189019080838360005b83811015610650578181015183820152602001610638565b50505050905090810190601f16801561067d5780820380516001836020036101000a031916815260200191505b50858103825286518152865160209182019188019080838360005b838110156106b0578181015183820152602001610698565b50505050905090810190601f1680156106dd5780820380516001836020036101000a031916815260200191505b509850505050505050505060405180910390f35b61028f6004803603602081101561070757600080fd5b50356001600160a01b0316612008565b6107346004803603602081101561072d57600080fd5b5035612184565b604051808d81526020018c6001600160a01b03166001600160a01b031681526020018b81526020018a6001600160a01b03166001600160a01b03168152602001898152602001881515151581526020018781526020018060200186815260200185815260200184151515158152602001838152602001828103825287818151815260200191508051906020019080838360005b838110156107df5781810151838201526020016107c7565b50505050905090810190601f16801561080c5780820380516001836020036101000a031916815260200191505b509d505050505050505050505050505060405180910390f35b61028f612285565b61028f6122a5565b61028f6122fd565b61026b612358565b6104066004803603606081101561085b57600080fd5b506001600160a01b038135169060208101359060400135612367565b61028f61238f565b6104066004803603602081101561089557600080fd5b50356123af565b610406600480360360208110156108b257600080fd5b50356001600160a01b031661276f565b6104e0600480360360408110156108d857600080fd5b810190602081018135600160201b8111156108f257600080fd5b82018360208201111561090457600080fd5b803590602001918460208302840111600160201b8311171561092557600080fd5b919080806020026020016040519081016040528093929190818152602001838360200280828437600092019190915250929550505090356001600160a01b031691506127919050565b61026b6127e9565b6104066004803603604081101561098c57600080fd5b50803590602001356127f8565b610406600480360360208110156109af57600080fd5b50356001600160a01b0316612bb9565b610406600480360360608110156109d557600080fd5b6001600160a01b0382351691602081013591810190606081016040820135600160201b811115610a0457600080fd5b820183602082011115610a1657600080fd5b803590602001918460018302840111600160201b83111715610a3757600080fd5b91908080601f016020809104026020016040519081016040528093929190818152602001838380828437600092019190915250929550612c2a945050505050565b61032a60048036036040811015610a8e57600080fd5b810190602081018135600160201b811115610aa857600080fd5b820183602082011115610aba57600080fd5b803590602001918460208302840111600160201b83111715610adb57600080fd5b919080806020026020016040519081016040528093929190818152602001838360200280828437600092019190915250929550505090356001600160a01b03169150612c3d9050565b61040660048036036060811015610b3a57600080fd5b506001600160a01b03813581169160208101359091169060400135611dbd565b61040660048036036020811015610b7057600080fd5b50356001600160a01b0316612c86565b6104e0612ca8565b61032a60048036036020811015610b9e57600080fd5b50356001600160a01b0316612cb1565b61032a60048036036020811015610bc457600080fd5b50356001600160a01b0316612ccc565b61032a612cde565b61040660048036036020811015610bf257600080fd5b50356001600160a01b0316612ce4565b610406612d06565b61026b612d69565b61040660048036036040811015610c2857600080fd5b81359190810190604081016020820135600160201b811115610c4957600080fd5b820183602082011115610c5b57600080fd5b803590602001918460018302840111600160201b83111715610c7c57600080fd5b91908080601f016020809104026020016040519081016040528093929190818152602001838380828437600092019190915250929550612d78945050505050565b61026b6137db565b6003546201000090046001600160a01b031681565b60018054604080516020600284861615610100026000190190941693909304601f81018490048402820184019092528181529291830182828015610d5f5780601f10610d3457610100808354040283529160200191610d5f565b820191906000526020600020905b815481529060010190602001808311610d4257829003601f168201915b505050505081565b600b6020526000908152604090205481565b6001600160a01b0381166000908152600a60205260409020545b919050565b8051610dab9060009060208401906143f0565b5050565b60018054604080516020601f60026000196101008789161502019095169490940493840181900481028201810190925282815260609390929091830182828015610e3a5780601f10610e0f57610100808354040283529160200191610e3a565b820191906000526020600020905b815481529060010190602001808311610e1d57829003601f168201915b505050505090505b90565b60028054604080516020601f6000196101006001871615020190941685900493840181900481028201810190925282815260609390929091830182828015610e3a5780601f10610e0f57610100808354040283529160200191610e3a565b33610eac61446e565b6000848152600960209081526040918290208251610220810184528154815260018201546001600160a01b0390811682850152600283015482860152600383015416606082015260048201546080820152600582015460ff16151560a0820152600682015460c08201526007820180548551818602810186019096528086529194929360e08601939290830182828015610f6f57602002820191906000526020600020905b81546001600160a01b03168152600190910190602001808311610f51575b5050505050815260200160088201805480602002602001604051908101604052809291908181526020018280548015610fc757602002820191906000526020600020905b815481526020019060010190808311610fb3575b505050505081526020016009820180548060200260200160405190810160405280929190818152602001828054801561102957602002820191906000526020600020905b81546001600160a01b0316815260019091019060200180831161100b575b50505050508152602001600a820180548060200260200160405190810160405280929190818152602001828054801561108b57602002820191906000526020600020905b81546001600160a01b0316815260019091019060200180831161106d575b50505050508152602001600b82018054806020026020016040519081016040528092919081815260200182805480156110e357602002820191906000526020600020905b8154815260200190600101908083116110cf575b5050509183525050600c8201805460408051602060026001851615610100026000190190941693909304601f81018490048402820184019092528181529382019392918301828280156111775780601f1061114c57610100808354040283529160200191611177565b820191906000526020600020905b81548152906001019060200180831161115a57829003601f168201915b5050509183525050600d8201546020820152600e8201546040820152600f82015460ff161515606082015260109091015460809091015260e08101519091506111cb9085906111c69085612c3d565b6127f8565b81816101200151826101a00151815181106111e257fe5b6001600160a01b03909216602092830291909101909101526101a081018051600101905260e08101515160029004816101a0015111156114eb57611225846119e5565b6101a08101516000908190156112c057826101a00151600560009054906101000a90046001600160a01b03166001600160a01b031663065480066040518163ffffffff1660e01b815260040160206040518083038186803b15801561128957600080fd5b505afa15801561129d573d6000803e3d6000fd5b505050506040513d60208110156112b357600080fd5b5051816112bc57fe5b0491505b6101c08301511561135657826101c00151600560009054906101000a90046001600160a01b03166001600160a01b03166348cd5b876040518163ffffffff1660e01b815260040160206040518083038186803b15801561131f57600080fd5b505afa158015611333573d6000803e3d6000fd5b505050506040513d602081101561134957600080fd5b50518161135257fe5b0490505b60005b836101a0015181101561141a5760065461012085015180516001600160a01b03909216916340c10f1991908490811061138e57fe5b6020026020010151856040518363ffffffff1660e01b815260040180836001600160a01b03166001600160a01b0316815260200182815260200192505050602060405180830381600087803b1580156113e657600080fd5b505af11580156113fa573d6000803e3d6000fd5b505050506040513d602081101561141057600080fd5b5050600101611359565b5060005b836101c001518110156114cf5760065461014085015180516001600160a01b03909216916379cc679091908490811061145357fe5b6020026020010151846040518363ffffffff1660e01b815260040180836001600160a01b03166001600160a01b0316815260200182815260200192505050600060405180830381600087803b1580156114ab57600080fd5b505af11580156114bf573d6000803e3d6000fd5b50506001909201915061141e9050565b506114e43084602001518560400151886137ea565b5050611530565b806101c00151816101a00151148015611517575060028160e00151518161150e57fe5b04816101a00151145b15611530576115303082602001518360400151866138dd565b60008481526009602090815260409182902083518155838201516001820180546001600160a01b03199081166001600160a01b039384161790915593850151600283015560608501516003830180549095169116179092556080830151600483015560a083015160058301805460ff191691151591909117905560c0830151600683015560e083015180518493926115cf926007850192910190614508565b5061010082015180516115ec916008840191602090910190614569565b506101208201518051611609916009840191602090910190614508565b50610140820151805161162691600a840191602090910190614508565b50610160820151805161164391600b840191602090910190614569565b50610180820151805161166091600c8401916020909101906143f0565b506101a0820151600d8201556101c0820151600e8201556101e0820151600f8201805460ff19169115159190911790556102009091015160109091015550505050565b60006116ad61446e565b6000838152600960209081526040918290208251610220810184528154815260018201546001600160a01b0390811682850152600283015482860152600383015416606082015260048201546080820152600582015460ff16151560a0820152600682015460c08201526007820180548551818602810186019096528086529194929360e0860193929083018282801561177057602002820191906000526020600020905b81546001600160a01b03168152600190910190602001808311611752575b50505050508152602001600882018054806020026020016040519081016040528092919081815260200182805480156117c857602002820191906000526020600020905b8154815260200190600101908083116117b4575b505050505081526020016009820180548060200260200160405190810160405280929190818152602001828054801561182a57602002820191906000526020600020905b81546001600160a01b0316815260019091019060200180831161180c575b50505050508152602001600a820180548060200260200160405190810160405280929190818152602001828054801561188c57602002820191906000526020600020905b81546001600160a01b0316815260019091019060200180831161186e575b50505050508152602001600b82018054806020026020016040519081016040528092919081815260200182805480156118e457602002820191906000526020600020905b8154815260200190600101908083116118d0575b5050509183525050600c8201805460408051602060026001851615610100026000190190941693909304601f81018490048402820184019092528181529382019392918301828280156119785780601f1061194d57610100808354040283529160200191611978565b820191906000526020600020905b81548152906001019060200180831161195b57829003601f168201915b5050509183525050600d820154602080830191909152600e8301546040830152600f83015460ff16151560608301526010909201546080909101528101519091506119c290612cb1565b603c028160800151014211156119dc576001915050610d93565b50600092915050565b6119ed61446e565b6000828152600960209081526040918290208251610220810184528154815260018201546001600160a01b0390811682850152600283015482860152600383015416606082015260048201546080820152600582015460ff16151560a0820152600682015460c08201526007820180548551818602810186019096528086529194929360e08601939290830182828015611ab057602002820191906000526020600020905b81546001600160a01b03168152600190910190602001808311611a92575b5050505050815260200160088201805480602002602001604051908101604052809291908181526020018280548015611b0857602002820191906000526020600020905b815481526020019060010190808311611af4575b5050505050815260200160098201805480602002602001604051908101604052809291908181526020018280548015611b6a57602002820191906000526020600020905b81546001600160a01b03168152600190910190602001808311611b4c575b50505050508152602001600a8201805480602002602001604051908101604052809291908181526020018280548015611bcc57602002820191906000526020600020905b81546001600160a01b03168152600190910190602001808311611bae575b50505050508152602001600b8201805480602002602001604051908101604052809291908181526020018280548015611c2457602002820191906000526020600020905b815481526020019060010190808311611c10575b5050509183525050600c8201805460408051602060026001851615610100026000190190941693909304601f8101849004840282018401909252818152938201939291830182828015611cb85780601f10611c8d57610100808354040283529160200191611cb8565b820191906000526020600020905b815481529060010190602001808311611c9b57829003601f168201915b5050509183525050600d8201546020820152600e8201546040820152600f82015460ff1615156060820152601090910154608090910152905060005b81610100015151811015611dbd5760045460e083015180516001600160a01b03909216916392825c79919084908110611d2957fe5b60200260200101518461010001518481518110611d4257fe5b60200260200101516040518363ffffffff1660e01b815260040180836001600160a01b03166001600160a01b0316815260200182815260200192505050600060405180830381600087803b158015611d9957600080fd5b505af1158015611dad573d6000803e3d6000fd5b505060019092019150611cf49050565b505050565b6000816001600160a01b0316639c6790176040518163ffffffff1660e01b815260040160206040518083038186803b158015611dfd57600080fd5b505afa158015611e11573d6000803e3d6000fd5b505050506040513d6020811015611e2757600080fd5b505192915050565b600354610100900460ff1681565b606080606080600060016002611e51612285565b8354604080516020601f60026000196101006001881615020190951694909404938401819004810282018101909252828152918691830182828015611ed75780601f10611eac57610100808354040283529160200191611ed7565b820191906000526020600020905b815481529060010190602001808311611eba57829003601f168201915b5050865460408051602060026001851615610100026000190190941693909304601f810184900484028201840190925281815295995088945092508401905082828015611f655780601f10611f3a57610100808354040283529160200191611f65565b820191906000526020600020905b815481529060010190602001808311611f4857829003601f168201915b5050855460408051602060026001851615610100026000190190941693909304601f810184900484028201840190925281815295985087945092508401905082828015611ff35780601f10611fc857610100808354040283529160200191611ff3565b820191906000526020600020905b815481529060010190602001808311611fd657829003601f168201915b50505050509150935093509350935090919293565b604080518082018252601081526f181899199a1a9b1b9c1cb0b131b232b360811b60208201528151602a80825260608281019094526001600160a01b03851692918491602082018180388339019050509050600360fc1b8160008151811061206c57fe5b60200101906001600160f81b031916908160001a905350600f60fb1b8160018151811061209557fe5b60200101906001600160f81b031916908160001a90535060005b601481101561217b578260048583600c01602081106120ca57fe5b1a60f81b6001600160f81b031916901c60f81c60ff16815181106120ea57fe5b602001015160f81c60f81b82826002026002018151811061210757fe5b60200101906001600160f81b031916908160001a905350828482600c016020811061212e57fe5b825191901a600f1690811061213f57fe5b602001015160f81c60f81b82826002026003018151811061215c57fe5b60200101906001600160f81b031916908160001a9053506001016120af565b50949350505050565b60096020908152600091825260409182902080546001808301546002808501546003860154600487015460058801546006890154600c8a0180548d51601f6000199b831615610100029b909b01909116979097049889018c90048c0287018c01909c52878652979a6001600160a01b039687169a94999390961697919660ff909116959194929383018282801561225c5780601f106122315761010080835404028352916020019161225c565b820191906000526020600020905b81548152906001019060200180831161223f57829003601f168201915b505050600d840154600e850154600f8601546010909601549495919490935060ff90911691508c565b606060405180606001604052806029815260200161463160299139905090565b6002805460408051602060018416156101000260001901909316849004601f81018490048402820184019092528181529291830182828015610d5f5780601f10610d3457610100808354040283529160200191610d5f565b6000805460408051602060026001851615610100026000190190941693909304601f81018490048402820184019092528181529291830182828015610d5f5780601f10610d3457610100808354040283529160200191610d5f565b6007546001600160a01b031681565b6001600160a01b039092166000908152600a6020908152604080832093909355600b90522055565b60606040518060800160405280604f81526020016145e2604f9139905090565b6123b761446e565b6000828152600960209081526040918290208251610220810184528154815260018201546001600160a01b0390811682850152600283015482860152600383015416606082015260048201546080820152600582015460ff16151560a0820152600682015460c08201526007820180548551818602810186019096528086529194929360e0860193929083018282801561247a57602002820191906000526020600020905b81546001600160a01b0316815260019091019060200180831161245c575b50505050508152602001600882018054806020026020016040519081016040528092919081815260200182805480156124d257602002820191906000526020600020905b8154815260200190600101908083116124be575b505050505081526020016009820180548060200260200160405190810160405280929190818152602001828054801561253457602002820191906000526020600020905b81546001600160a01b03168152600190910190602001808311612516575b50505050508152602001600a820180548060200260200160405190810160405280929190818152602001828054801561259657602002820191906000526020600020905b81546001600160a01b03168152600190910190602001808311612578575b50505050508152602001600b82018054806020026020016040519081016040528092919081815260200182805480156125ee57602002820191906000526020600020905b8154815260200190600101908083116125da575b5050509183525050600c8201805460408051602060026001851615610100026000190190941693909304601f81018490048402820184019092528181529382019392918301828280156126825780601f1061265757610100808354040283529160200191612682565b820191906000526020600020905b81548152906001019060200180831161266557829003601f168201915b5050509183525050600d8201546020820152600e8201546040820152600f82015460ff161515606082015260109091015460809091015290506126c4826116a3565b15610dab576126d2826119e5565b6101c08101516101a082015160e083015151910190600290048111612719576127143083602001518460400151604051806020016040528060008152506138dd565b611dbd565b60028104826101a00151111561274c576127143083602001518460400151604051806020016040528060008152506137ea565b611dbd3083602001518460400151604051806020016040528060008152506138dd565b600480546001600160a01b0319166001600160a01b0392909216919091179055565b6000805b83518110156127dd57826001600160a01b03168482815181106127b457fe5b60200260200101516001600160a01b031614156127d55760019150506127e3565b600101612795565b50600090505b92915050565b6005546001600160a01b031681565b61280061446e565b6000838152600960209081526040918290208251610220810184528154815260018201546001600160a01b0390811682850152600283015482860152600383015416606082015260048201546080820152600582015460ff16151560a0820152600682015460c08201526007820180548551818602810186019096528086529194929360e086019392908301828280156128c357602002820191906000526020600020905b81546001600160a01b031681526001909101906020018083116128a5575b505050505081526020016008820180548060200260200160405190810160405280929190818152602001828054801561291b57602002820191906000526020600020905b815481526020019060010190808311612907575b505050505081526020016009820180548060200260200160405190810160405280929190818152602001828054801561297d57602002820191906000526020600020905b81546001600160a01b0316815260019091019060200180831161295f575b50505050508152602001600a82018054806020026020016040519081016040528092919081815260200182805480156129df57602002820191906000526020600020905b81546001600160a01b031681526001909101906020018083116129c1575b50505050508152602001600b8201805480602002602001604051908101604052809291908181526020018280548015612a3757602002820191906000526020600020905b815481526020019060010190808311612a23575b5050509183525050600c8201805460408051602060026001851615610100026000190190941693909304601f8101849004840282018401909252818152938201939291830182828015612acb5780601f10612aa057610100808354040283529160200191612acb565b820191906000526020600020905b815481529060010190602001808311612aae57829003601f168201915b5050509183525050600d8201546020820152600e8201546040820152600f82015460ff161515606082015260109091015460809091015260045460e082015180519293506001600160a01b03909116916392825c79919085908110612b2c57fe5b60200260200101518361010001518581518110612b4557fe5b60200260200101516040518363ffffffff1660e01b815260040180836001600160a01b03166001600160a01b0316815260200182815260200192505050600060405180830381600087803b158015612b9c57600080fd5b505af1158015612bb0573d6000803e3d6000fd5b50505050505050565b6003546201000090046001600160a01b03163314612c085760405162461bcd60e51b815260040180806020018281038252603e81526020018061472f603e913960400191505060405180910390fd5b600680546001600160a01b0319166001600160a01b0392909216919091179055565b33612c3784848385613963565b50505050565b6000805b83518110156127dd57826001600160a01b0316848281518110612c6057fe5b60200260200101516001600160a01b03161415612c7e5790506127e3565b600101612c41565b600580546001600160a01b0319166001600160a01b0392909216919091179055565b60035460ff1681565b6001600160a01b03166000908152600b602052604090205490565b600a6020526000908152604090205481565b60085481565b600780546001600160a01b0319166001600160a01b0392909216919091179055565b60408051808201909152600b8082526a566964656f566f74696e6760a81b6020909201918252612d38916001916143f0565b50604051806080016040528060568152602001614689605691398051612d66916002916020909101906143f0565b50565b6004546001600160a01b031681565b33612d8161446e565b6000848152600960209081526040918290208251610220810184528154815260018201546001600160a01b0390811682850152600283015482860152600383015416606082015260048201546080820152600582015460ff16151560a0820152600682015460c08201526007820180548551818602810186019096528086529194929360e08601939290830182828015612e4457602002820191906000526020600020905b81546001600160a01b03168152600190910190602001808311612e26575b5050505050815260200160088201805480602002602001604051908101604052809291908181526020018280548015612e9c57602002820191906000526020600020905b815481526020019060010190808311612e88575b5050505050815260200160098201805480602002602001604051908101604052809291908181526020018280548015612efe57602002820191906000526020600020905b81546001600160a01b03168152600190910190602001808311612ee0575b50505050508152602001600a8201805480602002602001604051908101604052809291908181526020018280548015612f6057602002820191906000526020600020905b81546001600160a01b03168152600190910190602001808311612f42575b50505050508152602001600b8201805480602002602001604051908101604052809291908181526020018280548015612fb857602002820191906000526020600020905b815481526020019060010190808311612fa4575b5050509183525050600c8201805460408051602060026001851615610100026000190190941693909304601f810184900484028201840190925281815293820193929183018282801561304c5780601f106130215761010080835404028352916020019161304c565b820191906000526020600020905b81548152906001019060200180831161302f57829003601f168201915b5050509183525050600d8201546020820152600e8201546040820152600f82015460ff161515606082015260109091015460809091015260e081015190915061309b9085906111c69085612c3d565b606081602001516001600160a01b03166306fdde036040518163ffffffff1660e01b815260040160006040518083038186803b1580156130da57600080fd5b505afa1580156130ee573d6000803e3d6000fd5b505050506040513d6000823e601f3d908101601f19168201604052602081101561311757600080fd5b8101908080516040519392919084600160201b82111561313657600080fd5b90830190602082018581111561314b57600080fd5b8251600160201b81118282018810171561316457600080fd5b82525081516020918201929091019080838360005b83811015613191578181015183820152602001613179565b50505050905090810190601f1680156131be5780820380516001836020036101000a031916815260200191505b5060405250505060405160200180806146df6050913960500182805190602001908083835b602083106132025780518252601f1990920191602091820191016131e3565b6001836020036101000a03801982511681845116808217855250505050505090500191505060405160208183030381529060405290506000845111156133045780846040516020018083805190602001908083835b602083106132765780518252601f199092019160209182019101613257565b51815160209384036101000a60001901801990921691161790526101d160f51b919093019081528451600290910192850191508083835b602083106132cc5780518252601f1990920191602091820191016132ad565b6001836020036101000a0380198251168184511680821785525050505050509050019250505060405160208183030381529060405290505b82826101400151836101c001518151811061331b57fe5b6001600160a01b03909216602092830291909101909101526101c082018051600101905260e08201515160029004826101c00151111561362257600080613361876119e5565b6101c0840151156133f757836101c00151600560009054906101000a90046001600160a01b03166001600160a01b031663065480066040518163ffffffff1660e01b815260040160206040518083038186803b1580156133c057600080fd5b505afa1580156133d4573d6000803e3d6000fd5b505050506040513d60208110156133ea57600080fd5b5051816133f357fe5b0491505b6101a08401511561348d57836101a00151600560009054906101000a90046001600160a01b03166001600160a01b03166348cd5b876040518163ffffffff1660e01b815260040160206040518083038186803b15801561345657600080fd5b505afa15801561346a573d6000803e3d6000fd5b505050506040513d602081101561348057600080fd5b50518161348957fe5b0490505b60005b846101c001518110156135515760065461014086015180516001600160a01b03909216916340c10f199190849081106134c557fe5b6020026020010151856040518363ffffffff1660e01b815260040180836001600160a01b03166001600160a01b0316815260200182815260200192505050602060405180830381600087803b15801561351d57600080fd5b505af1158015613531573d6000803e3d6000fd5b505050506040513d602081101561354757600080fd5b5050600101613490565b5060005b846101a001518110156136065760065461012086015180516001600160a01b03909216916379cc679091908490811061358a57fe5b6020026020010151846040518363ffffffff1660e01b815260040180836001600160a01b03166001600160a01b0316815260200182815260200192505050600060405180830381600087803b1580156135e257600080fd5b505af11580156135f6573d6000803e3d6000fd5b5050600190920191506135559050565b5061361b3085602001518660400151866138dd565b5050613667565b816101c00151826101a0015114801561364e575060028260e00151518161364557fe5b04826101a00151145b15613667576136673083602001518460400151846138dd565b60008581526009602090815260409182902084518155848201516001820180546001600160a01b03199081166001600160a01b039384161790915593860151600283015560608601516003830180549095169116179092556080840151600483015560a084015160058301805460ff191691151591909117905560c0840151600683015560e08401518051859392613706926007850192910190614508565b506101008201518051613723916008840191602090910190614569565b506101208201518051613740916009840191602090910190614508565b50610140820151805161375d91600a840191602090910190614508565b50610160820151805161377a91600b840191602090910190614569565b50610180820151805161379791600c8401916020909101906143f0565b506101a0820151600d8201556101c0820151600e8201556101e0820151600f8201805460ff1916911515919091179055610200909101516010909101555050505050565b6006546001600160a01b031681565b6137f483836141bf565b50826001600160a01b031663bdc656e98584846040518463ffffffff1660e01b815260040180846001600160a01b03166001600160a01b0316815260200183815260200180602001828103825283818151815260200191508051906020019080838360005b83811015613871578181015183820152602001613859565b50505050905090810190601f16801561389e5780820380516001836020036101000a031916815260200191505b50945050505050600060405180830381600087803b1580156138bf57600080fd5b505af11580156138d3573d6000803e3d6000fd5b5050505050505050565b6138e783836141bf565b50826001600160a01b0316637c41e5d88584846040518463ffffffff1660e01b815260040180846001600160a01b03166001600160a01b03168152602001838152602001806020018281038252838181518152602001915080519060200190808383600083811015613871578181015183820152602001613859565b61396b61446e565b4260808201526001600160a01b0380861660208301526040820185905284825283811660608084019190915260075490911663869b0de26139ab88610d79565b866040518363ffffffff1660e01b815260040180838152602001826001600160a01b03166001600160a01b031681526020019250505060006040518083038186803b1580156139f957600080fd5b505afa158015613a0d573d6000803e3d6000fd5b505050506040513d6000823e601f3d908101601f191682016040526020811015613a3657600080fd5b8101908080516040519392919084600160201b821115613a5557600080fd5b908301906020820185811115613a6a57600080fd5b82518660208202830111600160201b82111715613a8657600080fd5b82525081516020918201928201910280838360005b83811015613ab3578181015183820152602001613a9b565b5050505091909101604052505060006101a086018190526101c08601819052610180860187905260a08601525090915060609050613aef61238f565b876001600160a01b03166306fdde036040518163ffffffff1660e01b815260040160006040518083038186803b158015613b2857600080fd5b505afa158015613b3c573d6000803e3d6000fd5b505050506040513d6000823e601f3d908101601f191682016040526020811015613b6557600080fd5b8101908080516040519392919084600160201b821115613b8457600080fd5b908301906020820185811115613b9957600080fd5b8251600160201b811182820188101715613bb257600080fd5b82525081516020918201929091019080838360005b83811015613bdf578181015183820152602001613bc7565b50505050905090810190601f168015613c0c5780820380516001836020036101000a031916815260200191505b506040525050506040516020018083805190602001908083835b60208310613c455780518252601f199092019160209182019101613c26565b51815160209384036101000a600019018019909216911617905285519190930192850191508083835b60208310613c8d5780518252601f199092019160209182019101613c6e565b6001836020036101000a0380198251168184511680821785525050505050509050018061465a602f9139602f019250505060405160208183030381529060405290508151604051908082528060200260200182016040528015613cfa578160200160208202803883390190505b5060e08401528151604080518281526020808402820101909152908015613d2b578160200160208202803883390190505b506101208401528151604080518281526020808402820101909152908015613d5d578160200160208202803883390190505b506101408401528151604080518281526020808402820101909152908015613d8f578160200160208202803883390190505b506101008401528151604080518281526020808402820101909152908015613dc1578160200160208202803883390190505b5061016084015260005b825181101561403357828181518110613de057fe5b60200260200101518460e001518281518110613df857fe5b6001600160a01b039283166020918202929092010152600454845191169063a12e93dd908890600190879086908110613e2d57fe5b602090810291909101015188516040516001600160e01b031960e087901b1681526001600160a01b0380861660048301908152908416604483015260a4820183905260c06024830190815285546002600019610100600184161502019091160460c484018190528b948f94909392916064820191608481019160e4909101908a908015613efb5780601f10613ed057610100808354040283529160200191613efb565b820191906000526020600020905b815481529060010190602001808311613ede57829003601f168201915b5050848103835287518152875160209182019189019080838360005b83811015613f2f578181015183820152602001613f17565b50505050905090810190601f168015613f5c5780820380516001836020036101000a031916815260200191505b50848103825286518152865160209182019188019080838360005b83811015613f8f578181015183820152602001613f77565b50505050905090810190601f168015613fbc5780820380516001836020036101000a031916815260200191505b509950505050505050505050602060405180830381600087803b158015613fe257600080fd5b505af1158015613ff6573d6000803e3d6000fd5b505050506040513d602081101561400c57600080fd5b505161010085015180518390811061402057fe5b6020908102919091010152600101613dcb565b5060008681526009602090815260409182902085518155858201516001820180546001600160a01b03199081166001600160a01b039384161790915593870151600283015560608701516003830180549095169116179092556080850151600483015560a085015160058301805460ff191691151591909117905560c0850151600683015560e085015180518693926140d3926007850192910190614508565b5061010082015180516140f0916008840191602090910190614569565b50610120820151805161410d916009840191602090910190614508565b50610140820151805161412a91600a840191602090910190614508565b50610160820151805161414791600b840191602090910190614569565b50610180820151805161416491600c8401916020909101906143f0565b506101a0820151600d8201556101c0820151600e8201556101e0820151600f8201805460ff191691151591909117905561020090910151601090910155604080516020810190915260008152612bb0903090899089906142a9565b6040805162379c0960e91b815230600482015260248101839052905160009182916001600160a01b03861691636f38120091604480830192602092919082900301818787803b15801561421157600080fd5b505af1158015614225573d6000803e3d6000fd5b505050506040513d602081101561423b57600080fd5b5051905060028114801590614251575080600314155b6142a2576040805162461bcd60e51b815260206004820181905260248201527f5468697320766572696669657220697320616c72656164792064656369646564604482015290519081900360640190fd5b5092915050565b6040805162379c0960e91b81523060048201526024810184905290516001600160a01b03851691636f3812009160448083019260209291908290030181600087803b1580156142f757600080fd5b505af115801561430b573d6000803e3d6000fd5b505050506040513d602081101561432157600080fd5b505115614375576040805162461bcd60e51b815260206004820152601f60248201527f546869732070726f6f6620697320616c7265616479207375626d697474656400604482015290519081900360640190fd5b826001600160a01b03166359af61528584846040518463ffffffff1660e01b815260040180846001600160a01b03166001600160a01b03168152602001838152602001806020018281038252838181518152602001915080519060200190808383600083811015613871578181015183820152602001613859565b828054600181600116156101000203166002900490600052602060002090601f016020900481019282601f1061443157805160ff191683800117855561445e565b8280016001018555821561445e579182015b8281111561445e578251825591602001919060010190614443565b5061446a9291506145a3565b5090565b6040518061022001604052806000815260200160006001600160a01b031681526020016000815260200160006001600160a01b0316815260200160008152602001600015158152602001600081526020016060815260200160608152602001606081526020016060815260200160608152602001606081526020016000815260200160008152602001600015158152602001600081525090565b82805482825590600052602060002090810192821561455d579160200282015b8281111561455d57825182546001600160a01b0319166001600160a01b03909116178255602090920191600190910190614528565b5061446a9291506145bd565b82805482825590600052602060002090810192821561445e579160200282018281111561445e578251825591602001919060010190614443565b610e4291905b8082111561446a57600081556001016145a9565b610e4291905b8082111561446a5780546001600160a01b03191681556001016145c356fe506c6561736520636865636b207468697320766964656f20766572696669657220616e6420617070726f76652074686520636f727265637420616d6f756e74206f66207468697320746f6b656e3a2075696e743a4e756d626572206f662055736572732c75696e743a54696d6520696e204d696e757465732e20436f6e73656e7375732069732072656163686564207573696e67204162736f6c757465204d616a6f726974792e54686520636c61696d65722068617320746f20737570706c79206120766964656f2c206261736564206f6e2077686963682074686520617070726f7665722077696c6c2064656369646520746f20617070726f76652e41206d656d626572206f6620746865206170706f696e74656420617070726f7665722067726f7570206861732072656a656374656420796f757220617070726f76616c207265717565737420666f72204f6e6c79207468652063726561746f72206f66207468697320736d61727420636f6e74726163742063616e2063616c6c20746869732066756e6374696f6ea265627a7a723158202eb5f99b530e989156c24e91dd69ca93707fb5c528fcc7ec46f9b23e469e331b64736f6c6343000511003254686520636c61696d65722068617320746f20737570706c79206120766964656f2c206261736564206f6e2077686963682074686520617070726f7665722077696c6c2064656369646520746f20617070726f76652e",
  "source": "pragma solidity ^0.5.17;\n\nimport \"contracts/verifiers/onchain/social/LimitedVoting.sol\";\n\ncontract VideoVoting is LimitedVoting {\n\n    constructor() public  {}\n\n    // @Override\n    function init() public {\n        name = \"VideoVoting\";\n        description = \"The claimer has to supply a video, based on which the approver will decide to approve.\";\n    }\n\n    function submitProof_VideoVoting(address tokenAddrToReceiveVerifierNotice, uint claimId, string memory IPFShash) public {\n        address claimer = msg.sender;\n        super._submitProof_LimitedVoting(tokenAddrToReceiveVerifierNotice, claimId, claimer, IPFShash);\n    }\n\n    // @Override\n    function getMessageText() public pure returns(string memory) {\n        // TODO include the quantity into the message\n        return \"Please check this video verifier and approve the correct amount of this token: \";\n    }\n\n}\n",
  "sourcePath": "/home/cantonioupao/susDAO-saveMe/FIN4Contracts/contracts/verifiers/onchain/social/VideoVoting.sol",
  "compiler": {
    "name": "solc",
    "version": "0.5.17+commit.d19bba13.Emscripten.clang"
  },
  "schemaVersion": "3.3.1",
  "updatedAt": "2020-12-03T18:27:59.041Z",
  "devdoc": {
    "methods": {}
  },
  "userdoc": {
    "methods": {}
  }
}