{
  "contractName": "Vote",
  "abi": [
    {
      "inputs": [],
      "payable": false,
      "stateMutability": "nonpayable",
      "type": "constructor"
    },
    {
      "constant": true,
      "inputs": [],
      "name": "Fin4VerifyingAddress",
      "outputs": [
        {
          "internalType": "address",
          "name": "",
          "type": "address"
        }
      ],
      "payable": false,
      "stateMutability": "view",
      "type": "function"
    },
    {
      "constant": true,
      "inputs": [
        {
          "internalType": "address",
          "name": "_addr",
          "type": "address"
        }
      ],
      "name": "addressToString",
      "outputs": [
        {
          "internalType": "string",
          "name": "",
          "type": "string"
        }
      ],
      "payable": false,
      "stateMutability": "pure",
      "type": "function"
    },
    {
      "constant": true,
      "inputs": [
        {
          "internalType": "address[]",
          "name": "arr",
          "type": "address[]"
        },
        {
          "internalType": "address",
          "name": "addrToCheck",
          "type": "address"
        }
      ],
      "name": "arrayContainsAddress",
      "outputs": [
        {
          "internalType": "bool",
          "name": "",
          "type": "bool"
        }
      ],
      "payable": false,
      "stateMutability": "pure",
      "type": "function"
    },
    {
      "constant": false,
      "inputs": [
        {
          "internalType": "address",
          "name": "user",
          "type": "address"
        },
        {
          "internalType": "address",
          "name": "tokenAddrToReceiveVerifierNotice",
          "type": "address"
        },
        {
          "internalType": "uint256",
          "name": "claimId",
          "type": "uint256"
        }
      ],
      "name": "autoCheck",
      "outputs": [],
      "payable": false,
      "stateMutability": "nonpayable",
      "type": "function"
    },
    {
      "constant": false,
      "inputs": [
        {
          "internalType": "address",
          "name": "user",
          "type": "address"
        },
        {
          "internalType": "address",
          "name": "tokenAddrToReceiveVerifierNotice",
          "type": "address"
        },
        {
          "internalType": "uint256",
          "name": "claimId",
          "type": "uint256"
        }
      ],
      "name": "autoSubmitProof",
      "outputs": [],
      "payable": false,
      "stateMutability": "nonpayable",
      "type": "function"
    },
    {
      "constant": true,
      "inputs": [],
      "name": "contractName",
      "outputs": [
        {
          "internalType": "string",
          "name": "",
          "type": "string"
        }
      ],
      "payable": false,
      "stateMutability": "view",
      "type": "function"
    },
    {
      "constant": true,
      "inputs": [],
      "name": "description",
      "outputs": [
        {
          "internalType": "string",
          "name": "",
          "type": "string"
        }
      ],
      "payable": false,
      "stateMutability": "view",
      "type": "function"
    },
    {
      "constant": true,
      "inputs": [
        {
          "internalType": "address",
          "name": "tokenAddress",
          "type": "address"
        }
      ],
      "name": "getCreatorOfToken",
      "outputs": [
        {
          "internalType": "address",
          "name": "",
          "type": "address"
        }
      ],
      "payable": false,
      "stateMutability": "view",
      "type": "function"
    },
    {
      "constant": true,
      "inputs": [],
      "name": "getDescription",
      "outputs": [
        {
          "internalType": "string",
          "name": "",
          "type": "string"
        }
      ],
      "payable": false,
      "stateMutability": "view",
      "type": "function"
    },
    {
      "constant": true,
      "inputs": [],
      "name": "getInfo",
      "outputs": [
        {
          "internalType": "string",
          "name": "",
          "type": "string"
        },
        {
          "internalType": "string",
          "name": "",
          "type": "string"
        },
        {
          "internalType": "string",
          "name": "",
          "type": "string"
        },
        {
          "internalType": "string",
          "name": "",
          "type": "string"
        }
      ],
      "payable": false,
      "stateMutability": "view",
      "type": "function"
    },
    {
      "constant": true,
      "inputs": [],
      "name": "getName",
      "outputs": [
        {
          "internalType": "string",
          "name": "",
          "type": "string"
        }
      ],
      "payable": false,
      "stateMutability": "view",
      "type": "function"
    },
    {
      "constant": true,
      "inputs": [],
      "name": "isAutoCheckable",
      "outputs": [
        {
          "internalType": "bool",
          "name": "",
          "type": "bool"
        }
      ],
      "payable": false,
      "stateMutability": "view",
      "type": "function"
    },
    {
      "constant": true,
      "inputs": [],
      "name": "isAutoInitiable",
      "outputs": [
        {
          "internalType": "bool",
          "name": "",
          "type": "bool"
        }
      ],
      "payable": false,
      "stateMutability": "view",
      "type": "function"
    },
    {
      "constant": true,
      "inputs": [],
      "name": "name",
      "outputs": [
        {
          "internalType": "string",
          "name": "",
          "type": "string"
        }
      ],
      "payable": false,
      "stateMutability": "view",
      "type": "function"
    },
    {
      "constant": false,
      "inputs": [
        {
          "internalType": "string",
          "name": "_contractName",
          "type": "string"
        }
      ],
      "name": "setContractName",
      "outputs": [],
      "payable": false,
      "stateMutability": "nonpayable",
      "type": "function"
    },
    {
      "constant": true,
      "inputs": [
        {
          "internalType": "address",
          "name": "",
          "type": "address"
        }
      ],
      "name": "tokenToVoteOptionsStrings",
      "outputs": [
        {
          "internalType": "string",
          "name": "",
          "type": "string"
        }
      ],
      "payable": false,
      "stateMutability": "view",
      "type": "function"
    },
    {
      "constant": false,
      "inputs": [
        {
          "internalType": "address",
          "name": "Fin4VerifyingAddr",
          "type": "address"
        }
      ],
      "name": "setFin4VerifyingAddress",
      "outputs": [],
      "payable": false,
      "stateMutability": "nonpayable",
      "type": "function"
    },
    {
      "constant": false,
      "inputs": [
        {
          "internalType": "address",
          "name": "tokenAddrToReceiveVerifierNotice",
          "type": "address"
        },
        {
          "internalType": "uint256",
          "name": "claimId",
          "type": "uint256"
        },
        {
          "internalType": "string",
          "name": "chosenOption",
          "type": "string"
        }
      ],
      "name": "submitProof_Vote",
      "outputs": [],
      "payable": false,
      "stateMutability": "nonpayable",
      "type": "function"
    },
    {
      "constant": true,
      "inputs": [],
      "name": "getParameterForTokenCreatorToSetEncoded",
      "outputs": [
        {
          "internalType": "string",
          "name": "",
          "type": "string"
        }
      ],
      "payable": false,
      "stateMutability": "pure",
      "type": "function"
    },
    {
      "constant": false,
      "inputs": [
        {
          "internalType": "address",
          "name": "token",
          "type": "address"
        },
        {
          "internalType": "string",
          "name": "voteOptionsString",
          "type": "string"
        }
      ],
      "name": "setParameters",
      "outputs": [],
      "payable": false,
      "stateMutability": "nonpayable",
      "type": "function"
    },
    {
      "constant": true,
      "inputs": [
        {
          "internalType": "address",
          "name": "token",
          "type": "address"
        }
      ],
      "name": "getVoteOptionsStringForToken",
      "outputs": [
        {
          "internalType": "string",
          "name": "",
          "type": "string"
        }
      ],
      "payable": false,
      "stateMutability": "view",
      "type": "function"
    }
  ],
  "bytecode": "0x60806040526003805461ffff191690553480156200001c57600080fd5b506040805180820190915260158082527f73632e76657269666965722e766f74652e6e616d65000000000000000000000060209092019182526200006391600191620000b1565b5060408051808201909152601c8082527f73632e76657269666965722e766f74652e6465736372697074696f6e000000006020909201918252620000aa91600291620000b1565b5062000156565b828054600181600116156101000203166002900490600052602060002090601f016020900481019282601f10620000f457805160ff191683800117855562000124565b8280016001018555821562000124579182015b828111156200012457825182559160200191906001019062000107565b506200013292915062000136565b5090565b6200015391905b808211156200013257600081556001016200013d565b90565b61137980620001666000396000f3fe608060405234801561001057600080fd5b50600436106101375760003560e01c80635a9b0b89116100b85780638d665d991161007c5780638d665d99146105ca5780639259360c146105f0578063954c24471461069c578063ae18e0a514610750578063c05ebcc514610786578063ffc5daef1461075057610137565b80635a9b0b89146103da5780635e57966d1461058c5780636c71d542146105b25780637284e416146105ba57806375d0c0dc146105c257610137565b806336790932116100ff57806336790932146102955780634036e3b3146102d75780634d1a1d5d146102df5780635474f461146102fb57806358eedbcb146103b457610137565b806306fdde031461013c5780630b5ee006146101b95780630d4c73ca1461025f57806317d7de7c146102855780631a0925411461028d575b600080fd5b61014461078e565b6040805160208082528351818301528351919283929083019185019080838360005b8381101561017e578181015183820152602001610166565b50505050905090810190601f1680156101ab5780820380516001836020036101000a031916815260200191505b509250505060405180910390f35b61025d600480360360208110156101cf57600080fd5b810190602081018135600160201b8111156101e957600080fd5b8201836020820111156101fb57600080fd5b803590602001918460018302840111600160201b8311171561021c57600080fd5b91908080601f01602080910402602001604051908101604052809392919081815260200183838082843760009201919091525092955061081b945050505050565b005b61025d6004803603602081101561027557600080fd5b50356001600160a01b0316610832565b61014461085c565b6101446108f2565b6102bb600480360360208110156102ab57600080fd5b50356001600160a01b0316610950565b604080516001600160a01b039092168252519081900360200190f35b6102bb6109bd565b6102e76109d2565b604080519115158252519081900360200190f35b61025d6004803603606081101561031157600080fd5b6001600160a01b0382351691602081013591810190606081016040820135600160201b81111561034057600080fd5b82018360208201111561035257600080fd5b803590602001918460018302840111600160201b8311171561037357600080fd5b91908080601f0160208091040260200160405190810160405280939291908181526020018383808284376000920191909152509295506109e0945050505050565b610144600480360360208110156103ca57600080fd5b50356001600160a01b0316610af2565b6103e2610b9d565b6040518080602001806020018060200180602001858103855289818151815260200191508051906020019080838360005b8381101561042b578181015183820152602001610413565b50505050905090810190601f1680156104585780820380516001836020036101000a031916815260200191505b5085810384528851815288516020918201918a019080838360005b8381101561048b578181015183820152602001610473565b50505050905090810190601f1680156104b85780820380516001836020036101000a031916815260200191505b50858103835287518152875160209182019189019080838360005b838110156104eb5781810151838201526020016104d3565b50505050905090810190601f1680156105185780820380516001836020036101000a031916815260200191505b50858103825286518152865160209182019188019080838360005b8381101561054b578181015183820152602001610533565b50505050905090810190601f1680156105785780820380516001836020036101000a031916815260200191505b509850505050505050505060405180910390f35b610144600480360360208110156105a257600080fd5b50356001600160a01b0316610d68565b610144610ee4565b610144610f04565b610144610f5c565b610144600480360360208110156105e057600080fd5b50356001600160a01b0316610fb7565b6102e76004803603604081101561060657600080fd5b810190602081018135600160201b81111561062057600080fd5b82018360208201111561063257600080fd5b803590602001918460208302840111600160201b8311171561065357600080fd5b919080806020026020016040519081016040528093929190818152602001838360200280828437600092019190915250929550505090356001600160a01b0316915061101f9050565b61025d600480360360408110156106b257600080fd5b6001600160a01b038235169190810190604081016020820135600160201b8111156106dc57600080fd5b8201836020820111156106ee57600080fd5b803590602001918460018302840111600160201b8311171561070f57600080fd5b91908080601f016020809104026020016040519081016040528093929190818152602001838380828437600092019190915250929550611077945050505050565b61025d6004803603606081101561076657600080fd5b506001600160a01b03813581169160208101359091169060400135610aed565b6102e76110a0565b60018054604080516020600284861615610100026000190190941693909304601f810184900484028201840190925281815292918301828280156108135780601f106107e857610100808354040283529160200191610813565b820191906000526020600020905b8154815290600101906020018083116107f657829003601f168201915b505050505081565b805161082e906000906020840190611286565b5050565b600380546001600160a01b03909216620100000262010000600160b01b0319909216919091179055565b60018054604080516020601f600260001961010087891615020190951694909404938401819004810282018101909252828152606093909290918301828280156108e75780601f106108bc576101008083540402835291602001916108e7565b820191906000526020600020905b8154815290600101906020018083116108ca57829003601f168201915b505050505090505b90565b60028054604080516020601f60001961010060018716150201909416859004938401819004810282018101909252828152606093909290918301828280156108e75780601f106108bc576101008083540402835291602001916108e7565b6000816001600160a01b0316639c6790176040518163ffffffff1660e01b815260040160206040518083038186803b15801561098b57600080fd5b505afa15801561099f573d6000803e3d6000fd5b505050506040513d60208110156109b557600080fd5b505192915050565b6003546201000090046001600160a01b031681565b600354610100900460ff1681565b6003546040516377e27b5360e11b815230600482018181526001600160a01b0387811660248501523360448501819052426064860181905260026084870181905260c060a48801908152895160c48901528951620100009099049094169763efc4f6a6978c969495939492938b9392909160e40190602085019080838360005b83811015610a78578181015183820152602001610a60565b50505050905090810190601f168015610aa55780820380516001836020036101000a031916815260200191505b50975050505050505050600060405180830381600087803b158015610ac957600080fd5b505af1158015610add573d6000803e3d6000fd5b50505050610aed308484846110a9565b505050565b6001600160a01b03811660009081526004602090815260409182902080548351601f6002600019610100600186161502019093169290920491820184900484028101840190945280845260609392830182828015610b915780601f10610b6657610100808354040283529160200191610b91565b820191906000526020600020905b815481529060010190602001808311610b7457829003601f168201915b50505050509050919050565b606080606080600060016002610bb1610ee4565b8354604080516020601f60026000196101006001881615020190951694909404938401819004810282018101909252828152918691830182828015610c375780601f10610c0c57610100808354040283529160200191610c37565b820191906000526020600020905b815481529060010190602001808311610c1a57829003601f168201915b5050865460408051602060026001851615610100026000190190941693909304601f810184900484028201840190925281815295995088945092508401905082828015610cc55780601f10610c9a57610100808354040283529160200191610cc5565b820191906000526020600020905b815481529060010190602001808311610ca857829003601f168201915b5050855460408051602060026001851615610100026000190190941693909304601f810184900484028201840190925281815295985087945092508401905082828015610d535780601f10610d2857610100808354040283529160200191610d53565b820191906000526020600020905b815481529060010190602001808311610d3657829003601f168201915b50505050509150935093509350935090919293565b604080518082018252601081526f181899199a1a9b1b9c1cb0b131b232b360811b60208201528151602a80825260608281019094526001600160a01b03851692918491602082018180388339019050509050600360fc1b81600081518110610dcc57fe5b60200101906001600160f81b031916908160001a905350600f60fb1b81600181518110610df557fe5b60200101906001600160f81b031916908160001a90535060005b6014811015610edb578260048583600c0160208110610e2a57fe5b1a60f81b6001600160f81b031916901c60f81c60ff1681518110610e4a57fe5b602001015160f81c60f81b828260020260020181518110610e6757fe5b60200101906001600160f81b031916908160001a905350828482600c0160208110610e8e57fe5b825191901a600f16908110610e9f57fe5b602001015160f81c60f81b828260020260030181518110610ebc57fe5b60200101906001600160f81b031916908160001a905350600101610e0f565b50949350505050565b606060405180606001604052806026815260200161131f60269139905090565b6002805460408051602060018416156101000260001901909316849004601f810184900484028201840190925281815292918301828280156108135780601f106107e857610100808354040283529160200191610813565b6000805460408051602060026001851615610100026000190190941693909304601f810184900484028201840190925281815292918301828280156108135780601f106107e857610100808354040283529160200191610813565b60046020908152600091825260409182902080548351601f6002600019610100600186161502019093169290920491820184900484028101840190945280845290918301828280156108135780601f106107e857610100808354040283529160200191610813565b6000805b835181101561106b57826001600160a01b031684828151811061104257fe5b60200260200101516001600160a01b03161415611063576001915050611071565b600101611023565b50600090505b92915050565b6001600160a01b03821660009081526004602090815260409091208251610aed92840190611286565b60035460ff1681565b6110b3838361119c565b50826001600160a01b031663bdc656e98584846040518463ffffffff1660e01b815260040180846001600160a01b03166001600160a01b0316815260200183815260200180602001828103825283818151815260200191508051906020019080838360005b83811015611130578181015183820152602001611118565b50505050905090810190601f16801561115d5780820380516001836020036101000a031916815260200191505b50945050505050600060405180830381600087803b15801561117e57600080fd5b505af1158015611192573d6000803e3d6000fd5b5050505050505050565b6040805162379c0960e91b815230600482015260248101839052905160009182916001600160a01b03861691636f38120091604480830192602092919082900301818787803b1580156111ee57600080fd5b505af1158015611202573d6000803e3d6000fd5b505050506040513d602081101561121857600080fd5b505190506002811480159061122e575080600314155b61127f576040805162461bcd60e51b815260206004820181905260248201527f5468697320766572696669657220697320616c72656164792064656369646564604482015290519081900360640190fd5b5092915050565b828054600181600116156101000203166002900490600052602060002090601f016020900481019282601f106112c757805160ff19168380011785556112f4565b828001600101855582156112f4579182015b828111156112f45782518255916020019190600101906112d9565b50611300929150611304565b5090565b6108ef91905b80821115611300576000815560010161130a56fe737472696e673a6f7074696f6e733a636f6d6d6120736570617261746564206f7074696f6e73a265627a7a7231582046115de78b4c88fef85d115e4f99e36fc931b64a8dacc9d83b9d8e46809359ee64736f6c63430005110032",
  "source": "pragma solidity ^0.5.17;\n\nimport \"contracts/verifiers/Fin4BaseVerifierType.sol\";\nimport \"contracts/Fin4Verifying.sol\";\n\ncontract Vote is Fin4BaseVerifierType {\n\n    constructor() public  {\n        name = \"sc.verifier.vote.name\";\n        description = \"sc.verifier.vote.description\";\n    }\n\n    address public Fin4VerifyingAddress;\n\n    function setFin4VerifyingAddress(address Fin4VerifyingAddr) public {\n        Fin4VerifyingAddress = Fin4VerifyingAddr;\n    }\n\n    function submitProof_Vote(address tokenAddrToReceiveVerifierNotice, uint claimId, string memory chosenOption) public {\n        Fin4Verifying(Fin4VerifyingAddress).addSubmission(address(this), tokenAddrToReceiveVerifierNotice, msg.sender, now, 2, chosenOption);\n        _sendApprovalNotice(address(this), tokenAddrToReceiveVerifierNotice, claimId, chosenOption);\n    }\n\n    // @Override\n    function getParameterForTokenCreatorToSetEncoded() public pure returns(string memory) {\n        return \"string:options:comma separated options\";\n    }\n\n    mapping (address => string) public tokenToVoteOptionsStrings;\n\n    function setParameters(address token, string memory voteOptionsString) public {\n        tokenToVoteOptionsStrings[token] = voteOptionsString;\n    }\n\n    function getVoteOptionsStringForToken(address token) public view returns(string memory) {\n        return tokenToVoteOptionsStrings[token];\n    }\n\n}\n",
  "sourcePath": "/home/cantonioupao/susDAO-saveMe/FIN4Contracts/contracts/verifiers/inactive/Vote.sol",
  "compiler": {
    "name": "solc",
    "version": "0.5.17+commit.d19bba13.Emscripten.clang"
  },
  "schemaVersion": "3.3.1",
  "updatedAt": "2020-12-03T18:27:58.990Z",
  "devdoc": {
    "methods": {}
  },
  "userdoc": {
    "methods": {}
  }
}