{
  "contractName": "ApprovalByUsersOrGroups",
  "abi": [
    {
      "inputs": [],
      "payable": false,
      "stateMutability": "nonpayable",
      "type": "constructor"
    },
    {
      "constant": true,
      "inputs": [],
      "name": "Fin4GroupsAddress",
      "outputs": [
        {
          "internalType": "address",
          "name": "",
          "type": "address"
        }
      ],
      "payable": false,
      "stateMutability": "view",
      "type": "function"
    },
    {
      "constant": true,
      "inputs": [],
      "name": "Fin4MessagingAddress",
      "outputs": [
        {
          "internalType": "address",
          "name": "",
          "type": "address"
        }
      ],
      "payable": false,
      "stateMutability": "view",
      "type": "function"
    },
    {
      "constant": true,
      "inputs": [
        {
          "internalType": "address",
          "name": "_addr",
          "type": "address"
        }
      ],
      "name": "addressToString",
      "outputs": [
        {
          "internalType": "string",
          "name": "",
          "type": "string"
        }
      ],
      "payable": false,
      "stateMutability": "pure",
      "type": "function"
    },
    {
      "constant": true,
      "inputs": [
        {
          "internalType": "address[]",
          "name": "arr",
          "type": "address[]"
        },
        {
          "internalType": "address",
          "name": "addrToCheck",
          "type": "address"
        }
      ],
      "name": "arrayContainsAddress",
      "outputs": [
        {
          "internalType": "bool",
          "name": "",
          "type": "bool"
        }
      ],
      "payable": false,
      "stateMutability": "pure",
      "type": "function"
    },
    {
      "constant": false,
      "inputs": [
        {
          "internalType": "address",
          "name": "user",
          "type": "address"
        },
        {
          "internalType": "address",
          "name": "tokenAddrToReceiveVerifierNotice",
          "type": "address"
        },
        {
          "internalType": "uint256",
          "name": "claimId",
          "type": "uint256"
        }
      ],
      "name": "autoCheck",
      "outputs": [],
      "payable": false,
      "stateMutability": "nonpayable",
      "type": "function"
    },
    {
      "constant": true,
      "inputs": [],
      "name": "contractName",
      "outputs": [
        {
          "internalType": "string",
          "name": "",
          "type": "string"
        }
      ],
      "payable": false,
      "stateMutability": "view",
      "type": "function"
    },
    {
      "constant": true,
      "inputs": [],
      "name": "description",
      "outputs": [
        {
          "internalType": "string",
          "name": "",
          "type": "string"
        }
      ],
      "payable": false,
      "stateMutability": "view",
      "type": "function"
    },
    {
      "constant": true,
      "inputs": [
        {
          "internalType": "address",
          "name": "tokenAddress",
          "type": "address"
        }
      ],
      "name": "getCreatorOfToken",
      "outputs": [
        {
          "internalType": "address",
          "name": "",
          "type": "address"
        }
      ],
      "payable": false,
      "stateMutability": "view",
      "type": "function"
    },
    {
      "constant": true,
      "inputs": [],
      "name": "getDescription",
      "outputs": [
        {
          "internalType": "string",
          "name": "",
          "type": "string"
        }
      ],
      "payable": false,
      "stateMutability": "view",
      "type": "function"
    },
    {
      "constant": true,
      "inputs": [],
      "name": "getInfo",
      "outputs": [
        {
          "internalType": "string",
          "name": "",
          "type": "string"
        },
        {
          "internalType": "string",
          "name": "",
          "type": "string"
        },
        {
          "internalType": "string",
          "name": "",
          "type": "string"
        },
        {
          "internalType": "string",
          "name": "",
          "type": "string"
        }
      ],
      "payable": false,
      "stateMutability": "view",
      "type": "function"
    },
    {
      "constant": true,
      "inputs": [],
      "name": "getName",
      "outputs": [
        {
          "internalType": "string",
          "name": "",
          "type": "string"
        }
      ],
      "payable": false,
      "stateMutability": "view",
      "type": "function"
    },
    {
      "constant": true,
      "inputs": [],
      "name": "isAutoCheckable",
      "outputs": [
        {
          "internalType": "bool",
          "name": "",
          "type": "bool"
        }
      ],
      "payable": false,
      "stateMutability": "view",
      "type": "function"
    },
    {
      "constant": true,
      "inputs": [],
      "name": "isAutoInitiable",
      "outputs": [
        {
          "internalType": "bool",
          "name": "",
          "type": "bool"
        }
      ],
      "payable": false,
      "stateMutability": "view",
      "type": "function"
    },
    {
      "constant": true,
      "inputs": [],
      "name": "name",
      "outputs": [
        {
          "internalType": "string",
          "name": "",
          "type": "string"
        }
      ],
      "payable": false,
      "stateMutability": "view",
      "type": "function"
    },
    {
      "constant": true,
      "inputs": [],
      "name": "nextPendingRequestId",
      "outputs": [
        {
          "internalType": "uint256",
          "name": "",
          "type": "uint256"
        }
      ],
      "payable": false,
      "stateMutability": "view",
      "type": "function"
    },
    {
      "constant": true,
      "inputs": [
        {
          "internalType": "uint256",
          "name": "",
          "type": "uint256"
        }
      ],
      "name": "pendingRequests",
      "outputs": [
        {
          "internalType": "uint256",
          "name": "pendingRequestId",
          "type": "uint256"
        },
        {
          "internalType": "address",
          "name": "tokenAddrToReceiveVerifierNotice",
          "type": "address"
        },
        {
          "internalType": "uint256",
          "name": "claimIdOnTokenToReceiveVerifierDecision",
          "type": "uint256"
        },
        {
          "internalType": "address",
          "name": "requester",
          "type": "address"
        },
        {
          "internalType": "bool",
          "name": "isDecided",
          "type": "bool"
        },
        {
          "internalType": "string",
          "name": "attachment",
          "type": "string"
        }
      ],
      "payable": false,
      "stateMutability": "view",
      "type": "function"
    },
    {
      "constant": false,
      "inputs": [
        {
          "internalType": "string",
          "name": "_contractName",
          "type": "string"
        }
      ],
      "name": "setContractName",
      "outputs": [],
      "payable": false,
      "stateMutability": "nonpayable",
      "type": "function"
    },
    {
      "constant": true,
      "inputs": [
        {
          "internalType": "address",
          "name": "",
          "type": "address"
        },
        {
          "internalType": "uint256",
          "name": "",
          "type": "uint256"
        }
      ],
      "name": "tokenToApproverGroupIDs",
      "outputs": [
        {
          "internalType": "uint256",
          "name": "",
          "type": "uint256"
        }
      ],
      "payable": false,
      "stateMutability": "view",
      "type": "function"
    },
    {
      "constant": true,
      "inputs": [
        {
          "internalType": "address",
          "name": "",
          "type": "address"
        },
        {
          "internalType": "uint256",
          "name": "",
          "type": "uint256"
        }
      ],
      "name": "tokenToIndividualApprovers",
      "outputs": [
        {
          "internalType": "address",
          "name": "",
          "type": "address"
        }
      ],
      "payable": false,
      "stateMutability": "view",
      "type": "function"
    },
    {
      "constant": false,
      "inputs": [
        {
          "internalType": "address",
          "name": "Fin4GroupsAddr",
          "type": "address"
        }
      ],
      "name": "setFin4GroupsAddress",
      "outputs": [],
      "payable": false,
      "stateMutability": "nonpayable",
      "type": "function"
    },
    {
      "constant": false,
      "inputs": [
        {
          "internalType": "address",
          "name": "Fin4MessagingAddr",
          "type": "address"
        }
      ],
      "name": "setFin4MessagingAddress",
      "outputs": [],
      "payable": false,
      "stateMutability": "nonpayable",
      "type": "function"
    },
    {
      "constant": false,
      "inputs": [],
      "name": "init",
      "outputs": [],
      "payable": false,
      "stateMutability": "nonpayable",
      "type": "function"
    },
    {
      "constant": false,
      "inputs": [
        {
          "internalType": "address",
          "name": "user",
          "type": "address"
        },
        {
          "internalType": "address",
          "name": "tokenAddrToReceiveVerifierNotice",
          "type": "address"
        },
        {
          "internalType": "uint256",
          "name": "claimId",
          "type": "uint256"
        }
      ],
      "name": "autoSubmitProof",
      "outputs": [],
      "payable": false,
      "stateMutability": "nonpayable",
      "type": "function"
    },
    {
      "constant": true,
      "inputs": [],
      "name": "getParameterForTokenCreatorToSetEncoded",
      "outputs": [
        {
          "internalType": "string",
          "name": "",
          "type": "string"
        }
      ],
      "payable": false,
      "stateMutability": "pure",
      "type": "function"
    },
    {
      "constant": false,
      "inputs": [
        {
          "internalType": "address",
          "name": "token",
          "type": "address"
        },
        {
          "internalType": "address[]",
          "name": "individualApprovers",
          "type": "address[]"
        },
        {
          "internalType": "uint256[]",
          "name": "approverGroupIDs",
          "type": "uint256[]"
        }
      ],
      "name": "setParameters",
      "outputs": [],
      "payable": false,
      "stateMutability": "nonpayable",
      "type": "function"
    },
    {
      "constant": false,
      "inputs": [
        {
          "internalType": "uint256",
          "name": "pendingRequestId",
          "type": "uint256"
        },
        {
          "internalType": "string",
          "name": "attachedMessage",
          "type": "string"
        }
      ],
      "name": "receiveApproval",
      "outputs": [],
      "payable": false,
      "stateMutability": "nonpayable",
      "type": "function"
    },
    {
      "constant": false,
      "inputs": [
        {
          "internalType": "uint256",
          "name": "pendingRequestId",
          "type": "uint256"
        },
        {
          "internalType": "string",
          "name": "attachedMessage",
          "type": "string"
        }
      ],
      "name": "receiveRejection",
      "outputs": [],
      "payable": false,
      "stateMutability": "nonpayable",
      "type": "function"
    }
  ],
  "bytecode": "0x60806040526003805461ffff1916905560006005553480156200002157600080fd5b50620000356001600160e01b036200003b16565b62000151565b6040518060600160405280602c815260200162003233602c913980516200006b91600191602090910190620000ac565b50604051806060016040528060338152602001620032006033913980516200009c91600291602090910190620000ac565b506003805460ff19166001179055565b828054600181600116156101000203166002900490600052602060002090601f016020900481019282601f10620000ef57805160ff19168380011785556200011f565b828001600101855582156200011f579182015b828111156200011f57825182559160200191906001019062000102565b506200012d92915062000131565b5090565b6200014e91905b808211156200012d576000815560010162000138565b90565b61309f80620001616000396000f3fe608060405234801561001057600080fd5b50600436106101a95760003560e01c80636c71d542116100f9578063b9501b2f11610097578063e1c7392a11610071578063e1c7392a1461099d578063e4ad4acd146109a5578063eb92f76a146109ad578063ffc5daef14610a58576101a9565b8063b9501b2f14610961578063c05ebcc514610969578063de16f59414610971576101a9565b80638b3b39e5116100d35780638b3b39e5146107265780638bbfc6eb146108595780639259360c1461087f578063ae18e0a51461092b576101a9565b80636c71d5421461070e5780637284e4161461071657806375d0c0dc1461071e576101a9565b80633297bf06116101665780633fff6b17116101405780633fff6b17146104dc5780634d1a1d5d1461051a5780635a9b0b89146105365780635e57966d146106e8576101a9565b80633297bf06146103b257806336790932146103d65780633c652a9a146103fc576101a9565b806306fdde03146101ae5780630b5ee0061461022b5780630e0e68b5146102d157806317d7de7c146102f75780631a092541146102ff57806324b4de2614610307575b600080fd5b6101b6610a8e565b6040805160208082528351818301528351919283929083019185019080838360005b838110156101f05781810151838201526020016101d8565b50505050905090810190601f16801561021d5780820380516001836020036101000a031916815260200191505b509250505060405180910390f35b6102cf6004803603602081101561024157600080fd5b810190602081018135600160201b81111561025b57600080fd5b82018360208201111561026d57600080fd5b803590602001918460018302840111600160201b8311171561028e57600080fd5b91908080601f016020809104026020016040519081016040528093929190818152602001838380828437600092019190915250929550610b1b945050505050565b005b6102cf600480360360208110156102e757600080fd5b50356001600160a01b0316610b32565b6101b6610b5c565b6101b6610bf2565b6102cf6004803603604081101561031d57600080fd5b81359190810190604081016020820135600160201b81111561033e57600080fd5b82018360208201111561035057600080fd5b803590602001918460018302840111600160201b8311171561037157600080fd5b91908080601f016020809104026020016040519081016040528093929190818152602001838380828437600092019190915250929550610c50945050505050565b6103ba610c5d565b604080516001600160a01b039092168252519081900360200190f35b6103ba600480360360208110156103ec57600080fd5b50356001600160a01b0316610c72565b6104196004803603602081101561041257600080fd5b5035610cdf565b60405180878152602001866001600160a01b03166001600160a01b03168152602001858152602001846001600160a01b03166001600160a01b031681526020018315151515815260200180602001828103825283818151815260200191508051906020019080838360005b8381101561049c578181015183820152602001610484565b50505050905090810190601f1680156104c95780820380516001836020036101000a031916815260200191505b5097505050505050505060405180910390f35b610508600480360360408110156104f257600080fd5b506001600160a01b038135169060200135610daf565b60408051918252519081900360200190f35b610522610ddd565b604080519115158252519081900360200190f35b61053e610deb565b6040518080602001806020018060200180602001858103855289818151815260200191508051906020019080838360005b8381101561058757818101518382015260200161056f565b50505050905090810190601f1680156105b45780820380516001836020036101000a031916815260200191505b5085810384528851815288516020918201918a019080838360005b838110156105e75781810151838201526020016105cf565b50505050905090810190601f1680156106145780820380516001836020036101000a031916815260200191505b50858103835287518152875160209182019189019080838360005b8381101561064757818101518382015260200161062f565b50505050905090810190601f1680156106745780820380516001836020036101000a031916815260200191505b50858103825286518152865160209182019188019080838360005b838110156106a757818101518382015260200161068f565b50505050905090810190601f1680156106d45780820380516001836020036101000a031916815260200191505b509850505050505050505060405180910390f35b6101b6600480360360208110156106fe57600080fd5b50356001600160a01b0316610fb6565b6101b6611132565b6101b6611152565b6101b66111aa565b6102cf6004803603606081101561073c57600080fd5b6001600160a01b038235169190810190604081016020820135600160201b81111561076657600080fd5b82018360208201111561077857600080fd5b803590602001918460208302840111600160201b8311171561079957600080fd5b9190808060200260200160405190810160405280939291908181526020018383602002808284376000920191909152509295949360208101935035915050600160201b8111156107e857600080fd5b8201836020820111156107fa57600080fd5b803590602001918460208302840111600160201b8311171561081b57600080fd5b919080806020026020016040519081016040528093929190818152602001838360200280828437600092019190915250929550611205945050505050565b6102cf6004803603602081101561086f57600080fd5b50356001600160a01b0316611346565b6105226004803603604081101561089557600080fd5b810190602081018135600160201b8111156108af57600080fd5b8201836020820111156108c157600080fd5b803590602001918460208302840111600160201b831117156108e257600080fd5b919080806020026020016040519081016040528093929190818152602001838360200280828437600092019190915250929550505090356001600160a01b031691506113689050565b6102cf6004803603606081101561094157600080fd5b506001600160a01b038135811691602081013590911690604001356113c0565b6105086113c5565b6105226113cb565b6103ba6004803603604081101561098757600080fd5b506001600160a01b0381351690602001356113d4565b6102cf611409565b6103ba611474565b6102cf600480360360408110156109c357600080fd5b81359190810190604081016020820135600160201b8111156109e457600080fd5b8201836020820111156109f657600080fd5b803590602001918460018302840111600160201b83111715610a1757600080fd5b91908080601f016020809104026020016040519081016040528093929190818152602001838380828437600092019190915250929550611483945050505050565b6102cf60048036036060811015610a6e57600080fd5b506001600160a01b03813581169160208101359091169060400135611490565b60018054604080516020600284861615610100026000190190941693909304601f81018490048402820184019092528181529291830182828015610b135780601f10610ae857610100808354040283529160200191610b13565b820191906000526020600020905b815481529060010190602001808311610af657829003601f168201915b505050505081565b8051610b2e906000906020840190612bca565b5050565b600380546001600160a01b03909216620100000262010000600160b01b0319909216919091179055565b60018054604080516020601f60026000196101008789161502019095169490940493840181900481028201810190925282815260609390929091830182828015610be75780601f10610bbc57610100808354040283529160200191610be7565b820191906000526020600020905b815481529060010190602001808311610bca57829003601f168201915b505050505090505b90565b60028054604080516020601f6000196101006001871615020190941685900493840181900481028201810190925282815260609390929091830182828015610be75780601f10610bbc57610100808354040283529160200191610be7565b610b2e82338360016114c4565b6003546201000090046001600160a01b031681565b6000816001600160a01b0316639c6790176040518163ffffffff1660e01b815260040160206040518083038186803b158015610cad57600080fd5b505afa158015610cc1573d6000803e3d6000fd5b505050506040513d6020811015610cd757600080fd5b505192915050565b60066020818152600092835260409283902080546001808301546002808501546003860154978601546007870180548b516101009782161597909702600019011693909304601f8101899004890286018901909a5289855294986001600160a01b03938416989197939091169560ff909516949392830182828015610da55780601f10610d7a57610100808354040283529160200191610da5565b820191906000526020600020905b815481529060010190602001808311610d8857829003601f168201915b5050505050905086565b60086020528160005260406000208181548110610dc857fe5b90600052602060002001600091509150505481565b600354610100900460ff1681565b606080606080600060016002610dff611132565b8354604080516020601f60026000196101006001881615020190951694909404938401819004810282018101909252828152918691830182828015610e855780601f10610e5a57610100808354040283529160200191610e85565b820191906000526020600020905b815481529060010190602001808311610e6857829003601f168201915b5050865460408051602060026001851615610100026000190190941693909304601f810184900484028201840190925281815295995088945092508401905082828015610f135780601f10610ee857610100808354040283529160200191610f13565b820191906000526020600020905b815481529060010190602001808311610ef657829003601f168201915b5050855460408051602060026001851615610100026000190190941693909304601f810184900484028201840190925281815295985087945092508401905082828015610fa15780601f10610f7657610100808354040283529160200191610fa1565b820191906000526020600020905b815481529060010190602001808311610f8457829003601f168201915b50505050509150935093509350935090919293565b604080518082018252601081526f181899199a1a9b1b9c1cb0b131b232b360811b60208201528151602a80825260608281019094526001600160a01b03851692918491602082018180388339019050509050600360fc1b8160008151811061101a57fe5b60200101906001600160f81b031916908160001a905350600f60fb1b8160018151811061104357fe5b60200101906001600160f81b031916908160001a90535060005b6014811015611129578260048583600c016020811061107857fe5b1a60f81b6001600160f81b031916901c60f81c60ff168151811061109857fe5b602001015160f81c60f81b8282600202600201815181106110b557fe5b60200101906001600160f81b031916908160001a905350828482600c01602081106110dc57fe5b825191901a600f169081106110ed57fe5b602001015160f81c60f81b82826002026003018151811061110a57fe5b60200101906001600160f81b031916908160001a90535060010161105d565b50949350505050565b60606040518060800160405280604b8152602001612e76604b9139905090565b6002805460408051602060018416156101000260001901909316849004601f81018490048402820184019092528181529291830182828015610b135780601f10610ae857610100808354040283529160200191610b13565b6000805460408051602060026001851615610100026000190190941693909304601f81018490048402820184019092528181529291830182828015610b135780601f10610ae857610100808354040283529160200191610b13565b60005b81518110156112ec57600360029054906101000a90046001600160a01b03166001600160a01b031663bd5263d883838151811061124157fe5b60200260200101516040518263ffffffff1660e01b81526004018082815260200191505060206040518083038186803b15801561127d57600080fd5b505afa158015611291573d6000803e3d6000fd5b505050506040513d60208110156112a757600080fd5b50516112e45760405162461bcd60e51b8152600401808060200182810382526035815260200180612f856035913960400191505060405180910390fd5b600101611208565b506001600160a01b0383166000908152600760209081526040909120835161131692850190612c48565b506001600160a01b0383166000908152600860209081526040909120825161134092840190612ca9565b50505050565b600480546001600160a01b0319166001600160a01b0392909216919091179055565b6000805b83518110156113b457826001600160a01b031684828151811061138b57fe5b60200260200101516001600160a01b031614156113ac5760019150506113ba565b60010161136c565b50600090505b92915050565b505050565b60055481565b60035460ff1681565b600760205281600052604060002081815481106113ed57fe5b6000918252602090912001546001600160a01b03169150829050565b6040518060600160405280602c815260200161303f602c9139805161143691600191602090910190612bca565b50604051806060016040528060338152602001612dfc60339139805161146491600291602090910190612bca565b506003805460ff19166001179055565b6004546001600160a01b031681565b610b2e82338360006114c4565b6113c083838360405180602001604052806000815250604051806080016040528060478152602001612e2f60479139611bce565b6114cc612ce3565b6000858152600660209081526040918290208251610100810184528154815260018201546001600160a01b03908116828501526002830154828601526003830154166060820152600482018054855181860281018601909652808652919492936080860193929083018282801561156c57602002820191906000526020600020905b81546001600160a01b0316815260019091019060200180831161154e575b50505050508152602001600582018054806020026020016040519081016040528092919081815260200182805480156115c457602002820191906000526020600020905b8154815260200190600101908083116115b0575b5050509183525050600682015460ff16151560208083019190915260078301805460408051601f600260001960018616156101000201909416939093049283018590048502810185018252828152940193928301828280156116675780601f1061163c57610100808354040283529160200191611667565b820191906000526020600020905b81548152906001019060200180831161164a57829003601f168201915b5050505050815250509050836001600160a01b031681606001516001600160a01b031614156116dd576040805162461bcd60e51b815260206004820152601760248201527f4e6f2073656c662d617070726f766520616c6c6f776564000000000000000000604482015290519081900360640190fd5b602081015160006116ee8287612659565b806117cc57506003546001600160a01b03838116600090815260086020526040908190208151634127f79f60e01b81528a84166024820152600481019283528154604482018190526201000090950490931693634127f79f9391928b9290918291606401908590801561178057602002820191906000526020600020905b81548152602001906001019080831161176c575b5050935050505060206040518083038186803b15801561179f57600080fd5b505afa1580156117b3573d6000803e3d6000fd5b505050506040513d60208110156117c957600080fd5b50515b90508061180a5760405162461bcd60e51b8152600401808060200182810382526033815260200180612f526033913960400191505060405180910390fd5b8260c0015115611861576040805162461bcd60e51b815260206004820152601f60248201527f54686973207265717565737420697320616c7265616479206465636964656400604482015290519081900360640190fd5b60005b8360a001515181101561192b57600454608085015180516001600160a01b03909216916392825c7991908490811061189857fe5b60200260200101518660a0015184815181106118b057fe5b60200260200101516040518363ffffffff1660e01b815260040180836001600160a01b03166001600160a01b0316815260200182815260200192505050600060405180830381600087803b15801561190757600080fd5b505af115801561191b573d6000803e3d6000fd5b5050600190920191506118649050565b50600160c0840152831561194e576119493083856040015188612721565b611bc5565b6060826001600160a01b03166306fdde036040518163ffffffff1660e01b815260040160006040518083038186803b15801561198957600080fd5b505afa15801561199d573d6000803e3d6000fd5b505050506040513d6000823e601f3d908101601f1916820160405260208110156119c657600080fd5b8101908080516040519392919084600160201b8211156119e557600080fd5b9083019060208201858111156119fa57600080fd5b8251600160201b811182820188101715611a1357600080fd5b82525081516020918201929091019080838360005b83811015611a40578181015183820152602001611a28565b50505050905090810190601f168015611a6d5780820380516001836020036101000a031916815260200191505b506040525050506040516020018080612ec16046913960460182805190602001908083835b60208310611ab15780518252601f199092019160209182019101611a92565b6001836020036101000a0380198251168184511680821785525050505050509050019150506040516020818303038152906040529050600086511115611bb35780866040516020018083805190602001908083835b60208310611b255780518252601f199092019160209182019101611b06565b51815160209384036101000a60001901801990921691161790526101d160f51b919093019081528451600290910192850191508083835b60208310611b7b5780518252601f199092019160209182019101611b5c565b6001836020036101000a0380198251168184511680821785525050505050509050019250505060405160208183030381529060405290505b611bc3308486604001518461280a565b505b50505050505050565b6000611bdc86868686612890565b90506060856001600160a01b03166306fdde036040518163ffffffff1660e01b815260040160006040518083038186803b158015611c1957600080fd5b505afa158015611c2d573d6000803e3d6000fd5b505050506040513d6000823e601f3d908101601f191682016040526020811015611c5657600080fd5b8101908080516040519392919084600160201b821115611c7557600080fd5b908301906020820185811115611c8a57600080fd5b8251600160201b811182820188101715611ca357600080fd5b82525081516020918201929091019080838360005b83811015611cd0578181015183820152602001611cb8565b50505050905090810190601f168015611cfd5780820380516001836020036101000a031916815260200191505b506040525050506040516020018080612dbd603f9139603f0182805190602001908083835b60208310611d415780518252601f199092019160209182019101611d22565b6001836020036101000a03801982511681845116808217855250505050505090500180612fba608591396040805160658184030181526001600160a01b038b1660009081526007602090815290839020805460a592810286018301909452608585018481529297506060965091945090920182828015611dea57602002820191906000526020600020905b81546001600160a01b03168152600190910190602001808311611dcc575b50939450600093505050505b815181101561212357886001600160a01b0316828281518110611e1557fe5b60200260200101516001600160a01b03161415611e635760405162461bcd60e51b8152600401808060200182810382526042815260200180612d7b6042913960600191505060405180910390fd5b60066000858152602001908152602001600020600401828281518110611e8557fe5b602090810291909101810151825460018101845560009384528284200180546001600160a01b0319166001600160a01b03928316179055868352600690915260408220600454855160059092019392169163a12e93dd918d9190879087908110611eeb57fe5b602002602001015188600660008c81526020019081526020016000206007018b6040518763ffffffff1660e01b815260040180876001600160a01b03166001600160a01b0316815260200180602001866001600160a01b03166001600160a01b031681526020018060200180602001858152602001848103845289818154600181600116156101000203166002900481526020019150805460018160011615610100020316600290048015611fe15780601f10611fb657610100808354040283529160200191611fe1565b820191906000526020600020905b815481529060010190602001808311611fc457829003601f168201915b5050848103835287518152875160209182019189019080838360005b83811015612015578181015183820152602001611ffd565b50505050905090810190601f1680156120425780820380516001836020036101000a031916815260200191505b508481038252865460026000196101006001841615020190911604808252602090910190879080156120b55780601f1061208a576101008083540402835291602001916120b5565b820191906000526020600020905b81548152906001019060200180831161209857829003601f168201915b50509950505050505050505050602060405180830381600087803b1580156120dc57600080fd5b505af11580156120f0573d6000803e3d6000fd5b505050506040513d602081101561210657600080fd5b505181546001818101845560009384526020909320015501611df6565b506001600160a01b03871660009081526008602090815260409182902080548351818402810184019094528084526060939283018282801561218457602002820191906000526020600020905b815481526020019060010190808311612170575b50939450600093505050505b8151811015612641576060600360029054906101000a90046001600160a01b03166001600160a01b03166336cc81308484815181106121cb57fe5b60200260200101516040518263ffffffff1660e01b81526004018082815260200191505060006040518083038186803b15801561220757600080fd5b505afa15801561221b573d6000803e3d6000fd5b505050506040513d6000823e601f3d908101601f19168201604052602081101561224457600080fd5b8101908080516040519392919084600160201b82111561226357600080fd5b90830190602082018581111561227857600080fd5b82518660208202830111600160201b8211171561229457600080fd5b82525081516020918201928201910280838360005b838110156122c15781810151838201526020016122a9565b50505050905001604052505050905060008090505b8151811015612637578b6001600160a01b03168282815181106122f557fe5b60200260200101516001600160a01b031614156123435760405162461bcd60e51b815260040180806020018281038252604b815260200180612f07604b913960600191505060405180910390fd5b6006600088815260200190815260200160002060040182828151811061236557fe5b602002602001015190806001815401808255809150509060018203906000526020600020016000909192909190916101000a8154816001600160a01b0302191690836001600160a01b031602179055505060066000888152602001908152602001600020600501600460009054906101000a90046001600160a01b03166001600160a01b031663a12e93dd8e60008686815181106123ff57fe5b60200260200101518b600660008f81526020019081526020016000206007018e6040518763ffffffff1660e01b815260040180876001600160a01b03166001600160a01b0316815260200180602001866001600160a01b03166001600160a01b0316815260200180602001806020018581526020018481038452898181546001816001161561010002031660029004815260200191508054600181600116156101000203166002900480156124f55780601f106124ca576101008083540402835291602001916124f5565b820191906000526020600020905b8154815290600101906020018083116124d857829003601f168201915b5050848103835287518152875160209182019189019080838360005b83811015612529578181015183820152602001612511565b50505050905090810190601f1680156125565780820380516001836020036101000a031916815260200191505b508481038252865460026000196101006001841615020190911604808252602090910190879080156125c95780601f1061259e576101008083540402835291602001916125c9565b820191906000526020600020905b8154815290600101906020018083116125ac57829003601f168201915b50509950505050505050505050602060405180830381600087803b1580156125f057600080fd5b505af1158015612604573d6000803e3d6000fd5b505050506040513d602081101561261a57600080fd5b5051815460018181018455600093845260209093200155016122d6565b5050600101612190565b5061264e30898988612999565b505050505050505050565b6001600160a01b038216600090815260076020908152604080832080548251818502810185019093528083526060938301828280156126c157602002820191906000526020600020905b81546001600160a01b031681526001909101906020018083116126a3575b50939450600093505050505b815181101561271657836001600160a01b03168282815181106126ec57fe5b60200260200101516001600160a01b0316141561270e576001925050506113ba565b6001016126cd565b506000949350505050565b61272b8383612ae0565b50826001600160a01b031663bdc656e98584846040518463ffffffff1660e01b815260040180846001600160a01b03166001600160a01b0316815260200183815260200180602001828103825283818151815260200191508051906020019080838360005b838110156127a8578181015183820152602001612790565b50505050905090810190601f1680156127d55780820380516001836020036101000a031916815260200191505b50945050505050600060405180830381600087803b1580156127f657600080fd5b505af1158015611bc3573d6000803e3d6000fd5b6128148383612ae0565b50826001600160a01b0316637c41e5d88584846040518463ffffffff1660e01b815260040180846001600160a01b03166001600160a01b031681526020018381526020018060200182810382528381815181526020019150805190602001908083836000838110156127a8578181015183820152602001612790565b600061289a612ce3565b6001600160a01b03808616602080840191825260408085018881528a851660608701908152600554808852600060c0890181905260e089018b905290815260068552929092208651815593516001850180549187166001600160a01b031992831617905590516002850155905160038401805491909516911617909255608083015180518493612931926004850192910190612c48565b5060a0820151805161294d916005840191602090910190612ca9565b5060c082015160068201805460ff191691151591909117905560e08201518051612981916007840191602090910190612bca565b50506005805460018101909155979650505050505050565b6040805162379c0960e91b81523060048201526024810184905290516001600160a01b03851691636f3812009160448083019260209291908290030181600087803b1580156129e757600080fd5b505af11580156129fb573d6000803e3d6000fd5b505050506040513d6020811015612a1157600080fd5b505115612a65576040805162461bcd60e51b815260206004820152601f60248201527f546869732070726f6f6620697320616c7265616479207375626d697474656400604482015290519081900360640190fd5b826001600160a01b03166359af61528584846040518463ffffffff1660e01b815260040180846001600160a01b03166001600160a01b031681526020018381526020018060200182810382528381815181526020019150805190602001908083836000838110156127a8578181015183820152602001612790565b6040805162379c0960e91b815230600482015260248101839052905160009182916001600160a01b03861691636f38120091604480830192602092919082900301818787803b158015612b3257600080fd5b505af1158015612b46573d6000803e3d6000fd5b505050506040513d6020811015612b5c57600080fd5b5051905060028114801590612b72575080600314155b612bc3576040805162461bcd60e51b815260206004820181905260248201527f5468697320766572696669657220697320616c72656164792064656369646564604482015290519081900360640190fd5b5092915050565b828054600181600116156101000203166002900490600052602060002090601f016020900481019282601f10612c0b57805160ff1916838001178555612c38565b82800160010185558215612c38579182015b82811115612c38578251825591602001919060010190612c1d565b50612c44929150612d3c565b5090565b828054828255906000526020600020908101928215612c9d579160200282015b82811115612c9d57825182546001600160a01b0319166001600160a01b03909116178255602090920191600190910190612c68565b50612c44929150612d56565b828054828255906000526020600020908101928215612c385791602002820182811115612c38578251825591602001919060010190612c1d565b6040518061010001604052806000815260200160006001600160a01b031681526020016000815260200160006001600160a01b031681526020016060815260200160608152602001600015158152602001606081525090565b610bef91905b80821115612c445760008155600101612d42565b610bef91905b80821115612c445780546001600160a01b0319168155600101612d5c56fe436c61696d6572206973206c697374656420617320696e646976696475616c20617070726f7665722c206e6f2073656c662d617070726f76616c20616c6c6f776564596f7520617265206f6e65206f6620746865206170706f696e74656420617070726f7665727320666f7220636c61696d73206f6e2074686520746f6b656e2073632e76657269666965722e617070726f76616c2d62792d75736572732d6f722d67726f7570732e6465736372697074696f6e546865206170706f696e74656420617070726f766572732068617665206265656e206e6f7469666965642061626f757420796f757220617070726f76616c20726571756573742e616464726573735b5d3a55736572733a61646472657373657320636f6d6d61207365706172617465642c75696e745b5d3a47726f7570733a49447320636f6d6d61207365706172617465644f6e65206f6620746865206170706f696e74656420617070726f76657273206861732072656a656374656420796f757220617070726f76616c207265717565737420666f7220436c61696d657220697320696e206174206c65617374206f6e65206f662074686520617070726f7665722067726f7570732c206e6f2073656c662d617070726f76616c20616c6c6f776564596f7520646f6e27742068617665207065726d697373696f6e20746f20646563696465206f6e207468697320726571756573744174206c65617374206f6e65206f662074686520617070726f7665722067726f75702049447320646f6573206e6f742065786973742e204f6e6365206f6e6520617070726f766572206769766573207468656972206465636973696f6e2c2074686973206d6573736167652067657473206d61726b6564206173207265616420666f7220616c6c206f746865727320616e6420746865792063616e2774206368616e676520746865206465636973696f6e20616e796d6f72652e73632e76657269666965722e617070726f76616c2d62792d75736572732d6f722d67726f7570732e6e616d65a265627a7a72315820dcb1e5c60e5b781c8f7723c44b4e7de081b52828ad9062c8dd7f41684977817064736f6c6343000511003273632e76657269666965722e617070726f76616c2d62792d75736572732d6f722d67726f7570732e6465736372697074696f6e73632e76657269666965722e617070726f76616c2d62792d75736572732d6f722d67726f7570732e6e616d65",
  "source": "pragma solidity ^0.5.17;\n\nimport \"contracts/verifiers/Fin4BaseVerifierType.sol\";\nimport \"contracts/Fin4Groups.sol\";\nimport \"contracts/Fin4Messaging.sol\";\n\ncontract ApprovalByUsersOrGroups is Fin4BaseVerifierType {\n\n    constructor() public {\n        init();\n    }\n\n    address public Fin4GroupsAddress;\n    address public Fin4MessagingAddress;\n    function setFin4GroupsAddress(address Fin4GroupsAddr) public { Fin4GroupsAddress = Fin4GroupsAddr; }\n    function setFin4MessagingAddress(address Fin4MessagingAddr) public { Fin4MessagingAddress = Fin4MessagingAddr; }\n\n    function init() public {\n        name = \"sc.verifier.approval-by-users-or-groups.name\";\n        description = \"sc.verifier.approval-by-users-or-groups.description\";\n        isAutoInitiable = true;\n    }\n\n    struct PendingRequest {\n        uint pendingRequestId;\n        address tokenAddrToReceiveVerifierNotice;\n        uint claimIdOnTokenToReceiveVerifierDecision;\n        address requester;\n\n        // This is the list of approvers at the time of sending out the request.\n        // Group memberships might change until a decision by the first-responder\n        // is made. This list is only to be able to mark all messages that were\n        // sent out as read once a decision is made.\n        address[] messageReceivers;\n        uint[] messageIds;\n\n        bool isDecided;\n\n        string attachment;\n        // uint linkedWithPendingRequestId;\n    }\n\n    uint public nextPendingRequestId = 0;\n    mapping (uint => PendingRequest) public pendingRequests; // just use an array? TODO\n\n    function addPendingRequest(address user, address tokenAddrToReceiveVerifierNotice, uint claimId, string memory attachment)\n        internal returns(uint) {\n        PendingRequest memory pa;\n        pa.tokenAddrToReceiveVerifierNotice = tokenAddrToReceiveVerifierNotice;\n        pa.claimIdOnTokenToReceiveVerifierDecision = claimId;\n        pa.requester = user;\n        pa.pendingRequestId = nextPendingRequestId;\n        pa.isDecided = false;\n        pa.attachment = attachment;\n        // Must move it to storage like this before pushing into arrays like this:\n        // pendingRequests[nextPendingRequestId].messageReceivers.push(...) below.\n        // This doesn't work: pa.messageReceivers.push(...), neither does this: pa.messageReceivers[count] = ...\n        pendingRequests[nextPendingRequestId] = pa;\n        nextPendingRequestId ++;\n        return nextPendingRequestId - 1;\n    }\n\n    // only called from autoSubmitProof() in here or from extending verifiers, not public\n    function submitProof(address user, address tokenAddrToReceiveVerifierNotice, uint claimId, string memory attachment,\n        string memory pendingNotice) internal {\n        uint pendingRequestId = addPendingRequest(user, tokenAddrToReceiveVerifierNotice, claimId, attachment);\n\n        // SEND REQUESTS\n        string memory message = string(abi.encodePacked(\n            \"You are one of the appointed approvers for claims on the token \", Fin4TokenStub(tokenAddrToReceiveVerifierNotice).name(),\n            \". Once one approver gives their decision, this message gets marked as read for all others and they can't change the decision anymore.\"));\n            // TODO split into two types of message explaining if you got this directly or via group membership (mention group by name)\n\n        // Individual approvers\n        address[] memory individualApprovers = tokenToIndividualApprovers[tokenAddrToReceiveVerifierNotice];\n        for (uint i = 0; i < individualApprovers.length; i ++) {\n            require(individualApprovers[i] != user, \"Claimer is listed as individual approver, no self-approval allowed\");\n            pendingRequests[pendingRequestId].messageReceivers.push(individualApprovers[i]);\n            pendingRequests[pendingRequestId].messageIds.push(Fin4Messaging(Fin4MessagingAddress)\n                .addPendingRequestMessage(user, contractName, individualApprovers[i], message, pendingRequests[pendingRequestId].attachment, pendingRequestId));\n        }\n\n        // Approver groups\n        uint[] memory approverGroupIds = tokenToApproverGroupIDs[tokenAddrToReceiveVerifierNotice];\n        for (uint i = 0; i < approverGroupIds.length; i ++) {\n            address[] memory groupMembers = Fin4Groups(Fin4GroupsAddress).getGroupMembers(approverGroupIds[i]);\n            for (uint j = 0; j < groupMembers.length; j ++) {\n                require(groupMembers[j] != user, \"Claimer is in at least one of the approver groups, no self-approval allowed\");\n                pendingRequests[pendingRequestId].messageReceivers.push(groupMembers[j]);\n                pendingRequests[pendingRequestId].messageIds.push(Fin4Messaging(Fin4MessagingAddress)\n                    .addPendingRequestMessage(user, contractName, groupMembers[j], message, pendingRequests[pendingRequestId].attachment, pendingRequestId));\n            }\n        }\n\n        // #ConceptualDecision TODO require(pendingRequests[pendingRequestId].messageReceivers.length > 0, \"\") ?\n        // or allow the case that no one gets notified about a new claim? Can happen when group owner removes all\n        // members from an approver group. New members could be added though and can then approve via command line.\n\n        _sendPendingNotice(address(this), tokenAddrToReceiveVerifierNotice, claimId, pendingNotice);\n    }\n\n    // @Override\n    function autoSubmitProof(address user, address tokenAddrToReceiveVerifierNotice, uint claimId) public {\n        submitProof(user, tokenAddrToReceiveVerifierNotice, claimId, \"\",\n            \"The appointed approvers have been notified about your approval request.\");\n    }\n\n    // @Override\n    function getParameterForTokenCreatorToSetEncoded() public pure returns(string memory) {\n        return \"address[]:Users:addresses comma separated,uint[]:Groups:IDs comma separated\";\n    }\n\n    mapping (address => address[]) public tokenToIndividualApprovers;\n    mapping (address => uint[]) public tokenToApproverGroupIDs;\n\n    function setParameters(address token, address[] memory individualApprovers, uint[] memory approverGroupIDs) public {\n        for (uint i = 0; i < approverGroupIDs.length; i ++) {\n            require(Fin4Groups(Fin4GroupsAddress).groupExists(approverGroupIDs[i]), \"At least one of the approver group IDs does not exist\");\n        }\n        tokenToIndividualApprovers[token] = individualApprovers;\n        tokenToApproverGroupIDs[token] = approverGroupIDs;\n    }\n\n    function receiveApproval(uint pendingRequestId, string memory attachedMessage) public {\n        receiveDecision(pendingRequestId, msg.sender, attachedMessage, true);\n    }\n\n    function receiveRejection(uint pendingRequestId, string memory attachedMessage) public {\n        receiveDecision(pendingRequestId, msg.sender, attachedMessage, false);\n    }\n\n    function receiveDecision(uint pendingRequestId, address voter, string memory attachedMessage, bool approved) internal {\n        PendingRequest memory pa = pendingRequests[pendingRequestId];\n        // only possible if the claimer got added to an approver group after he made the claim\n        // e.g. he could be group owner and added himself\n        require(pa.requester != voter, \"No self-approve allowed\");\n        address token = pa.tokenAddrToReceiveVerifierNotice;\n        bool userHasPermission = isIndividualApprover(token, voter) ||\n            Fin4Groups(Fin4GroupsAddress).userIsInOneOfTheseGroups(tokenToApproverGroupIDs[token], voter);\n        require(userHasPermission, \"You don't have permission to decide on this request\");\n        require(!pa.isDecided, \"This request is already decided\");\n\n        for (uint i = 0; i < pa.messageIds.length; i ++) {\n            Fin4Messaging(Fin4MessagingAddress).markMessageAsActedUpon(pa.messageReceivers[i], pa.messageIds[i]);\n        }\n\n        pa.isDecided = true;\n\n        if (approved) {\n            _sendApprovalNotice(address(this), token, pa.claimIdOnTokenToReceiveVerifierDecision, attachedMessage);\n        } else {\n            string memory message = string(abi.encodePacked(\n                \"One of the appointed approvers has rejected your approval request for \",\n                Fin4TokenStub(token).name()));\n            if (bytes(attachedMessage).length > 0) {\n                message = string(abi.encodePacked(message, ': ', attachedMessage));\n            }\n            _sendRejectionNotice(address(this), token, pa.claimIdOnTokenToReceiveVerifierDecision, message);\n        }\n    }\n\n    function isIndividualApprover(address token, address user) internal view returns(bool) {\n        address[] memory individualApprovers = tokenToIndividualApprovers[token];\n        for (uint i = 0; i < individualApprovers.length; i ++) {\n            if (individualApprovers[i] == user) {\n                return true;\n            }\n        }\n        return false;\n    }\n}\n",
  "sourcePath": "/home/cantonioupao/susDAO-saveMe/FIN4Contracts/contracts/verifiers/onchain/social/ApprovalByUsersOrGroups.sol",
  "compiler": {
    "name": "solc",
    "version": "0.5.17+commit.d19bba13.Emscripten.clang"
  },
  "schemaVersion": "3.3.1",
  "updatedAt": "2020-12-03T18:31:10.046Z",
  "devdoc": {
    "methods": {}
  },
  "userdoc": {
    "methods": {}
  }
}