{
  "contractName": "Blocker",
  "abi": [
    {
      "inputs": [],
      "payable": false,
      "stateMutability": "nonpayable",
      "type": "constructor"
    },
    {
      "constant": true,
      "inputs": [
        {
          "internalType": "address",
          "name": "_addr",
          "type": "address"
        }
      ],
      "name": "addressToString",
      "outputs": [
        {
          "internalType": "string",
          "name": "",
          "type": "string"
        }
      ],
      "payable": false,
      "stateMutability": "pure",
      "type": "function"
    },
    {
      "constant": true,
      "inputs": [
        {
          "internalType": "address[]",
          "name": "arr",
          "type": "address[]"
        },
        {
          "internalType": "address",
          "name": "addrToCheck",
          "type": "address"
        }
      ],
      "name": "arrayContainsAddress",
      "outputs": [
        {
          "internalType": "bool",
          "name": "",
          "type": "bool"
        }
      ],
      "payable": false,
      "stateMutability": "pure",
      "type": "function"
    },
    {
      "constant": false,
      "inputs": [
        {
          "internalType": "address",
          "name": "user",
          "type": "address"
        },
        {
          "internalType": "address",
          "name": "tokenAddrToReceiveVerifierNotice",
          "type": "address"
        },
        {
          "internalType": "uint256",
          "name": "claimId",
          "type": "uint256"
        }
      ],
      "name": "autoSubmitProof",
      "outputs": [],
      "payable": false,
      "stateMutability": "nonpayable",
      "type": "function"
    },
    {
      "constant": true,
      "inputs": [],
      "name": "contractName",
      "outputs": [
        {
          "internalType": "string",
          "name": "",
          "type": "string"
        }
      ],
      "payable": false,
      "stateMutability": "view",
      "type": "function"
    },
    {
      "constant": true,
      "inputs": [],
      "name": "description",
      "outputs": [
        {
          "internalType": "string",
          "name": "",
          "type": "string"
        }
      ],
      "payable": false,
      "stateMutability": "view",
      "type": "function"
    },
    {
      "constant": true,
      "inputs": [
        {
          "internalType": "address",
          "name": "tokenAddress",
          "type": "address"
        }
      ],
      "name": "getCreatorOfToken",
      "outputs": [
        {
          "internalType": "address",
          "name": "",
          "type": "address"
        }
      ],
      "payable": false,
      "stateMutability": "view",
      "type": "function"
    },
    {
      "constant": true,
      "inputs": [],
      "name": "getDescription",
      "outputs": [
        {
          "internalType": "string",
          "name": "",
          "type": "string"
        }
      ],
      "payable": false,
      "stateMutability": "view",
      "type": "function"
    },
    {
      "constant": true,
      "inputs": [],
      "name": "getInfo",
      "outputs": [
        {
          "internalType": "string",
          "name": "",
          "type": "string"
        },
        {
          "internalType": "string",
          "name": "",
          "type": "string"
        },
        {
          "internalType": "string",
          "name": "",
          "type": "string"
        },
        {
          "internalType": "string",
          "name": "",
          "type": "string"
        }
      ],
      "payable": false,
      "stateMutability": "view",
      "type": "function"
    },
    {
      "constant": true,
      "inputs": [],
      "name": "getName",
      "outputs": [
        {
          "internalType": "string",
          "name": "",
          "type": "string"
        }
      ],
      "payable": false,
      "stateMutability": "view",
      "type": "function"
    },
    {
      "constant": true,
      "inputs": [],
      "name": "getParameterForTokenCreatorToSetEncoded",
      "outputs": [
        {
          "internalType": "string",
          "name": "",
          "type": "string"
        }
      ],
      "payable": false,
      "stateMutability": "pure",
      "type": "function"
    },
    {
      "constant": true,
      "inputs": [],
      "name": "isAutoCheckable",
      "outputs": [
        {
          "internalType": "bool",
          "name": "",
          "type": "bool"
        }
      ],
      "payable": false,
      "stateMutability": "view",
      "type": "function"
    },
    {
      "constant": true,
      "inputs": [],
      "name": "isAutoInitiable",
      "outputs": [
        {
          "internalType": "bool",
          "name": "",
          "type": "bool"
        }
      ],
      "payable": false,
      "stateMutability": "view",
      "type": "function"
    },
    {
      "constant": true,
      "inputs": [],
      "name": "name",
      "outputs": [
        {
          "internalType": "string",
          "name": "",
          "type": "string"
        }
      ],
      "payable": false,
      "stateMutability": "view",
      "type": "function"
    },
    {
      "constant": false,
      "inputs": [
        {
          "internalType": "string",
          "name": "_contractName",
          "type": "string"
        }
      ],
      "name": "setContractName",
      "outputs": [],
      "payable": false,
      "stateMutability": "nonpayable",
      "type": "function"
    },
    {
      "constant": false,
      "inputs": [
        {
          "internalType": "address",
          "name": "user",
          "type": "address"
        },
        {
          "internalType": "address",
          "name": "tokenAddress",
          "type": "address"
        },
        {
          "internalType": "uint256",
          "name": "claimId",
          "type": "uint256"
        }
      ],
      "name": "autoCheck",
      "outputs": [],
      "payable": false,
      "stateMutability": "nonpayable",
      "type": "function"
    }
  ],
  "bytecode": "0x60806040526003805461ffff191690553480156200001c57600080fd5b506040805180820190915260188082527f73632e76657269666965722e626c6f636b65722e6e616d65000000000000000060209092019182526200006391600191620000c0565b5060408051808201909152601f8082527f73632e76657269666965722e626c6f636b65722e6465736372697074696f6e006020909201918252620000aa91600291620000c0565b506003805461ff00191661010017905562000165565b828054600181600116156101000203166002900490600052602060002090601f016020900481019282601f106200010357805160ff191683800117855562000133565b8280016001018555821562000133579182015b828111156200013357825182559160200191906001019062000116565b506200014192915062000145565b5090565b6200016291905b808211156200014157600081556001016200014c565b90565b6110c680620001756000396000f3fe608060405234801561001057600080fd5b50600436106100f55760003560e01c80635e57966d116100975780639259360c116100665780639259360c1461047d578063ae18e0a51461052b578063c05ebcc514610561578063ffc5daef14610569576100f5565b80635e57966d1461043f5780636c71d542146104655780637284e4161461046d57806375d0c0dc14610475576100f5565b80631a092541116100d35780631a09254114610227578063367909321461022f5780634d1a1d5d146102715780635a9b0b891461028d576100f5565b806306fdde03146100fa5780630b5ee0061461017757806317d7de7c1461021f575b600080fd5b61010261059f565b6040805160208082528351818301528351919283929083019185019080838360005b8381101561013c578181015183820152602001610124565b50505050905090810190601f1680156101695780820380516001836020036101000a031916815260200191505b509250505060405180910390f35b61021d6004803603602081101561018d57600080fd5b8101906020810181356401000000008111156101a857600080fd5b8201836020820111156101ba57600080fd5b803590602001918460018302840111640100000000831117156101dc57600080fd5b91908080601f01602080910402602001604051908101604052809392919081815260200183838082843760009201919091525092955061062c945050505050565b005b610102610643565b6101026106d9565b6102556004803603602081101561024557600080fd5b50356001600160a01b0316610737565b604080516001600160a01b039092168252519081900360200190f35b6102796107a4565b604080519115158252519081900360200190f35b6102956107b2565b6040518080602001806020018060200180602001858103855289818151815260200191508051906020019080838360005b838110156102de5781810151838201526020016102c6565b50505050905090810190601f16801561030b5780820380516001836020036101000a031916815260200191505b5085810384528851815288516020918201918a019080838360005b8381101561033e578181015183820152602001610326565b50505050905090810190601f16801561036b5780820380516001836020036101000a031916815260200191505b50858103835287518152875160209182019189019080838360005b8381101561039e578181015183820152602001610386565b50505050905090810190601f1680156103cb5780820380516001836020036101000a031916815260200191505b50858103825286518152865160209182019188019080838360005b838110156103fe5781810151838201526020016103e6565b50505050905090810190601f16801561042b5780820380516001836020036101000a031916815260200191505b509850505050505050505060405180910390f35b6101026004803603602081101561045557600080fd5b50356001600160a01b031661097d565b610102610af9565b610102610b0b565b610102610b63565b6102796004803603604081101561049357600080fd5b8101906020810181356401000000008111156104ae57600080fd5b8201836020820111156104c057600080fd5b803590602001918460208302840111640100000000831117156104e257600080fd5b919080806020026020016040519081016040528093929190818152602001838360200280828437600092019190915250929550505090356001600160a01b03169150610bbe9050565b61021d6004803603606081101561054157600080fd5b506001600160a01b03813581169160208101359091169060400135610c16565b610279610de3565b61021d6004803603606081101561057f57600080fd5b506001600160a01b03813581169160208101359091169060400135610dec565b60018054604080516020600284861615610100026000190190941693909304601f810184900484028201840190925281815292918301828280156106245780601f106105f957610100808354040283529160200191610624565b820191906000526020600020905b81548152906001019060200180831161060757829003601f168201915b505050505081565b805161063f906000906020840190610fce565b5050565b60018054604080516020601f600260001961010087891615020190951694909404938401819004810282018101909252828152606093909290918301828280156106ce5780601f106106a3576101008083540402835291602001916106ce565b820191906000526020600020905b8154815290600101906020018083116106b157829003601f168201915b505050505090505b90565b60028054604080516020601f60001961010060018716150201909416859004938401819004810282018101909252828152606093909290918301828280156106ce5780601f106106a3576101008083540402835291602001916106ce565b6000816001600160a01b0316639c6790176040518163ffffffff1660e01b815260040160206040518083038186803b15801561077257600080fd5b505afa158015610786573d6000803e3d6000fd5b505050506040513d602081101561079c57600080fd5b505192915050565b600354610100900460ff1681565b6060806060806000600160026107c6610af9565b8354604080516020601f6002600019610100600188161502019095169490940493840181900481028201810190925282815291869183018282801561084c5780601f106108215761010080835404028352916020019161084c565b820191906000526020600020905b81548152906001019060200180831161082f57829003601f168201915b5050865460408051602060026001851615610100026000190190941693909304601f8101849004840282018401909252818152959950889450925084019050828280156108da5780601f106108af576101008083540402835291602001916108da565b820191906000526020600020905b8154815290600101906020018083116108bd57829003601f168201915b5050855460408051602060026001851615610100026000190190941693909304601f8101849004840282018401909252818152959850879450925084019050828280156109685780601f1061093d57610100808354040283529160200191610968565b820191906000526020600020905b81548152906001019060200180831161094b57829003601f168201915b50505050509150935093509350935090919293565b604080518082018252601081526f181899199a1a9b1b9c1cb0b131b232b360811b60208201528151602a80825260608281019094526001600160a01b03851692918491602082018180388339019050509050600360fc1b816000815181106109e157fe5b60200101906001600160f81b031916908160001a905350600f60fb1b81600181518110610a0a57fe5b60200101906001600160f81b031916908160001a90535060005b6014811015610af0578260048583600c0160208110610a3f57fe5b1a60f81b6001600160f81b031916901c60f81c60ff1681518110610a5f57fe5b602001015160f81c60f81b828260020260020181518110610a7c57fe5b60200101906001600160f81b031916908160001a905350828482600c0160208110610aa357fe5b825191901a600f16908110610ab457fe5b602001015160f81c60f81b828260020260030181518110610ad157fe5b60200101906001600160f81b031916908160001a905350600101610a24565b50949350505050565b60408051602081019091526000815290565b6002805460408051602060018416156101000260001901909316849004601f810184900484028201840190925281815292918301828280156106245780601f106105f957610100808354040283529160200191610624565b6000805460408051602060026001851615610100026000190190941693909304601f810184900484028201840190925281815292918301828280156106245780601f106105f957610100808354040283529160200191610624565b6000805b8351811015610c0a57826001600160a01b0316848281518110610be157fe5b60200260200101516001600160a01b03161415610c02576001915050610c10565b600101610bc2565b50600090505b92915050565b6060826001600160a01b03166306fdde036040518163ffffffff1660e01b815260040160006040518083038186803b158015610c5157600080fd5b505afa158015610c65573d6000803e3d6000fd5b505050506040513d6000823e601f3d908101601f191682016040526020811015610c8e57600080fd5b8101908080516040519392919084640100000000821115610cae57600080fd5b908301906020820185811115610cc357600080fd5b8251640100000000811182820188101715610cdd57600080fd5b82525081516020918201929091019080838360005b83811015610d0a578181015183820152602001610cf2565b50505050905090810190601f168015610d375780820380516001836020036101000a031916815260200191505b50604052505050604051602001808074596f757220636c61696d206f6e20746f6b656e202760581b81525060150182805190602001908083835b60208310610d905780518252601f199092019160209182019101610d71565b6001836020036101000a03801982511681845116808217855250505050505090500180611067602b9139602b019150506040516020818303038152906040529050610ddd30848484610df1565b50505050565b60035460ff1681565b505050565b610dfb8383610ee4565b50826001600160a01b0316637c41e5d88584846040518463ffffffff1660e01b815260040180846001600160a01b03166001600160a01b0316815260200183815260200180602001828103825283818151815260200191508051906020019080838360005b83811015610e78578181015183820152602001610e60565b50505050905090810190601f168015610ea55780820380516001836020036101000a031916815260200191505b50945050505050600060405180830381600087803b158015610ec657600080fd5b505af1158015610eda573d6000803e3d6000fd5b5050505050505050565b6040805162379c0960e91b815230600482015260248101839052905160009182916001600160a01b03861691636f38120091604480830192602092919082900301818787803b158015610f3657600080fd5b505af1158015610f4a573d6000803e3d6000fd5b505050506040513d6020811015610f6057600080fd5b5051905060028114801590610f76575080600314155b610fc7576040805162461bcd60e51b815260206004820181905260248201527f5468697320766572696669657220697320616c72656164792064656369646564604482015290519081900360640190fd5b5092915050565b828054600181600116156101000203166002900490600052602060002090601f016020900481019282601f1061100f57805160ff191683800117855561103c565b8280016001018555821561103c579182015b8281111561103c578251825591602001919060010190611021565b5061104892915061104c565b5090565b6106d691905b80821115611048576000815560010161105256fe2720676f742072656a65637465642066726f6d207468652076657269666965722027426c6f636b6572272ea265627a7a72315820d3f1fe1583394aa4217466f189a60b8e6d64d6758b2de11ca1e1aff436e6296b64736f6c63430005110032",
  "source": "pragma solidity ^0.5.17;\n\nimport \"contracts/verifiers/Fin4BaseVerifierType.sol\";\n\ncontract Blocker is Fin4BaseVerifierType {\n\n    constructor() public  {\n        name = \"sc.verifier.blocker.name\";\n        description = \"sc.verifier.blocker.description\";\n        isAutoCheckable = true;\n    }\n\n    // @Override\n    function autoCheck(address user, address tokenAddress, uint claimId) public {\n        string memory message = string(abi.encodePacked(\n            \"Your claim on token \\'\",\n            Fin4TokenStub(tokenAddress).name(),\n            \"\\' got rejected from the verifier \\'Blocker\\'.\"));\n        _sendRejectionNotice(address(this), tokenAddress, claimId, message);\n    }\n\n}\n",
  "sourcePath": "/home/cantonioupao/susDAO-saveMe/FIN4Contracts/contracts/verifiers/onchain/noninteractive/Blocker.sol",
  "compiler": {
    "name": "solc",
    "version": "0.5.17+commit.d19bba13.Emscripten.clang"
  },
  "schemaVersion": "3.3.1",
  "updatedAt": "2020-12-03T18:27:59.008Z",
  "devdoc": {
    "methods": {}
  },
  "userdoc": {
    "methods": {}
  }
}