{
  "contractName": "ERC20Plus",
  "abi": [
    {
      "inputs": [
        {
          "internalType": "string",
          "name": "name_",
          "type": "string"
        },
        {
          "internalType": "string",
          "name": "symbol_",
          "type": "string"
        },
        {
          "internalType": "uint8",
          "name": "decimals_",
          "type": "uint8"
        },
        {
          "internalType": "address",
          "name": "minter",
          "type": "address"
        },
        {
          "internalType": "bool",
          "name": "isBurnable_",
          "type": "bool"
        },
        {
          "internalType": "bool",
          "name": "isTransferable_",
          "type": "bool"
        },
        {
          "internalType": "bool",
          "name": "isMintable_",
          "type": "bool"
        },
        {
          "internalType": "uint256",
          "name": "initialSupply",
          "type": "uint256"
        },
        {
          "internalType": "address",
          "name": "initialSupplyOwner",
          "type": "address"
        }
      ],
      "payable": false,
      "stateMutability": "nonpayable",
      "type": "constructor"
    },
    {
      "anonymous": false,
      "inputs": [
        {
          "indexed": true,
          "internalType": "address",
          "name": "owner",
          "type": "address"
        },
        {
          "indexed": true,
          "internalType": "address",
          "name": "spender",
          "type": "address"
        },
        {
          "indexed": false,
          "internalType": "uint256",
          "name": "value",
          "type": "uint256"
        }
      ],
      "name": "Approval",
      "type": "event"
    },
    {
      "anonymous": false,
      "inputs": [
        {
          "indexed": true,
          "internalType": "address",
          "name": "account",
          "type": "address"
        }
      ],
      "name": "MinterAdded",
      "type": "event"
    },
    {
      "anonymous": false,
      "inputs": [
        {
          "indexed": true,
          "internalType": "address",
          "name": "account",
          "type": "address"
        }
      ],
      "name": "MinterRemoved",
      "type": "event"
    },
    {
      "anonymous": false,
      "inputs": [
        {
          "indexed": false,
          "internalType": "address",
          "name": "account",
          "type": "address"
        }
      ],
      "name": "Paused",
      "type": "event"
    },
    {
      "anonymous": false,
      "inputs": [
        {
          "indexed": true,
          "internalType": "address",
          "name": "account",
          "type": "address"
        }
      ],
      "name": "PauserAdded",
      "type": "event"
    },
    {
      "anonymous": false,
      "inputs": [
        {
          "indexed": true,
          "internalType": "address",
          "name": "account",
          "type": "address"
        }
      ],
      "name": "PauserRemoved",
      "type": "event"
    },
    {
      "anonymous": false,
      "inputs": [
        {
          "indexed": true,
          "internalType": "address",
          "name": "from",
          "type": "address"
        },
        {
          "indexed": true,
          "internalType": "address",
          "name": "to",
          "type": "address"
        },
        {
          "indexed": false,
          "internalType": "uint256",
          "name": "value",
          "type": "uint256"
        }
      ],
      "name": "Transfer",
      "type": "event"
    },
    {
      "anonymous": false,
      "inputs": [
        {
          "indexed": false,
          "internalType": "address",
          "name": "account",
          "type": "address"
        }
      ],
      "name": "Unpaused",
      "type": "event"
    },
    {
      "constant": false,
      "inputs": [
        {
          "internalType": "address",
          "name": "account",
          "type": "address"
        }
      ],
      "name": "addMinter",
      "outputs": [],
      "payable": false,
      "stateMutability": "nonpayable",
      "type": "function"
    },
    {
      "constant": false,
      "inputs": [
        {
          "internalType": "address",
          "name": "account",
          "type": "address"
        }
      ],
      "name": "addPauser",
      "outputs": [],
      "payable": false,
      "stateMutability": "nonpayable",
      "type": "function"
    },
    {
      "constant": true,
      "inputs": [
        {
          "internalType": "address",
          "name": "owner",
          "type": "address"
        },
        {
          "internalType": "address",
          "name": "spender",
          "type": "address"
        }
      ],
      "name": "allowance",
      "outputs": [
        {
          "internalType": "uint256",
          "name": "",
          "type": "uint256"
        }
      ],
      "payable": false,
      "stateMutability": "view",
      "type": "function"
    },
    {
      "constant": false,
      "inputs": [
        {
          "internalType": "address",
          "name": "spender",
          "type": "address"
        },
        {
          "internalType": "uint256",
          "name": "value",
          "type": "uint256"
        }
      ],
      "name": "approve",
      "outputs": [
        {
          "internalType": "bool",
          "name": "",
          "type": "bool"
        }
      ],
      "payable": false,
      "stateMutability": "nonpayable",
      "type": "function"
    },
    {
      "constant": true,
      "inputs": [
        {
          "internalType": "address",
          "name": "account",
          "type": "address"
        }
      ],
      "name": "balanceOf",
      "outputs": [
        {
          "internalType": "uint256",
          "name": "",
          "type": "uint256"
        }
      ],
      "payable": false,
      "stateMutability": "view",
      "type": "function"
    },
    {
      "constant": true,
      "inputs": [],
      "name": "decimals",
      "outputs": [
        {
          "internalType": "uint8",
          "name": "",
          "type": "uint8"
        }
      ],
      "payable": false,
      "stateMutability": "view",
      "type": "function"
    },
    {
      "constant": false,
      "inputs": [
        {
          "internalType": "address",
          "name": "spender",
          "type": "address"
        },
        {
          "internalType": "uint256",
          "name": "subtractedValue",
          "type": "uint256"
        }
      ],
      "name": "decreaseAllowance",
      "outputs": [
        {
          "internalType": "bool",
          "name": "",
          "type": "bool"
        }
      ],
      "payable": false,
      "stateMutability": "nonpayable",
      "type": "function"
    },
    {
      "constant": false,
      "inputs": [
        {
          "internalType": "address",
          "name": "spender",
          "type": "address"
        },
        {
          "internalType": "uint256",
          "name": "addedValue",
          "type": "uint256"
        }
      ],
      "name": "increaseAllowance",
      "outputs": [
        {
          "internalType": "bool",
          "name": "",
          "type": "bool"
        }
      ],
      "payable": false,
      "stateMutability": "nonpayable",
      "type": "function"
    },
    {
      "constant": true,
      "inputs": [],
      "name": "isBurnable",
      "outputs": [
        {
          "internalType": "bool",
          "name": "",
          "type": "bool"
        }
      ],
      "payable": false,
      "stateMutability": "view",
      "type": "function"
    },
    {
      "constant": true,
      "inputs": [],
      "name": "isMintable",
      "outputs": [
        {
          "internalType": "bool",
          "name": "",
          "type": "bool"
        }
      ],
      "payable": false,
      "stateMutability": "view",
      "type": "function"
    },
    {
      "constant": true,
      "inputs": [
        {
          "internalType": "address",
          "name": "account",
          "type": "address"
        }
      ],
      "name": "isMinter",
      "outputs": [
        {
          "internalType": "bool",
          "name": "",
          "type": "bool"
        }
      ],
      "payable": false,
      "stateMutability": "view",
      "type": "function"
    },
    {
      "constant": true,
      "inputs": [
        {
          "internalType": "address",
          "name": "account",
          "type": "address"
        }
      ],
      "name": "isPauser",
      "outputs": [
        {
          "internalType": "bool",
          "name": "",
          "type": "bool"
        }
      ],
      "payable": false,
      "stateMutability": "view",
      "type": "function"
    },
    {
      "constant": true,
      "inputs": [],
      "name": "isTransferable",
      "outputs": [
        {
          "internalType": "bool",
          "name": "",
          "type": "bool"
        }
      ],
      "payable": false,
      "stateMutability": "view",
      "type": "function"
    },
    {
      "constant": true,
      "inputs": [],
      "name": "name",
      "outputs": [
        {
          "internalType": "string",
          "name": "",
          "type": "string"
        }
      ],
      "payable": false,
      "stateMutability": "view",
      "type": "function"
    },
    {
      "constant": true,
      "inputs": [],
      "name": "paused",
      "outputs": [
        {
          "internalType": "bool",
          "name": "",
          "type": "bool"
        }
      ],
      "payable": false,
      "stateMutability": "view",
      "type": "function"
    },
    {
      "constant": false,
      "inputs": [],
      "name": "renounceMinter",
      "outputs": [],
      "payable": false,
      "stateMutability": "nonpayable",
      "type": "function"
    },
    {
      "constant": false,
      "inputs": [],
      "name": "renouncePauser",
      "outputs": [],
      "payable": false,
      "stateMutability": "nonpayable",
      "type": "function"
    },
    {
      "constant": true,
      "inputs": [],
      "name": "symbol",
      "outputs": [
        {
          "internalType": "string",
          "name": "",
          "type": "string"
        }
      ],
      "payable": false,
      "stateMutability": "view",
      "type": "function"
    },
    {
      "constant": true,
      "inputs": [],
      "name": "totalSupply",
      "outputs": [
        {
          "internalType": "uint256",
          "name": "",
          "type": "uint256"
        }
      ],
      "payable": false,
      "stateMutability": "view",
      "type": "function"
    },
    {
      "constant": false,
      "inputs": [
        {
          "internalType": "address",
          "name": "to",
          "type": "address"
        },
        {
          "internalType": "uint256",
          "name": "value",
          "type": "uint256"
        }
      ],
      "name": "transfer",
      "outputs": [
        {
          "internalType": "bool",
          "name": "",
          "type": "bool"
        }
      ],
      "payable": false,
      "stateMutability": "nonpayable",
      "type": "function"
    },
    {
      "constant": false,
      "inputs": [
        {
          "internalType": "address",
          "name": "from",
          "type": "address"
        },
        {
          "internalType": "address",
          "name": "to",
          "type": "address"
        },
        {
          "internalType": "uint256",
          "name": "value",
          "type": "uint256"
        }
      ],
      "name": "transferFrom",
      "outputs": [
        {
          "internalType": "bool",
          "name": "",
          "type": "bool"
        }
      ],
      "payable": false,
      "stateMutability": "nonpayable",
      "type": "function"
    },
    {
      "constant": false,
      "inputs": [
        {
          "internalType": "uint256",
          "name": "value",
          "type": "uint256"
        }
      ],
      "name": "burn",
      "outputs": [],
      "payable": false,
      "stateMutability": "nonpayable",
      "type": "function"
    },
    {
      "constant": false,
      "inputs": [
        {
          "internalType": "address",
          "name": "from",
          "type": "address"
        },
        {
          "internalType": "uint256",
          "name": "value",
          "type": "uint256"
        }
      ],
      "name": "burnFrom",
      "outputs": [],
      "payable": false,
      "stateMutability": "nonpayable",
      "type": "function"
    },
    {
      "constant": false,
      "inputs": [
        {
          "internalType": "address",
          "name": "to",
          "type": "address"
        },
        {
          "internalType": "uint256",
          "name": "value",
          "type": "uint256"
        }
      ],
      "name": "mint",
      "outputs": [
        {
          "internalType": "bool",
          "name": "",
          "type": "bool"
        }
      ],
      "payable": false,
      "stateMutability": "nonpayable",
      "type": "function"
    },
    {
      "constant": false,
      "inputs": [],
      "name": "pause",
      "outputs": [],
      "payable": false,
      "stateMutability": "nonpayable",
      "type": "function"
    },
    {
      "constant": false,
      "inputs": [],
      "name": "unpause",
      "outputs": [],
      "payable": false,
      "stateMutability": "nonpayable",
      "type": "function"
    }
  ],
  "bytecode": "0x60806040526008805460ff60201b19166401000000001790553480156200002557600080fd5b506040516200214c3803806200214c83398181016040526101208110156200004c57600080fd5b81019080805160405193929190846401000000008211156200006d57600080fd5b9083019060208201858111156200008357600080fd5b82516401000000008111828201881017156200009e57600080fd5b82525081516020918201929091019080838360005b83811015620000cd578181015183820152602001620000b3565b50505050905090810190601f168015620000fb5780820380516001836020036101000a031916815260200191505b50604052602001805160405193929190846401000000008211156200011f57600080fd5b9083019060208201858111156200013557600080fd5b82516401000000008111828201881017156200015057600080fd5b82525081516020918201929091019080838360005b838110156200017f57818101518382015260200162000165565b50505050905090810190601f168015620001ad5780820380516001836020036101000a031916815260200191505b506040908152602082810151918301516060840151608085015160a086015160c087015160e0909701518b519699509397509195909491939092918a918a918a91620001ff91600091860190620007d4565b50815162000215906001906020850190620007d4565b506002805460ff191660ff92909216919091179055506200024a90506200023b6200033c565b6001600160e01b036200034116565b62000270620002616001600160e01b036200033c16565b6001600160e01b036200039316565b6008805461ffff1916610100871515021762ff0000191662010000861515021763ff000000191663010000008515150217905583620002bc57620002bc6001600160e01b03620003e516565b6001600160a01b03861615620002e057620002e0866001600160e01b036200034116565b6001600160a01b0381166200030a576200030433836001600160e01b036200044716565b6200031f565b6200031f81836001600160e01b036200044716565b50506008805460ff60201b19169055506200087695505050505050565b335b90565b6200035c8160066200054c60201b6200151f1790919060201c565b6040516001600160a01b038216907f6ae172837ea30b801fbfcdd4108aa1d5bf8ff775444fd70256b44e6bf3dfc3f690600090a250565b620003ae8160076200054c60201b6200151f1790919060201c565b6040516001600160a01b038216907f6719d08c1888103bea251a4ed56406bd0c3e69723c8a1686e017e7bbe159b6f890600090a250565b600854640100000000900460ff16620004305760405162461bcd60e51b8152600401808060200182810382526029815260200180620021236029913960400191505060405180910390fd5b62000445620005d960201b62000d451760201c565b565b6001600160a01b038216620004a3576040805162461bcd60e51b815260206004820152601f60248201527f45524332303a206d696e7420746f20746865207a65726f206164647265737300604482015290519081900360640190fd5b620004bf81600554620006e660201b6200121c1790919060201c565b6005556001600160a01b038216600090815260036020908152604090912054620004f49183906200121c620006e6821b17901c565b6001600160a01b03831660008181526003602090815260408083209490945583518581529351929391927fddf252ad1be2c89b69c2b068fc378daa952ba7f163c4a11628f55a4df523b3ef9281900390910190a35050565b6200056182826001600160e01b036200074816565b15620005b4576040805162461bcd60e51b815260206004820152601f60248201527f526f6c65733a206163636f756e7420616c72656164792068617320726f6c6500604482015290519081900360640190fd5b6001600160a01b0316600090815260209190915260409020805460ff19166001179055565b620005ff620005f06001600160e01b036200033c16565b6001600160e01b03620007b116565b6200063c5760405162461bcd60e51b8152600401808060200182810382526030815260200180620020d16030913960400191505060405180910390fd5b60085460ff161562000688576040805162461bcd60e51b815260206004820152601060248201526f14185d5cd8589b194e881c185d5cd95960821b604482015290519081900360640190fd5b6008805460ff191660011790557f62e78cea01bee320cd4e420270b5ea74000d11b0c9f74754ebdbfc544b05a258620006c96001600160e01b036200033c16565b604080516001600160a01b039092168252519081900360200190a1565b60008282018381101562000741576040805162461bcd60e51b815260206004820152601b60248201527f536166654d6174683a206164646974696f6e206f766572666c6f770000000000604482015290519081900360640190fd5b9392505050565b60006001600160a01b038216620007915760405162461bcd60e51b8152600401808060200182810382526022815260200180620021016022913960400191505060405180910390fd5b506001600160a01b03166000908152602091909152604090205460ff1690565b6000620007ce8260076200074860201b62000c401790919060201c565b92915050565b828054600181600116156101000203166002900490600052602060002090601f016020900481019282601f106200081757805160ff191683800117855562000847565b8280016001018555821562000847579182015b82811115620008475782518255916020019190600101906200082a565b506200085592915062000859565b5090565b6200033e91905b8082111562000855576000815560010162000860565b61184b80620008866000396000f3fe608060405234801561001057600080fd5b506004361061018e5760003560e01c80636ef8d66d116100de57806395d89b4111610097578063a457c2d711610071578063a457c2d714610441578063a9059cbb1461046d578063aa271e1a14610499578063dd62ed3e146104bf5761018e565b806395d89b411461040b578063983b2d561461041357806398650275146104395761018e565b80636ef8d66d1461037b57806370a082311461038357806379cc6790146103a957806382dc1ec4146103d55780638456cb59146103fb578063883356d9146104035761018e565b8063395093511161014b57806342966c681161012557806342966c681461032857806346b45af71461034557806346fbf68e1461034d5780635c975abb146103735761018e565b806339509351146102c65780633f4ba83a146102f257806340c10f19146102fc5761018e565b806306fdde0314610193578063095ea7b31461021057806318160ddd146102505780632121dc751461026a57806323b872dd14610272578063313ce567146102a8575b600080fd5b61019b6104ed565b6040805160208082528351818301528351919283929083019185019080838360005b838110156101d55781810151838201526020016101bd565b50505050905090810190601f1680156102025780820380516001836020036101000a031916815260200191505b509250505060405180910390f35b61023c6004803603604081101561022657600080fd5b506001600160a01b038135169060200135610583565b604080519115158252519081900360200190f35b6102586105e2565b60408051918252519081900360200190f35b61023c6105e8565b61023c6004803603606081101561028857600080fd5b506001600160a01b038135811691602081013590911690604001356105f7565b6102b0610658565b6040805160ff9092168252519081900360200190f35b61023c600480360360408110156102dc57600080fd5b506001600160a01b038135169060200135610661565b6102fa6106b9565b005b61023c6004803603604081101561031257600080fd5b506001600160a01b038135169060200135610704565b6102fa6004803603602081101561033e57600080fd5b5035610763565b61023c6107bf565b61023c6004803603602081101561036357600080fd5b50356001600160a01b03166107cf565b61023c6107e8565b6102fa6107f1565b6102586004803603602081101561039957600080fd5b50356001600160a01b0316610801565b6102fa600480360360408110156103bf57600080fd5b506001600160a01b03813516906020013561081c565b6102fa600480360360208110156103eb57600080fd5b50356001600160a01b031661087a565b6102fa6108ce565b61023c61091f565b61019b61092d565b6102fa6004803603602081101561042957600080fd5b50356001600160a01b031661098d565b6102fa6109e1565b61023c6004803603604081101561045757600080fd5b506001600160a01b0381351690602001356109f1565b61023c6004803603604081101561048357600080fd5b506001600160a01b038135169060200135610a49565b61023c600480360360208110156104af57600080fd5b50356001600160a01b0316610aa1565b610258600480360360408110156104d557600080fd5b506001600160a01b0381358116916020013516610ab4565b60008054604080516020601f60026000196101006001881615020190951694909404938401819004810282018101909252828152606093909290918301828280156105795780601f1061054e57610100808354040283529160200191610579565b820191906000526020600020905b81548152906001019060200180831161055c57829003601f168201915b5050505050905090565b60085460009060ff16156105d1576040805162461bcd60e51b815260206004820152601060248201526f14185d5cd8589b194e881c185d5cd95960821b604482015290519081900360640190fd5b6105db8383610adf565b9392505050565b60055490565b60085462010000900460ff1681565b60085460009060ff1615610645576040805162461bcd60e51b815260206004820152601060248201526f14185d5cd8589b194e881c185d5cd95960821b604482015290519081900360640190fd5b610650848484610afc565b949350505050565b60025460ff1690565b60085460009060ff16156106af576040805162461bcd60e51b815260206004820152601060248201526f14185d5cd8589b194e881c185d5cd95960821b604482015290519081900360640190fd5b6105db8383610b89565b600854640100000000900460ff166107025760405162461bcd60e51b81526004018080602001828103825260298152602001806117c96029913960400191505060405180910390fd5b565b6008546000906301000000900460ff16610759576040805162461bcd60e51b8152602060048201526011602482015270436f696e206e6f74206d696e7461626c6560781b604482015290519081900360640190fd5b6105db8383610bdd565b600854610100900460ff166107b3576040805162461bcd60e51b8152602060048201526011602482015270436f696e206e6f74206275726e61626c6560781b604482015290519081900360640190fd5b6107bc81610c2f565b50565b6008546301000000900460ff1681565b60006107e260078363ffffffff610c4016565b92915050565b60085460ff1690565b6107026107fc610ca7565b610cab565b6001600160a01b031660009081526003602052604090205490565b600854610100900460ff1661086c576040805162461bcd60e51b8152602060048201526011602482015270436f696e206e6f74206275726e61626c6560781b604482015290519081900360640190fd5b6108768282610cf3565b5050565b61088a610885610ca7565b6107cf565b6108c55760405162461bcd60e51b81526004018080602001828103825260308152602001806116286030913960400191505060405180910390fd5b6107bc81610cfd565b600854640100000000900460ff166109175760405162461bcd60e51b81526004018080602001828103825260298152602001806117c96029913960400191505060405180910390fd5b610702610d45565b600854610100900460ff1681565b60018054604080516020601f600260001961010087891615020190951694909404938401819004810282018101909252828152606093909290918301828280156105795780601f1061054e57610100808354040283529160200191610579565b61099d610998610ca7565b610aa1565b6109d85760405162461bcd60e51b81526004018080602001828103825260308152602001806116a06030913960400191505060405180910390fd5b6107bc81610e29565b6107026109ec610ca7565b610e71565b60085460009060ff1615610a3f576040805162461bcd60e51b815260206004820152601060248201526f14185d5cd8589b194e881c185d5cd95960821b604482015290519081900360640190fd5b6105db8383610eb9565b60085460009060ff1615610a97576040805162461bcd60e51b815260206004820152601060248201526f14185d5cd8589b194e881c185d5cd95960821b604482015290519081900360640190fd5b6105db8383610f27565b60006107e260068363ffffffff610c4016565b6001600160a01b03918216600090815260046020908152604080832093909416825291909152205490565b6000610af3610aec610ca7565b8484610f3b565b50600192915050565b6000610b09848484611027565b610b7f84610b15610ca7565b610b7a856040518060600160405280602881526020016116f1602891396001600160a01b038a16600090815260046020526040812090610b53610ca7565b6001600160a01b03168152602081019190915260400160002054919063ffffffff61118516565b610f3b565b5060019392505050565b6000610af3610b96610ca7565b84610b7a8560046000610ba7610ca7565b6001600160a01b03908116825260208083019390935260409182016000908120918c16815292529020549063ffffffff61121c16565b6000610bea610998610ca7565b610c255760405162461bcd60e51b81526004018080602001828103825260308152602001806116a06030913960400191505060405180910390fd5b610af38383611276565b6107bc610c3a610ca7565b82611368565b60006001600160a01b038216610c875760405162461bcd60e51b81526004018080602001828103825260228152602001806117196022913960400191505060405180910390fd5b506001600160a01b03166000908152602091909152604090205460ff1690565b3390565b610cbc60078263ffffffff61146416565b6040516001600160a01b038216907fcd265ebaf09df2871cc7bd4133404a235ba12eff2041bb89d9c714a2621c7c7e90600090a250565b61087682826114cb565b610d0e60078263ffffffff61151f16565b6040516001600160a01b038216907f6719d08c1888103bea251a4ed56406bd0c3e69723c8a1686e017e7bbe159b6f890600090a250565b610d50610885610ca7565b610d8b5760405162461bcd60e51b81526004018080602001828103825260308152602001806116286030913960400191505060405180910390fd5b60085460ff1615610dd6576040805162461bcd60e51b815260206004820152601060248201526f14185d5cd8589b194e881c185d5cd95960821b604482015290519081900360640190fd5b6008805460ff191660011790557f62e78cea01bee320cd4e420270b5ea74000d11b0c9f74754ebdbfc544b05a258610e0c610ca7565b604080516001600160a01b039092168252519081900360200190a1565b610e3a60068263ffffffff61151f16565b6040516001600160a01b038216907f6ae172837ea30b801fbfcdd4108aa1d5bf8ff775444fd70256b44e6bf3dfc3f690600090a250565b610e8260068263ffffffff61146416565b6040516001600160a01b038216907fe94479a9f7e1952cc78f2d6baab678adc1b772d936c6583def489e524cb6669290600090a250565b6000610af3610ec6610ca7565b84610b7a856040518060600160405280602581526020016117f26025913960046000610ef0610ca7565b6001600160a01b03908116825260208083019390935260409182016000908120918d1681529252902054919063ffffffff61118516565b6000610af3610f34610ca7565b8484611027565b6001600160a01b038316610f805760405162461bcd60e51b81526004018080602001828103825260248152602001806117a56024913960400191505060405180910390fd5b6001600160a01b038216610fc55760405162461bcd60e51b81526004018080602001828103825260228152602001806116586022913960400191505060405180910390fd5b6001600160a01b03808416600081815260046020908152604080832094871680845294825291829020859055815185815291517f8c5be1e5ebec7d5bd14f71427d1e84f3dd0314c0f7b2291e5b200ac8c7c3b9259281900390910190a3505050565b6001600160a01b03831661106c5760405162461bcd60e51b81526004018080602001828103825260258152602001806117806025913960400191505060405180910390fd5b6001600160a01b0382166110b15760405162461bcd60e51b81526004018080602001828103825260238152602001806115e36023913960400191505060405180910390fd5b6110f48160405180606001604052806026815260200161167a602691396001600160a01b038616600090815260036020526040902054919063ffffffff61118516565b6001600160a01b038085166000908152600360205260408082209390935590841681522054611129908263ffffffff61121c16565b6001600160a01b0380841660008181526003602090815260409182902094909455805185815290519193928716927fddf252ad1be2c89b69c2b068fc378daa952ba7f163c4a11628f55a4df523b3ef92918290030190a3505050565b600081848411156112145760405162461bcd60e51b81526004018080602001828103825283818151815260200191508051906020019080838360005b838110156111d95781810151838201526020016111c1565b50505050905090810190601f1680156112065780820380516001836020036101000a031916815260200191505b509250505060405180910390fd5b505050900390565b6000828201838110156105db576040805162461bcd60e51b815260206004820152601b60248201527f536166654d6174683a206164646974696f6e206f766572666c6f770000000000604482015290519081900360640190fd5b6001600160a01b0382166112d1576040805162461bcd60e51b815260206004820152601f60248201527f45524332303a206d696e7420746f20746865207a65726f206164647265737300604482015290519081900360640190fd5b6005546112e4908263ffffffff61121c16565b6005556001600160a01b038216600090815260036020526040902054611310908263ffffffff61121c16565b6001600160a01b03831660008181526003602090815260408083209490945583518581529351929391927fddf252ad1be2c89b69c2b068fc378daa952ba7f163c4a11628f55a4df523b3ef9281900390910190a35050565b6001600160a01b0382166113ad5760405162461bcd60e51b815260040180806020018281038252602181526020018061175f6021913960400191505060405180910390fd5b6113f081604051806060016040528060228152602001611606602291396001600160a01b038516600090815260036020526040902054919063ffffffff61118516565b6001600160a01b03831660009081526003602052604090205560055461141c908263ffffffff6115a016565b6005556040805182815290516000916001600160a01b038516917fddf252ad1be2c89b69c2b068fc378daa952ba7f163c4a11628f55a4df523b3ef9181900360200190a35050565b61146e8282610c40565b6114a95760405162461bcd60e51b81526004018080602001828103825260218152602001806116d06021913960400191505060405180910390fd5b6001600160a01b0316600090815260209190915260409020805460ff19169055565b6114d58282611368565b610876826114e1610ca7565b610b7a8460405180606001604052806024815260200161173b602491396001600160a01b038816600090815260046020526040812090610b53610ca7565b6115298282610c40565b1561157b576040805162461bcd60e51b815260206004820152601f60248201527f526f6c65733a206163636f756e7420616c72656164792068617320726f6c6500604482015290519081900360640190fd5b6001600160a01b0316600090815260209190915260409020805460ff19166001179055565b60006105db83836040518060400160405280601e81526020017f536166654d6174683a207375627472616374696f6e206f766572666c6f77000081525061118556fe45524332303a207472616e7366657220746f20746865207a65726f206164647265737345524332303a206275726e20616d6f756e7420657863656564732062616c616e6365506175736572526f6c653a2063616c6c657220646f6573206e6f742068617665207468652050617573657220726f6c6545524332303a20617070726f766520746f20746865207a65726f206164647265737345524332303a207472616e7366657220616d6f756e7420657863656564732062616c616e63654d696e746572526f6c653a2063616c6c657220646f6573206e6f74206861766520746865204d696e74657220726f6c65526f6c65733a206163636f756e7420646f6573206e6f74206861766520726f6c6545524332303a207472616e7366657220616d6f756e74206578636565647320616c6c6f77616e6365526f6c65733a206163636f756e7420697320746865207a65726f206164647265737345524332303a206275726e20616d6f756e74206578636565647320616c6c6f77616e636545524332303a206275726e2066726f6d20746865207a65726f206164647265737345524332303a207472616e736665722066726f6d20746865207a65726f206164647265737345524332303a20617070726f76652066726f6d20746865207a65726f2061646472657373746869732066756e6374696f6e2063616e206f6e6c792062652072756e206f6e206372656174696f6e45524332303a2064656372656173656420616c6c6f77616e63652062656c6f77207a65726fa265627a7a72315820e46c0782ab6506d2cc7352aee60633187f310a2109f53421f961e81ddadbbf9c64736f6c63430005110032506175736572526f6c653a2063616c6c657220646f6573206e6f742068617665207468652050617573657220726f6c65526f6c65733a206163636f756e7420697320746865207a65726f2061646472657373746869732066756e6374696f6e2063616e206f6e6c792062652072756e206f6e206372656174696f6e",
  "source": "pragma solidity ^0.5.17;\n\nimport \"@openzeppelin/contracts/token/ERC20/ERC20Detailed.sol\";\nimport \"@openzeppelin/contracts/token/ERC20/ERC20Mintable.sol\";\nimport \"@openzeppelin/contracts/token/ERC20/ERC20Burnable.sol\";\nimport \"@openzeppelin/contracts/token/ERC20/ERC20Capped.sol\";\nimport \"@openzeppelin/contracts/token/ERC20/ERC20Pausable.sol\";\n\n/**\n * @title ERC20Plus\n * @dev ERC20 Token, where all tokens (INITIAL_SUPPLY) are pre-assigned to the creator.\n * Note they can later distribute these tokens as they wish using `transfer` and other\n * `ERC20` functions.\n * Depending on the parameters provided, this token can be mintable, burnable and/or\n * pausable (non-transferable).\n */\ncontract ERC20Plus is ERC20Detailed, ERC20Mintable, ERC20Burnable, ERC20Pausable {\n\n    bool public isBurnable;\n    bool public isTransferable;\n    bool public isMintable;\n\n    bool private constructing = true;\n\n    /**\n     * @dev Burns a specific amount of tokens.\n     * @param value The amount of token to be burned.\n     */\n    function burn(uint256 value) public {\n        // Checks whether token is burnable before minting\n        require(isBurnable, \"Coin not burnable\");\n        super.burn(value);\n    }\n\n    /**\n     * @dev Burns a specific amount of tokens from the target address and decrements allowance\n     * @param from address The address which you want to send tokens from\n     * @param value uint256 The amount of token to be burned\n     */\n    function burnFrom(address from, uint256 value) public {\n        // Checks whether token is burnable before minting\n        require(isBurnable, \"Coin not burnable\");\n        super.burnFrom(from, value);\n    }\n\n    /**\n     * @dev Function to mint tokens\n     * @param to The address that will receive the minted tokens.\n     * @param value The amount of tokens to mint.\n     * @return A boolean that indicates if the operation was successful.\n     */\n    function mint(address to, uint256 value) public returns (bool) {\n        // Checks whether token is mintable before minting\n        require(isMintable, \"Coin not mintable\");\n        return super.mint(to, value);\n    }\n\n    /**\n     * @dev called by the owner to pause, triggers stopped state.\n     * This means functions transfer, transferFrom, approve, increaseAllowance,\n     * and decreasAllowance, will not execute.\n     */\n    function pause() public{\n        // Checks whether token is being constructed, throws exception if not\n        require(constructing, \"this function can only be run on creation\");\n        super.pause();\n    }\n\n     /**\n     * @dev This will undo pause(). The purpose of this declaration is to\n     * disable this function, as this function must not be called (unless\n     * making an untransferable token transferable again is wanted, but\n     * this is currently not an offered feature).\n     */\n    function unpause() public{\n        // Checks whether token is being constructed, throws exception if not\n        require(constructing, \"this function can only be run on creation\");\n    }\n\n    constructor(\n        string memory name_,\n        string memory symbol_,\n        uint8 decimals_,\n        address minter,\n        bool isBurnable_,\n        bool isTransferable_,\n        bool isMintable_,\n        uint initialSupply,\n        address initialSupplyOwner\n        )\n            ERC20Detailed(name_, symbol_, decimals_)\n            ERC20Mintable()\n            ERC20Burnable()\n            ERC20Pausable()\n            ERC20()\n            public\n    {\n        isBurnable = isBurnable_;\n        isTransferable = isTransferable_;\n        isMintable = isMintable_;\n        if(!isTransferable_){\n            pause();\n        }\n        if(address(minter) != address(0)) {\n            _addMinter(minter);\n        }\n        if (initialSupplyOwner == address(0)) {\n            _mint(msg.sender, initialSupply);\n        } else {\n            _mint(initialSupplyOwner, initialSupply);\n        }\n        // To indicate construction is over, and block pause() and unpause()\n        // from being used\n        constructing = false;\n    }\n}\n\n/**\n * @title ERC20PlusCapped\n * @dev ERC20 Token, which acts very similarly to ERC20Plus, but with the\n * exception that it has a cap.\n */\ncontract ERC20PlusCapped is ERC20Capped, ERC20Plus {\n\n    constructor(\n        string memory name_,\n        string memory symbol_,\n        uint8 decimals_,\n        address minter,\n        bool isBurnable_,\n        uint cap_,\n        bool isTransferable_,\n        bool isMintable_,\n        uint initialSupply,\n        address initialSupplyOwner\n        )\n            public\n            // ERC20Capped constructor\n            ERC20Capped(cap_)\n            // ERC20Plus constructor\n            ERC20Plus(\n                name_,\n                symbol_,\n                decimals_,\n                minter,\n                isBurnable_,\n                isTransferable_,\n                isMintable_,\n                initialSupply,\n                initialSupplyOwner)\n    {\n    }\n}",
  "sourcePath": "/home/cantonioupao/susDAO-saveMe/FIN4Contracts/contracts/tokens/ERC20Plus.sol",
  "compiler": {
    "name": "solc",
    "version": "0.5.17+commit.d19bba13.Emscripten.clang"
  },
  "schemaVersion": "3.3.1",
  "updatedAt": "2020-12-03T18:31:09.907Z",
  "devdoc": {
    "details": "ERC20 Token, where all tokens (INITIAL_SUPPLY) are pre-assigned to the creator. Note they can later distribute these tokens as they wish using `transfer` and other `ERC20` functions. Depending on the parameters provided, this token can be mintable, burnable and/or pausable (non-transferable).",
    "methods": {
      "allowance(address,address)": {
        "details": "See {IERC20-allowance}."
      },
      "balanceOf(address)": {
        "details": "See {IERC20-balanceOf}."
      },
      "burn(uint256)": {
        "details": "Burns a specific amount of tokens.",
        "params": {
          "value": "The amount of token to be burned."
        }
      },
      "burnFrom(address,uint256)": {
        "details": "Burns a specific amount of tokens from the target address and decrements allowance",
        "params": {
          "from": "address The address which you want to send tokens from",
          "value": "uint256 The amount of token to be burned"
        }
      },
      "decimals()": {
        "details": "Returns the number of decimals used to get its user representation. For example, if `decimals` equals `2`, a balance of `505` tokens should be displayed to a user as `5,05` (`505 / 10 ** 2`).     * Tokens usually opt for a value of 18, imitating the relationship between Ether and Wei.     * NOTE: This information is only used for _display_ purposes: it in no way affects any of the arithmetic of the contract, including {IERC20-balanceOf} and {IERC20-transfer}."
      },
      "mint(address,uint256)": {
        "details": "Function to mint tokens",
        "params": {
          "to": "The address that will receive the minted tokens.",
          "value": "The amount of tokens to mint."
        },
        "return": "A boolean that indicates if the operation was successful."
      },
      "name()": {
        "details": "Returns the name of the token."
      },
      "pause()": {
        "details": "called by the owner to pause, triggers stopped state. This means functions transfer, transferFrom, approve, increaseAllowance, and decreasAllowance, will not execute."
      },
      "paused()": {
        "details": "Returns true if the contract is paused, and false otherwise."
      },
      "symbol()": {
        "details": "Returns the symbol of the token, usually a shorter version of the name."
      },
      "totalSupply()": {
        "details": "See {IERC20-totalSupply}."
      },
      "unpause()": {
        "details": "This will undo pause(). The purpose of this declaration is to disable this function, as this function must not be called (unless making an untransferable token transferable again is wanted, but this is currently not an offered feature)."
      }
    },
    "title": "ERC20Plus"
  },
  "userdoc": {
    "methods": {}
  }
}