{
  "contractName": "ERC20PlusCapped",
  "abi": [
    {
      "inputs": [
        {
          "internalType": "string",
          "name": "name_",
          "type": "string"
        },
        {
          "internalType": "string",
          "name": "symbol_",
          "type": "string"
        },
        {
          "internalType": "uint8",
          "name": "decimals_",
          "type": "uint8"
        },
        {
          "internalType": "address",
          "name": "minter",
          "type": "address"
        },
        {
          "internalType": "bool",
          "name": "isBurnable_",
          "type": "bool"
        },
        {
          "internalType": "uint256",
          "name": "cap_",
          "type": "uint256"
        },
        {
          "internalType": "bool",
          "name": "isTransferable_",
          "type": "bool"
        },
        {
          "internalType": "bool",
          "name": "isMintable_",
          "type": "bool"
        },
        {
          "internalType": "uint256",
          "name": "initialSupply",
          "type": "uint256"
        },
        {
          "internalType": "address",
          "name": "initialSupplyOwner",
          "type": "address"
        }
      ],
      "payable": false,
      "stateMutability": "nonpayable",
      "type": "constructor"
    },
    {
      "anonymous": false,
      "inputs": [
        {
          "indexed": true,
          "internalType": "address",
          "name": "owner",
          "type": "address"
        },
        {
          "indexed": true,
          "internalType": "address",
          "name": "spender",
          "type": "address"
        },
        {
          "indexed": false,
          "internalType": "uint256",
          "name": "value",
          "type": "uint256"
        }
      ],
      "name": "Approval",
      "type": "event"
    },
    {
      "anonymous": false,
      "inputs": [
        {
          "indexed": true,
          "internalType": "address",
          "name": "account",
          "type": "address"
        }
      ],
      "name": "MinterAdded",
      "type": "event"
    },
    {
      "anonymous": false,
      "inputs": [
        {
          "indexed": true,
          "internalType": "address",
          "name": "account",
          "type": "address"
        }
      ],
      "name": "MinterRemoved",
      "type": "event"
    },
    {
      "anonymous": false,
      "inputs": [
        {
          "indexed": false,
          "internalType": "address",
          "name": "account",
          "type": "address"
        }
      ],
      "name": "Paused",
      "type": "event"
    },
    {
      "anonymous": false,
      "inputs": [
        {
          "indexed": true,
          "internalType": "address",
          "name": "account",
          "type": "address"
        }
      ],
      "name": "PauserAdded",
      "type": "event"
    },
    {
      "anonymous": false,
      "inputs": [
        {
          "indexed": true,
          "internalType": "address",
          "name": "account",
          "type": "address"
        }
      ],
      "name": "PauserRemoved",
      "type": "event"
    },
    {
      "anonymous": false,
      "inputs": [
        {
          "indexed": true,
          "internalType": "address",
          "name": "from",
          "type": "address"
        },
        {
          "indexed": true,
          "internalType": "address",
          "name": "to",
          "type": "address"
        },
        {
          "indexed": false,
          "internalType": "uint256",
          "name": "value",
          "type": "uint256"
        }
      ],
      "name": "Transfer",
      "type": "event"
    },
    {
      "anonymous": false,
      "inputs": [
        {
          "indexed": false,
          "internalType": "address",
          "name": "account",
          "type": "address"
        }
      ],
      "name": "Unpaused",
      "type": "event"
    },
    {
      "constant": false,
      "inputs": [
        {
          "internalType": "address",
          "name": "account",
          "type": "address"
        }
      ],
      "name": "addMinter",
      "outputs": [],
      "payable": false,
      "stateMutability": "nonpayable",
      "type": "function"
    },
    {
      "constant": false,
      "inputs": [
        {
          "internalType": "address",
          "name": "account",
          "type": "address"
        }
      ],
      "name": "addPauser",
      "outputs": [],
      "payable": false,
      "stateMutability": "nonpayable",
      "type": "function"
    },
    {
      "constant": true,
      "inputs": [
        {
          "internalType": "address",
          "name": "owner",
          "type": "address"
        },
        {
          "internalType": "address",
          "name": "spender",
          "type": "address"
        }
      ],
      "name": "allowance",
      "outputs": [
        {
          "internalType": "uint256",
          "name": "",
          "type": "uint256"
        }
      ],
      "payable": false,
      "stateMutability": "view",
      "type": "function"
    },
    {
      "constant": false,
      "inputs": [
        {
          "internalType": "address",
          "name": "spender",
          "type": "address"
        },
        {
          "internalType": "uint256",
          "name": "value",
          "type": "uint256"
        }
      ],
      "name": "approve",
      "outputs": [
        {
          "internalType": "bool",
          "name": "",
          "type": "bool"
        }
      ],
      "payable": false,
      "stateMutability": "nonpayable",
      "type": "function"
    },
    {
      "constant": true,
      "inputs": [
        {
          "internalType": "address",
          "name": "account",
          "type": "address"
        }
      ],
      "name": "balanceOf",
      "outputs": [
        {
          "internalType": "uint256",
          "name": "",
          "type": "uint256"
        }
      ],
      "payable": false,
      "stateMutability": "view",
      "type": "function"
    },
    {
      "constant": false,
      "inputs": [
        {
          "internalType": "uint256",
          "name": "value",
          "type": "uint256"
        }
      ],
      "name": "burn",
      "outputs": [],
      "payable": false,
      "stateMutability": "nonpayable",
      "type": "function"
    },
    {
      "constant": false,
      "inputs": [
        {
          "internalType": "address",
          "name": "from",
          "type": "address"
        },
        {
          "internalType": "uint256",
          "name": "value",
          "type": "uint256"
        }
      ],
      "name": "burnFrom",
      "outputs": [],
      "payable": false,
      "stateMutability": "nonpayable",
      "type": "function"
    },
    {
      "constant": true,
      "inputs": [],
      "name": "cap",
      "outputs": [
        {
          "internalType": "uint256",
          "name": "",
          "type": "uint256"
        }
      ],
      "payable": false,
      "stateMutability": "view",
      "type": "function"
    },
    {
      "constant": true,
      "inputs": [],
      "name": "decimals",
      "outputs": [
        {
          "internalType": "uint8",
          "name": "",
          "type": "uint8"
        }
      ],
      "payable": false,
      "stateMutability": "view",
      "type": "function"
    },
    {
      "constant": false,
      "inputs": [
        {
          "internalType": "address",
          "name": "spender",
          "type": "address"
        },
        {
          "internalType": "uint256",
          "name": "subtractedValue",
          "type": "uint256"
        }
      ],
      "name": "decreaseAllowance",
      "outputs": [
        {
          "internalType": "bool",
          "name": "",
          "type": "bool"
        }
      ],
      "payable": false,
      "stateMutability": "nonpayable",
      "type": "function"
    },
    {
      "constant": false,
      "inputs": [
        {
          "internalType": "address",
          "name": "spender",
          "type": "address"
        },
        {
          "internalType": "uint256",
          "name": "addedValue",
          "type": "uint256"
        }
      ],
      "name": "increaseAllowance",
      "outputs": [
        {
          "internalType": "bool",
          "name": "",
          "type": "bool"
        }
      ],
      "payable": false,
      "stateMutability": "nonpayable",
      "type": "function"
    },
    {
      "constant": true,
      "inputs": [],
      "name": "isBurnable",
      "outputs": [
        {
          "internalType": "bool",
          "name": "",
          "type": "bool"
        }
      ],
      "payable": false,
      "stateMutability": "view",
      "type": "function"
    },
    {
      "constant": true,
      "inputs": [],
      "name": "isMintable",
      "outputs": [
        {
          "internalType": "bool",
          "name": "",
          "type": "bool"
        }
      ],
      "payable": false,
      "stateMutability": "view",
      "type": "function"
    },
    {
      "constant": true,
      "inputs": [
        {
          "internalType": "address",
          "name": "account",
          "type": "address"
        }
      ],
      "name": "isMinter",
      "outputs": [
        {
          "internalType": "bool",
          "name": "",
          "type": "bool"
        }
      ],
      "payable": false,
      "stateMutability": "view",
      "type": "function"
    },
    {
      "constant": true,
      "inputs": [
        {
          "internalType": "address",
          "name": "account",
          "type": "address"
        }
      ],
      "name": "isPauser",
      "outputs": [
        {
          "internalType": "bool",
          "name": "",
          "type": "bool"
        }
      ],
      "payable": false,
      "stateMutability": "view",
      "type": "function"
    },
    {
      "constant": true,
      "inputs": [],
      "name": "isTransferable",
      "outputs": [
        {
          "internalType": "bool",
          "name": "",
          "type": "bool"
        }
      ],
      "payable": false,
      "stateMutability": "view",
      "type": "function"
    },
    {
      "constant": false,
      "inputs": [
        {
          "internalType": "address",
          "name": "to",
          "type": "address"
        },
        {
          "internalType": "uint256",
          "name": "value",
          "type": "uint256"
        }
      ],
      "name": "mint",
      "outputs": [
        {
          "internalType": "bool",
          "name": "",
          "type": "bool"
        }
      ],
      "payable": false,
      "stateMutability": "nonpayable",
      "type": "function"
    },
    {
      "constant": true,
      "inputs": [],
      "name": "name",
      "outputs": [
        {
          "internalType": "string",
          "name": "",
          "type": "string"
        }
      ],
      "payable": false,
      "stateMutability": "view",
      "type": "function"
    },
    {
      "constant": false,
      "inputs": [],
      "name": "pause",
      "outputs": [],
      "payable": false,
      "stateMutability": "nonpayable",
      "type": "function"
    },
    {
      "constant": true,
      "inputs": [],
      "name": "paused",
      "outputs": [
        {
          "internalType": "bool",
          "name": "",
          "type": "bool"
        }
      ],
      "payable": false,
      "stateMutability": "view",
      "type": "function"
    },
    {
      "constant": false,
      "inputs": [],
      "name": "renounceMinter",
      "outputs": [],
      "payable": false,
      "stateMutability": "nonpayable",
      "type": "function"
    },
    {
      "constant": false,
      "inputs": [],
      "name": "renouncePauser",
      "outputs": [],
      "payable": false,
      "stateMutability": "nonpayable",
      "type": "function"
    },
    {
      "constant": true,
      "inputs": [],
      "name": "symbol",
      "outputs": [
        {
          "internalType": "string",
          "name": "",
          "type": "string"
        }
      ],
      "payable": false,
      "stateMutability": "view",
      "type": "function"
    },
    {
      "constant": true,
      "inputs": [],
      "name": "totalSupply",
      "outputs": [
        {
          "internalType": "uint256",
          "name": "",
          "type": "uint256"
        }
      ],
      "payable": false,
      "stateMutability": "view",
      "type": "function"
    },
    {
      "constant": false,
      "inputs": [
        {
          "internalType": "address",
          "name": "to",
          "type": "address"
        },
        {
          "internalType": "uint256",
          "name": "value",
          "type": "uint256"
        }
      ],
      "name": "transfer",
      "outputs": [
        {
          "internalType": "bool",
          "name": "",
          "type": "bool"
        }
      ],
      "payable": false,
      "stateMutability": "nonpayable",
      "type": "function"
    },
    {
      "constant": false,
      "inputs": [
        {
          "internalType": "address",
          "name": "from",
          "type": "address"
        },
        {
          "internalType": "address",
          "name": "to",
          "type": "address"
        },
        {
          "internalType": "uint256",
          "name": "value",
          "type": "uint256"
        }
      ],
      "name": "transferFrom",
      "outputs": [
        {
          "internalType": "bool",
          "name": "",
          "type": "bool"
        }
      ],
      "payable": false,
      "stateMutability": "nonpayable",
      "type": "function"
    },
    {
      "constant": false,
      "inputs": [],
      "name": "unpause",
      "outputs": [],
      "payable": false,
      "stateMutability": "nonpayable",
      "type": "function"
    }
  ],
  "bytecode": "0x60806040526009805460ff60201b19166401000000001790553480156200002557600080fd5b50604051620023103803806200231083398181016040526101408110156200004c57600080fd5b81019080805160405193929190846401000000008211156200006d57600080fd5b9083019060208201858111156200008357600080fd5b82516401000000008111828201881017156200009e57600080fd5b82525081516020918201929091019080838360005b83811015620000cd578181015183820152602001620000b3565b50505050905090810190601f168015620000fb5780820380516001836020036101000a031916815260200191505b50604052602001805160405193929190846401000000008211156200011f57600080fd5b9083019060208201858111156200013557600080fd5b82516401000000008111828201881017156200015057600080fd5b82525081516020918201929091019080838360005b838110156200017f57818101518382015260200162000165565b50505050905090810190601f168015620001ad5780820380516001836020036101000a031916815260200191505b506040908152602082810151918301516060840151608085015160a086015160c087015160e0880151610100909801518c51979a50949850929691959094929391928b918b918b918b918b918a918a918a918a918f918b918b918b916200021b9160009190860190620008f7565b50815162000231906001906020850190620008f7565b506002805460ff191660ff929092169190911790555062000266905062000257620003bb565b6001600160e01b03620003c016565b60008111620002bc576040805162461bcd60e51b815260206004820152601560248201527f45524332304361707065643a2063617020697320300000000000000000000000604482015290519081900360640190fd5b600755620002e5620002d66001600160e01b03620003bb16565b6001600160e01b036200041216565b6009805461ffff1916610100871515021762ff0000191662010000861515021763ff0000001916630100000085151502179055836200033157620003316001600160e01b036200046416565b6001600160a01b03861615620003555762000355866001600160e01b03620003c016565b6001600160a01b0381166200037f576200037933836001600160e01b03620004c616565b62000394565b6200039481836001600160e01b03620004c616565b50506009805460ff60201b1916905550620009999f50505050505050505050505050505050565b335b90565b620003db8160066200056460201b620014ce1790919060201c565b6040516001600160a01b038216907f6ae172837ea30b801fbfcdd4108aa1d5bf8ff775444fd70256b44e6bf3dfc3f690600090a250565b6200042d8160086200056460201b620014ce1790919060201c565b6040516001600160a01b038216907f6719d08c1888103bea251a4ed56406bd0c3e69723c8a1686e017e7bbe159b6f890600090a250565b600954640100000000900460ff16620004af5760405162461bcd60e51b8152600401808060200182810382526029815260200180620022e76029913960400191505060405180910390fd5b620004c4620005f160201b62000d6e1760201c565b565b600754620004f582620004e16001600160e01b03620006fe16565b6200070460201b620012451790919060201c565b111562000549576040805162461bcd60e51b815260206004820152601960248201527f45524332304361707065643a2063617020657863656564656400000000000000604482015290519081900360640190fd5b6200056082826200076660201b6200154f1760201c565b5050565b6200057982826001600160e01b036200086b16565b15620005cc576040805162461bcd60e51b815260206004820152601f60248201527f526f6c65733a206163636f756e7420616c72656164792068617320726f6c6500604482015290519081900360640190fd5b6001600160a01b0316600090815260209190915260409020805460ff19166001179055565b62000617620006086001600160e01b03620003bb16565b6001600160e01b03620008d416565b620006545760405162461bcd60e51b8152600401808060200182810382526030815260200180620022956030913960400191505060405180910390fd5b60095460ff1615620006a0576040805162461bcd60e51b815260206004820152601060248201526f14185d5cd8589b194e881c185d5cd95960821b604482015290519081900360640190fd5b6009805460ff191660011790557f62e78cea01bee320cd4e420270b5ea74000d11b0c9f74754ebdbfc544b05a258620006e16001600160e01b03620003bb16565b604080516001600160a01b039092168252519081900360200190a1565b60055490565b6000828201838110156200075f576040805162461bcd60e51b815260206004820152601b60248201527f536166654d6174683a206164646974696f6e206f766572666c6f770000000000604482015290519081900360640190fd5b9392505050565b6001600160a01b038216620007c2576040805162461bcd60e51b815260206004820152601f60248201527f45524332303a206d696e7420746f20746865207a65726f206164647265737300604482015290519081900360640190fd5b620007de816005546200070460201b620012451790919060201c565b6005556001600160a01b038216600090815260036020908152604090912054620008139183906200124562000704821b17901c565b6001600160a01b03831660008181526003602090815260408083209490945583518581529351929391927fddf252ad1be2c89b69c2b068fc378daa952ba7f163c4a11628f55a4df523b3ef9281900390910190a35050565b60006001600160a01b038216620008b45760405162461bcd60e51b8152600401808060200182810382526022815260200180620022c56022913960400191505060405180910390fd5b506001600160a01b03166000908152602091909152604090205460ff1690565b6000620008f18260086200086b60201b62000c691790919060201c565b92915050565b828054600181600116156101000203166002900490600052602060002090601f016020900481019282601f106200093a57805160ff19168380011785556200096a565b828001600101855582156200096a579182015b828111156200096a5782518255916020019190600101906200094d565b50620009789291506200097c565b5090565b620003bd91905b8082111562000978576000815560010162000983565b6118ec80620009a96000396000f3fe608060405234801561001057600080fd5b50600436106101a95760003560e01c80635c975abb116100f957806395d89b4111610097578063a457c2d711610071578063a457c2d714610464578063a9059cbb14610490578063aa271e1a146104bc578063dd62ed3e146104e2576101a9565b806395d89b411461042e578063983b2d5614610436578063986502751461045c576101a9565b806379cc6790116100d357806379cc6790146103cc57806382dc1ec4146103f85780638456cb591461041e578063883356d914610426576101a9565b80635c975abb146103965780636ef8d66d1461039e57806370a08231146103a6576101a9565b8063355274ea1161016657806340c10f191161014057806340c10f191461031f57806342966c681461034b57806346b45af71461036857806346fbf68e14610370576101a9565b8063355274ea146102e157806339509351146102e95780633f4ba83a14610315576101a9565b806306fdde03146101ae578063095ea7b31461022b57806318160ddd1461026b5780632121dc751461028557806323b872dd1461028d578063313ce567146102c3575b600080fd5b6101b6610510565b6040805160208082528351818301528351919283929083019185019080838360005b838110156101f05781810151838201526020016101d8565b50505050905090810190601f16801561021d5780820380516001836020036101000a031916815260200191505b509250505060405180910390f35b6102576004803603604081101561024157600080fd5b506001600160a01b0381351690602001356105a6565b604080519115158252519081900360200190f35b610273610605565b60408051918252519081900360200190f35b61025761060b565b610257600480360360608110156102a357600080fd5b506001600160a01b0381358116916020810135909116906040013561061a565b6102cb61067b565b6040805160ff9092168252519081900360200190f35b610273610684565b610257600480360360408110156102ff57600080fd5b506001600160a01b03813516906020013561068a565b61031d6106e2565b005b6102576004803603604081101561033557600080fd5b506001600160a01b03813516906020013561072d565b61031d6004803603602081101561036157600080fd5b503561078c565b6102576107e8565b6102576004803603602081101561038657600080fd5b50356001600160a01b03166107f8565b610257610811565b61031d61081a565b610273600480360360208110156103bc57600080fd5b50356001600160a01b031661082a565b61031d600480360360408110156103e257600080fd5b506001600160a01b038135169060200135610845565b61031d6004803603602081101561040e57600080fd5b50356001600160a01b03166108a3565b61031d6108f7565b610257610948565b6101b6610956565b61031d6004803603602081101561044c57600080fd5b50356001600160a01b03166109b6565b61031d610a0a565b6102576004803603604081101561047a57600080fd5b506001600160a01b038135169060200135610a1a565b610257600480360360408110156104a657600080fd5b506001600160a01b038135169060200135610a72565b610257600480360360208110156104d257600080fd5b50356001600160a01b0316610aca565b610273600480360360408110156104f857600080fd5b506001600160a01b0381358116916020013516610add565b60008054604080516020601f600260001961010060018816150201909516949094049384018190048102820181019092528281526060939092909183018282801561059c5780601f106105715761010080835404028352916020019161059c565b820191906000526020600020905b81548152906001019060200180831161057f57829003601f168201915b5050505050905090565b60095460009060ff16156105f4576040805162461bcd60e51b815260206004820152601060248201526f14185d5cd8589b194e881c185d5cd95960821b604482015290519081900360640190fd5b6105fe8383610b08565b9392505050565b60055490565b60095462010000900460ff1681565b60095460009060ff1615610668576040805162461bcd60e51b815260206004820152601060248201526f14185d5cd8589b194e881c185d5cd95960821b604482015290519081900360640190fd5b610673848484610b25565b949350505050565b60025460ff1690565b60075490565b60095460009060ff16156106d8576040805162461bcd60e51b815260206004820152601060248201526f14185d5cd8589b194e881c185d5cd95960821b604482015290519081900360640190fd5b6105fe8383610bb2565b600954640100000000900460ff1661072b5760405162461bcd60e51b815260040180806020018281038252602981526020018061186a6029913960400191505060405180910390fd5b565b6009546000906301000000900460ff16610782576040805162461bcd60e51b8152602060048201526011602482015270436f696e206e6f74206d696e7461626c6560781b604482015290519081900360640190fd5b6105fe8383610c06565b600954610100900460ff166107dc576040805162461bcd60e51b8152602060048201526011602482015270436f696e206e6f74206275726e61626c6560781b604482015290519081900360640190fd5b6107e581610c58565b50565b6009546301000000900460ff1681565b600061080b60088363ffffffff610c6916565b92915050565b60095460ff1690565b61072b610825610cd0565b610cd4565b6001600160a01b031660009081526003602052604090205490565b600954610100900460ff16610895576040805162461bcd60e51b8152602060048201526011602482015270436f696e206e6f74206275726e61626c6560781b604482015290519081900360640190fd5b61089f8282610d1c565b5050565b6108b36108ae610cd0565b6107f8565b6108ee5760405162461bcd60e51b81526004018080602001828103825260308152602001806116c96030913960400191505060405180910390fd5b6107e581610d26565b600954640100000000900460ff166109405760405162461bcd60e51b815260040180806020018281038252602981526020018061186a6029913960400191505060405180910390fd5b61072b610d6e565b600954610100900460ff1681565b60018054604080516020601f6002600019610100878916150201909516949094049384018190048102820181019092528281526060939092909183018282801561059c5780601f106105715761010080835404028352916020019161059c565b6109c66109c1610cd0565b610aca565b610a015760405162461bcd60e51b81526004018080602001828103825260308152602001806117416030913960400191505060405180910390fd5b6107e581610e52565b61072b610a15610cd0565b610e9a565b60095460009060ff1615610a68576040805162461bcd60e51b815260206004820152601060248201526f14185d5cd8589b194e881c185d5cd95960821b604482015290519081900360640190fd5b6105fe8383610ee2565b60095460009060ff1615610ac0576040805162461bcd60e51b815260206004820152601060248201526f14185d5cd8589b194e881c185d5cd95960821b604482015290519081900360640190fd5b6105fe8383610f50565b600061080b60068363ffffffff610c6916565b6001600160a01b03918216600090815260046020908152604080832093909416825291909152205490565b6000610b1c610b15610cd0565b8484610f64565b50600192915050565b6000610b32848484611050565b610ba884610b3e610cd0565b610ba385604051806060016040528060288152602001611792602891396001600160a01b038a16600090815260046020526040812090610b7c610cd0565b6001600160a01b03168152602081019190915260400160002054919063ffffffff6111ae16565b610f64565b5060019392505050565b6000610b1c610bbf610cd0565b84610ba38560046000610bd0610cd0565b6001600160a01b03908116825260208083019390935260409182016000908120918c16815292529020549063ffffffff61124516565b6000610c136109c1610cd0565b610c4e5760405162461bcd60e51b81526004018080602001828103825260308152602001806117416030913960400191505060405180910390fd5b610b1c838361129f565b6107e5610c63610cd0565b82611317565b60006001600160a01b038216610cb05760405162461bcd60e51b81526004018080602001828103825260228152602001806117ba6022913960400191505060405180910390fd5b506001600160a01b03166000908152602091909152604090205460ff1690565b3390565b610ce560088263ffffffff61141316565b6040516001600160a01b038216907fcd265ebaf09df2871cc7bd4133404a235ba12eff2041bb89d9c714a2621c7c7e90600090a250565b61089f828261147a565b610d3760088263ffffffff6114ce16565b6040516001600160a01b038216907f6719d08c1888103bea251a4ed56406bd0c3e69723c8a1686e017e7bbe159b6f890600090a250565b610d796108ae610cd0565b610db45760405162461bcd60e51b81526004018080602001828103825260308152602001806116c96030913960400191505060405180910390fd5b60095460ff1615610dff576040805162461bcd60e51b815260206004820152601060248201526f14185d5cd8589b194e881c185d5cd95960821b604482015290519081900360640190fd5b6009805460ff191660011790557f62e78cea01bee320cd4e420270b5ea74000d11b0c9f74754ebdbfc544b05a258610e35610cd0565b604080516001600160a01b039092168252519081900360200190a1565b610e6360068263ffffffff6114ce16565b6040516001600160a01b038216907f6ae172837ea30b801fbfcdd4108aa1d5bf8ff775444fd70256b44e6bf3dfc3f690600090a250565b610eab60068263ffffffff61141316565b6040516001600160a01b038216907fe94479a9f7e1952cc78f2d6baab678adc1b772d936c6583def489e524cb6669290600090a250565b6000610b1c610eef610cd0565b84610ba3856040518060600160405280602581526020016118936025913960046000610f19610cd0565b6001600160a01b03908116825260208083019390935260409182016000908120918d1681529252902054919063ffffffff6111ae16565b6000610b1c610f5d610cd0565b8484611050565b6001600160a01b038316610fa95760405162461bcd60e51b81526004018080602001828103825260248152602001806118466024913960400191505060405180910390fd5b6001600160a01b038216610fee5760405162461bcd60e51b81526004018080602001828103825260228152602001806116f96022913960400191505060405180910390fd5b6001600160a01b03808416600081815260046020908152604080832094871680845294825291829020859055815185815291517f8c5be1e5ebec7d5bd14f71427d1e84f3dd0314c0f7b2291e5b200ac8c7c3b9259281900390910190a3505050565b6001600160a01b0383166110955760405162461bcd60e51b81526004018080602001828103825260258152602001806118216025913960400191505060405180910390fd5b6001600160a01b0382166110da5760405162461bcd60e51b81526004018080602001828103825260238152602001806116846023913960400191505060405180910390fd5b61111d8160405180606001604052806026815260200161171b602691396001600160a01b038616600090815260036020526040902054919063ffffffff6111ae16565b6001600160a01b038085166000908152600360205260408082209390935590841681522054611152908263ffffffff61124516565b6001600160a01b0380841660008181526003602090815260409182902094909455805185815290519193928716927fddf252ad1be2c89b69c2b068fc378daa952ba7f163c4a11628f55a4df523b3ef92918290030190a3505050565b6000818484111561123d5760405162461bcd60e51b81526004018080602001828103825283818151815260200191508051906020019080838360005b838110156112025781810151838201526020016111ea565b50505050905090810190601f16801561122f5780820380516001836020036101000a031916815260200191505b509250505060405180910390fd5b505050900390565b6000828201838110156105fe576040805162461bcd60e51b815260206004820152601b60248201527f536166654d6174683a206164646974696f6e206f766572666c6f770000000000604482015290519081900360640190fd5b6007546112ba826112ae610605565b9063ffffffff61124516565b111561130d576040805162461bcd60e51b815260206004820152601960248201527f45524332304361707065643a2063617020657863656564656400000000000000604482015290519081900360640190fd5b61089f828261154f565b6001600160a01b03821661135c5760405162461bcd60e51b81526004018080602001828103825260218152602001806118006021913960400191505060405180910390fd5b61139f816040518060600160405280602281526020016116a7602291396001600160a01b038516600090815260036020526040902054919063ffffffff6111ae16565b6001600160a01b0383166000908152600360205260409020556005546113cb908263ffffffff61164116565b6005556040805182815290516000916001600160a01b038516917fddf252ad1be2c89b69c2b068fc378daa952ba7f163c4a11628f55a4df523b3ef9181900360200190a35050565b61141d8282610c69565b6114585760405162461bcd60e51b81526004018080602001828103825260218152602001806117716021913960400191505060405180910390fd5b6001600160a01b0316600090815260209190915260409020805460ff19169055565b6114848282611317565b61089f82611490610cd0565b610ba3846040518060600160405280602481526020016117dc602491396001600160a01b038816600090815260046020526040812090610b7c610cd0565b6114d88282610c69565b1561152a576040805162461bcd60e51b815260206004820152601f60248201527f526f6c65733a206163636f756e7420616c72656164792068617320726f6c6500604482015290519081900360640190fd5b6001600160a01b0316600090815260209190915260409020805460ff19166001179055565b6001600160a01b0382166115aa576040805162461bcd60e51b815260206004820152601f60248201527f45524332303a206d696e7420746f20746865207a65726f206164647265737300604482015290519081900360640190fd5b6005546115bd908263ffffffff61124516565b6005556001600160a01b0382166000908152600360205260409020546115e9908263ffffffff61124516565b6001600160a01b03831660008181526003602090815260408083209490945583518581529351929391927fddf252ad1be2c89b69c2b068fc378daa952ba7f163c4a11628f55a4df523b3ef9281900390910190a35050565b60006105fe83836040518060400160405280601e81526020017f536166654d6174683a207375627472616374696f6e206f766572666c6f7700008152506111ae56fe45524332303a207472616e7366657220746f20746865207a65726f206164647265737345524332303a206275726e20616d6f756e7420657863656564732062616c616e6365506175736572526f6c653a2063616c6c657220646f6573206e6f742068617665207468652050617573657220726f6c6545524332303a20617070726f766520746f20746865207a65726f206164647265737345524332303a207472616e7366657220616d6f756e7420657863656564732062616c616e63654d696e746572526f6c653a2063616c6c657220646f6573206e6f74206861766520746865204d696e74657220726f6c65526f6c65733a206163636f756e7420646f6573206e6f74206861766520726f6c6545524332303a207472616e7366657220616d6f756e74206578636565647320616c6c6f77616e6365526f6c65733a206163636f756e7420697320746865207a65726f206164647265737345524332303a206275726e20616d6f756e74206578636565647320616c6c6f77616e636545524332303a206275726e2066726f6d20746865207a65726f206164647265737345524332303a207472616e736665722066726f6d20746865207a65726f206164647265737345524332303a20617070726f76652066726f6d20746865207a65726f2061646472657373746869732066756e6374696f6e2063616e206f6e6c792062652072756e206f6e206372656174696f6e45524332303a2064656372656173656420616c6c6f77616e63652062656c6f77207a65726fa265627a7a723158207f24019868fe24143a72d8ebefdcd1d5d75b95604846a7b03ef551d4fcff290364736f6c63430005110032506175736572526f6c653a2063616c6c657220646f6573206e6f742068617665207468652050617573657220726f6c65526f6c65733a206163636f756e7420697320746865207a65726f2061646472657373746869732066756e6374696f6e2063616e206f6e6c792062652072756e206f6e206372656174696f6e",
  "source": "pragma solidity ^0.5.17;\n\nimport \"@openzeppelin/contracts/token/ERC20/ERC20Detailed.sol\";\nimport \"@openzeppelin/contracts/token/ERC20/ERC20Mintable.sol\";\nimport \"@openzeppelin/contracts/token/ERC20/ERC20Burnable.sol\";\nimport \"@openzeppelin/contracts/token/ERC20/ERC20Capped.sol\";\nimport \"@openzeppelin/contracts/token/ERC20/ERC20Pausable.sol\";\n\n/**\n * @title ERC20Plus\n * @dev ERC20 Token, where all tokens (INITIAL_SUPPLY) are pre-assigned to the creator.\n * Note they can later distribute these tokens as they wish using `transfer` and other\n * `ERC20` functions.\n * Depending on the parameters provided, this token can be mintable, burnable and/or\n * pausable (non-transferable).\n */\ncontract ERC20Plus is ERC20Detailed, ERC20Mintable, ERC20Burnable, ERC20Pausable {\n\n    bool public isBurnable;\n    bool public isTransferable;\n    bool public isMintable;\n\n    bool private constructing = true;\n\n    /**\n     * @dev Burns a specific amount of tokens.\n     * @param value The amount of token to be burned.\n     */\n    function burn(uint256 value) public {\n        // Checks whether token is burnable before minting\n        require(isBurnable, \"Coin not burnable\");\n        super.burn(value);\n    }\n\n    /**\n     * @dev Burns a specific amount of tokens from the target address and decrements allowance\n     * @param from address The address which you want to send tokens from\n     * @param value uint256 The amount of token to be burned\n     */\n    function burnFrom(address from, uint256 value) public {\n        // Checks whether token is burnable before minting\n        require(isBurnable, \"Coin not burnable\");\n        super.burnFrom(from, value);\n    }\n\n    /**\n     * @dev Function to mint tokens\n     * @param to The address that will receive the minted tokens.\n     * @param value The amount of tokens to mint.\n     * @return A boolean that indicates if the operation was successful.\n     */\n    function mint(address to, uint256 value) public returns (bool) {\n        // Checks whether token is mintable before minting\n        require(isMintable, \"Coin not mintable\");\n        return super.mint(to, value);\n    }\n\n    /**\n     * @dev called by the owner to pause, triggers stopped state.\n     * This means functions transfer, transferFrom, approve, increaseAllowance,\n     * and decreasAllowance, will not execute.\n     */\n    function pause() public{\n        // Checks whether token is being constructed, throws exception if not\n        require(constructing, \"this function can only be run on creation\");\n        super.pause();\n    }\n\n     /**\n     * @dev This will undo pause(). The purpose of this declaration is to\n     * disable this function, as this function must not be called (unless\n     * making an untransferable token transferable again is wanted, but\n     * this is currently not an offered feature).\n     */\n    function unpause() public{\n        // Checks whether token is being constructed, throws exception if not\n        require(constructing, \"this function can only be run on creation\");\n    }\n\n    constructor(\n        string memory name_,\n        string memory symbol_,\n        uint8 decimals_,\n        address minter,\n        bool isBurnable_,\n        bool isTransferable_,\n        bool isMintable_,\n        uint initialSupply,\n        address initialSupplyOwner\n        )\n            ERC20Detailed(name_, symbol_, decimals_)\n            ERC20Mintable()\n            ERC20Burnable()\n            ERC20Pausable()\n            ERC20()\n            public\n    {\n        isBurnable = isBurnable_;\n        isTransferable = isTransferable_;\n        isMintable = isMintable_;\n        if(!isTransferable_){\n            pause();\n        }\n        if(address(minter) != address(0)) {\n            _addMinter(minter);\n        }\n        if (initialSupplyOwner == address(0)) {\n            _mint(msg.sender, initialSupply);\n        } else {\n            _mint(initialSupplyOwner, initialSupply);\n        }\n        // To indicate construction is over, and block pause() and unpause()\n        // from being used\n        constructing = false;\n    }\n}\n\n/**\n * @title ERC20PlusCapped\n * @dev ERC20 Token, which acts very similarly to ERC20Plus, but with the\n * exception that it has a cap.\n */\ncontract ERC20PlusCapped is ERC20Capped, ERC20Plus {\n\n    constructor(\n        string memory name_,\n        string memory symbol_,\n        uint8 decimals_,\n        address minter,\n        bool isBurnable_,\n        uint cap_,\n        bool isTransferable_,\n        bool isMintable_,\n        uint initialSupply,\n        address initialSupplyOwner\n        )\n            public\n            // ERC20Capped constructor\n            ERC20Capped(cap_)\n            // ERC20Plus constructor\n            ERC20Plus(\n                name_,\n                symbol_,\n                decimals_,\n                minter,\n                isBurnable_,\n                isTransferable_,\n                isMintable_,\n                initialSupply,\n                initialSupplyOwner)\n    {\n    }\n}",
  "sourcePath": "/home/cantonioupao/susDAO-saveMe/FIN4Contracts/contracts/tokens/ERC20Plus.sol",
  "compiler": {
    "name": "solc",
    "version": "0.5.17+commit.d19bba13.Emscripten.clang"
  },
  "schemaVersion": "3.3.1",
  "updatedAt": "2020-12-03T18:31:09.912Z",
  "devdoc": {
    "details": "ERC20 Token, which acts very similarly to ERC20Plus, but with the exception that it has a cap.",
    "methods": {
      "allowance(address,address)": {
        "details": "See {IERC20-allowance}."
      },
      "balanceOf(address)": {
        "details": "See {IERC20-balanceOf}."
      },
      "burn(uint256)": {
        "details": "Burns a specific amount of tokens.",
        "params": {
          "value": "The amount of token to be burned."
        }
      },
      "burnFrom(address,uint256)": {
        "details": "Burns a specific amount of tokens from the target address and decrements allowance",
        "params": {
          "from": "address The address which you want to send tokens from",
          "value": "uint256 The amount of token to be burned"
        }
      },
      "cap()": {
        "details": "Returns the cap on the token's total supply."
      },
      "decimals()": {
        "details": "Returns the number of decimals used to get its user representation. For example, if `decimals` equals `2`, a balance of `505` tokens should be displayed to a user as `5,05` (`505 / 10 ** 2`).     * Tokens usually opt for a value of 18, imitating the relationship between Ether and Wei.     * NOTE: This information is only used for _display_ purposes: it in no way affects any of the arithmetic of the contract, including {IERC20-balanceOf} and {IERC20-transfer}."
      },
      "mint(address,uint256)": {
        "details": "Function to mint tokens",
        "params": {
          "to": "The address that will receive the minted tokens.",
          "value": "The amount of tokens to mint."
        },
        "return": "A boolean that indicates if the operation was successful."
      },
      "name()": {
        "details": "Returns the name of the token."
      },
      "pause()": {
        "details": "called by the owner to pause, triggers stopped state. This means functions transfer, transferFrom, approve, increaseAllowance, and decreasAllowance, will not execute."
      },
      "paused()": {
        "details": "Returns true if the contract is paused, and false otherwise."
      },
      "symbol()": {
        "details": "Returns the symbol of the token, usually a shorter version of the name."
      },
      "totalSupply()": {
        "details": "See {IERC20-totalSupply}."
      },
      "unpause()": {
        "details": "This will undo pause(). The purpose of this declaration is to disable this function, as this function must not be called (unless making an untransferable token transferable again is wanted, but this is currently not an offered feature)."
      }
    },
    "title": "ERC20PlusCapped"
  },
  "userdoc": {
    "methods": {}
  }
}