{
  "contractName": "Fin4TokenCreator",
  "abi": [
    {
      "inputs": [
        {
          "internalType": "address",
          "name": "Fin4ClaimingAddr",
          "type": "address"
        },
        {
          "internalType": "address",
          "name": "Fin4TokenManagementAddr",
          "type": "address"
        },
        {
          "internalType": "address",
          "name": "Fin4UnderlyingsAddr",
          "type": "address"
        }
      ],
      "payable": false,
      "stateMutability": "nonpayable",
      "type": "constructor"
    },
    {
      "anonymous": false,
      "inputs": [
        {
          "indexed": false,
          "internalType": "address",
          "name": "tokenAddress",
          "type": "address"
        }
      ],
      "name": "NewFin4TokenAddress",
      "type": "event"
    },
    {
      "constant": true,
      "inputs": [],
      "name": "Fin4ClaimingAddress",
      "outputs": [
        {
          "internalType": "address",
          "name": "",
          "type": "address"
        }
      ],
      "payable": false,
      "stateMutability": "view",
      "type": "function"
    },
    {
      "constant": true,
      "inputs": [],
      "name": "Fin4TokenManagementAddress",
      "outputs": [
        {
          "internalType": "address",
          "name": "",
          "type": "address"
        }
      ],
      "payable": false,
      "stateMutability": "view",
      "type": "function"
    },
    {
      "constant": true,
      "inputs": [],
      "name": "Fin4UnderlyingsAddress",
      "outputs": [
        {
          "internalType": "address",
          "name": "",
          "type": "address"
        }
      ],
      "payable": false,
      "stateMutability": "view",
      "type": "function"
    },
    {
      "constant": true,
      "inputs": [
        {
          "internalType": "string",
          "name": "",
          "type": "string"
        }
      ],
      "name": "symbolIsUsed",
      "outputs": [
        {
          "internalType": "bool",
          "name": "",
          "type": "bool"
        }
      ],
      "payable": false,
      "stateMutability": "view",
      "type": "function"
    },
    {
      "constant": true,
      "inputs": [
        {
          "internalType": "string",
          "name": "name",
          "type": "string"
        }
      ],
      "name": "nameCheck",
      "outputs": [
        {
          "internalType": "string",
          "name": "",
          "type": "string"
        }
      ],
      "payable": false,
      "stateMutability": "pure",
      "type": "function"
    },
    {
      "constant": true,
      "inputs": [
        {
          "internalType": "string",
          "name": "symbol",
          "type": "string"
        }
      ],
      "name": "symbolCheck",
      "outputs": [
        {
          "internalType": "string",
          "name": "",
          "type": "string"
        }
      ],
      "payable": false,
      "stateMutability": "view",
      "type": "function"
    },
    {
      "constant": false,
      "inputs": [
        {
          "internalType": "address",
          "name": "tokenAddress",
          "type": "address"
        },
        {
          "internalType": "address[]",
          "name": "requiredVerifierTypes",
          "type": "address[]"
        },
        {
          "internalType": "address[]",
          "name": "minterRoles",
          "type": "address[]"
        },
        {
          "internalType": "string",
          "name": "description",
          "type": "string"
        },
        {
          "internalType": "string",
          "name": "actionsText",
          "type": "string"
        },
        {
          "internalType": "uint256",
          "name": "fixedAmount",
          "type": "uint256"
        },
        {
          "internalType": "string",
          "name": "unit",
          "type": "string"
        },
        {
          "internalType": "bytes32[]",
          "name": "underlyingNames",
          "type": "bytes32[]"
        }
      ],
      "name": "postCreationSteps",
      "outputs": [],
      "payable": false,
      "stateMutability": "nonpayable",
      "type": "function"
    }
  ],
  "bytecode": "0x608060405234801561001057600080fd5b5060405161108f38038061108f8339818101604052606081101561003357600080fd5b5080516020820151604090920151600080546001600160a01b039384166001600160a01b03199182161790915560018054948416948216949094179093556002805492909116919092161790556110008061008f6000396000f3fe608060405234801561001057600080fd5b506004361061007d5760003560e01c806374a98b881161005b57806374a98b88146102635780637573f288146105b2578063ab96f8d61461066a578063c35ce6f0146106725761007d565b8063280a9de514610082578063409f952c1461019b5780634764306f1461023f575b600080fd5b6101266004803603602081101561009857600080fd5b810190602081018135600160201b8111156100b257600080fd5b8201836020820111156100c457600080fd5b803590602001918460018302840111600160201b831117156100e557600080fd5b91908080601f01602080910402602001604051908101604052809392919081815260200183838082843760009201919091525092955061067a945050505050565b6040805160208082528351818301528351919283929083019185019080838360005b83811015610160578181015183820152602001610148565b50505050905090810190601f16801561018d5780820380516001836020036101000a031916815260200191505b509250505060405180910390f35b610126600480360360208110156101b157600080fd5b810190602081018135600160201b8111156101cb57600080fd5b8201836020820111156101dd57600080fd5b803590602001918460018302840111600160201b831117156101fe57600080fd5b91908080601f0160208091040260200160405190810160405280939291908181526020018383808284376000920191909152509295506106de945050505050565b610247610805565b604080516001600160a01b039092168252519081900360200190f35b6105b0600480360361010081101561027a57600080fd5b6001600160a01b038235169190810190604081016020820135600160201b8111156102a457600080fd5b8201836020820111156102b657600080fd5b803590602001918460208302840111600160201b831117156102d757600080fd5b9190808060200260200160405190810160405280939291908181526020018383602002808284376000920191909152509295949360208101935035915050600160201b81111561032657600080fd5b82018360208201111561033857600080fd5b803590602001918460208302840111600160201b8311171561035957600080fd5b9190808060200260200160405190810160405280939291908181526020018383602002808284376000920191909152509295949360208101935035915050600160201b8111156103a857600080fd5b8201836020820111156103ba57600080fd5b803590602001918460018302840111600160201b831117156103db57600080fd5b91908080601f0160208091040260200160405190810160405280939291908181526020018383808284376000920191909152509295949360208101935035915050600160201b81111561042d57600080fd5b82018360208201111561043f57600080fd5b803590602001918460018302840111600160201b8311171561046057600080fd5b91908080601f01602080910402602001604051908101604052809392919081815260200183838082843760009201919091525092958435959094909350604081019250602001359050600160201b8111156104ba57600080fd5b8201836020820111156104cc57600080fd5b803590602001918460018302840111600160201b831117156104ed57600080fd5b91908080601f0160208091040260200160405190810160405280939291908181526020018383808284376000920191909152509295949360208101935035915050600160201b81111561053f57600080fd5b82018360208201111561055157600080fd5b803590602001918460208302840111600160201b8311171561057257600080fd5b919080806020026020016040519081016040528093929190818152602001838360200280828437600092019190915250929550610814945050505050565b005b610656600480360360208110156105c857600080fd5b810190602081018135600160201b8111156105e257600080fd5b8201836020820111156105f457600080fd5b803590602001918460018302840111600160201b8311171561061557600080fd5b91908080601f016020809104026020016040519081016040528093929190818152602001838380828437600092019190915250929550610eb2945050505050565b604080519115158252519081900360200190f35b610247610ed2565b610247610ee1565b6060600061068783610ef0565b9050600081116106d4576040805162461bcd60e51b81526020600482015260136024820152724e616d652063616e277420626520656d70747960681b604482015290519081900360640190fd5b829150505b919050565b606060006106eb83610ef0565b9050600381101580156106ff575060058111155b61073a5760405162461bcd60e51b815260040180806020018281038252602b815260200180610fa1602b913960400191505060405180910390fd5b606061074584610ef4565b90506003816040518082805190602001908083835b602083106107795780518252601f19909201916020918201910161075a565b51815160209384036101000a600019018019909216911617905292019485525060405193849003019092205460ff161591506107fe9050576040805162461bcd60e51b815260206004820152601860248201527f53796d626f6c20697320616c726561647920696e207573650000000000000000604482015290519081900360640190fd5b9392505050565b6000546001600160a01b031681565b6000889050806001600160a01b03166379f60f1d89896040518363ffffffff1660e01b8152600401808060200180602001838103835285818151815260200191508051906020019060200280838360005b8381101561087d578181015183820152602001610865565b50505050905001838103825284818151815260200191508051906020019060200280838360005b838110156108bc5781810151838201526020016108a4565b50505050905001945050505050600060405180830381600087803b1580156108e357600080fd5b505af11580156108f7573d6000803e3d6000fd5b50506002546001600160a01b03161591506109ba905057600254604080516392bd272760e01b81526001600160a01b038c8116600483019081526024830193845286516044840152865191909416936392bd2727938e9388936064909101906020808601910280838360005b8381101561097b578181015183820152602001610963565b505050509050019350505050600060405180830381600087803b1580156109a157600080fd5b505af11580156109b5573d6000803e3d6000fd5b505050505b6000805b8851811015610a8b57826001600160a01b031663983b2d568a83815181106109e257fe5b60200260200101516040518263ffffffff1660e01b815260040180826001600160a01b03166001600160a01b03168152602001915050600060405180830381600087803b158015610a3257600080fd5b505af1158015610a46573d6000803e3d6000fd5b50506000548b516001600160a01b0390911692508b915083908110610a6757fe5b60200260200101516001600160a01b03161415610a8357600191505b6001016109be565b50816001600160a01b031663986502756040518163ffffffff1660e01b8152600401600060405180830381600087803b158015610ac757600080fd5b505af1158015610adb573d6000803e3d6000fd5b50505050816001600160a01b031663330e17176000809054906101000a90046001600160a01b0316838a8a8a8a6040518763ffffffff1660e01b815260040180876001600160a01b03166001600160a01b0316815260200186151515158152602001806020018060200185815260200180602001848103845288818151815260200191508051906020019080838360005b83811015610b84578181015183820152602001610b6c565b50505050905090810190601f168015610bb15780820380516001836020036101000a031916815260200191505b50848103835287518152875160209182019189019080838360005b83811015610be4578181015183820152602001610bcc565b50505050905090810190601f168015610c115780820380516001836020036101000a031916815260200191505b50848103825285518152855160209182019187019080838360005b83811015610c44578181015183820152602001610c2c565b50505050905090810190601f168015610c715780820380516001836020036101000a031916815260200191505b509950505050505050505050600060405180830381600087803b158015610c9757600080fd5b505af1158015610cab573d6000803e3d6000fd5b5050505060016003836001600160a01b03166395d89b416040518163ffffffff1660e01b815260040160006040518083038186803b158015610cec57600080fd5b505afa158015610d00573d6000803e3d6000fd5b505050506040513d6000823e601f3d908101601f191682016040526020811015610d2957600080fd5b8101908080516040519392919084600160201b821115610d4857600080fd5b908301906020820185811115610d5d57600080fd5b8251600160201b811182820188101715610d7657600080fd5b82525081516020918201929091019080838360005b83811015610da3578181015183820152602001610d8b565b50505050905090810190601f168015610dd05780820380516001836020036101000a031916815260200191505b506040525050506040518082805190602001908083835b60208310610e065780518252601f199092019160209182019101610de7565b51815160209384036101000a600019018019909216911617905292019485525060408051948590039091018420805460ff191695151595909517909455505060015463197cce8160e31b82526001600160a01b038581166004840152925192169163cbe674089160248082019260009290919082900301818387803b158015610e8e57600080fd5b505af1158015610ea2573d6000803e3d6000fd5b5050505050505050505050505050565b805160208183018101805160038252928201919093012091525460ff1681565b6001546001600160a01b031681565b6002546001600160a01b031681565b5190565b60608160005b8151811015610f5157610f26828281518110610f1257fe5b01602001516001600160f81b031916610f58565b828281518110610f3257fe5b60200101906001600160f81b031916908160001a905350600101610efa565b5092915050565b6000606160f81b6001600160f81b0319831610801590610f865750603d60f91b6001600160f81b0319831611155b15610f9c5760208260f81c0360f81b90506106d9565b509056fe53796d626f6c206d7573742068617665206265747765656e203320616e6420352063686172616374657273a265627a7a72315820f5a771aaf34b6eb70515adbade027fddba346d20a3ec15227d5e64b2ee1a69c764736f6c63430005110032",
  "source": "pragma solidity ^0.5.17;\n\nimport 'contracts/Fin4Token.sol';\nimport 'contracts/Fin4TokenManagement.sol';\nimport \"solidity-util/lib/Strings.sol\";\nimport \"contracts/Fin4Underlyings.sol\";\n\ncontract Fin4TokenCreator {\n\n    // This event is only to be able to get the address of the new token into the frontend as return value of send()\n    // The \"real\" new-token event is emitted from Fin4TokenManagement.registerNewToken()\n    event NewFin4TokenAddress(address tokenAddress);\n\n    using Strings for string;\n\n    address public Fin4ClaimingAddress;\n    address public Fin4TokenManagementAddress;\n    address public Fin4UnderlyingsAddress;\n\n    mapping (string => bool) public symbolIsUsed;\n\n    constructor(address Fin4ClaimingAddr, address Fin4TokenManagementAddr, address Fin4UnderlyingsAddr) public {\n        Fin4ClaimingAddress = Fin4ClaimingAddr;\n        Fin4TokenManagementAddress = Fin4TokenManagementAddr;\n        Fin4UnderlyingsAddress = Fin4UnderlyingsAddr;\n    }\n\n    // these two methods are propbably super costly\n\n    function nameCheck(string memory name) public pure returns(string memory) {\n        uint len = name.length();\n        require(len > 0, \"Name can't be empty\");\n        return name;\n    }\n\n    function symbolCheck(string memory symbol) public view returns(string memory) {\n        uint len = symbol.length();\n        require(len >= 3 && len <= 5, \"Symbol must have between 3 and 5 characters\");\n        string memory sym = symbol.upper();\n        require(!symbolIsUsed[sym], \"Symbol is already in use\");\n        return sym;\n    }\n\n    function postCreationSteps(address tokenAddress, address[] memory requiredVerifierTypes, address[] memory minterRoles,\n        string memory description, string memory actionsText, uint fixedAmount, string memory unit, bytes32[] memory underlyingNames) public {\n\n        Fin4TokenBase token = Fin4TokenBase(tokenAddress);\n        token.storeVerifierTypesAndMinters(requiredVerifierTypes, minterRoles);\n\n        if (Fin4UnderlyingsAddress != address(0)) {\n            // also sets tokenIsConstructing to false\n            Fin4Underlyings(Fin4UnderlyingsAddress).registerUnderlyingsWithToken(tokenAddress, underlyingNames);\n        }\n\n        bool Fin4ClaimingHasMinterRole = false;\n        for (uint i = 0; i < minterRoles.length; i++) {\n            token.addMinter(minterRoles[i]);\n            if (minterRoles[i] == Fin4ClaimingAddress) {\n                Fin4ClaimingHasMinterRole = true;\n            }\n        }\n        token.renounceMinter(); // Fin4(Un)cappedTokenCreator should not have the MinterRole on tokens\n                                // TODO unless it was given explicitely in this array?\n\n        token.init(Fin4ClaimingAddress, Fin4ClaimingHasMinterRole, description, actionsText, fixedAmount, unit);\n        symbolIsUsed[token.symbol()] = true;\n\n        Fin4TokenManagement(Fin4TokenManagementAddress).registerNewToken(address(token));\n    }\n}\n\ncontract Fin4UncappedTokenCreator is Fin4TokenCreator {\n\n    constructor(address Fin4ClaimingAddr, address Fin4TokenManagementAddr, address Fin4UnderlyingsAddr)\n    Fin4TokenCreator(Fin4ClaimingAddr, Fin4TokenManagementAddr, Fin4UnderlyingsAddr)\n    public {}\n\n    function createNewToken(string memory name, string memory symbol, bool[] memory properties,\n        uint[] memory values, address initialSupplyOwner) public {\n\n        Fin4TokenBase token = new Fin4Token(nameCheck(name), symbolCheck(symbol), msg.sender,\n            properties[0], properties[1], properties[2], uint8(values[0]), values[1], initialSupplyOwner);\n\n        emit NewFin4TokenAddress(address(token));\n    }\n}\n\ncontract Fin4CappedTokenCreator is Fin4TokenCreator {\n\n    constructor(address Fin4ClaimingAddr, address Fin4TokenManagementAddr, address Fin4UnderlyingsAddr)\n    Fin4TokenCreator(Fin4ClaimingAddr, Fin4TokenManagementAddr, Fin4UnderlyingsAddr)\n    public {}\n\n    function createNewToken(string memory name, string memory symbol, bool[] memory properties,\n        uint[] memory values, address initialSupplyOwner) public {\n\n        Fin4TokenBase token = new Fin4TokenCapped(nameCheck(name), symbolCheck(symbol), msg.sender,\n            properties[0], properties[1], properties[2], uint8(values[0]), values[1], values[2], initialSupplyOwner);\n\n        emit NewFin4TokenAddress(address(token));\n    }\n}\n",
  "sourcePath": "/home/cantonioupao/susDAO-saveMe/FIN4Contracts/contracts/Fin4TokenCreator.sol",
  "compiler": {
    "name": "solc",
    "version": "0.5.17+commit.d19bba13.Emscripten.clang"
  },
  "schemaVersion": "3.3.1",
  "updatedAt": "2020-12-03T18:27:58.842Z",
  "devdoc": {
    "methods": {}
  },
  "userdoc": {
    "methods": {}
  }
}