{
  "contractName": "Fin4Main",
  "abi": [
    {
      "inputs": [],
      "payable": false,
      "stateMutability": "nonpayable",
      "type": "constructor"
    },
    {
      "constant": true,
      "inputs": [],
      "name": "Fin4CappedTokenCreatorAddress",
      "outputs": [
        {
          "internalType": "address",
          "name": "",
          "type": "address"
        }
      ],
      "payable": false,
      "stateMutability": "view",
      "type": "function"
    },
    {
      "constant": true,
      "inputs": [],
      "name": "Fin4ClaimingAddress",
      "outputs": [
        {
          "internalType": "address",
          "name": "",
          "type": "address"
        }
      ],
      "payable": false,
      "stateMutability": "view",
      "type": "function"
    },
    {
      "constant": true,
      "inputs": [],
      "name": "Fin4CollectionsAddress",
      "outputs": [
        {
          "internalType": "address",
          "name": "",
          "type": "address"
        }
      ],
      "payable": false,
      "stateMutability": "view",
      "type": "function"
    },
    {
      "constant": true,
      "inputs": [],
      "name": "Fin4GroupsAddress",
      "outputs": [
        {
          "internalType": "address",
          "name": "",
          "type": "address"
        }
      ],
      "payable": false,
      "stateMutability": "view",
      "type": "function"
    },
    {
      "constant": true,
      "inputs": [],
      "name": "Fin4MainCreator",
      "outputs": [
        {
          "internalType": "address",
          "name": "",
          "type": "address"
        }
      ],
      "payable": false,
      "stateMutability": "view",
      "type": "function"
    },
    {
      "constant": true,
      "inputs": [],
      "name": "Fin4MessagingAddress",
      "outputs": [
        {
          "internalType": "address",
          "name": "",
          "type": "address"
        }
      ],
      "payable": false,
      "stateMutability": "view",
      "type": "function"
    },
    {
      "constant": true,
      "inputs": [],
      "name": "Fin4SystemParametersAddress",
      "outputs": [
        {
          "internalType": "address",
          "name": "",
          "type": "address"
        }
      ],
      "payable": false,
      "stateMutability": "view",
      "type": "function"
    },
    {
      "constant": true,
      "inputs": [],
      "name": "Fin4TokenManagementAddress",
      "outputs": [
        {
          "internalType": "address",
          "name": "",
          "type": "address"
        }
      ],
      "payable": false,
      "stateMutability": "view",
      "type": "function"
    },
    {
      "constant": true,
      "inputs": [],
      "name": "Fin4UncappedTokenCreatorAddress",
      "outputs": [
        {
          "internalType": "address",
          "name": "",
          "type": "address"
        }
      ],
      "payable": false,
      "stateMutability": "view",
      "type": "function"
    },
    {
      "constant": true,
      "inputs": [],
      "name": "Fin4UnderlyingsAddress",
      "outputs": [
        {
          "internalType": "address",
          "name": "",
          "type": "address"
        }
      ],
      "payable": false,
      "stateMutability": "view",
      "type": "function"
    },
    {
      "constant": true,
      "inputs": [],
      "name": "Fin4VerifyingAddress",
      "outputs": [
        {
          "internalType": "address",
          "name": "",
          "type": "address"
        }
      ],
      "payable": false,
      "stateMutability": "view",
      "type": "function"
    },
    {
      "constant": true,
      "inputs": [],
      "name": "Fin4VotingAddress",
      "outputs": [
        {
          "internalType": "address",
          "name": "",
          "type": "address"
        }
      ],
      "payable": false,
      "stateMutability": "view",
      "type": "function"
    },
    {
      "constant": true,
      "inputs": [],
      "name": "GOVToken",
      "outputs": [
        {
          "internalType": "address",
          "name": "",
          "type": "address"
        }
      ],
      "payable": false,
      "stateMutability": "view",
      "type": "function"
    },
    {
      "constant": true,
      "inputs": [],
      "name": "PLCRVoting",
      "outputs": [
        {
          "internalType": "address",
          "name": "",
          "type": "address"
        }
      ],
      "payable": false,
      "stateMutability": "view",
      "type": "function"
    },
    {
      "constant": true,
      "inputs": [],
      "name": "Parameterizer",
      "outputs": [
        {
          "internalType": "address",
          "name": "",
          "type": "address"
        }
      ],
      "payable": false,
      "stateMutability": "view",
      "type": "function"
    },
    {
      "constant": true,
      "inputs": [],
      "name": "REPToken",
      "outputs": [
        {
          "internalType": "address",
          "name": "",
          "type": "address"
        }
      ],
      "payable": false,
      "stateMutability": "view",
      "type": "function"
    },
    {
      "constant": true,
      "inputs": [],
      "name": "Registry",
      "outputs": [
        {
          "internalType": "address",
          "name": "",
          "type": "address"
        }
      ],
      "payable": false,
      "stateMutability": "view",
      "type": "function"
    },
    {
      "constant": true,
      "inputs": [],
      "name": "foo",
      "outputs": [
        {
          "internalType": "uint256",
          "name": "",
          "type": "uint256"
        }
      ],
      "payable": false,
      "stateMutability": "view",
      "type": "function"
    },
    {
      "constant": false,
      "inputs": [
        {
          "internalType": "address",
          "name": "uncappedTokenCreator",
          "type": "address"
        },
        {
          "internalType": "address",
          "name": "cappedTokenCreator",
          "type": "address"
        },
        {
          "internalType": "address",
          "name": "tokenManagement",
          "type": "address"
        },
        {
          "internalType": "address",
          "name": "claiming",
          "type": "address"
        },
        {
          "internalType": "address",
          "name": "collections",
          "type": "address"
        },
        {
          "internalType": "address",
          "name": "messaging",
          "type": "address"
        },
        {
          "internalType": "address",
          "name": "verifying",
          "type": "address"
        },
        {
          "internalType": "address",
          "name": "groups",
          "type": "address"
        },
        {
          "internalType": "address",
          "name": "systemParameters",
          "type": "address"
        },
        {
          "internalType": "address",
          "name": "underlyings",
          "type": "address"
        },
        {
          "internalType": "address",
          "name": "fin4voting",
          "type": "address"
        }
      ],
      "name": "setSatelliteAddresses",
      "outputs": [],
      "payable": false,
      "stateMutability": "nonpayable",
      "type": "function"
    },
    {
      "constant": true,
      "inputs": [],
      "name": "getSatelliteAddresses",
      "outputs": [
        {
          "internalType": "address",
          "name": "",
          "type": "address"
        },
        {
          "internalType": "address",
          "name": "",
          "type": "address"
        },
        {
          "internalType": "address",
          "name": "",
          "type": "address"
        },
        {
          "internalType": "address",
          "name": "",
          "type": "address"
        },
        {
          "internalType": "address",
          "name": "",
          "type": "address"
        },
        {
          "internalType": "address",
          "name": "",
          "type": "address"
        },
        {
          "internalType": "address",
          "name": "",
          "type": "address"
        },
        {
          "internalType": "address",
          "name": "",
          "type": "address"
        },
        {
          "internalType": "address",
          "name": "",
          "type": "address"
        },
        {
          "internalType": "address",
          "name": "",
          "type": "address"
        },
        {
          "internalType": "address",
          "name": "",
          "type": "address"
        }
      ],
      "payable": false,
      "stateMutability": "view",
      "type": "function"
    },
    {
      "constant": false,
      "inputs": [
        {
          "internalType": "address",
          "name": "_REPToken",
          "type": "address"
        },
        {
          "internalType": "address",
          "name": "_GOVToken",
          "type": "address"
        },
        {
          "internalType": "address",
          "name": "_Registry",
          "type": "address"
        },
        {
          "internalType": "address",
          "name": "_PLCRVoting",
          "type": "address"
        },
        {
          "internalType": "address",
          "name": "_Parameterizer",
          "type": "address"
        }
      ],
      "name": "setTCRaddresses",
      "outputs": [],
      "payable": false,
      "stateMutability": "nonpayable",
      "type": "function"
    },
    {
      "constant": true,
      "inputs": [],
      "name": "getTCRaddresses",
      "outputs": [
        {
          "internalType": "address",
          "name": "",
          "type": "address"
        },
        {
          "internalType": "address",
          "name": "",
          "type": "address"
        },
        {
          "internalType": "address",
          "name": "",
          "type": "address"
        },
        {
          "internalType": "address",
          "name": "",
          "type": "address"
        },
        {
          "internalType": "address",
          "name": "",
          "type": "address"
        }
      ],
      "payable": false,
      "stateMutability": "view",
      "type": "function"
    },
    {
      "constant": false,
      "inputs": [
        {
          "internalType": "uint256",
          "name": "numb",
          "type": "uint256"
        }
      ],
      "name": "dev",
      "outputs": [],
      "payable": false,
      "stateMutability": "nonpayable",
      "type": "function"
    }
  ],
  "bytecode": "0x6080604052600360115534801561001557600080fd5b50600080546001600160a01b0319163317905561074d806100376000396000f3fe608060405234801561001057600080fd5b506004361061014d5760003560e01c806385477ac9116100c3578063c35ce6f01161007c578063c35ce6f0146102c8578063d62de19f146102d0578063d969e699146102d8578063e4306959146102e0578063e4ad4acd14610328578063e8309fd7146103305761014d565b806385477ac9146102195780639d4e4acb146102215780639d9f386414610229578063a6d0d27514610231578063ab96f8d6146102a6578063c2985578146102ae5761014d565b80634036e3b3116101155780634036e3b3146101d25780634764306f146101da5780635d02a2e4146101e25780637720e378146102015780637a3aa061146102095780637db9743b146102115761014d565b806304baa765146101525780632b3392f8146101765780632c9ada611461017e5780633297bf06146101c257806335adca88146101ca575b600080fd5b61015a6103ac565b604080516001600160a01b039092168252519081900360200190f35b61015a6103bb565b6101866103ca565b604080516001600160a01b0396871681529486166020860152928516848401529084166060840152909216608082015290519081900360a00190f35b61015a6103f5565b61015a610404565b61015a610413565b61015a610422565b6101ff600480360360208110156101f857600080fd5b5035610431565b005b61015a61047c565b61015a61048b565b61015a61049a565b61015a6104a9565b61015a6104b8565b61015a6104c7565b6102396104d6565b604080516001600160a01b039c8d1681529a8c1660208c0152988b168a8a0152968a1660608a0152948916608089015292881660a088015290871660c0870152861660e0860152851661010085015284166101208401529092166101408201529051908190036101600190f35b61015a61052b565b6102b661053a565b60408051918252519081900360200190f35b61015a610540565b61015a61054f565b61015a61055e565b6101ff600480360360a08110156102f657600080fd5b506001600160a01b0381358116916020810135821691604082013581169160608101358216916080909101351661056d565b61015a6105cc565b6101ff600480360361016081101561034757600080fd5b506001600160a01b038135811691602081013582169160408201358116916060810135821691608082013581169160a081013582169160c082013581169160e081013582169161010082013581169161012081013582169161014090910135166105db565b6000546001600160a01b031681565b6002546001600160a01b031681565b600c54600d54600e54600f546010546001600160a01b03948516959385169492831693918316921690565b6008546001600160a01b031681565b6005546001600160a01b031681565b6007546001600160a01b031681565b6004546001600160a01b031681565b6011548114610479576040805162461bcd60e51b815260206004820152600f60248201526e6e756d62206973206e6f7420666f6f60881b604482015290519081900360640190fd5b50565b600b546001600160a01b031681565b6010546001600160a01b031681565b600e546001600160a01b031681565b6001546001600160a01b031681565b6009546001600160a01b031681565b600c546001600160a01b031681565b600154600254600354600454600554600654600754600854600954600a54600b546001600160a01b039a8b169b998b169a98891699978916989687169795871696948516959385169492831693918316921690565b6003546001600160a01b031681565b60115481565b600a546001600160a01b031681565b600d546001600160a01b031681565b600f546001600160a01b031681565b600c80546001600160a01b03199081166001600160a01b0397881617909155600d8054821695871695909517909455600e8054851693861693909317909255600f80548416918516919091179055601080549092169216919091179055565b6006546001600160a01b031681565b6000546001600160a01b031633146106245760405162461bcd60e51b81526004018080602001828103825260388152602001806106e16038913960400191505060405180910390fd5b600180546001600160a01b03199081166001600160a01b039d8e16179091556002805482169b8d169b909b17909a55600380548b16998c1699909917909855600480548a16978b1697909717909655600580548916958a169590951790945560068054881693891693909317909255600780548716918816919091179055600880548616918716919091179055600980548516918616919091179055600a80548416918516919091179055600b8054909216921691909117905556fe4f6e6c79207468652063726561746f72206f662046696e344d61696e2063616e2073657420736174656c6c69746520616464726573736573a265627a7a7231582026b5a7b93b14b14ccc705e884fc8fb181ee320478dc3cad611cea425f6b64a2164736f6c63430005110032",
  "source": "/*\nCopyright (C) 2018-2019 Chair of Computational Social Science, ETH Zürich <http://coss.ethz.ch>\n\nThis program is free software: you can redistribute it and/or modify\nit under the terms of the GNU Affero General Public License as published\nby the Free Software Foundation, either version 3 of the License, or\n(at your option) any later version.\n\nThis program is distributed in the hope that it will be useful,\nbut WITHOUT ANY WARRANTY; without even the implied warranty of\nMERCHANTABILITY or FITNESS FOR A PARTICULAR PURPOSE.  See the\nGNU Affero General Public License for more details.\n\nYou should have received a copy of the GNU Affero General Public License\nalong with this program.  If not, see <http://www.gnu.org/licenses/>.\n*/\n\npragma solidity ^0.5.17;\n\ncontract Fin4Main {\n\n    // NOTE:\n    // User-facing strings have been replaced with translation-keys. These will be exchanged\n    // with the full string in the respective language in the frontend. Should you use these\n    // contracts by command line or via a different GUI, this is the english translation file:\n    // https://github.com/FuturICT2/FIN4Xplorer/blob/master/src/locale/en.json\n    // All smart contract strings are under \"sc\".\n\n    address public Fin4MainCreator;\n    constructor() public {\n        Fin4MainCreator = msg.sender;\n    }\n\n    address public Fin4UncappedTokenCreatorAddress;\n    address public Fin4CappedTokenCreatorAddress;\n    address public Fin4TokenManagementAddress;\n    address public Fin4ClaimingAddress;\n    address public Fin4CollectionsAddress;\n    address public Fin4MessagingAddress;\n    address public Fin4VerifyingAddress;\n    address public Fin4GroupsAddress;\n    address public Fin4SystemParametersAddress;\n    address public Fin4UnderlyingsAddress;\n    address public Fin4VotingAddress;\n    // address public Fin4OracleHubAddress; TODO\n\n    function setSatelliteAddresses(address uncappedTokenCreator, address cappedTokenCreator, address tokenManagement, address claiming,\n    address collections, address messaging, address verifying, address groups, address systemParameters, address underlyings, address fin4voting) public {\n        // TODO use TCR instead of giving this right only to the creator of Fin4Main? #ConceptualDecision\n        require (msg.sender == Fin4MainCreator, \"Only the creator of Fin4Main can set satellite addresses\");\n        Fin4UncappedTokenCreatorAddress = uncappedTokenCreator;\n        Fin4CappedTokenCreatorAddress = cappedTokenCreator;\n        Fin4TokenManagementAddress = tokenManagement;\n        Fin4ClaimingAddress = claiming;\n        Fin4CollectionsAddress = collections;\n        Fin4MessagingAddress = messaging;\n        Fin4VerifyingAddress = verifying;\n        Fin4GroupsAddress = groups;\n        Fin4SystemParametersAddress = systemParameters;\n        Fin4UnderlyingsAddress = underlyings;\n        Fin4VotingAddress = fin4voting;\n    }\n\n    function getSatelliteAddresses() public view returns(address, address, address, address, address, address, address, address,\n        address, address, address) {\n        return (Fin4UncappedTokenCreatorAddress, Fin4CappedTokenCreatorAddress, Fin4TokenManagementAddress, Fin4ClaimingAddress,\n            Fin4CollectionsAddress, Fin4MessagingAddress, Fin4VerifyingAddress, Fin4GroupsAddress, Fin4SystemParametersAddress,\n            Fin4UnderlyingsAddress, Fin4VotingAddress);\n    }\n\n    address public REPToken;\n    address public GOVToken;\n    address public Registry;\n    address public PLCRVoting;\n    address public Parameterizer;\n\n    function setTCRaddresses(address _REPToken, address _GOVToken, address _Registry, address _PLCRVoting, address _Parameterizer) public {\n        REPToken = _REPToken;\n        GOVToken = _GOVToken;\n        Registry = _Registry;\n        PLCRVoting = _PLCRVoting;\n        Parameterizer = _Parameterizer;\n    }\n\n    function getTCRaddresses() public view returns(address, address, address, address, address) {\n        return (REPToken, GOVToken, Registry, PLCRVoting, Parameterizer);\n    }\n\n    // FOR DEV\n\n    uint public foo = 3;\n\n    function dev(uint numb) public {\n        require(numb == foo, \"numb is not foo\");\n    }\n\n}\n",
  "sourcePath": "/home/cantonioupao/susDAO-saveMe/FIN4Contracts/contracts/Fin4Main.sol",
  "compiler": {
    "name": "solc",
    "version": "0.5.17+commit.d19bba13.Emscripten.clang"
  },
  "schemaVersion": "3.3.1",
  "updatedAt": "2020-12-03T18:27:58.803Z",
  "devdoc": {
    "methods": {}
  },
  "userdoc": {
    "methods": {}
  }
}