{
  "contractName": "Fin4Voting",
  "abi": [
    {
      "inputs": [
        {
          "internalType": "address",
          "name": "Fin4SystemParametersAddr",
          "type": "address"
        }
      ],
      "payable": false,
      "stateMutability": "nonpayable",
      "type": "constructor"
    },
    {
      "anonymous": false,
      "inputs": [
        {
          "indexed": false,
          "internalType": "address",
          "name": "voterAddress",
          "type": "address"
        },
        {
          "indexed": false,
          "internalType": "address[]",
          "name": "currentVotings",
          "type": "address[]"
        }
      ],
      "name": "Voter",
      "type": "event"
    },
    {
      "constant": true,
      "inputs": [],
      "name": "Fin4ReputationAddress",
      "outputs": [
        {
          "internalType": "address",
          "name": "",
          "type": "address"
        }
      ],
      "payable": false,
      "stateMutability": "view",
      "type": "function"
    },
    {
      "constant": true,
      "inputs": [],
      "name": "Fin4SystemParametersAddress",
      "outputs": [
        {
          "internalType": "address",
          "name": "",
          "type": "address"
        }
      ],
      "payable": false,
      "stateMutability": "view",
      "type": "function"
    },
    {
      "constant": true,
      "inputs": [],
      "name": "creator",
      "outputs": [
        {
          "internalType": "address",
          "name": "",
          "type": "address"
        }
      ],
      "payable": false,
      "stateMutability": "view",
      "type": "function"
    },
    {
      "constant": true,
      "inputs": [
        {
          "internalType": "address",
          "name": "",
          "type": "address"
        }
      ],
      "name": "voters",
      "outputs": [
        {
          "internalType": "string",
          "name": "content",
          "type": "string"
        },
        {
          "internalType": "address",
          "name": "voter",
          "type": "address"
        }
      ],
      "payable": false,
      "stateMutability": "view",
      "type": "function"
    },
    {
      "constant": true,
      "inputs": [
        {
          "internalType": "uint256",
          "name": "",
          "type": "uint256"
        }
      ],
      "name": "votersAddresses",
      "outputs": [
        {
          "internalType": "address",
          "name": "",
          "type": "address"
        }
      ],
      "payable": false,
      "stateMutability": "view",
      "type": "function"
    },
    {
      "constant": false,
      "inputs": [
        {
          "internalType": "address",
          "name": "Fin4ReputationAddr",
          "type": "address"
        }
      ],
      "name": "setFin4ReputationAddress",
      "outputs": [],
      "payable": false,
      "stateMutability": "nonpayable",
      "type": "function"
    },
    {
      "constant": false,
      "inputs": [],
      "name": "becomeVoter",
      "outputs": [],
      "payable": false,
      "stateMutability": "nonpayable",
      "type": "function"
    },
    {
      "constant": true,
      "inputs": [],
      "name": "isEligibleToBeAVoter",
      "outputs": [
        {
          "internalType": "bool",
          "name": "",
          "type": "bool"
        }
      ],
      "payable": false,
      "stateMutability": "view",
      "type": "function"
    },
    {
      "constant": true,
      "inputs": [
        {
          "internalType": "address",
          "name": "add",
          "type": "address"
        }
      ],
      "name": "isVoter",
      "outputs": [
        {
          "internalType": "bool",
          "name": "",
          "type": "bool"
        }
      ],
      "payable": false,
      "stateMutability": "view",
      "type": "function"
    },
    {
      "constant": true,
      "inputs": [
        {
          "internalType": "uint256",
          "name": "numberOfUsers",
          "type": "uint256"
        },
        {
          "internalType": "address",
          "name": "claimer",
          "type": "address"
        }
      ],
      "name": "createRandomGroupOfUsers",
      "outputs": [
        {
          "internalType": "address[]",
          "name": "",
          "type": "address[]"
        }
      ],
      "payable": false,
      "stateMutability": "view",
      "type": "function"
    },
    {
      "constant": true,
      "inputs": [
        {
          "internalType": "address",
          "name": "who",
          "type": "address"
        },
        {
          "internalType": "address[]",
          "name": "arr",
          "type": "address[]"
        }
      ],
      "name": "inArray",
      "outputs": [
        {
          "internalType": "bool",
          "name": "",
          "type": "bool"
        }
      ],
      "payable": false,
      "stateMutability": "pure",
      "type": "function"
    },
    {
      "constant": false,
      "inputs": [],
      "name": "allVoters",
      "outputs": [],
      "payable": false,
      "stateMutability": "nonpayable",
      "type": "function"
    }
  ],
  "bytecode": "0x608060405234801561001057600080fd5b50604051610c95380380610c958339818101604052602081101561003357600080fd5b505160058054336001600160a01b031991821617909155600680549091166001600160a01b03909216919091179055610c24806100716000396000f3fe608060405234801561001057600080fd5b50600436106100b45760003560e01c8063a3ec138d11610071578063a3ec138d146101a4578063a418c5131461025b578063a7771ee314610281578063d25c13df146102a7578063f9d8f4c71461035a578063f9e7284f14610362576100b4565b806302d05d3f146100b95780631af10679146100dd57806363d494ea146100fa578063869b0de21461010457806395a8f59b146101805780639d4e4acb1461019c575b600080fd5b6100c161036a565b604080516001600160a01b039092168252519081900360200190f35b6100c1600480360360208110156100f357600080fd5b5035610379565b6101026103a0565b005b6101306004803603604081101561011a57600080fd5b50803590602001356001600160a01b03166104fe565b60408051602080825283518183015283519192839290830191858101910280838360005b8381101561016c578181015183820152602001610154565b505050509050019250505060405180910390f35b610188610690565b604080519115158252519081900360200190f35b6100c1610739565b6101ca600480360360208110156101ba57600080fd5b50356001600160a01b0316610748565b6040518080602001836001600160a01b03166001600160a01b03168152602001828103825284818151815260200191508051906020019080838360005b8381101561021f578181015183820152602001610207565b50505050905090810190601f16801561024c5780820380516001836020036101000a031916815260200191505b50935050505060405180910390f35b6101026004803603602081101561027157600080fd5b50356001600160a01b03166107f7565b6101886004803603602081101561029757600080fd5b50356001600160a01b0316610862565b610188600480360360408110156102bd57600080fd5b6001600160a01b0382351691908101906040810160208201356401000000008111156102e857600080fd5b8201836020820111156102fa57600080fd5b8035906020019184602083028401116401000000008311171561031c57600080fd5b919080806020026020016040519081016040528093929190818152602001838360200280828437600092019190915250929550610885945050505050565b6100c16108db565b6101026108ea565b6005546001600160a01b031681565b6002818154811061038657fe5b6000918252602090912001546001600160a01b0316905081565b336000818152600160205260409020600201546001600160a01b03161561040e576040805162461bcd60e51b815260206004820152601860248201527f596f752061726520616c7265616479206120766f746572210000000000000000604482015290519081900360640190fd5b60408051600060608201818152608083018452825282518084018452600b81526a1d1bd91bd8dbdb5b595b9d60aa1b6020828101919091528084019190915233838501526001600160a01b038516825260018152929020815180519293919261047a9284920190610a43565b5060208281015180516104939260018501920190610aa8565b5060409190910151600291820180546001600160a01b03199081166001600160a01b039384161790915582546001810184556000939093527f405787fa12a823e0f2b7631cc41b3ba8828b3321ca811111fa75cd3aa3bb5ace90920180549092169216919091179055565b6060600061050b83610862565b15610514575060015b6002548190038411156105585760405162461bcd60e51b8152600401808060200182810382526027815260200180610b8b6027913960400191505060405180910390fd5b6002546000906000194301408161056b57fe5b069050600060036001194301400690506060866040519080825280602002602001820160405280156105a7578160200160208202803883390190505b50905060005b878110156106835760028054600091908386028701816105c957fe5b06815481106105d457fe5b6000918252602090912001546001600160a01b0316905060015b886001600160a01b0316826001600160a01b0316148061061357506106138285610885565b156106545760028054848702880183018161062a57fe5b068154811061063557fe5b6000918252602090912001546001600160a01b031691506001016105ee565b8184848151811061066157fe5b6001600160a01b039092166020928302919091019091015250506001016105ad565b5093505050505b92915050565b60008054604080516370a0823160e01b815233600482018190529151919284926001600160a01b03909116916370a08231916024808301926020929190829003018186803b1580156106e157600080fd5b505afa1580156106f5573d6000803e3d6000fd5b505050506040513d602081101561070b57600080fd5b505110801590610721575061071f81610862565b155b15610730576001915050610736565b60009150505b90565b6006546001600160a01b031681565b60016020818152600092835260409283902080830180548551600295821615610100026000190190911694909404601f8101849004840285018401909552848452909390918301828280156107de5780601f106107b3576101008083540402835291602001916107de565b820191906000526020600020905b8154815290600101906020018083116107c157829003601f168201915b505050600290930154919250506001600160a01b031682565b6005546001600160a01b031633146108405760405162461bcd60e51b815260040180806020018281038252603e815260200180610bb2603e913960400191505060405180910390fd5b600080546001600160a01b0319166001600160a01b0392909216919091179055565b6001600160a01b0390811660009081526001602052604090206002015416151590565b6000805b82518110156108d157836001600160a01b03168382815181106108a857fe5b60200260200101516001600160a01b031614156108c957600191505061068a565b600101610889565b5060009392505050565b6000546001600160a01b031681565b336000908152600160205260409020600201546001600160a01b03166109415760405162461bcd60e51b815260040180806020018281038252602a815260200180610b61602a913960400191505060405180910390fd5b60005b600254811015610a40577f18d55a76ece47383c5411ebcc091f8fd6b956675789695f930af78665bc5963d6002828154811061097c57fe5b9060005260206000200160009054906101000a90046001600160a01b031660016000600285815481106109ab57fe5b60009182526020808320909101546001600160a01b039081168452838201949094526040928301909120825193851684529083018281528154928401839052909291606083019084908015610a2957602002820191906000526020600020905b81546001600160a01b03168152600190910190602001808311610a0b575b5050935050505060405180910390a1600101610944565b50565b828054828255906000526020600020908101928215610a98579160200282015b82811115610a9857825182546001600160a01b0319166001600160a01b03909116178255602090920191600190910190610a63565b50610aa4929150610b22565b5090565b828054600181600116156101000203166002900490600052602060002090601f016020900481019282601f10610ae957805160ff1916838001178555610b16565b82800160010185558215610b16579182015b82811115610b16578251825591602001919060010190610afb565b50610aa4929150610b46565b61073691905b80821115610aa45780546001600160a01b0319168155600101610b28565b61073691905b80821115610aa45760008155600101610b4c56fe4f6e6c79207265676973746572656420766f746572732063616e20736565206f74686572206f6e6573214e6f7420656e6f7567682061637469766520766f7465727320696e207468652073797374656d214f6e6c79207468652063726561746f72206f66207468697320736d61727420636f6e74726163742063616e2063616c6c20746869732066756e6374696f6ea265627a7a723158208bb878e96d36b50e8e749be8f66fc97354dd91afe346666e801567f8daf31edf64736f6c63430005110032",
  "source": "pragma solidity ^0.5.17;\n\nimport 'contracts/stub/Fin4TokenStub.sol';\n\ncontract Fin4Voting{\n\n    event Voter(address voterAddress, address[] currentVotings);\n    struct VoterInfo {\n        address[] currentVotings;\n        string content;\n        address voter;\n    }\n    address public Fin4ReputationAddress;\n\n    mapping (address => VoterInfo) public voters;\n    address[] public votersAddresses;\n\n    mapping (address => uint) index;\n    address[] store;\n\n    address public creator;\n    address public Fin4SystemParametersAddress;\n\n    function setFin4ReputationAddress(address Fin4ReputationAddr) public {\n        require(msg.sender == creator, \"Only the creator of this smart contract can call this function\");\n        Fin4ReputationAddress = Fin4ReputationAddr;\n    }\n\n    constructor(address Fin4SystemParametersAddr) public {\n        creator = msg.sender;\n        Fin4SystemParametersAddress = Fin4SystemParametersAddr;\n    }\n\n    // Add user to list of eligible voters\n    function becomeVoter() public {\n        address voter = msg.sender;\n        require(voters[voter].voter == address(0), \"You are already a voter!\");\n        voters[voter] = VoterInfo(new address[](0), 'todocomment', msg.sender);\n        votersAddresses.push(voter);\n    }\n\n    function isEligibleToBeAVoter() public view returns(bool) {\n        address voter = msg.sender;\n        // Check that REP balance is bigger than a certain value, for testing it is left at 0\n        if (Fin4TokenStub(Fin4ReputationAddress).balanceOf(voter) >= 0 && !isVoter(voter)) {\n            return true;\n        }\n        return false;\n    }\n\n    // Check of user is already a voter\n    function isVoter(address add) public view returns(bool) {\n        return voters[add].voter != address(0);\n    }\n\n    // Randomly pick numberOfUsers users exempting the user himself\n    function createRandomGroupOfUsers(uint numberOfUsers, address claimer) public view returns(address[] memory) {\n        uint subtractNumberOfVoters = 0;\n\n        if (isVoter(claimer)) {\n            subtractNumberOfVoters = 1;\n        }\n\n        require(numberOfUsers <= (votersAddresses.length - subtractNumberOfVoters ), \"Not enough active voters in the system!\");\n\n        uint startIdx = uint(blockhash(block.number-1)) % votersAddresses.length;\n        uint interval = uint(blockhash(block.number-2)) % 3;\n        address[] memory newVoters = new address[](numberOfUsers);\n\n        for (uint i = 0; i < numberOfUsers; i++) {\n            address who = votersAddresses[(startIdx + i * interval) % votersAddresses.length];\n            uint offset = 1;\n            while (who == claimer || inArray(who, newVoters)) {\n                who = votersAddresses[(startIdx + i * interval + offset) % votersAddresses.length];\n                offset = offset + 1;\n            }\n            newVoters[i] = who;\n        }\n        return newVoters;\n    }\n\n    // Check if an element is in an array\n    function inArray(address who, address[] memory arr) public pure returns (bool) {\n        // address 0x0 is not valid if pos is 0 is not in the array\n        for (uint i = 0; i < arr.length; i++) {\n            if (arr[i] == who) {\n                return true;\n            }\n        }\n        return false;\n    }\n\n    function allVoters() public {\n        require(voters[msg.sender].voter != address(0), \"Only registered voters can see other ones!\");\n        for (uint i = 0; i < votersAddresses.length; i++) {\n            emit Voter(votersAddresses[i], voters[votersAddresses[i]].currentVotings);\n        }\n    }\n}\n",
  "sourcePath": "/home/cantonioupao/susDAO-saveMe/FIN4Contracts/contracts/Fin4Voting.sol",
  "compiler": {
    "name": "solc",
    "version": "0.5.17+commit.d19bba13.Emscripten.clang"
  },
  "schemaVersion": "3.3.1",
  "updatedAt": "2020-12-03T18:31:09.742Z",
  "devdoc": {
    "methods": {}
  },
  "userdoc": {
    "methods": {}
  }
}