{
  "contractName": "GOV",
  "abi": [
    {
      "inputs": [
        {
          "internalType": "string",
          "name": "_name",
          "type": "string"
        },
        {
          "internalType": "string",
          "name": "_symbol",
          "type": "string"
        },
        {
          "internalType": "uint8",
          "name": "_decimals",
          "type": "uint8"
        },
        {
          "internalType": "address",
          "name": "minter",
          "type": "address"
        },
        {
          "internalType": "bool",
          "name": "_isBurnable",
          "type": "bool"
        },
        {
          "internalType": "bool",
          "name": "_isTransferable",
          "type": "bool"
        },
        {
          "internalType": "bool",
          "name": "_isMintable",
          "type": "bool"
        },
        {
          "internalType": "uint256",
          "name": "_initialSupply",
          "type": "uint256"
        }
      ],
      "payable": false,
      "stateMutability": "nonpayable",
      "type": "constructor"
    },
    {
      "anonymous": false,
      "inputs": [
        {
          "indexed": true,
          "internalType": "address",
          "name": "owner",
          "type": "address"
        },
        {
          "indexed": true,
          "internalType": "address",
          "name": "spender",
          "type": "address"
        },
        {
          "indexed": false,
          "internalType": "uint256",
          "name": "value",
          "type": "uint256"
        }
      ],
      "name": "Approval",
      "type": "event"
    },
    {
      "anonymous": false,
      "inputs": [
        {
          "indexed": true,
          "internalType": "address",
          "name": "account",
          "type": "address"
        }
      ],
      "name": "MinterAdded",
      "type": "event"
    },
    {
      "anonymous": false,
      "inputs": [
        {
          "indexed": true,
          "internalType": "address",
          "name": "account",
          "type": "address"
        }
      ],
      "name": "MinterRemoved",
      "type": "event"
    },
    {
      "anonymous": false,
      "inputs": [
        {
          "indexed": false,
          "internalType": "address",
          "name": "account",
          "type": "address"
        }
      ],
      "name": "Paused",
      "type": "event"
    },
    {
      "anonymous": false,
      "inputs": [
        {
          "indexed": true,
          "internalType": "address",
          "name": "account",
          "type": "address"
        }
      ],
      "name": "PauserAdded",
      "type": "event"
    },
    {
      "anonymous": false,
      "inputs": [
        {
          "indexed": true,
          "internalType": "address",
          "name": "account",
          "type": "address"
        }
      ],
      "name": "PauserRemoved",
      "type": "event"
    },
    {
      "anonymous": false,
      "inputs": [
        {
          "indexed": true,
          "internalType": "address",
          "name": "from",
          "type": "address"
        },
        {
          "indexed": true,
          "internalType": "address",
          "name": "to",
          "type": "address"
        },
        {
          "indexed": false,
          "internalType": "uint256",
          "name": "value",
          "type": "uint256"
        }
      ],
      "name": "Transfer",
      "type": "event"
    },
    {
      "anonymous": false,
      "inputs": [
        {
          "indexed": false,
          "internalType": "address",
          "name": "account",
          "type": "address"
        }
      ],
      "name": "Unpaused",
      "type": "event"
    },
    {
      "constant": false,
      "inputs": [
        {
          "internalType": "address",
          "name": "account",
          "type": "address"
        }
      ],
      "name": "addMinter",
      "outputs": [],
      "payable": false,
      "stateMutability": "nonpayable",
      "type": "function"
    },
    {
      "constant": false,
      "inputs": [
        {
          "internalType": "address",
          "name": "account",
          "type": "address"
        }
      ],
      "name": "addPauser",
      "outputs": [],
      "payable": false,
      "stateMutability": "nonpayable",
      "type": "function"
    },
    {
      "constant": true,
      "inputs": [
        {
          "internalType": "address",
          "name": "owner",
          "type": "address"
        },
        {
          "internalType": "address",
          "name": "spender",
          "type": "address"
        }
      ],
      "name": "allowance",
      "outputs": [
        {
          "internalType": "uint256",
          "name": "",
          "type": "uint256"
        }
      ],
      "payable": false,
      "stateMutability": "view",
      "type": "function"
    },
    {
      "constant": false,
      "inputs": [
        {
          "internalType": "address",
          "name": "spender",
          "type": "address"
        },
        {
          "internalType": "uint256",
          "name": "value",
          "type": "uint256"
        }
      ],
      "name": "approve",
      "outputs": [
        {
          "internalType": "bool",
          "name": "",
          "type": "bool"
        }
      ],
      "payable": false,
      "stateMutability": "nonpayable",
      "type": "function"
    },
    {
      "constant": true,
      "inputs": [
        {
          "internalType": "address",
          "name": "account",
          "type": "address"
        }
      ],
      "name": "balanceOf",
      "outputs": [
        {
          "internalType": "uint256",
          "name": "",
          "type": "uint256"
        }
      ],
      "payable": false,
      "stateMutability": "view",
      "type": "function"
    },
    {
      "constant": false,
      "inputs": [
        {
          "internalType": "uint256",
          "name": "value",
          "type": "uint256"
        }
      ],
      "name": "burn",
      "outputs": [],
      "payable": false,
      "stateMutability": "nonpayable",
      "type": "function"
    },
    {
      "constant": false,
      "inputs": [
        {
          "internalType": "address",
          "name": "from",
          "type": "address"
        },
        {
          "internalType": "uint256",
          "name": "value",
          "type": "uint256"
        }
      ],
      "name": "burnFrom",
      "outputs": [],
      "payable": false,
      "stateMutability": "nonpayable",
      "type": "function"
    },
    {
      "constant": true,
      "inputs": [],
      "name": "decimals",
      "outputs": [
        {
          "internalType": "uint8",
          "name": "",
          "type": "uint8"
        }
      ],
      "payable": false,
      "stateMutability": "view",
      "type": "function"
    },
    {
      "constant": false,
      "inputs": [
        {
          "internalType": "address",
          "name": "spender",
          "type": "address"
        },
        {
          "internalType": "uint256",
          "name": "subtractedValue",
          "type": "uint256"
        }
      ],
      "name": "decreaseAllowance",
      "outputs": [
        {
          "internalType": "bool",
          "name": "",
          "type": "bool"
        }
      ],
      "payable": false,
      "stateMutability": "nonpayable",
      "type": "function"
    },
    {
      "constant": false,
      "inputs": [
        {
          "internalType": "address",
          "name": "spender",
          "type": "address"
        },
        {
          "internalType": "uint256",
          "name": "addedValue",
          "type": "uint256"
        }
      ],
      "name": "increaseAllowance",
      "outputs": [
        {
          "internalType": "bool",
          "name": "",
          "type": "bool"
        }
      ],
      "payable": false,
      "stateMutability": "nonpayable",
      "type": "function"
    },
    {
      "constant": true,
      "inputs": [],
      "name": "isBurnable",
      "outputs": [
        {
          "internalType": "bool",
          "name": "",
          "type": "bool"
        }
      ],
      "payable": false,
      "stateMutability": "view",
      "type": "function"
    },
    {
      "constant": true,
      "inputs": [],
      "name": "isMintable",
      "outputs": [
        {
          "internalType": "bool",
          "name": "",
          "type": "bool"
        }
      ],
      "payable": false,
      "stateMutability": "view",
      "type": "function"
    },
    {
      "constant": true,
      "inputs": [
        {
          "internalType": "address",
          "name": "account",
          "type": "address"
        }
      ],
      "name": "isMinter",
      "outputs": [
        {
          "internalType": "bool",
          "name": "",
          "type": "bool"
        }
      ],
      "payable": false,
      "stateMutability": "view",
      "type": "function"
    },
    {
      "constant": true,
      "inputs": [
        {
          "internalType": "address",
          "name": "account",
          "type": "address"
        }
      ],
      "name": "isPauser",
      "outputs": [
        {
          "internalType": "bool",
          "name": "",
          "type": "bool"
        }
      ],
      "payable": false,
      "stateMutability": "view",
      "type": "function"
    },
    {
      "constant": true,
      "inputs": [],
      "name": "isTransferable",
      "outputs": [
        {
          "internalType": "bool",
          "name": "",
          "type": "bool"
        }
      ],
      "payable": false,
      "stateMutability": "view",
      "type": "function"
    },
    {
      "constant": false,
      "inputs": [
        {
          "internalType": "address",
          "name": "to",
          "type": "address"
        },
        {
          "internalType": "uint256",
          "name": "value",
          "type": "uint256"
        }
      ],
      "name": "mint",
      "outputs": [
        {
          "internalType": "bool",
          "name": "",
          "type": "bool"
        }
      ],
      "payable": false,
      "stateMutability": "nonpayable",
      "type": "function"
    },
    {
      "constant": true,
      "inputs": [],
      "name": "name",
      "outputs": [
        {
          "internalType": "string",
          "name": "",
          "type": "string"
        }
      ],
      "payable": false,
      "stateMutability": "view",
      "type": "function"
    },
    {
      "constant": true,
      "inputs": [],
      "name": "parameterizer",
      "outputs": [
        {
          "internalType": "contract Parameterizer",
          "name": "",
          "type": "address"
        }
      ],
      "payable": false,
      "stateMutability": "view",
      "type": "function"
    },
    {
      "constant": false,
      "inputs": [],
      "name": "pause",
      "outputs": [],
      "payable": false,
      "stateMutability": "nonpayable",
      "type": "function"
    },
    {
      "constant": true,
      "inputs": [],
      "name": "paused",
      "outputs": [
        {
          "internalType": "bool",
          "name": "",
          "type": "bool"
        }
      ],
      "payable": false,
      "stateMutability": "view",
      "type": "function"
    },
    {
      "constant": true,
      "inputs": [],
      "name": "registry",
      "outputs": [
        {
          "internalType": "contract Registry",
          "name": "",
          "type": "address"
        }
      ],
      "payable": false,
      "stateMutability": "view",
      "type": "function"
    },
    {
      "constant": false,
      "inputs": [],
      "name": "renounceMinter",
      "outputs": [],
      "payable": false,
      "stateMutability": "nonpayable",
      "type": "function"
    },
    {
      "constant": false,
      "inputs": [],
      "name": "renouncePauser",
      "outputs": [],
      "payable": false,
      "stateMutability": "nonpayable",
      "type": "function"
    },
    {
      "constant": true,
      "inputs": [],
      "name": "symbol",
      "outputs": [
        {
          "internalType": "string",
          "name": "",
          "type": "string"
        }
      ],
      "payable": false,
      "stateMutability": "view",
      "type": "function"
    },
    {
      "constant": true,
      "inputs": [],
      "name": "totalSupply",
      "outputs": [
        {
          "internalType": "uint256",
          "name": "",
          "type": "uint256"
        }
      ],
      "payable": false,
      "stateMutability": "view",
      "type": "function"
    },
    {
      "constant": false,
      "inputs": [],
      "name": "unpause",
      "outputs": [],
      "payable": false,
      "stateMutability": "nonpayable",
      "type": "function"
    },
    {
      "constant": true,
      "inputs": [],
      "name": "voting",
      "outputs": [
        {
          "internalType": "contract PLCRVoting",
          "name": "",
          "type": "address"
        }
      ],
      "payable": false,
      "stateMutability": "view",
      "type": "function"
    },
    {
      "constant": false,
      "inputs": [
        {
          "internalType": "address",
          "name": "_registry",
          "type": "address"
        },
        {
          "internalType": "address",
          "name": "_parameterizer",
          "type": "address"
        },
        {
          "internalType": "address",
          "name": "_voting",
          "type": "address"
        }
      ],
      "name": "init",
      "outputs": [],
      "payable": false,
      "stateMutability": "nonpayable",
      "type": "function"
    },
    {
      "constant": true,
      "inputs": [
        {
          "internalType": "address",
          "name": "_tokenHolder",
          "type": "address"
        }
      ],
      "name": "getAmountsDelegatedByAUser",
      "outputs": [
        {
          "internalType": "uint256",
          "name": "",
          "type": "uint256"
        }
      ],
      "payable": false,
      "stateMutability": "view",
      "type": "function"
    },
    {
      "constant": true,
      "inputs": [],
      "name": "getAmountsDelegatedToMe",
      "outputs": [
        {
          "internalType": "uint256",
          "name": "",
          "type": "uint256"
        }
      ],
      "payable": false,
      "stateMutability": "view",
      "type": "function"
    },
    {
      "constant": false,
      "inputs": [
        {
          "internalType": "address",
          "name": "to",
          "type": "address"
        },
        {
          "internalType": "uint256",
          "name": "amount",
          "type": "uint256"
        }
      ],
      "name": "delegate",
      "outputs": [
        {
          "internalType": "bool",
          "name": "",
          "type": "bool"
        }
      ],
      "payable": false,
      "stateMutability": "nonpayable",
      "type": "function"
    },
    {
      "constant": false,
      "inputs": [
        {
          "internalType": "address",
          "name": "to",
          "type": "address"
        },
        {
          "internalType": "uint256",
          "name": "amount",
          "type": "uint256"
        }
      ],
      "name": "refundDelegation",
      "outputs": [
        {
          "internalType": "bool",
          "name": "",
          "type": "bool"
        }
      ],
      "payable": false,
      "stateMutability": "nonpayable",
      "type": "function"
    },
    {
      "constant": false,
      "inputs": [
        {
          "internalType": "address",
          "name": "recipient",
          "type": "address"
        },
        {
          "internalType": "uint256",
          "name": "amount",
          "type": "uint256"
        }
      ],
      "name": "transfer",
      "outputs": [
        {
          "internalType": "bool",
          "name": "",
          "type": "bool"
        }
      ],
      "payable": false,
      "stateMutability": "nonpayable",
      "type": "function"
    },
    {
      "constant": false,
      "inputs": [
        {
          "internalType": "address",
          "name": "sender",
          "type": "address"
        },
        {
          "internalType": "address",
          "name": "recipient",
          "type": "address"
        },
        {
          "internalType": "uint256",
          "name": "amount",
          "type": "uint256"
        }
      ],
      "name": "transferFrom",
      "outputs": [
        {
          "internalType": "bool",
          "name": "",
          "type": "bool"
        }
      ],
      "payable": false,
      "stateMutability": "nonpayable",
      "type": "function"
    }
  ],
  "bytecode": "0x60806040526008805460ff60201b19166401000000001790553480156200002557600080fd5b50604051620029143803806200291483398181016040526101008110156200004c57600080fd5b81019080805160405193929190846401000000008211156200006d57600080fd5b9083019060208201858111156200008357600080fd5b82516401000000008111828201881017156200009e57600080fd5b82525081516020918201929091019080838360005b83811015620000cd578181015183820152602001620000b3565b50505050905090810190601f168015620000fb5780820380516001836020036101000a031916815260200191505b50604052602001805160405193929190846401000000008211156200011f57600080fd5b9083019060208201858111156200013557600080fd5b82516401000000008111828201881017156200015057600080fd5b82525081516020918201929091019080838360005b838110156200017f57818101518382015260200162000165565b50505050905090810190601f168015620001ad5780820380516001836020036101000a031916815260200191505b506040908152602082810151918301516060840151608085015160a086015160c0909601518a51959850929650909490939092899189918991899189918991899189916000918a918a918a9162000209918691860190620007e6565b5081516200021f906001906020850190620007e6565b506002805460ff191660ff9290921691909117905550620002549050620002456200034e565b6001600160e01b036200035316565b6200027a6200026b6001600160e01b036200034e16565b6001600160e01b03620003a516565b6008805461ffff1916610100871515021762ff0000191662010000861515021763ff000000191663010000008515150217905583620002c657620002c66001600160e01b03620003f716565b6001600160a01b03861615620002ea57620002ea866001600160e01b036200035316565b6001600160a01b03811662000314576200030e33836001600160e01b036200045916565b62000329565b6200032981836001600160e01b036200045916565b50506008805460ff60201b1916905550620008889d5050505050505050505050505050565b335b90565b6200036e8160066200055e60201b62001be31790919060201c565b6040516001600160a01b038216907f6ae172837ea30b801fbfcdd4108aa1d5bf8ff775444fd70256b44e6bf3dfc3f690600090a250565b620003c08160076200055e60201b62001be31790919060201c565b6040516001600160a01b038216907f6719d08c1888103bea251a4ed56406bd0c3e69723c8a1686e017e7bbe159b6f890600090a250565b600854640100000000900460ff16620004425760405162461bcd60e51b8152600401808060200182810382526029815260200180620028eb6029913960400191505060405180910390fd5b62000457620005eb60201b6200149b1760201c565b565b6001600160a01b038216620004b5576040805162461bcd60e51b815260206004820152601f60248201527f45524332303a206d696e7420746f20746865207a65726f206164647265737300604482015290519081900360640190fd5b620004d181600554620006f860201b6200176c1790919060201c565b6005556001600160a01b038216600090815260036020908152604090912054620005069183906200176c620006f8821b17901c565b6001600160a01b03831660008181526003602090815260408083209490945583518581529351929391927fddf252ad1be2c89b69c2b068fc378daa952ba7f163c4a11628f55a4df523b3ef9281900390910190a35050565b6200057382826001600160e01b036200075a16565b15620005c6576040805162461bcd60e51b815260206004820152601f60248201527f526f6c65733a206163636f756e7420616c72656164792068617320726f6c6500604482015290519081900360640190fd5b6001600160a01b0316600090815260209190915260409020805460ff19166001179055565b62000611620006026001600160e01b036200034e16565b6001600160e01b03620007c316565b6200064e5760405162461bcd60e51b8152600401808060200182810382526030815260200180620028996030913960400191505060405180910390fd5b60085460ff16156200069a576040805162461bcd60e51b815260206004820152601060248201526f14185d5cd8589b194e881c185d5cd95960821b604482015290519081900360640190fd5b6008805460ff191660011790557f62e78cea01bee320cd4e420270b5ea74000d11b0c9f74754ebdbfc544b05a258620006db6001600160e01b036200034e16565b604080516001600160a01b039092168252519081900360200190a1565b60008282018381101562000753576040805162461bcd60e51b815260206004820152601b60248201527f536166654d6174683a206164646974696f6e206f766572666c6f770000000000604482015290519081900360640190fd5b9392505050565b60006001600160a01b038216620007a35760405162461bcd60e51b8152600401808060200182810382526022815260200180620028c96022913960400191505060405180910390fd5b506001600160a01b03166000908152602091909152604090205460ff1690565b6000620007e08260076200075a60201b620013961790919060201c565b92915050565b828054600181600116156101000203166002900490600052602060002090601f016020900481019282601f106200082957805160ff191683800117855562000859565b8280016001018555821562000859579182015b82811115620008595782518255916020019190600101906200083c565b50620008679291506200086b565b5090565b6200035091905b8082111562000867576000815560010162000872565b61200180620008986000396000f3fe608060405234801561001057600080fd5b50600436106102065760003560e01c806370a082311161011a57806398650275116100ad578063aa271e1a1161007c578063aa271e1a146105c7578063dd62ed3e146105ed578063e1e3f9151461061b578063e9bb94a214610623578063fce1ccca1461064f57610206565b8063986502751461055f5780639e5adbcc14610567578063a457c2d71461056f578063a9059cbb1461059b57610206565b80638456cb59116100e95780638456cb5914610521578063883356d91461052957806395d89b4114610531578063983b2d561461053957610206565b806370a082311461048557806379cc6790146104ab5780637b103999146104d757806382dc1ec4146104fb57610206565b8063313ce5671161019d57806342966c681161016c57806342966c681461042a57806346b45af71461044757806346fbf68e1461044f5780635c975abb146104755780636ef8d66d1461047d57610206565b8063313ce567146103ac57806339509351146103ca5780633f4ba83a146103f657806340c10f19146103fe57610206565b806318160ddd116101d957806318160ddd1461032c578063184b9559146103345780632121dc751461036e57806323b872dd1461037657610206565b8063026e402b1461020b57806303ad29f71461024b57806306fdde0314610283578063095ea7b314610300575b600080fd5b6102376004803603604081101561022157600080fd5b506001600160a01b038135169060200135610657565b604080519115158252519081900360200190f35b6102716004803603602081101561026157600080fd5b50356001600160a01b031661076a565b60408051918252519081900360200190f35b61028b610785565b6040805160208082528351818301528351919283929083019185019080838360005b838110156102c55781810151838201526020016102ad565b50505050905090810190601f1680156102f25780820380516001836020036101000a031916815260200191505b509250505060405180910390f35b6102376004803603604081101561031657600080fd5b506001600160a01b03813516906020013561081b565b61027161087a565b61036c6004803603606081101561034a57600080fd5b506001600160a01b038135811691602081013582169160409091013516610880565b005b610237610931565b6102376004803603606081101561038c57600080fd5b506001600160a01b03813581169160208101359091169060400135610940565b6103b4610a79565b6040805160ff9092168252519081900360200190f35b610237600480360360408110156103e057600080fd5b506001600160a01b038135169060200135610a82565b61036c610ada565b6102376004803603604081101561041457600080fd5b506001600160a01b038135169060200135610b25565b61036c6004803603602081101561044057600080fd5b5035610b84565b610237610be0565b6102376004803603602081101561046557600080fd5b50356001600160a01b0316610bf0565b610237610c09565b61036c610c12565b6102716004803603602081101561049b57600080fd5b50356001600160a01b0316610c22565b61036c600480360360408110156104c157600080fd5b506001600160a01b038135169060200135610c3d565b6104df610c9b565b604080516001600160a01b039092168252519081900360200190f35b61036c6004803603602081101561051157600080fd5b50356001600160a01b0316610caa565b61036c610cfe565b610237610d4f565b61028b610d5d565b61036c6004803603602081101561054f57600080fd5b50356001600160a01b0316610dbd565b61036c610e11565b610271610e21565b6102376004803603604081101561058557600080fd5b506001600160a01b038135169060200135610e34565b610237600480360360408110156105b157600080fd5b506001600160a01b038135169060200135610e8c565b610237600480360360208110156105dd57600080fd5b50356001600160a01b0316610fb3565b6102716004803603604081101561060357600080fd5b506001600160a01b0381358116916020013516610fc6565b6104df610ff1565b6102376004803603604081101561063957600080fd5b506001600160a01b038135169060200135611000565b6104df611100565b6000336001600160a01b03841614156106b7576040805162461bcd60e51b815260206004820152601f60248201527f596f752063616e6e6f742064656c656761746520746f20796f757273656c6600604482015290519081900360640190fd5b336000818152600b602052604090205483916106d290610c22565b0310156107105760405162461bcd60e51b8152600401808060200182810382526032815260200180611def6032913960400191505060405180910390fd5b3360008181526009602090815260408083206001600160a01b03881684528252808320805487019055600b8252808320805487019055838352600a909152902080548401905561076190848461110f565b50600192915050565b6001600160a01b03166000908152600a602052604090205490565b60008054604080516020601f60026000196101006001881615020190951694909404938401819004810282018101909252828152606093909290918301828280156108115780601f106107e657610100808354040283529160200191610811565b820191906000526020600020905b8154815290600101906020018083116107f457829003601f168201915b5050505050905090565b60085460009060ff1615610869576040805162461bcd60e51b815260206004820152601060248201526f14185d5cd8589b194e881c185d5cd95960821b604482015290519081900360640190fd5b610873838361126d565b9392505050565b60055490565b6001600160a01b038316158015906108a15750600e546001600160a01b0316155b6108f2576040805162461bcd60e51b815260206004820152601c60248201527f436f6e747261637420616c726561647920696e697469616c697a656400000000604482015290519081900360640190fd5b600e80546001600160a01b039485166001600160a01b031991821617909155600d805493851693821693909317909255600c8054919093169116179055565b60085462010000900460ff1681565b60008161094c85610c22565b101561099f576040805162461bcd60e51b815260206004820181905260248201527f7472616e7366657246726f6d3a204e6f7420656e6f7567682062616c616e6365604482015290519081900360640190fd5b600c546001600160a01b038581169116148015906109cb5750600d546001600160a01b03858116911614155b80156109e55750600e546001600160a01b03858116911614155b15610a6657600c546001600160a01b0384811691161480610a135750600d546001600160a01b038481169116145b80610a2b5750600e546001600160a01b038481169116145b610a665760405162461bcd60e51b8152600401808060200182810382526056815260200180611d526056913960600191505060405180910390fd5b610a71848484611281565b949350505050565b60025460ff1690565b60085460009060ff1615610ad0576040805162461bcd60e51b815260206004820152601060248201526f14185d5cd8589b194e881c185d5cd95960821b604482015290519081900360640190fd5b61087383836112da565b600854640100000000900460ff16610b235760405162461bcd60e51b8152600401808060200182810382526029815260200180611f7f6029913960400191505060405180910390fd5b565b6008546000906301000000900460ff16610b7a576040805162461bcd60e51b8152602060048201526011602482015270436f696e206e6f74206d696e7461626c6560781b604482015290519081900360640190fd5b6108738383611333565b600854610100900460ff16610bd4576040805162461bcd60e51b8152602060048201526011602482015270436f696e206e6f74206275726e61626c6560781b604482015290519081900360640190fd5b610bdd81611385565b50565b6008546301000000900460ff1681565b6000610c0360078363ffffffff61139616565b92915050565b60085460ff1690565b610b23610c1d6113fd565b611401565b6001600160a01b031660009081526003602052604090205490565b600854610100900460ff16610c8d576040805162461bcd60e51b8152602060048201526011602482015270436f696e206e6f74206275726e61626c6560781b604482015290519081900360640190fd5b610c978282611449565b5050565b600e546001600160a01b031681565b610cba610cb56113fd565b610bf0565b610cf55760405162461bcd60e51b8152600401808060200182810382526030815260200180611d006030913960400191505060405180910390fd5b610bdd81611453565b600854640100000000900460ff16610d475760405162461bcd60e51b8152600401808060200182810382526029815260200180611f7f6029913960400191505060405180910390fd5b610b2361149b565b600854610100900460ff1681565b60018054604080516020601f600260001961010087891615020190951694909404938401819004810282018101909252828152606093909290918301828280156108115780601f106107e657610100808354040283529160200191610811565b610dcd610dc86113fd565b610fb3565b610e085760405162461bcd60e51b8152600401808060200182810382526030815260200180611e216030913960400191505060405180910390fd5b610bdd8161157f565b610b23610e1c6113fd565b6115c7565b336000908152600b602052604090205490565b60085460009060ff1615610e82576040805162461bcd60e51b815260206004820152601060248201526f14185d5cd8589b194e881c185d5cd95960821b604482015290519081900360640190fd5b610873838361160f565b600081610e9833610c22565b1015610eeb576040805162461bcd60e51b815260206004820152601c60248201527f7472616e736665723a204e6f7420656e6f7567682062616c616e636500000000604482015290519081900360640190fd5b600c546001600160a01b03163314801590610f115750600d546001600160a01b03163314155b8015610f285750600e546001600160a01b03163314155b15610fa957600c546001600160a01b0384811691161480610f565750600d546001600160a01b038481169116145b80610f6e5750600e546001600160a01b038481169116145b610fa95760405162461bcd60e51b8152600401808060200182810382526056815260200180611d526056913960600191505060405180910390fd5b610873838361167d565b6000610c0360068363ffffffff61139616565b6001600160a01b03918216600090815260046020908152604080832093909416825291909152205490565b600d546001600160a01b031681565b60008161100c84610c22565b10156110495760405162461bcd60e51b8152600401808060200182810382526021815260200180611dce6021913960400191505060405180910390fd5b3360009081526009602090815260408083206001600160a01b03871684529091529020548211156110ab5760405162461bcd60e51b8152600401808060200182810382526035815260200180611e726035913960400191505060405180910390fd5b3360008181526009602090815260408083206001600160a01b0388168452825280832080548790039055600b825280832080548790039055838352600a9091529020805484900390556107619084908461110f565b600c546001600160a01b031681565b6001600160a01b0383166111545760405162461bcd60e51b8152600401808060200182810382526025815260200180611f366025913960400191505060405180910390fd5b6001600160a01b0382166111995760405162461bcd60e51b8152600401808060200182810382526023815260200180611cbb6023913960400191505060405180910390fd5b6111dc81604051806060016040528060268152602001611da8602691396001600160a01b038616600090815260036020526040902054919063ffffffff6116d516565b6001600160a01b038085166000908152600360205260408082209390935590841681522054611211908263ffffffff61176c16565b6001600160a01b0380841660008181526003602090815260409182902094909455805185815290519193928716927fddf252ad1be2c89b69c2b068fc378daa952ba7f163c4a11628f55a4df523b3ef92918290030190a3505050565b600061076161127a6113fd565b84846117c6565b60085460009060ff16156112cf576040805162461bcd60e51b815260206004820152601060248201526f14185d5cd8589b194e881c185d5cd95960821b604482015290519081900360640190fd5b610a718484846118b2565b60006107616112e76113fd565b8461132e85600460006112f86113fd565b6001600160a01b03908116825260208083019390935260409182016000908120918c16815292529020549063ffffffff61176c16565b6117c6565b6000611340610dc86113fd565b61137b5760405162461bcd60e51b8152600401808060200182810382526030815260200180611e216030913960400191505060405180910390fd5b610761838361193a565b610bdd6113906113fd565b82611a2c565b60006001600160a01b0382166113dd5760405162461bcd60e51b8152600401808060200182810382526022815260200180611ecf6022913960400191505060405180910390fd5b506001600160a01b03166000908152602091909152604090205460ff1690565b3390565b61141260078263ffffffff611b2816565b6040516001600160a01b038216907fcd265ebaf09df2871cc7bd4133404a235ba12eff2041bb89d9c714a2621c7c7e90600090a250565b610c978282611b8f565b61146460078263ffffffff611be316565b6040516001600160a01b038216907f6719d08c1888103bea251a4ed56406bd0c3e69723c8a1686e017e7bbe159b6f890600090a250565b6114a6610cb56113fd565b6114e15760405162461bcd60e51b8152600401808060200182810382526030815260200180611d006030913960400191505060405180910390fd5b60085460ff161561152c576040805162461bcd60e51b815260206004820152601060248201526f14185d5cd8589b194e881c185d5cd95960821b604482015290519081900360640190fd5b6008805460ff191660011790557f62e78cea01bee320cd4e420270b5ea74000d11b0c9f74754ebdbfc544b05a2586115626113fd565b604080516001600160a01b039092168252519081900360200190a1565b61159060068263ffffffff611be316565b6040516001600160a01b038216907f6ae172837ea30b801fbfcdd4108aa1d5bf8ff775444fd70256b44e6bf3dfc3f690600090a250565b6115d860068263ffffffff611b2816565b6040516001600160a01b038216907fe94479a9f7e1952cc78f2d6baab678adc1b772d936c6583def489e524cb6669290600090a250565b600061076161161c6113fd565b8461132e85604051806060016040528060258152602001611fa860259139600460006116466113fd565b6001600160a01b03908116825260208083019390935260409182016000908120918d1681529252902054919063ffffffff6116d516565b60085460009060ff16156116cb576040805162461bcd60e51b815260206004820152601060248201526f14185d5cd8589b194e881c185d5cd95960821b604482015290519081900360640190fd5b6108738383611c64565b600081848411156117645760405162461bcd60e51b81526004018080602001828103825283818151815260200191508051906020019080838360005b83811015611729578181015183820152602001611711565b50505050905090810190601f1680156117565780820380516001836020036101000a031916815260200191505b509250505060405180910390fd5b505050900390565b600082820183811015610873576040805162461bcd60e51b815260206004820152601b60248201527f536166654d6174683a206164646974696f6e206f766572666c6f770000000000604482015290519081900360640190fd5b6001600160a01b03831661180b5760405162461bcd60e51b8152600401808060200182810382526024815260200180611f5b6024913960400191505060405180910390fd5b6001600160a01b0382166118505760405162461bcd60e51b8152600401808060200182810382526022815260200180611d306022913960400191505060405180910390fd5b6001600160a01b03808416600081815260046020908152604080832094871680845294825291829020859055815185815291517f8c5be1e5ebec7d5bd14f71427d1e84f3dd0314c0f7b2291e5b200ac8c7c3b9259281900390910190a3505050565b60006118bf84848461110f565b611930846118cb6113fd565b61132e85604051806060016040528060288152602001611ea7602891396001600160a01b038a166000908152600460205260408120906119096113fd565b6001600160a01b03168152602081019190915260400160002054919063ffffffff6116d516565b5060019392505050565b6001600160a01b038216611995576040805162461bcd60e51b815260206004820152601f60248201527f45524332303a206d696e7420746f20746865207a65726f206164647265737300604482015290519081900360640190fd5b6005546119a8908263ffffffff61176c16565b6005556001600160a01b0382166000908152600360205260409020546119d4908263ffffffff61176c16565b6001600160a01b03831660008181526003602090815260408083209490945583518581529351929391927fddf252ad1be2c89b69c2b068fc378daa952ba7f163c4a11628f55a4df523b3ef9281900390910190a35050565b6001600160a01b038216611a715760405162461bcd60e51b8152600401808060200182810382526021815260200180611f156021913960400191505060405180910390fd5b611ab481604051806060016040528060228152602001611cde602291396001600160a01b038516600090815260036020526040902054919063ffffffff6116d516565b6001600160a01b038316600090815260036020526040902055600554611ae0908263ffffffff611c7816565b6005556040805182815290516000916001600160a01b038516917fddf252ad1be2c89b69c2b068fc378daa952ba7f163c4a11628f55a4df523b3ef9181900360200190a35050565b611b328282611396565b611b6d5760405162461bcd60e51b8152600401808060200182810382526021815260200180611e516021913960400191505060405180910390fd5b6001600160a01b0316600090815260209190915260409020805460ff19169055565b611b998282611a2c565b610c9782611ba56113fd565b61132e84604051806060016040528060248152602001611ef1602491396001600160a01b0388166000908152600460205260408120906119096113fd565b611bed8282611396565b15611c3f576040805162461bcd60e51b815260206004820152601f60248201527f526f6c65733a206163636f756e7420616c72656164792068617320726f6c6500604482015290519081900360640190fd5b6001600160a01b0316600090815260209190915260409020805460ff19166001179055565b6000610761611c716113fd565b848461110f565b600061087383836040518060400160405280601e81526020017f536166654d6174683a207375627472616374696f6e206f766572666c6f7700008152506116d556fe45524332303a207472616e7366657220746f20746865207a65726f206164647265737345524332303a206275726e20616d6f756e7420657863656564732062616c616e6365506175736572526f6c653a2063616c6c657220646f6573206e6f742068617665207468652050617573657220726f6c6545524332303a20617070726f766520746f20746865207a65726f2061646472657373596f7520646f206e6f74206861766520656e6f75676820546f6b656e732e20596f752063616e206f6e6c79207573652064656c65676174656420746f6b656e73206f6e20526567697374727920636f6e74726163747345524332303a207472616e7366657220616d6f756e7420657863656564732062616c616e63655468652062616c616e6365206f66207265636976657220697320746f6f206c6f77596f7520646f206e6f74206861766520656e6f75676820746f6b656e7320666f722074686973207472616e73616374696f6e4d696e746572526f6c653a2063616c6c657220646f6573206e6f74206861766520746865204d696e74657220726f6c65526f6c65733a206163636f756e7420646f6573206e6f74206861766520726f6c65596f7520646f206e6f7420686176652074686174206d7563682064656c65676174696f6e20666f722074686973206163636f756e7445524332303a207472616e7366657220616d6f756e74206578636565647320616c6c6f77616e6365526f6c65733a206163636f756e7420697320746865207a65726f206164647265737345524332303a206275726e20616d6f756e74206578636565647320616c6c6f77616e636545524332303a206275726e2066726f6d20746865207a65726f206164647265737345524332303a207472616e736665722066726f6d20746865207a65726f206164647265737345524332303a20617070726f76652066726f6d20746865207a65726f2061646472657373746869732066756e6374696f6e2063616e206f6e6c792062652072756e206f6e206372656174696f6e45524332303a2064656372656173656420616c6c6f77616e63652062656c6f77207a65726fa265627a7a72315820023e2245624f10da466a2f2e15f8ff15c04c4eea5ba3cda5b3576dde2c2cd03864736f6c63430005110032506175736572526f6c653a2063616c6c657220646f6573206e6f742068617665207468652050617573657220726f6c65526f6c65733a206163636f756e7420697320746865207a65726f2061646472657373746869732066756e6374696f6e2063616e206f6e6c792062652072756e206f6e206372656174696f6e",
  "source": "pragma solidity ^0.5.17;\n\nimport \"./ERC20Plus.sol\";\nimport \"./../tcr/Parameterizer.sol\";\nimport \"./../tcr/Registry.sol\";\nimport \"./../tcr/PLCR/PLCRVoting.sol\";\n\n/**\n * @title GOV\n * @dev Token used for governance\n */\ncontract GOV is ERC20Plus {\n\n    mapping(address => mapping(address => uint256)) private delegatorTokens;\n    // Total amount of tokens a user has delegated\n    mapping(address => uint256) private delegatorTokensTotal;\n    // The tokens that have been delagated to you\n    mapping(address => uint256) private delegateeTokens;\n\n    PLCRVoting public voting;\n    Parameterizer public parameterizer;\n    Registry public registry;\n\n    constructor(\n        string memory _name,\n        string memory _symbol,\n        uint8 _decimals,\n        address minter,\n        bool _isBurnable,\n        bool _isTransferable,\n        bool _isMintable,\n        uint _initialSupply)\n            ERC20Plus(_name,_symbol, _decimals, minter, _isBurnable, _isTransferable, _isMintable, _initialSupply, address(0))\n            public{}\n\n    function init(address _registry, address _parameterizer, address _voting) public {\n        require(_registry != address(0) && address(registry) == address(0), \"Contract already initialized\");\n        registry = Registry(_registry);\n        parameterizer = Parameterizer(_parameterizer);\n        voting = PLCRVoting(_voting);\n    }\n\n    /**\n    @dev Returns the amount of tokens delegated by the specified _tokenHolder\n    */\n    function getAmountsDelegatedByAUser(address _tokenHolder) public view returns(uint256) {\n        return delegatorTokensTotal[_tokenHolder];\n    }\n\n    /**\n    @dev Returns the amount of tokens delegated to the caller\n    */\n    function getAmountsDelegatedToMe() public view returns(uint256) {\n        return delegateeTokens[msg.sender];\n    }\n\n    /**\n    @dev Delegates tokens to an address\n    @param to Address of the user who should receive the amount of tokens\n    @param amount Amount of tokens received\n    */\n    function delegate(address to, uint256 amount) public returns (bool) {\n        require(msg.sender != to, \"You cannot delegate to yourself\");\n        require(balanceOf(msg.sender) - delegateeTokens[msg.sender] >= amount, \"You do not have enough tokens for this transaction\");\n\n        delegatorTokens[msg.sender][to] += amount;\n        delegateeTokens[to] += amount;\n        delegatorTokensTotal[msg.sender] += amount;\n        _transfer(msg.sender, to, amount);\n        return true;\n    }\n\n    /**\n    @dev Refunds delegated tokens from an address\n    @param to Address of the user who received delegated tokens\n    @param amount Amount of tokens to refund\n    */\n    function refundDelegation(address to, uint256 amount) public returns (bool) {\n        require(balanceOf(to) >= amount, \"The balance of reciver is too low\");\n        require(delegatorTokens[msg.sender][to] >= amount, \"You do not have that much delegation for this account\");\n\n        delegatorTokens[msg.sender][to] -= amount;\n        delegateeTokens[to] -= amount;\n        delegatorTokensTotal[msg.sender] -= amount;\n\n        _transfer(to, msg.sender, amount);\n        return true;\n    }\n\n    /**\n    @dev Overriding the ERC20 transfer function to limit transferability\n    */\n    function transfer(address recipient, uint256 amount) public returns (bool) {\n        require (balanceOf(msg.sender) >= amount, \"transfer: Not enough balance\");\n        if(msg.sender != address(voting) && msg.sender != address(parameterizer) && msg.sender != address(registry)){\n            require(recipient == address(voting) || recipient == address(parameterizer) || recipient == address(registry),\n                \"You do not have enough Tokens. You can only use delegated tokens on Registry contracts\");\n        }\n        return super.transfer(recipient, amount);\n    }\n\n    /**\n    @dev Overriding the ERC20 transferFrom function to limit transferability\n    */\n    function transferFrom(address sender, address recipient, uint256 amount) public returns (bool) {\n        require (balanceOf(sender) >= amount, \"transferFrom: Not enough balance\");\n        if(sender != address(voting) && sender != address(parameterizer) && sender != address(registry)){\n            require(recipient == address(voting) || recipient == address(parameterizer) || recipient == address(registry),\n                \"You do not have enough Tokens. You can only use delegated tokens on Registry contracts\");\n            }\n        return super.transferFrom(sender, recipient, amount);\n    }\n}\n",
  "sourcePath": "/home/cantonioupao/susDAO-saveMe/FIN4Contracts/contracts/tokens/GOV.sol",
  "compiler": {
    "name": "solc",
    "version": "0.5.17+commit.d19bba13.Emscripten.clang"
  },
  "schemaVersion": "3.3.1",
  "updatedAt": "2020-12-03T18:31:09.918Z",
  "devdoc": {
    "details": "Token used for governance",
    "methods": {
      "allowance(address,address)": {
        "details": "See {IERC20-allowance}."
      },
      "balanceOf(address)": {
        "details": "See {IERC20-balanceOf}."
      },
      "burn(uint256)": {
        "details": "Burns a specific amount of tokens.",
        "params": {
          "value": "The amount of token to be burned."
        }
      },
      "burnFrom(address,uint256)": {
        "details": "Burns a specific amount of tokens from the target address and decrements allowance",
        "params": {
          "from": "address The address which you want to send tokens from",
          "value": "uint256 The amount of token to be burned"
        }
      },
      "decimals()": {
        "details": "Returns the number of decimals used to get its user representation. For example, if `decimals` equals `2`, a balance of `505` tokens should be displayed to a user as `5,05` (`505 / 10 ** 2`).     * Tokens usually opt for a value of 18, imitating the relationship between Ether and Wei.     * NOTE: This information is only used for _display_ purposes: it in no way affects any of the arithmetic of the contract, including {IERC20-balanceOf} and {IERC20-transfer}."
      },
      "delegate(address,uint256)": {
        "details": "Delegates tokens to an address",
        "params": {
          "amount": "Amount of tokens received",
          "to": "Address of the user who should receive the amount of tokens"
        }
      },
      "getAmountsDelegatedByAUser(address)": {
        "details": "Returns the amount of tokens delegated by the specified _tokenHolder"
      },
      "getAmountsDelegatedToMe()": {
        "details": "Returns the amount of tokens delegated to the caller"
      },
      "mint(address,uint256)": {
        "details": "Function to mint tokens",
        "params": {
          "to": "The address that will receive the minted tokens.",
          "value": "The amount of tokens to mint."
        },
        "return": "A boolean that indicates if the operation was successful."
      },
      "name()": {
        "details": "Returns the name of the token."
      },
      "pause()": {
        "details": "called by the owner to pause, triggers stopped state. This means functions transfer, transferFrom, approve, increaseAllowance, and decreasAllowance, will not execute."
      },
      "paused()": {
        "details": "Returns true if the contract is paused, and false otherwise."
      },
      "refundDelegation(address,uint256)": {
        "details": "Refunds delegated tokens from an address",
        "params": {
          "amount": "Amount of tokens to refund",
          "to": "Address of the user who received delegated tokens"
        }
      },
      "symbol()": {
        "details": "Returns the symbol of the token, usually a shorter version of the name."
      },
      "totalSupply()": {
        "details": "See {IERC20-totalSupply}."
      },
      "transfer(address,uint256)": {
        "details": "Overriding the ERC20 transfer function to limit transferability"
      },
      "transferFrom(address,address,uint256)": {
        "details": "Overriding the ERC20 transferFrom function to limit transferability"
      },
      "unpause()": {
        "details": "This will undo pause(). The purpose of this declaration is to disable this function, as this function must not be called (unless making an untransferable token transferable again is wanted, but this is currently not an offered feature)."
      }
    },
    "title": "GOV"
  },
  "userdoc": {
    "methods": {}
  }
}