{
  "contractName": "MintingSourcerer",
  "abi": [
    {
      "inputs": [
        {
          "internalType": "address",
          "name": "Fin4UnderlyingsAddr",
          "type": "address"
        }
      ],
      "payable": false,
      "stateMutability": "nonpayable",
      "type": "constructor"
    },
    {
      "constant": true,
      "inputs": [
        {
          "internalType": "address",
          "name": "pat",
          "type": "address"
        },
        {
          "internalType": "address",
          "name": "collateral",
          "type": "address"
        }
      ],
      "name": "getCollateralBalanceOnPair",
      "outputs": [
        {
          "internalType": "uint256",
          "name": "",
          "type": "uint256"
        }
      ],
      "payable": false,
      "stateMutability": "view",
      "type": "function"
    },
    {
      "constant": true,
      "inputs": [
        {
          "internalType": "address",
          "name": "pat",
          "type": "address"
        },
        {
          "internalType": "address",
          "name": "collateral",
          "type": "address"
        }
      ],
      "name": "getId",
      "outputs": [
        {
          "internalType": "bytes32",
          "name": "",
          "type": "bytes32"
        }
      ],
      "payable": false,
      "stateMutability": "view",
      "type": "function"
    },
    {
      "constant": true,
      "inputs": [],
      "name": "getPairs",
      "outputs": [
        {
          "internalType": "address[]",
          "name": "",
          "type": "address[]"
        },
        {
          "internalType": "address[]",
          "name": "",
          "type": "address[]"
        },
        {
          "internalType": "address[]",
          "name": "",
          "type": "address[]"
        },
        {
          "internalType": "uint256[]",
          "name": "",
          "type": "uint256[]"
        },
        {
          "internalType": "uint256[]",
          "name": "",
          "type": "uint256[]"
        },
        {
          "internalType": "uint256[]",
          "name": "",
          "type": "uint256[]"
        }
      ],
      "payable": false,
      "stateMutability": "view",
      "type": "function"
    },
    {
      "constant": true,
      "inputs": [
        {
          "internalType": "uint256",
          "name": "",
          "type": "uint256"
        }
      ],
      "name": "ids",
      "outputs": [
        {
          "internalType": "bytes32",
          "name": "",
          "type": "bytes32"
        }
      ],
      "payable": false,
      "stateMutability": "view",
      "type": "function"
    },
    {
      "constant": true,
      "inputs": [
        {
          "internalType": "address",
          "name": "",
          "type": "address"
        }
      ],
      "name": "knownPATs",
      "outputs": [
        {
          "internalType": "bool",
          "name": "",
          "type": "bool"
        }
      ],
      "payable": false,
      "stateMutability": "view",
      "type": "function"
    },
    {
      "constant": true,
      "inputs": [
        {
          "internalType": "bytes32",
          "name": "",
          "type": "bytes32"
        }
      ],
      "name": "pairs",
      "outputs": [
        {
          "internalType": "bool",
          "name": "exists",
          "type": "bool"
        },
        {
          "internalType": "bytes32",
          "name": "id",
          "type": "bytes32"
        },
        {
          "internalType": "address",
          "name": "creator",
          "type": "address"
        },
        {
          "internalType": "address",
          "name": "pat",
          "type": "address"
        },
        {
          "internalType": "address",
          "name": "collateral",
          "type": "address"
        },
        {
          "internalType": "address",
          "name": "beneficiary",
          "type": "address"
        },
        {
          "internalType": "uint256",
          "name": "exchangeRatio",
          "type": "uint256"
        },
        {
          "internalType": "uint256",
          "name": "totalCollateralBalance",
          "type": "uint256"
        },
        {
          "internalType": "uint256",
          "name": "totalExchangedPatAmount",
          "type": "uint256"
        }
      ],
      "payable": false,
      "stateMutability": "view",
      "type": "function"
    },
    {
      "constant": false,
      "inputs": [
        {
          "internalType": "address",
          "name": "pat",
          "type": "address"
        },
        {
          "internalType": "address",
          "name": "collateral",
          "type": "address"
        },
        {
          "internalType": "address",
          "name": "beneficiary",
          "type": "address"
        },
        {
          "internalType": "uint256",
          "name": "exchangeRatio",
          "type": "uint256"
        }
      ],
      "name": "setParameters",
      "outputs": [],
      "payable": false,
      "stateMutability": "nonpayable",
      "type": "function"
    },
    {
      "constant": false,
      "inputs": [
        {
          "internalType": "address",
          "name": "pat",
          "type": "address"
        },
        {
          "internalType": "address",
          "name": "collateral",
          "type": "address"
        },
        {
          "internalType": "uint256",
          "name": "amount",
          "type": "uint256"
        }
      ],
      "name": "depositCollateral",
      "outputs": [],
      "payable": false,
      "stateMutability": "nonpayable",
      "type": "function"
    },
    {
      "constant": false,
      "inputs": [
        {
          "internalType": "address",
          "name": "pat",
          "type": "address"
        },
        {
          "internalType": "address",
          "name": "collateral",
          "type": "address"
        },
        {
          "internalType": "uint256",
          "name": "amount",
          "type": "uint256"
        }
      ],
      "name": "convert",
      "outputs": [],
      "payable": false,
      "stateMutability": "nonpayable",
      "type": "function"
    },
    {
      "constant": true,
      "inputs": [],
      "name": "getParameterForTokenCreatorToSetEncoded",
      "outputs": [
        {
          "internalType": "string",
          "name": "",
          "type": "string"
        }
      ],
      "payable": false,
      "stateMutability": "pure",
      "type": "function"
    }
  ],
  "bytecode": "0x608060405234801561001057600080fd5b506040516111a03803806111a08339818101604052602081101561003357600080fd5b5051600080546001600160a01b039092166001600160a01b031990921691909117905561113b806100656000396000f3fe608060405234801561001057600080fd5b506004361061009e5760003560e01c8063767eb5ef11610066578063767eb5ef146102485780638260e983146103fd578063c774f9f514610439578063f970c3b714610467578063fac333ac1461049d5761009e565b8063248391ff146100a357806336ef80db146100db5780633a0f47461461011b578063673e0481146101555780636c71d542146101cb575b600080fd5b6100d9600480360360608110156100b957600080fd5b506001600160a01b038135811691602081013590911690604001356104ba565b005b610109600480360360408110156100f157600080fd5b506001600160a01b03813581169160200135166105a7565b60408051918252519081900360200190f35b6101416004803603602081101561013157600080fd5b50356001600160a01b0316610619565b604080519115158252519081900360200190f35b6101726004803603602081101561016b57600080fd5b503561062e565b604080519915158a5260208a01989098526001600160a01b039687168989015294861660608901529285166080880152931660a086015260c085019290925260e084019190915261010083015251908190036101200190f35b6101d361068f565b6040805160208082528351818301528351919283929083019185019080838360005b8381101561020d5781810151838201526020016101f5565b50505050905090810190601f16801561023a5780820380516001836020036101000a031916815260200191505b509250505060405180910390f35b6102506106af565b6040518080602001806020018060200180602001806020018060200187810387528d818151815260200191508051906020019060200280838360005b838110156102a457818101518382015260200161028c565b5050505090500187810386528c818151815260200191508051906020019060200280838360005b838110156102e35781810151838201526020016102cb565b5050505090500187810385528b818151815260200191508051906020019060200280838360005b8381101561032257818101518382015260200161030a565b5050505090500187810384528a818151815260200191508051906020019060200280838360005b83811015610361578181015183820152602001610349565b50505050905001878103835289818151815260200191508051906020019060200280838360005b838110156103a0578181015183820152602001610388565b50505050905001878103825288818151815260200191508051906020019060200280838360005b838110156103df5781810151838201526020016103c7565b505050509050019c5050505050505050505050505060405180910390f35b6100d96004803603608081101561041357600080fd5b506001600160a01b0381358116916020810135821691604082013516906060013561097d565b6101096004803603604081101561044f57600080fd5b506001600160a01b0381358116916020013516610d95565b6100d96004803603606081101561047d57600080fd5b506001600160a01b03813581169160208101359091169060400135610dbc565b610109600480360360208110156104b357600080fd5b5035610df3565b60006104c684846105a7565b90506104d3843384610e11565b60008181526001602052604090206006015482026001600160a01b0384166340c10f196105008433610efb565b836040518363ffffffff1660e01b815260040180836001600160a01b03166001600160a01b0316815260200182815260200192505050602060405180830381600087803b15801561055057600080fd5b505af1158015610564573d6000803e3d6000fd5b505050506040513d602081101561057a57600080fd5b50506000918252600160205260409091206008810180549093019092556007909101805490910190555050565b6000806105b48484610f41565b60008181526001602052604090205490915060ff16610610576040805162461bcd60e51b815260206004820152601360248201527214185a5c88191bd95cc81b9bdd08195e1a5cdd606a1b604482015290519081900360640190fd5b90505b92915050565b60036020526000908152604090205460ff1681565b600160208190526000918252604090912080549181015460028201546003830154600484015460058501546006860154600787015460089097015460ff9098169795966001600160a01b039586169694861695938416949290931692909189565b60606040518060c0016040528060988152602001610fb360989139905090565b60608060608060608060606002805490506040519080825280602002602001820160405280156106e9578160200160208202803883390190505b509050606060028054905060405190808252806020026020018201604052801561071d578160200160208202803883390190505b5090506060600280549050604051908082528060200260200182016040528015610751578160200160208202803883390190505b5090506060600280549050604051908082528060200260200182016040528015610785578160200160208202803883390190505b50905060606002805490506040519080825280602002602001820160405280156107b9578160200160208202803883390190505b50905060606002805490506040519080825280602002602001820160405280156107ed578160200160208202803883390190505b50905060005b6002548110156109695760006002828154811061080c57fe5b6000918252602080832090910154808352600190915260409091206003015489519192506001600160a01b03169089908490811061084657fe5b6001600160a01b03928316602091820292909201810191909152600083815260019091526040902060040154885191169088908490811061088357fe5b6001600160a01b0392831660209182029290920181019190915260008381526001909152604090206005015487519116908790849081106108c057fe5b6001600160a01b0390921660209283029190910182015260008281526001909152604090206006015485518690849081106108f757fe5b602002602001018181525050600160008281526020019081526020016000206007015484838151811061092657fe5b602002602001018181525050600160008281526020019081526020016000206008015483838151811061095557fe5b6020908102919091010152506001016107f3565b50949b939a50919850965094509092509050565b6001600160a01b0384161580159061099d57506001600160a01b03831615155b6109d85760405162461bcd60e51b815260040180806020018281038252602c81526020018061108a602c913960400191505060405180910390fd5b826001600160a01b0316846001600160a01b03161415610a295760405162461bcd60e51b815260040180806020018281038252602a815260200180610f89602a913960400191505060405180910390fd5b6001600160a01b03841660009081526003602052604090205460ff1615610b09576000805460408051634ed8b2a960e01b81523360048201526001600160a01b03888116602483015291519190921692634ed8b2a992604480820193602093909283900390910190829087803b158015610aa257600080fd5b505af1158015610ab6573d6000803e3d6000fd5b505050506040513d6020811015610acc57600080fd5b5051610b095760405162461bcd60e51b81526004018080602001828103825260278152602001806110e06027913960400191505060405180910390fd5b600080546040805163376bc08f60e01b81523360048201526001600160a01b03888116602483015287811660448301529151919092169263376bc08f92606480820193602093909283900390910190829087803b158015610b6957600080fd5b505af1158015610b7d573d6000803e3d6000fd5b505050506040513d6020811015610b9357600080fd5b5051610bd05760405162461bcd60e51b815260040180806020018281038252602a8152602001806110b6602a913960400191505060405180910390fd5b6000610bdc8585610f41565b60008181526001602052604090205490915060ff1615610c39576040805162461bcd60e51b81526020600482015260136024820152725061697220616c72656164792065786973747360681b604482015290519081900360640190fd5b600060016000838152602001908152602001600020905060018160000160006101000a81548160ff021916908315150217905550818160010181905550338160020160006101000a8154816001600160a01b0302191690836001600160a01b03160217905550858160030160006101000a8154816001600160a01b0302191690836001600160a01b03160217905550848160040160006101000a8154816001600160a01b0302191690836001600160a01b03160217905550838160050160006101000a8154816001600160a01b0302191690836001600160a01b031602179055508281600601819055506002829080600181540180825580915050906001820390600052602060002001600090919290919091505550600160036000886001600160a01b03166001600160a01b0316815260200190815260200160002060006101000a81548160ff021916908315150217905550505050505050565b600080610da284846105a7565b600090815260016020526040902060070154949350505050565b60405162461bcd60e51b815260040180806020018281038252603f81526020018061104b603f913960400191505060405180910390fd5b60028181548110610e0057fe5b600091825260209091200154905081565b604080516323b872dd60e01b81526001600160a01b038481166004830152306024830152604482018490529151918516916323b872dd916064808201926020929091908290030181600087803b158015610e6a57600080fd5b505af1158015610e7e573d6000803e3d6000fd5b505050506040513d6020811015610e9457600080fd5b505060408051630852cd8d60e31b81526004810183905290516001600160a01b038516916342966c6891602480830192600092919082900301818387803b158015610ede57600080fd5b505af1158015610ef2573d6000803e3d6000fd5b50505050505050565b6000828152600160205260408120600501546001600160a01b0316610f21575080610613565b50506000908152600160205260409020600501546001600160a01b031690565b604080516bffffffffffffffffffffffff19606094851b81166020808401919091529390941b9093166034840152805160288185030181526048909301905281519101209056fe50415420616e6420636f6c6c61746572616c2063616e2774206265207468652073616d6520746f6b656e616464726573733a636f6c6c61746572616c3a61646472657373206f6620746f6b656e20746f206d696e742c616464726573733a62656e65666963696172793a6c6561766520626c616e6b20666f7220697420746f2062652074686520636c61696d65722c75696e743a65786368616e6765526174696f3a67697665206e20676574206e2a7820636f6c6c61746572616c206d696e7465644465706f736974696e6720636f6c6c61746572616c206f6e20746865204d696e74696e67536f75726365726572206973206e6f7420737570706f727465642e50415420616e6420636f6c6c61746572616c2063616e277420626520746865207a65726f2d616464726573735468697320636f6c6c61746572616c2063616e2774206265207573656420696e207468697320706169724e6577207061697273207769746820746869732050415420617265206e6f7420616c6c6f776564a265627a7a723158201ce29a0dc45ecca5eb15555149102c448bba8b14ac58dc07c68c36841e62345064736f6c63430005110032",
  "source": "pragma solidity ^0.5.17;\n\nimport 'contracts/underlyings/BaseSourcerer.sol';\nimport \"@openzeppelin/contracts/token/ERC20/ERC20Mintable.sol\";\n\ncontract MintingSourcerer is BaseSourcerer {\n\n    constructor(address Fin4UnderlyingsAddr) BaseSourcerer(Fin4UnderlyingsAddr) public {}\n\n    function depositCollateral(address pat, address collateral, uint amount) public {\n        require(false, \"Depositing collateral on the MintingSourcerer is not supported.\");\n    }\n\n    // TODO overwrite setParameters() and block certain types of pairs. The collateral\n    // token creator must be able to limit the types of pairs the token can be used in\n\n    function convert(address pat, address collateral, uint amount) public {\n        bytes32 id = getId(pat, collateral);\n        fetchAndBurnPAT(pat, msg.sender, amount);\n\n        uint exchangeAmount = amount * pairs[id].exchangeRatio;\n\n        // mint COLLATERAL, requires this contract to have the minter role\n        ERC20Mintable(collateral).mint(getBeneficiary(id, msg.sender), exchangeAmount);\n\n        pairs[id].totalExchangedPatAmount += amount;\n        pairs[id].totalCollateralBalance += exchangeAmount; // gets up too because of minting\n    }\n\n    function getParameterForTokenCreatorToSetEncoded() public pure returns(string memory) {\n        return \"address:collateral:address of token to mint,address:beneficiary:leave blank for it to be the claimer,\"\n            \"uint:exchangeRatio:give n get n*x collateral minted\";\n    }\n\n}\n",
  "sourcePath": "/home/cantonioupao/susDAO-saveMe/FIN4Contracts/contracts/underlyings/MintingSourcerer.sol",
  "compiler": {
    "name": "solc",
    "version": "0.5.17+commit.d19bba13.Emscripten.clang"
  },
  "schemaVersion": "3.3.1",
  "updatedAt": "2020-12-03T18:27:58.952Z",
  "devdoc": {
    "methods": {}
  },
  "userdoc": {
    "methods": {}
  }
}