{
  "contractName": "Networking",
  "abi": [
    {
      "inputs": [],
      "payable": false,
      "stateMutability": "nonpayable",
      "type": "constructor"
    },
    {
      "constant": true,
      "inputs": [],
      "name": "Fin4MessagingAddress",
      "outputs": [
        {
          "internalType": "address",
          "name": "",
          "type": "address"
        }
      ],
      "payable": false,
      "stateMutability": "view",
      "type": "function"
    },
    {
      "constant": true,
      "inputs": [],
      "name": "Fin4VerifyingAddress",
      "outputs": [
        {
          "internalType": "address",
          "name": "",
          "type": "address"
        }
      ],
      "payable": false,
      "stateMutability": "view",
      "type": "function"
    },
    {
      "constant": true,
      "inputs": [
        {
          "internalType": "address",
          "name": "_addr",
          "type": "address"
        }
      ],
      "name": "addressToString",
      "outputs": [
        {
          "internalType": "string",
          "name": "",
          "type": "string"
        }
      ],
      "payable": false,
      "stateMutability": "pure",
      "type": "function"
    },
    {
      "constant": true,
      "inputs": [
        {
          "internalType": "address[]",
          "name": "arr",
          "type": "address[]"
        },
        {
          "internalType": "address",
          "name": "addrToCheck",
          "type": "address"
        }
      ],
      "name": "arrayContainsAddress",
      "outputs": [
        {
          "internalType": "bool",
          "name": "",
          "type": "bool"
        }
      ],
      "payable": false,
      "stateMutability": "pure",
      "type": "function"
    },
    {
      "constant": false,
      "inputs": [
        {
          "internalType": "address",
          "name": "user",
          "type": "address"
        },
        {
          "internalType": "address",
          "name": "tokenAddrToReceiveVerifierNotice",
          "type": "address"
        },
        {
          "internalType": "uint256",
          "name": "claimId",
          "type": "uint256"
        }
      ],
      "name": "autoCheck",
      "outputs": [],
      "payable": false,
      "stateMutability": "nonpayable",
      "type": "function"
    },
    {
      "constant": false,
      "inputs": [
        {
          "internalType": "address",
          "name": "user",
          "type": "address"
        },
        {
          "internalType": "address",
          "name": "tokenAddrToReceiveVerifierNotice",
          "type": "address"
        },
        {
          "internalType": "uint256",
          "name": "claimId",
          "type": "uint256"
        }
      ],
      "name": "autoSubmitProof",
      "outputs": [],
      "payable": false,
      "stateMutability": "nonpayable",
      "type": "function"
    },
    {
      "constant": true,
      "inputs": [],
      "name": "contractName",
      "outputs": [
        {
          "internalType": "string",
          "name": "",
          "type": "string"
        }
      ],
      "payable": false,
      "stateMutability": "view",
      "type": "function"
    },
    {
      "constant": true,
      "inputs": [],
      "name": "description",
      "outputs": [
        {
          "internalType": "string",
          "name": "",
          "type": "string"
        }
      ],
      "payable": false,
      "stateMutability": "view",
      "type": "function"
    },
    {
      "constant": true,
      "inputs": [
        {
          "internalType": "address",
          "name": "tokenAddress",
          "type": "address"
        }
      ],
      "name": "getCreatorOfToken",
      "outputs": [
        {
          "internalType": "address",
          "name": "",
          "type": "address"
        }
      ],
      "payable": false,
      "stateMutability": "view",
      "type": "function"
    },
    {
      "constant": true,
      "inputs": [],
      "name": "getDescription",
      "outputs": [
        {
          "internalType": "string",
          "name": "",
          "type": "string"
        }
      ],
      "payable": false,
      "stateMutability": "view",
      "type": "function"
    },
    {
      "constant": true,
      "inputs": [],
      "name": "getInfo",
      "outputs": [
        {
          "internalType": "string",
          "name": "",
          "type": "string"
        },
        {
          "internalType": "string",
          "name": "",
          "type": "string"
        },
        {
          "internalType": "string",
          "name": "",
          "type": "string"
        },
        {
          "internalType": "string",
          "name": "",
          "type": "string"
        }
      ],
      "payable": false,
      "stateMutability": "view",
      "type": "function"
    },
    {
      "constant": true,
      "inputs": [],
      "name": "getName",
      "outputs": [
        {
          "internalType": "string",
          "name": "",
          "type": "string"
        }
      ],
      "payable": false,
      "stateMutability": "view",
      "type": "function"
    },
    {
      "constant": true,
      "inputs": [],
      "name": "getParameterForTokenCreatorToSetEncoded",
      "outputs": [
        {
          "internalType": "string",
          "name": "",
          "type": "string"
        }
      ],
      "payable": false,
      "stateMutability": "pure",
      "type": "function"
    },
    {
      "constant": true,
      "inputs": [],
      "name": "isAutoCheckable",
      "outputs": [
        {
          "internalType": "bool",
          "name": "",
          "type": "bool"
        }
      ],
      "payable": false,
      "stateMutability": "view",
      "type": "function"
    },
    {
      "constant": true,
      "inputs": [],
      "name": "isAutoInitiable",
      "outputs": [
        {
          "internalType": "bool",
          "name": "",
          "type": "bool"
        }
      ],
      "payable": false,
      "stateMutability": "view",
      "type": "function"
    },
    {
      "constant": true,
      "inputs": [],
      "name": "name",
      "outputs": [
        {
          "internalType": "string",
          "name": "",
          "type": "string"
        }
      ],
      "payable": false,
      "stateMutability": "view",
      "type": "function"
    },
    {
      "constant": true,
      "inputs": [
        {
          "internalType": "address",
          "name": "",
          "type": "address"
        },
        {
          "internalType": "uint256",
          "name": "",
          "type": "uint256"
        }
      ],
      "name": "pendingApprovals",
      "outputs": [
        {
          "internalType": "uint256",
          "name": "pendingApprovalId",
          "type": "uint256"
        },
        {
          "internalType": "address",
          "name": "tokenAddrToReceiveVerifierNotice",
          "type": "address"
        },
        {
          "internalType": "uint256",
          "name": "claimIdOnTokenToReceiveVerifierDecision",
          "type": "uint256"
        },
        {
          "internalType": "address",
          "name": "requester",
          "type": "address"
        },
        {
          "internalType": "address",
          "name": "approver",
          "type": "address"
        },
        {
          "internalType": "string",
          "name": "attachment",
          "type": "string"
        },
        {
          "internalType": "uint256",
          "name": "messageId",
          "type": "uint256"
        },
        {
          "internalType": "bool",
          "name": "isApproved",
          "type": "bool"
        },
        {
          "internalType": "uint256",
          "name": "timestamp",
          "type": "uint256"
        }
      ],
      "payable": false,
      "stateMutability": "view",
      "type": "function"
    },
    {
      "constant": false,
      "inputs": [
        {
          "internalType": "string",
          "name": "_contractName",
          "type": "string"
        }
      ],
      "name": "setContractName",
      "outputs": [],
      "payable": false,
      "stateMutability": "nonpayable",
      "type": "function"
    },
    {
      "constant": false,
      "inputs": [
        {
          "internalType": "address",
          "name": "Fin4VerifyingAddr",
          "type": "address"
        }
      ],
      "name": "setFin4VerifyingAddress",
      "outputs": [],
      "payable": false,
      "stateMutability": "nonpayable",
      "type": "function"
    },
    {
      "constant": false,
      "inputs": [
        {
          "internalType": "address",
          "name": "Fin4MessagingAddr",
          "type": "address"
        }
      ],
      "name": "setFin4MessagingAddress",
      "outputs": [],
      "payable": false,
      "stateMutability": "nonpayable",
      "type": "function"
    },
    {
      "constant": false,
      "inputs": [
        {
          "internalType": "address",
          "name": "tokenAddrToReceiveVerifierNotice",
          "type": "address"
        },
        {
          "internalType": "uint256",
          "name": "claimId",
          "type": "uint256"
        },
        {
          "internalType": "address",
          "name": "approver",
          "type": "address"
        },
        {
          "internalType": "string",
          "name": "content",
          "type": "string"
        }
      ],
      "name": "submitProof",
      "outputs": [],
      "payable": false,
      "stateMutability": "nonpayable",
      "type": "function"
    },
    {
      "constant": false,
      "inputs": [
        {
          "internalType": "uint256",
          "name": "pendingApprovalId",
          "type": "uint256"
        },
        {
          "internalType": "string",
          "name": "attachedMessage",
          "type": "string"
        }
      ],
      "name": "receiveApproval",
      "outputs": [],
      "payable": false,
      "stateMutability": "nonpayable",
      "type": "function"
    },
    {
      "constant": false,
      "inputs": [
        {
          "internalType": "uint256",
          "name": "pendingApprovalId",
          "type": "uint256"
        },
        {
          "internalType": "string",
          "name": "attachedMessage",
          "type": "string"
        }
      ],
      "name": "receiveRejection",
      "outputs": [],
      "payable": false,
      "stateMutability": "nonpayable",
      "type": "function"
    }
  ],
  "bytecode": "0x60806040526003805461ffff191690553480156200001c57600080fd5b5060408051808201909152601b8082527f73632e76657269666965722e6e6574776f726b696e672e6e616d650000000000602090920191825262000063916001916200009b565b506040518060600160405280602281526020016200249060229139805162000094916002916020909101906200009b565b5062000140565b828054600181600116156101000203166002900490600052602060002090601f016020900481019282601f10620000de57805160ff19168380011785556200010e565b828001600101855582156200010e579182015b828111156200010e578251825591602001919060010190620000f1565b506200011c92915062000120565b5090565b6200013d91905b808211156200011c576000815560010162000127565b90565b61234080620001506000396000f3fe608060405234801561001057600080fd5b506004361061014d5760003560e01c80635a9b0b89116100c35780639259360c1161007c5780639259360c146107ab578063ae18e0a514610857578063c05ebcc51461088d578063e4ad4acd14610895578063eb92f76a1461089d578063ffc5daef146108575761014d565b80635a9b0b89146105955780635e57966d146107475780636c71d5421461076d5780637284e4161461077557806375d0c0dc1461077d5780638bbfc6eb146107855761014d565b806324b4de261161011557806324b4de26146102ab57806336790932146103565780633939f53d146103985780634036e3b3146104ae5780634d1a1d5d146104b657806350a2c70b146104d25761014d565b806306fdde03146101525780630b5ee006146101cf5780630d4c73ca1461027557806317d7de7c1461029b5780631a092541146102a3575b600080fd5b61015a610948565b6040805160208082528351818301528351919283929083019185019080838360005b8381101561019457818101518382015260200161017c565b50505050905090810190601f1680156101c15780820380516001836020036101000a031916815260200191505b509250505060405180910390f35b610273600480360360208110156101e557600080fd5b810190602081018135600160201b8111156101ff57600080fd5b82018360208201111561021157600080fd5b803590602001918460018302840111600160201b8311171561023257600080fd5b91908080601f0160208091040260200160405190810160405280939291908181526020018383808284376000920191909152509295506109d5945050505050565b005b6102736004803603602081101561028b57600080fd5b50356001600160a01b03166109ec565b61015a610a16565b61015a610aac565b610273600480360360408110156102c157600080fd5b81359190810190604081016020820135600160201b8111156102e257600080fd5b8201836020820111156102f457600080fd5b803590602001918460018302840111600160201b8311171561031557600080fd5b91908080601f016020809104026020016040519081016040528093929190818152602001838380828437600092019190915250929550610b0a945050505050565b61037c6004803603602081101561036c57600080fd5b50356001600160a01b0316610e2d565b604080516001600160a01b039092168252519081900360200190f35b6103c4600480360360408110156103ae57600080fd5b506001600160a01b038135169060200135610e9a565b604051808a8152602001896001600160a01b03166001600160a01b03168152602001888152602001876001600160a01b03166001600160a01b03168152602001866001600160a01b03166001600160a01b031681526020018060200185815260200184151515158152602001838152602001828103825286818151815260200191508051906020019080838360005b8381101561046b578181015183820152602001610453565b50505050905090810190601f1680156104985780820380516001836020036101000a031916815260200191505b509a505050505050505050505060405180910390f35b61037c610fa3565b6104be610fb8565b604080519115158252519081900360200190f35b610273600480360360808110156104e857600080fd5b6001600160a01b038235811692602081013592604082013590921691810190608081016060820135600160201b81111561052157600080fd5b82018360208201111561053357600080fd5b803590602001918460018302840111600160201b8311171561055457600080fd5b91908080601f016020809104026020016040519081016040528093929190818152602001838380828437600092019190915250929550610fc6945050505050565b61059d611525565b6040518080602001806020018060200180602001858103855289818151815260200191508051906020019080838360005b838110156105e65781810151838201526020016105ce565b50505050905090810190601f1680156106135780820380516001836020036101000a031916815260200191505b5085810384528851815288516020918201918a019080838360005b8381101561064657818101518382015260200161062e565b50505050905090810190601f1680156106735780820380516001836020036101000a031916815260200191505b50858103835287518152875160209182019189019080838360005b838110156106a657818101518382015260200161068e565b50505050905090810190601f1680156106d35780820380516001836020036101000a031916815260200191505b50858103825286518152865160209182019188019080838360005b838110156107065781810151838201526020016106ee565b50505050905090810190601f1680156107335780820380516001836020036101000a031916815260200191505b509850505050505050505060405180910390f35b61015a6004803603602081101561075d57600080fd5b50356001600160a01b03166116f0565b61015a61186c565b61015a61187e565b61015a6118d6565b6102736004803603602081101561079b57600080fd5b50356001600160a01b0316611931565b6104be600480360360408110156107c157600080fd5b810190602081018135600160201b8111156107db57600080fd5b8201836020820111156107ed57600080fd5b803590602001918460208302840111600160201b8311171561080e57600080fd5b919080806020026020016040519081016040528093929190818152602001838360200280828437600092019190915250929550505090356001600160a01b031691506119539050565b6102736004803603606081101561086d57600080fd5b506001600160a01b038135811691602081013590911690604001356119ab565b6104be6119b0565b61037c6119b9565b610273600480360360408110156108b357600080fd5b81359190810190604081016020820135600160201b8111156108d457600080fd5b8201836020820111156108e657600080fd5b803590602001918460018302840111600160201b8311171561090757600080fd5b91908080601f0160208091040260200160405190810160405280939291908181526020018383808284376000920191909152509295506119c8945050505050565b60018054604080516020600284861615610100026000190190941693909304601f810184900484028201840190925281815292918301828280156109cd5780601f106109a2576101008083540402835291602001916109cd565b820191906000526020600020905b8154815290600101906020018083116109b057829003601f168201915b505050505081565b80516109e890600090602084019061212f565b5050565b600380546001600160a01b03909216620100000262010000600160b01b0319909216919091179055565b60018054604080516020601f60026000196101008789161502019095169490940493840181900481028201810190925282815260609390929091830182828015610aa15780601f10610a7657610100808354040283529160200191610aa1565b820191906000526020600020905b815481529060010190602001808311610a8457829003601f168201915b505050505090505b90565b60028054604080516020601f6000196101006001871615020190941685900493840181900481028201810190925282815260609390929091830182828015610aa15780601f10610a7657610100808354040283529160200191610aa1565b610b126121ad565b336000908152600560205260409020805484908110610b2d57fe5b60009182526020918290206040805161012081018252600993909302909101805483526001808201546001600160a01b0390811685870152600280840154868601526003840154821660608701526004840154909116608086015260058301805485516101009482161594909402600019011691909104601f81018790048702830187019094528382529394919360a08601939192909190830182828015610c165780601f10610beb57610100808354040283529160200191610c16565b820191906000526020600020905b815481529060010190602001808311610bf957829003601f168201915b505050918352505060068201546020820152600782015460ff161515604082015260089091015460609091015260808101519091506001600160a01b03163314610c915760405162461bcd60e51b81526004018080602001828103825260448152602001806122c86044913960600191505060405180910390fd5b6004805460c0830151604080516392825c7960e01b815233948101949094526024840191909152516001600160a01b03909116916392825c7991604480830192600092919082900301818387803b158015610ceb57600080fd5b505af1158015610cff573d6000803e3d6000fd5b50505050610d17308260200151836040015185611ecc565b600354602082810151606084015161010085015160a08601516040516377e27b5360e11b815230600482018181526001600160a01b03808816602485015280871660448501526064840186905260006084850181905260c060a48601908152865160c4870152865162010000909c049092169a63efc4f6a69a94999897969195919460e490920191850190808383895b83811015610dbf578181015183820152602001610da7565b50505050905090810190601f168015610dec5780820380516001836020036101000a031916815260200191505b50975050505050505050600060405180830381600087803b158015610e1057600080fd5b505af1158015610e24573d6000803e3d6000fd5b50505050505050565b6000816001600160a01b0316639c6790176040518163ffffffff1660e01b815260040160206040518083038186803b158015610e6857600080fd5b505afa158015610e7c573d6000803e3d6000fd5b505050506040513d6020811015610e9257600080fd5b505192915050565b60056020528160005260406000208181548110610eb357fe5b6000918252602091829020600991909102018054600180830154600280850154600386015460048701546005880180546040805161010099831615999099026000190190911695909504601f81018b90048b0288018b01909552848752969a506001600160a01b03948516995091979084169693909116949293929190830182828015610f815780601f10610f5657610100808354040283529160200191610f81565b820191906000526020600020905b815481529060010190602001808311610f6457829003601f168201915b50505050600683015460078401546008909401549293909260ff909116915089565b6003546201000090046001600160a01b031681565b600354610100900460ff1681565b610fce6121ad565b6001600160a01b03808616602080840182905260408085018890523360608087019190915293871660808601819052600090815260059092528082205485524261010086015260a0850186905280516306fdde0360e01b815290516306fdde0392600480840193919291829003018186803b15801561104c57600080fd5b505afa158015611060573d6000803e3d6000fd5b505050506040513d6000823e601f3d908101601f19168201604052602081101561108957600080fd5b8101908080516040519392919084600160201b8211156110a857600080fd5b9083019060208201858111156110bd57600080fd5b8251600160201b8111828201881017156110d657600080fd5b82525081516020918201929091019080838360005b838110156111035781810151838201526020016110eb565b50505050905090810190601f1680156111305780820380516001836020036101000a031916815260200191505b50604052505050836040516020018080612289603f9139603f0183805190602001908083835b602083106111755780518252601f199092019160209182019101611156565b51815160209384036101000a60001901801990921691161790527f272e20546865207375626d697474656420636f6e74656e742069732027000000919093019081528451601d90910192850191508083835b602083106111e65780518252601f1990920191602091820191016111c7565b6001836020036101000a0380198251168184511680821785525050505050509050018061139760f11b815250600201925050506040516020818303038152906040529050600460009054906101000a90046001600160a01b03166001600160a01b031663a12e93dd33600087858888600001516040518763ffffffff1660e01b815260040180876001600160a01b03166001600160a01b0316815260200180602001866001600160a01b03166001600160a01b03168152602001806020018060200185815260200184810384528981815460018160011615610100020316600290048152602001915080546001816001161561010002031660029004801561132f5780601f106113045761010080835404028352916020019161132f565b820191906000526020600020905b81548152906001019060200180831161131257829003601f168201915b5050848103835287518152875160209182019189019080838360005b8381101561136357818101518382015260200161134b565b50505050905090810190601f1680156113905780820380516001836020036101000a031916815260200191505b50848103825286518152865160209182019188019080838360005b838110156113c35781810151838201526020016113ab565b50505050905090810190601f1680156113f05780820380516001836020036101000a031916815260200191505b509950505050505050505050602060405180830381600087803b15801561141657600080fd5b505af115801561142a573d6000803e3d6000fd5b505050506040513d602081101561144057600080fd5b505160c08301526001600160a01b038481166000908152600560208181526040808420805460018082018084559287529584902089516009909202019081558389015195810180546001600160a01b031990811697891697909717905591880151600283015560608801516003830180548716918816919091179055608088015160048301805490961696169590951790935560a086015180518794936114ec9390850192019061212f565b5060c0820151600682015560e082015160078201805460ff19169115159190911790556101009091015160089091015550505050505050565b60608060608060006001600261153961186c565b8354604080516020601f600260001961010060018816150201909516949094049384018190048102820181019092528281529186918301828280156115bf5780601f10611594576101008083540402835291602001916115bf565b820191906000526020600020905b8154815290600101906020018083116115a257829003601f168201915b5050865460408051602060026001851615610100026000190190941693909304601f81018490048402820184019092528181529599508894509250840190508282801561164d5780601f106116225761010080835404028352916020019161164d565b820191906000526020600020905b81548152906001019060200180831161163057829003601f168201915b5050855460408051602060026001851615610100026000190190941693909304601f8101849004840282018401909252818152959850879450925084019050828280156116db5780601f106116b0576101008083540402835291602001916116db565b820191906000526020600020905b8154815290600101906020018083116116be57829003601f168201915b50505050509150935093509350935090919293565b604080518082018252601081526f181899199a1a9b1b9c1cb0b131b232b360811b60208201528151602a80825260608281019094526001600160a01b03851692918491602082018180388339019050509050600360fc1b8160008151811061175457fe5b60200101906001600160f81b031916908160001a905350600f60fb1b8160018151811061177d57fe5b60200101906001600160f81b031916908160001a90535060005b6014811015611863578260048583600c01602081106117b257fe5b1a60f81b6001600160f81b031916901c60f81c60ff16815181106117d257fe5b602001015160f81c60f81b8282600202600201815181106117ef57fe5b60200101906001600160f81b031916908160001a905350828482600c016020811061181657fe5b825191901a600f1690811061182757fe5b602001015160f81c60f81b82826002026003018151811061184457fe5b60200101906001600160f81b031916908160001a905350600101611797565b50949350505050565b60408051602081019091526000815290565b6002805460408051602060018416156101000260001901909316849004601f810184900484028201840190925281815292918301828280156109cd5780601f106109a2576101008083540402835291602001916109cd565b6000805460408051602060026001851615610100026000190190941693909304601f810184900484028201840190925281815292918301828280156109cd5780601f106109a2576101008083540402835291602001916109cd565b600480546001600160a01b0319166001600160a01b0392909216919091179055565b6000805b835181101561199f57826001600160a01b031684828151811061197657fe5b60200260200101516001600160a01b031614156119975760019150506119a5565b600101611957565b50600090505b92915050565b505050565b60035460ff1681565b6004546001600160a01b031681565b6119d06121ad565b3360009081526005602052604090208054849081106119eb57fe5b60009182526020918290206040805161012081018252600993909302909101805483526001808201546001600160a01b0390811685870152600280840154868601526003840154821660608701526004840154909116608086015260058301805485516101009482161594909402600019011691909104601f81018790048702830187019094528382529394919360a08601939192909190830182828015611ad45780601f10611aa957610100808354040283529160200191611ad4565b820191906000526020600020905b815481529060010190602001808311611ab757829003601f168201915b505050918352505060068201546020820152600782015460ff161515604082015260089091015460609091015260808101519091506001600160a01b03163314611b4f5760405162461bcd60e51b81526004018080602001828103825260448152602001806122c86044913960600191505060405180910390fd5b6004805460c0830151604080516392825c7960e01b815233948101949094526024840191909152516001600160a01b03909116916392825c7991604480830192600092919082900301818387803b158015611ba957600080fd5b505af1158015611bbd573d6000803e3d6000fd5b505050506060611bd082608001516116f0565b82602001516001600160a01b03166306fdde036040518163ffffffff1660e01b815260040160006040518083038186803b158015611c0d57600080fd5b505afa158015611c21573d6000803e3d6000fd5b505050506040513d6000823e601f3d908101601f191682016040526020811015611c4a57600080fd5b8101908080516040519392919084600160201b821115611c6957600080fd5b908301906020820185811115611c7e57600080fd5b8251600160201b811182820188101715611c9757600080fd5b82525081516020918201929091019080838360005b83811015611cc4578181015183820152602001611cac565b50505050905090810190601f168015611cf15780820380516001836020036101000a031916815260200191505b50604052505050604051602001808075596f75722063686f73656e20617070726f766572202760501b81525060160183805190602001908083835b60208310611d4b5780518252601f199092019160209182019101611d2c565b6001836020036101000a038019825116818451168082178552505050505050905001806122316058913960580182805190602001908083835b60208310611da35780518252601f199092019160209182019101611d84565b6001836020036101000a03801982511681845116808217855250505050505090500180602760f81b815250600101925050506040516020818303038152906040529050600083511115611eb25780836040516020018083805190602001908083835b60208310611e245780518252601f199092019160209182019101611e05565b51815160209384036101000a60001901801990921691161790526101d160f51b919093019081528451600290910192850191508083835b60208310611e7a5780518252601f199092019160209182019101611e5b565b6001836020036101000a0380198251168184511680821785525050505050509050019250505060405160208183030381529060405290505b611ec6308360200151846040015184611fbf565b50505050565b611ed68383612045565b50826001600160a01b031663bdc656e98584846040518463ffffffff1660e01b815260040180846001600160a01b03166001600160a01b0316815260200183815260200180602001828103825283818151815260200191508051906020019080838360005b83811015611f53578181015183820152602001611f3b565b50505050905090810190601f168015611f805780820380516001836020036101000a031916815260200191505b50945050505050600060405180830381600087803b158015611fa157600080fd5b505af1158015611fb5573d6000803e3d6000fd5b5050505050505050565b611fc98383612045565b50826001600160a01b0316637c41e5d88584846040518463ffffffff1660e01b815260040180846001600160a01b03166001600160a01b03168152602001838152602001806020018281038252838181518152602001915080519060200190808383600083811015611f53578181015183820152602001611f3b565b6040805162379c0960e91b815230600482015260248101839052905160009182916001600160a01b03861691636f38120091604480830192602092919082900301818787803b15801561209757600080fd5b505af11580156120ab573d6000803e3d6000fd5b505050506040513d60208110156120c157600080fd5b50519050600281148015906120d7575080600314155b612128576040805162461bcd60e51b815260206004820181905260248201527f5468697320766572696669657220697320616c72656164792064656369646564604482015290519081900360640190fd5b5092915050565b828054600181600116156101000203166002900490600052602060002090601f016020900481019282601f1061217057805160ff191683800117855561219d565b8280016001018555821561219d579182015b8281111561219d578251825591602001919060010190612182565b506121a9929150612216565b5090565b6040518061012001604052806000815260200160006001600160a01b031681526020016000815260200160006001600160a01b0316815260200160006001600160a01b031681526020016060815260200160008152602001600015158152602001600081525090565b610aa991905b808211156121a9576000815560010161221c56fe27206861732072656a656374656420796f757220617070726f76616c207265717565737420666f722074686520274e6574776f726b696e6727207665726966696572206f6e206120636c61696d206f6e20746f6b656e2027596f7520776572652072657175657374656420746f20617070726f76652061206e6574776f726b696e6720636c61696d206f6e2074686520746f6b656e2027546869732061646472657373206973206e6f74207265676973746572656420617320617070726f76657220666f7220746869732070656e64696e6720617070726f76616ca265627a7a72315820387ed5926bc1d61c5e966c8f15793a7fb30428e244d9541f7e223e76d8519d5b64736f6c6343000511003273632e76657269666965722e6e6574776f726b696e672e6465736372697074696f6e",
  "source": "pragma solidity ^0.5.17;\n\nimport \"contracts/verifiers/Fin4BaseVerifierType.sol\";\nimport \"contracts/Fin4Verifying.sol\";\nimport \"contracts/Fin4Messaging.sol\";\n\ncontract Networking is Fin4BaseVerifierType {\n\n    constructor() public  {\n        name = \"sc.verifier.networking.name\";\n        description = \"sc.verifier.networking.description\";\n    }\n\n    address public Fin4VerifyingAddress;\n    address public Fin4MessagingAddress;\n\n    function setFin4VerifyingAddress(address Fin4VerifyingAddr) public {\n        Fin4VerifyingAddress = Fin4VerifyingAddr;\n    }\n\n    function setFin4MessagingAddress(address Fin4MessagingAddr) public {\n        Fin4MessagingAddress = Fin4MessagingAddr;\n    }\n\n    struct PendingApproval {\n        uint pendingApprovalId;\n        address tokenAddrToReceiveVerifierNotice;\n        uint claimIdOnTokenToReceiveVerifierDecision;\n        address requester;\n        address approver;\n        string attachment;\n        uint messageId;\n        bool isApproved;\n        uint timestamp;\n    }\n\n    mapping (address => PendingApproval[]) public pendingApprovals;\n\n    function submitProof(address tokenAddrToReceiveVerifierNotice, uint claimId, address approver, string memory content) public {\n        PendingApproval memory pa;\n        pa.tokenAddrToReceiveVerifierNotice = tokenAddrToReceiveVerifierNotice;\n        pa.claimIdOnTokenToReceiveVerifierDecision = claimId;\n        pa.requester = msg.sender;\n        pa.approver = approver;\n        pa.pendingApprovalId = pendingApprovals[approver].length;\n        pa.timestamp = now;\n        pa.attachment = content;\n\n        string memory message = string(abi.encodePacked(\n            \"You were requested to approve a networking claim on the token '\",\n            Fin4TokenStub(tokenAddrToReceiveVerifierNotice).name(),\n            \"'. The submitted content is '\", content, \"'.\"));\n\n        pa.messageId = Fin4Messaging(Fin4MessagingAddress).addPendingRequestMessage(\n            msg.sender, contractName, approver, message, content, pa.pendingApprovalId);\n\n        pendingApprovals[approver].push(pa);\n    }\n\n    function receiveApproval(uint pendingApprovalId, string memory attachedMessage) public {\n        PendingApproval memory pa = pendingApprovals[msg.sender][pendingApprovalId];\n        require(pa.approver == msg.sender, \"This address is not registered as approver for this pending approval\");\n        Fin4Messaging(Fin4MessagingAddress).markMessageAsActedUpon(msg.sender, pa.messageId);\n        _sendApprovalNotice(address(this), pa.tokenAddrToReceiveVerifierNotice, pa.claimIdOnTokenToReceiveVerifierDecision, attachedMessage);\n        Fin4Verifying(Fin4VerifyingAddress).addSubmission(\n            address(this), pa.tokenAddrToReceiveVerifierNotice, pa.requester, pa.timestamp, 0, pa.attachment);\n    }\n\n    function receiveRejection(uint pendingApprovalId, string memory attachedMessage) public {\n        PendingApproval memory pa = pendingApprovals[msg.sender][pendingApprovalId];\n        require(pa.approver == msg.sender, \"This address is not registered as approver for this pending approval\");\n        Fin4Messaging(Fin4MessagingAddress).markMessageAsActedUpon(msg.sender, pa.messageId);\n        string memory message = string(abi.encodePacked(\"Your chosen approver '\", addressToString(pa.approver),\n            \"' has rejected your approval request for the 'Networking' verifier on a claim on token '\",\n            Fin4TokenStub(pa.tokenAddrToReceiveVerifierNotice).name(), \"'\"));\n\n        if (bytes(attachedMessage).length > 0) {\n            message = string(abi.encodePacked(message, ': ', attachedMessage));\n        }\n        _sendRejectionNotice(address(this), pa.tokenAddrToReceiveVerifierNotice, pa.claimIdOnTokenToReceiveVerifierDecision, message);\n    }\n}\n",
  "sourcePath": "/home/cantonioupao/susDAO-saveMe/FIN4Contracts/contracts/verifiers/inactive/Networking.sol",
  "compiler": {
    "name": "solc",
    "version": "0.5.17+commit.d19bba13.Emscripten.clang"
  },
  "schemaVersion": "3.3.1",
  "updatedAt": "2020-12-03T18:27:58.984Z",
  "devdoc": {
    "methods": {}
  },
  "userdoc": {
    "methods": {}
  }
}