{
  "contractName": "Parameterizer",
  "abi": [
    {
      "anonymous": false,
      "inputs": [
        {
          "indexed": true,
          "internalType": "bytes32",
          "name": "propID",
          "type": "bytes32"
        },
        {
          "indexed": true,
          "internalType": "uint256",
          "name": "challengeID",
          "type": "uint256"
        },
        {
          "indexed": false,
          "internalType": "uint256",
          "name": "rewardPool",
          "type": "uint256"
        },
        {
          "indexed": false,
          "internalType": "uint256",
          "name": "totalTokens",
          "type": "uint256"
        }
      ],
      "name": "_ChallengeFailed",
      "type": "event"
    },
    {
      "anonymous": false,
      "inputs": [
        {
          "indexed": true,
          "internalType": "bytes32",
          "name": "propID",
          "type": "bytes32"
        },
        {
          "indexed": true,
          "internalType": "uint256",
          "name": "challengeID",
          "type": "uint256"
        },
        {
          "indexed": false,
          "internalType": "uint256",
          "name": "rewardPool",
          "type": "uint256"
        },
        {
          "indexed": false,
          "internalType": "uint256",
          "name": "totalTokens",
          "type": "uint256"
        }
      ],
      "name": "_ChallengeSucceeded",
      "type": "event"
    },
    {
      "anonymous": false,
      "inputs": [
        {
          "indexed": true,
          "internalType": "bytes32",
          "name": "propID",
          "type": "bytes32"
        },
        {
          "indexed": false,
          "internalType": "uint256",
          "name": "challengeID",
          "type": "uint256"
        },
        {
          "indexed": false,
          "internalType": "uint256",
          "name": "commitEndDate",
          "type": "uint256"
        },
        {
          "indexed": false,
          "internalType": "uint256",
          "name": "revealEndDate",
          "type": "uint256"
        },
        {
          "indexed": true,
          "internalType": "address",
          "name": "challenger",
          "type": "address"
        }
      ],
      "name": "_NewChallenge",
      "type": "event"
    },
    {
      "anonymous": false,
      "inputs": [
        {
          "indexed": true,
          "internalType": "bytes32",
          "name": "propID",
          "type": "bytes32"
        },
        {
          "indexed": false,
          "internalType": "string",
          "name": "name",
          "type": "string"
        },
        {
          "indexed": false,
          "internalType": "uint256",
          "name": "value",
          "type": "uint256"
        }
      ],
      "name": "_ProposalAccepted",
      "type": "event"
    },
    {
      "anonymous": false,
      "inputs": [
        {
          "indexed": true,
          "internalType": "bytes32",
          "name": "propID",
          "type": "bytes32"
        }
      ],
      "name": "_ProposalExpired",
      "type": "event"
    },
    {
      "anonymous": false,
      "inputs": [
        {
          "indexed": false,
          "internalType": "string",
          "name": "name",
          "type": "string"
        },
        {
          "indexed": false,
          "internalType": "uint256",
          "name": "value",
          "type": "uint256"
        },
        {
          "indexed": false,
          "internalType": "bytes32",
          "name": "propID",
          "type": "bytes32"
        },
        {
          "indexed": false,
          "internalType": "uint256",
          "name": "deposit",
          "type": "uint256"
        },
        {
          "indexed": false,
          "internalType": "uint256",
          "name": "appEndDate",
          "type": "uint256"
        },
        {
          "indexed": true,
          "internalType": "address",
          "name": "proposer",
          "type": "address"
        }
      ],
      "name": "_ReparameterizationProposal",
      "type": "event"
    },
    {
      "anonymous": false,
      "inputs": [
        {
          "indexed": true,
          "internalType": "uint256",
          "name": "challengeID",
          "type": "uint256"
        },
        {
          "indexed": false,
          "internalType": "uint256",
          "name": "reward",
          "type": "uint256"
        },
        {
          "indexed": true,
          "internalType": "address",
          "name": "voter",
          "type": "address"
        }
      ],
      "name": "_RewardClaimed",
      "type": "event"
    },
    {
      "constant": true,
      "inputs": [],
      "name": "PROCESSBY",
      "outputs": [
        {
          "internalType": "uint256",
          "name": "",
          "type": "uint256"
        }
      ],
      "payable": false,
      "stateMutability": "view",
      "type": "function"
    },
    {
      "constant": true,
      "inputs": [
        {
          "internalType": "uint256",
          "name": "",
          "type": "uint256"
        }
      ],
      "name": "challenges",
      "outputs": [
        {
          "internalType": "uint256",
          "name": "rewardPool",
          "type": "uint256"
        },
        {
          "internalType": "address",
          "name": "challenger",
          "type": "address"
        },
        {
          "internalType": "bool",
          "name": "resolved",
          "type": "bool"
        },
        {
          "internalType": "uint256",
          "name": "stake",
          "type": "uint256"
        },
        {
          "internalType": "uint256",
          "name": "winningTokens",
          "type": "uint256"
        }
      ],
      "payable": false,
      "stateMutability": "view",
      "type": "function"
    },
    {
      "constant": true,
      "inputs": [
        {
          "internalType": "bytes32",
          "name": "",
          "type": "bytes32"
        }
      ],
      "name": "params",
      "outputs": [
        {
          "internalType": "uint256",
          "name": "",
          "type": "uint256"
        }
      ],
      "payable": false,
      "stateMutability": "view",
      "type": "function"
    },
    {
      "constant": true,
      "inputs": [
        {
          "internalType": "uint256",
          "name": "",
          "type": "uint256"
        }
      ],
      "name": "proposalKeys",
      "outputs": [
        {
          "internalType": "bytes32",
          "name": "",
          "type": "bytes32"
        }
      ],
      "payable": false,
      "stateMutability": "view",
      "type": "function"
    },
    {
      "constant": true,
      "inputs": [
        {
          "internalType": "bytes32",
          "name": "",
          "type": "bytes32"
        }
      ],
      "name": "proposals",
      "outputs": [
        {
          "internalType": "uint256",
          "name": "appExpiry",
          "type": "uint256"
        },
        {
          "internalType": "uint256",
          "name": "challengeID",
          "type": "uint256"
        },
        {
          "internalType": "uint256",
          "name": "deposit",
          "type": "uint256"
        },
        {
          "internalType": "string",
          "name": "name",
          "type": "string"
        },
        {
          "internalType": "address",
          "name": "owner",
          "type": "address"
        },
        {
          "internalType": "uint256",
          "name": "processBy",
          "type": "uint256"
        },
        {
          "internalType": "uint256",
          "name": "value",
          "type": "uint256"
        }
      ],
      "payable": false,
      "stateMutability": "view",
      "type": "function"
    },
    {
      "constant": true,
      "inputs": [],
      "name": "token",
      "outputs": [
        {
          "internalType": "contract GOV",
          "name": "",
          "type": "address"
        }
      ],
      "payable": false,
      "stateMutability": "view",
      "type": "function"
    },
    {
      "constant": true,
      "inputs": [],
      "name": "voting",
      "outputs": [
        {
          "internalType": "contract PLCRVoting",
          "name": "",
          "type": "address"
        }
      ],
      "payable": false,
      "stateMutability": "view",
      "type": "function"
    },
    {
      "constant": false,
      "inputs": [
        {
          "internalType": "address",
          "name": "_token",
          "type": "address"
        },
        {
          "internalType": "address",
          "name": "_plcr",
          "type": "address"
        },
        {
          "internalType": "uint256[]",
          "name": "_parameters",
          "type": "uint256[]"
        }
      ],
      "name": "init",
      "outputs": [],
      "payable": false,
      "stateMutability": "nonpayable",
      "type": "function"
    },
    {
      "constant": false,
      "inputs": [
        {
          "internalType": "string",
          "name": "_name",
          "type": "string"
        },
        {
          "internalType": "uint256",
          "name": "_value",
          "type": "uint256"
        }
      ],
      "name": "proposeReparameterization",
      "outputs": [
        {
          "internalType": "bytes32",
          "name": "",
          "type": "bytes32"
        }
      ],
      "payable": false,
      "stateMutability": "nonpayable",
      "type": "function"
    },
    {
      "constant": true,
      "inputs": [],
      "name": "getProposalKeys",
      "outputs": [
        {
          "internalType": "bytes32[]",
          "name": "",
          "type": "bytes32[]"
        }
      ],
      "payable": false,
      "stateMutability": "view",
      "type": "function"
    },
    {
      "constant": false,
      "inputs": [
        {
          "internalType": "bytes32",
          "name": "_propID",
          "type": "bytes32"
        }
      ],
      "name": "challengeReparameterization",
      "outputs": [
        {
          "internalType": "uint256",
          "name": "challengeID",
          "type": "uint256"
        }
      ],
      "payable": false,
      "stateMutability": "nonpayable",
      "type": "function"
    },
    {
      "constant": false,
      "inputs": [
        {
          "internalType": "bytes32",
          "name": "_propID",
          "type": "bytes32"
        }
      ],
      "name": "processProposal",
      "outputs": [],
      "payable": false,
      "stateMutability": "nonpayable",
      "type": "function"
    },
    {
      "constant": false,
      "inputs": [
        {
          "internalType": "uint256",
          "name": "_challengeID",
          "type": "uint256"
        }
      ],
      "name": "claimReward",
      "outputs": [],
      "payable": false,
      "stateMutability": "nonpayable",
      "type": "function"
    },
    {
      "constant": false,
      "inputs": [
        {
          "internalType": "uint256[]",
          "name": "_challengeIDs",
          "type": "uint256[]"
        }
      ],
      "name": "claimRewards",
      "outputs": [],
      "payable": false,
      "stateMutability": "nonpayable",
      "type": "function"
    },
    {
      "constant": true,
      "inputs": [
        {
          "internalType": "address",
          "name": "_voter",
          "type": "address"
        },
        {
          "internalType": "uint256",
          "name": "_challengeID",
          "type": "uint256"
        }
      ],
      "name": "voterReward",
      "outputs": [
        {
          "internalType": "uint256",
          "name": "",
          "type": "uint256"
        }
      ],
      "payable": false,
      "stateMutability": "view",
      "type": "function"
    },
    {
      "constant": true,
      "inputs": [
        {
          "internalType": "bytes32",
          "name": "_propID",
          "type": "bytes32"
        }
      ],
      "name": "canBeSet",
      "outputs": [
        {
          "internalType": "bool",
          "name": "",
          "type": "bool"
        }
      ],
      "payable": false,
      "stateMutability": "view",
      "type": "function"
    },
    {
      "constant": true,
      "inputs": [
        {
          "internalType": "bytes32",
          "name": "_propID",
          "type": "bytes32"
        }
      ],
      "name": "propExists",
      "outputs": [
        {
          "internalType": "bool",
          "name": "",
          "type": "bool"
        }
      ],
      "payable": false,
      "stateMutability": "view",
      "type": "function"
    },
    {
      "constant": true,
      "inputs": [
        {
          "internalType": "bytes32",
          "name": "_propID",
          "type": "bytes32"
        }
      ],
      "name": "challengeCanBeResolved",
      "outputs": [
        {
          "internalType": "bool",
          "name": "",
          "type": "bool"
        }
      ],
      "payable": false,
      "stateMutability": "view",
      "type": "function"
    },
    {
      "constant": true,
      "inputs": [
        {
          "internalType": "uint256",
          "name": "_challengeID",
          "type": "uint256"
        }
      ],
      "name": "challengeWinnerReward",
      "outputs": [
        {
          "internalType": "uint256",
          "name": "",
          "type": "uint256"
        }
      ],
      "payable": false,
      "stateMutability": "view",
      "type": "function"
    },
    {
      "constant": true,
      "inputs": [
        {
          "internalType": "string",
          "name": "_name",
          "type": "string"
        }
      ],
      "name": "get",
      "outputs": [
        {
          "internalType": "uint256",
          "name": "value",
          "type": "uint256"
        }
      ],
      "payable": false,
      "stateMutability": "view",
      "type": "function"
    },
    {
      "constant": true,
      "inputs": [],
      "name": "getAll",
      "outputs": [
        {
          "internalType": "uint256[]",
          "name": "",
          "type": "uint256[]"
        }
      ],
      "payable": false,
      "stateMutability": "view",
      "type": "function"
    },
    {
      "constant": true,
      "inputs": [
        {
          "internalType": "uint256",
          "name": "_challengeID",
          "type": "uint256"
        },
        {
          "internalType": "address",
          "name": "_voter",
          "type": "address"
        }
      ],
      "name": "tokenClaims",
      "outputs": [
        {
          "internalType": "bool",
          "name": "",
          "type": "bool"
        }
      ],
      "payable": false,
      "stateMutability": "view",
      "type": "function"
    }
  ],
  "bytecode": "0x608060405262093a8060065534801561001757600080fd5b506131c0806100276000396000f3fe608060405234801561001057600080fd5b50600436106101415760003560e01c80638240ae4b116100b8578063bd0ae4051161007c578063bd0ae4051461068b578063c51131fb146106b7578063dc6ab527146106d4578063f9cabf64146106f1578063fc0c546a146106f9578063fce1ccca1461071d57610141565b80638240ae4b1461052f5780638f1d37761461054c578063a5ba3b1e1461059c578063ae169a50146105c8578063bade1c54146105e557610141565b806344b776801161010a57806344b776801461029e578063504115521461035857806353ed5143146103755780635eac6239146103cd578063693ec85e1461046e57806377609a411461051257610141565b806229514f1461014657806308bf63951461016057806330490e911461017d57806332ed5b121461019c578063353009901461026d575b600080fd5b61014e610725565b60408051918252519081900360200190f35b61014e6004803603602081101561017657600080fd5b503561072b565b61019a6004803603602081101561019357600080fd5b5035610749565b005b6101b9600480360360208110156101b257600080fd5b5035610bbe565b6040518088815260200187815260200186815260200180602001856001600160a01b03166001600160a01b03168152602001848152602001838152602001828103825286818151815260200191508051906020019080838360005b8381101561022c578181015183820152602001610214565b50505050905090810190601f1680156102595780820380516001836020036101000a031916815260200191505b509850505050505050505060405180910390f35b61028a6004803603602081101561028357600080fd5b5035610c8a565b604080519115158252519081900360200190f35b61019a600480360360608110156102b457600080fd5b6001600160a01b038235811692602081013590911691810190606081016040820135600160201b8111156102e757600080fd5b8201836020820111156102f957600080fd5b803590602001918460208302840111600160201b8311171561031a57600080fd5b919080806020026020016040519081016040528093929190818152602001838360200280828437600092019190915250929550610ca4945050505050565b61014e6004803603602081101561036e57600080fd5b50356110db565b61037d611190565b60408051602080825283518183015283519192839290830191858101910280838360005b838110156103b95781810151838201526020016103a1565b505050509050019250505060405180910390f35b61019a600480360360208110156103e357600080fd5b810190602081018135600160201b8111156103fd57600080fd5b82018360208201111561040f57600080fd5b803590602001918460208302840111600160201b8311171561043057600080fd5b91908080602002602001604051908101604052809392919081815260200183836020028082843760009201919091525092955061184a945050505050565b61014e6004803603602081101561048457600080fd5b810190602081018135600160201b81111561049e57600080fd5b8201836020820111156104b057600080fd5b803590602001918460018302840111600160201b831117156104d157600080fd5b91908080601f01602080910402602001604051908101604052809392919081815260200183838082843760009201919091525092955061187e945050505050565b61028a6004803603602081101561052857600080fd5b5035611907565b61014e6004803603602081101561054557600080fd5b5035611b1f565b6105696004803603602081101561056257600080fd5b5035611fc9565b604080519586526001600160a01b0390941660208601529115158484015260608401526080830152519081900360a00190f35b61028a600480360360408110156105b257600080fd5b50803590602001356001600160a01b0316612006565b61019a600480360360208110156105de57600080fd5b5035612036565b61014e600480360360408110156105fb57600080fd5b810190602081018135600160201b81111561061557600080fd5b82018360208201111561062757600080fd5b803590602001918460018302840111600160201b8311171561064857600080fd5b91908080601f0160208091040260200160405190810160405280939291908181526020018383808284376000920191909152509295505091359250612202915050565b61014e600480360360408110156106a157600080fd5b506001600160a01b0381351690602001356126df565b61028a600480360360208110156106cd57600080fd5b503561278c565b61014e600480360360208110156106ea57600080fd5b50356128c7565b61037d6128d9565b610701612931565b604080516001600160a01b039092168252519081900360200190f35b610701612940565b60065481565b6003818154811061073857fe5b600091825260209091200154905081565b600081815260026020819052604090912060048101549181015490916001600160a01b0316906107788461278c565b156109bf57600383018054604080516020601f6002600019610100600188161502019095169490940493840181900481028201810190925282815261081b939092909183018282801561080c5780601f106107e15761010080835404028352916020019161080c565b820191906000526020600020905b8154815290600101906020018083116107ef57829003601f168201915b5050505050846006015461294f565b600683015460408051602081018390528181526003860180546002600019610100600184161502019091160492820183905287937f37f3986c71e1aa2c470cfc4a92af70820610c3065589d35ef1664ea27f3e73a5939192909181906060820190859080156108cb5780601f106108a0576101008083540402835291602001916108cb565b820191906000526020600020905b8154815290600101906020018083116108ae57829003601f168201915b5050935050505060405180910390a2600084815260026020819052604082208281556001810183905590810182905590610908600383018261300b565b50600481810180546001600160a01b0319169055600060058301819055600690920182905580546040805163a9059cbb60e01b81526001600160a01b0387811694820194909452602481018690529051929091169263a9059cbb926044808401936020939083900390910190829087803b15801561098557600080fd5b505af1158015610999573d6000803e3d6000fd5b505050506040513d60208110156109af57600080fd5b50516109ba57600080fd5b610a3b565b6109c884611907565b156109d6576109ba846129d7565b82600501544211156101415760405184907f29026cb2acebe6d0a4b6d593ccadf76e3fc6d0a02254e078b0c4a619608089d790600090a2600084815260026020819052604082208281556001810183905590810182905590610908600383018261300b565b6064610a6d6040518060400160405280600f81526020016e191a5cdc195b9cd85d1a5bdb9418dd608a1b81525061187e565b1115610a7557fe5b6064610aa86040518060400160405280601081526020016f1c111a5cdc195b9cd85d1a5bdb9418dd60821b81525061187e565b1115610ab057fe5b610b67600654610b5b610ae96040518060400160405280600f81526020016e382932bb32b0b629ba30b3b2a632b760891b81525061187e565b610b5b610b1c6040518060400160405280600f81526020016e3821b7b6b6b4ba29ba30b3b2a632b760891b81525061187e565b610b5b610b4e6040518060400160405280600e81526020016d3820b838363ca9ba30b3b2a632b760911b81525061187e565b429063ffffffff612dd816565b9063ffffffff612dd816565b50600084815260026020819052604082208281556001810183905590810182905590610b96600383018261300b565b506004810180546001600160a01b031916905560006005820181905560069091015550505050565b60026020818152600092835260409283902080546001808301548386015460038501805489519481161561010002600019011697909704601f8101879004870284018701909852878352929690959294919291830182828015610c625780601f10610c3757610100808354040283529160200191610c62565b820191906000526020600020905b815481529060010190602001808311610c4557829003601f168201915b505050506004830154600584015460069094015492936001600160a01b039091169290915087565b60008181526002602052604090206005015415155b919050565b6001600160a01b03831615801590610cc557506004546001600160a01b0316155b610cce57600080fd5b6001600160a01b03821615801590610cef57506005546001600160a01b0316155b610cf857600080fd5b600480546001600160a01b038086166001600160a01b031992831617909255600580549285169290911691909117905560408051808201909152600a8152691b5a5b91195c1bdcda5d60b21b60208201528151610d6891908390600090610d5b57fe5b602002602001015161294f565b610d9c6040518060400160405280600b81526020016a1c135a5b91195c1bdcda5d60aa1b81525082600181518110610d5b57fe5b610dd26040518060400160405280600d81526020016c30b838363ca9ba30b3b2a632b760991b81525082600281518110610d5b57fe5b610e096040518060400160405280600e81526020016d3820b838363ca9ba30b3b2a632b760911b81525082600381518110610d5b57fe5b610e406040518060400160405280600e81526020016d31b7b6b6b4ba29ba30b3b2a632b760911b81525082600481518110610d5b57fe5b610e786040518060400160405280600f81526020016e3821b7b6b6b4ba29ba30b3b2a632b760891b81525082600581518110610d5b57fe5b610eaf6040518060400160405280600e81526020016d3932bb32b0b629ba30b3b2a632b760911b81525082600681518110610d5b57fe5b610ee76040518060400160405280600f81526020016e382932bb32b0b629ba30b3b2a632b760891b81525082600781518110610d5b57fe5b610f1f6040518060400160405280600f81526020016e191a5cdc195b9cd85d1a5bdb9418dd608a1b81525082600881518110610d5b57fe5b610f586040518060400160405280601081526020016f1c111a5cdc195b9cd85d1a5bdb9418dd60821b81525082600981518110610d5b57fe5b610f916040518060400160405280601081526020016f726576696577566f746551756f72756d60801b81525082600a81518110610d5b57fe5b610fcd604051806040016040528060138152602001726368616c6c656e6765566f746551756f72756d60681b81525082600b81518110610d5b57fe5b6110016040518060400160405280600b81526020016a70566f746551756f72756d60a81b81525082600c81518110610d5b57fe5b6110376040518060400160405280600d81526020016c6578697454696d6544656c617960981b81525082600d81518110610d5b57fe5b61106d6040518060400160405280600d81526020016c32bc34ba2832b934b7b22632b760991b81525082600e81518110610d5b57fe5b61109f604051806040016040528060098152602001680e4caecd2caeea8c2f60bb1b81525082600f81518110610d5b57fe5b6110d66040518060400160405280600e81526020016d3836b4b72932b83aba30ba34b7b760911b81525082601081518110610d5b57fe5b505050565b6005546040805163029f38d360e11b81526004810184905290516000926001600160a01b03169163053e71a6916024808301926020929190829003018186803b15801561112757600080fd5b505afa15801561113b573d6000803e3d6000fd5b505050506040513d602081101561115157600080fd5b50516111725750600081815260016020526040902060029081015402610c9f565b50600090815260016020526040902080546002918201549091020390565b604080516011808252610240820190925260609182919060208201610220803883390190505090506000806040516020018080691b5a5b91195c1bdcda5d60b21b815250600a019050604051602081830303815290604052805190602001208152602001908152602001600020548160008151811061120b57fe5b60200260200101818152505060008060405160200180806a1c135a5b91195c1bdcda5d60aa1b815250600b019050604051602081830303815290604052805190602001208152602001908152602001600020548160018151811061126b57fe5b60200260200101818152505060008060405160200180806c30b838363ca9ba30b3b2a632b760991b815250600d01905060405160208183030381529060405280519060200120815260200190815260200160002054816002815181106112cd57fe5b60200260200101818152505060008060405160200180806d3820b838363ca9ba30b3b2a632b760911b815250600e019050604051602081830303815290604052805190602001208152602001908152602001600020548160038151811061133057fe5b60200260200101818152505060008060405160200180806d31b7b6b6b4ba29ba30b3b2a632b760911b815250600e019050604051602081830303815290604052805190602001208152602001908152602001600020548160048151811061139357fe5b60200260200101818152505060008060405160200180806e3821b7b6b6b4ba29ba30b3b2a632b760891b815250600f01905060405160208183030381529060405280519060200120815260200190815260200160002054816005815181106113f757fe5b60200260200101818152505060008060405160200180806d3932bb32b0b629ba30b3b2a632b760911b815250600e019050604051602081830303815290604052805190602001208152602001908152602001600020548160068151811061145a57fe5b60200260200101818152505060008060405160200180806e382932bb32b0b629ba30b3b2a632b760891b815250600f01905060405160208183030381529060405280519060200120815260200190815260200160002054816007815181106114be57fe5b60200260200101818152505060008060405160200180806e191a5cdc195b9cd85d1a5bdb9418dd608a1b815250600f019050604051602081830303815290604052805190602001208152602001908152602001600020548160088151811061152257fe5b60200260200101818152505060008060405160200180806f1c111a5cdc195b9cd85d1a5bdb9418dd60821b8152506010019050604051602081830303815290604052805190602001208152602001908152602001600020548160098151811061158757fe5b60200260200101818152505060008060405160200180806f726576696577566f746551756f72756d60801b81525060100190506040516020818303038152906040528051906020012081526020019081526020016000205481600a815181106115ec57fe5b6020026020010181815250506000806040516020018080726368616c6c656e6765566f746551756f72756d60681b81525060130190506040516020818303038152906040528051906020012081526020019081526020016000205481600b8151811061165457fe5b60200260200101818152505060008060405160200180806a70566f746551756f72756d60a81b815250600b0190506040516020818303038152906040528051906020012081526020019081526020016000205481600c815181106116b457fe5b60200260200101818152505060008060405160200180806c6578697454696d6544656c617960981b815250600d0190506040516020818303038152906040528051906020012081526020019081526020016000205481600d8151811061171657fe5b60200260200101818152505060008060405160200180806c32bc34ba2832b934b7b22632b760991b815250600d0190506040516020818303038152906040528051906020012081526020019081526020016000205481600e8151811061177857fe5b6020026020010181815250506000806040516020018080680e4caecd2caeea8c2f60bb1b81525060090190506040516020818303038152906040528051906020012081526020019081526020016000205481600f815181106117d657fe5b60200260200101818152505060008060405160200180806d3836b4b72932b83aba30ba34b7b760911b815250600e019050604051602081830303815290604052805190602001208152602001908152602001600020548160108151811061183957fe5b602090810291909101015290505b90565b60005b815181101561187a5761187282828151811061186557fe5b6020026020010151612036565b60010161184d565b5050565b6000806000836040516020018082805190602001908083835b602083106118b65780518252601f199092019160209182019101611897565b6001836020036101000a038019825116818451168082178552505050505050905001915050604051602081830303815290604052805190602001208152602001908152602001600020549050919050565b6000611911613052565b600260008481526020019081526020016000206040518060e0016040529081600082015481526020016001820154815260200160028201548152602001600382018054600181600116156101000203166002900480601f0160208091040260200160405190810160405280929190818152602001828054600181600116156101000203166002900480156119e65780601f106119bb576101008083540402835291602001916119e6565b820191906000526020600020905b8154815290600101906020018083116119c957829003601f168201915b505050918352505060048201546001600160a01b03166020820152600582015460408201526006909101546060909101529050611a21613098565b506020818101805160009081526001808452604091829020825160a08101845281548152918101546001600160a01b03811695830195909552600160a01b90940460ff161515918101919091526002830154606082015260039092015460808301525115801590611a9457506040810151155b8015611b17575060055460208084015160408051630ee6848360e41b81526004810192909252516001600160a01b039093169263ee68483092602480840193919291829003018186803b158015611aea57600080fd5b505afa158015611afe573d6000803e3d6000fd5b505050506040513d6020811015611b1457600080fd5b50515b949350505050565b6000611b29613052565b600260008481526020019081526020016000206040518060e0016040529081600082015481526020016001820154815260200160028201548152602001600382018054600181600116156101000203166002900480601f016020809104026020016040519081016040528092919081815260200182805460018160011615610100020316600290048015611bfe5780601f10611bd357610100808354040283529160200191611bfe565b820191906000526020600020905b815481529060010190602001808311611be157829003601f168201915b505050918352505060048201546001600160a01b031660208201526005820154604080830191909152600690920154606090910152810151909150611c4284610c8a565b8015611c5057506020820151155b611c5957600080fd5b60055460408051808201909152600b81526a70566f746551756f72756d60a81b60208201526000916001600160a01b0316906332ed3d6090611c9a9061187e565b611cca6040518060400160405280600f81526020016e3821b7b6b6b4ba29ba30b3b2a632b760891b81525061187e565b611cfa6040518060400160405280600f81526020016e382932bb32b0b629ba30b3b2a632b760891b81525061187e565b6040518463ffffffff1660e01b8152600401808481526020018381526020018281526020019350505050602060405180830381600087803b158015611d3e57600080fd5b505af1158015611d52573d6000803e3d6000fd5b505050506040513d6020811015611d6857600080fd5b50516040805160e08101909152601060a082019081526f1c111a5cdc195b9cd85d1a5bdb9418dd60821b60c0830152919250908190611dd690606490611dca908790611dbe908490611db99061187e565b612e32565b9063ffffffff612e7416565b9063ffffffff612ecd16565b815233602080830182905260006040808501829052606080860189905260809586018390528783526001808552828420885181558886015181830180548b8701516001600160a01b03199091166001600160a01b039384161760ff60a01b1916600160a01b911515919091021790559289015160028083019190915598909701516003909701969096558b83529583528082209094018690556004805485516323b872dd60e01b81529182019490945230602482015260448101889052935192909416936323b872dd9360648082019492918390030190829087803b158015611ebe57600080fd5b505af1158015611ed2573d6000803e3d6000fd5b505050506040513d6020811015611ee857600080fd5b5051611ef357600080fd5b60055460408051636148fed560e01b815260048101849052905160009283926001600160a01b0390911691636148fed59160248082019260a092909190829003018186803b158015611f4457600080fd5b505afa158015611f58573d6000803e3d6000fd5b505050506040513d60a0811015611f6e57600080fd5b50805160209182015160408051878152938401839052838101829052519194509250339189917fe94e3086c4bfe84acba4437b85a80fca3721dfc419d1f7afe4fa4e470e670b489181900360600190a3509095945050505050565b600160208190526000918252604090912080549181015460028201546003909201546001600160a01b03821692600160a01b90920460ff16919085565b60008281526001602090815260408083206001600160a01b038516845260040190915290205460ff165b92915050565b6000818152600160209081526040808320338452600481019092529091205460ff161561206257600080fd5b600181810154600160a01b900460ff1615151461207e57600080fd5b60055460408051630c03fbd760e01b81523360048201526024810185905290516000926001600160a01b031691630c03fbd7916044808301926020929190829003018186803b1580156120d057600080fd5b505afa1580156120e4573d6000803e3d6000fd5b505050506040513d60208110156120fa57600080fd5b50519050600061210a33856126df565b600384018054849003905583548190038455336000818152600486016020908152604091829020805460ff1916600117905581518481529151939450919287927f6f4c982acc31b0af2cf1dc1556f21c0325d893782d65e83c68a5534a33f59957928290030190a3600480546040805163a9059cbb60e01b8152339381019390935260248301849052516001600160a01b039091169163a9059cbb9160448083019260209291908290030181600087803b1580156121c757600080fd5b505af11580156121db573d6000803e3d6000fd5b505050506040513d60208110156121f157600080fd5b50516121fc57600080fd5b50505050565b6000806122316040518060400160405280600b81526020016a1c135a5b91195c1bdcda5d60aa1b81525061187e565b9050600084846040516020018083805190602001908083835b602083106122695780518252601f19909201916020918201910161224a565b51815160209384036101000a600019018019909216911617905292019384525060408051808503815284830182528051908301206e191a5cdc195b9cd85d1a5bdb9418dd608a1b828601528151808603602f018152604f86019092528151918301919091208a5191965094508993606f01925082918401908083835b602083106123045780518252601f1990920191602091820191016122e5565b6001836020036101000a0380198251168184511680821785525050505050509050019150506040516020818303038152906040528051906020012014806123f0575060405160200180806f1c111a5cdc195b9cd85d1a5bdb9418dd60821b815250601001905060405160208183030381529060405280519060200120856040516020018082805190602001908083835b602083106123b35780518252601f199092019160209182019101612394565b6001836020036101000a03801982511681845116808217855250505050505090500191505060405160208183030381529060405280519060200120145b1561240357606484111561240357600080fd5b61240c81610c8a565b1561241657600080fd5b836124208661187e565b141561242b57600080fd5b6040518060e00160405280612468610b4e6040518060400160405280600e81526020016d3820b838363ca9ba30b3b2a632b760911b81525061187e565b815260200160008152602001838152602001868152602001336001600160a01b031681526020016124c8600654610b5b610ae96040518060400160405280600f81526020016e382932bb32b0b629ba30b3b2a632b760891b81525061187e565b8152602090810186905260008381526002808352604091829020845181558484015160018201559184015190820155606083015180519192612512926003850192909101906130d2565b506080820151600482810180546001600160a01b0319166001600160a01b0393841617905560a0840151600584015560c0909301516006909201919091558154604080516323b872dd60e01b8152339481019490945230602485015260448401869052519116916323b872dd9160648083019260209291908290030181600087803b1580156125a057600080fd5b505af11580156125b4573d6000803e3d6000fd5b505050506040513d60208110156125ca57600080fd5b50516125d557600080fd5b60038054600181019091557fc2575a0e9e593c00f959f8c92f12db2869c3395a3b0502d05e2516446f71f85b018190556000818152600260209081526040808320548151808401899052918201859052606082018690526080820181905260a0808352895190830152885133947fb25bdef16105f099e5c185f9c7fd969571e8e0caa3f7bd75409512fe0a41a60b948b948b9489948b949193839260c0840192918a0191908190849084905b83811015612699578181015183820152602001612681565b50505050905090810190601f1680156126c65780820380516001836020036101000a031916815260200191505b50965050505050505060405180910390a2949350505050565b6000818152600160209081526040808320600381015490546005548351630c03fbd760e01b81526001600160a01b038981166004830152602482018990529451939592948794921692630c03fbd792604480840193829003018186803b15801561274857600080fd5b505afa15801561275c573d6000803e3d6000fd5b505050506040513d602081101561277257600080fd5b50519050828282028161278157fe5b049695505050505050565b6000612796613052565b600260008481526020019081526020016000206040518060e0016040529081600082015481526020016001820154815260200160028201548152602001600382018054600181600116156101000203166002900480601f01602080910402602001604051908101604052809291908181526020018280546001816001161561010002031660029004801561286b5780601f106128405761010080835404028352916020019161286b565b820191906000526020600020905b81548152906001019060200180831161284e57829003601f168201915b505050918352505060048201546001600160a01b03166020820152600582015460408201526006909101546060909101528051909150421180156128b257508060a0015142105b80156128c057506020810151155b9392505050565b60006020819052908152604090205481565b6060600380548060200260200160405190810160405280929190818152602001828054801561292757602002820191906000526020600020905b815481526020019060010190808311612913575b5050505050905090565b6004546001600160a01b031681565b6005546001600160a01b031681565b80600080846040516020018082805190602001908083835b602083106129865780518252601f199092019160209182019101612967565b6001836020036101000a038019825116818451168082178552505050505050905001915050604051602081830303815290604052805190602001208152602001908152602001600020819055505050565b6129df613052565b600260008381526020019081526020016000206040518060e0016040529081600082015481526020016001820154815260200160028201548152602001600382018054600181600116156101000203166002900480601f016020809104026020016040519081016040528092919081815260200182805460018160011615610100020316600290048015612ab45780601f10612a8957610100808354040283529160200191612ab4565b820191906000526020600020905b815481529060010190602001808311612a9757829003601f168201915b505050918352505060048201546001600160a01b0316602080830191909152600583015460408084019190915260069093015460609092019190915282810180516000908152600190925291812091519293509091612b12906110db565b6005546020808601516040805163029f38d360e11b81526004810192909252519394506001600160a01b039092169263053e71a6926024808201939291829003018186803b158015612b6357600080fd5b505afa158015612b77573d6000803e3d6000fd5b505050506040513d6020811015612b8d57600080fd5b5051600383015560018201805460ff60a01b1916600160a01b17905560055460208481015160408051634940318360e01b81526004810192909252516001600160a01b0390931692634940318392602480840193919291829003018186803b158015612bf857600080fd5b505afa158015612c0c573d6000803e3d6000fd5b505050506040513d6020811015612c2257600080fd5b505115612d2457428360a001511115612c4757612c4783606001518460c0015161294f565b6020808401518354600385015460408051928352938201528251919287927fc4497224aa78dd50c9b3e344aab02596201ca1e6dca4057a91a6c02f83f4f6c19281900390910190a36004805460808501516040805163a9059cbb60e01b81526001600160a01b0392831694810194909452602484018590525191169163a9059cbb9160448083019260209291908290030181600087803b158015612cea57600080fd5b505af1158015612cfe573d6000803e3d6000fd5b505050506040513d6020811015612d1457600080fd5b5051612d1f57600080fd5b6121fc565b6020808401518354600385015460408051928352938201528251919287927f362a12431f779a2baff4f77f75ba7960ae993a5c41b425df11f7fd0af2b9cbe69281900390910190a36004805460208086015160009081526001808352604080832090910154815163a9059cbb60e01b81526001600160a01b039182169681019690965260248601879052905193169363a9059cbb936044808301949391928390030190829087803b1580156121c757600080fd5b6000828201838110156128c0576040805162461bcd60e51b815260206004820152601b60248201527f536166654d6174683a206164646974696f6e206f766572666c6f770000000000604482015290519081900360640190fd5b60006128c083836040518060400160405280601e81526020017f536166654d6174683a207375627472616374696f6e206f766572666c6f770000815250612f0f565b600082612e8357506000612030565b82820282848281612e9057fe5b04146128c05760405162461bcd60e51b815260040180806020018281038252602181526020018061316b6021913960400191505060405180910390fd5b60006128c083836040518060400160405280601a81526020017f536166654d6174683a206469766973696f6e206279207a65726f000000000000815250612fa6565b60008184841115612f9e5760405162461bcd60e51b81526004018080602001828103825283818151815260200191508051906020019080838360005b83811015612f63578181015183820152602001612f4b565b50505050905090810190601f168015612f905780820380516001836020036101000a031916815260200191505b509250505060405180910390fd5b505050900390565b60008183612ff55760405162461bcd60e51b8152602060048201818152835160248401528351909283926044909101919085019080838360008315612f63578181015183820152602001612f4b565b50600083858161300157fe5b0495945050505050565b50805460018160011615610100020316600290046000825580601f10613031575061304f565b601f01602090049060005260206000209081019061304f9190613150565b50565b6040518060e001604052806000815260200160008152602001600081526020016060815260200160006001600160a01b0316815260200160008152602001600081525090565b6040518060a001604052806000815260200160006001600160a01b0316815260200160001515815260200160008152602001600081525090565b828054600181600116156101000203166002900490600052602060002090601f016020900481019282601f1061311357805160ff1916838001178555613140565b82800160010185558215613140579182015b82811115613140578251825591602001919060010190613125565b5061314c929150613150565b5090565b61184791905b8082111561314c576000815560010161315656fe536166654d6174683a206d756c7469706c69636174696f6e206f766572666c6f77a265627a7a723158208c7d372b08604bc6fcb7270e67380dd59dd90a2d9734642d9754008d7d04efbb64736f6c63430005110032",
  "source": "pragma solidity ^0.5.17;\n\nimport \"../tokens/GOV.sol\";\nimport \"./PLCR/PLCRVoting.sol\";\nimport \"@openzeppelin/contracts/math/SafeMath.sol\";\n\ncontract Parameterizer {\n\n    // ------\n    // EVENTS\n    // ------\n\n    event _ReparameterizationProposal(string name, uint value, bytes32 propID, uint deposit, uint appEndDate, address indexed proposer);\n    event _NewChallenge(bytes32 indexed propID, uint challengeID, uint commitEndDate, uint revealEndDate, address indexed challenger);\n    event _ProposalAccepted(bytes32 indexed propID, string name, uint value);\n    event _ProposalExpired(bytes32 indexed propID);\n    event _ChallengeSucceeded(bytes32 indexed propID, uint indexed challengeID, uint rewardPool, uint totalTokens);\n    event _ChallengeFailed(bytes32 indexed propID, uint indexed challengeID, uint rewardPool, uint totalTokens);\n    event _RewardClaimed(uint indexed challengeID, uint reward, address indexed voter);\n\n\n    // ------\n    // DATA STRUCTURES\n    // ------\n\n    using SafeMath for uint;\n\n    struct ParamProposal {\n        uint appExpiry;\n        uint challengeID;\n        uint deposit;\n        string name;\n        address owner;\n        uint processBy;\n        uint value;\n    }\n\n    struct Challenge {\n        uint rewardPool;        // (remaining) pool of tokens distributed amongst winning voters\n        address challenger;     // owner of Challenge\n        bool resolved;          // indication of if challenge is resolved\n        uint stake;             // number of tokens at risk for either party during challenge\n        uint winningTokens;     // (remaining) amount of tokens used for voting by the winning side\n        mapping(address => bool) tokenClaims;\n    }\n\n    // ------\n    // STATE\n    // ------\n\n    mapping(bytes32 => uint) public params;\n\n    // maps challengeIDs to associated challenge data\n    mapping(uint => Challenge) public challenges;\n\n    // maps pollIDs to intended data change if poll passes\n    mapping(bytes32 => ParamProposal) public proposals;\n    bytes32[] public proposalKeys;\n\n    // Global Variables\n    GOV public token;\n    PLCRVoting public voting;\n    uint public PROCESSBY = 604800; // 7 days\n\n    /**\n    @dev Initializer        Can only be called once\n    @param _token           The address where the ERC20 token contract is deployed\n    @param _plcr            address of a PLCR voting contract for the provided token\n    @notice _parameters     array of canonical parameters\n    */\n    function init(\n        address _token,\n        address _plcr,\n        uint[] memory _parameters\n    ) public {\n        require(_token != address(0) && address(token) == address(0));\n        require(_plcr != address(0) && address(voting) == address(0));\n\n        token = GOV(_token);\n        voting = PLCRVoting(_plcr);\n\n        // minimum deposit for listing to be whitelisted\n        set(\"minDeposit\", _parameters[0]);\n\n        // minimum deposit to propose a reparameterization\n        set(\"pMinDeposit\", _parameters[1]);\n\n        // period over which applicants wait to be whitelisted\n        set(\"applyStageLen\", _parameters[2]);\n\n        // period over which reparmeterization proposals wait to be processed\n        set(\"pApplyStageLen\", _parameters[3]);\n\n        // length of commit period for voting\n        set(\"commitStageLen\", _parameters[4]);\n\n        // length of commit period for voting in parameterizer\n        set(\"pCommitStageLen\", _parameters[5]);\n\n        // length of reveal period for voting\n        set(\"revealStageLen\", _parameters[6]);\n\n        // length of reveal period for voting in parameterizer\n        set(\"pRevealStageLen\", _parameters[7]);\n\n        // percentage of losing party's deposit distributed to winning party\n        set(\"dispensationPct\", _parameters[8]);\n\n        // percentage of losing party's deposit distributed to winning party in parameterizer\n        set(\"pDispensationPct\", _parameters[9]);\n\n        // type of majority out of 100 necessary for candidate review success\n        set(\"reviewVoteQuorum\", _parameters[10]);\n\n        // type of majority out of 100 necessary for candidate challenge success\n        set(\"challengeVoteQuorum\", _parameters[11]);\n\n        // type of majority out of 100 necessary for proposal success in parameterizer\n        set(\"pVoteQuorum\", _parameters[12]);\n\n        // minimum length of time user has to wait to exit the registry\n        set(\"exitTimeDelay\", _parameters[13]);\n\n        // maximum length of time user can wait to exit the registry\n        set(\"exitPeriodLen\", _parameters[14]);\n\n        // fee for the reviewers\n        set(\"reviewTax\", _parameters[15]);\n\n        // minimum amount of needed reputation for users to be able to participate in governance\n        set(\"pminReputation\", _parameters[16]);\n    }\n\n    // -----------------------\n    // TOKEN HOLDER INTERFACE\n    // -----------------------\n\n    /**\n    @notice propose a reparamaterization of the key _name's value to _value.\n    @param _name the name of the proposed param to be set\n    @param _value the proposed value to set the param to be set\n    */\n    function proposeReparameterization(string memory _name, uint _value) public returns (bytes32) {\n        uint deposit = get(\"pMinDeposit\");\n        bytes32 propID = keccak256(abi.encodePacked(_name, _value));\n\n        if (keccak256(abi.encodePacked(_name)) == keccak256(abi.encodePacked(\"dispensationPct\")) ||\n            keccak256(abi.encodePacked(_name)) == keccak256(abi.encodePacked(\"pDispensationPct\"))) {\n            require(_value <= 100);\n        }\n\n        require(!propExists(propID)); // Forbid duplicate proposals\n        require(get(_name) != _value); // Forbid NOOP reparameterizations\n\n        // attach name and value to pollID\n        proposals[propID] = ParamProposal({\n            appExpiry: now.add(get(\"pApplyStageLen\")),\n            challengeID: 0,\n            deposit: deposit,\n            name: _name,\n            owner: msg.sender,\n            processBy: now.add(get(\"pApplyStageLen\"))\n                .add(get(\"pCommitStageLen\"))\n                .add(get(\"pRevealStageLen\"))\n                .add(PROCESSBY),\n            value: _value\n        });\n\n        require(GOV(token).transferFrom(msg.sender, address(this), deposit)); // escrow tokens (deposit amt)\n\n        proposalKeys.push(propID); // TODO remove from this array when done\n\n        emit _ReparameterizationProposal(_name, _value, propID, deposit, proposals[propID].appExpiry, msg.sender);\n        return propID;\n    }\n\n    function getProposalKeys() public view returns (bytes32[] memory) {\n        return proposalKeys;\n    }\n\n    /**\n    @notice challenge the provided proposal ID, and put tokens at stake to do so.\n    @param _propID the proposal ID to challenge\n    */\n    function challengeReparameterization(bytes32 _propID) public returns (uint challengeID) {\n        ParamProposal memory prop = proposals[_propID];\n        uint deposit = prop.deposit;\n\n        require(propExists(_propID) && prop.challengeID == 0);\n\n        //start poll\n        uint pollID = voting.startPoll(\n            get(\"pVoteQuorum\"),\n            get(\"pCommitStageLen\"),\n            get(\"pRevealStageLen\")\n        );\n\n        challenges[pollID] = Challenge({\n            challenger: msg.sender,\n            rewardPool: SafeMath.sub(100, get(\"pDispensationPct\")).mul(deposit).div(100),\n            stake: deposit,\n            resolved: false,\n            winningTokens: 0\n        });\n\n        proposals[_propID].challengeID = pollID;       // update listing to store most recent challenge\n\n        //take tokens from challenger\n        require(GOV(token).transferFrom(msg.sender, address(this), deposit));\n\n        (uint commitEndDate, uint revealEndDate,,,) = voting.pollMap(pollID);\n\n        emit _NewChallenge(_propID, pollID, commitEndDate, revealEndDate, msg.sender);\n        return pollID;\n    }\n\n    /**\n    @notice             for the provided proposal ID, set it, resolve its challenge, or delete it depending on whether it can be set, has a challenge which can be resolved, or if its \"process by\" date has passed\n    @param _propID      the proposal ID to make a determination and state transition for\n    */\n    function processProposal(bytes32 _propID) public {\n        ParamProposal storage prop = proposals[_propID];\n        address propOwner = prop.owner;\n        uint propDeposit = prop.deposit;\n\n        \n        // Before any token transfers, deleting the proposal will ensure that if reentrancy occurs the\n        // prop.owner and prop.deposit will be 0, thereby preventing theft\n        if (canBeSet(_propID)) {\n            // There is no challenge against the proposal. The processBy date for the proposal has not\n            // passed, but the proposal's appExpirty date has passed.\n            set(prop.name, prop.value);\n            emit _ProposalAccepted(_propID, prop.name, prop.value);\n            delete proposals[_propID];\n            require(GOV(token).transfer(propOwner, propDeposit));\n        } else if (challengeCanBeResolved(_propID)) {\n            // There is a challenge against the proposal.\n            resolveChallenge(_propID);\n        } else if (now > prop.processBy) {\n            // There is no challenge against the proposal, but the processBy date has passed.\n            emit _ProposalExpired(_propID);\n            delete proposals[_propID];\n            require(GOV(token).transfer(propOwner, propDeposit));\n        } else {\n            // There is no challenge against the proposal, and neither the appExpiry date nor the\n            // processBy date has passed.\n            revert();\n        }\n\n        assert(get(\"dispensationPct\") <= 100);\n        assert(get(\"pDispensationPct\") <= 100);\n\n        // verify that future proposal appExpiry and processBy times will not overflow\n        now.add(get(\"pApplyStageLen\"))\n            .add(get(\"pCommitStageLen\"))\n            .add(get(\"pRevealStageLen\"))\n            .add(PROCESSBY);\n\n        delete proposals[_propID];\n    }\n\n    /**\n    @notice                 Claim the tokens owed for the msg.sender in the provided challenge\n    @param _challengeID     the challenge ID to claim tokens for\n    */\n    function claimReward(uint _challengeID) public {\n        Challenge storage challenge = challenges[_challengeID];\n        // ensure voter has not already claimed tokens and challenge results have been processed\n        require(challenge.tokenClaims[msg.sender] == false);\n        require(challenge.resolved == true);\n\n        uint voterTokens = voting.getNumPassingTokens(msg.sender, _challengeID);\n        uint reward = voterReward(msg.sender, _challengeID);\n\n        // subtract voter's information to preserve the participation ratios of other voters\n        // compared to the remaining pool of rewards\n        challenge.winningTokens -= voterTokens;\n        challenge.rewardPool -= reward;\n\n        // ensures a voter cannot claim tokens again\n        challenge.tokenClaims[msg.sender] = true;\n\n        emit _RewardClaimed(_challengeID, reward, msg.sender);\n        require(GOV(token).transfer(msg.sender, reward));\n    }\n\n    /**\n    @dev                    Called by a voter to claim their rewards for each completed vote.\n                            Someone must call updateStatus() before this can be called.\n    @param _challengeIDs    The PLCR pollIDs of the challenges rewards are being claimed for\n    */\n    function claimRewards(uint[] memory _challengeIDs) public {\n        // loop through arrays, claiming each individual vote reward\n        for (uint i = 0; i < _challengeIDs.length; i++) {\n            claimReward(_challengeIDs[i]);\n        }\n    }\n\n    // --------\n    // GETTERS\n    // --------\n\n    /**\n    @dev                Calculates the provided voter's token reward for the given poll.\n    @param _voter       The address of the voter whose reward balance is to be returned\n    @param _challengeID The ID of the challenge the voter's reward is being calculated for\n    @return             The uint indicating the voter's reward\n    */\n    function voterReward(address _voter, uint _challengeID)\n    public view returns (uint) {\n        uint winningTokens = challenges[_challengeID].winningTokens;\n        uint rewardPool = challenges[_challengeID].rewardPool;\n        uint voterTokens = voting.getNumPassingTokens(_voter, _challengeID);\n        return (voterTokens * rewardPool) / winningTokens;\n    }\n\n    /**\n    @notice Determines whether a proposal passed its application stage without a challenge\n    @param _propID The proposal ID for which to determine whether its application stage passed without a challenge\n    */\n    function canBeSet(bytes32 _propID) view public returns (bool) {\n        ParamProposal memory prop = proposals[_propID];\n\n        return (now > prop.appExpiry && now < prop.processBy && prop.challengeID == 0);\n    }\n\n    /**\n    @notice Determines whether a proposal exists for the provided proposal ID\n    @param _propID The proposal ID whose existance is to be determined\n    */\n    function propExists(bytes32 _propID) view public returns (bool) {\n        return proposals[_propID].processBy > 0;\n    }\n\n    /**\n    @notice Determines whether the provided proposal ID has a challenge which can be resolved\n    @param _propID The proposal ID whose challenge to inspect\n    */\n    function challengeCanBeResolved(bytes32 _propID) view public returns (bool) {\n        ParamProposal memory prop = proposals[_propID];\n        Challenge memory challenge = challenges[prop.challengeID];\n\n        return (prop.challengeID > 0 && challenge.resolved == false && voting.pollEnded(prop.challengeID));\n    }\n\n    /**\n    @notice Determines the number of tokens to awarded to the winning party in a challenge\n    @param _challengeID The challengeID to determine a reward for\n    */\n    function challengeWinnerReward(uint _challengeID) public view returns (uint) {\n        if(voting.getTotalNumberOfTokensForWinningOption(_challengeID) == 0) {\n            // Edge case, nobody voted, give all tokens to the challenger.\n            return 2 * challenges[_challengeID].stake;\n        }\n\n        return (2 * challenges[_challengeID].stake) - challenges[_challengeID].rewardPool;\n    }\n\n    /**\n    @notice gets the parameter keyed by the provided name value from the params mapping\n    @param _name the key whose value is to be determined\n    */\n    function get(string memory _name) public view returns (uint value) {\n        return params[keccak256(abi.encodePacked(_name))];\n    }\n\n    /**\n    @notice gets all parameter values from the params mapping\n    */\n    function getAll() public view returns (uint[] memory) {\n        uint[] memory paramValues = new uint[](17);\n        paramValues[0] = params[keccak256(abi.encodePacked(\"minDeposit\"))];\n        paramValues[1] = params[keccak256(abi.encodePacked(\"pMinDeposit\"))];\n        paramValues[2] = params[keccak256(abi.encodePacked(\"applyStageLen\"))];\n        paramValues[3] = params[keccak256(abi.encodePacked(\"pApplyStageLen\"))];\n        paramValues[4] = params[keccak256(abi.encodePacked(\"commitStageLen\"))];\n        paramValues[5] = params[keccak256(abi.encodePacked(\"pCommitStageLen\"))];\n        paramValues[6] = params[keccak256(abi.encodePacked(\"revealStageLen\"))];\n        paramValues[7] = params[keccak256(abi.encodePacked(\"pRevealStageLen\"))];\n        paramValues[8] = params[keccak256(abi.encodePacked(\"dispensationPct\"))];\n        paramValues[9] = params[keccak256(abi.encodePacked(\"pDispensationPct\"))];\n        paramValues[10] = params[keccak256(abi.encodePacked(\"reviewVoteQuorum\"))];\n        paramValues[11] = params[keccak256(abi.encodePacked(\"challengeVoteQuorum\"))];\n        paramValues[12] = params[keccak256(abi.encodePacked(\"pVoteQuorum\"))];\n        paramValues[13] = params[keccak256(abi.encodePacked(\"exitTimeDelay\"))];\n        paramValues[14] = params[keccak256(abi.encodePacked(\"exitPeriodLen\"))];\n        paramValues[15] = params[keccak256(abi.encodePacked(\"reviewTax\"))];\n        paramValues[16] = params[keccak256(abi.encodePacked(\"pminReputation\"))];\n        return paramValues;\n    }\n\n    /**\n    @dev                Getter for Challenge tokenClaims mappings\n    @param _challengeID The challengeID to query\n    @param _voter       The voter whose claim status to query for the provided challengeID\n    */\n    function tokenClaims(uint _challengeID, address _voter) public view returns (bool) {\n        return challenges[_challengeID].tokenClaims[_voter];\n    }\n\n    // ----------------\n    // PRIVATE FUNCTIONS\n    // ----------------\n\n    /**\n    @dev resolves a challenge for the provided _propID. It must be checked in advance whether the _propID has a challenge on it\n    @param _propID the proposal ID whose challenge is to be resolved.\n    */\n    function resolveChallenge(bytes32 _propID) private {\n        ParamProposal memory prop = proposals[_propID];\n        Challenge storage challenge = challenges[prop.challengeID];\n\n        // winner gets back their full staked deposit, and dispensationPct*loser's stake\n        uint reward = challengeWinnerReward(prop.challengeID);\n\n        challenge.winningTokens = voting.getTotalNumberOfTokensForWinningOption(prop.challengeID);\n        challenge.resolved = true;\n\n        if (voting.isPassed(prop.challengeID)) { // The challenge failed\n            if(prop.processBy > now) {\n                set(prop.name, prop.value);\n            }\n            emit _ChallengeFailed(_propID, prop.challengeID, challenge.rewardPool, challenge.winningTokens);\n            require(GOV(token).transfer(prop.owner, reward));\n        }\n        else { // The challenge succeeded or nobody voted\n            emit _ChallengeSucceeded(_propID, prop.challengeID, challenge.rewardPool, challenge.winningTokens);\n            require(GOV(token).transfer(challenges[prop.challengeID].challenger, reward));\n        }\n    }\n\n    /**\n    @dev sets the param keted by the provided name to the provided value\n    @param _name the name of the param to be set\n    @param _value the value to set the param to be set\n    */\n    function set(string memory _name, uint _value) private {\n        params[keccak256(abi.encodePacked(_name))] = _value;\n    }\n}\n\n",
  "sourcePath": "/home/cantonioupao/susDAO-saveMe/FIN4Contracts/contracts/tcr/Parameterizer.sol",
  "compiler": {
    "name": "solc",
    "version": "0.5.17+commit.d19bba13.Emscripten.clang"
  },
  "schemaVersion": "3.3.1",
  "updatedAt": "2020-12-03T18:31:09.783Z",
  "devdoc": {
    "methods": {
      "canBeSet(bytes32)": {
        "params": {
          "_propID": "The proposal ID for which to determine whether its application stage passed without a challenge"
        }
      },
      "challengeCanBeResolved(bytes32)": {
        "params": {
          "_propID": "The proposal ID whose challenge to inspect"
        }
      },
      "challengeReparameterization(bytes32)": {
        "params": {
          "_propID": "the proposal ID to challenge"
        }
      },
      "challengeWinnerReward(uint256)": {
        "params": {
          "_challengeID": "The challengeID to determine a reward for"
        }
      },
      "claimReward(uint256)": {
        "params": {
          "_challengeID": "the challenge ID to claim tokens for"
        }
      },
      "claimRewards(uint256[])": {
        "details": "Called by a voter to claim their rewards for each completed vote. Someone must call updateStatus() before this can be called.",
        "params": {
          "_challengeIDs": "The PLCR pollIDs of the challenges rewards are being claimed for"
        }
      },
      "get(string)": {
        "params": {
          "_name": "the key whose value is to be determined"
        }
      },
      "init(address,address,uint256[])": {
        "details": "Initializer        Can only be called once",
        "params": {
          "_plcr": "address of a PLCR voting contract for the provided token",
          "_token": "The address where the ERC20 token contract is deployed"
        }
      },
      "processProposal(bytes32)": {
        "params": {
          "_propID": "the proposal ID to make a determination and state transition for"
        }
      },
      "propExists(bytes32)": {
        "params": {
          "_propID": "The proposal ID whose existance is to be determined"
        }
      },
      "proposeReparameterization(string,uint256)": {
        "params": {
          "_name": "the name of the proposed param to be set",
          "_value": "the proposed value to set the param to be set"
        }
      },
      "tokenClaims(uint256,address)": {
        "details": "Getter for Challenge tokenClaims mappings",
        "params": {
          "_challengeID": "The challengeID to query",
          "_voter": "The voter whose claim status to query for the provided challengeID"
        }
      },
      "voterReward(address,uint256)": {
        "details": "Calculates the provided voter's token reward for the given poll.",
        "params": {
          "_challengeID": "The ID of the challenge the voter's reward is being calculated for",
          "_voter": "The address of the voter whose reward balance is to be returned"
        },
        "return": "The uint indicating the voter's reward"
      }
    }
  },
  "userdoc": {
    "methods": {
      "canBeSet(bytes32)": {
        "notice": "Determines whether a proposal passed its application stage without a challenge"
      },
      "challengeCanBeResolved(bytes32)": {
        "notice": "Determines whether the provided proposal ID has a challenge which can be resolved"
      },
      "challengeReparameterization(bytes32)": {
        "notice": "challenge the provided proposal ID, and put tokens at stake to do so."
      },
      "challengeWinnerReward(uint256)": {
        "notice": "Determines the number of tokens to awarded to the winning party in a challenge"
      },
      "claimReward(uint256)": {
        "notice": "Claim the tokens owed for the msg.sender in the provided challenge"
      },
      "get(string)": {
        "notice": "gets the parameter keyed by the provided name value from the params mapping"
      },
      "getAll()": {
        "notice": "gets all parameter values from the params mapping"
      },
      "init(address,address,uint256[])": {
        "notice": "_parameters     array of canonical parameters"
      },
      "processProposal(bytes32)": {
        "notice": "for the provided proposal ID, set it, resolve its challenge, or delete it depending on whether it can be set, has a challenge which can be resolved, or if its \"process by\" date has passed"
      },
      "propExists(bytes32)": {
        "notice": "Determines whether a proposal exists for the provided proposal ID"
      },
      "proposeReparameterization(string,uint256)": {
        "notice": "propose a reparamaterization of the key _name's value to _value."
      }
    }
  }
}