{
  "contractName": "ParameterizerFactory",
  "abi": [
    {
      "inputs": [
        {
          "internalType": "contract PLCRFactory",
          "name": "_plcrFactory",
          "type": "address"
        }
      ],
      "payable": false,
      "stateMutability": "nonpayable",
      "type": "constructor"
    },
    {
      "anonymous": false,
      "inputs": [
        {
          "indexed": false,
          "internalType": "address",
          "name": "creator",
          "type": "address"
        },
        {
          "indexed": false,
          "internalType": "address",
          "name": "token",
          "type": "address"
        },
        {
          "indexed": false,
          "internalType": "address",
          "name": "plcr",
          "type": "address"
        },
        {
          "indexed": false,
          "internalType": "contract Parameterizer",
          "name": "parameterizer",
          "type": "address"
        }
      ],
      "name": "NewParameterizer",
      "type": "event"
    },
    {
      "constant": true,
      "inputs": [],
      "name": "canonizedParameterizer",
      "outputs": [
        {
          "internalType": "contract Parameterizer",
          "name": "",
          "type": "address"
        }
      ],
      "payable": false,
      "stateMutability": "view",
      "type": "function"
    },
    {
      "constant": true,
      "inputs": [],
      "name": "plcrFactory",
      "outputs": [
        {
          "internalType": "contract PLCRFactory",
          "name": "",
          "type": "address"
        }
      ],
      "payable": false,
      "stateMutability": "view",
      "type": "function"
    },
    {
      "constant": true,
      "inputs": [],
      "name": "proxyFactory",
      "outputs": [
        {
          "internalType": "contract ProxyFactory",
          "name": "",
          "type": "address"
        }
      ],
      "payable": false,
      "stateMutability": "view",
      "type": "function"
    },
    {
      "constant": false,
      "inputs": [
        {
          "internalType": "contract GOV",
          "name": "_token",
          "type": "address"
        },
        {
          "internalType": "uint256[]",
          "name": "_parameters",
          "type": "uint256[]"
        }
      ],
      "name": "newParameterizerBYOToken",
      "outputs": [
        {
          "internalType": "contract Parameterizer",
          "name": "",
          "type": "address"
        }
      ],
      "payable": false,
      "stateMutability": "nonpayable",
      "type": "function"
    },
    {
      "constant": false,
      "inputs": [
        {
          "internalType": "uint256",
          "name": "_supply",
          "type": "uint256"
        },
        {
          "internalType": "string",
          "name": "_name",
          "type": "string"
        },
        {
          "internalType": "uint8",
          "name": "_decimals",
          "type": "uint8"
        },
        {
          "internalType": "string",
          "name": "_symbol",
          "type": "string"
        },
        {
          "internalType": "uint256[]",
          "name": "_parameters",
          "type": "uint256[]"
        }
      ],
      "name": "newParameterizerWithToken",
      "outputs": [
        {
          "internalType": "contract Parameterizer",
          "name": "",
          "type": "address"
        }
      ],
      "payable": false,
      "stateMutability": "nonpayable",
      "type": "function"
    }
  ],
  "bytecode": "0x608060405234801561001057600080fd5b50604051613c96380380613c968339818101604052602081101561003357600080fd5b5051600080546001600160a01b0319166001600160a01b0380841691909117918290556040805163c10f1a7560e01b81529051929091169163c10f1a7591600480820192602092909190829003018186803b15801561009157600080fd5b505afa1580156100a5573d6000803e3d6000fd5b505050506040513d60208110156100bb57600080fd5b5051600180546001600160a01b0319166001600160a01b039092169190911790556040516100e89061012b565b604051809103906000f080158015610104573d6000803e3d6000fd5b50600280546001600160a01b0319166001600160a01b039290921691909117905550610138565b6131e780610aaf83390190565b610968806101476000396000f3fe608060405234801561001057600080fd5b50600436106100575760003560e01c80631f4d7ec41461005c5780637087ec1414610235578063ad3eb71f146102e6578063c10f1a75146102ee578063c34fb5ca146102f6575b600080fd5b610219600480360360a081101561007257600080fd5b81359190810190604081016020820135600160201b81111561009357600080fd5b8201836020820111156100a557600080fd5b803590602001918460018302840111600160201b831117156100c657600080fd5b91908080601f016020809104026020016040519081016040528093929190818152602001838380828437600092019190915250929560ff853516959094909350604081019250602001359050600160201b81111561012357600080fd5b82018360208201111561013557600080fd5b803590602001918460018302840111600160201b8311171561015657600080fd5b91908080601f0160208091040260200160405190810160405280939291908181526020018383808284376000920191909152509295949360208101935035915050600160201b8111156101a857600080fd5b8201836020820111156101ba57600080fd5b803590602001918460208302840111600160201b831117156101db57600080fd5b9190808060200260200160405190810160405280939291908181526020018383602002808284376000920191909152509295506102fe945050505050565b604080516001600160a01b039092168252519081900360200190f35b6102196004803603604081101561024b57600080fd5b6001600160a01b038235169190810190604081016020820135600160201b81111561027557600080fd5b82018360208201111561028757600080fd5b803590602001918460208302840111600160201b831117156102a857600080fd5b9190808060200260200160405190810160405280939291908181526020018383602002808284376000920191909152509295506106e7945050505050565b610219610906565b610219610915565b610219610924565b6000805460405163bf6c4de960e01b81526004810188815260ff8716604483015260806024830190815288516084840152885185946001600160a01b03169363bf6c4de9938c938c938c938c939291606482019160a4019060208801908083838f5b83811015610378578181015183820152602001610360565b50505050905090810190601f1680156103a55780820380516001836020036101000a031916815260200191505b50838103825284518152845160209182019186019080838360005b838110156103d85781810151838201526020016103c0565b50505050905090810190601f1680156104055780820380516001836020036101000a031916815260200191505b509650505050505050602060405180830381600087803b15801561042857600080fd5b505af115801561043c573d6000803e3d6000fd5b505050506040513d602081101561045257600080fd5b505160408051637e062a3560e11b815290519192506000916001600160a01b0384169163fc0c546a916004808301926020929190829003018186803b15801561049a57600080fd5b505afa1580156104ae573d6000803e3d6000fd5b505050506040513d60208110156104c457600080fd5b50516040805163a9059cbb60e01b8152336004820152602481018b905290519192506001600160a01b0383169163a9059cbb916044808201926020929091908290030181600087803b15801561051957600080fd5b505af115801561052d573d6000803e3d6000fd5b505050506040513d602081101561054357600080fd5b5050600154600254604080516361b69abd60e01b81526001600160a01b039283166004820152602481018290526000604482018190529151919392909216916361b69abd91608480830192602092919082900301818787803b1580156105a857600080fd5b505af11580156105bc573d6000803e3d6000fd5b505050506040513d60208110156105d257600080fd5b505160405162896eed60e71b81526001600160a01b03848116600483019081528682166024840152606060448401908152895160648501528951949550918516936344b7768093879389938c939092608401906020858101910280838360005b8381101561064a578181015183820152602001610632565b50505050905001945050505050600060405180830381600087803b15801561067157600080fd5b505af1158015610685573d6000803e3d6000fd5b5050604080513381526001600160a01b038087166020830152808816828401528516606082015290517ff4a0eaa30ff3ec1d59441beedaa51ca40523fa3157d309772749e14cfa9f93469350908190036080019150a198975050505050505050565b600080546040805163356e05a760e21b81526001600160a01b03868116600483015291518493929092169163d5b8169c9160248082019260209290919082900301818787803b15801561073957600080fd5b505af115801561074d573d6000803e3d6000fd5b505050506040513d602081101561076357600080fd5b5051600154600254604080516361b69abd60e01b81526001600160a01b039283166004820152602481018290526000604482018190529151949550909391909216916361b69abd91608480830192602092919082900301818787803b1580156107cb57600080fd5b505af11580156107df573d6000803e3d6000fd5b505050506040513d60208110156107f557600080fd5b505160405162896eed60e71b81526001600160a01b03878116600483019081528582166024840152606060448401908152885160648501528851949550918516936344b77680938a9388938b939092608401906020858101910280838360005b8381101561086d578181015183820152602001610855565b50505050905001945050505050600060405180830381600087803b15801561089457600080fd5b505af11580156108a8573d6000803e3d6000fd5b5050604080513381526001600160a01b03808a166020830152808716828401528516606082015290517ff4a0eaa30ff3ec1d59441beedaa51ca40523fa3157d309772749e14cfa9f93469350908190036080019150a1949350505050565b6000546001600160a01b031681565b6001546001600160a01b031681565b6002546001600160a01b03168156fea265627a7a72315820536b22a9d05f2cba8ab0f04922eb42cafb727cbaddc64f965f5f3d2dd28ac94a64736f6c63430005110032608060405262093a8060065534801561001757600080fd5b506131c0806100276000396000f3fe608060405234801561001057600080fd5b50600436106101415760003560e01c80638240ae4b116100b8578063bd0ae4051161007c578063bd0ae4051461068b578063c51131fb146106b7578063dc6ab527146106d4578063f9cabf64146106f1578063fc0c546a146106f9578063fce1ccca1461071d57610141565b80638240ae4b1461052f5780638f1d37761461054c578063a5ba3b1e1461059c578063ae169a50146105c8578063bade1c54146105e557610141565b806344b776801161010a57806344b776801461029e578063504115521461035857806353ed5143146103755780635eac6239146103cd578063693ec85e1461046e57806377609a411461051257610141565b806229514f1461014657806308bf63951461016057806330490e911461017d57806332ed5b121461019c578063353009901461026d575b600080fd5b61014e610725565b60408051918252519081900360200190f35b61014e6004803603602081101561017657600080fd5b503561072b565b61019a6004803603602081101561019357600080fd5b5035610749565b005b6101b9600480360360208110156101b257600080fd5b5035610bbe565b6040518088815260200187815260200186815260200180602001856001600160a01b03166001600160a01b03168152602001848152602001838152602001828103825286818151815260200191508051906020019080838360005b8381101561022c578181015183820152602001610214565b50505050905090810190601f1680156102595780820380516001836020036101000a031916815260200191505b509850505050505050505060405180910390f35b61028a6004803603602081101561028357600080fd5b5035610c8a565b604080519115158252519081900360200190f35b61019a600480360360608110156102b457600080fd5b6001600160a01b038235811692602081013590911691810190606081016040820135600160201b8111156102e757600080fd5b8201836020820111156102f957600080fd5b803590602001918460208302840111600160201b8311171561031a57600080fd5b919080806020026020016040519081016040528093929190818152602001838360200280828437600092019190915250929550610ca4945050505050565b61014e6004803603602081101561036e57600080fd5b50356110db565b61037d611190565b60408051602080825283518183015283519192839290830191858101910280838360005b838110156103b95781810151838201526020016103a1565b505050509050019250505060405180910390f35b61019a600480360360208110156103e357600080fd5b810190602081018135600160201b8111156103fd57600080fd5b82018360208201111561040f57600080fd5b803590602001918460208302840111600160201b8311171561043057600080fd5b91908080602002602001604051908101604052809392919081815260200183836020028082843760009201919091525092955061184a945050505050565b61014e6004803603602081101561048457600080fd5b810190602081018135600160201b81111561049e57600080fd5b8201836020820111156104b057600080fd5b803590602001918460018302840111600160201b831117156104d157600080fd5b91908080601f01602080910402602001604051908101604052809392919081815260200183838082843760009201919091525092955061187e945050505050565b61028a6004803603602081101561052857600080fd5b5035611907565b61014e6004803603602081101561054557600080fd5b5035611b1f565b6105696004803603602081101561056257600080fd5b5035611fc9565b604080519586526001600160a01b0390941660208601529115158484015260608401526080830152519081900360a00190f35b61028a600480360360408110156105b257600080fd5b50803590602001356001600160a01b0316612006565b61019a600480360360208110156105de57600080fd5b5035612036565b61014e600480360360408110156105fb57600080fd5b810190602081018135600160201b81111561061557600080fd5b82018360208201111561062757600080fd5b803590602001918460018302840111600160201b8311171561064857600080fd5b91908080601f0160208091040260200160405190810160405280939291908181526020018383808284376000920191909152509295505091359250612202915050565b61014e600480360360408110156106a157600080fd5b506001600160a01b0381351690602001356126df565b61028a600480360360208110156106cd57600080fd5b503561278c565b61014e600480360360208110156106ea57600080fd5b50356128c7565b61037d6128d9565b610701612931565b604080516001600160a01b039092168252519081900360200190f35b610701612940565b60065481565b6003818154811061073857fe5b600091825260209091200154905081565b600081815260026020819052604090912060048101549181015490916001600160a01b0316906107788461278c565b156109bf57600383018054604080516020601f6002600019610100600188161502019095169490940493840181900481028201810190925282815261081b939092909183018282801561080c5780601f106107e15761010080835404028352916020019161080c565b820191906000526020600020905b8154815290600101906020018083116107ef57829003601f168201915b5050505050846006015461294f565b600683015460408051602081018390528181526003860180546002600019610100600184161502019091160492820183905287937f37f3986c71e1aa2c470cfc4a92af70820610c3065589d35ef1664ea27f3e73a5939192909181906060820190859080156108cb5780601f106108a0576101008083540402835291602001916108cb565b820191906000526020600020905b8154815290600101906020018083116108ae57829003601f168201915b5050935050505060405180910390a2600084815260026020819052604082208281556001810183905590810182905590610908600383018261300b565b50600481810180546001600160a01b0319169055600060058301819055600690920182905580546040805163a9059cbb60e01b81526001600160a01b0387811694820194909452602481018690529051929091169263a9059cbb926044808401936020939083900390910190829087803b15801561098557600080fd5b505af1158015610999573d6000803e3d6000fd5b505050506040513d60208110156109af57600080fd5b50516109ba57600080fd5b610a3b565b6109c884611907565b156109d6576109ba846129d7565b82600501544211156101415760405184907f29026cb2acebe6d0a4b6d593ccadf76e3fc6d0a02254e078b0c4a619608089d790600090a2600084815260026020819052604082208281556001810183905590810182905590610908600383018261300b565b6064610a6d6040518060400160405280600f81526020016e191a5cdc195b9cd85d1a5bdb9418dd608a1b81525061187e565b1115610a7557fe5b6064610aa86040518060400160405280601081526020016f1c111a5cdc195b9cd85d1a5bdb9418dd60821b81525061187e565b1115610ab057fe5b610b67600654610b5b610ae96040518060400160405280600f81526020016e382932bb32b0b629ba30b3b2a632b760891b81525061187e565b610b5b610b1c6040518060400160405280600f81526020016e3821b7b6b6b4ba29ba30b3b2a632b760891b81525061187e565b610b5b610b4e6040518060400160405280600e81526020016d3820b838363ca9ba30b3b2a632b760911b81525061187e565b429063ffffffff612dd816565b9063ffffffff612dd816565b50600084815260026020819052604082208281556001810183905590810182905590610b96600383018261300b565b506004810180546001600160a01b031916905560006005820181905560069091015550505050565b60026020818152600092835260409283902080546001808301548386015460038501805489519481161561010002600019011697909704601f8101879004870284018701909852878352929690959294919291830182828015610c625780601f10610c3757610100808354040283529160200191610c62565b820191906000526020600020905b815481529060010190602001808311610c4557829003601f168201915b505050506004830154600584015460069094015492936001600160a01b039091169290915087565b60008181526002602052604090206005015415155b919050565b6001600160a01b03831615801590610cc557506004546001600160a01b0316155b610cce57600080fd5b6001600160a01b03821615801590610cef57506005546001600160a01b0316155b610cf857600080fd5b600480546001600160a01b038086166001600160a01b031992831617909255600580549285169290911691909117905560408051808201909152600a8152691b5a5b91195c1bdcda5d60b21b60208201528151610d6891908390600090610d5b57fe5b602002602001015161294f565b610d9c6040518060400160405280600b81526020016a1c135a5b91195c1bdcda5d60aa1b81525082600181518110610d5b57fe5b610dd26040518060400160405280600d81526020016c30b838363ca9ba30b3b2a632b760991b81525082600281518110610d5b57fe5b610e096040518060400160405280600e81526020016d3820b838363ca9ba30b3b2a632b760911b81525082600381518110610d5b57fe5b610e406040518060400160405280600e81526020016d31b7b6b6b4ba29ba30b3b2a632b760911b81525082600481518110610d5b57fe5b610e786040518060400160405280600f81526020016e3821b7b6b6b4ba29ba30b3b2a632b760891b81525082600581518110610d5b57fe5b610eaf6040518060400160405280600e81526020016d3932bb32b0b629ba30b3b2a632b760911b81525082600681518110610d5b57fe5b610ee76040518060400160405280600f81526020016e382932bb32b0b629ba30b3b2a632b760891b81525082600781518110610d5b57fe5b610f1f6040518060400160405280600f81526020016e191a5cdc195b9cd85d1a5bdb9418dd608a1b81525082600881518110610d5b57fe5b610f586040518060400160405280601081526020016f1c111a5cdc195b9cd85d1a5bdb9418dd60821b81525082600981518110610d5b57fe5b610f916040518060400160405280601081526020016f726576696577566f746551756f72756d60801b81525082600a81518110610d5b57fe5b610fcd604051806040016040528060138152602001726368616c6c656e6765566f746551756f72756d60681b81525082600b81518110610d5b57fe5b6110016040518060400160405280600b81526020016a70566f746551756f72756d60a81b81525082600c81518110610d5b57fe5b6110376040518060400160405280600d81526020016c6578697454696d6544656c617960981b81525082600d81518110610d5b57fe5b61106d6040518060400160405280600d81526020016c32bc34ba2832b934b7b22632b760991b81525082600e81518110610d5b57fe5b61109f604051806040016040528060098152602001680e4caecd2caeea8c2f60bb1b81525082600f81518110610d5b57fe5b6110d66040518060400160405280600e81526020016d3836b4b72932b83aba30ba34b7b760911b81525082601081518110610d5b57fe5b505050565b6005546040805163029f38d360e11b81526004810184905290516000926001600160a01b03169163053e71a6916024808301926020929190829003018186803b15801561112757600080fd5b505afa15801561113b573d6000803e3d6000fd5b505050506040513d602081101561115157600080fd5b50516111725750600081815260016020526040902060029081015402610c9f565b50600090815260016020526040902080546002918201549091020390565b604080516011808252610240820190925260609182919060208201610220803883390190505090506000806040516020018080691b5a5b91195c1bdcda5d60b21b815250600a019050604051602081830303815290604052805190602001208152602001908152602001600020548160008151811061120b57fe5b60200260200101818152505060008060405160200180806a1c135a5b91195c1bdcda5d60aa1b815250600b019050604051602081830303815290604052805190602001208152602001908152602001600020548160018151811061126b57fe5b60200260200101818152505060008060405160200180806c30b838363ca9ba30b3b2a632b760991b815250600d01905060405160208183030381529060405280519060200120815260200190815260200160002054816002815181106112cd57fe5b60200260200101818152505060008060405160200180806d3820b838363ca9ba30b3b2a632b760911b815250600e019050604051602081830303815290604052805190602001208152602001908152602001600020548160038151811061133057fe5b60200260200101818152505060008060405160200180806d31b7b6b6b4ba29ba30b3b2a632b760911b815250600e019050604051602081830303815290604052805190602001208152602001908152602001600020548160048151811061139357fe5b60200260200101818152505060008060405160200180806e3821b7b6b6b4ba29ba30b3b2a632b760891b815250600f01905060405160208183030381529060405280519060200120815260200190815260200160002054816005815181106113f757fe5b60200260200101818152505060008060405160200180806d3932bb32b0b629ba30b3b2a632b760911b815250600e019050604051602081830303815290604052805190602001208152602001908152602001600020548160068151811061145a57fe5b60200260200101818152505060008060405160200180806e382932bb32b0b629ba30b3b2a632b760891b815250600f01905060405160208183030381529060405280519060200120815260200190815260200160002054816007815181106114be57fe5b60200260200101818152505060008060405160200180806e191a5cdc195b9cd85d1a5bdb9418dd608a1b815250600f019050604051602081830303815290604052805190602001208152602001908152602001600020548160088151811061152257fe5b60200260200101818152505060008060405160200180806f1c111a5cdc195b9cd85d1a5bdb9418dd60821b8152506010019050604051602081830303815290604052805190602001208152602001908152602001600020548160098151811061158757fe5b60200260200101818152505060008060405160200180806f726576696577566f746551756f72756d60801b81525060100190506040516020818303038152906040528051906020012081526020019081526020016000205481600a815181106115ec57fe5b6020026020010181815250506000806040516020018080726368616c6c656e6765566f746551756f72756d60681b81525060130190506040516020818303038152906040528051906020012081526020019081526020016000205481600b8151811061165457fe5b60200260200101818152505060008060405160200180806a70566f746551756f72756d60a81b815250600b0190506040516020818303038152906040528051906020012081526020019081526020016000205481600c815181106116b457fe5b60200260200101818152505060008060405160200180806c6578697454696d6544656c617960981b815250600d0190506040516020818303038152906040528051906020012081526020019081526020016000205481600d8151811061171657fe5b60200260200101818152505060008060405160200180806c32bc34ba2832b934b7b22632b760991b815250600d0190506040516020818303038152906040528051906020012081526020019081526020016000205481600e8151811061177857fe5b6020026020010181815250506000806040516020018080680e4caecd2caeea8c2f60bb1b81525060090190506040516020818303038152906040528051906020012081526020019081526020016000205481600f815181106117d657fe5b60200260200101818152505060008060405160200180806d3836b4b72932b83aba30ba34b7b760911b815250600e019050604051602081830303815290604052805190602001208152602001908152602001600020548160108151811061183957fe5b602090810291909101015290505b90565b60005b815181101561187a5761187282828151811061186557fe5b6020026020010151612036565b60010161184d565b5050565b6000806000836040516020018082805190602001908083835b602083106118b65780518252601f199092019160209182019101611897565b6001836020036101000a038019825116818451168082178552505050505050905001915050604051602081830303815290604052805190602001208152602001908152602001600020549050919050565b6000611911613052565b600260008481526020019081526020016000206040518060e0016040529081600082015481526020016001820154815260200160028201548152602001600382018054600181600116156101000203166002900480601f0160208091040260200160405190810160405280929190818152602001828054600181600116156101000203166002900480156119e65780601f106119bb576101008083540402835291602001916119e6565b820191906000526020600020905b8154815290600101906020018083116119c957829003601f168201915b505050918352505060048201546001600160a01b03166020820152600582015460408201526006909101546060909101529050611a21613098565b506020818101805160009081526001808452604091829020825160a08101845281548152918101546001600160a01b03811695830195909552600160a01b90940460ff161515918101919091526002830154606082015260039092015460808301525115801590611a9457506040810151155b8015611b17575060055460208084015160408051630ee6848360e41b81526004810192909252516001600160a01b039093169263ee68483092602480840193919291829003018186803b158015611aea57600080fd5b505afa158015611afe573d6000803e3d6000fd5b505050506040513d6020811015611b1457600080fd5b50515b949350505050565b6000611b29613052565b600260008481526020019081526020016000206040518060e0016040529081600082015481526020016001820154815260200160028201548152602001600382018054600181600116156101000203166002900480601f016020809104026020016040519081016040528092919081815260200182805460018160011615610100020316600290048015611bfe5780601f10611bd357610100808354040283529160200191611bfe565b820191906000526020600020905b815481529060010190602001808311611be157829003601f168201915b505050918352505060048201546001600160a01b031660208201526005820154604080830191909152600690920154606090910152810151909150611c4284610c8a565b8015611c5057506020820151155b611c5957600080fd5b60055460408051808201909152600b81526a70566f746551756f72756d60a81b60208201526000916001600160a01b0316906332ed3d6090611c9a9061187e565b611cca6040518060400160405280600f81526020016e3821b7b6b6b4ba29ba30b3b2a632b760891b81525061187e565b611cfa6040518060400160405280600f81526020016e382932bb32b0b629ba30b3b2a632b760891b81525061187e565b6040518463ffffffff1660e01b8152600401808481526020018381526020018281526020019350505050602060405180830381600087803b158015611d3e57600080fd5b505af1158015611d52573d6000803e3d6000fd5b505050506040513d6020811015611d6857600080fd5b50516040805160e08101909152601060a082019081526f1c111a5cdc195b9cd85d1a5bdb9418dd60821b60c0830152919250908190611dd690606490611dca908790611dbe908490611db99061187e565b612e32565b9063ffffffff612e7416565b9063ffffffff612ecd16565b815233602080830182905260006040808501829052606080860189905260809586018390528783526001808552828420885181558886015181830180548b8701516001600160a01b03199091166001600160a01b039384161760ff60a01b1916600160a01b911515919091021790559289015160028083019190915598909701516003909701969096558b83529583528082209094018690556004805485516323b872dd60e01b81529182019490945230602482015260448101889052935192909416936323b872dd9360648082019492918390030190829087803b158015611ebe57600080fd5b505af1158015611ed2573d6000803e3d6000fd5b505050506040513d6020811015611ee857600080fd5b5051611ef357600080fd5b60055460408051636148fed560e01b815260048101849052905160009283926001600160a01b0390911691636148fed59160248082019260a092909190829003018186803b158015611f4457600080fd5b505afa158015611f58573d6000803e3d6000fd5b505050506040513d60a0811015611f6e57600080fd5b50805160209182015160408051878152938401839052838101829052519194509250339189917fe94e3086c4bfe84acba4437b85a80fca3721dfc419d1f7afe4fa4e470e670b489181900360600190a3509095945050505050565b600160208190526000918252604090912080549181015460028201546003909201546001600160a01b03821692600160a01b90920460ff16919085565b60008281526001602090815260408083206001600160a01b038516845260040190915290205460ff165b92915050565b6000818152600160209081526040808320338452600481019092529091205460ff161561206257600080fd5b600181810154600160a01b900460ff1615151461207e57600080fd5b60055460408051630c03fbd760e01b81523360048201526024810185905290516000926001600160a01b031691630c03fbd7916044808301926020929190829003018186803b1580156120d057600080fd5b505afa1580156120e4573d6000803e3d6000fd5b505050506040513d60208110156120fa57600080fd5b50519050600061210a33856126df565b600384018054849003905583548190038455336000818152600486016020908152604091829020805460ff1916600117905581518481529151939450919287927f6f4c982acc31b0af2cf1dc1556f21c0325d893782d65e83c68a5534a33f59957928290030190a3600480546040805163a9059cbb60e01b8152339381019390935260248301849052516001600160a01b039091169163a9059cbb9160448083019260209291908290030181600087803b1580156121c757600080fd5b505af11580156121db573d6000803e3d6000fd5b505050506040513d60208110156121f157600080fd5b50516121fc57600080fd5b50505050565b6000806122316040518060400160405280600b81526020016a1c135a5b91195c1bdcda5d60aa1b81525061187e565b9050600084846040516020018083805190602001908083835b602083106122695780518252601f19909201916020918201910161224a565b51815160209384036101000a600019018019909216911617905292019384525060408051808503815284830182528051908301206e191a5cdc195b9cd85d1a5bdb9418dd608a1b828601528151808603602f018152604f86019092528151918301919091208a5191965094508993606f01925082918401908083835b602083106123045780518252601f1990920191602091820191016122e5565b6001836020036101000a0380198251168184511680821785525050505050509050019150506040516020818303038152906040528051906020012014806123f0575060405160200180806f1c111a5cdc195b9cd85d1a5bdb9418dd60821b815250601001905060405160208183030381529060405280519060200120856040516020018082805190602001908083835b602083106123b35780518252601f199092019160209182019101612394565b6001836020036101000a03801982511681845116808217855250505050505090500191505060405160208183030381529060405280519060200120145b1561240357606484111561240357600080fd5b61240c81610c8a565b1561241657600080fd5b836124208661187e565b141561242b57600080fd5b6040518060e00160405280612468610b4e6040518060400160405280600e81526020016d3820b838363ca9ba30b3b2a632b760911b81525061187e565b815260200160008152602001838152602001868152602001336001600160a01b031681526020016124c8600654610b5b610ae96040518060400160405280600f81526020016e382932bb32b0b629ba30b3b2a632b760891b81525061187e565b8152602090810186905260008381526002808352604091829020845181558484015160018201559184015190820155606083015180519192612512926003850192909101906130d2565b506080820151600482810180546001600160a01b0319166001600160a01b0393841617905560a0840151600584015560c0909301516006909201919091558154604080516323b872dd60e01b8152339481019490945230602485015260448401869052519116916323b872dd9160648083019260209291908290030181600087803b1580156125a057600080fd5b505af11580156125b4573d6000803e3d6000fd5b505050506040513d60208110156125ca57600080fd5b50516125d557600080fd5b60038054600181019091557fc2575a0e9e593c00f959f8c92f12db2869c3395a3b0502d05e2516446f71f85b018190556000818152600260209081526040808320548151808401899052918201859052606082018690526080820181905260a0808352895190830152885133947fb25bdef16105f099e5c185f9c7fd969571e8e0caa3f7bd75409512fe0a41a60b948b948b9489948b949193839260c0840192918a0191908190849084905b83811015612699578181015183820152602001612681565b50505050905090810190601f1680156126c65780820380516001836020036101000a031916815260200191505b50965050505050505060405180910390a2949350505050565b6000818152600160209081526040808320600381015490546005548351630c03fbd760e01b81526001600160a01b038981166004830152602482018990529451939592948794921692630c03fbd792604480840193829003018186803b15801561274857600080fd5b505afa15801561275c573d6000803e3d6000fd5b505050506040513d602081101561277257600080fd5b50519050828282028161278157fe5b049695505050505050565b6000612796613052565b600260008481526020019081526020016000206040518060e0016040529081600082015481526020016001820154815260200160028201548152602001600382018054600181600116156101000203166002900480601f01602080910402602001604051908101604052809291908181526020018280546001816001161561010002031660029004801561286b5780601f106128405761010080835404028352916020019161286b565b820191906000526020600020905b81548152906001019060200180831161284e57829003601f168201915b505050918352505060048201546001600160a01b03166020820152600582015460408201526006909101546060909101528051909150421180156128b257508060a0015142105b80156128c057506020810151155b9392505050565b60006020819052908152604090205481565b6060600380548060200260200160405190810160405280929190818152602001828054801561292757602002820191906000526020600020905b815481526020019060010190808311612913575b5050505050905090565b6004546001600160a01b031681565b6005546001600160a01b031681565b80600080846040516020018082805190602001908083835b602083106129865780518252601f199092019160209182019101612967565b6001836020036101000a038019825116818451168082178552505050505050905001915050604051602081830303815290604052805190602001208152602001908152602001600020819055505050565b6129df613052565b600260008381526020019081526020016000206040518060e0016040529081600082015481526020016001820154815260200160028201548152602001600382018054600181600116156101000203166002900480601f016020809104026020016040519081016040528092919081815260200182805460018160011615610100020316600290048015612ab45780601f10612a8957610100808354040283529160200191612ab4565b820191906000526020600020905b815481529060010190602001808311612a9757829003601f168201915b505050918352505060048201546001600160a01b0316602080830191909152600583015460408084019190915260069093015460609092019190915282810180516000908152600190925291812091519293509091612b12906110db565b6005546020808601516040805163029f38d360e11b81526004810192909252519394506001600160a01b039092169263053e71a6926024808201939291829003018186803b158015612b6357600080fd5b505afa158015612b77573d6000803e3d6000fd5b505050506040513d6020811015612b8d57600080fd5b5051600383015560018201805460ff60a01b1916600160a01b17905560055460208481015160408051634940318360e01b81526004810192909252516001600160a01b0390931692634940318392602480840193919291829003018186803b158015612bf857600080fd5b505afa158015612c0c573d6000803e3d6000fd5b505050506040513d6020811015612c2257600080fd5b505115612d2457428360a001511115612c4757612c4783606001518460c0015161294f565b6020808401518354600385015460408051928352938201528251919287927fc4497224aa78dd50c9b3e344aab02596201ca1e6dca4057a91a6c02f83f4f6c19281900390910190a36004805460808501516040805163a9059cbb60e01b81526001600160a01b0392831694810194909452602484018590525191169163a9059cbb9160448083019260209291908290030181600087803b158015612cea57600080fd5b505af1158015612cfe573d6000803e3d6000fd5b505050506040513d6020811015612d1457600080fd5b5051612d1f57600080fd5b6121fc565b6020808401518354600385015460408051928352938201528251919287927f362a12431f779a2baff4f77f75ba7960ae993a5c41b425df11f7fd0af2b9cbe69281900390910190a36004805460208086015160009081526001808352604080832090910154815163a9059cbb60e01b81526001600160a01b039182169681019690965260248601879052905193169363a9059cbb936044808301949391928390030190829087803b1580156121c757600080fd5b6000828201838110156128c0576040805162461bcd60e51b815260206004820152601b60248201527f536166654d6174683a206164646974696f6e206f766572666c6f770000000000604482015290519081900360640190fd5b60006128c083836040518060400160405280601e81526020017f536166654d6174683a207375627472616374696f6e206f766572666c6f770000815250612f0f565b600082612e8357506000612030565b82820282848281612e9057fe5b04146128c05760405162461bcd60e51b815260040180806020018281038252602181526020018061316b6021913960400191505060405180910390fd5b60006128c083836040518060400160405280601a81526020017f536166654d6174683a206469766973696f6e206279207a65726f000000000000815250612fa6565b60008184841115612f9e5760405162461bcd60e51b81526004018080602001828103825283818151815260200191508051906020019080838360005b83811015612f63578181015183820152602001612f4b565b50505050905090810190601f168015612f905780820380516001836020036101000a031916815260200191505b509250505060405180910390fd5b505050900390565b60008183612ff55760405162461bcd60e51b8152602060048201818152835160248401528351909283926044909101919085019080838360008315612f63578181015183820152602001612f4b565b50600083858161300157fe5b0495945050505050565b50805460018160011615610100020316600290046000825580601f10613031575061304f565b601f01602090049060005260206000209081019061304f9190613150565b50565b6040518060e001604052806000815260200160008152602001600081526020016060815260200160006001600160a01b0316815260200160008152602001600081525090565b6040518060a001604052806000815260200160006001600160a01b0316815260200160001515815260200160008152602001600081525090565b828054600181600116156101000203166002900490600052602060002090601f016020900481019282601f1061311357805160ff1916838001178555613140565b82800160010185558215613140579182015b82811115613140578251825591602001919060010190613125565b5061314c929150613150565b5090565b61184791905b8082111561314c576000815560010161315656fe536166654d6174683a206d756c7469706c69636174696f6e206f766572666c6f77a265627a7a723158208c7d372b08604bc6fcb7270e67380dd59dd90a2d9734642d9754008d7d04efbb64736f6c63430005110032",
  "source": "pragma solidity ^0.5.17;\n\nimport \"./PLCR/PLCRFactory.sol\";\nimport \"./PLCR/PLCRVoting.sol\";\nimport \"./Parameterizer.sol\";\nimport \"../tokens/GOV.sol\";\n\n\ncontract ParameterizerFactory {\n\n    event NewParameterizer(address creator, address token, address plcr, Parameterizer parameterizer);\n\n    PLCRFactory public plcrFactory;\n    ProxyFactory public proxyFactory;\n    Parameterizer public canonizedParameterizer;\n\n    /// @dev constructor deploys a new canonical Parameterizer contract and a proxyFactory.\n    constructor(PLCRFactory _plcrFactory) public {\n        plcrFactory = _plcrFactory;\n        proxyFactory = plcrFactory.proxyFactory();\n        canonizedParameterizer = new Parameterizer();\n    }\n\n    /*\n    @dev deploys and initializes a new Parameterizer contract that consumes a token at an address\n    supplied by the user.\n    @param _token             an ERC20 token to be consumed by the new Parameterizer contract\n    @param _plcr              a PLCR voting contract to be consumed by the new Parameterizer contract\n    @param _parameters        array of canonical parameters\n    */\n    function newParameterizerBYOToken(\n        GOV _token,\n        uint[] memory _parameters\n    ) public returns (Parameterizer) {\n        PLCRVoting plcr = plcrFactory.newPLCRBYOToken(_token);\n        Parameterizer parameterizer = Parameterizer(proxyFactory.createProxy(address(canonizedParameterizer), \"\"));\n\n        parameterizer.init(\n            address(_token),\n            address(plcr),\n            _parameters\n        );\n        emit NewParameterizer(msg.sender, address(_token), address(plcr), parameterizer);\n        return parameterizer;\n    }\n\n    /*\n    @dev deploys and initializes new GOV, PLCRVoting, and Parameterizer contracts\n    @param _supply            the total number of tokens to mint in the GOV contract\n    @param _name              the name of the new GOV token\n    @param _decimals          the decimal precision to be used in rendering balances in the GOV token\n    @param _symbol            the symbol of the new GOV token\n    @param _parameters        array of canonical parameters\n    */\n    function newParameterizerWithToken(\n        uint _supply,\n        string memory _name,\n        uint8 _decimals,\n        string memory _symbol,\n        uint[] memory _parameters\n    ) public returns (Parameterizer) {\n        // Creates a new GOV token & transfers the supply to creator (msg.sender)\n        // Deploys & initializes a new PLCRVoting contract\n        PLCRVoting plcr = plcrFactory.newPLCRWithToken(_supply, _name, _decimals, _symbol);\n        GOV token = GOV(address(plcr.token()));\n        token.transfer(msg.sender, _supply);\n\n        // Create & initialize a new Parameterizer contract\n        Parameterizer parameterizer = Parameterizer(proxyFactory.createProxy(address(canonizedParameterizer), \"\"));\n        parameterizer.init(\n            address(token),\n            address(plcr),\n            _parameters\n        );\n\n        emit NewParameterizer(msg.sender, address(token), address(plcr), parameterizer);\n        return parameterizer;\n    }\n}\n\n",
  "sourcePath": "/home/cantonioupao/susDAO-saveMe/FIN4Contracts/contracts/tcr/ParameterizerFactory.sol",
  "compiler": {
    "name": "solc",
    "version": "0.5.17+commit.d19bba13.Emscripten.clang"
  },
  "schemaVersion": "3.3.1",
  "updatedAt": "2020-12-03T18:31:09.844Z",
  "devdoc": {
    "methods": {
      "constructor": {
        "details": "constructor deploys a new canonical Parameterizer contract and a proxyFactory."
      }
    }
  },
  "userdoc": {
    "methods": {}
  }
}