{
  "contractName": "Password",
  "abi": [
    {
      "inputs": [],
      "payable": false,
      "stateMutability": "nonpayable",
      "type": "constructor"
    },
    {
      "constant": true,
      "inputs": [
        {
          "internalType": "address",
          "name": "_addr",
          "type": "address"
        }
      ],
      "name": "addressToString",
      "outputs": [
        {
          "internalType": "string",
          "name": "",
          "type": "string"
        }
      ],
      "payable": false,
      "stateMutability": "pure",
      "type": "function"
    },
    {
      "constant": true,
      "inputs": [
        {
          "internalType": "address[]",
          "name": "arr",
          "type": "address[]"
        },
        {
          "internalType": "address",
          "name": "addrToCheck",
          "type": "address"
        }
      ],
      "name": "arrayContainsAddress",
      "outputs": [
        {
          "internalType": "bool",
          "name": "",
          "type": "bool"
        }
      ],
      "payable": false,
      "stateMutability": "pure",
      "type": "function"
    },
    {
      "constant": false,
      "inputs": [
        {
          "internalType": "address",
          "name": "user",
          "type": "address"
        },
        {
          "internalType": "address",
          "name": "tokenAddrToReceiveVerifierNotice",
          "type": "address"
        },
        {
          "internalType": "uint256",
          "name": "claimId",
          "type": "uint256"
        }
      ],
      "name": "autoCheck",
      "outputs": [],
      "payable": false,
      "stateMutability": "nonpayable",
      "type": "function"
    },
    {
      "constant": false,
      "inputs": [
        {
          "internalType": "address",
          "name": "user",
          "type": "address"
        },
        {
          "internalType": "address",
          "name": "tokenAddrToReceiveVerifierNotice",
          "type": "address"
        },
        {
          "internalType": "uint256",
          "name": "claimId",
          "type": "uint256"
        }
      ],
      "name": "autoSubmitProof",
      "outputs": [],
      "payable": false,
      "stateMutability": "nonpayable",
      "type": "function"
    },
    {
      "constant": true,
      "inputs": [],
      "name": "contractName",
      "outputs": [
        {
          "internalType": "string",
          "name": "",
          "type": "string"
        }
      ],
      "payable": false,
      "stateMutability": "view",
      "type": "function"
    },
    {
      "constant": true,
      "inputs": [],
      "name": "description",
      "outputs": [
        {
          "internalType": "string",
          "name": "",
          "type": "string"
        }
      ],
      "payable": false,
      "stateMutability": "view",
      "type": "function"
    },
    {
      "constant": true,
      "inputs": [
        {
          "internalType": "address",
          "name": "tokenAddress",
          "type": "address"
        }
      ],
      "name": "getCreatorOfToken",
      "outputs": [
        {
          "internalType": "address",
          "name": "",
          "type": "address"
        }
      ],
      "payable": false,
      "stateMutability": "view",
      "type": "function"
    },
    {
      "constant": true,
      "inputs": [],
      "name": "getDescription",
      "outputs": [
        {
          "internalType": "string",
          "name": "",
          "type": "string"
        }
      ],
      "payable": false,
      "stateMutability": "view",
      "type": "function"
    },
    {
      "constant": true,
      "inputs": [],
      "name": "getInfo",
      "outputs": [
        {
          "internalType": "string",
          "name": "",
          "type": "string"
        },
        {
          "internalType": "string",
          "name": "",
          "type": "string"
        },
        {
          "internalType": "string",
          "name": "",
          "type": "string"
        },
        {
          "internalType": "string",
          "name": "",
          "type": "string"
        }
      ],
      "payable": false,
      "stateMutability": "view",
      "type": "function"
    },
    {
      "constant": true,
      "inputs": [],
      "name": "getName",
      "outputs": [
        {
          "internalType": "string",
          "name": "",
          "type": "string"
        }
      ],
      "payable": false,
      "stateMutability": "view",
      "type": "function"
    },
    {
      "constant": true,
      "inputs": [],
      "name": "isAutoCheckable",
      "outputs": [
        {
          "internalType": "bool",
          "name": "",
          "type": "bool"
        }
      ],
      "payable": false,
      "stateMutability": "view",
      "type": "function"
    },
    {
      "constant": true,
      "inputs": [],
      "name": "isAutoInitiable",
      "outputs": [
        {
          "internalType": "bool",
          "name": "",
          "type": "bool"
        }
      ],
      "payable": false,
      "stateMutability": "view",
      "type": "function"
    },
    {
      "constant": true,
      "inputs": [],
      "name": "name",
      "outputs": [
        {
          "internalType": "string",
          "name": "",
          "type": "string"
        }
      ],
      "payable": false,
      "stateMutability": "view",
      "type": "function"
    },
    {
      "constant": false,
      "inputs": [
        {
          "internalType": "string",
          "name": "_contractName",
          "type": "string"
        }
      ],
      "name": "setContractName",
      "outputs": [],
      "payable": false,
      "stateMutability": "nonpayable",
      "type": "function"
    },
    {
      "constant": false,
      "inputs": [
        {
          "internalType": "address",
          "name": "tokenAddrToReceiveVerifierNotice",
          "type": "address"
        },
        {
          "internalType": "uint256",
          "name": "claimId",
          "type": "uint256"
        },
        {
          "internalType": "string",
          "name": "password",
          "type": "string"
        }
      ],
      "name": "submitProof_Password",
      "outputs": [],
      "payable": false,
      "stateMutability": "nonpayable",
      "type": "function"
    },
    {
      "constant": true,
      "inputs": [],
      "name": "getParameterForTokenCreatorToSetEncoded",
      "outputs": [
        {
          "internalType": "string",
          "name": "",
          "type": "string"
        }
      ],
      "payable": false,
      "stateMutability": "pure",
      "type": "function"
    },
    {
      "constant": false,
      "inputs": [
        {
          "internalType": "address",
          "name": "token",
          "type": "address"
        },
        {
          "internalType": "string",
          "name": "password",
          "type": "string"
        }
      ],
      "name": "setParameters",
      "outputs": [],
      "payable": false,
      "stateMutability": "nonpayable",
      "type": "function"
    }
  ],
  "bytecode": "0x60806040526003805461ffff191690553480156200001c57600080fd5b506040805180820190915260198082527f73632e76657269666965722e70617373776f72642e6e616d650000000000000060209092019182526200006391600191620000af565b506040805180820190915260208082527f73632e76657269666965722e70617373776f72642e6465736372697074696f6e918101918252620000a891600291620000af565b5062000154565b828054600181600116156101000203166002900490600052602060002090601f016020900481019282601f10620000f257805160ff191683800117855562000122565b8280016001018555821562000122579182015b828111156200012257825182559160200191906001019062000105565b506200013092915062000134565b5090565b6200015191905b808211156200013057600081556001016200013b565b90565b6114ff80620001646000396000f3fe608060405234801561001057600080fd5b506004361061010b5760003560e01c80636c71d542116100a2578063954c244711610071578063954c24471461053d578063ae18e0a5146105f1578063c05ebcc514610627578063d47de16b1461062f578063ffc5daef146105f15761010b565b80636c71d542146104795780637284e4161461048157806375d0c0dc146104895780639259360c146104915761010b565b806336790932116100de57806336790932146102435780634d1a1d5d146102855780635a9b0b89146102a15780635e57966d146104535761010b565b806306fdde03146101105780630b5ee0061461018d57806317d7de7c146102335780631a0925411461023b575b600080fd5b6101186106e8565b6040805160208082528351818301528351919283929083019185019080838360005b8381101561015257818101518382015260200161013a565b50505050905090810190601f16801561017f5780820380516001836020036101000a031916815260200191505b509250505060405180910390f35b610231600480360360208110156101a357600080fd5b810190602081018135600160201b8111156101bd57600080fd5b8201836020820111156101cf57600080fd5b803590602001918460018302840111600160201b831117156101f057600080fd5b91908080601f016020809104026020016040519081016040528093929190818152602001838380828437600092019190915250929550610775945050505050565b005b61011861078c565b610118610822565b6102696004803603602081101561025957600080fd5b50356001600160a01b0316610880565b604080516001600160a01b039092168252519081900360200190f35b61028d6108ed565b604080519115158252519081900360200190f35b6102a96108fb565b6040518080602001806020018060200180602001858103855289818151815260200191508051906020019080838360005b838110156102f25781810151838201526020016102da565b50505050905090810190601f16801561031f5780820380516001836020036101000a031916815260200191505b5085810384528851815288516020918201918a019080838360005b8381101561035257818101518382015260200161033a565b50505050905090810190601f16801561037f5780820380516001836020036101000a031916815260200191505b50858103835287518152875160209182019189019080838360005b838110156103b257818101518382015260200161039a565b50505050905090810190601f1680156103df5780820380516001836020036101000a031916815260200191505b50858103825286518152865160209182019188019080838360005b838110156104125781810151838201526020016103fa565b50505050905090810190601f16801561043f5780820380516001836020036101000a031916815260200191505b509850505050505050505060405180910390f35b6101186004803603602081101561046957600080fd5b50356001600160a01b0316610ac6565b610118610c42565b610118610c62565b610118610cba565b61028d600480360360408110156104a757600080fd5b810190602081018135600160201b8111156104c157600080fd5b8201836020820111156104d357600080fd5b803590602001918460208302840111600160201b831117156104f457600080fd5b919080806020026020016040519081016040528093929190818152602001838360200280828437600092019190915250929550505090356001600160a01b03169150610d159050565b6102316004803603604081101561055357600080fd5b6001600160a01b038235169190810190604081016020820135600160201b81111561057d57600080fd5b82018360208201111561058f57600080fd5b803590602001918460018302840111600160201b831117156105b057600080fd5b91908080601f016020809104026020016040519081016040528093929190818152602001838380828437600092019190915250929550610d6d945050505050565b6102316004803603606081101561060757600080fd5b506001600160a01b03813581169160208101359091169060400135610d96565b61028d610d9b565b6102316004803603606081101561064557600080fd5b6001600160a01b0382351691602081013591810190606081016040820135600160201b81111561067457600080fd5b82018360208201111561068657600080fd5b803590602001918460018302840111600160201b831117156106a757600080fd5b91908080601f016020809104026020016040519081016040528093929190818152602001838380828437600092019190915250929550610da4945050505050565b60018054604080516020600284861615610100026000190190941693909304601f8101849004840282018401909252818152929183018282801561076d5780601f106107425761010080835404028352916020019161076d565b820191906000526020600020905b81548152906001019060200180831161075057829003601f168201915b505050505081565b8051610788906000906020840190611391565b5050565b60018054604080516020601f600260001961010087891615020190951694909404938401819004810282018101909252828152606093909290918301828280156108175780601f106107ec57610100808354040283529160200191610817565b820191906000526020600020905b8154815290600101906020018083116107fa57829003601f168201915b505050505090505b90565b60028054604080516020601f60001961010060018716150201909416859004938401819004810282018101909252828152606093909290918301828280156108175780601f106107ec57610100808354040283529160200191610817565b6000816001600160a01b0316639c6790176040518163ffffffff1660e01b815260040160206040518083038186803b1580156108bb57600080fd5b505afa1580156108cf573d6000803e3d6000fd5b505050506040513d60208110156108e557600080fd5b505192915050565b600354610100900460ff1681565b60608060608060006001600261090f610c42565b8354604080516020601f600260001961010060018816150201909516949094049384018190048102820181019092528281529186918301828280156109955780601f1061096a57610100808354040283529160200191610995565b820191906000526020600020905b81548152906001019060200180831161097857829003601f168201915b5050865460408051602060026001851615610100026000190190941693909304601f810184900484028201840190925281815295995088945092508401905082828015610a235780601f106109f857610100808354040283529160200191610a23565b820191906000526020600020905b815481529060010190602001808311610a0657829003601f168201915b5050855460408051602060026001851615610100026000190190941693909304601f810184900484028201840190925281815295985087945092508401905082828015610ab15780601f10610a8657610100808354040283529160200191610ab1565b820191906000526020600020905b815481529060010190602001808311610a9457829003601f168201915b50505050509150935093509350935090919293565b604080518082018252601081526f181899199a1a9b1b9c1cb0b131b232b360811b60208201528151602a80825260608281019094526001600160a01b03851692918491602082018180388339019050509050600360fc1b81600081518110610b2a57fe5b60200101906001600160f81b031916908160001a905350600f60fb1b81600181518110610b5357fe5b60200101906001600160f81b031916908160001a90535060005b6014811015610c39578260048583600c0160208110610b8857fe5b1a60f81b6001600160f81b031916901c60f81c60ff1681518110610ba857fe5b602001015160f81c60f81b828260020260020181518110610bc557fe5b60200101906001600160f81b031916908160001a905350828482600c0160208110610bec57fe5b825191901a600f16908110610bfd57fe5b602001015160f81c60f81b828260020260030181518110610c1a57fe5b60200101906001600160f81b031916908160001a905350600101610b6d565b50949350505050565b606060405180606001604052806023815260200161142a60239139905090565b6002805460408051602060018416156101000260001901909316849004601f8101849004840282018401909252818152929183018282801561076d5780601f106107425761010080835404028352916020019161076d565b6000805460408051602060026001851615610100026000190190941693909304601f8101849004840282018401909252818152929183018282801561076d5780601f106107425761010080835404028352916020019161076d565b6000805b8351811015610d6157826001600160a01b0316848281518110610d3857fe5b60200260200101516001600160a01b03161415610d59576001915050610d67565b600101610d19565b50600090505b92915050565b6001600160a01b03821660009081526004602090815260409091208251610d9692840190611391565b505050565b60035460ff1681565b610dad83611083565b6040516020018082805190602001908083835b60208310610ddf5780518252601f199092019160209182019101610dc0565b6001836020036101000a03801982511681845116808217855250505050505090500191505060405160208183030381529060405280519060200120816040516020018082805190602001908083835b60208310610e4d5780518252601f199092019160209182019101610e2e565b6001836020036101000a038019825116818451168082178552505050505050905001915050604051602081830303815290604052805190602001201415610eae57610ea93084846040518060200160405280600081525061112e565b610d96565b6060836001600160a01b03166306fdde036040518163ffffffff1660e01b815260040160006040518083038186803b158015610ee957600080fd5b505afa158015610efd573d6000803e3d6000fd5b505050506040513d6000823e601f3d908101601f191682016040526020811015610f2657600080fd5b8101908080516040519392919084600160201b821115610f4557600080fd5b908301906020820185811115610f5a57600080fd5b8251600160201b811182820188101715610f7357600080fd5b82525081516020918201929091019080838360005b83811015610fa0578181015183820152602001610f88565b50505050905090810190601f168015610fcd5780820380516001836020036101000a031916815260200191505b50604052505050604051602001808074596f757220636c61696d206f6e20746f6b656e202760581b81525060150182805190602001908083835b602083106110265780518252601f199092019160209182019101611007565b6001836020036101000a0380198251168184511680821785525050505050509050018061148660459139604501603961144d8239603901915050604051602081830303815290604052905061107d30858584611221565b50505050565b6001600160a01b03811660009081526004602090815260409182902080548351601f60026000196101006001861615020190931692909204918201849004840281018401909452808452606093928301828280156111225780601f106110f757610100808354040283529160200191611122565b820191906000526020600020905b81548152906001019060200180831161110557829003601f168201915b50505050509050919050565b61113883836112a7565b50826001600160a01b031663bdc656e98584846040518463ffffffff1660e01b815260040180846001600160a01b03166001600160a01b0316815260200183815260200180602001828103825283818151815260200191508051906020019080838360005b838110156111b557818101518382015260200161119d565b50505050905090810190601f1680156111e25780820380516001836020036101000a031916815260200191505b50945050505050600060405180830381600087803b15801561120357600080fd5b505af1158015611217573d6000803e3d6000fd5b5050505050505050565b61122b83836112a7565b50826001600160a01b0316637c41e5d88584846040518463ffffffff1660e01b815260040180846001600160a01b03166001600160a01b031681526020018381526020018060200182810382528381815181526020019150805190602001908083836000838110156111b557818101518382015260200161119d565b6040805162379c0960e91b815230600482015260248101839052905160009182916001600160a01b03861691636f38120091604480830192602092919082900301818787803b1580156112f957600080fd5b505af115801561130d573d6000803e3d6000fd5b505050506040513d602081101561132357600080fd5b5051905060028114801590611339575080600314155b61138a576040805162461bcd60e51b815260206004820181905260248201527f5468697320766572696669657220697320616c72656164792064656369646564604482015290519081900360640190fd5b5092915050565b828054600181600116156101000203166002900490600052602060002090601f016020900481019282601f106113d257805160ff19168380011785556113ff565b828001600101855582156113ff579182015b828111156113ff5782518255916020019190600101906113e4565b5061140b92915061140f565b5090565b61081f91905b8082111561140b576000815560010161141556fe737472696e673a70617373776f72643a616c7068616e756d6572696320737472696e672070726f766964656420646f6573206e6f74206d6174636820746865206f6e65207365742062792074686520746f6b656e2063726561746f722720676f742072656a65637465642066726f6d2076657269666965722074797065202750617373776f7264272062656361757365207468652070617373776f726420796f75a265627a7a72315820f2ad3c4de370496849784cb392812f0720af04016acb5768c20e9220db3f07f864736f6c63430005110032",
  "source": "pragma solidity ^0.5.17;\n\nimport \"contracts/verifiers/Fin4BaseVerifierType.sol\";\n\ncontract Password is Fin4BaseVerifierType {\n\n    constructor() public  {\n        name = \"sc.verifier.password.name\";\n        description = \"sc.verifier.password.description\";\n    }\n\n    function submitProof_Password(address tokenAddrToReceiveVerifierNotice, uint claimId, string memory password) public {\n        // via https://ethereum.stackexchange.com/a/30914\n        if (keccak256(abi.encodePacked((password))) == keccak256(abi.encodePacked((_getPassword(tokenAddrToReceiveVerifierNotice))))) {\n            _sendApprovalNotice(address(this), tokenAddrToReceiveVerifierNotice, claimId, \"\");\n        } else {\n            string memory message = string(abi.encodePacked(\n                \"Your claim on token \\'\",\n                Fin4TokenStub(tokenAddrToReceiveVerifierNotice).name(),\n                \"\\' got rejected from verifier type \\'Password\\' because the password you\",\n                \" provided does not match the one set by the token creator\"));\n            _sendRejectionNotice(address(this), tokenAddrToReceiveVerifierNotice, claimId, message);\n        }\n    }\n\n    // @Override\n    function getParameterForTokenCreatorToSetEncoded() public pure returns(string memory) {\n        return \"string:password:alphanumeric string\";\n    }\n\n    mapping (address => string) private tokenToParameter;\n\n    function setParameters(address token, string memory password) public {\n        tokenToParameter[token] = password;\n    }\n\n    function _getPassword(address token) private view returns(string memory) {\n        // TODO this must not be visible to someone using truffle console or similar!\n        // Use a salt additionally? Or encrypt it with itself? Only possible with numbers (as done in TCR?) #ConceptualDecision\n        return tokenToParameter[token];\n    }\n\n}\n",
  "sourcePath": "/home/cantonioupao/susDAO-saveMe/FIN4Contracts/contracts/verifiers/onchain/interactive/Password.sol",
  "compiler": {
    "name": "solc",
    "version": "0.5.17+commit.d19bba13.Emscripten.clang"
  },
  "schemaVersion": "3.3.1",
  "updatedAt": "2020-12-03T18:27:59.000Z",
  "devdoc": {
    "methods": {}
  },
  "userdoc": {
    "methods": {}
  }
}