{
  "contractName": "PictureVoting",
  "abi": [
    {
      "inputs": [],
      "payable": false,
      "stateMutability": "nonpayable",
      "type": "constructor"
    },
    {
      "constant": true,
      "inputs": [],
      "name": "Fin4MessagingAddress",
      "outputs": [
        {
          "internalType": "address",
          "name": "",
          "type": "address"
        }
      ],
      "payable": false,
      "stateMutability": "view",
      "type": "function"
    },
    {
      "constant": true,
      "inputs": [],
      "name": "Fin4ReputationAddress",
      "outputs": [
        {
          "internalType": "address",
          "name": "",
          "type": "address"
        }
      ],
      "payable": false,
      "stateMutability": "view",
      "type": "function"
    },
    {
      "constant": true,
      "inputs": [],
      "name": "Fin4SystemParametersAddress",
      "outputs": [
        {
          "internalType": "address",
          "name": "",
          "type": "address"
        }
      ],
      "payable": false,
      "stateMutability": "view",
      "type": "function"
    },
    {
      "constant": true,
      "inputs": [],
      "name": "Fin4VotingAddress",
      "outputs": [
        {
          "internalType": "address",
          "name": "",
          "type": "address"
        }
      ],
      "payable": false,
      "stateMutability": "view",
      "type": "function"
    },
    {
      "constant": true,
      "inputs": [
        {
          "internalType": "address",
          "name": "token",
          "type": "address"
        }
      ],
      "name": "_getNbUsers",
      "outputs": [
        {
          "internalType": "uint256",
          "name": "",
          "type": "uint256"
        }
      ],
      "payable": false,
      "stateMutability": "view",
      "type": "function"
    },
    {
      "constant": true,
      "inputs": [
        {
          "internalType": "address",
          "name": "token",
          "type": "address"
        }
      ],
      "name": "_getTimeInMinutes",
      "outputs": [
        {
          "internalType": "uint256",
          "name": "",
          "type": "uint256"
        }
      ],
      "payable": false,
      "stateMutability": "view",
      "type": "function"
    },
    {
      "constant": true,
      "inputs": [
        {
          "internalType": "address",
          "name": "_addr",
          "type": "address"
        }
      ],
      "name": "addressToString",
      "outputs": [
        {
          "internalType": "string",
          "name": "",
          "type": "string"
        }
      ],
      "payable": false,
      "stateMutability": "pure",
      "type": "function"
    },
    {
      "constant": true,
      "inputs": [
        {
          "internalType": "address[]",
          "name": "arr",
          "type": "address[]"
        },
        {
          "internalType": "address",
          "name": "addrToCheck",
          "type": "address"
        }
      ],
      "name": "arrayContainsAddress",
      "outputs": [
        {
          "internalType": "bool",
          "name": "",
          "type": "bool"
        }
      ],
      "payable": false,
      "stateMutability": "pure",
      "type": "function"
    },
    {
      "constant": false,
      "inputs": [
        {
          "internalType": "address",
          "name": "user",
          "type": "address"
        },
        {
          "internalType": "address",
          "name": "tokenAddrToReceiveVerifierNotice",
          "type": "address"
        },
        {
          "internalType": "uint256",
          "name": "claimId",
          "type": "uint256"
        }
      ],
      "name": "autoCheck",
      "outputs": [],
      "payable": false,
      "stateMutability": "nonpayable",
      "type": "function"
    },
    {
      "constant": false,
      "inputs": [
        {
          "internalType": "address",
          "name": "user",
          "type": "address"
        },
        {
          "internalType": "address",
          "name": "tokenAddrToReceiveVerifierNotice",
          "type": "address"
        },
        {
          "internalType": "uint256",
          "name": "claimId",
          "type": "uint256"
        }
      ],
      "name": "autoSubmitProof",
      "outputs": [],
      "payable": false,
      "stateMutability": "nonpayable",
      "type": "function"
    },
    {
      "constant": true,
      "inputs": [],
      "name": "contractName",
      "outputs": [
        {
          "internalType": "string",
          "name": "",
          "type": "string"
        }
      ],
      "payable": false,
      "stateMutability": "view",
      "type": "function"
    },
    {
      "constant": true,
      "inputs": [],
      "name": "creator",
      "outputs": [
        {
          "internalType": "address",
          "name": "",
          "type": "address"
        }
      ],
      "payable": false,
      "stateMutability": "view",
      "type": "function"
    },
    {
      "constant": true,
      "inputs": [],
      "name": "description",
      "outputs": [
        {
          "internalType": "string",
          "name": "",
          "type": "string"
        }
      ],
      "payable": false,
      "stateMutability": "view",
      "type": "function"
    },
    {
      "constant": false,
      "inputs": [
        {
          "internalType": "uint256",
          "name": "claimId",
          "type": "uint256"
        }
      ],
      "name": "endVote",
      "outputs": [],
      "payable": false,
      "stateMutability": "nonpayable",
      "type": "function"
    },
    {
      "constant": true,
      "inputs": [
        {
          "internalType": "uint256",
          "name": "claimId",
          "type": "uint256"
        }
      ],
      "name": "endVotePossible",
      "outputs": [
        {
          "internalType": "bool",
          "name": "",
          "type": "bool"
        }
      ],
      "payable": false,
      "stateMutability": "view",
      "type": "function"
    },
    {
      "constant": true,
      "inputs": [
        {
          "internalType": "address",
          "name": "tokenAddress",
          "type": "address"
        }
      ],
      "name": "getCreatorOfToken",
      "outputs": [
        {
          "internalType": "address",
          "name": "",
          "type": "address"
        }
      ],
      "payable": false,
      "stateMutability": "view",
      "type": "function"
    },
    {
      "constant": true,
      "inputs": [],
      "name": "getDescription",
      "outputs": [
        {
          "internalType": "string",
          "name": "",
          "type": "string"
        }
      ],
      "payable": false,
      "stateMutability": "view",
      "type": "function"
    },
    {
      "constant": true,
      "inputs": [
        {
          "internalType": "address[]",
          "name": "voters",
          "type": "address[]"
        },
        {
          "internalType": "address",
          "name": "member",
          "type": "address"
        }
      ],
      "name": "getIndexOf",
      "outputs": [
        {
          "internalType": "uint256",
          "name": "",
          "type": "uint256"
        }
      ],
      "payable": false,
      "stateMutability": "pure",
      "type": "function"
    },
    {
      "constant": true,
      "inputs": [],
      "name": "getInfo",
      "outputs": [
        {
          "internalType": "string",
          "name": "",
          "type": "string"
        },
        {
          "internalType": "string",
          "name": "",
          "type": "string"
        },
        {
          "internalType": "string",
          "name": "",
          "type": "string"
        },
        {
          "internalType": "string",
          "name": "",
          "type": "string"
        }
      ],
      "payable": false,
      "stateMutability": "view",
      "type": "function"
    },
    {
      "constant": true,
      "inputs": [],
      "name": "getName",
      "outputs": [
        {
          "internalType": "string",
          "name": "",
          "type": "string"
        }
      ],
      "payable": false,
      "stateMutability": "view",
      "type": "function"
    },
    {
      "constant": true,
      "inputs": [],
      "name": "getParameterForTokenCreatorToSetEncoded",
      "outputs": [
        {
          "internalType": "string",
          "name": "",
          "type": "string"
        }
      ],
      "payable": false,
      "stateMutability": "pure",
      "type": "function"
    },
    {
      "constant": true,
      "inputs": [],
      "name": "isAutoCheckable",
      "outputs": [
        {
          "internalType": "bool",
          "name": "",
          "type": "bool"
        }
      ],
      "payable": false,
      "stateMutability": "view",
      "type": "function"
    },
    {
      "constant": true,
      "inputs": [],
      "name": "isAutoInitiable",
      "outputs": [
        {
          "internalType": "bool",
          "name": "",
          "type": "bool"
        }
      ],
      "payable": false,
      "stateMutability": "view",
      "type": "function"
    },
    {
      "constant": false,
      "inputs": [
        {
          "internalType": "uint256",
          "name": "claimId",
          "type": "uint256"
        },
        {
          "internalType": "uint256",
          "name": "index",
          "type": "uint256"
        }
      ],
      "name": "markMessageAsRead",
      "outputs": [],
      "payable": false,
      "stateMutability": "nonpayable",
      "type": "function"
    },
    {
      "constant": false,
      "inputs": [
        {
          "internalType": "uint256",
          "name": "claimId",
          "type": "uint256"
        }
      ],
      "name": "markMessagesAsRead",
      "outputs": [],
      "payable": false,
      "stateMutability": "nonpayable",
      "type": "function"
    },
    {
      "constant": true,
      "inputs": [],
      "name": "name",
      "outputs": [
        {
          "internalType": "string",
          "name": "",
          "type": "string"
        }
      ],
      "payable": false,
      "stateMutability": "view",
      "type": "function"
    },
    {
      "constant": true,
      "inputs": [],
      "name": "nextclaimId",
      "outputs": [
        {
          "internalType": "uint256",
          "name": "",
          "type": "uint256"
        }
      ],
      "payable": false,
      "stateMutability": "view",
      "type": "function"
    },
    {
      "constant": true,
      "inputs": [
        {
          "internalType": "uint256",
          "name": "",
          "type": "uint256"
        }
      ],
      "name": "pendingApprovals",
      "outputs": [
        {
          "internalType": "uint256",
          "name": "claimId",
          "type": "uint256"
        },
        {
          "internalType": "address",
          "name": "tokenAddrToReceiveVerifierNotice",
          "type": "address"
        },
        {
          "internalType": "uint256",
          "name": "claimIdOnTokenToReceiveVerifierDecision",
          "type": "uint256"
        },
        {
          "internalType": "address",
          "name": "requester",
          "type": "address"
        },
        {
          "internalType": "uint256",
          "name": "start",
          "type": "uint256"
        },
        {
          "internalType": "bool",
          "name": "isIndividualApprover",
          "type": "bool"
        },
        {
          "internalType": "uint256",
          "name": "approverGroupId",
          "type": "uint256"
        },
        {
          "internalType": "string",
          "name": "attachment",
          "type": "string"
        },
        {
          "internalType": "uint256",
          "name": "nbApproved",
          "type": "uint256"
        },
        {
          "internalType": "uint256",
          "name": "nbRejected",
          "type": "uint256"
        },
        {
          "internalType": "bool",
          "name": "isApproved",
          "type": "bool"
        },
        {
          "internalType": "uint256",
          "name": "linkedWithclaimId",
          "type": "uint256"
        }
      ],
      "payable": false,
      "stateMutability": "view",
      "type": "function"
    },
    {
      "constant": false,
      "inputs": [
        {
          "internalType": "uint256",
          "name": "claimId",
          "type": "uint256"
        },
        {
          "internalType": "string",
          "name": "attachedMessage",
          "type": "string"
        }
      ],
      "name": "receiveApproval",
      "outputs": [],
      "payable": false,
      "stateMutability": "nonpayable",
      "type": "function"
    },
    {
      "constant": false,
      "inputs": [
        {
          "internalType": "uint256",
          "name": "claimId",
          "type": "uint256"
        },
        {
          "internalType": "string",
          "name": "attachedMessage",
          "type": "string"
        }
      ],
      "name": "receiveRejection",
      "outputs": [],
      "payable": false,
      "stateMutability": "nonpayable",
      "type": "function"
    },
    {
      "constant": false,
      "inputs": [
        {
          "internalType": "string",
          "name": "_contractName",
          "type": "string"
        }
      ],
      "name": "setContractName",
      "outputs": [],
      "payable": false,
      "stateMutability": "nonpayable",
      "type": "function"
    },
    {
      "constant": false,
      "inputs": [
        {
          "internalType": "address",
          "name": "Fin4MessagingAddr",
          "type": "address"
        }
      ],
      "name": "setFin4MessagingAddress",
      "outputs": [],
      "payable": false,
      "stateMutability": "nonpayable",
      "type": "function"
    },
    {
      "constant": false,
      "inputs": [
        {
          "internalType": "address",
          "name": "Fin4ReputationAddr",
          "type": "address"
        }
      ],
      "name": "setFin4ReputationAddress",
      "outputs": [],
      "payable": false,
      "stateMutability": "nonpayable",
      "type": "function"
    },
    {
      "constant": false,
      "inputs": [
        {
          "internalType": "address",
          "name": "SystemParametersAddr",
          "type": "address"
        }
      ],
      "name": "setFin4SystemParametersAddress",
      "outputs": [],
      "payable": false,
      "stateMutability": "nonpayable",
      "type": "function"
    },
    {
      "constant": false,
      "inputs": [
        {
          "internalType": "address",
          "name": "VotingAddr",
          "type": "address"
        }
      ],
      "name": "setFin4VotingAddress",
      "outputs": [],
      "payable": false,
      "stateMutability": "nonpayable",
      "type": "function"
    },
    {
      "constant": false,
      "inputs": [
        {
          "internalType": "address",
          "name": "token",
          "type": "address"
        },
        {
          "internalType": "uint256",
          "name": "nbUsers",
          "type": "uint256"
        },
        {
          "internalType": "uint256",
          "name": "timeInMinutes",
          "type": "uint256"
        }
      ],
      "name": "setParameters",
      "outputs": [],
      "payable": false,
      "stateMutability": "nonpayable",
      "type": "function"
    },
    {
      "constant": false,
      "inputs": [
        {
          "internalType": "address",
          "name": "tokenAddrToReceiveVerifierNotice",
          "type": "address"
        },
        {
          "internalType": "uint256",
          "name": "claimId",
          "type": "uint256"
        },
        {
          "internalType": "string",
          "name": "IPFShash",
          "type": "string"
        }
      ],
      "name": "submitProof_LimitedVoting",
      "outputs": [],
      "payable": false,
      "stateMutability": "nonpayable",
      "type": "function"
    },
    {
      "constant": true,
      "inputs": [
        {
          "internalType": "address",
          "name": "",
          "type": "address"
        }
      ],
      "name": "tokenToParameter",
      "outputs": [
        {
          "internalType": "uint256",
          "name": "",
          "type": "uint256"
        }
      ],
      "payable": false,
      "stateMutability": "view",
      "type": "function"
    },
    {
      "constant": true,
      "inputs": [
        {
          "internalType": "address",
          "name": "",
          "type": "address"
        }
      ],
      "name": "tokenToParameterTime",
      "outputs": [
        {
          "internalType": "uint256",
          "name": "",
          "type": "uint256"
        }
      ],
      "payable": false,
      "stateMutability": "view",
      "type": "function"
    },
    {
      "constant": false,
      "inputs": [],
      "name": "init",
      "outputs": [],
      "payable": false,
      "stateMutability": "nonpayable",
      "type": "function"
    },
    {
      "constant": false,
      "inputs": [
        {
          "internalType": "address",
          "name": "tokenAddrToReceiveVerifierNotice",
          "type": "address"
        },
        {
          "internalType": "uint256",
          "name": "claimId",
          "type": "uint256"
        },
        {
          "internalType": "string",
          "name": "IPFShash",
          "type": "string"
        }
      ],
      "name": "submitProof_PictureVoting",
      "outputs": [],
      "payable": false,
      "stateMutability": "nonpayable",
      "type": "function"
    },
    {
      "constant": true,
      "inputs": [],
      "name": "getMessageText",
      "outputs": [
        {
          "internalType": "string",
          "name": "",
          "type": "string"
        }
      ],
      "payable": false,
      "stateMutability": "pure",
      "type": "function"
    }
  ],
  "bytecode": "0x60806040526003805461ffff1916905560006008553480156200002157600080fd5b506003805462010000600160b01b031916336201000002179055620000456200004b565b6200015a565b60408051808201909152600d8082526c50696374757265566f74696e6760981b60209092019182526200008191600191620000b5565b5060405180608001604052806058815260200162004910605891398051620000b291600291602090910190620000b5565b50565b828054600181600116156101000203166002900490600052602060002090601f016020900481019282601f10620000f857805160ff191683800117855562000128565b8280016001018555821562000128579182015b82811115620001285782518255916020019190600101906200010b565b50620001369291506200013a565b5090565b6200015791905b8082111562000136576000815560010162000141565b90565b6147a6806200016a6000396000f3fe608060405234801561001057600080fd5b506004361061025d5760003560e01c80637f1a5c2011610146578063be1f37e4116100c3578063cce6e21511610087578063cce6e21514610bdb578063e1c7392a14610c01578063e4ad4acd14610c09578063eb92f76a14610c11578063f9d8f4c714610cbc578063ffc5daef14610b235761025d565b8063be1f37e414610b59578063c05ebcc514610b7f578063c493a69414610b87578063c646529c14610bad578063ca0b4a0414610bd35761025d565b80639e9be9171161010a5780639e9be91714610a2e578063a418c51314610a51578063a49ef75014610262578063acb72bb114610a77578063ae18e0a514610b235761025d565b80637f1a5c201461092f578063865df0ad146109375780638bbfc6eb146109545780639259360c1461097a5780639d4e4acb14610a265761025d565b806331d8785e116101df578063686b656e116101a3578063686b656e146107cf5780636c71d542146108dd5780637284e416146108e557806375d0c0dc146108ed5780637720e378146108f55780637947f965146108fd5761025d565b806331d8785e146105ac57806336790932146105c95780634d1a1d5d146105ef5780635a9b0b89146105f75780635e57966d146107a95761025d565b80630b5ee006116102265780630b5ee0061461041c57806317d7de7c146104c05780631a092541146104c857806324b4de26146104d0578063304f88ac1461057b5761025d565b8062e762931461026257806302d05d3f1461031d57806306fdde031461034157806308b62990146103be5780630abac0d8146103f6575b600080fd5b61031b6004803603606081101561027857600080fd5b6001600160a01b0382351691602081013591810190606081016040820135600160201b8111156102a757600080fd5b8201836020820111156102b957600080fd5b803590602001918460018302840111600160201b831117156102da57600080fd5b91908080601f016020809104026020016040519081016040528093929190818152602001838380828437600092019190915250929550610cc4945050505050565b005b610325610cd7565b604080516001600160a01b039092168252519081900360200190f35b610349610cec565b6040805160208082528351818301528351919283929083019185019080838360005b8381101561038357818101518382015260200161036b565b50505050905090810190601f1680156103b05780820380516001836020036101000a031916815260200191505b509250505060405180910390f35b6103e4600480360360208110156103d457600080fd5b50356001600160a01b0316610d79565b60408051918252519081900360200190f35b6103e46004803603602081101561040c57600080fd5b50356001600160a01b0316610d8b565b61031b6004803603602081101561043257600080fd5b810190602081018135600160201b81111561044c57600080fd5b82018360208201111561045e57600080fd5b803590602001918460018302840111600160201b8311171561047f57600080fd5b91908080601f016020809104026020016040519081016040528093929190818152602001838380828437600092019190915250929550610daa945050505050565b610349610dc1565b610349610e57565b61031b600480360360408110156104e657600080fd5b81359190810190604081016020820135600160201b81111561050757600080fd5b82018360208201111561051957600080fd5b803590602001918460018302840111600160201b8311171561053a57600080fd5b91908080601f016020809104026020016040519081016040528093929190818152602001838380828437600092019190915250929550610eb5945050505050565b6105986004803603602081101561059157600080fd5b50356116b5565b604080519115158252519081900360200190f35b61031b600480360360208110156105c257600080fd5b50356119f7565b610325600480360360208110156105df57600080fd5b50356001600160a01b0316611dd4565b610598611e41565b6105ff611e4f565b6040518080602001806020018060200180602001858103855289818151815260200191508051906020019080838360005b83811015610648578181015183820152602001610630565b50505050905090810190601f1680156106755780820380516001836020036101000a031916815260200191505b5085810384528851815288516020918201918a019080838360005b838110156106a8578181015183820152602001610690565b50505050905090810190601f1680156106d55780820380516001836020036101000a031916815260200191505b50858103835287518152875160209182019189019080838360005b838110156107085781810151838201526020016106f0565b50505050905090810190601f1680156107355780820380516001836020036101000a031916815260200191505b50858103825286518152865160209182019188019080838360005b83811015610768578181015183820152602001610750565b50505050905090810190601f1680156107955780820380516001836020036101000a031916815260200191505b509850505050505050505060405180910390f35b610349600480360360208110156107bf57600080fd5b50356001600160a01b031661201a565b6107ec600480360360208110156107e557600080fd5b5035612196565b604051808d81526020018c6001600160a01b03166001600160a01b031681526020018b81526020018a6001600160a01b03166001600160a01b03168152602001898152602001881515151581526020018781526020018060200186815260200185815260200184151515158152602001838152602001828103825287818151815260200191508051906020019080838360005b8381101561089757818101518382015260200161087f565b50505050905090810190601f1680156108c45780820380516001836020036101000a031916815260200191505b509d505050505050505050505050505060405180910390f35b610349612297565b6103496122b7565b61034961230f565b61032561236a565b61031b6004803603606081101561091357600080fd5b506001600160a01b038135169060208101359060400135612379565b6103496123a1565b61031b6004803603602081101561094d57600080fd5b50356123c1565b61031b6004803603602081101561096a57600080fd5b50356001600160a01b0316612781565b6105986004803603604081101561099057600080fd5b810190602081018135600160201b8111156109aa57600080fd5b8201836020820111156109bc57600080fd5b803590602001918460208302840111600160201b831117156109dd57600080fd5b919080806020026020016040519081016040528093929190818152602001838360200280828437600092019190915250929550505090356001600160a01b031691506127a39050565b6103256127fb565b61031b60048036036040811015610a4457600080fd5b508035906020013561280a565b61031b60048036036020811015610a6757600080fd5b50356001600160a01b0316612bcb565b6103e460048036036040811015610a8d57600080fd5b810190602081018135600160201b811115610aa757600080fd5b820183602082011115610ab957600080fd5b803590602001918460208302840111600160201b83111715610ada57600080fd5b919080806020026020016040519081016040528093929190818152602001838360200280828437600092019190915250929550505090356001600160a01b03169150612c3c9050565b61031b60048036036060811015610b3957600080fd5b506001600160a01b03813581169160208101359091169060400135611dcf565b61031b60048036036020811015610b6f57600080fd5b50356001600160a01b0316612c85565b610598612ca7565b6103e460048036036020811015610b9d57600080fd5b50356001600160a01b0316612cb0565b6103e460048036036020811015610bc357600080fd5b50356001600160a01b0316612ccb565b6103e4612cdd565b61031b60048036036020811015610bf157600080fd5b50356001600160a01b0316612ce3565b61031b612d05565b610325612d6a565b61031b60048036036040811015610c2757600080fd5b81359190810190604081016020820135600160201b811115610c4857600080fd5b820183602082011115610c5a57600080fd5b803590602001918460018302840111600160201b83111715610c7b57600080fd5b91908080601f016020809104026020016040519081016040528093929190818152602001838380828437600092019190915250929550612d79945050505050565b6103256137dc565b33610cd1848483856137eb565b50505050565b6003546201000090046001600160a01b031681565b60018054604080516020600284861615610100026000190190941693909304601f81018490048402820184019092528181529291830182828015610d715780601f10610d4657610100808354040283529160200191610d71565b820191906000526020600020905b815481529060010190602001808311610d5457829003601f168201915b505050505081565b600b6020526000908152604090205481565b6001600160a01b0381166000908152600a60205260409020545b919050565b8051610dbd9060009060208401906143f1565b5050565b60018054604080516020601f60026000196101008789161502019095169490940493840181900481028201810190925282815260609390929091830182828015610e4c5780601f10610e2157610100808354040283529160200191610e4c565b820191906000526020600020905b815481529060010190602001808311610e2f57829003601f168201915b505050505090505b90565b60028054604080516020601f6000196101006001871615020190941685900493840181900481028201810190925282815260609390929091830182828015610e4c5780601f10610e2157610100808354040283529160200191610e4c565b33610ebe61446f565b6000848152600960209081526040918290208251610220810184528154815260018201546001600160a01b0390811682850152600283015482860152600383015416606082015260048201546080820152600582015460ff16151560a0820152600682015460c08201526007820180548551818602810186019096528086529194929360e08601939290830182828015610f8157602002820191906000526020600020905b81546001600160a01b03168152600190910190602001808311610f63575b5050505050815260200160088201805480602002602001604051908101604052809291908181526020018280548015610fd957602002820191906000526020600020905b815481526020019060010190808311610fc5575b505050505081526020016009820180548060200260200160405190810160405280929190818152602001828054801561103b57602002820191906000526020600020905b81546001600160a01b0316815260019091019060200180831161101d575b50505050508152602001600a820180548060200260200160405190810160405280929190818152602001828054801561109d57602002820191906000526020600020905b81546001600160a01b0316815260019091019060200180831161107f575b50505050508152602001600b82018054806020026020016040519081016040528092919081815260200182805480156110f557602002820191906000526020600020905b8154815260200190600101908083116110e1575b5050509183525050600c8201805460408051602060026001851615610100026000190190941693909304601f81018490048402820184019092528181529382019392918301828280156111895780601f1061115e57610100808354040283529160200191611189565b820191906000526020600020905b81548152906001019060200180831161116c57829003601f168201915b5050509183525050600d8201546020820152600e8201546040820152600f82015460ff161515606082015260109091015460809091015260e08101519091506111dd9085906111d89085612c3c565b61280a565b81816101200151826101a00151815181106111f457fe5b6001600160a01b03909216602092830291909101909101526101a081018051600101905260e08101515160029004816101a0015111156114fd57611237846119f7565b6101a08101516000908190156112d257826101a00151600560009054906101000a90046001600160a01b03166001600160a01b031663065480066040518163ffffffff1660e01b815260040160206040518083038186803b15801561129b57600080fd5b505afa1580156112af573d6000803e3d6000fd5b505050506040513d60208110156112c557600080fd5b5051816112ce57fe5b0491505b6101c08301511561136857826101c00151600560009054906101000a90046001600160a01b03166001600160a01b03166348cd5b876040518163ffffffff1660e01b815260040160206040518083038186803b15801561133157600080fd5b505afa158015611345573d6000803e3d6000fd5b505050506040513d602081101561135b57600080fd5b50518161136457fe5b0490505b60005b836101a0015181101561142c5760065461012085015180516001600160a01b03909216916340c10f199190849081106113a057fe5b6020026020010151856040518363ffffffff1660e01b815260040180836001600160a01b03166001600160a01b0316815260200182815260200192505050602060405180830381600087803b1580156113f857600080fd5b505af115801561140c573d6000803e3d6000fd5b505050506040513d602081101561142257600080fd5b505060010161136b565b5060005b836101c001518110156114e15760065461014085015180516001600160a01b03909216916379cc679091908490811061146557fe5b6020026020010151846040518363ffffffff1660e01b815260040180836001600160a01b03166001600160a01b0316815260200182815260200192505050600060405180830381600087803b1580156114bd57600080fd5b505af11580156114d1573d6000803e3d6000fd5b5050600190920191506114309050565b506114f6308460200151856040015188614047565b5050611542565b806101c00151816101a00151148015611529575060028160e00151518161152057fe5b04816101a00151145b156115425761154230826020015183604001518661413a565b60008481526009602090815260409182902083518155838201516001820180546001600160a01b03199081166001600160a01b039384161790915593850151600283015560608501516003830180549095169116179092556080830151600483015560a083015160058301805460ff191691151591909117905560c0830151600683015560e083015180518493926115e1926007850192910190614509565b5061010082015180516115fe91600884019160209091019061456a565b50610120820151805161161b916009840191602090910190614509565b50610140820151805161163891600a840191602090910190614509565b50610160820151805161165591600b84019160209091019061456a565b50610180820151805161167291600c8401916020909101906143f1565b506101a0820151600d8201556101c0820151600e8201556101e0820151600f8201805460ff19169115159190911790556102009091015160109091015550505050565b60006116bf61446f565b6000838152600960209081526040918290208251610220810184528154815260018201546001600160a01b0390811682850152600283015482860152600383015416606082015260048201546080820152600582015460ff16151560a0820152600682015460c08201526007820180548551818602810186019096528086529194929360e0860193929083018282801561178257602002820191906000526020600020905b81546001600160a01b03168152600190910190602001808311611764575b50505050508152602001600882018054806020026020016040519081016040528092919081815260200182805480156117da57602002820191906000526020600020905b8154815260200190600101908083116117c6575b505050505081526020016009820180548060200260200160405190810160405280929190818152602001828054801561183c57602002820191906000526020600020905b81546001600160a01b0316815260019091019060200180831161181e575b50505050508152602001600a820180548060200260200160405190810160405280929190818152602001828054801561189e57602002820191906000526020600020905b81546001600160a01b03168152600190910190602001808311611880575b50505050508152602001600b82018054806020026020016040519081016040528092919081815260200182805480156118f657602002820191906000526020600020905b8154815260200190600101908083116118e2575b5050509183525050600c8201805460408051602060026001851615610100026000190190941693909304601f810184900484028201840190925281815293820193929183018282801561198a5780601f1061195f5761010080835404028352916020019161198a565b820191906000526020600020905b81548152906001019060200180831161196d57829003601f168201915b5050509183525050600d820154602080830191909152600e8301546040830152600f83015460ff16151560608301526010909201546080909101528101519091506119d490612cb0565b603c028160800151014211156119ee576001915050610da5565b50600092915050565b6119ff61446f565b6000828152600960209081526040918290208251610220810184528154815260018201546001600160a01b0390811682850152600283015482860152600383015416606082015260048201546080820152600582015460ff16151560a0820152600682015460c08201526007820180548551818602810186019096528086529194929360e08601939290830182828015611ac257602002820191906000526020600020905b81546001600160a01b03168152600190910190602001808311611aa4575b5050505050815260200160088201805480602002602001604051908101604052809291908181526020018280548015611b1a57602002820191906000526020600020905b815481526020019060010190808311611b06575b5050505050815260200160098201805480602002602001604051908101604052809291908181526020018280548015611b7c57602002820191906000526020600020905b81546001600160a01b03168152600190910190602001808311611b5e575b50505050508152602001600a8201805480602002602001604051908101604052809291908181526020018280548015611bde57602002820191906000526020600020905b81546001600160a01b03168152600190910190602001808311611bc0575b50505050508152602001600b8201805480602002602001604051908101604052809291908181526020018280548015611c3657602002820191906000526020600020905b815481526020019060010190808311611c22575b5050509183525050600c8201805460408051602060026001851615610100026000190190941693909304601f8101849004840282018401909252818152938201939291830182828015611cca5780601f10611c9f57610100808354040283529160200191611cca565b820191906000526020600020905b815481529060010190602001808311611cad57829003601f168201915b5050509183525050600d8201546020820152600e8201546040820152600f82015460ff1615156060820152601090910154608090910152905060005b81610100015151811015611dcf5760045460e083015180516001600160a01b03909216916392825c79919084908110611d3b57fe5b60200260200101518461010001518481518110611d5457fe5b60200260200101516040518363ffffffff1660e01b815260040180836001600160a01b03166001600160a01b0316815260200182815260200192505050600060405180830381600087803b158015611dab57600080fd5b505af1158015611dbf573d6000803e3d6000fd5b505060019092019150611d069050565b505050565b6000816001600160a01b0316639c6790176040518163ffffffff1660e01b815260040160206040518083038186803b158015611e0f57600080fd5b505afa158015611e23573d6000803e3d6000fd5b505050506040513d6020811015611e3957600080fd5b505192915050565b600354610100900460ff1681565b606080606080600060016002611e63612297565b8354604080516020601f60026000196101006001881615020190951694909404938401819004810282018101909252828152918691830182828015611ee95780601f10611ebe57610100808354040283529160200191611ee9565b820191906000526020600020905b815481529060010190602001808311611ecc57829003601f168201915b5050865460408051602060026001851615610100026000190190941693909304601f810184900484028201840190925281815295995088945092508401905082828015611f775780601f10611f4c57610100808354040283529160200191611f77565b820191906000526020600020905b815481529060010190602001808311611f5a57829003601f168201915b5050855460408051602060026001851615610100026000190190941693909304601f8101849004840282018401909252818152959850879450925084019050828280156120055780601f10611fda57610100808354040283529160200191612005565b820191906000526020600020905b815481529060010190602001808311611fe857829003601f168201915b50505050509150935093509350935090919293565b604080518082018252601081526f181899199a1a9b1b9c1cb0b131b232b360811b60208201528151602a80825260608281019094526001600160a01b03851692918491602082018180388339019050509050600360fc1b8160008151811061207e57fe5b60200101906001600160f81b031916908160001a905350600f60fb1b816001815181106120a757fe5b60200101906001600160f81b031916908160001a90535060005b601481101561218d578260048583600c01602081106120dc57fe5b1a60f81b6001600160f81b031916901c60f81c60ff16815181106120fc57fe5b602001015160f81c60f81b82826002026002018151811061211957fe5b60200101906001600160f81b031916908160001a905350828482600c016020811061214057fe5b825191901a600f1690811061215157fe5b602001015160f81c60f81b82826002026003018151811061216e57fe5b60200101906001600160f81b031916908160001a9053506001016120c1565b50949350505050565b60096020908152600091825260409182902080546001808301546002808501546003860154600487015460058801546006890154600c8a0180548d51601f6000199b831615610100029b909b01909116979097049889018c90048c0287018c01909c52878652979a6001600160a01b039687169a94999390961697919660ff909116959194929383018282801561226e5780601f106122435761010080835404028352916020019161226e565b820191906000526020600020905b81548152906001019060200180831161225157829003601f168201915b505050600d840154600e850154600f8601546010909601549495919490935060ff90911691508c565b606060405180606001604052806029815260200161463460299139905090565b6002805460408051602060018416156101000260001901909316849004601f81018490048402820184019092528181529291830182828015610d715780601f10610d4657610100808354040283529160200191610d71565b6000805460408051602060026001851615610100026000190190941693909304601f81018490048402820184019092528181529291830182828015610d715780601f10610d4657610100808354040283529160200191610d71565b6007546001600160a01b031681565b6001600160a01b039092166000908152600a6020908152604080832093909355600b90522055565b60606040518060800160405280605181526020016145e360519139905090565b6123c961446f565b6000828152600960209081526040918290208251610220810184528154815260018201546001600160a01b0390811682850152600283015482860152600383015416606082015260048201546080820152600582015460ff16151560a0820152600682015460c08201526007820180548551818602810186019096528086529194929360e0860193929083018282801561248c57602002820191906000526020600020905b81546001600160a01b0316815260019091019060200180831161246e575b50505050508152602001600882018054806020026020016040519081016040528092919081815260200182805480156124e457602002820191906000526020600020905b8154815260200190600101908083116124d0575b505050505081526020016009820180548060200260200160405190810160405280929190818152602001828054801561254657602002820191906000526020600020905b81546001600160a01b03168152600190910190602001808311612528575b50505050508152602001600a82018054806020026020016040519081016040528092919081815260200182805480156125a857602002820191906000526020600020905b81546001600160a01b0316815260019091019060200180831161258a575b50505050508152602001600b820180548060200260200160405190810160405280929190818152602001828054801561260057602002820191906000526020600020905b8154815260200190600101908083116125ec575b5050509183525050600c8201805460408051602060026001851615610100026000190190941693909304601f81018490048402820184019092528181529382019392918301828280156126945780601f1061266957610100808354040283529160200191612694565b820191906000526020600020905b81548152906001019060200180831161267757829003601f168201915b5050509183525050600d8201546020820152600e8201546040820152600f82015460ff161515606082015260109091015460809091015290506126d6826116b5565b15610dbd576126e4826119f7565b6101c08101516101a082015160e08301515191019060029004811161272b5761272630836020015184604001516040518060200160405280600081525061413a565b611dcf565b60028104826101a00151111561275e57612726308360200151846040015160405180602001604052806000815250614047565b611dcf30836020015184604001516040518060200160405280600081525061413a565b600480546001600160a01b0319166001600160a01b0392909216919091179055565b6000805b83518110156127ef57826001600160a01b03168482815181106127c657fe5b60200260200101516001600160a01b031614156127e75760019150506127f5565b6001016127a7565b50600090505b92915050565b6005546001600160a01b031681565b61281261446f565b6000838152600960209081526040918290208251610220810184528154815260018201546001600160a01b0390811682850152600283015482860152600383015416606082015260048201546080820152600582015460ff16151560a0820152600682015460c08201526007820180548551818602810186019096528086529194929360e086019392908301828280156128d557602002820191906000526020600020905b81546001600160a01b031681526001909101906020018083116128b7575b505050505081526020016008820180548060200260200160405190810160405280929190818152602001828054801561292d57602002820191906000526020600020905b815481526020019060010190808311612919575b505050505081526020016009820180548060200260200160405190810160405280929190818152602001828054801561298f57602002820191906000526020600020905b81546001600160a01b03168152600190910190602001808311612971575b50505050508152602001600a82018054806020026020016040519081016040528092919081815260200182805480156129f157602002820191906000526020600020905b81546001600160a01b031681526001909101906020018083116129d3575b50505050508152602001600b8201805480602002602001604051908101604052809291908181526020018280548015612a4957602002820191906000526020600020905b815481526020019060010190808311612a35575b5050509183525050600c8201805460408051602060026001851615610100026000190190941693909304601f8101849004840282018401909252818152938201939291830182828015612add5780601f10612ab257610100808354040283529160200191612add565b820191906000526020600020905b815481529060010190602001808311612ac057829003601f168201915b5050509183525050600d8201546020820152600e8201546040820152600f82015460ff161515606082015260109091015460809091015260045460e082015180519293506001600160a01b03909116916392825c79919085908110612b3e57fe5b60200260200101518361010001518581518110612b5757fe5b60200260200101516040518363ffffffff1660e01b815260040180836001600160a01b03166001600160a01b0316815260200182815260200192505050600060405180830381600087803b158015612bae57600080fd5b505af1158015612bc2573d6000803e3d6000fd5b50505050505050565b6003546201000090046001600160a01b03163314612c1a5760405162461bcd60e51b815260040180806020018281038252603e8152602001806146dc603e913960400191505060405180910390fd5b600680546001600160a01b0319166001600160a01b0392909216919091179055565b6000805b83518110156127ef57826001600160a01b0316848281518110612c5f57fe5b60200260200101516001600160a01b03161415612c7d5790506127f5565b600101612c40565b600580546001600160a01b0319166001600160a01b0392909216919091179055565b60035460ff1681565b6001600160a01b03166000908152600b602052604090205490565b600a6020526000908152604090205481565b60085481565b600780546001600160a01b0319166001600160a01b0392909216919091179055565b60408051808201909152600d8082526c50696374757265566f74696e6760981b6020909201918252612d39916001916143f1565b5060405180608001604052806058815260200161471a605891398051612d67916002916020909101906143f1565b50565b6004546001600160a01b031681565b33612d8261446f565b6000848152600960209081526040918290208251610220810184528154815260018201546001600160a01b0390811682850152600283015482860152600383015416606082015260048201546080820152600582015460ff16151560a0820152600682015460c08201526007820180548551818602810186019096528086529194929360e08601939290830182828015612e4557602002820191906000526020600020905b81546001600160a01b03168152600190910190602001808311612e27575b5050505050815260200160088201805480602002602001604051908101604052809291908181526020018280548015612e9d57602002820191906000526020600020905b815481526020019060010190808311612e89575b5050505050815260200160098201805480602002602001604051908101604052809291908181526020018280548015612eff57602002820191906000526020600020905b81546001600160a01b03168152600190910190602001808311612ee1575b50505050508152602001600a8201805480602002602001604051908101604052809291908181526020018280548015612f6157602002820191906000526020600020905b81546001600160a01b03168152600190910190602001808311612f43575b50505050508152602001600b8201805480602002602001604051908101604052809291908181526020018280548015612fb957602002820191906000526020600020905b815481526020019060010190808311612fa5575b5050509183525050600c8201805460408051602060026001851615610100026000190190941693909304601f810184900484028201840190925281815293820193929183018282801561304d5780601f106130225761010080835404028352916020019161304d565b820191906000526020600020905b81548152906001019060200180831161303057829003601f168201915b5050509183525050600d8201546020820152600e8201546040820152600f82015460ff161515606082015260109091015460809091015260e081015190915061309c9085906111d89085612c3c565b606081602001516001600160a01b03166306fdde036040518163ffffffff1660e01b815260040160006040518083038186803b1580156130db57600080fd5b505afa1580156130ef573d6000803e3d6000fd5b505050506040513d6000823e601f3d908101601f19168201604052602081101561311857600080fd5b8101908080516040519392919084600160201b82111561313757600080fd5b90830190602082018581111561314c57600080fd5b8251600160201b81118282018810171561316557600080fd5b82525081516020918201929091019080838360005b8381101561319257818101518382015260200161317a565b50505050905090810190601f1680156131bf5780820380516001836020036101000a031916815260200191505b50604052505050604051602001808061468c6050913960500182805190602001908083835b602083106132035780518252601f1990920191602091820191016131e4565b6001836020036101000a03801982511681845116808217855250505050505090500191505060405160208183030381529060405290506000845111156133055780846040516020018083805190602001908083835b602083106132775780518252601f199092019160209182019101613258565b51815160209384036101000a60001901801990921691161790526101d160f51b919093019081528451600290910192850191508083835b602083106132cd5780518252601f1990920191602091820191016132ae565b6001836020036101000a0380198251168184511680821785525050505050509050019250505060405160208183030381529060405290505b82826101400151836101c001518151811061331c57fe5b6001600160a01b03909216602092830291909101909101526101c082018051600101905260e08201515160029004826101c00151111561362357600080613362876119f7565b6101c0840151156133f857836101c00151600560009054906101000a90046001600160a01b03166001600160a01b031663065480066040518163ffffffff1660e01b815260040160206040518083038186803b1580156133c157600080fd5b505afa1580156133d5573d6000803e3d6000fd5b505050506040513d60208110156133eb57600080fd5b5051816133f457fe5b0491505b6101a08401511561348e57836101a00151600560009054906101000a90046001600160a01b03166001600160a01b03166348cd5b876040518163ffffffff1660e01b815260040160206040518083038186803b15801561345757600080fd5b505afa15801561346b573d6000803e3d6000fd5b505050506040513d602081101561348157600080fd5b50518161348a57fe5b0490505b60005b846101c001518110156135525760065461014086015180516001600160a01b03909216916340c10f199190849081106134c657fe5b6020026020010151856040518363ffffffff1660e01b815260040180836001600160a01b03166001600160a01b0316815260200182815260200192505050602060405180830381600087803b15801561351e57600080fd5b505af1158015613532573d6000803e3d6000fd5b505050506040513d602081101561354857600080fd5b5050600101613491565b5060005b846101a001518110156136075760065461012086015180516001600160a01b03909216916379cc679091908490811061358b57fe5b6020026020010151846040518363ffffffff1660e01b815260040180836001600160a01b03166001600160a01b0316815260200182815260200192505050600060405180830381600087803b1580156135e357600080fd5b505af11580156135f7573d6000803e3d6000fd5b5050600190920191506135569050565b5061361c30856020015186604001518661413a565b5050613668565b816101c00151826101a0015114801561364f575060028260e00151518161364657fe5b04826101a00151145b156136685761366830836020015184604001518461413a565b60008581526009602090815260409182902084518155848201516001820180546001600160a01b03199081166001600160a01b039384161790915593860151600283015560608601516003830180549095169116179092556080840151600483015560a084015160058301805460ff191691151591909117905560c0840151600683015560e08401518051859392613707926007850192910190614509565b50610100820151805161372491600884019160209091019061456a565b506101208201518051613741916009840191602090910190614509565b50610140820151805161375e91600a840191602090910190614509565b50610160820151805161377b91600b84019160209091019061456a565b50610180820151805161379891600c8401916020909101906143f1565b506101a0820151600d8201556101c0820151600e8201556101e0820151600f8201805460ff1916911515919091179055610200909101516010909101555050505050565b6006546001600160a01b031681565b6137f361446f565b4260808201526001600160a01b0380861660208301526040820185905284825283811660608084019190915260075490911663869b0de261383388610d8b565b866040518363ffffffff1660e01b815260040180838152602001826001600160a01b03166001600160a01b031681526020019250505060006040518083038186803b15801561388157600080fd5b505afa158015613895573d6000803e3d6000fd5b505050506040513d6000823e601f3d908101601f1916820160405260208110156138be57600080fd5b8101908080516040519392919084600160201b8211156138dd57600080fd5b9083019060208201858111156138f257600080fd5b82518660208202830111600160201b8211171561390e57600080fd5b82525081516020918201928201910280838360005b8381101561393b578181015183820152602001613923565b5050505091909101604052505060006101a086018190526101c08601819052610180860187905260a086015250909150606090506139776123a1565b876001600160a01b03166306fdde036040518163ffffffff1660e01b815260040160006040518083038186803b1580156139b057600080fd5b505afa1580156139c4573d6000803e3d6000fd5b505050506040513d6000823e601f3d908101601f1916820160405260208110156139ed57600080fd5b8101908080516040519392919084600160201b821115613a0c57600080fd5b908301906020820185811115613a2157600080fd5b8251600160201b811182820188101715613a3a57600080fd5b82525081516020918201929091019080838360005b83811015613a67578181015183820152602001613a4f565b50505050905090810190601f168015613a945780820380516001836020036101000a031916815260200191505b506040525050506040516020018083805190602001908083835b60208310613acd5780518252601f199092019160209182019101613aae565b51815160209384036101000a600019018019909216911617905285519190930192850191508083835b60208310613b155780518252601f199092019160209182019101613af6565b6001836020036101000a0380198251168184511680821785525050505050509050018061465d602f9139602f019250505060405160208183030381529060405290508151604051908082528060200260200182016040528015613b82578160200160208202803883390190505b5060e08401528151604080518281526020808402820101909152908015613bb3578160200160208202803883390190505b506101208401528151604080518281526020808402820101909152908015613be5578160200160208202803883390190505b506101408401528151604080518281526020808402820101909152908015613c17578160200160208202803883390190505b506101008401528151604080518281526020808402820101909152908015613c49578160200160208202803883390190505b5061016084015260005b8251811015613ebb57828181518110613c6857fe5b60200260200101518460e001518281518110613c8057fe5b6001600160a01b039283166020918202929092010152600454845191169063a12e93dd908890600190879086908110613cb557fe5b602090810291909101015188516040516001600160e01b031960e087901b1681526001600160a01b0380861660048301908152908416604483015260a4820183905260c06024830190815285546002600019610100600184161502019091160460c484018190528b948f94909392916064820191608481019160e4909101908a908015613d835780601f10613d5857610100808354040283529160200191613d83565b820191906000526020600020905b815481529060010190602001808311613d6657829003601f168201915b5050848103835287518152875160209182019189019080838360005b83811015613db7578181015183820152602001613d9f565b50505050905090810190601f168015613de45780820380516001836020036101000a031916815260200191505b50848103825286518152865160209182019188019080838360005b83811015613e17578181015183820152602001613dff565b50505050905090810190601f168015613e445780820380516001836020036101000a031916815260200191505b509950505050505050505050602060405180830381600087803b158015613e6a57600080fd5b505af1158015613e7e573d6000803e3d6000fd5b505050506040513d6020811015613e9457600080fd5b5051610100850151805183908110613ea857fe5b6020908102919091010152600101613c53565b5060008681526009602090815260409182902085518155858201516001820180546001600160a01b03199081166001600160a01b039384161790915593870151600283015560608701516003830180549095169116179092556080850151600483015560a085015160058301805460ff191691151591909117905560c0850151600683015560e08501518051869392613f5b926007850192910190614509565b506101008201518051613f7891600884019160209091019061456a565b506101208201518051613f95916009840191602090910190614509565b506101408201518051613fb291600a840191602090910190614509565b506101608201518051613fcf91600b84019160209091019061456a565b506101808201518051613fec91600c8401916020909101906143f1565b506101a0820151600d8201556101c0820151600e8201556101e0820151600f8201805460ff191691151591909117905561020090910151601090910155604080516020810190915260008152612bc2903090899089906141c0565b6140518383614307565b50826001600160a01b031663bdc656e98584846040518463ffffffff1660e01b815260040180846001600160a01b03166001600160a01b0316815260200183815260200180602001828103825283818151815260200191508051906020019080838360005b838110156140ce5781810151838201526020016140b6565b50505050905090810190601f1680156140fb5780820380516001836020036101000a031916815260200191505b50945050505050600060405180830381600087803b15801561411c57600080fd5b505af1158015614130573d6000803e3d6000fd5b5050505050505050565b6141448383614307565b50826001600160a01b0316637c41e5d88584846040518463ffffffff1660e01b815260040180846001600160a01b03166001600160a01b031681526020018381526020018060200182810382528381815181526020019150805190602001908083836000838110156140ce5781810151838201526020016140b6565b6040805162379c0960e91b81523060048201526024810184905290516001600160a01b03851691636f3812009160448083019260209291908290030181600087803b15801561420e57600080fd5b505af1158015614222573d6000803e3d6000fd5b505050506040513d602081101561423857600080fd5b50511561428c576040805162461bcd60e51b815260206004820152601f60248201527f546869732070726f6f6620697320616c7265616479207375626d697474656400604482015290519081900360640190fd5b826001600160a01b03166359af61528584846040518463ffffffff1660e01b815260040180846001600160a01b03166001600160a01b031681526020018381526020018060200182810382528381815181526020019150805190602001908083836000838110156140ce5781810151838201526020016140b6565b6040805162379c0960e91b815230600482015260248101839052905160009182916001600160a01b03861691636f38120091604480830192602092919082900301818787803b15801561435957600080fd5b505af115801561436d573d6000803e3d6000fd5b505050506040513d602081101561438357600080fd5b5051905060028114801590614399575080600314155b6143ea576040805162461bcd60e51b815260206004820181905260248201527f5468697320766572696669657220697320616c72656164792064656369646564604482015290519081900360640190fd5b5092915050565b828054600181600116156101000203166002900490600052602060002090601f016020900481019282601f1061443257805160ff191683800117855561445f565b8280016001018555821561445f579182015b8281111561445f578251825591602001919060010190614444565b5061446b9291506145a4565b5090565b6040518061022001604052806000815260200160006001600160a01b031681526020016000815260200160006001600160a01b0316815260200160008152602001600015158152602001600081526020016060815260200160608152602001606081526020016060815260200160608152602001606081526020016000815260200160008152602001600015158152602001600081525090565b82805482825590600052602060002090810192821561455e579160200282015b8281111561455e57825182546001600160a01b0319166001600160a01b03909116178255602090920191600190910190614529565b5061446b9291506145be565b82805482825590600052602060002090810192821561445f579160200282018281111561445f578251825591602001919060010190614444565b610e5491905b8082111561446b57600081556001016145aa565b610e5491905b8082111561446b5780546001600160a01b03191681556001016145c456fe506c6561736520636865636b2074686973207069637475726520766572696669657220616e6420617070726f76652074686520636f727265637420616d6f756e74206f66207468697320746f6b656e3a2075696e743a4e756d626572206f662055736572732c75696e743a54696d6520696e204d696e757465732e20436f6e73656e7375732069732072656163686564207573696e67204162736f6c757465204d616a6f726974792e41206d656d626572206f6620746865206170706f696e74656420617070726f7665722067726f7570206861732072656a656374656420796f757220617070726f76616c207265717565737420666f72204f6e6c79207468652063726561746f72206f66207468697320736d61727420636f6e74726163742063616e2063616c6c20746869732066756e6374696f6e54686520636c61696d65722068617320746f20737570706c79206120706963747572652c206261736564206f6e2077686963682074686520617070726f7665722077696c6c2064656369646520746f20617070726f76652ea265627a7a7231582077b735d9fc90180146f981aa2db46adaad598ced3d6deec1eb4d02f4b0a811f764736f6c6343000511003254686520636c61696d65722068617320746f20737570706c79206120706963747572652c206261736564206f6e2077686963682074686520617070726f7665722077696c6c2064656369646520746f20617070726f76652e",
  "source": "pragma solidity ^0.5.17;\n\nimport \"contracts/verifiers/onchain/social/LimitedVoting.sol\";\n\ncontract PictureVoting is LimitedVoting {\n\n    constructor() public  {}\n\n    // @Override\n    function init() public {\n        name = \"PictureVoting\";\n        description = \"The claimer has to supply a picture, based on which the approver will decide to approve.\";\n    }\n\n    function submitProof_PictureVoting(address tokenAddrToReceiveVerifierNotice, uint claimId, string memory IPFShash) public {\n        address claimer = msg.sender;\n        super._submitProof_LimitedVoting(tokenAddrToReceiveVerifierNotice, claimId, claimer, IPFShash);\n    }\n\n    // @Override\n    function getMessageText() public pure returns(string memory) {\n        // TODO include the quantity into the message\n        return \"Please check this picture verifier and approve the correct amount of this token: \";\n    }\n\n}\n",
  "sourcePath": "/home/cantonioupao/susDAO-saveMe/FIN4Contracts/contracts/verifiers/onchain/social/PictureVoting.sol",
  "compiler": {
    "name": "solc",
    "version": "0.5.17+commit.d19bba13.Emscripten.clang"
  },
  "schemaVersion": "3.3.1",
  "updatedAt": "2020-12-03T18:27:59.034Z",
  "devdoc": {
    "methods": {}
  },
  "userdoc": {
    "methods": {}
  }
}