{
  "contractName": "PLCRVoting",
  "abi": [
    {
      "anonymous": false,
      "inputs": [
        {
          "indexed": false,
          "internalType": "uint256",
          "name": "voteQuorum",
          "type": "uint256"
        },
        {
          "indexed": false,
          "internalType": "uint256",
          "name": "commitEndDate",
          "type": "uint256"
        },
        {
          "indexed": false,
          "internalType": "uint256",
          "name": "revealEndDate",
          "type": "uint256"
        },
        {
          "indexed": true,
          "internalType": "uint256",
          "name": "pollID",
          "type": "uint256"
        },
        {
          "indexed": true,
          "internalType": "address",
          "name": "creator",
          "type": "address"
        }
      ],
      "name": "_PollCreated",
      "type": "event"
    },
    {
      "anonymous": false,
      "inputs": [
        {
          "indexed": true,
          "internalType": "uint256",
          "name": "pollID",
          "type": "uint256"
        },
        {
          "indexed": true,
          "internalType": "address",
          "name": "voter",
          "type": "address"
        }
      ],
      "name": "_TokensRescued",
      "type": "event"
    },
    {
      "anonymous": false,
      "inputs": [
        {
          "indexed": true,
          "internalType": "uint256",
          "name": "pollID",
          "type": "uint256"
        },
        {
          "indexed": false,
          "internalType": "uint256",
          "name": "numTokens",
          "type": "uint256"
        },
        {
          "indexed": true,
          "internalType": "address",
          "name": "voter",
          "type": "address"
        }
      ],
      "name": "_VoteCommitted",
      "type": "event"
    },
    {
      "anonymous": false,
      "inputs": [
        {
          "indexed": true,
          "internalType": "uint256",
          "name": "pollID",
          "type": "uint256"
        },
        {
          "indexed": false,
          "internalType": "uint256",
          "name": "numTokens",
          "type": "uint256"
        },
        {
          "indexed": false,
          "internalType": "uint256",
          "name": "votesFor",
          "type": "uint256"
        },
        {
          "indexed": false,
          "internalType": "uint256",
          "name": "votesAgainst",
          "type": "uint256"
        },
        {
          "indexed": true,
          "internalType": "uint256",
          "name": "choice",
          "type": "uint256"
        },
        {
          "indexed": true,
          "internalType": "address",
          "name": "voter",
          "type": "address"
        },
        {
          "indexed": false,
          "internalType": "uint256",
          "name": "salt",
          "type": "uint256"
        }
      ],
      "name": "_VoteRevealed",
      "type": "event"
    },
    {
      "anonymous": false,
      "inputs": [
        {
          "indexed": false,
          "internalType": "uint256",
          "name": "numTokens",
          "type": "uint256"
        },
        {
          "indexed": true,
          "internalType": "address",
          "name": "voter",
          "type": "address"
        }
      ],
      "name": "_VotingRightsGranted",
      "type": "event"
    },
    {
      "anonymous": false,
      "inputs": [
        {
          "indexed": false,
          "internalType": "uint256",
          "name": "numTokens",
          "type": "uint256"
        },
        {
          "indexed": true,
          "internalType": "address",
          "name": "voter",
          "type": "address"
        }
      ],
      "name": "_VotingRightsWithdrawn",
      "type": "event"
    },
    {
      "constant": true,
      "inputs": [],
      "name": "INITIAL_POLL_NONCE",
      "outputs": [
        {
          "internalType": "uint256",
          "name": "",
          "type": "uint256"
        }
      ],
      "payable": false,
      "stateMutability": "view",
      "type": "function"
    },
    {
      "constant": true,
      "inputs": [
        {
          "internalType": "uint256",
          "name": "",
          "type": "uint256"
        }
      ],
      "name": "pollMap",
      "outputs": [
        {
          "internalType": "uint256",
          "name": "commitEndDate",
          "type": "uint256"
        },
        {
          "internalType": "uint256",
          "name": "revealEndDate",
          "type": "uint256"
        },
        {
          "internalType": "uint256",
          "name": "voteQuorum",
          "type": "uint256"
        },
        {
          "internalType": "uint256",
          "name": "votesFor",
          "type": "uint256"
        },
        {
          "internalType": "uint256",
          "name": "votesAgainst",
          "type": "uint256"
        }
      ],
      "payable": false,
      "stateMutability": "view",
      "type": "function"
    },
    {
      "constant": true,
      "inputs": [],
      "name": "pollNonce",
      "outputs": [
        {
          "internalType": "uint256",
          "name": "",
          "type": "uint256"
        }
      ],
      "payable": false,
      "stateMutability": "view",
      "type": "function"
    },
    {
      "constant": true,
      "inputs": [],
      "name": "token",
      "outputs": [
        {
          "internalType": "contract GOV",
          "name": "",
          "type": "address"
        }
      ],
      "payable": false,
      "stateMutability": "view",
      "type": "function"
    },
    {
      "constant": true,
      "inputs": [
        {
          "internalType": "address",
          "name": "",
          "type": "address"
        }
      ],
      "name": "voteTokenBalance",
      "outputs": [
        {
          "internalType": "uint256",
          "name": "",
          "type": "uint256"
        }
      ],
      "payable": false,
      "stateMutability": "view",
      "type": "function"
    },
    {
      "constant": false,
      "inputs": [
        {
          "internalType": "address",
          "name": "_token",
          "type": "address"
        }
      ],
      "name": "init",
      "outputs": [],
      "payable": false,
      "stateMutability": "nonpayable",
      "type": "function"
    },
    {
      "constant": false,
      "inputs": [
        {
          "internalType": "uint256",
          "name": "_numTokens",
          "type": "uint256"
        }
      ],
      "name": "requestVotingRights",
      "outputs": [],
      "payable": false,
      "stateMutability": "nonpayable",
      "type": "function"
    },
    {
      "constant": false,
      "inputs": [
        {
          "internalType": "uint256",
          "name": "_numTokens",
          "type": "uint256"
        }
      ],
      "name": "withdrawVotingRights",
      "outputs": [],
      "payable": false,
      "stateMutability": "nonpayable",
      "type": "function"
    },
    {
      "constant": false,
      "inputs": [
        {
          "internalType": "uint256",
          "name": "_pollID",
          "type": "uint256"
        }
      ],
      "name": "rescueTokens",
      "outputs": [],
      "payable": false,
      "stateMutability": "nonpayable",
      "type": "function"
    },
    {
      "constant": false,
      "inputs": [
        {
          "internalType": "uint256[]",
          "name": "_pollIDs",
          "type": "uint256[]"
        }
      ],
      "name": "rescueTokensInMultiplePolls",
      "outputs": [],
      "payable": false,
      "stateMutability": "nonpayable",
      "type": "function"
    },
    {
      "constant": false,
      "inputs": [
        {
          "internalType": "uint256",
          "name": "_pollID",
          "type": "uint256"
        },
        {
          "internalType": "bytes32",
          "name": "_secretHash",
          "type": "bytes32"
        },
        {
          "internalType": "uint256",
          "name": "_numTokens",
          "type": "uint256"
        },
        {
          "internalType": "uint256",
          "name": "_prevPollID",
          "type": "uint256"
        }
      ],
      "name": "commitVote",
      "outputs": [],
      "payable": false,
      "stateMutability": "nonpayable",
      "type": "function"
    },
    {
      "constant": false,
      "inputs": [
        {
          "internalType": "uint256[]",
          "name": "_pollIDs",
          "type": "uint256[]"
        },
        {
          "internalType": "bytes32[]",
          "name": "_secretHashes",
          "type": "bytes32[]"
        },
        {
          "internalType": "uint256[]",
          "name": "_numsTokens",
          "type": "uint256[]"
        },
        {
          "internalType": "uint256[]",
          "name": "_prevPollIDs",
          "type": "uint256[]"
        }
      ],
      "name": "commitVotes",
      "outputs": [],
      "payable": false,
      "stateMutability": "nonpayable",
      "type": "function"
    },
    {
      "constant": true,
      "inputs": [
        {
          "internalType": "uint256",
          "name": "_prevID",
          "type": "uint256"
        },
        {
          "internalType": "uint256",
          "name": "_nextID",
          "type": "uint256"
        },
        {
          "internalType": "address",
          "name": "_voter",
          "type": "address"
        },
        {
          "internalType": "uint256",
          "name": "_numTokens",
          "type": "uint256"
        }
      ],
      "name": "validPosition",
      "outputs": [
        {
          "internalType": "bool",
          "name": "valid",
          "type": "bool"
        }
      ],
      "payable": false,
      "stateMutability": "view",
      "type": "function"
    },
    {
      "constant": false,
      "inputs": [
        {
          "internalType": "uint256",
          "name": "_pollID",
          "type": "uint256"
        },
        {
          "internalType": "uint256",
          "name": "_voteOption",
          "type": "uint256"
        },
        {
          "internalType": "uint256",
          "name": "_salt",
          "type": "uint256"
        }
      ],
      "name": "revealVote",
      "outputs": [],
      "payable": false,
      "stateMutability": "nonpayable",
      "type": "function"
    },
    {
      "constant": false,
      "inputs": [
        {
          "internalType": "uint256[]",
          "name": "_pollIDs",
          "type": "uint256[]"
        },
        {
          "internalType": "uint256[]",
          "name": "_voteOptions",
          "type": "uint256[]"
        },
        {
          "internalType": "uint256[]",
          "name": "_salts",
          "type": "uint256[]"
        }
      ],
      "name": "revealVotes",
      "outputs": [],
      "payable": false,
      "stateMutability": "nonpayable",
      "type": "function"
    },
    {
      "constant": true,
      "inputs": [
        {
          "internalType": "address",
          "name": "_voter",
          "type": "address"
        },
        {
          "internalType": "uint256",
          "name": "_pollID",
          "type": "uint256"
        }
      ],
      "name": "getNumPassingTokens",
      "outputs": [
        {
          "internalType": "uint256",
          "name": "correctVotes",
          "type": "uint256"
        }
      ],
      "payable": false,
      "stateMutability": "view",
      "type": "function"
    },
    {
      "constant": false,
      "inputs": [
        {
          "internalType": "uint256",
          "name": "_voteQuorum",
          "type": "uint256"
        },
        {
          "internalType": "uint256",
          "name": "_commitDuration",
          "type": "uint256"
        },
        {
          "internalType": "uint256",
          "name": "_revealDuration",
          "type": "uint256"
        }
      ],
      "name": "startPoll",
      "outputs": [
        {
          "internalType": "uint256",
          "name": "pollID",
          "type": "uint256"
        }
      ],
      "payable": false,
      "stateMutability": "nonpayable",
      "type": "function"
    },
    {
      "constant": true,
      "inputs": [
        {
          "internalType": "uint256",
          "name": "_pollID",
          "type": "uint256"
        }
      ],
      "name": "isPassed",
      "outputs": [
        {
          "internalType": "bool",
          "name": "passed",
          "type": "bool"
        }
      ],
      "payable": false,
      "stateMutability": "view",
      "type": "function"
    },
    {
      "constant": true,
      "inputs": [
        {
          "internalType": "uint256",
          "name": "_pollID",
          "type": "uint256"
        }
      ],
      "name": "getTotalNumberOfTokensForWinningOption",
      "outputs": [
        {
          "internalType": "uint256",
          "name": "numTokens",
          "type": "uint256"
        }
      ],
      "payable": false,
      "stateMutability": "view",
      "type": "function"
    },
    {
      "constant": true,
      "inputs": [
        {
          "internalType": "uint256",
          "name": "_pollID",
          "type": "uint256"
        }
      ],
      "name": "pollEnded",
      "outputs": [
        {
          "internalType": "bool",
          "name": "ended",
          "type": "bool"
        }
      ],
      "payable": false,
      "stateMutability": "view",
      "type": "function"
    },
    {
      "constant": true,
      "inputs": [
        {
          "internalType": "uint256",
          "name": "_pollID",
          "type": "uint256"
        }
      ],
      "name": "commitPeriodActive",
      "outputs": [
        {
          "internalType": "bool",
          "name": "active",
          "type": "bool"
        }
      ],
      "payable": false,
      "stateMutability": "view",
      "type": "function"
    },
    {
      "constant": true,
      "inputs": [
        {
          "internalType": "uint256",
          "name": "_pollID",
          "type": "uint256"
        }
      ],
      "name": "revealPeriodActive",
      "outputs": [
        {
          "internalType": "bool",
          "name": "active",
          "type": "bool"
        }
      ],
      "payable": false,
      "stateMutability": "view",
      "type": "function"
    },
    {
      "constant": true,
      "inputs": [
        {
          "internalType": "address",
          "name": "_voter",
          "type": "address"
        },
        {
          "internalType": "uint256",
          "name": "_pollID",
          "type": "uint256"
        }
      ],
      "name": "didCommit",
      "outputs": [
        {
          "internalType": "bool",
          "name": "committed",
          "type": "bool"
        }
      ],
      "payable": false,
      "stateMutability": "view",
      "type": "function"
    },
    {
      "constant": true,
      "inputs": [
        {
          "internalType": "address",
          "name": "_voter",
          "type": "address"
        },
        {
          "internalType": "uint256",
          "name": "_pollID",
          "type": "uint256"
        }
      ],
      "name": "didReveal",
      "outputs": [
        {
          "internalType": "bool",
          "name": "revealed",
          "type": "bool"
        }
      ],
      "payable": false,
      "stateMutability": "view",
      "type": "function"
    },
    {
      "constant": true,
      "inputs": [
        {
          "internalType": "uint256",
          "name": "_pollID",
          "type": "uint256"
        }
      ],
      "name": "pollExists",
      "outputs": [
        {
          "internalType": "bool",
          "name": "exists",
          "type": "bool"
        }
      ],
      "payable": false,
      "stateMutability": "view",
      "type": "function"
    },
    {
      "constant": true,
      "inputs": [
        {
          "internalType": "address",
          "name": "_voter",
          "type": "address"
        },
        {
          "internalType": "uint256",
          "name": "_pollID",
          "type": "uint256"
        }
      ],
      "name": "getCommitHash",
      "outputs": [
        {
          "internalType": "bytes32",
          "name": "commitHash",
          "type": "bytes32"
        }
      ],
      "payable": false,
      "stateMutability": "view",
      "type": "function"
    },
    {
      "constant": true,
      "inputs": [
        {
          "internalType": "address",
          "name": "_voter",
          "type": "address"
        },
        {
          "internalType": "uint256",
          "name": "_pollID",
          "type": "uint256"
        }
      ],
      "name": "getNumTokens",
      "outputs": [
        {
          "internalType": "uint256",
          "name": "numTokens",
          "type": "uint256"
        }
      ],
      "payable": false,
      "stateMutability": "view",
      "type": "function"
    },
    {
      "constant": true,
      "inputs": [
        {
          "internalType": "address",
          "name": "_voter",
          "type": "address"
        }
      ],
      "name": "getLastNode",
      "outputs": [
        {
          "internalType": "uint256",
          "name": "pollID",
          "type": "uint256"
        }
      ],
      "payable": false,
      "stateMutability": "view",
      "type": "function"
    },
    {
      "constant": true,
      "inputs": [
        {
          "internalType": "address",
          "name": "_voter",
          "type": "address"
        }
      ],
      "name": "getLockedTokens",
      "outputs": [
        {
          "internalType": "uint256",
          "name": "numTokens",
          "type": "uint256"
        }
      ],
      "payable": false,
      "stateMutability": "view",
      "type": "function"
    },
    {
      "constant": true,
      "inputs": [
        {
          "internalType": "address",
          "name": "_voter",
          "type": "address"
        },
        {
          "internalType": "uint256",
          "name": "_numTokens",
          "type": "uint256"
        },
        {
          "internalType": "uint256",
          "name": "_pollID",
          "type": "uint256"
        }
      ],
      "name": "getInsertPointForNumTokens",
      "outputs": [
        {
          "internalType": "uint256",
          "name": "prevNode",
          "type": "uint256"
        }
      ],
      "payable": false,
      "stateMutability": "view",
      "type": "function"
    },
    {
      "constant": true,
      "inputs": [
        {
          "internalType": "uint256",
          "name": "_terminationDate",
          "type": "uint256"
        }
      ],
      "name": "isExpired",
      "outputs": [
        {
          "internalType": "bool",
          "name": "expired",
          "type": "bool"
        }
      ],
      "payable": false,
      "stateMutability": "view",
      "type": "function"
    },
    {
      "constant": true,
      "inputs": [
        {
          "internalType": "address",
          "name": "_user",
          "type": "address"
        },
        {
          "internalType": "uint256",
          "name": "_pollID",
          "type": "uint256"
        }
      ],
      "name": "attrUUID",
      "outputs": [
        {
          "internalType": "bytes32",
          "name": "UUID",
          "type": "bytes32"
        }
      ],
      "payable": false,
      "stateMutability": "pure",
      "type": "function"
    }
  ],
  "bytecode": "0x608060405234801561001057600080fd5b506123c9806100206000396000f3fe608060405234801561001057600080fd5b50600436106101f05760003560e01c8063819b02931161010f578063b11d8bb8116100a2578063d9548e5311610071578063d9548e53146108d8578063e7b1d43c146108f5578063ee68483014610912578063fc0c546a1461092f576101f0565b8063b11d8bb8146107b6578063bb11ed7e146107df578063d138209214610880578063d901402b146108ac576101f0565b8063a1103f37116100de578063a1103f3714610724578063a25236fe14610750578063a4439dc51461076d578063aa7ca4641461078a576101f0565b8063819b0293146106aa57806388d21ff3146106e257806397508f36146106ff5780639760356014610707576101f0565b8063427fa1d2116101875780636b2d95d4116101565780636b2d95d41461051b5780636cbf9c5e146105415780637f97e836146105705780638090f92e1461059c576101f0565b8063427fa1d21461045f578063441c77c01461048557806349403183146104b65780636148fed5146104d3576101f0565b80632c052031116101c35780632c0520311461028057806332ed3d60146102b25780633b930294146102db5780633ec36b9914610301576101f0565b8063053e71a6146101f55780630c03fbd71461022457806319ab453c146102505780632173a10f14610278575b600080fd5b6102126004803603602081101561020b57600080fd5b5035610953565b60408051918252519081900360200190f35b6102126004803603604081101561023a57600080fd5b506001600160a01b0381351690602001356109a6565b6102766004803603602081101561026657600080fd5b50356001600160a01b0316610a84565b005b610212610ad4565b6102126004803603606081101561029657600080fd5b506001600160a01b038135169060208101359060400135610ad9565b610212600480360360608110156102c857600080fd5b5080359060208101359060400135610c6e565b610212600480360360208110156102f157600080fd5b50356001600160a01b0316610d4b565b6102766004803603608081101561031757600080fd5b810190602081018135600160201b81111561033157600080fd5b82018360208201111561034357600080fd5b803590602001918460208302840111600160201b8311171561036457600080fd5b919390929091602081019035600160201b81111561038157600080fd5b82018360208201111561039357600080fd5b803590602001918460208302840111600160201b831117156103b457600080fd5b919390929091602081019035600160201b8111156103d157600080fd5b8201836020820111156103e357600080fd5b803590602001918460208302840111600160201b8311171561040457600080fd5b919390929091602081019035600160201b81111561042157600080fd5b82018360208201111561043357600080fd5b803590602001918460208302840111600160201b8311171561045457600080fd5b509092509050610d5d565b6102126004803603602081101561047557600080fd5b50356001600160a01b0316610df3565b6104a26004803603602081101561049b57600080fd5b5035610e94565b604080519115158252519081900360200190f35b6104a2600480360360208110156104cc57600080fd5b5035610edd565b6104f0600480360360208110156104e957600080fd5b5035610f58565b6040805195865260208601949094528484019290925260608401526080830152519081900360a00190f35b6102126004803603602081101561053157600080fd5b50356001600160a01b0316610f86565b6102766004803603608081101561055757600080fd5b5080359060208101359060408101359060600135610f9a565b6104a26004803603604081101561058657600080fd5b506001600160a01b0381351690602001356115a2565b610276600480360360608110156105b257600080fd5b810190602081018135600160201b8111156105cc57600080fd5b8201836020820111156105de57600080fd5b803590602001918460208302840111600160201b831117156105ff57600080fd5b919390929091602081019035600160201b81111561061c57600080fd5b82018360208201111561062e57600080fd5b803590602001918460208302840111600160201b8311171561064f57600080fd5b919390929091602081019035600160201b81111561066c57600080fd5b82018360208201111561067e57600080fd5b803590602001918460208302840111600160201b8311171561069f57600080fd5b50909250905061162d565b6104a2600480360360808110156106c057600080fd5b508035906020810135906001600160a01b0360408201351690606001356116a2565b6104a2600480360360208110156106f857600080fd5b50356116e3565b6102126116f8565b6102766004803603602081101561071d57600080fd5b50356116fe565b6102126004803603604081101561073a57600080fd5b506001600160a01b03813516906020013561186c565b6102766004803603602081101561076657600080fd5b50356118b0565b6104a26004803603602081101561078357600080fd5b5035611a87565b6104a2600480360360408110156107a057600080fd5b506001600160a01b038135169060200135611afb565b610276600480360360608110156107cc57600080fd5b5080359060208101359060400135611b3e565b610276600480360360208110156107f557600080fd5b810190602081018135600160201b81111561080f57600080fd5b82018360208201111561082157600080fd5b803590602001918460208302840111600160201b8311171561084257600080fd5b919080806020026020016040519081016040528093929190818152602001838360200280828437600092019190915250929550611e4c945050505050565b6102126004803603604081101561089657600080fd5b506001600160a01b038135169060200135611e80565b610212600480360360408110156108c257600080fd5b506001600160a01b038135169060200135611f3b565b6104a2600480360360208110156108ee57600080fd5b5035611fc4565b6102766004803603602081101561090b57600080fd5b5035611fc9565b6104a26004803603602081101561092857600080fd5b50356120da565b61093761210a565b604080516001600160a01b039092168252519081900360200190f35b600061095e826120da565b61096757600080fd5b61097082610edd565b1561098d57506000818152600160205260409020600301546109a1565b506000818152600160205260409020600401545b919050565b60006109b1826120da565b6109ba57600080fd5b60008281526001602090815260408083206001600160a01b038716845260060190915290205460ff166109ec57600080fd5b60006109f783610edd565b610a02576000610a05565b60015b60008481526001602090815260408083206001600160a01b038916845260070190915290205460ff919091169150808214610a715760405162461bcd60e51b81526004018080602001828103825260278152602001806123056027913960400191505060405180910390fd5b610a7b8585611e80565b95945050505050565b6001600160a01b03811615801590610aa557506005546001600160a01b0316155b610aae57600080fd5b600580546001600160a01b0319166001600160a01b039290921691909117905560008055565b600081565b600080610ae585610df3565b90506000610af38683611e80565b90505b8115610c6357610b068683611e80565b9050848111610bbf5783821415610bb7576001600160a01b038616600090815260036020908152604091829020825163187f050560e11b8152600481019190915260248101859052915173__DLL___________________________________926330fe0a0a926044808301939192829003018186803b158015610b8857600080fd5b505af4158015610b9c573d6000803e3d6000fd5b505050506040513d6020811015610bb257600080fd5b505191505b509050610c67565b6001600160a01b038616600090815260036020908152604091829020825163187f050560e11b8152600481019190915260248101859052915173__DLL___________________________________926330fe0a0a926044808301939192829003018186803b158015610c3057600080fd5b505af4158015610c44573d6000803e3d6000fd5b505050506040513d6020811015610c5a57600080fd5b50519150610af6565b5090505b9392505050565b60008054600101815580610c88428563ffffffff61211916565b90506000610c9c828563ffffffff61211916565b6040805160a08101825284815260208082018481528284018b8152600060608086018281526080870183815283548452600180885289852098518955955195880195909555925160028701559151600386015591516004909401939093555483518b8152918201879052818401859052925193945033937f404f1f1c229d9eb2a949e7584da6ffde9d059ef2169f487ca815434cce0640d0929181900390910190a35050600054949350505050565b60026020526000908152604090205481565b868514610d6957600080fd5b868314610d7557600080fd5b868114610d8157600080fd5b60005b87811015610de857610de0898983818110610d9b57fe5b90506020020135888884818110610dae57fe5b90506020020135878785818110610dc157fe5b90506020020135868686818110610dd457fe5b90506020020135610f9a565b600101610d84565b505050505050505050565b6001600160a01b0381166000908152600360209081526040808320815163187f050560e11b8152600481019190915260248101849052905173__DLL___________________________________926330fe0a0a9260448082019391829003018186803b158015610e6257600080fd5b505af4158015610e76573d6000803e3d6000fd5b505050506040513d6020811015610e8c57600080fd5b505192915050565b6000610e9f826116e3565b610ea857600080fd5b60008281526001602081905260409091200154610ec490611fc4565b158015610ed75750610ed582611a87565b155b92915050565b6000610ee8826120da565b610ef157600080fd5b610ef9612247565b5050600090815260016020818152604092839020835160a0810185528154815292810154918301919091526002810154928201839052600381015460608301819052600490910154608090920182905290810190910260649091021190565b6001602081905260009182526040909120805491810154600282015460038301546004909301549192909185565b6000610ed782610f9584610df3565b611e80565b610fa384611a87565b610ff4576040805162461bcd60e51b815260206004820152601860248201527f436f6d6d697420706572696f64206e6f74204163746976650000000000000000604482015290519081900360640190fd5b33600090815260026020526040902054821115611039573360009081526002602052604081205461102c90849063ffffffff61217316565b9050611037816118b0565b505b336000908152600260205260409020548211156110875760405162461bcd60e51b81526004018080602001828103825260248152602001806122b46024913960400191505060405180910390fd5b836110c35760405162461bcd60e51b815260040180806020018281038252602781526020018061236e6027913960400191505060405180910390fd5b82611108576040805162461bcd60e51b815260206004820152601060248201526f0736563726574206861736820697320360841b604482015290519081900360640190fd5b8015806111a55750336000908152600360209081526040918290208251631b352dd160e11b8152600481019190915260248101849052915173__DLL___________________________________9263366a5ba2926044808301939192829003018186803b15801561117857600080fd5b505af415801561118c573d6000803e3d6000fd5b505050506040513d60208110156111a257600080fd5b50515b6111e05760405162461bcd60e51b815260040180806020018281038252604281526020018061232c6042913960600191505060405180910390fd5b33600090815260036020908152604080832081516307d29ac960e01b8152600481019190915260248101859052905173__DLL___________________________________926307d29ac99260448082019391829003018186803b15801561124657600080fd5b505af415801561125a573d6000803e3d6000fd5b505050506040513d602081101561127057600080fd5b5051905084811415611313573360009081526003602090815260409182902082516307d29ac960e01b8152600481019190915260248101889052915173__DLL___________________________________926307d29ac9926044808301939192829003018186803b1580156112e457600080fd5b505af41580156112f8573d6000803e3d6000fd5b505050506040513d602081101561130e57600080fd5b505190505b61131f828233866116a2565b611370576040805162461bcd60e51b815260206004820181905260248201527f506f736974696f6e206f662070726576506f6c6c4944206e6f742076616c6964604482015290519081900360640190fd5b336000908152600360205260408082208151639735c51b60e01b81526004810191909152602481018590526044810188905260648101849052905173__DLL___________________________________92639735c51b9260848082019391829003018186803b1580156113e257600080fd5b505af41580156113f6573d6000803e3d6000fd5b505050506000611406338761186c565b6040805163977aa03160e01b815260048181015260248101839052606481018790526080604482015260096084820152686e756d546f6b656e7360b81b60a4820152905191925073__AttributeStore________________________9163977aa0319160c480820192600092909190829003018186803b15801561148957600080fd5b505af415801561149d573d6000803e3d6000fd5b50506040805163977aa03160e01b8152600481810152602481018590526064810189905260806044820152600a6084820152690c6dedadad2e890c2e6d60b31b60a4820152905173__AttributeStore________________________935063977aa031925060c4808301926000929190829003018186803b15801561152157600080fd5b505af4158015611535573d6000803e3d6000fd5b5050506000878152600160208181526040808420338086526005909101835293819020805460ff19169093179092558151888152915192935089927fea7979e4280d7e6bffc1c7d83a1ac99f16d02ecc14465ce41016226783b663d79281900390910190a3505050505050565b60006115ad826116e3565b6115fe576040805162461bcd60e51b815260206004820152601a60248201527f5468697320706f6c6c494420646f6573206e6f74206578697374000000000000604482015290519081900360640190fd5b5060009081526001602090815260408083206001600160a01b0394909416835260059093019052205460ff1690565b84831461163957600080fd5b84811461164557600080fd5b60005b858110156116995761169187878381811061165f57fe5b9050602002013586868481811061167257fe5b9050602002013585858581811061168557fe5b90506020020135611b3e565b600101611648565b50505050505050565b6000806116af8487611e80565b831015905060006116c08587611e80565b841115806116cc575085155b90508180156116d85750805b979650505050505050565b60008115801590610ed7575050600054101590565b60005481565b6000818152600160208190526040909120015461171a90611fc4565b61172357600080fd5b336000908152600360209081526040918290208251631b352dd160e11b8152600481019190915260248101849052915173__DLL___________________________________9263366a5ba2926044808301939192829003018186803b15801561178b57600080fd5b505af415801561179f573d6000803e3d6000fd5b505050506040513d60208110156117b557600080fd5b50516117c057600080fd5b3360009081526003602052604080822081516306d900ed60e41b8152600481019190915260248101849052905173__DLL___________________________________92636d900ed09260448082019391829003018186803b15801561182457600080fd5b505af4158015611838573d6000803e3d6000fd5b50506040513392508391507f402507661c8c8cb90e0a796450b8bdd28b6c516f05279c0cd29e84c344e1699a90600090a350565b6040805160609390931b6bffffffffffffffffffffffff19166020808501919091526034808501939093528151808503909301835260549093019052805191012090565b600554604080516370a0823160e01b8152336004820152905183926001600160a01b0316916370a08231916024808301926020929190829003018186803b1580156118fa57600080fd5b505afa15801561190e573d6000803e3d6000fd5b505050506040513d602081101561192457600080fd5b505110156119635760405162461bcd60e51b815260040180806020018281038252602d8152602001806122d8602d913960400191505060405180910390fd5b33600081815260026020908152604080832080548601905560055481516323b872dd60e01b815260048101959095523060248601526044850186905290516001600160a01b03909116936323b872dd9360648083019493928390030190829087803b1580156119d157600080fd5b505af11580156119e5573d6000803e3d6000fd5b505050506040513d60208110156119fb57600080fd5b5051611a4e576040805162461bcd60e51b815260206004820152601e60248201527f43616e6e6f74207472616e736665722066726f6d20474f56546f6b656e730000604482015290519081900360640190fd5b60408051828152905133917ff7aaf024511d9982df8cd0d437c71c30106e6848cd1ba3d288d7a9c0e276aeda919081900360200190a250565b6000611a92826116e3565b611ae3576040805162461bcd60e51b815260206004820152601a60248201527f5468697320706f6c6c494420646f6573206e6f74206578697374000000000000604482015290519081900360640190fd5b600082815260016020526040902054610ed590611fc4565b6000611b06826116e3565b611b0f57600080fd5b5060009081526001602090815260408083206001600160a01b0394909416835260069093019052205460ff1690565b611b4783610e94565b611b98576040805162461bcd60e51b815260206004820152601860248201527f52657665616c20706572696f64206e6f74206163746976650000000000000000604482015290519081900360640190fd5b600083815260016020908152604080832033845260050190915290205460ff16611c09576040805162461bcd60e51b815260206004820152601860248201527f596f7572207573657220646964206e6f7420636f6d6d69740000000000000000604482015290519081900360640190fd5b600083815260016020908152604080832033845260060190915290205460ff1615611c7b576040805162461bcd60e51b815260206004820152601e60248201527f596f757220757365722068617320616c72656164792052657665616c65640000604482015290519081900360640190fd5b611c853384611f3b565b6040805160208082018690528183018590528251808303840181526060909201909252805191012014611ce95760405162461bcd60e51b815260040180806020018281038252603d815260200180612277603d913960400191505060405180910390fd5b6000611cf53385611e80565b90508260011415611d1c576000848152600160205260409020600301805482019055611d34565b60008481526001602052604090206004018054820190555b3360009081526003602052604080822081516306d900ed60e41b8152600481019190915260248101879052905173__DLL___________________________________92636d900ed09260448082019391829003018186803b158015611d9857600080fd5b505af4158015611dac573d6000803e3d6000fd5b505050600085815260016020818152604080842033808652600682018452828620805460ff1916861790558086526007820184528286208a9055948a9052928252600383015460049093015481518781529283019390935281810192909252606081018690529051919250859187917f9b19aaec524fad29c0ced9b9973a15e3045d7c3be156d71394ab40f0d5f119ff919081900360800190a450505050565b60005b8151811015611e7c57611e74828281518110611e6757fe5b60200260200101516116fe565b600101611e4f565b5050565b600073__AttributeStore________________________6350389f5c6004611ea8868661186c565b6040518363ffffffff1660e01b8152600401808381526020018281526020018060200182810382526009815260200180686e756d546f6b656e7360b81b815250602001935050505060206040518083038186803b158015611f0857600080fd5b505af4158015611f1c573d6000803e3d6000fd5b505050506040513d6020811015611f3257600080fd5b50519392505050565b600073__AttributeStore________________________6350389f5c6004611f63868661186c565b6040518363ffffffff1660e01b815260040180838152602001828152602001806020018281038252600a815260200180690c6dedadad2e890c2e6d60b31b815250602001935050505060206040518083038186803b158015611f0857600080fd5b421190565b6000611ff3611fd733610f86565b336000908152600260205260409020549063ffffffff61217316565b90508181101561200257600080fd5b33600081815260026020908152604080832080548790039055600554815163a9059cbb60e01b815260048101959095526024850187905290516001600160a01b039091169363a9059cbb9360448083019493928390030190829087803b15801561206b57600080fd5b505af115801561207f573d6000803e3d6000fd5b505050506040513d602081101561209557600080fd5b50516120a057600080fd5b60408051838152905133917ffaeb7dbb9992397d26ea1944efd40c80b40f702faf69b46c67ad10aba68ccb79919081900360200190a25050565b60006120e5826116e3565b6120ee57600080fd5b60008281526001602081905260409091200154610ed790611fc4565b6005546001600160a01b031681565b600082820183811015610c67576040805162461bcd60e51b815260206004820152601b60248201527f536166654d6174683a206164646974696f6e206f766572666c6f770000000000604482015290519081900360640190fd5b6000610c6783836040518060400160405280601e81526020017f536166654d6174683a207375627472616374696f6e206f766572666c6f7700008152506000818484111561223f5760405162461bcd60e51b81526004018080602001828103825283818151815260200191508051906020019080838360005b838110156122045781810151838201526020016121ec565b50505050905090810190601f1680156122315780820380516001836020036101000a031916815260200191505b509250505060405180910390fd5b505050900390565b6040518060a001604052806000815260200160008152602001600081526020016000815260200160008152509056fe566f746520616e642053616c74206861736820646f206e6f7420636f727265736f706f6e6420776974682074686520636f6d6d697465642076616c7565596f7520646f206e6f74206861766520656e6f75676820766f74696e6720726967687473474f5628746f6b656e292e62616c616e63654f66286d73672e73656e64657229203c205f6e756d546f6b656e73566f7465722072657665616c65642c20627574206e6f7420696e20746865206d616a6f7269747970726576506f6c6c494420646f6573206e6f742065786973747320696e207468652075736572277320444c4c20616e64205f70726576506f6c6c4944206e6f7420307573657220636f6d6d697474656420746f207a65726f206e6f646520706c616365686f6c646572a265627a7a723158202e43ec75bbc3500214048d9d381e67068bfb0862ed5f018436a068093649c34564736f6c63430005110032",
  "source": "pragma solidity ^0.5.17;\nimport \"../../tokens/GOV.sol\";\nimport \"./dependencies/DLL.sol\";\nimport \"./dependencies/AttributeStore.sol\";\nimport \"@openzeppelin/contracts/math/SafeMath.sol\";\n\n/**\n@title Partial-Lock-Commit-Reveal Voting scheme with ERC20 tokens\n@author Team: Aspyn Palatnick, Cem Ozer, Yorke Rhodes\n*/\ncontract PLCRVoting {\n\n    // ============\n    // EVENTS:\n    // ============\n\n    event _VoteCommitted(uint indexed pollID, uint numTokens, address indexed voter);\n    event _VoteRevealed(uint indexed pollID, uint numTokens, uint votesFor, uint votesAgainst, uint indexed choice, address indexed voter, uint salt);\n    event _PollCreated(uint voteQuorum, uint commitEndDate, uint revealEndDate, uint indexed pollID, address indexed creator);\n    event _VotingRightsGranted(uint numTokens, address indexed voter);\n    event _VotingRightsWithdrawn(uint numTokens, address indexed voter);\n    event _TokensRescued(uint indexed pollID, address indexed voter);\n\n    // ============\n    // DATA STRUCTURES:\n    // ============\n\n    using AttributeStore for AttributeStore.Data;\n    using DLL for DLL.Data;\n    using SafeMath for uint;\n\n    struct Poll {\n        uint commitEndDate;     /// expiration date of commit period for poll\n        uint revealEndDate;     /// expiration date of reveal period for poll\n        uint voteQuorum;\t    /// number of votes required for a proposal to pass\n        uint votesFor;\t\t    /// tally of votes supporting proposal\n        uint votesAgainst;      /// tally of votes countering proposal\n        mapping(address => bool) didCommit;   /// indicates whether an address committed a vote for this poll\n        mapping(address => bool) didReveal;   /// indicates whether an address revealed a vote for this poll\n        mapping(address => uint) voteOptions; /// stores the voteOption of an address that revealed\n    }\n\n    // ============\n    // STATE VARIABLES:\n    // ============\n\n    uint constant public INITIAL_POLL_NONCE = 0;\n    uint public pollNonce;\n\n    mapping(uint => Poll) public pollMap; // maps pollID to Poll struct\n    mapping(address => uint) public voteTokenBalance; // maps user's address to voteToken balance\n\n    mapping(address => DLL.Data) dllMap;\n    AttributeStore.Data store;\n\n    GOV public token;\n\n    /**\n    @dev Initializer. Can only be called once.\n    @param _token The address where the ERC20 token contract is deployed\n    */\n    function init(address _token) public {\n        require(_token != address(0) && address(token) == address(0));\n\n        token = GOV(_token);\n        pollNonce = INITIAL_POLL_NONCE;\n    }\n\n    // ================\n    // TOKEN INTERFACE:\n    // ================\n\n    /**\n    @notice Loads _numTokens ERC20 tokens into the voting contract for one-to-one voting rights\n    @dev Assumes that msg.sender has approved voting contract to spend on their behalf\n    @param _numTokens The number of votingTokens desired in exchange for ERC20 tokens\n    */\n    function requestVotingRights(uint _numTokens) public {\n        require(GOV(token).balanceOf(msg.sender) >= _numTokens, \"GOV(token).balanceOf(msg.sender) < _numTokens\");\n        voteTokenBalance[msg.sender] += _numTokens;\n        require(GOV(token).transferFrom(msg.sender, address(this), _numTokens), \"Cannot transfer from GOVTokens\");\n        emit _VotingRightsGranted(_numTokens, msg.sender);\n    }\n\n    /**\n    @notice Withdraw _numTokens ERC20 tokens from the voting contract, revoking these voting rights\n    @param _numTokens The number of ERC20 tokens desired in exchange for voting rights\n    */\n    function withdrawVotingRights(uint _numTokens) external {\n        uint availableTokens = voteTokenBalance[msg.sender].sub(getLockedTokens(msg.sender));\n        require(availableTokens >= _numTokens);\n        voteTokenBalance[msg.sender] -= _numTokens;\n        require(GOV(token).transfer(msg.sender, _numTokens));\n        emit _VotingRightsWithdrawn(_numTokens, msg.sender);\n    }\n\n    /**\n    @dev Unlocks tokens locked in unrevealed vote where poll has ended\n    @param _pollID Integer identifier associated with the target poll\n    */\n    function rescueTokens(uint _pollID) public {\n        require(isExpired(pollMap[_pollID].revealEndDate));\n        require(dllMap[msg.sender].contains(_pollID));\n\n        dllMap[msg.sender].remove(_pollID);\n        emit _TokensRescued(_pollID, msg.sender);\n    }\n\n    /**\n    @dev Unlocks tokens locked in unrevealed votes where polls have ended\n    @param _pollIDs Array of integer identifiers associated with the target pollsh\n    */\n    function rescueTokensInMultiplePolls(uint[] memory _pollIDs) public {\n        // loop through arrays, rescuing tokens from all\n        for (uint i = 0; i < _pollIDs.length; i++) {\n            rescueTokens(_pollIDs[i]);\n        }\n    }\n\n    // =================\n    // VOTING INTERFACE:\n    // =================\n\n    /**\n    @notice Commits vote using hash of choice and secret salt to conceal vote until reveal\n    @param _pollID Integer identifier associated with target poll\n    @param _secretHash Commit keccak256 hash of voter's choice and salt (tightly packed in this order)\n    @param _numTokens The number of tokens to be committed towards the target poll\n    @param _prevPollID The ID of the poll that the user has voted the maximum number of tokens in which is still less than or equal to numTokens\n    */\n    function commitVote(uint _pollID, bytes32 _secretHash, uint _numTokens, uint _prevPollID) public {\n        require(commitPeriodActive(_pollID), \"Commit period not Active\");\n\n        // if msg.sender doesn't have enough voting rights,\n        // request for enough voting rights\n        if (voteTokenBalance[msg.sender] < _numTokens) {\n            uint remainder = _numTokens.sub(voteTokenBalance[msg.sender]);\n            requestVotingRights(remainder);\n        }\n\n        // make sure msg.sender has enough voting rights\n        require(voteTokenBalance[msg.sender] >= _numTokens, \"You do not have enough voting rights\");\n        // prevent user from committing to zero node placeholder\n        require(_pollID != 0, \"user committed to zero node placeholder\");\n        // prevent user from committing a secretHash of 0\n        require(_secretHash != 0, \"secret hash is 0\");\n\n        // Check if _prevPollID exists in the user's DLL or if _prevPollID is 0\n        require(_prevPollID == 0 || dllMap[msg.sender].contains(_prevPollID), \"prevPollID does not exists in the user's DLL and _prevPollID not 0\");\n\n        uint nextPollID = dllMap[msg.sender].getNext(_prevPollID);\n\n        // edge case: in-place update\n        if (nextPollID == _pollID) {\n            nextPollID = dllMap[msg.sender].getNext(_pollID);\n        }\n\n        require(validPosition(_prevPollID, nextPollID, msg.sender, _numTokens), \"Position of prevPollID not valid\");\n        dllMap[msg.sender].insert(_prevPollID, _pollID, nextPollID);\n\n        bytes32 UUID = attrUUID(msg.sender, _pollID);\n\n        store.setAttribute(UUID, \"numTokens\", _numTokens);\n        store.setAttribute(UUID, \"commitHash\", uint(_secretHash));\n\n        pollMap[_pollID].didCommit[msg.sender] = true;\n        emit _VoteCommitted(_pollID, _numTokens, msg.sender);\n    }\n\n    /**\n    @notice                 Commits votes using hashes of choices and secret salts to conceal votes until reveal\n    @param _pollIDs         Array of integer identifiers associated with target polls\n    @param _secretHashes    Array of commit keccak256 hashes of voter's choices and salts (tightly packed in this order)\n    @param _numsTokens      Array of numbers of tokens to be committed towards the target polls\n    @param _prevPollIDs     Array of IDs of the polls that the user has voted the maximum number of tokens in which is still less than or equal to numTokens\n    */\n    function commitVotes(uint[] calldata _pollIDs, bytes32[] calldata _secretHashes, uint[] calldata _numsTokens, uint[] calldata _prevPollIDs) external {\n        // make sure the array lengths are all the same\n        require(_pollIDs.length == _secretHashes.length);\n        require(_pollIDs.length == _numsTokens.length);\n        require(_pollIDs.length == _prevPollIDs.length);\n\n        // loop through arrays, committing each individual vote values\n        for (uint i = 0; i < _pollIDs.length; i++) {\n            commitVote(_pollIDs[i], _secretHashes[i], _numsTokens[i], _prevPollIDs[i]);\n        }\n    }\n\n    /**\n    @dev Compares previous and next poll's committed tokens for sorting purposes\n    @param _prevID Integer identifier associated with previous poll in sorted order\n    @param _nextID Integer identifier associated with next poll in sorted order\n    @param _voter Address of user to check DLL position for\n    @param _numTokens The number of tokens to be committed towards the poll (used for sorting)\n    @return valid Boolean indication of if the specified position maintains the sort\n    */\n    function validPosition(uint _prevID, uint _nextID, address _voter, uint _numTokens) public view returns (bool valid) {\n        bool prevValid = (_numTokens >= getNumTokens(_voter, _prevID));\n        // if next is zero node, _numTokens does not need to be greater\n        bool nextValid = (_numTokens <= getNumTokens(_voter, _nextID) || _nextID == 0);\n        return prevValid && nextValid;\n    }\n\n    /**\n    @notice Reveals vote with choice and secret salt used in generating commitHash to attribute committed tokens\n    @param _pollID Integer identifier associated with target poll\n    @param _voteOption Vote choice used to generate commitHash for associated poll\n    @param _salt Secret number used to generate commitHash for associated poll\n    */\n    function revealVote(uint _pollID, uint _voteOption, uint _salt) public {\n        // Make sure the reveal period is active\n        require(revealPeriodActive(_pollID), \"Reveal period not active\");\n        require(pollMap[_pollID].didCommit[msg.sender], \"Your user did not commit\");                         // make sure user has committed a vote for this poll\n        require(!pollMap[_pollID].didReveal[msg.sender], \"Your user has already Revealed\");                        // prevent user from revealing multiple times\n        require(keccak256(abi.encodePacked(_voteOption, _salt)) == getCommitHash(msg.sender, _pollID), \"Vote and Salt hash do not corresopond with the commited value\"); // compare resultant hash from inputs to original commitHash\n\n        uint numTokens = getNumTokens(msg.sender, _pollID);\n\n        if (_voteOption == 1) {// apply numTokens to appropriate poll choice\n            pollMap[_pollID].votesFor += numTokens;\n        } else {\n            pollMap[_pollID].votesAgainst += numTokens;\n        }\n\n        dllMap[msg.sender].remove(_pollID); // remove the node referring to this vote upon reveal\n        pollMap[_pollID].didReveal[msg.sender] = true;\n        pollMap[_pollID].voteOptions[msg.sender] = _voteOption;\n\n        emit _VoteRevealed(_pollID, numTokens, pollMap[_pollID].votesFor, pollMap[_pollID].votesAgainst, _voteOption, msg.sender, _salt);\n    }\n\n    /**\n    @notice             Reveals multiple votes with choices and secret salts used in generating commitHashes to attribute committed tokens\n    @param _pollIDs     Array of integer identifiers associated with target polls\n    @param _voteOptions Array of vote choices used to generate commitHashes for associated polls\n    @param _salts       Array of secret numbers used to generate commitHashes for associated polls\n    */\n    function revealVotes(uint[] calldata _pollIDs, uint[] calldata _voteOptions, uint[] calldata _salts) external {\n        // make sure the array lengths are all the same\n        require(_pollIDs.length == _voteOptions.length);\n        require(_pollIDs.length == _salts.length);\n\n        // loop through arrays, revealing each individual vote values\n        for (uint i = 0; i < _pollIDs.length; i++) {\n            revealVote(_pollIDs[i], _voteOptions[i], _salts[i]);\n        }\n    }\n\n    /**\n    @param _voter           Address of voter who voted in the majority bloc\n    @param _pollID          Integer identifier associated with target poll\n    @return correctVotes    Number of tokens voted for winning option\n    */\n    function getNumPassingTokens(address _voter, uint _pollID) public view returns (uint correctVotes) {\n        require(pollEnded(_pollID));\n        require(pollMap[_pollID].didReveal[_voter]);\n\n        uint winningChoice = isPassed(_pollID) ? 1 : 0;\n        uint voterVoteOption = pollMap[_pollID].voteOptions[_voter];\n\n        require(voterVoteOption == winningChoice, \"Voter revealed, but not in the majority\");\n\n        return getNumTokens(_voter, _pollID);\n    }\n\n    // ==================\n    // POLLING INTERFACE:\n    // ==================\n\n    /**\n    @dev Initiates a poll with canonical configured parameters at pollID emitted by PollCreated event\n    @param _voteQuorum Type of majority (out of 100) that is necessary for poll to be successful\n    @param _commitDuration Length of desired commit period in seconds\n    @param _revealDuration Length of desired reveal period in seconds\n    */\n    function startPoll(uint _voteQuorum, uint _commitDuration, uint _revealDuration) public returns (uint pollID) {\n        pollNonce = pollNonce + 1;\n\n        uint commitEndDate = block.timestamp.add(_commitDuration);\n        uint revealEndDate = commitEndDate.add(_revealDuration);\n\n        pollMap[pollNonce] = Poll({\n            voteQuorum: _voteQuorum,\n            commitEndDate: commitEndDate,\n            revealEndDate: revealEndDate,\n            votesFor: 0,\n            votesAgainst: 0\n        });\n\n        emit _PollCreated(_voteQuorum, commitEndDate, revealEndDate, pollNonce, msg.sender);\n        return pollNonce;\n    }\n\n    /**\n    @notice Determines if proposal has passed\n    @dev Check if votesFor out of totalVotes exceeds votesQuorum (requires pollEnded)\n    @param _pollID Integer identifier associated with target poll\n    */\n    function isPassed(uint _pollID) public view returns (bool passed) {\n        require(pollEnded(_pollID));\n\n        Poll memory poll = pollMap[_pollID];\n        return (100 * poll.votesFor) > (poll.voteQuorum * (poll.votesFor + poll.votesAgainst));\n    }\n\n    // ----------------\n    // POLLING HELPERS:\n    // ----------------\n\n    /**\n    @dev Gets the total winning votes for reward distribution purposes\n    @param _pollID Integer identifier associated with target poll\n    @return Total number of votes committed to the winning option for specified poll\n    */\n    function getTotalNumberOfTokensForWinningOption(uint _pollID) public view returns (uint numTokens) {\n        require(pollEnded(_pollID));\n\n        if (isPassed(_pollID))\n            return pollMap[_pollID].votesFor;\n        else\n            return pollMap[_pollID].votesAgainst;\n    }\n\n    /**\n    @notice Determines if poll is over\n    @dev Checks isExpired for specified poll's revealEndDate\n    @return Boolean indication of whether polling period is over\n    */\n    function pollEnded(uint _pollID) public view returns (bool ended) {\n        require(pollExists(_pollID));\n\n        return isExpired(pollMap[_pollID].revealEndDate);\n    }\n\n    /**\n    @notice Checks if the commit period is still active for the specified poll\n    @dev Checks isExpired for the specified poll's commitEndDate\n    @param _pollID Integer identifier associated with target poll\n    @return Boolean indication of isCommitPeriodActive for target poll\n    */\n    function commitPeriodActive(uint _pollID) public view returns (bool active) {\n        require(pollExists(_pollID), \"This pollID does not exist\");\n\n        return !isExpired(pollMap[_pollID].commitEndDate);\n    }\n\n    /**\n    @notice Checks if the reveal period is still active for the specified poll\n    @dev Checks isExpired for the specified poll's revealEndDate\n    @param _pollID Integer identifier associated with target poll\n    */\n    function revealPeriodActive(uint _pollID) public view returns (bool active) {\n        require(pollExists(_pollID));\n\n        return !isExpired(pollMap[_pollID].revealEndDate) && !commitPeriodActive(_pollID);\n    }\n\n    /**\n    @dev Checks if user has committed for specified poll\n    @param _voter Address of user to check against\n    @param _pollID Integer identifier associated with target poll\n    @return Boolean indication of whether user has committed\n    */\n    function didCommit(address _voter, uint _pollID) public view returns (bool committed) {\n        require(pollExists(_pollID), \"This pollID does not exist\");\n\n        return pollMap[_pollID].didCommit[_voter];\n    }\n\n    /**\n    @dev Checks if user has revealed for specified poll\n    @param _voter Address of user to check against\n    @param _pollID Integer identifier associated with target poll\n    @return Boolean indication of whether user has revealed\n    */\n    function didReveal(address _voter, uint _pollID) public view returns (bool revealed) {\n        require(pollExists(_pollID));\n\n        return pollMap[_pollID].didReveal[_voter];\n    }\n\n    /**\n    @dev Checks if a poll exists\n    @param _pollID The pollID whose existance is to be evaluated.\n    @return Boolean Indicates whether a poll exists for the provided pollID\n    */\n    function pollExists(uint _pollID) public view returns (bool exists) {\n        return (_pollID != 0 && _pollID <= pollNonce);\n    }\n\n    // ---------------------------\n    // DOUBLE-LINKED-LIST HELPERS:\n    // ---------------------------\n\n    /**\n    @dev Gets the bytes32 commitHash property of target poll\n    @param _voter Address of user to check against\n    @param _pollID Integer identifier associated with target poll\n    @return Bytes32 hash property attached to target poll\n    */\n    function getCommitHash(address _voter, uint _pollID) public view returns (bytes32 commitHash) {\n        return bytes32(store.getAttribute(attrUUID(_voter, _pollID), \"commitHash\"));\n    }\n\n    /**\n    @dev Wrapper for getAttribute with attrName=\"numTokens\"\n    @param _voter Address of user to check against\n    @param _pollID Integer identifier associated with target poll\n    @return Number of tokens committed to poll in sorted poll-linked-list\n    */\n    function getNumTokens(address _voter, uint _pollID) public view returns (uint numTokens) {\n        return store.getAttribute(attrUUID(_voter, _pollID), \"numTokens\");\n    }\n\n    /**\n    @dev Gets top element of sorted poll-linked-list\n    @param _voter Address of user to check against\n    @return Integer identifier to poll with maximum number of tokens committed to it\n    */\n    function getLastNode(address _voter) public view returns (uint pollID) {\n        return dllMap[_voter].getPrev(0);\n    }\n\n    /**\n    @dev Gets the numTokens property of getLastNode\n    @param _voter Address of user to check against\n    @return Maximum number of tokens committed in poll specified\n    */\n    function getLockedTokens(address _voter) public view returns (uint numTokens) {\n        return getNumTokens(_voter, getLastNode(_voter));\n    }\n\n    /*\n    @dev Takes the last node in the user's DLL and iterates backwards through the list searching\n    for a node with a value less than or equal to the provided _numTokens value. When such a node\n    is found, if the provided _pollID matches the found nodeID, this operation is an in-place\n    update. In that case, return the previous node of the node being updated. Otherwise return the\n    first node that was found with a value less than or equal to the provided _numTokens.\n    @param _voter The voter whose DLL will be searched\n    @param _numTokens The value for the numTokens attribute in the node to be inserted\n    @return the node which the propoded node should be inserted after\n    */\n    function getInsertPointForNumTokens(address _voter, uint _numTokens, uint _pollID) public view returns (uint prevNode) {\n        // Get the last node in the list and the number of tokens in that node\n        uint nodeID = getLastNode(_voter);\n        uint tokensInNode = getNumTokens(_voter, nodeID);\n\n        // Iterate backwards through the list until reaching the root node\n        while(nodeID != 0) {\n            // Get the number of tokens in the current node\n            tokensInNode = getNumTokens(_voter, nodeID);\n            if(tokensInNode <= _numTokens) { // We found the insert point!\n                if(nodeID == _pollID) {\n                    // This is an in-place update. Return the prev node of the node being updated\n                    nodeID = dllMap[_voter].getPrev(nodeID);\n                }\n                // Return the insert point\n                return nodeID;\n            }\n            // We did not find the insert point. Continue iterating backwards through the list\n            nodeID = dllMap[_voter].getPrev(nodeID);\n        }\n\n        // The list is empty, or a smaller value than anything else in the list is being inserted\n        return nodeID;\n    }\n\n    // ----------------\n    // GENERAL HELPERS:\n    // ----------------\n\n    /**\n    @dev Checks if an expiration date has been reached\n    @param _terminationDate Integer timestamp of date to compare current timestamp with\n    @return expired Boolean indication of whether the terminationDate has passed\n    */\n    function isExpired(uint _terminationDate) public view returns (bool expired) {\n        return (block.timestamp > _terminationDate);\n    }\n\n    /**\n    @dev Generates an identifier which associates a user and a poll together\n    @param _pollID Integer identifier associated with target poll\n    @return UUID Hash which is deterministic from _user and _pollID\n    */\n    function attrUUID(address _user, uint _pollID) public pure returns (bytes32 UUID) {\n        return keccak256(abi.encodePacked(_user, _pollID));\n    }\n}\n",
  "sourcePath": "/home/cantonioupao/susDAO-saveMe/FIN4Contracts/contracts/tcr/PLCR/PLCRVoting.sol",
  "compiler": {
    "name": "solc",
    "version": "0.5.17+commit.d19bba13.Emscripten.clang"
  },
  "schemaVersion": "3.3.1",
  "updatedAt": "2020-12-03T18:31:09.763Z",
  "devdoc": {
    "author": "Team: Aspyn Palatnick, Cem Ozer, Yorke Rhodes",
    "methods": {
      "attrUUID(address,uint256)": {
        "details": "Generates an identifier which associates a user and a poll together",
        "params": {
          "_pollID": "Integer identifier associated with target poll"
        },
        "return": "UUID Hash which is deterministic from _user and _pollID"
      },
      "commitPeriodActive(uint256)": {
        "details": "Checks isExpired for the specified poll's commitEndDate",
        "params": {
          "_pollID": "Integer identifier associated with target poll"
        },
        "return": "Boolean indication of isCommitPeriodActive for target poll"
      },
      "commitVote(uint256,bytes32,uint256,uint256)": {
        "params": {
          "_numTokens": "The number of tokens to be committed towards the target poll",
          "_pollID": "Integer identifier associated with target poll",
          "_prevPollID": "The ID of the poll that the user has voted the maximum number of tokens in which is still less than or equal to numTokens",
          "_secretHash": "Commit keccak256 hash of voter's choice and salt (tightly packed in this order)"
        }
      },
      "commitVotes(uint256[],bytes32[],uint256[],uint256[])": {
        "params": {
          "_numsTokens": "Array of numbers of tokens to be committed towards the target polls",
          "_pollIDs": "Array of integer identifiers associated with target polls",
          "_prevPollIDs": "Array of IDs of the polls that the user has voted the maximum number of tokens in which is still less than or equal to numTokens",
          "_secretHashes": "Array of commit keccak256 hashes of voter's choices and salts (tightly packed in this order)"
        }
      },
      "didCommit(address,uint256)": {
        "details": "Checks if user has committed for specified poll",
        "params": {
          "_pollID": "Integer identifier associated with target poll",
          "_voter": "Address of user to check against"
        },
        "return": "Boolean indication of whether user has committed"
      },
      "didReveal(address,uint256)": {
        "details": "Checks if user has revealed for specified poll",
        "params": {
          "_pollID": "Integer identifier associated with target poll",
          "_voter": "Address of user to check against"
        },
        "return": "Boolean indication of whether user has revealed"
      },
      "getCommitHash(address,uint256)": {
        "details": "Gets the bytes32 commitHash property of target poll",
        "params": {
          "_pollID": "Integer identifier associated with target poll",
          "_voter": "Address of user to check against"
        },
        "return": "Bytes32 hash property attached to target poll"
      },
      "getLastNode(address)": {
        "details": "Gets top element of sorted poll-linked-list",
        "params": {
          "_voter": "Address of user to check against"
        },
        "return": "Integer identifier to poll with maximum number of tokens committed to it"
      },
      "getLockedTokens(address)": {
        "details": "Gets the numTokens property of getLastNode",
        "params": {
          "_voter": "Address of user to check against"
        },
        "return": "Maximum number of tokens committed in poll specified"
      },
      "getNumPassingTokens(address,uint256)": {
        "params": {
          "_pollID": "Integer identifier associated with target poll",
          "_voter": "Address of voter who voted in the majority bloc"
        },
        "return": "correctVotes    Number of tokens voted for winning option"
      },
      "getNumTokens(address,uint256)": {
        "details": "Wrapper for getAttribute with attrName=\"numTokens\"",
        "params": {
          "_pollID": "Integer identifier associated with target poll",
          "_voter": "Address of user to check against"
        },
        "return": "Number of tokens committed to poll in sorted poll-linked-list"
      },
      "getTotalNumberOfTokensForWinningOption(uint256)": {
        "details": "Gets the total winning votes for reward distribution purposes",
        "params": {
          "_pollID": "Integer identifier associated with target poll"
        },
        "return": "Total number of votes committed to the winning option for specified poll"
      },
      "init(address)": {
        "details": "Initializer. Can only be called once.",
        "params": {
          "_token": "The address where the ERC20 token contract is deployed"
        }
      },
      "isExpired(uint256)": {
        "details": "Checks if an expiration date has been reached",
        "params": {
          "_terminationDate": "Integer timestamp of date to compare current timestamp with"
        },
        "return": "expired Boolean indication of whether the terminationDate has passed"
      },
      "isPassed(uint256)": {
        "details": "Check if votesFor out of totalVotes exceeds votesQuorum (requires pollEnded)",
        "params": {
          "_pollID": "Integer identifier associated with target poll"
        }
      },
      "pollEnded(uint256)": {
        "details": "Checks isExpired for specified poll's revealEndDate",
        "return": "Boolean indication of whether polling period is over"
      },
      "pollExists(uint256)": {
        "details": "Checks if a poll exists",
        "params": {
          "_pollID": "The pollID whose existance is to be evaluated."
        },
        "return": "Boolean Indicates whether a poll exists for the provided pollID"
      },
      "requestVotingRights(uint256)": {
        "details": "Assumes that msg.sender has approved voting contract to spend on their behalf",
        "params": {
          "_numTokens": "The number of votingTokens desired in exchange for ERC20 tokens"
        }
      },
      "rescueTokens(uint256)": {
        "details": "Unlocks tokens locked in unrevealed vote where poll has ended",
        "params": {
          "_pollID": "Integer identifier associated with the target poll"
        }
      },
      "rescueTokensInMultiplePolls(uint256[])": {
        "details": "Unlocks tokens locked in unrevealed votes where polls have ended",
        "params": {
          "_pollIDs": "Array of integer identifiers associated with the target pollsh"
        }
      },
      "revealPeriodActive(uint256)": {
        "details": "Checks isExpired for the specified poll's revealEndDate",
        "params": {
          "_pollID": "Integer identifier associated with target poll"
        }
      },
      "revealVote(uint256,uint256,uint256)": {
        "params": {
          "_pollID": "Integer identifier associated with target poll",
          "_salt": "Secret number used to generate commitHash for associated poll",
          "_voteOption": "Vote choice used to generate commitHash for associated poll"
        }
      },
      "revealVotes(uint256[],uint256[],uint256[])": {
        "params": {
          "_pollIDs": "Array of integer identifiers associated with target polls",
          "_salts": "Array of secret numbers used to generate commitHashes for associated polls",
          "_voteOptions": "Array of vote choices used to generate commitHashes for associated polls"
        }
      },
      "startPoll(uint256,uint256,uint256)": {
        "details": "Initiates a poll with canonical configured parameters at pollID emitted by PollCreated event",
        "params": {
          "_commitDuration": "Length of desired commit period in seconds",
          "_revealDuration": "Length of desired reveal period in seconds",
          "_voteQuorum": "Type of majority (out of 100) that is necessary for poll to be successful"
        }
      },
      "validPosition(uint256,uint256,address,uint256)": {
        "details": "Compares previous and next poll's committed tokens for sorting purposes",
        "params": {
          "_nextID": "Integer identifier associated with next poll in sorted order",
          "_numTokens": "The number of tokens to be committed towards the poll (used for sorting)",
          "_prevID": "Integer identifier associated with previous poll in sorted order",
          "_voter": "Address of user to check DLL position for"
        },
        "return": "valid Boolean indication of if the specified position maintains the sort"
      },
      "withdrawVotingRights(uint256)": {
        "params": {
          "_numTokens": "The number of ERC20 tokens desired in exchange for voting rights"
        }
      }
    },
    "title": "Partial-Lock-Commit-Reveal Voting scheme with ERC20 tokens"
  },
  "userdoc": {
    "methods": {
      "commitPeriodActive(uint256)": {
        "notice": "Checks if the commit period is still active for the specified poll"
      },
      "commitVote(uint256,bytes32,uint256,uint256)": {
        "notice": "Commits vote using hash of choice and secret salt to conceal vote until reveal"
      },
      "commitVotes(uint256[],bytes32[],uint256[],uint256[])": {
        "notice": "Commits votes using hashes of choices and secret salts to conceal votes until reveal"
      },
      "isPassed(uint256)": {
        "notice": "Determines if proposal has passed"
      },
      "pollEnded(uint256)": {
        "notice": "Determines if poll is over"
      },
      "requestVotingRights(uint256)": {
        "notice": "Loads _numTokens ERC20 tokens into the voting contract for one-to-one voting rights"
      },
      "revealPeriodActive(uint256)": {
        "notice": "Checks if the reveal period is still active for the specified poll"
      },
      "revealVote(uint256,uint256,uint256)": {
        "notice": "Reveals vote with choice and secret salt used in generating commitHash to attribute committed tokens"
      },
      "revealVotes(uint256[],uint256[],uint256[])": {
        "notice": "Reveals multiple votes with choices and secret salts used in generating commitHashes to attribute committed tokens"
      },
      "withdrawVotingRights(uint256)": {
        "notice": "Withdraw _numTokens ERC20 tokens from the voting contract, revoking these voting rights"
      }
    }
  }
}