{
  "contractName": "REP",
  "abi": [
    {
      "inputs": [],
      "payable": false,
      "stateMutability": "nonpayable",
      "type": "constructor"
    },
    {
      "anonymous": false,
      "inputs": [
        {
          "indexed": true,
          "internalType": "address",
          "name": "owner",
          "type": "address"
        },
        {
          "indexed": true,
          "internalType": "address",
          "name": "spender",
          "type": "address"
        },
        {
          "indexed": false,
          "internalType": "uint256",
          "name": "value",
          "type": "uint256"
        }
      ],
      "name": "Approval",
      "type": "event"
    },
    {
      "anonymous": false,
      "inputs": [
        {
          "indexed": true,
          "internalType": "address",
          "name": "account",
          "type": "address"
        }
      ],
      "name": "MinterAdded",
      "type": "event"
    },
    {
      "anonymous": false,
      "inputs": [
        {
          "indexed": true,
          "internalType": "address",
          "name": "account",
          "type": "address"
        }
      ],
      "name": "MinterRemoved",
      "type": "event"
    },
    {
      "anonymous": false,
      "inputs": [
        {
          "indexed": false,
          "internalType": "address",
          "name": "account",
          "type": "address"
        }
      ],
      "name": "Paused",
      "type": "event"
    },
    {
      "anonymous": false,
      "inputs": [
        {
          "indexed": true,
          "internalType": "address",
          "name": "account",
          "type": "address"
        }
      ],
      "name": "PauserAdded",
      "type": "event"
    },
    {
      "anonymous": false,
      "inputs": [
        {
          "indexed": true,
          "internalType": "address",
          "name": "account",
          "type": "address"
        }
      ],
      "name": "PauserRemoved",
      "type": "event"
    },
    {
      "anonymous": false,
      "inputs": [
        {
          "indexed": true,
          "internalType": "address",
          "name": "from",
          "type": "address"
        },
        {
          "indexed": true,
          "internalType": "address",
          "name": "to",
          "type": "address"
        },
        {
          "indexed": false,
          "internalType": "uint256",
          "name": "value",
          "type": "uint256"
        }
      ],
      "name": "Transfer",
      "type": "event"
    },
    {
      "anonymous": false,
      "inputs": [
        {
          "indexed": false,
          "internalType": "address",
          "name": "account",
          "type": "address"
        }
      ],
      "name": "Unpaused",
      "type": "event"
    },
    {
      "constant": true,
      "inputs": [],
      "name": "GOVToken",
      "outputs": [
        {
          "internalType": "contract GOV",
          "name": "",
          "type": "address"
        }
      ],
      "payable": false,
      "stateMutability": "view",
      "type": "function"
    },
    {
      "constant": false,
      "inputs": [
        {
          "internalType": "address",
          "name": "account",
          "type": "address"
        }
      ],
      "name": "addMinter",
      "outputs": [],
      "payable": false,
      "stateMutability": "nonpayable",
      "type": "function"
    },
    {
      "constant": false,
      "inputs": [
        {
          "internalType": "address",
          "name": "account",
          "type": "address"
        }
      ],
      "name": "addPauser",
      "outputs": [],
      "payable": false,
      "stateMutability": "nonpayable",
      "type": "function"
    },
    {
      "constant": true,
      "inputs": [
        {
          "internalType": "address",
          "name": "owner",
          "type": "address"
        },
        {
          "internalType": "address",
          "name": "spender",
          "type": "address"
        }
      ],
      "name": "allowance",
      "outputs": [
        {
          "internalType": "uint256",
          "name": "",
          "type": "uint256"
        }
      ],
      "payable": false,
      "stateMutability": "view",
      "type": "function"
    },
    {
      "constant": false,
      "inputs": [
        {
          "internalType": "address",
          "name": "spender",
          "type": "address"
        },
        {
          "internalType": "uint256",
          "name": "value",
          "type": "uint256"
        }
      ],
      "name": "approve",
      "outputs": [
        {
          "internalType": "bool",
          "name": "",
          "type": "bool"
        }
      ],
      "payable": false,
      "stateMutability": "nonpayable",
      "type": "function"
    },
    {
      "constant": true,
      "inputs": [
        {
          "internalType": "address",
          "name": "account",
          "type": "address"
        }
      ],
      "name": "balanceOf",
      "outputs": [
        {
          "internalType": "uint256",
          "name": "",
          "type": "uint256"
        }
      ],
      "payable": false,
      "stateMutability": "view",
      "type": "function"
    },
    {
      "constant": false,
      "inputs": [
        {
          "internalType": "uint256",
          "name": "value",
          "type": "uint256"
        }
      ],
      "name": "burn",
      "outputs": [],
      "payable": false,
      "stateMutability": "nonpayable",
      "type": "function"
    },
    {
      "constant": true,
      "inputs": [],
      "name": "decimals",
      "outputs": [
        {
          "internalType": "uint8",
          "name": "",
          "type": "uint8"
        }
      ],
      "payable": false,
      "stateMutability": "view",
      "type": "function"
    },
    {
      "constant": false,
      "inputs": [
        {
          "internalType": "address",
          "name": "spender",
          "type": "address"
        },
        {
          "internalType": "uint256",
          "name": "subtractedValue",
          "type": "uint256"
        }
      ],
      "name": "decreaseAllowance",
      "outputs": [
        {
          "internalType": "bool",
          "name": "",
          "type": "bool"
        }
      ],
      "payable": false,
      "stateMutability": "nonpayable",
      "type": "function"
    },
    {
      "constant": false,
      "inputs": [
        {
          "internalType": "address",
          "name": "spender",
          "type": "address"
        },
        {
          "internalType": "uint256",
          "name": "addedValue",
          "type": "uint256"
        }
      ],
      "name": "increaseAllowance",
      "outputs": [
        {
          "internalType": "bool",
          "name": "",
          "type": "bool"
        }
      ],
      "payable": false,
      "stateMutability": "nonpayable",
      "type": "function"
    },
    {
      "constant": true,
      "inputs": [],
      "name": "isBurnable",
      "outputs": [
        {
          "internalType": "bool",
          "name": "",
          "type": "bool"
        }
      ],
      "payable": false,
      "stateMutability": "view",
      "type": "function"
    },
    {
      "constant": true,
      "inputs": [],
      "name": "isMintable",
      "outputs": [
        {
          "internalType": "bool",
          "name": "",
          "type": "bool"
        }
      ],
      "payable": false,
      "stateMutability": "view",
      "type": "function"
    },
    {
      "constant": true,
      "inputs": [
        {
          "internalType": "address",
          "name": "account",
          "type": "address"
        }
      ],
      "name": "isMinter",
      "outputs": [
        {
          "internalType": "bool",
          "name": "",
          "type": "bool"
        }
      ],
      "payable": false,
      "stateMutability": "view",
      "type": "function"
    },
    {
      "constant": true,
      "inputs": [
        {
          "internalType": "address",
          "name": "account",
          "type": "address"
        }
      ],
      "name": "isPauser",
      "outputs": [
        {
          "internalType": "bool",
          "name": "",
          "type": "bool"
        }
      ],
      "payable": false,
      "stateMutability": "view",
      "type": "function"
    },
    {
      "constant": true,
      "inputs": [],
      "name": "isTransferable",
      "outputs": [
        {
          "internalType": "bool",
          "name": "",
          "type": "bool"
        }
      ],
      "payable": false,
      "stateMutability": "view",
      "type": "function"
    },
    {
      "constant": true,
      "inputs": [],
      "name": "name",
      "outputs": [
        {
          "internalType": "string",
          "name": "",
          "type": "string"
        }
      ],
      "payable": false,
      "stateMutability": "view",
      "type": "function"
    },
    {
      "constant": false,
      "inputs": [],
      "name": "pause",
      "outputs": [],
      "payable": false,
      "stateMutability": "nonpayable",
      "type": "function"
    },
    {
      "constant": true,
      "inputs": [],
      "name": "paused",
      "outputs": [
        {
          "internalType": "bool",
          "name": "",
          "type": "bool"
        }
      ],
      "payable": false,
      "stateMutability": "view",
      "type": "function"
    },
    {
      "constant": false,
      "inputs": [],
      "name": "renounceMinter",
      "outputs": [],
      "payable": false,
      "stateMutability": "nonpayable",
      "type": "function"
    },
    {
      "constant": false,
      "inputs": [],
      "name": "renouncePauser",
      "outputs": [],
      "payable": false,
      "stateMutability": "nonpayable",
      "type": "function"
    },
    {
      "constant": true,
      "inputs": [],
      "name": "symbol",
      "outputs": [
        {
          "internalType": "string",
          "name": "",
          "type": "string"
        }
      ],
      "payable": false,
      "stateMutability": "view",
      "type": "function"
    },
    {
      "constant": true,
      "inputs": [],
      "name": "totalSupply",
      "outputs": [
        {
          "internalType": "uint256",
          "name": "",
          "type": "uint256"
        }
      ],
      "payable": false,
      "stateMutability": "view",
      "type": "function"
    },
    {
      "constant": false,
      "inputs": [
        {
          "internalType": "address",
          "name": "to",
          "type": "address"
        },
        {
          "internalType": "uint256",
          "name": "value",
          "type": "uint256"
        }
      ],
      "name": "transfer",
      "outputs": [
        {
          "internalType": "bool",
          "name": "",
          "type": "bool"
        }
      ],
      "payable": false,
      "stateMutability": "nonpayable",
      "type": "function"
    },
    {
      "constant": false,
      "inputs": [
        {
          "internalType": "address",
          "name": "from",
          "type": "address"
        },
        {
          "internalType": "address",
          "name": "to",
          "type": "address"
        },
        {
          "internalType": "uint256",
          "name": "value",
          "type": "uint256"
        }
      ],
      "name": "transferFrom",
      "outputs": [
        {
          "internalType": "bool",
          "name": "",
          "type": "bool"
        }
      ],
      "payable": false,
      "stateMutability": "nonpayable",
      "type": "function"
    },
    {
      "constant": false,
      "inputs": [],
      "name": "unpause",
      "outputs": [],
      "payable": false,
      "stateMutability": "nonpayable",
      "type": "function"
    },
    {
      "constant": false,
      "inputs": [
        {
          "internalType": "address",
          "name": "_token",
          "type": "address"
        }
      ],
      "name": "init",
      "outputs": [],
      "payable": false,
      "stateMutability": "nonpayable",
      "type": "function"
    },
    {
      "constant": false,
      "inputs": [
        {
          "internalType": "address",
          "name": "to",
          "type": "address"
        },
        {
          "internalType": "uint256",
          "name": "value",
          "type": "uint256"
        }
      ],
      "name": "mint",
      "outputs": [
        {
          "internalType": "bool",
          "name": "",
          "type": "bool"
        }
      ],
      "payable": false,
      "stateMutability": "nonpayable",
      "type": "function"
    },
    {
      "constant": false,
      "inputs": [
        {
          "internalType": "address",
          "name": "from",
          "type": "address"
        },
        {
          "internalType": "uint256",
          "name": "value",
          "type": "uint256"
        }
      ],
      "name": "burnFrom",
      "outputs": [],
      "payable": false,
      "stateMutability": "nonpayable",
      "type": "function"
    },
    {
      "constant": false,
      "inputs": [
        {
          "internalType": "address",
          "name": "tokenHolder",
          "type": "address"
        }
      ],
      "name": "getGOVFromReputation",
      "outputs": [
        {
          "internalType": "bool",
          "name": "",
          "type": "bool"
        }
      ],
      "payable": false,
      "stateMutability": "nonpayable",
      "type": "function"
    },
    {
      "constant": false,
      "inputs": [],
      "name": "getGOVFromReputation",
      "outputs": [
        {
          "internalType": "bool",
          "name": "",
          "type": "bool"
        }
      ],
      "payable": false,
      "stateMutability": "nonpayable",
      "type": "function"
    },
    {
      "constant": true,
      "inputs": [],
      "name": "getGOVTokenAddress",
      "outputs": [
        {
          "internalType": "address",
          "name": "",
          "type": "address"
        }
      ],
      "payable": false,
      "stateMutability": "view",
      "type": "function"
    },
    {
      "constant": true,
      "inputs": [],
      "name": "getGOVTokenAmount",
      "outputs": [
        {
          "internalType": "uint256",
          "name": "",
          "type": "uint256"
        }
      ],
      "payable": false,
      "stateMutability": "view",
      "type": "function"
    }
  ],
  "bytecode": "0x60806040526008805460ff60201b19166401000000001790553480156200002557600080fd5b506040518060400160405280600e81526020016d2334b71a2932b83aba30ba34b7b760911b8152506040518060400160405280600381526020016205245560ec1b81525060fa600060016000600160008088888882600090805190602001906200009192919062000666565b508151620000a790600190602085019062000666565b506002805460ff191660ff9290921691909117905550620000dc9050620000cd620001ce565b6001600160e01b03620001d316565b62000102620000f36001600160e01b03620001ce16565b6001600160e01b036200022516565b6008805461ffff1916610100871515021762ff0000191662010000861515021763ff0000001916630100000085151502179055836200014e576200014e6001600160e01b036200027716565b6001600160a01b03861615620001725762000172866001600160e01b03620001d316565b6001600160a01b0381166200019c576200019633836001600160e01b03620002d916565b620001b1565b620001b181836001600160e01b03620002d916565b50506008805460ff60201b19169055506200070895505050505050565b335b90565b620001ee816006620003de60201b62001a2b1790919060201c565b6040516001600160a01b038216907f6ae172837ea30b801fbfcdd4108aa1d5bf8ff775444fd70256b44e6bf3dfc3f690600090a250565b62000240816007620003de60201b62001a2b1790919060201c565b6040516001600160a01b038216907f6719d08c1888103bea251a4ed56406bd0c3e69723c8a1686e017e7bbe159b6f890600090a250565b600854640100000000900460ff16620002c25760405162461bcd60e51b8152600401808060200182810382526029815260200180620025f76029913960400191505060405180910390fd5b620002d76200046b60201b620013ff1760201c565b565b6001600160a01b03821662000335576040805162461bcd60e51b815260206004820152601f60248201527f45524332303a206d696e7420746f20746865207a65726f206164647265737300604482015290519081900360640190fd5b62000351816005546200057860201b620018d61790919060201c565b6005556001600160a01b03821660009081526003602090815260409091205462000386918390620018d662000578821b17901c565b6001600160a01b03831660008181526003602090815260408083209490945583518581529351929391927fddf252ad1be2c89b69c2b068fc378daa952ba7f163c4a11628f55a4df523b3ef9281900390910190a35050565b620003f382826001600160e01b03620005da16565b1562000446576040805162461bcd60e51b815260206004820152601f60248201527f526f6c65733a206163636f756e7420616c72656164792068617320726f6c6500604482015290519081900360640190fd5b6001600160a01b0316600090815260209190915260409020805460ff19166001179055565b62000491620004826001600160e01b03620001ce16565b6001600160e01b036200064316565b620004ce5760405162461bcd60e51b8152600401808060200182810382526030815260200180620025a56030913960400191505060405180910390fd5b60085460ff16156200051a576040805162461bcd60e51b815260206004820152601060248201526f14185d5cd8589b194e881c185d5cd95960821b604482015290519081900360640190fd5b6008805460ff191660011790557f62e78cea01bee320cd4e420270b5ea74000d11b0c9f74754ebdbfc544b05a2586200055b6001600160e01b03620001ce16565b604080516001600160a01b039092168252519081900360200190a1565b600082820183811015620005d3576040805162461bcd60e51b815260206004820152601b60248201527f536166654d6174683a206164646974696f6e206f766572666c6f770000000000604482015290519081900360640190fd5b9392505050565b60006001600160a01b038216620006235760405162461bcd60e51b8152600401808060200182810382526022815260200180620025d56022913960400191505060405180910390fd5b506001600160a01b03166000908152602091909152604090205460ff1690565b600062000660826007620005da60201b620012081790919060201c565b92915050565b828054600181600116156101000203166002900490600052602060002090601f016020900481019282601f10620006a957805160ff1916838001178555620006d9565b82800160010185558215620006d9579182015b82811115620006d9578251825591602001919060010190620006bc565b50620006e7929150620006eb565b5090565b620001d091905b80821115620006e75760008155600101620006f2565b611e8d80620007186000396000f3fe608060405234801561001057600080fd5b50600436106101f05760003560e01c80635c975abb1161010f578063983b2d56116100a2578063a9059cbb11610071578063a9059cbb1461054f578063aa271e1a1461057b578063d62de19f146105a1578063dd62ed3e146105a9576101f0565b8063983b2d56146104ed57806398650275146105135780639950eff81461051b578063a457c2d714610523576101f0565b806382dc1ec4116100de57806382dc1ec4146104af5780638456cb59146104d5578063883356d9146104dd57806395d89b41146104e5576101f0565b80635c975abb1461044d5780636ef8d66d1461045557806370a082311461045d57806379cc679014610483576101f0565b8063313ce5671161018757806340c10f191161015657806340c10f19146103d657806342966c681461040257806346b45af71461041f57806346fbf68e14610427576101f0565b8063313ce5671461037c578063395093511461039a57806339b6fa24146103c65780633f4ba83a146103ce576101f0565b80631d0ddc24116101c35780631d0ddc24146102f45780632121dc751461031a57806323b872dd1461032257806324c53a4014610358576101f0565b806306fdde03146101f5578063095ea7b31461027257806318160ddd146102b257806319ab453c146102cc575b600080fd5b6101fd6105d7565b6040805160208082528351818301528351919283929083019185019080838360005b8381101561023757818101518382015260200161021f565b50505050905090810190601f1680156102645780820380516001836020036101000a031916815260200191505b509250505060405180910390f35b61029e6004803603604081101561028857600080fd5b506001600160a01b03813516906020013561066d565b604080519115158252519081900360200190f35b6102ba6106cc565b60408051918252519081900360200190f35b6102f2600480360360208110156102e257600080fd5b50356001600160a01b03166106d2565b005b61029e6004803603602081101561030a57600080fd5b50356001600160a01b0316610763565b61029e6109c4565b61029e6004803603606081101561033857600080fd5b506001600160a01b038135811691602081013590911690604001356109d3565b610360610a34565b604080516001600160a01b039092168252519081900360200190f35b610384610a4a565b6040805160ff9092168252519081900360200190f35b61029e600480360360408110156103b057600080fd5b506001600160a01b038135169060200135610a53565b6102ba610aab565b6102f2610b2e565b61029e600480360360408110156103ec57600080fd5b506001600160a01b038135169060200135610b79565b6102f26004803603602081101561041857600080fd5b5035610b85565b61029e610be1565b61029e6004803603602081101561043d57600080fd5b50356001600160a01b0316610bf1565b61029e610c0a565b6102f2610c13565b6102ba6004803603602081101561047357600080fd5b50356001600160a01b0316610c23565b6102f26004803603604081101561049957600080fd5b506001600160a01b038135169060200135610c3e565b6102f2600480360360208110156104c557600080fd5b50356001600160a01b0316610cc1565b6102f2610d15565b61029e610d66565b6101fd610d74565b6102f26004803603602081101561050357600080fd5b50356001600160a01b0316610dd4565b6102f2610e28565b61029e610e38565b61029e6004803603604081101561053957600080fd5b506001600160a01b038135169060200135610fa0565b61029e6004803603604081101561056557600080fd5b506001600160a01b038135169060200135610ff8565b61029e6004803603602081101561059157600080fd5b50356001600160a01b0316611050565b610360611063565b6102ba600480360360408110156105bf57600080fd5b506001600160a01b0381358116916020013516611079565b60008054604080516020601f60026000196101006001881615020190951694909404938401819004810282018101909252828152606093909290918301828280156106635780601f1061063857610100808354040283529160200191610663565b820191906000526020600020905b81548152906001019060200180831161064657829003601f168201915b5050505050905090565b60085460009060ff16156106bb576040805162461bcd60e51b815260206004820152601060248201526f14185d5cd8589b194e881c185d5cd95960821b604482015290519081900360640190fd5b6106c583836110a4565b9392505050565b60055490565b6001600160a01b038116158015906106fa5750600854600160281b90046001600160a01b0316155b6107355760405162461bcd60e51b8152600401808060200182810382526026815260200180611d316026913960400191505060405180910390fd5b600880546001600160a01b03909216600160281b0265010000000000600160c81b0319909216919091179055565b600061076e82610c23565b600854604080516303ad29f760e01b81526001600160a01b0386811660048301529151600160281b909304909116916303ad29f791602480820192602092909190829003018186803b1580156107c357600080fd5b505afa1580156107d7573d6000803e3d6000fd5b505050506040513d60208110156107ed57600080fd5b5051600854604080516370a0823160e01b81526001600160a01b0387811660048301529151600160281b909304909116916370a0823191602480820192602092909190829003018186803b15801561084457600080fd5b505afa158015610858573d6000803e3d6000fd5b505050506040513d602081101561086e57600080fd5b505101106108ad5760405162461bcd60e51b8152600401808060200182810382526063815260200180611be46063913960800191505060405180910390fd5b600854604080516370a0823160e01b81526001600160a01b0385811660048301529151600160281b909304909116916340c10f1991859184916370a08231916024808301926020929190829003018186803b15801561090b57600080fd5b505afa15801561091f573d6000803e3d6000fd5b505050506040513d602081101561093557600080fd5b505161094086610c23565b036040518363ffffffff1660e01b815260040180836001600160a01b03166001600160a01b0316815260200182815260200192505050602060405180830381600087803b15801561099057600080fd5b505af11580156109a4573d6000803e3d6000fd5b505050506040513d60208110156109ba57600080fd5b5060019392505050565b60085462010000900460ff1681565b60085460009060ff1615610a21576040805162461bcd60e51b815260206004820152601060248201526f14185d5cd8589b194e881c185d5cd95960821b604482015290519081900360640190fd5b610a2c8484846110c1565b949350505050565b600854600160281b90046001600160a01b031690565b60025460ff1690565b60085460009060ff1615610aa1576040805162461bcd60e51b815260206004820152601060248201526f14185d5cd8589b194e881c185d5cd95960821b604482015290519081900360640190fd5b6106c58383611144565b600854604080516370a0823160e01b81523360048201529051600092600160281b90046001600160a01b0316916370a08231916024808301926020929190829003018186803b158015610afd57600080fd5b505afa158015610b11573d6000803e3d6000fd5b505050506040513d6020811015610b2757600080fd5b5051905090565b600854640100000000900460ff16610b775760405162461bcd60e51b8152600401808060200182810382526029815260200180611e0b6029913960400191505060405180910390fd5b565b60006106c58383611198565b600854610100900460ff16610bd5576040805162461bcd60e51b8152602060048201526011602482015270436f696e206e6f74206275726e61626c6560781b604482015290519081900360640190fd5b610bde816111f7565b50565b6008546301000000900460ff1681565b6000610c0460078363ffffffff61120816565b92915050565b60085460ff1690565b610b77610c1e61126f565b611273565b6001600160a01b031660009081526003602052604090205490565b600854610100900460ff16610c8e576040805162461bcd60e51b8152602060048201526011602482015270436f696e206e6f74206275726e61626c6560781b604482015290519081900360640190fd5b6000610c9983610c23565b905081811015610cb257610cad83826112bb565b610cbc565b610cbc83836112bb565b505050565b610cd1610ccc61126f565b610bf1565b610d0c5760405162461bcd60e51b8152600401808060200182810382526030815260200180611c476030913960400191505060405180910390fd5b610bde816113b7565b600854640100000000900460ff16610d5e5760405162461bcd60e51b8152600401808060200182810382526029815260200180611e0b6029913960400191505060405180910390fd5b610b776113ff565b600854610100900460ff1681565b60018054604080516020601f600260001961010087891615020190951694909404938401819004810282018101909252828152606093909290918301828280156106635780601f1061063857610100808354040283529160200191610663565b610de4610ddf61126f565b611050565b610e1f5760405162461bcd60e51b8152600401808060200182810382526030815260200180611ce06030913960400191505060405180910390fd5b610bde816114e3565b610b77610e3361126f565b61152b565b600080600860059054906101000a90046001600160a01b03166001600160a01b031663e1e3f9156040518163ffffffff1660e01b815260040160206040518083038186803b158015610e8957600080fd5b505afa158015610e9d573d6000803e3d6000fd5b505050506040513d6020811015610eb357600080fd5b50516040805163349f642f60e11b8152602060048201819052600e60248301526d3836b4b72932b83aba30ba34b7b760911b604483015291519293506001600160a01b0384169263693ec85e92606480840193919291829003018186803b158015610f1d57600080fd5b505afa158015610f31573d6000803e3d6000fd5b505050506040513d6020811015610f4757600080fd5b5051610f5233610c23565b11610f8e5760405162461bcd60e51b8152600401808060200182810382526021815260200180611cbf6021913960400191505060405180910390fd5b610f9733610763565b50600191505090565b60085460009060ff1615610fee576040805162461bcd60e51b815260206004820152601060248201526f14185d5cd8589b194e881c185d5cd95960821b604482015290519081900360640190fd5b6106c58383611573565b60085460009060ff1615611046576040805162461bcd60e51b815260206004820152601060248201526f14185d5cd8589b194e881c185d5cd95960821b604482015290519081900360640190fd5b6106c583836115e1565b6000610c0460068363ffffffff61120816565b600854600160281b90046001600160a01b031681565b6001600160a01b03918216600090815260046020908152604080832093909416825291909152205490565b60006110b86110b161126f565b84846115f5565b50600192915050565b60006110ce8484846116e1565b6109ba846110da61126f565b61113f85604051806060016040528060288152602001611d57602891396001600160a01b038a1660009081526004602052604081209061111861126f565b6001600160a01b03168152602081019190915260400160002054919063ffffffff61183f16565b6115f5565b60006110b861115161126f565b8461113f856004600061116261126f565b6001600160a01b03908116825260208083019390935260409182016000908120918c16815292529020549063ffffffff6118d616565b6008546000906301000000900460ff166111ed576040805162461bcd60e51b8152602060048201526011602482015270436f696e206e6f74206d696e7461626c6560781b604482015290519081900360640190fd5b6106c58383611930565b610bde61120261126f565b826112bb565b60006001600160a01b03821661124f5760405162461bcd60e51b8152600401808060200182810382526022815260200180611d7f6022913960400191505060405180910390fd5b506001600160a01b03166000908152602091909152604090205460ff1690565b3390565b61128460078263ffffffff61198216565b6040516001600160a01b038216907fcd265ebaf09df2871cc7bd4133404a235ba12eff2041bb89d9c714a2621c7c7e90600090a250565b6001600160a01b0382166113005760405162461bcd60e51b8152600401808060200182810382526021815260200180611da16021913960400191505060405180910390fd5b61134381604051806060016040528060228152602001611bc2602291396001600160a01b038516600090815260036020526040902054919063ffffffff61183f16565b6001600160a01b03831660009081526003602052604090205560055461136f908263ffffffff6119e916565b6005556040805182815290516000916001600160a01b038516917fddf252ad1be2c89b69c2b068fc378daa952ba7f163c4a11628f55a4df523b3ef9181900360200190a35050565b6113c860078263ffffffff611a2b16565b6040516001600160a01b038216907f6719d08c1888103bea251a4ed56406bd0c3e69723c8a1686e017e7bbe159b6f890600090a250565b61140a610ccc61126f565b6114455760405162461bcd60e51b8152600401808060200182810382526030815260200180611c476030913960400191505060405180910390fd5b60085460ff1615611490576040805162461bcd60e51b815260206004820152601060248201526f14185d5cd8589b194e881c185d5cd95960821b604482015290519081900360640190fd5b6008805460ff191660011790557f62e78cea01bee320cd4e420270b5ea74000d11b0c9f74754ebdbfc544b05a2586114c661126f565b604080516001600160a01b039092168252519081900360200190a1565b6114f460068263ffffffff611a2b16565b6040516001600160a01b038216907f6ae172837ea30b801fbfcdd4108aa1d5bf8ff775444fd70256b44e6bf3dfc3f690600090a250565b61153c60068263ffffffff61198216565b6040516001600160a01b038216907fe94479a9f7e1952cc78f2d6baab678adc1b772d936c6583def489e524cb6669290600090a250565b60006110b861158061126f565b8461113f85604051806060016040528060258152602001611e3460259139600460006115aa61126f565b6001600160a01b03908116825260208083019390935260409182016000908120918d1681529252902054919063ffffffff61183f16565b60006110b86115ee61126f565b84846116e1565b6001600160a01b03831661163a5760405162461bcd60e51b8152600401808060200182810382526024815260200180611de76024913960400191505060405180910390fd5b6001600160a01b03821661167f5760405162461bcd60e51b8152600401808060200182810382526022815260200180611c776022913960400191505060405180910390fd5b6001600160a01b03808416600081815260046020908152604080832094871680845294825291829020859055815185815291517f8c5be1e5ebec7d5bd14f71427d1e84f3dd0314c0f7b2291e5b200ac8c7c3b9259281900390910190a3505050565b6001600160a01b0383166117265760405162461bcd60e51b8152600401808060200182810382526025815260200180611dc26025913960400191505060405180910390fd5b6001600160a01b03821661176b5760405162461bcd60e51b8152600401808060200182810382526023815260200180611b9f6023913960400191505060405180910390fd5b6117ae81604051806060016040528060268152602001611c99602691396001600160a01b038616600090815260036020526040902054919063ffffffff61183f16565b6001600160a01b0380851660009081526003602052604080822093909355908416815220546117e3908263ffffffff6118d616565b6001600160a01b0380841660008181526003602090815260409182902094909455805185815290519193928716927fddf252ad1be2c89b69c2b068fc378daa952ba7f163c4a11628f55a4df523b3ef92918290030190a3505050565b600081848411156118ce5760405162461bcd60e51b81526004018080602001828103825283818151815260200191508051906020019080838360005b8381101561189357818101518382015260200161187b565b50505050905090810190601f1680156118c05780820380516001836020036101000a031916815260200191505b509250505060405180910390fd5b505050900390565b6000828201838110156106c5576040805162461bcd60e51b815260206004820152601b60248201527f536166654d6174683a206164646974696f6e206f766572666c6f770000000000604482015290519081900360640190fd5b600061193d610ddf61126f565b6119785760405162461bcd60e51b8152600401808060200182810382526030815260200180611ce06030913960400191505060405180910390fd5b6110b88383611aac565b61198c8282611208565b6119c75760405162461bcd60e51b8152600401808060200182810382526021815260200180611d106021913960400191505060405180910390fd5b6001600160a01b0316600090815260209190915260409020805460ff19169055565b60006106c583836040518060400160405280601e81526020017f536166654d6174683a207375627472616374696f6e206f766572666c6f77000081525061183f565b611a358282611208565b15611a87576040805162461bcd60e51b815260206004820152601f60248201527f526f6c65733a206163636f756e7420616c72656164792068617320726f6c6500604482015290519081900360640190fd5b6001600160a01b0316600090815260209190915260409020805460ff19166001179055565b6001600160a01b038216611b07576040805162461bcd60e51b815260206004820152601f60248201527f45524332303a206d696e7420746f20746865207a65726f206164647265737300604482015290519081900360640190fd5b600554611b1a908263ffffffff6118d616565b6005556001600160a01b038216600090815260036020526040902054611b46908263ffffffff6118d616565b6001600160a01b03831660008181526003602090815260408083209490945583518581529351929391927fddf252ad1be2c89b69c2b068fc378daa952ba7f163c4a11628f55a4df523b3ef9281900390910190a3505056fe45524332303a207472616e7366657220746f20746865207a65726f206164647265737345524332303a206275726e20616d6f756e7420657863656564732062616c616e636543616e277420726573657420474f562062616c616e6365206265636175736520746865207573657220686173206d6f726520474f56207468616e2052455020746f6b656e732028696e636c7564696e672064656c65676174656420746f6b656e73292e506175736572526f6c653a2063616c6c657220646f6573206e6f742068617665207468652050617573657220726f6c6545524332303a20617070726f766520746f20746865207a65726f206164647265737345524332303a207472616e7366657220616d6f756e7420657863656564732062616c616e63657573657220686173206c657373207468616e20706d696e52657075746174696f6e4d696e746572526f6c653a2063616c6c657220646f6573206e6f74206861766520746865204d696e74657220726f6c65526f6c65733a206163636f756e7420646f6573206e6f74206861766520726f6c655f746f6b656e206973206e756c6c206f7220474f56546f6b656e206973206e6f74206e756c6c45524332303a207472616e7366657220616d6f756e74206578636565647320616c6c6f77616e6365526f6c65733a206163636f756e7420697320746865207a65726f206164647265737345524332303a206275726e2066726f6d20746865207a65726f206164647265737345524332303a207472616e736665722066726f6d20746865207a65726f206164647265737345524332303a20617070726f76652066726f6d20746865207a65726f2061646472657373746869732066756e6374696f6e2063616e206f6e6c792062652072756e206f6e206372656174696f6e45524332303a2064656372656173656420616c6c6f77616e63652062656c6f77207a65726fa265627a7a72315820949785e76ce29d68035eebbf42ee75b3be1c0ce06ff0aaa1a7429251c88f250b64736f6c63430005110032506175736572526f6c653a2063616c6c657220646f6573206e6f742068617665207468652050617573657220726f6c65526f6c65733a206163636f756e7420697320746865207a65726f2061646472657373746869732066756e6374696f6e2063616e206f6e6c792062652072756e206f6e206372656174696f6e",
  "source": "pragma solidity ^0.5.17;\n\nimport \"../tcr/Parameterizer.sol\";\nimport \"./ERC20Plus.sol\";\nimport \"./GOV.sol\";\n\n\ncontract REP is ERC20Plus {\n\n    GOV public GOVToken;\n    mapping (address => uint256) private _balances;\n\n    constructor()\n      ERC20Plus(\"Fin4Reputation\", \"REP\", 250, address(0), true, false, true, 0, address(0))\n      public{}\n\n    function init(address _token) public {\n        require(_token != address(0) && address(GOVToken) == address(0), \"_token is null or GOVToken is not null\");\n        GOVToken = GOV(_token);\n    }\n\n    /**\n    * @dev Function to mint tokens\n    * @param to The address that will receive the minted tokens.\n    * @param value The amount of tokens to mint.\n    * @return A boolean that indicates if the operation was successful.\n    */\n    function mint(address to, uint256 value) public returns (bool) {\n      return super.mint(to, value);\n    }\n\n    /**\n     * @dev Burns a specific amount of tokens from the target address and decrements allowance\n     * @param from address The address which you want to send tokens from\n     * @param value uint256 The amount of token to be burned\n     */\n    function burnFrom(address from, uint256 value) public {\n        // Checks whether token is burnable before minting\n        require(isBurnable, \"Coin not burnable\");\n        // Gets REP balance of user\n        uint balance = balanceOf(from);\n        // Handles special case where user does not have enough REP in his balance as the amount to be deducted\n        if(balance<value)\n          _burn(from, balance);\n        else\n          _burn(from, value);\n    }\n\n    /**\n    @dev Used to mint GOV tokens based on existing REP tokens\n    */\n    function getGOVFromReputation() public returns (bool) {\n      Parameterizer parameterizer = GOVToken.parameterizer();\n      require(balanceOf(msg.sender) > parameterizer.get(\"pminReputation\"), \"user has less than pminReputation\");\n      getGOVFromReputation(msg.sender);\n      return true;\n    }\n\n    // for deployment-dev only, make sure this can't be misused => change access modifier to internal or private\n    function getGOVFromReputation(address tokenHolder) public returns (bool) {\n        require(GOVToken.balanceOf(tokenHolder) + GOVToken.getAmountsDelegatedByAUser(tokenHolder) < balanceOf(tokenHolder),\n            \"Can't reset GOV balance because the user has more GOV than REP tokens (including delegated tokens).\");\n        GOVToken.mint(tokenHolder, balanceOf(tokenHolder) - GOVToken.balanceOf(tokenHolder));\n        return true;\n    }\n\n    function getGOVTokenAddress() public view returns (address) {\n        return address(GOVToken);\n    }\n\n    function getGOVTokenAmount() public view returns (uint256) {\n        return GOVToken.balanceOf(msg.sender);\n    }\n\n}\n",
  "sourcePath": "/home/cantonioupao/susDAO-saveMe/FIN4Contracts/contracts/tokens/REP.sol",
  "compiler": {
    "name": "solc",
    "version": "0.5.17+commit.d19bba13.Emscripten.clang"
  },
  "schemaVersion": "3.3.1",
  "updatedAt": "2020-12-03T18:31:09.925Z",
  "devdoc": {
    "methods": {
      "allowance(address,address)": {
        "details": "See {IERC20-allowance}."
      },
      "balanceOf(address)": {
        "details": "See {IERC20-balanceOf}."
      },
      "burn(uint256)": {
        "details": "Burns a specific amount of tokens.",
        "params": {
          "value": "The amount of token to be burned."
        }
      },
      "burnFrom(address,uint256)": {
        "details": "Burns a specific amount of tokens from the target address and decrements allowance",
        "params": {
          "from": "address The address which you want to send tokens from",
          "value": "uint256 The amount of token to be burned"
        }
      },
      "decimals()": {
        "details": "Returns the number of decimals used to get its user representation. For example, if `decimals` equals `2`, a balance of `505` tokens should be displayed to a user as `5,05` (`505 / 10 ** 2`).     * Tokens usually opt for a value of 18, imitating the relationship between Ether and Wei.     * NOTE: This information is only used for _display_ purposes: it in no way affects any of the arithmetic of the contract, including {IERC20-balanceOf} and {IERC20-transfer}."
      },
      "getGOVFromReputation()": {
        "details": "Used to mint GOV tokens based on existing REP tokens"
      },
      "mint(address,uint256)": {
        "details": "Function to mint tokens",
        "params": {
          "to": "The address that will receive the minted tokens.",
          "value": "The amount of tokens to mint."
        },
        "return": "A boolean that indicates if the operation was successful."
      },
      "name()": {
        "details": "Returns the name of the token."
      },
      "pause()": {
        "details": "called by the owner to pause, triggers stopped state. This means functions transfer, transferFrom, approve, increaseAllowance, and decreasAllowance, will not execute."
      },
      "paused()": {
        "details": "Returns true if the contract is paused, and false otherwise."
      },
      "symbol()": {
        "details": "Returns the symbol of the token, usually a shorter version of the name."
      },
      "totalSupply()": {
        "details": "See {IERC20-totalSupply}."
      },
      "unpause()": {
        "details": "This will undo pause(). The purpose of this declaration is to disable this function, as this function must not be called (unless making an untransferable token transferable again is wanted, but this is currently not an offered feature)."
      }
    }
  },
  "userdoc": {
    "methods": {}
  }
}