{
  "contractName": "SelfApprove",
  "abi": [
    {
      "inputs": [],
      "payable": false,
      "stateMutability": "nonpayable",
      "type": "constructor"
    },
    {
      "constant": true,
      "inputs": [
        {
          "internalType": "address",
          "name": "_addr",
          "type": "address"
        }
      ],
      "name": "addressToString",
      "outputs": [
        {
          "internalType": "string",
          "name": "",
          "type": "string"
        }
      ],
      "payable": false,
      "stateMutability": "pure",
      "type": "function"
    },
    {
      "constant": true,
      "inputs": [
        {
          "internalType": "address[]",
          "name": "arr",
          "type": "address[]"
        },
        {
          "internalType": "address",
          "name": "addrToCheck",
          "type": "address"
        }
      ],
      "name": "arrayContainsAddress",
      "outputs": [
        {
          "internalType": "bool",
          "name": "",
          "type": "bool"
        }
      ],
      "payable": false,
      "stateMutability": "pure",
      "type": "function"
    },
    {
      "constant": false,
      "inputs": [
        {
          "internalType": "address",
          "name": "user",
          "type": "address"
        },
        {
          "internalType": "address",
          "name": "tokenAddrToReceiveVerifierNotice",
          "type": "address"
        },
        {
          "internalType": "uint256",
          "name": "claimId",
          "type": "uint256"
        }
      ],
      "name": "autoCheck",
      "outputs": [],
      "payable": false,
      "stateMutability": "nonpayable",
      "type": "function"
    },
    {
      "constant": false,
      "inputs": [
        {
          "internalType": "address",
          "name": "user",
          "type": "address"
        },
        {
          "internalType": "address",
          "name": "tokenAddrToReceiveVerifierNotice",
          "type": "address"
        },
        {
          "internalType": "uint256",
          "name": "claimId",
          "type": "uint256"
        }
      ],
      "name": "autoSubmitProof",
      "outputs": [],
      "payable": false,
      "stateMutability": "nonpayable",
      "type": "function"
    },
    {
      "constant": true,
      "inputs": [],
      "name": "contractName",
      "outputs": [
        {
          "internalType": "string",
          "name": "",
          "type": "string"
        }
      ],
      "payable": false,
      "stateMutability": "view",
      "type": "function"
    },
    {
      "constant": true,
      "inputs": [],
      "name": "description",
      "outputs": [
        {
          "internalType": "string",
          "name": "",
          "type": "string"
        }
      ],
      "payable": false,
      "stateMutability": "view",
      "type": "function"
    },
    {
      "constant": true,
      "inputs": [
        {
          "internalType": "address",
          "name": "tokenAddress",
          "type": "address"
        }
      ],
      "name": "getCreatorOfToken",
      "outputs": [
        {
          "internalType": "address",
          "name": "",
          "type": "address"
        }
      ],
      "payable": false,
      "stateMutability": "view",
      "type": "function"
    },
    {
      "constant": true,
      "inputs": [],
      "name": "getDescription",
      "outputs": [
        {
          "internalType": "string",
          "name": "",
          "type": "string"
        }
      ],
      "payable": false,
      "stateMutability": "view",
      "type": "function"
    },
    {
      "constant": true,
      "inputs": [],
      "name": "getInfo",
      "outputs": [
        {
          "internalType": "string",
          "name": "",
          "type": "string"
        },
        {
          "internalType": "string",
          "name": "",
          "type": "string"
        },
        {
          "internalType": "string",
          "name": "",
          "type": "string"
        },
        {
          "internalType": "string",
          "name": "",
          "type": "string"
        }
      ],
      "payable": false,
      "stateMutability": "view",
      "type": "function"
    },
    {
      "constant": true,
      "inputs": [],
      "name": "getName",
      "outputs": [
        {
          "internalType": "string",
          "name": "",
          "type": "string"
        }
      ],
      "payable": false,
      "stateMutability": "view",
      "type": "function"
    },
    {
      "constant": true,
      "inputs": [],
      "name": "getParameterForTokenCreatorToSetEncoded",
      "outputs": [
        {
          "internalType": "string",
          "name": "",
          "type": "string"
        }
      ],
      "payable": false,
      "stateMutability": "pure",
      "type": "function"
    },
    {
      "constant": true,
      "inputs": [],
      "name": "isAutoCheckable",
      "outputs": [
        {
          "internalType": "bool",
          "name": "",
          "type": "bool"
        }
      ],
      "payable": false,
      "stateMutability": "view",
      "type": "function"
    },
    {
      "constant": true,
      "inputs": [],
      "name": "isAutoInitiable",
      "outputs": [
        {
          "internalType": "bool",
          "name": "",
          "type": "bool"
        }
      ],
      "payable": false,
      "stateMutability": "view",
      "type": "function"
    },
    {
      "constant": true,
      "inputs": [],
      "name": "name",
      "outputs": [
        {
          "internalType": "string",
          "name": "",
          "type": "string"
        }
      ],
      "payable": false,
      "stateMutability": "view",
      "type": "function"
    },
    {
      "constant": false,
      "inputs": [
        {
          "internalType": "string",
          "name": "_contractName",
          "type": "string"
        }
      ],
      "name": "setContractName",
      "outputs": [],
      "payable": false,
      "stateMutability": "nonpayable",
      "type": "function"
    },
    {
      "constant": false,
      "inputs": [
        {
          "internalType": "address",
          "name": "tokenAddrToReceiveVerifierNotice",
          "type": "address"
        },
        {
          "internalType": "uint256",
          "name": "claimId",
          "type": "uint256"
        }
      ],
      "name": "submitProof_SelfApprove",
      "outputs": [],
      "payable": false,
      "stateMutability": "nonpayable",
      "type": "function"
    }
  ],
  "bytecode": "0x60806040526003805461ffff191690553480156200001c57600080fd5b5060408051808201909152601d8082527f73632e76657269666965722e73656c662d617070726f76652e6e616d65000000602090920191825262000063916001916200009b565b506040518060600160405280602481526020016200103a60249139805162000094916002916020909101906200009b565b5062000140565b828054600181600116156101000203166002900490600052602060002090601f016020900481019282601f10620000de57805160ff19168380011785556200010e565b828001600101855582156200010e579182015b828111156200010e578251825591602001919060010190620000f1565b506200011c92915062000120565b5090565b6200013d91905b808211156200011c576000815560010162000127565b90565b610eea80620001506000396000f3fe608060405234801561001057600080fd5b50600436106101005760003560e01c80636c71d54211610097578063ae18e0a511610066578063ae18e0a514610536578063be58ba9b1461056c578063c05ebcc514610598578063ffc5daef1461053657610100565b80636c71d542146104705780637284e4161461047857806375d0c0dc146104805780639259360c1461048857610100565b806336790932116100d3578063367909321461023a5780634d1a1d5d1461027c5780635a9b0b89146102985780635e57966d1461044a57610100565b806306fdde03146101055780630b5ee0061461018257806317d7de7c1461022a5780631a09254114610232575b600080fd5b61010d6105a0565b6040805160208082528351818301528351919283929083019185019080838360005b8381101561014757818101518382015260200161012f565b50505050905090810190601f1680156101745780820380516001836020036101000a031916815260200191505b509250505060405180910390f35b6102286004803603602081101561019857600080fd5b8101906020810181356401000000008111156101b357600080fd5b8201836020820111156101c557600080fd5b803590602001918460018302840111640100000000831117156101e757600080fd5b91908080601f01602080910402602001604051908101604052809392919081815260200183838082843760009201919091525092955061062d945050505050565b005b61010d610644565b61010d6106da565b6102606004803603602081101561025057600080fd5b50356001600160a01b0316610738565b604080516001600160a01b039092168252519081900360200190f35b6102846107a5565b604080519115158252519081900360200190f35b6102a06107b3565b6040518080602001806020018060200180602001858103855289818151815260200191508051906020019080838360005b838110156102e95781810151838201526020016102d1565b50505050905090810190601f1680156103165780820380516001836020036101000a031916815260200191505b5085810384528851815288516020918201918a019080838360005b83811015610349578181015183820152602001610331565b50505050905090810190601f1680156103765780820380516001836020036101000a031916815260200191505b50858103835287518152875160209182019189019080838360005b838110156103a9578181015183820152602001610391565b50505050905090810190601f1680156103d65780820380516001836020036101000a031916815260200191505b50858103825286518152865160209182019188019080838360005b838110156104095781810151838201526020016103f1565b50505050905090810190601f1680156104365780820380516001836020036101000a031916815260200191505b509850505050505050505060405180910390f35b61010d6004803603602081101561046057600080fd5b50356001600160a01b031661097e565b61010d610afa565b61010d610b0c565b61010d610b64565b6102846004803603604081101561049e57600080fd5b8101906020810181356401000000008111156104b957600080fd5b8201836020820111156104cb57600080fd5b803590602001918460208302840111640100000000831117156104ed57600080fd5b919080806020026020016040519081016040528093929190818152602001838360200280828437600092019190915250929550505090356001600160a01b03169150610bbf9050565b6102286004803603606081101561054c57600080fd5b506001600160a01b03813581169160208101359091169060400135610c17565b6102286004803603604081101561058257600080fd5b506001600160a01b038135169060200135610c1c565b610284610c37565b60018054604080516020600284861615610100026000190190941693909304601f810184900484028201840190925281815292918301828280156106255780601f106105fa57610100808354040283529160200191610625565b820191906000526020600020905b81548152906001019060200180831161060857829003601f168201915b505050505081565b8051610640906000906020840190610e1d565b5050565b60018054604080516020601f600260001961010087891615020190951694909404938401819004810282018101909252828152606093909290918301828280156106cf5780601f106106a4576101008083540402835291602001916106cf565b820191906000526020600020905b8154815290600101906020018083116106b257829003601f168201915b505050505090505b90565b60028054604080516020601f60001961010060018716150201909416859004938401819004810282018101909252828152606093909290918301828280156106cf5780601f106106a4576101008083540402835291602001916106cf565b6000816001600160a01b0316639c6790176040518163ffffffff1660e01b815260040160206040518083038186803b15801561077357600080fd5b505afa158015610787573d6000803e3d6000fd5b505050506040513d602081101561079d57600080fd5b505192915050565b600354610100900460ff1681565b6060806060806000600160026107c7610afa565b8354604080516020601f6002600019610100600188161502019095169490940493840181900481028201810190925282815291869183018282801561084d5780601f106108225761010080835404028352916020019161084d565b820191906000526020600020905b81548152906001019060200180831161083057829003601f168201915b5050865460408051602060026001851615610100026000190190941693909304601f8101849004840282018401909252818152959950889450925084019050828280156108db5780601f106108b0576101008083540402835291602001916108db565b820191906000526020600020905b8154815290600101906020018083116108be57829003601f168201915b5050855460408051602060026001851615610100026000190190941693909304601f8101849004840282018401909252818152959850879450925084019050828280156109695780601f1061093e57610100808354040283529160200191610969565b820191906000526020600020905b81548152906001019060200180831161094c57829003601f168201915b50505050509150935093509350935090919293565b604080518082018252601081526f181899199a1a9b1b9c1cb0b131b232b360811b60208201528151602a80825260608281019094526001600160a01b03851692918491602082018180388339019050509050600360fc1b816000815181106109e257fe5b60200101906001600160f81b031916908160001a905350600f60fb1b81600181518110610a0b57fe5b60200101906001600160f81b031916908160001a90535060005b6014811015610af1578260048583600c0160208110610a4057fe5b1a60f81b6001600160f81b031916901c60f81c60ff1681518110610a6057fe5b602001015160f81c60f81b828260020260020181518110610a7d57fe5b60200101906001600160f81b031916908160001a905350828482600c0160208110610aa457fe5b825191901a600f16908110610ab557fe5b602001015160f81c60f81b828260020260030181518110610ad257fe5b60200101906001600160f81b031916908160001a905350600101610a25565b50949350505050565b60408051602081019091526000815290565b6002805460408051602060018416156101000260001901909316849004601f810184900484028201840190925281815292918301828280156106255780601f106105fa57610100808354040283529160200191610625565b6000805460408051602060026001851615610100026000190190941693909304601f810184900484028201840190925281815292918301828280156106255780601f106105fa57610100808354040283529160200191610625565b6000805b8351811015610c0b57826001600160a01b0316848281518110610be257fe5b60200260200101516001600160a01b03161415610c03576001915050610c11565b600101610bc3565b50600090505b92915050565b505050565b61064030838360405180602001604052806000815250610c40565b60035460ff1681565b610c4a8383610d33565b50826001600160a01b031663bdc656e98584846040518463ffffffff1660e01b815260040180846001600160a01b03166001600160a01b0316815260200183815260200180602001828103825283818151815260200191508051906020019080838360005b83811015610cc7578181015183820152602001610caf565b50505050905090810190601f168015610cf45780820380516001836020036101000a031916815260200191505b50945050505050600060405180830381600087803b158015610d1557600080fd5b505af1158015610d29573d6000803e3d6000fd5b5050505050505050565b6040805162379c0960e91b815230600482015260248101839052905160009182916001600160a01b03861691636f38120091604480830192602092919082900301818787803b158015610d8557600080fd5b505af1158015610d99573d6000803e3d6000fd5b505050506040513d6020811015610daf57600080fd5b5051905060028114801590610dc5575080600314155b610e16576040805162461bcd60e51b815260206004820181905260248201527f5468697320766572696669657220697320616c72656164792064656369646564604482015290519081900360640190fd5b5092915050565b828054600181600116156101000203166002900490600052602060002090601f016020900481019282601f10610e5e57805160ff1916838001178555610e8b565b82800160010185558215610e8b579182015b82811115610e8b578251825591602001919060010190610e70565b50610e97929150610e9b565b5090565b6106d791905b80821115610e975760008155600101610ea156fea265627a7a7231582083d5a996e11def71aaf747eac94d866a8f09a910876697bc862304b079846bee64736f6c6343000511003273632e76657269666965722e73656c662d617070726f76652e6465736372697074696f6e",
  "source": "pragma solidity ^0.5.17;\n\nimport \"contracts/verifiers/Fin4BaseVerifierType.sol\";\n\ncontract SelfApprove is Fin4BaseVerifierType {\n\n    constructor() public  {\n        name = \"sc.verifier.self-approve.name\";\n        description = \"sc.verifier.self-approve.description\";\n    }\n\n    function submitProof_SelfApprove(address tokenAddrToReceiveVerifierNotice, uint claimId) public {\n        _sendApprovalNotice(address(this), tokenAddrToReceiveVerifierNotice, claimId, \"\");\n    }\n\n}\n",
  "sourcePath": "/home/cantonioupao/susDAO-saveMe/FIN4Contracts/contracts/verifiers/onchain/interactive/SelfApprove.sol",
  "compiler": {
    "name": "solc",
    "version": "0.5.17+commit.d19bba13.Emscripten.clang"
  },
  "schemaVersion": "3.3.1",
  "updatedAt": "2020-12-03T18:27:59.002Z",
  "devdoc": {
    "methods": {}
  },
  "userdoc": {
    "methods": {}
  }
}