{
  "contractName": "SensorOneTimeSignal",
  "abi": [
    {
      "inputs": [],
      "payable": false,
      "stateMutability": "nonpayable",
      "type": "constructor"
    },
    {
      "constant": true,
      "inputs": [],
      "name": "Fin4MessagingAddress",
      "outputs": [
        {
          "internalType": "address",
          "name": "",
          "type": "address"
        }
      ],
      "payable": false,
      "stateMutability": "view",
      "type": "function"
    },
    {
      "constant": true,
      "inputs": [],
      "name": "Fin4OracleHubAddress",
      "outputs": [
        {
          "internalType": "address",
          "name": "",
          "type": "address"
        }
      ],
      "payable": false,
      "stateMutability": "view",
      "type": "function"
    },
    {
      "constant": true,
      "inputs": [
        {
          "internalType": "address",
          "name": "_addr",
          "type": "address"
        }
      ],
      "name": "addressToString",
      "outputs": [
        {
          "internalType": "string",
          "name": "",
          "type": "string"
        }
      ],
      "payable": false,
      "stateMutability": "pure",
      "type": "function"
    },
    {
      "constant": true,
      "inputs": [
        {
          "internalType": "address[]",
          "name": "arr",
          "type": "address[]"
        },
        {
          "internalType": "address",
          "name": "addrToCheck",
          "type": "address"
        }
      ],
      "name": "arrayContainsAddress",
      "outputs": [
        {
          "internalType": "bool",
          "name": "",
          "type": "bool"
        }
      ],
      "payable": false,
      "stateMutability": "pure",
      "type": "function"
    },
    {
      "constant": false,
      "inputs": [
        {
          "internalType": "address",
          "name": "user",
          "type": "address"
        },
        {
          "internalType": "address",
          "name": "tokenAddrToReceiveVerifierNotice",
          "type": "address"
        },
        {
          "internalType": "uint256",
          "name": "claimId",
          "type": "uint256"
        }
      ],
      "name": "autoCheck",
      "outputs": [],
      "payable": false,
      "stateMutability": "nonpayable",
      "type": "function"
    },
    {
      "constant": false,
      "inputs": [
        {
          "internalType": "address",
          "name": "user",
          "type": "address"
        },
        {
          "internalType": "address",
          "name": "tokenAddrToReceiveVerifierNotice",
          "type": "address"
        },
        {
          "internalType": "uint256",
          "name": "claimId",
          "type": "uint256"
        }
      ],
      "name": "autoSubmitProof",
      "outputs": [],
      "payable": false,
      "stateMutability": "nonpayable",
      "type": "function"
    },
    {
      "constant": true,
      "inputs": [],
      "name": "contractName",
      "outputs": [
        {
          "internalType": "string",
          "name": "",
          "type": "string"
        }
      ],
      "payable": false,
      "stateMutability": "view",
      "type": "function"
    },
    {
      "constant": true,
      "inputs": [],
      "name": "description",
      "outputs": [
        {
          "internalType": "string",
          "name": "",
          "type": "string"
        }
      ],
      "payable": false,
      "stateMutability": "view",
      "type": "function"
    },
    {
      "constant": true,
      "inputs": [
        {
          "internalType": "address",
          "name": "tokenAddress",
          "type": "address"
        }
      ],
      "name": "getCreatorOfToken",
      "outputs": [
        {
          "internalType": "address",
          "name": "",
          "type": "address"
        }
      ],
      "payable": false,
      "stateMutability": "view",
      "type": "function"
    },
    {
      "constant": true,
      "inputs": [],
      "name": "getDescription",
      "outputs": [
        {
          "internalType": "string",
          "name": "",
          "type": "string"
        }
      ],
      "payable": false,
      "stateMutability": "view",
      "type": "function"
    },
    {
      "constant": true,
      "inputs": [],
      "name": "getInfo",
      "outputs": [
        {
          "internalType": "string",
          "name": "",
          "type": "string"
        },
        {
          "internalType": "string",
          "name": "",
          "type": "string"
        },
        {
          "internalType": "string",
          "name": "",
          "type": "string"
        },
        {
          "internalType": "string",
          "name": "",
          "type": "string"
        }
      ],
      "payable": false,
      "stateMutability": "view",
      "type": "function"
    },
    {
      "constant": true,
      "inputs": [],
      "name": "getName",
      "outputs": [
        {
          "internalType": "string",
          "name": "",
          "type": "string"
        }
      ],
      "payable": false,
      "stateMutability": "view",
      "type": "function"
    },
    {
      "constant": true,
      "inputs": [],
      "name": "isAutoCheckable",
      "outputs": [
        {
          "internalType": "bool",
          "name": "",
          "type": "bool"
        }
      ],
      "payable": false,
      "stateMutability": "view",
      "type": "function"
    },
    {
      "constant": true,
      "inputs": [],
      "name": "isAutoInitiable",
      "outputs": [
        {
          "internalType": "bool",
          "name": "",
          "type": "bool"
        }
      ],
      "payable": false,
      "stateMutability": "view",
      "type": "function"
    },
    {
      "constant": true,
      "inputs": [],
      "name": "name",
      "outputs": [
        {
          "internalType": "string",
          "name": "",
          "type": "string"
        }
      ],
      "payable": false,
      "stateMutability": "view",
      "type": "function"
    },
    {
      "constant": true,
      "inputs": [
        {
          "internalType": "string",
          "name": "",
          "type": "string"
        },
        {
          "internalType": "uint256",
          "name": "",
          "type": "uint256"
        }
      ],
      "name": "sensorIDtoTokens",
      "outputs": [
        {
          "internalType": "address",
          "name": "",
          "type": "address"
        }
      ],
      "payable": false,
      "stateMutability": "view",
      "type": "function"
    },
    {
      "constant": false,
      "inputs": [
        {
          "internalType": "string",
          "name": "_contractName",
          "type": "string"
        }
      ],
      "name": "setContractName",
      "outputs": [],
      "payable": false,
      "stateMutability": "nonpayable",
      "type": "function"
    },
    {
      "constant": true,
      "inputs": [
        {
          "internalType": "address",
          "name": "",
          "type": "address"
        }
      ],
      "name": "tokenToSensorID",
      "outputs": [
        {
          "internalType": "string",
          "name": "",
          "type": "string"
        }
      ],
      "payable": false,
      "stateMutability": "view",
      "type": "function"
    },
    {
      "constant": false,
      "inputs": [
        {
          "internalType": "address",
          "name": "_Fin4OracleHubAddress",
          "type": "address"
        }
      ],
      "name": "setFin4OracleHubAddress",
      "outputs": [],
      "payable": false,
      "stateMutability": "nonpayable",
      "type": "function"
    },
    {
      "constant": false,
      "inputs": [
        {
          "internalType": "address",
          "name": "Fin4MessagingAddr",
          "type": "address"
        }
      ],
      "name": "setFin4MessagingAddress",
      "outputs": [],
      "payable": false,
      "stateMutability": "nonpayable",
      "type": "function"
    },
    {
      "constant": false,
      "inputs": [
        {
          "internalType": "string",
          "name": "sensorID",
          "type": "string"
        },
        {
          "internalType": "uint256",
          "name": "timestamp",
          "type": "uint256"
        },
        {
          "internalType": "string",
          "name": "data",
          "type": "string"
        }
      ],
      "name": "sensorSignalReceived",
      "outputs": [],
      "payable": false,
      "stateMutability": "nonpayable",
      "type": "function"
    },
    {
      "constant": false,
      "inputs": [
        {
          "internalType": "address",
          "name": "tokenAddrToReceiveVerifierNotice",
          "type": "address"
        },
        {
          "internalType": "uint256",
          "name": "claimId",
          "type": "uint256"
        },
        {
          "internalType": "address",
          "name": "claimer",
          "type": "address"
        },
        {
          "internalType": "string",
          "name": "message",
          "type": "string"
        }
      ],
      "name": "submitProofViaSensor",
      "outputs": [],
      "payable": false,
      "stateMutability": "nonpayable",
      "type": "function"
    },
    {
      "constant": true,
      "inputs": [],
      "name": "getParameterForTokenCreatorToSetEncoded",
      "outputs": [
        {
          "internalType": "string",
          "name": "",
          "type": "string"
        }
      ],
      "payable": false,
      "stateMutability": "pure",
      "type": "function"
    },
    {
      "constant": false,
      "inputs": [
        {
          "internalType": "address",
          "name": "token",
          "type": "address"
        },
        {
          "internalType": "string",
          "name": "sensorID",
          "type": "string"
        }
      ],
      "name": "setParameters",
      "outputs": [],
      "payable": false,
      "stateMutability": "nonpayable",
      "type": "function"
    }
  ],
  "bytecode": "0x60806040526003805461ffff191690553480156200001c57600080fd5b50604051806060016040528060278152602001620017f16027913980516200004d9160019160209091019062000085565b506040518060600160405280602e815260200162001818602e913980516200007e9160029160209091019062000085565b506200012a565b828054600181600116156101000203166002900490600052602060002090601f016020900481019282601f10620000c857805160ff1916838001178555620000f8565b82800160010185558215620000f8579182015b82811115620000f8578251825591602001919060010190620000db565b50620001069291506200010a565b5090565b6200012791905b8082111562000106576000815560010162000111565b90565b6116b7806200013a6000396000f3fe608060405234801561001057600080fd5b50600436106101585760003560e01c806375d0c0dc116100c3578063d0f3de981161007c578063d0f3de981461076e578063d928f6a514610794578063db16b968146108c5578063e4ad4acd14610988578063f2b4184b14610990578063ffc5daef1461073057610158565b806375d0c0dc146105a25780638bbfc6eb146105aa5780639259360c146105d0578063954c24471461067c578063ae18e0a514610730578063c05ebcc51461076657610158565b80635a9b0b89116101155780635a9b0b89146102ee5780635e57966d146104a05780636c6c3d1b146104c65780636c71d5421461056c5780637284e41614610574578063729e6a921461057c57610158565b806306fdde031461015d5780630b5ee006146101da57806317d7de7c146102805780631a0925411461028857806336790932146102905780634d1a1d5d146102d2575b600080fd5b610165610998565b6040805160208082528351818301528351919283929083019185019080838360005b8381101561019f578181015183820152602001610187565b50505050905090810190601f1680156101cc5780820380516001836020036101000a031916815260200191505b509250505060405180910390f35b61027e600480360360208110156101f057600080fd5b810190602081018135600160201b81111561020a57600080fd5b82018360208201111561021c57600080fd5b803590602001918460018302840111600160201b8311171561023d57600080fd5b91908080601f016020809104026020016040519081016040528093929190818152602001838380828437600092019190915250929550610a25945050505050565b005b610165610a3c565b610165610ad2565b6102b6600480360360208110156102a657600080fd5b50356001600160a01b0316610b30565b604080516001600160a01b039092168252519081900360200190f35b6102da610b9d565b604080519115158252519081900360200190f35b6102f6610bab565b6040518080602001806020018060200180602001858103855289818151815260200191508051906020019080838360005b8381101561033f578181015183820152602001610327565b50505050905090810190601f16801561036c5780820380516001836020036101000a031916815260200191505b5085810384528851815288516020918201918a019080838360005b8381101561039f578181015183820152602001610387565b50505050905090810190601f1680156103cc5780820380516001836020036101000a031916815260200191505b50858103835287518152875160209182019189019080838360005b838110156103ff5781810151838201526020016103e7565b50505050905090810190601f16801561042c5780820380516001836020036101000a031916815260200191505b50858103825286518152865160209182019188019080838360005b8381101561045f578181015183820152602001610447565b50505050905090810190601f16801561048c5780820380516001836020036101000a031916815260200191505b509850505050505050505060405180910390f35b610165600480360360208110156104b657600080fd5b50356001600160a01b0316610d76565b6102b6600480360360408110156104dc57600080fd5b810190602081018135600160201b8111156104f657600080fd5b82018360208201111561050857600080fd5b803590602001918460018302840111600160201b8311171561052957600080fd5b91908080601f0160208091040260200160405190810160405280939291908181526020018383808284376000920191909152509295505091359250610ef2915050565b610165610f36565b610165610f56565b61027e6004803603602081101561059257600080fd5b50356001600160a01b0316610fae565b610165610fd8565b61027e600480360360208110156105c057600080fd5b50356001600160a01b0316611033565b6102da600480360360408110156105e657600080fd5b810190602081018135600160201b81111561060057600080fd5b82018360208201111561061257600080fd5b803590602001918460208302840111600160201b8311171561063357600080fd5b919080806020026020016040519081016040528093929190818152602001838360200280828437600092019190915250929550505090356001600160a01b031691506110559050565b61027e6004803603604081101561069257600080fd5b6001600160a01b038235169190810190604081016020820135600160201b8111156106bc57600080fd5b8201836020820111156106ce57600080fd5b803590602001918460018302840111600160201b831117156106ef57600080fd5b91908080601f0160208091040260200160405190810160405280939291908181526020018383808284376000920191909152509295506110ad945050505050565b61027e6004803603606081101561074657600080fd5b506001600160a01b03813581169160208101359091169060400135611235565b6102da61123a565b6101656004803603602081101561078457600080fd5b50356001600160a01b0316611243565b61027e600480360360608110156107aa57600080fd5b810190602081018135600160201b8111156107c457600080fd5b8201836020820111156107d657600080fd5b803590602001918460018302840111600160201b831117156107f757600080fd5b91908080601f01602080910402602001604051908101604052809392919081815260200183838082843760009201919091525092958435959094909350604081019250602001359050600160201b81111561085157600080fd5b82018360208201111561086357600080fd5b803590602001918460018302840111600160201b8311171561088457600080fd5b91908080601f016020809104026020016040519081016040528093929190818152602001838380828437600092019190915250929550611235945050505050565b61027e600480360360808110156108db57600080fd5b6001600160a01b038235811692602081013592604082013590921691810190608081016060820135600160201b81111561091457600080fd5b82018360208201111561092657600080fd5b803590602001918460018302840111600160201b8311171561094757600080fd5b91908080601f0160208091040260200160405190810160405280939291908181526020018383808284376000920191909152509295506112ab945050505050565b6102b66113be565b6102b66113cd565b60018054604080516020600284861615610100026000190190941693909304601f81018490048402820184019092528181529291830182828015610a1d5780601f106109f257610100808354040283529160200191610a1d565b820191906000526020600020905b815481529060010190602001808311610a0057829003601f168201915b505050505081565b8051610a389060009060208401906115bf565b5050565b60018054604080516020601f60026000196101008789161502019095169490940493840181900481028201810190925282815260609390929091830182828015610ac75780601f10610a9c57610100808354040283529160200191610ac7565b820191906000526020600020905b815481529060010190602001808311610aaa57829003601f168201915b505050505090505b90565b60028054604080516020601f6000196101006001871615020190941685900493840181900481028201810190925282815260609390929091830182828015610ac75780601f10610a9c57610100808354040283529160200191610ac7565b6000816001600160a01b0316639c6790176040518163ffffffff1660e01b815260040160206040518083038186803b158015610b6b57600080fd5b505afa158015610b7f573d6000803e3d6000fd5b505050506040513d6020811015610b9557600080fd5b505192915050565b600354610100900460ff1681565b606080606080600060016002610bbf610f36565b8354604080516020601f60026000196101006001881615020190951694909404938401819004810282018101909252828152918691830182828015610c455780601f10610c1a57610100808354040283529160200191610c45565b820191906000526020600020905b815481529060010190602001808311610c2857829003601f168201915b5050865460408051602060026001851615610100026000190190941693909304601f810184900484028201840190925281815295995088945092508401905082828015610cd35780601f10610ca857610100808354040283529160200191610cd3565b820191906000526020600020905b815481529060010190602001808311610cb657829003601f168201915b5050855460408051602060026001851615610100026000190190941693909304601f810184900484028201840190925281815295985087945092508401905082828015610d615780601f10610d3657610100808354040283529160200191610d61565b820191906000526020600020905b815481529060010190602001808311610d4457829003601f168201915b50505050509150935093509350935090919293565b604080518082018252601081526f181899199a1a9b1b9c1cb0b131b232b360811b60208201528151602a80825260608281019094526001600160a01b03851692918491602082018180388339019050509050600360fc1b81600081518110610dda57fe5b60200101906001600160f81b031916908160001a905350600f60fb1b81600181518110610e0357fe5b60200101906001600160f81b031916908160001a90535060005b6014811015610ee9578260048583600c0160208110610e3857fe5b1a60f81b6001600160f81b031916901c60f81c60ff1681518110610e5857fe5b602001015160f81c60f81b828260020260020181518110610e7557fe5b60200101906001600160f81b031916908160001a905350828482600c0160208110610e9c57fe5b825191901a600f16908110610ead57fe5b602001015160f81c60f81b828260020260030181518110610eca57fe5b60200101906001600160f81b031916908160001a905350600101610e1d565b50949350505050565b81516020818401810180516006825292820191850191909120919052805482908110610f1a57fe5b6000918252602090912001546001600160a01b03169150829050565b60606040518060600160405280602b8152602001611658602b9139905090565b6002805460408051602060018416156101000260001901909316849004601f81018490048402820184019092528181529291830182828015610a1d5780601f106109f257610100808354040283529160200191610a1d565b600380546001600160a01b03909216620100000262010000600160b01b0319909216919091179055565b6000805460408051602060026001851615610100026000190190941693909304601f81018490048402820184019092528181529291830182828015610a1d5780601f106109f257610100808354040283529160200191610a1d565b600480546001600160a01b0319166001600160a01b0392909216919091179055565b6000805b83518110156110a157826001600160a01b031684828151811061107857fe5b60200260200101516001600160a01b031614156110995760019150506110a7565b600101611059565b50600090505b92915050565b6001600160a01b038216600090815260056020908152604090912082516110d6928401906115bf565b506006816040518082805190602001908083835b602083106111095780518252601f1990920191602091820191016110ea565b51815160209384036101000a6000190180199092169116179052920194855250604080519485900382018520805460018101825560009182528382200180546001600160a01b0319166001600160a01b038a811691909117909155600354630d3f2cb360e11b8852306004890181815260248a019586528a5160448b01528a516201000090930490931698631a7e596698509096508995929493606490910192860191908190849084905b838110156111cc5781810151838201526020016111b4565b50505050905090810190601f1680156111f95780820380516001836020036101000a031916815260200191505b509350505050600060405180830381600087803b15801561121957600080fd5b505af115801561122d573d6000803e3d6000fd5b505050505050565b505050565b60035460ff1681565b60056020908152600091825260409182902080548351601f600260001961010060018616150201909316929092049182018490048402810184019094528084529091830182828015610a1d5780601f106109f257610100808354040283529160200191610a1d565b600480546040516305ae7f9760e41b8152309281018381526001600160a01b0386811660248401526060604484019081528651606485015286519190941694635ae7f9709490938893889390929160840190602085019080838360005b83811015611320578181015183820152602001611308565b50505050905090810190601f16801561134d5780820380516001836020036101000a031916815260200191505b50945050505050602060405180830381600087803b15801561136e57600080fd5b505af1158015611382573d6000803e3d6000fd5b505050506040513d602081101561139857600080fd5b50506040805160208101909152600081526113b8903090869086906113e2565b50505050565b6004546001600160a01b031681565b6003546201000090046001600160a01b031681565b6113ec83836114d5565b50826001600160a01b031663bdc656e98584846040518463ffffffff1660e01b815260040180846001600160a01b03166001600160a01b0316815260200183815260200180602001828103825283818151815260200191508051906020019080838360005b83811015611469578181015183820152602001611451565b50505050905090810190601f1680156114965780820380516001836020036101000a031916815260200191505b50945050505050600060405180830381600087803b1580156114b757600080fd5b505af11580156114cb573d6000803e3d6000fd5b5050505050505050565b6040805162379c0960e91b815230600482015260248101839052905160009182916001600160a01b03861691636f38120091604480830192602092919082900301818787803b15801561152757600080fd5b505af115801561153b573d6000803e3d6000fd5b505050506040513d602081101561155157600080fd5b5051905060028114801590611567575080600314155b6115b8576040805162461bcd60e51b815260206004820181905260248201527f5468697320766572696669657220697320616c72656164792064656369646564604482015290519081900360640190fd5b5092915050565b828054600181600116156101000203166002900490600052602060002090601f016020900481019282601f1061160057805160ff191683800117855561162d565b8280016001018555821561162d579182015b8281111561162d578251825591602001919060010190611612565b5061163992915061163d565b5090565b610acf91905b80821115611639576000815560010161164356fe737472696e673a53656e736f722049443a4944206f662074686520617070726f76696e672073656e736f72a265627a7a72315820455ead8961d360212f78f18d1c94e1d28c61f7d1762b22be55632558d4bd2ecb64736f6c6343000511003273632e76657269666965722e73656e736f722d6f6e652d74696d652d7369676e616c2e6e616d6573632e76657269666965722e73656e736f722d6f6e652d74696d652d7369676e616c2e6465736372697074696f6e",
  "source": "pragma solidity ^0.5.17;\n\nimport \"contracts/verifiers/Fin4BaseVerifierType.sol\";\nimport \"contracts/Fin4OracleHub.sol\";\nimport \"contracts/Fin4TokenBase.sol\";\nimport \"contracts/Fin4Messaging.sol\";\n\ncontract SensorOneTimeSignal is Fin4BaseVerifierType {\n\n     constructor() public  {\n        name = \"sc.verifier.sensor-one-time-signal.name\";\n        description = \"sc.verifier.sensor-one-time-signal.description\";\n    }\n\n    address public Fin4OracleHubAddress;\n    address public Fin4MessagingAddress;\n\n    function setFin4OracleHubAddress(address _Fin4OracleHubAddress) public {\n        Fin4OracleHubAddress = _Fin4OracleHubAddress;\n    }\n\n    function setFin4MessagingAddress(address Fin4MessagingAddr) public {\n        Fin4MessagingAddress = Fin4MessagingAddr;\n    }\n    // Function called to provide sensor data, It calls submitProofViaSensor automatically\n    function sensorSignalReceived(string memory sensorID, uint timestamp, string memory data) public {\n        /* // TODO reactivate\n        for (uint i = 0; i < sensorIDtoTokens[sensorID].length; i ++) {\n            address token = sensorIDtoTokens[sensorID][i];\n            uint[] memory claimIDs;\n            address[] memory claimers;\n            (claimIDs, claimers) = Fin4TokenBase(token).getUnrejectedClaimsWithThisVerifierTypeUnapproved(address(this));\n            for (uint j = 0; j < claimIDs.length; j ++) {\n                string memory message = string(abi.encodePacked(\n                    \"Your claim on token '\", Fin4TokenStub(token).name(), \"' got approved from sensor '\",\n                    sensorID, \"' via verifier type 'SensorOneTimeSignal' at timestamp \",\n                    uint2str(timestamp), \". Message from sensor: \", data));\n                submitProofViaSensor(token, claimIDs[j], claimers[j], message);\n            }\n        }\n        */\n    }\n\n    /* // Archived here from Fin4TokenBase\n    function getUnrejectedClaimsWithThisVerifierTypeUnapproved(address verifierType) public view returns(uint[] memory, address[] memory) {\n        uint count = 0;\n        for (uint i = 0; i < nextClaimId; i ++) {\n            if (!claims[i].gotRejected && verifierTypeIsRequired(verifierType, i) && !claims[i].verifierStatuses[verifierType]) {\n                count ++;\n            }\n        }\n        uint[] memory claimIDs = new uint[](count);\n        address[] memory claimers = new address[](count);\n        count = 0;\n        for (uint i = 0; i < nextClaimId; i ++) {\n            if (!claims[i].gotRejected && verifierTypeIsRequired(verifierType, i) && !claims[i].verifierStatuses[verifierType]) {\n                claimIDs[count] = i;\n                claimers[count] = claims[i].claimer;\n                count ++;\n            }\n        }\n        return (claimIDs, claimers);\n    }\n    */\n\n    function submitProofViaSensor(address tokenAddrToReceiveVerifierNotice, uint claimId, address claimer, string memory message) public {\n        // TODO build message here? Requires all the arguments to be shifted around...\n        Fin4Messaging(Fin4MessagingAddress).addInfoMessage(address(this), claimer, message);\n        _sendApprovalNotice(address(this), tokenAddrToReceiveVerifierNotice, claimId, \"\");\n        // Rejection makes no sense? Only a timeout maybe? Or token creator can turn it off?\n        // Taking the sensor offline as action could trigger that... #ConceptualDecision\n    }\n\n    // @Override\n    function getParameterForTokenCreatorToSetEncoded() public pure returns(string memory) {\n        return \"string:Sensor ID:ID of the approving sensor\";\n    }\n\n    mapping (address => string) public tokenToSensorID;\n    mapping (string => address[]) public sensorIDtoTokens;\n\n    function setParameters(address token, string memory sensorID) public {\n        tokenToSensorID[token] = sensorID;\n        sensorIDtoTokens[sensorID].push(token);\n        Fin4OracleHub(Fin4OracleHubAddress).subscribeToSensorSignals(address(this), sensorID);\n    }\n\n    function _getSensorID(address token) private view returns(string memory) {\n        return tokenToSensorID[token];\n    }\n}\n",
  "sourcePath": "/home/cantonioupao/susDAO-saveMe/FIN4Contracts/contracts/verifiers/inactive/SensorOneTimeSignal.sol",
  "compiler": {
    "name": "solc",
    "version": "0.5.17+commit.d19bba13.Emscripten.clang"
  },
  "schemaVersion": "3.3.1",
  "updatedAt": "2020-12-03T18:27:58.988Z",
  "devdoc": {
    "methods": {}
  },
  "userdoc": {
    "methods": {}
  }
}