{
  "contractName": "Trigonometry",
  "abi": [
    {
      "constant": true,
      "inputs": [
        {
          "internalType": "uint16",
          "name": "_angle",
          "type": "uint16"
        }
      ],
      "name": "sin",
      "outputs": [
        {
          "internalType": "int256",
          "name": "",
          "type": "int256"
        }
      ],
      "payable": false,
      "stateMutability": "pure",
      "type": "function"
    },
    {
      "constant": true,
      "inputs": [
        {
          "internalType": "uint16",
          "name": "_angle",
          "type": "uint16"
        }
      ],
      "name": "cos",
      "outputs": [
        {
          "internalType": "int256",
          "name": "",
          "type": "int256"
        }
      ],
      "payable": false,
      "stateMutability": "pure",
      "type": "function"
    }
  ],
  "bytecode": "0x610211610026600b82828239805160001a60731461001957fe5b30600052607381538281f3fe73000000000000000000000000000000000000000030146080604052600436106100405760003560e01c8063564a6b9414610045578063f985779c14610078575b600080fd5b6100666004803603602081101561005b57600080fd5b503561ffff16610099565b60408051918252519081900360200190f35b6100666004803603602081101561008e57600080fd5b503561ffff166100ce565b600061300061ffff831611156100b757612fff1991909103906100bf565b611000820191505b6100c8826100ce565b92915050565b6000806100e161ffff841660088361016d565b905060006100f661ffff85166004600861016d565b9050611000841615612000851615158161011257600f92909203915b600061011d8461018c565b61ffff16905060006101318560010161018c565b61ffff169050610100828203870204600085156101515750828101610156565b508082035b8415610160576000035b9998505050505050505050565b600060018360020a038260020a858161018257fe5b0416949350505050565b600060606040518060600160405280602281526020016101bb6022913960018401600202015191505091905056fe00000c8c18f9252830fb3c56471c51335a8262f16a6d70e276417a7c7d897f617fffa265627a7a72315820d84052e4a54fd5eee1d30f9d48b5af319ec2a8ed80f820c659896c5137dde1a664736f6c63430005110032",
  "source": "/**\n * Basic trigonometry functions\n *\n * Solidity library offering the functionality of basic trigonometry functions\n * with both input and output being integer approximated.\n *\n * This is useful since:\n * - At the moment no floating/fixed point math can happen in solidity\n * - Should be (?) cheaper than the actual operations using floating point\n *   if and when they are implemented.\n *\n * The implementation is based off Dave Dribin's trigint C library\n * http://www.dribin.org/dave/trigint/\n * Which in turn is based from a now deleted article which can be found in\n * the internet wayback machine:\n * http://web.archive.org/web/20120301144605/http://www.dattalo.com/technical/software/pic/picsine.html\n *\n * @author Lefteris Karapetsas\n * @license BSD3\n */\n\npragma solidity ^0.5.17;\n\nlibrary Trigonometry {\n\n    // Table index into the trigonometric table\n    uint constant INDEX_WIDTH = 4;\n    // Interpolation between successive entries in the tables\n    uint constant INTERP_WIDTH = 8;\n    uint constant INDEX_OFFSET = 12 - INDEX_WIDTH;\n    uint constant INTERP_OFFSET = INDEX_OFFSET - INTERP_WIDTH;\n    uint16 constant ANGLES_IN_CYCLE = 16384;\n    uint16 constant QUADRANT_HIGH_MASK = 8192;\n    uint16 constant QUADRANT_LOW_MASK = 4096;\n    uint constant SINE_TABLE_SIZE = 16;\n\n    // constant sine lookup table generated by gen_tables.py\n    // We have no other choice but this since constant arrays don't yet exist\n    uint8 constant entry_bytes = 2;\n    bytes constant sin_table = \"\\x00\\x00\\x0c\\x8c\\x18\\xf9\\x25\\x28\\x30\\xfb\\x3c\\x56\\x47\\x1c\\x51\\x33\\x5a\\x82\\x62\\xf1\\x6a\\x6d\\x70\\xe2\\x76\\x41\\x7a\\x7c\\x7d\\x89\\x7f\\x61\\x7f\\xff\";\n\n    /**\n     * Convenience function to apply a mask on an integer to extract a certain\n     * number of bits. Using exponents since solidity still does not support\n     * shifting.\n     *\n     * @param _value The integer whose bits we want to get\n     * @param _width The width of the bits (in bits) we want to extract\n     * @param _offset The offset of the bits (in bits) we want to extract\n     * @return An integer containing _width bits of _value starting at the\n     *         _offset bit\n     */\n    function bits(uint _value, uint _width, uint _offset) pure internal returns (uint) {\n        return (_value / (2 ** _offset)) & (((2 ** _width)) - 1);\n    }\n\n    function sin_table_lookup(uint index) pure internal returns (uint16) {\n        bytes memory table = sin_table;\n        uint offset = (index + 1) * entry_bytes;\n        uint16 trigint_value;\n        assembly {\n            trigint_value := mload(add(table, offset))\n        }\n\n        return trigint_value;\n    }\n\n    /**\n     * Return the sine of an integer approximated angle as a signed 16-bit\n     * integer.\n     *\n     * @param _angle A 14-bit angle. This divides the circle into 16384\n     *               angle units, instead of the standard 360 degrees.\n     * @return The sine result as a number in the range -32767 to 32767.\n     */\n    function sin(uint16 _angle) public pure returns (int) {\n        uint interp = bits(_angle, INTERP_WIDTH, INTERP_OFFSET);\n        uint index = bits(_angle, INDEX_WIDTH, INDEX_OFFSET);\n\n        bool is_odd_quadrant = (_angle & QUADRANT_LOW_MASK) == 0;\n        bool is_negative_quadrant = (_angle & QUADRANT_HIGH_MASK) != 0;\n\n        if (!is_odd_quadrant) {\n            index = SINE_TABLE_SIZE - 1 - index;\n        }\n\n        uint x1 = sin_table_lookup(index);\n        uint x2 = sin_table_lookup(index + 1);\n        uint approximation = ((x2 - x1) * interp) / (2 ** INTERP_WIDTH);\n\n        int sine;\n        if (is_odd_quadrant) {\n            sine = int(x1) + int(approximation);\n        } else {\n            sine = int(x2) - int(approximation);\n        }\n\n        if (is_negative_quadrant) {\n            sine *= -1;\n        }\n\n        return sine;\n    }\n\n    /**\n     * Return the cos of an integer approximated angle.\n     * It functions just like the sin() method but uses the trigonometric\n     * identity sin(x + pi/2) = cos(x) to quickly calculate the cos.\n     */\n    function cos(uint16 _angle) public pure returns (int) {\n        if (_angle > ANGLES_IN_CYCLE - QUADRANT_LOW_MASK) {\n            _angle = QUADRANT_LOW_MASK - ANGLES_IN_CYCLE - _angle;\n        } else {\n            _angle += QUADRANT_LOW_MASK;\n        }\n        return sin(_angle);\n    }\n\n}",
  "sourcePath": "/home/cantonioupao/susDAO-saveMe/FIN4Contracts/contracts/util/Trigonometry.sol",
  "compiler": {
    "name": "solc",
    "version": "0.5.17+commit.d19bba13.Emscripten.clang"
  },
  "schemaVersion": "3.3.1",
  "updatedAt": "2020-12-03T18:31:10.004Z",
  "devdoc": {
    "methods": {
      "sin(uint16)": {
        "params": {
          "_angle": "A 14-bit angle. This divides the circle into 16384              angle units, instead of the standard 360 degrees."
        },
        "return": "The sine result as a number in the range -32767 to 32767."
      }
    }
  },
  "userdoc": {
    "methods": {
      "cos(uint16)": {
        "notice": "Return the cos of an integer approximated angle. It functions just like the sin() method but uses the trigonometric identity sin(x + pi/2) = cos(x) to quickly calculate the cos."
      },
      "sin(uint16)": {
        "notice": "Return the sine of an integer approximated angle as a signed 16-bit integer."
      }
    }
  }
}