{
  "contractName": "SaveMeToken",
  "abi": [
    {
      "inputs": [
        {
          "internalType": "uint256",
          "name": "_initialSupply",
          "type": "uint256"
        }
      ],
      "payable": false,
      "stateMutability": "nonpayable",
      "type": "constructor"
    },
    {
      "anonymous": false,
      "inputs": [
        {
          "indexed": true,
          "internalType": "address",
          "name": "_owner",
          "type": "address"
        },
        {
          "indexed": true,
          "internalType": "address",
          "name": "_spender",
          "type": "address"
        },
        {
          "indexed": false,
          "internalType": "uint256",
          "name": "_value",
          "type": "uint256"
        }
      ],
      "name": "Approval",
      "type": "event"
    },
    {
      "anonymous": false,
      "inputs": [
        {
          "indexed": true,
          "internalType": "address",
          "name": "account",
          "type": "address"
        }
      ],
      "name": "MinterAdded",
      "type": "event"
    },
    {
      "anonymous": false,
      "inputs": [
        {
          "indexed": true,
          "internalType": "address",
          "name": "account",
          "type": "address"
        }
      ],
      "name": "MinterRemoved",
      "type": "event"
    },
    {
      "anonymous": false,
      "inputs": [
        {
          "indexed": false,
          "internalType": "address",
          "name": "account",
          "type": "address"
        }
      ],
      "name": "Paused",
      "type": "event"
    },
    {
      "anonymous": false,
      "inputs": [
        {
          "indexed": true,
          "internalType": "address",
          "name": "account",
          "type": "address"
        }
      ],
      "name": "PauserAdded",
      "type": "event"
    },
    {
      "anonymous": false,
      "inputs": [
        {
          "indexed": true,
          "internalType": "address",
          "name": "account",
          "type": "address"
        }
      ],
      "name": "PauserRemoved",
      "type": "event"
    },
    {
      "anonymous": false,
      "inputs": [
        {
          "indexed": true,
          "internalType": "address",
          "name": "_from",
          "type": "address"
        },
        {
          "indexed": true,
          "internalType": "address",
          "name": "_to",
          "type": "address"
        },
        {
          "indexed": false,
          "internalType": "uint256",
          "name": "_value",
          "type": "uint256"
        }
      ],
      "name": "Transfer",
      "type": "event"
    },
    {
      "anonymous": false,
      "inputs": [
        {
          "indexed": false,
          "internalType": "address",
          "name": "account",
          "type": "address"
        }
      ],
      "name": "Unpaused",
      "type": "event"
    },
    {
      "constant": false,
      "inputs": [
        {
          "internalType": "address",
          "name": "account",
          "type": "address"
        }
      ],
      "name": "addMinter",
      "outputs": [],
      "payable": false,
      "stateMutability": "nonpayable",
      "type": "function"
    },
    {
      "constant": false,
      "inputs": [
        {
          "internalType": "address",
          "name": "account",
          "type": "address"
        }
      ],
      "name": "addPauser",
      "outputs": [],
      "payable": false,
      "stateMutability": "nonpayable",
      "type": "function"
    },
    {
      "constant": true,
      "inputs": [
        {
          "internalType": "address",
          "name": "owner",
          "type": "address"
        },
        {
          "internalType": "address",
          "name": "spender",
          "type": "address"
        }
      ],
      "name": "allowance",
      "outputs": [
        {
          "internalType": "uint256",
          "name": "",
          "type": "uint256"
        }
      ],
      "payable": false,
      "stateMutability": "view",
      "type": "function"
    },
    {
      "constant": false,
      "inputs": [
        {
          "internalType": "uint256",
          "name": "value",
          "type": "uint256"
        }
      ],
      "name": "burn",
      "outputs": [],
      "payable": false,
      "stateMutability": "nonpayable",
      "type": "function"
    },
    {
      "constant": false,
      "inputs": [
        {
          "internalType": "address",
          "name": "from",
          "type": "address"
        },
        {
          "internalType": "uint256",
          "name": "value",
          "type": "uint256"
        }
      ],
      "name": "burnFrom",
      "outputs": [],
      "payable": false,
      "stateMutability": "nonpayable",
      "type": "function"
    },
    {
      "constant": true,
      "inputs": [],
      "name": "decimals",
      "outputs": [
        {
          "internalType": "uint8",
          "name": "",
          "type": "uint8"
        }
      ],
      "payable": false,
      "stateMutability": "view",
      "type": "function"
    },
    {
      "constant": false,
      "inputs": [
        {
          "internalType": "address",
          "name": "spender",
          "type": "address"
        },
        {
          "internalType": "uint256",
          "name": "subtractedValue",
          "type": "uint256"
        }
      ],
      "name": "decreaseAllowance",
      "outputs": [
        {
          "internalType": "bool",
          "name": "",
          "type": "bool"
        }
      ],
      "payable": false,
      "stateMutability": "nonpayable",
      "type": "function"
    },
    {
      "constant": true,
      "inputs": [],
      "name": "description",
      "outputs": [
        {
          "internalType": "string",
          "name": "",
          "type": "string"
        }
      ],
      "payable": false,
      "stateMutability": "view",
      "type": "function"
    },
    {
      "constant": false,
      "inputs": [
        {
          "internalType": "address",
          "name": "spender",
          "type": "address"
        },
        {
          "internalType": "uint256",
          "name": "addedValue",
          "type": "uint256"
        }
      ],
      "name": "increaseAllowance",
      "outputs": [
        {
          "internalType": "bool",
          "name": "",
          "type": "bool"
        }
      ],
      "payable": false,
      "stateMutability": "nonpayable",
      "type": "function"
    },
    {
      "constant": true,
      "inputs": [],
      "name": "isBurnable",
      "outputs": [
        {
          "internalType": "bool",
          "name": "",
          "type": "bool"
        }
      ],
      "payable": false,
      "stateMutability": "view",
      "type": "function"
    },
    {
      "constant": true,
      "inputs": [],
      "name": "isMintable",
      "outputs": [
        {
          "internalType": "bool",
          "name": "",
          "type": "bool"
        }
      ],
      "payable": false,
      "stateMutability": "view",
      "type": "function"
    },
    {
      "constant": true,
      "inputs": [
        {
          "internalType": "address",
          "name": "account",
          "type": "address"
        }
      ],
      "name": "isMinter",
      "outputs": [
        {
          "internalType": "bool",
          "name": "",
          "type": "bool"
        }
      ],
      "payable": false,
      "stateMutability": "view",
      "type": "function"
    },
    {
      "constant": true,
      "inputs": [
        {
          "internalType": "address",
          "name": "account",
          "type": "address"
        }
      ],
      "name": "isPauser",
      "outputs": [
        {
          "internalType": "bool",
          "name": "",
          "type": "bool"
        }
      ],
      "payable": false,
      "stateMutability": "view",
      "type": "function"
    },
    {
      "constant": true,
      "inputs": [],
      "name": "isTransferable",
      "outputs": [
        {
          "internalType": "bool",
          "name": "",
          "type": "bool"
        }
      ],
      "payable": false,
      "stateMutability": "view",
      "type": "function"
    },
    {
      "constant": false,
      "inputs": [
        {
          "internalType": "address",
          "name": "to",
          "type": "address"
        },
        {
          "internalType": "uint256",
          "name": "value",
          "type": "uint256"
        }
      ],
      "name": "mint",
      "outputs": [
        {
          "internalType": "bool",
          "name": "",
          "type": "bool"
        }
      ],
      "payable": false,
      "stateMutability": "nonpayable",
      "type": "function"
    },
    {
      "constant": false,
      "inputs": [],
      "name": "pause",
      "outputs": [],
      "payable": false,
      "stateMutability": "nonpayable",
      "type": "function"
    },
    {
      "constant": true,
      "inputs": [],
      "name": "paused",
      "outputs": [
        {
          "internalType": "bool",
          "name": "",
          "type": "bool"
        }
      ],
      "payable": false,
      "stateMutability": "view",
      "type": "function"
    },
    {
      "constant": false,
      "inputs": [],
      "name": "renounceMinter",
      "outputs": [],
      "payable": false,
      "stateMutability": "nonpayable",
      "type": "function"
    },
    {
      "constant": false,
      "inputs": [],
      "name": "renouncePauser",
      "outputs": [],
      "payable": false,
      "stateMutability": "nonpayable",
      "type": "function"
    },
    {
      "constant": true,
      "inputs": [],
      "name": "standard",
      "outputs": [
        {
          "internalType": "string",
          "name": "",
          "type": "string"
        }
      ],
      "payable": false,
      "stateMutability": "view",
      "type": "function"
    },
    {
      "constant": true,
      "inputs": [],
      "name": "tokenCreationTime",
      "outputs": [
        {
          "internalType": "uint256",
          "name": "",
          "type": "uint256"
        }
      ],
      "payable": false,
      "stateMutability": "view",
      "type": "function"
    },
    {
      "constant": true,
      "inputs": [],
      "name": "tokenCreator",
      "outputs": [
        {
          "internalType": "address",
          "name": "",
          "type": "address"
        }
      ],
      "payable": false,
      "stateMutability": "view",
      "type": "function"
    },
    {
      "constant": true,
      "inputs": [],
      "name": "token_decimals",
      "outputs": [
        {
          "internalType": "uint8",
          "name": "",
          "type": "uint8"
        }
      ],
      "payable": false,
      "stateMutability": "view",
      "type": "function"
    },
    {
      "constant": true,
      "inputs": [],
      "name": "token_name",
      "outputs": [
        {
          "internalType": "string",
          "name": "",
          "type": "string"
        }
      ],
      "payable": false,
      "stateMutability": "view",
      "type": "function"
    },
    {
      "constant": true,
      "inputs": [],
      "name": "token_symbol",
      "outputs": [
        {
          "internalType": "string",
          "name": "",
          "type": "string"
        }
      ],
      "payable": false,
      "stateMutability": "view",
      "type": "function"
    },
    {
      "constant": true,
      "inputs": [],
      "name": "token_totalSupply",
      "outputs": [
        {
          "internalType": "uint256",
          "name": "",
          "type": "uint256"
        }
      ],
      "payable": false,
      "stateMutability": "view",
      "type": "function"
    },
    {
      "constant": false,
      "inputs": [],
      "name": "unpause",
      "outputs": [],
      "payable": false,
      "stateMutability": "nonpayable",
      "type": "function"
    },
    {
      "constant": false,
      "inputs": [
        {
          "internalType": "address",
          "name": "_to",
          "type": "address"
        },
        {
          "internalType": "uint256",
          "name": "_value",
          "type": "uint256"
        }
      ],
      "name": "transfer",
      "outputs": [
        {
          "internalType": "bool",
          "name": "success",
          "type": "bool"
        }
      ],
      "payable": false,
      "stateMutability": "nonpayable",
      "type": "function"
    },
    {
      "constant": false,
      "inputs": [
        {
          "internalType": "address",
          "name": "_spender",
          "type": "address"
        },
        {
          "internalType": "uint256",
          "name": "_value",
          "type": "uint256"
        }
      ],
      "name": "approve",
      "outputs": [
        {
          "internalType": "bool",
          "name": "success",
          "type": "bool"
        }
      ],
      "payable": false,
      "stateMutability": "nonpayable",
      "type": "function"
    },
    {
      "constant": false,
      "inputs": [
        {
          "internalType": "address",
          "name": "_from",
          "type": "address"
        },
        {
          "internalType": "address",
          "name": "_to",
          "type": "address"
        },
        {
          "internalType": "uint256",
          "name": "_value",
          "type": "uint256"
        }
      ],
      "name": "transferFrom",
      "outputs": [
        {
          "internalType": "bool",
          "name": "success",
          "type": "bool"
        }
      ],
      "payable": false,
      "stateMutability": "nonpayable",
      "type": "function"
    },
    {
      "constant": true,
      "inputs": [
        {
          "internalType": "address",
          "name": "user",
          "type": "address"
        }
      ],
      "name": "getTokenInfo",
      "outputs": [
        {
          "internalType": "string",
          "name": "",
          "type": "string"
        },
        {
          "internalType": "string",
          "name": "",
          "type": "string"
        },
        {
          "internalType": "string",
          "name": "",
          "type": "string"
        },
        {
          "internalType": "uint256",
          "name": "",
          "type": "uint256"
        },
        {
          "internalType": "uint256",
          "name": "",
          "type": "uint256"
        }
      ],
      "payable": false,
      "stateMutability": "view",
      "type": "function"
    },
    {
      "constant": true,
      "inputs": [],
      "name": "getDetailedTokenInfo",
      "outputs": [
        {
          "internalType": "uint256",
          "name": "",
          "type": "uint256"
        },
        {
          "internalType": "uint256",
          "name": "",
          "type": "uint256"
        },
        {
          "internalType": "uint256",
          "name": "",
          "type": "uint256"
        },
        {
          "internalType": "bool[]",
          "name": "",
          "type": "bool[]"
        },
        {
          "internalType": "uint256[]",
          "name": "",
          "type": "uint256[]"
        }
      ],
      "payable": false,
      "stateMutability": "view",
      "type": "function"
    },
    {
      "constant": true,
      "inputs": [],
      "name": "totalSupply",
      "outputs": [
        {
          "internalType": "uint256",
          "name": "_totalSupply",
          "type": "uint256"
        }
      ],
      "payable": false,
      "stateMutability": "view",
      "type": "function"
    },
    {
      "constant": true,
      "inputs": [
        {
          "internalType": "address",
          "name": "_of",
          "type": "address"
        }
      ],
      "name": "balanceOf",
      "outputs": [
        {
          "internalType": "uint256",
          "name": "_balance",
          "type": "uint256"
        }
      ],
      "payable": false,
      "stateMutability": "view",
      "type": "function"
    },
    {
      "constant": true,
      "inputs": [],
      "name": "name",
      "outputs": [
        {
          "internalType": "string",
          "name": "",
          "type": "string"
        }
      ],
      "payable": false,
      "stateMutability": "view",
      "type": "function"
    },
    {
      "constant": true,
      "inputs": [],
      "name": "symbol",
      "outputs": [
        {
          "internalType": "string",
          "name": "",
          "type": "string"
        }
      ],
      "payable": false,
      "stateMutability": "view",
      "type": "function"
    },
    {
      "constant": false,
      "inputs": [
        {
          "internalType": "address",
          "name": "_from",
          "type": "address"
        },
        {
          "internalType": "address",
          "name": "_to",
          "type": "address"
        }
      ],
      "name": "giveDataAccess",
      "outputs": [
        {
          "internalType": "bool",
          "name": "success",
          "type": "bool"
        }
      ],
      "payable": false,
      "stateMutability": "nonpayable",
      "type": "function"
    },
    {
      "constant": false,
      "inputs": [
        {
          "internalType": "address",
          "name": "_from",
          "type": "address"
        },
        {
          "internalType": "address",
          "name": "_to",
          "type": "address"
        }
      ],
      "name": "validateTokens",
      "outputs": [
        {
          "internalType": "bool",
          "name": "success",
          "type": "bool"
        }
      ],
      "payable": false,
      "stateMutability": "nonpayable",
      "type": "function"
    }
  ],
  "bytecode": "0x60806040526001600860046101000a81548160ff0219169083151502179055506040518060400160405280600681526020017f536176654d650000000000000000000000000000000000000000000000000000815250600990805190602001906200006c92919062000cf7565b506040518060400160405280600381526020017f53564d0000000000000000000000000000000000000000000000000000000000815250600a9080519060200190620000ba92919062000cf7565b506040518060400160405280600b81526020017f536176654d652076312e30000000000000000000000000000000000000000000815250600b90805190602001906200010892919062000cf7565b506040518060e0016040528060af81526020016200418c60af9139600c90805190602001906200013a92919062000cf7565b506001601060146101000a81548160ff0219169083151502179055506001601060156101000a81548160ff0219169083151502179055506001601060166101000a81548160ff0219169083151502179055506000601060176101000a81548160ff021916908360ff160217905550348015620001b557600080fd5b50604051620042643803806200426483398181016040526020811015620001db57600080fd5b810190808051906020019092919050505060098054600181600116156101000203166002900480601f016020809104026020016040519081016040528092919081815260200182805460018160011615610100020316600290048015620002865780601f106200025a5761010080835404028352916020019162000286565b820191906000526020600020905b8154815290600101906020018083116200026857829003601f168201915b5050505050600a8054600181600116156101000203166002900480601f016020809104026020016040519081016040528092919081815260200182805460018160011615610100020316600290048015620003255780601f10620002f95761010080835404028352916020019162000325565b820191906000526020600020905b8154815290600101906020018083116200030757829003601f168201915b5050505050601060179054906101000a900460ff166000601060149054906101000a900460ff16601060159054906101000a900460ff16601060169054906101000a900460ff1687600088888882600090805190602001906200038a92919062000cf7565b508160019080519060200190620003a392919062000cf7565b5080600260006101000a81548160ff021916908360ff160217905550505050620003e2620003d6620005e860201b60201c565b620005f060201b60201c565b62000402620003f6620005e860201b60201c565b6200065160201b60201c565b6000600860006101000a81548160ff02191690831515021790555084600860016101000a81548160ff02191690831515021790555083600860026101000a81548160ff02191690831515021790555082600860036101000a81548160ff02191690831515021790555083620004825762000481620006b260201b60201c565b5b600073ffffffffffffffffffffffffffffffffffffffff168673ffffffffffffffffffffffffffffffffffffffff1614620004c957620004c886620005f060201b60201c565b5b600073ffffffffffffffffffffffffffffffffffffffff168173ffffffffffffffffffffffffffffffffffffffff16141562000517576200051133836200073060201b60201c565b6200052a565b6200052981836200073060201b60201c565b5b6000600860046101000a81548160ff02191690831515021790555050505050505050505033600e60006101000a81548173ffffffffffffffffffffffffffffffffffffffff021916908373ffffffffffffffffffffffffffffffffffffffff16021790555080600f819055506000601060006101000a81548173ffffffffffffffffffffffffffffffffffffffff021916908373ffffffffffffffffffffffffffffffffffffffff160217905550600f546011819055505062000da6565b600033905090565b6200060b816006620008fc60201b62002f6e1790919060201c565b8073ffffffffffffffffffffffffffffffffffffffff167f6ae172837ea30b801fbfcdd4108aa1d5bf8ff775444fd70256b44e6bf3dfc3f660405160405180910390a250565b6200066c816007620008fc60201b62002f6e1790919060201c565b8073ffffffffffffffffffffffffffffffffffffffff167f6719d08c1888103bea251a4ed56406bd0c3e69723c8a1686e017e7bbe159b6f860405160405180910390a250565b600860049054906101000a900460ff1662000719576040517f08c379a00000000000000000000000000000000000000000000000000000000081526004018080602001828103825260298152602001806200423b6029913960400191505060405180910390fd5b6200072e620009e060201b620024fc1760201c565b565b600073ffffffffffffffffffffffffffffffffffffffff168273ffffffffffffffffffffffffffffffffffffffff161415620007d4576040517f08c379a000000000000000000000000000000000000000000000000000000000815260040180806020018281038252601f8152602001807f45524332303a206d696e7420746f20746865207a65726f20616464726573730081525060200191505060405180910390fd5b620007f08160055462000b6a60201b620027ec1790919060201c565b6005819055506200084f81600360008573ffffffffffffffffffffffffffffffffffffffff1673ffffffffffffffffffffffffffffffffffffffff1681526020019081526020016000205462000b6a60201b620027ec1790919060201c565b600360008473ffffffffffffffffffffffffffffffffffffffff1673ffffffffffffffffffffffffffffffffffffffff168152602001908152602001600020819055508173ffffffffffffffffffffffffffffffffffffffff16600073ffffffffffffffffffffffffffffffffffffffff167fddf252ad1be2c89b69c2b068fc378daa952ba7f163c4a11628f55a4df523b3ef836040518082815260200191505060405180910390a35050565b6200090e828262000bf360201b60201c565b1562000982576040517f08c379a000000000000000000000000000000000000000000000000000000000815260040180806020018281038252601f8152602001807f526f6c65733a206163636f756e7420616c72656164792068617320726f6c650081525060200191505060405180910390fd5b60018260000160008373ffffffffffffffffffffffffffffffffffffffff1673ffffffffffffffffffffffffffffffffffffffff16815260200190815260200160002060006101000a81548160ff0219169083151502179055505050565b62000a00620009f4620005e860201b60201c565b62000cd360201b60201c565b62000a57576040517f08c379a00000000000000000000000000000000000000000000000000000000081526004018080602001828103825260308152602001806200413a6030913960400191505060405180910390fd5b600860009054906101000a900460ff161562000adb576040517f08c379a00000000000000000000000000000000000000000000000000000000081526004018080602001828103825260108152602001807f5061757361626c653a207061757365640000000000000000000000000000000081525060200191505060405180910390fd5b6001600860006101000a81548160ff0219169083151502179055507f62e78cea01bee320cd4e420270b5ea74000d11b0c9f74754ebdbfc544b05a25862000b27620005e860201b60201c565b604051808273ffffffffffffffffffffffffffffffffffffffff1673ffffffffffffffffffffffffffffffffffffffff16815260200191505060405180910390a1565b60008082840190508381101562000be9576040517f08c379a000000000000000000000000000000000000000000000000000000000815260040180806020018281038252601b8152602001807f536166654d6174683a206164646974696f6e206f766572666c6f77000000000081525060200191505060405180910390fd5b8091505092915050565b60008073ffffffffffffffffffffffffffffffffffffffff168273ffffffffffffffffffffffffffffffffffffffff16141562000c7c576040517f08c379a00000000000000000000000000000000000000000000000000000000081526004018080602001828103825260228152602001806200416a6022913960400191505060405180910390fd5b8260000160008373ffffffffffffffffffffffffffffffffffffffff1673ffffffffffffffffffffffffffffffffffffffff16815260200190815260200160002060009054906101000a900460ff16905092915050565b600062000cf082600762000bf360201b620023541790919060201c565b9050919050565b828054600181600116156101000203166002900490600052602060002090601f016020900481019282601f1062000d3a57805160ff191683800117855562000d6b565b8280016001018555821562000d6b579182015b8281111562000d6a57825182559160200191906001019062000d4d565b5b50905062000d7a919062000d7e565b5090565b62000da391905b8082111562000d9f57600081600090555060010162000d85565b5090565b90565b6133848062000db66000396000f3fe608060405234801561001057600080fd5b50600436106102325760003560e01c806370a0823111610130578063983b2d56116100b8578063cdfc81ad1161007c578063cdfc81ad14610cd6578063db84252c14610d92578063dd62ed3e14610ddc578063f23c3e6c14610e54578063f6013eff14610ed057610232565b8063983b2d5614610b605780639865027514610ba4578063a457c2d714610bae578063a9059cbb14610c14578063aa271e1a14610c7a57610232565b806382dc1ec4116100ff57806382dc1ec4146109ea5780638456cb5914610a2e578063883356d914610a38578063947a316814610a5a57806395d89b4114610add57610232565b806370a08231146108a35780637284e416146108fb57806377160e8f1461097e57806379cc67901461099c57610232565b80633c4b303d116101be57806346fbf68e1161018257806346fbf68e1461077a5780634d2d0a3d146107d65780635a3b7e42146107f45780635c975abb146108775780636ef8d66d1461089957610232565b80633c4b303d146106965780633f4ba83a146106ba57806340c10f19146106c457806342966c681461072a57806346b45af71461075857610232565b80631f772a34116102055780631f772a34146104e15780632121dc751461056457806323b872dd14610586578063313ce5671461060c578063395093511461063057610232565b806306fdde0314610237578063095ea7b3146102ba57806318160ddd146103205780631f69565f1461033e575b600080fd5b61023f610f4c565b6040518080602001828103825283818151815260200191508051906020019080838360005b8381101561027f578082015181840152602081019050610264565b50505050905090810190601f1680156102ac5780820380516001836020036101000a031916815260200191505b509250505060405180910390f35b610306600480360360408110156102d057600080fd5b81019080803573ffffffffffffffffffffffffffffffffffffffff16906020019092919080359060200190929190505050610fee565b604051808215151515815260200191505060405180910390f35b61032861115e565b6040518082815260200191505060405180910390f35b6103806004803603602081101561035457600080fd5b81019080803573ffffffffffffffffffffffffffffffffffffffff169060200190929190505050611168565b60405180806020018060200180602001868152602001858152602001848103845289818151815260200191508051906020019080838360005b838110156103d45780820151818401526020810190506103b9565b50505050905090810190601f1680156104015780820380516001836020036101000a031916815260200191505b50848103835288818151815260200191508051906020019080838360005b8381101561043a57808201518184015260208101905061041f565b50505050905090810190601f1680156104675780820380516001836020036101000a031916815260200191505b50848103825287818151815260200191508051906020019080838360005b838110156104a0578082015181840152602081019050610485565b50505050905090810190601f1680156104cd5780820380516001836020036101000a031916815260200191505b509850505050505050505060405180910390f35b6104e961123c565b6040518080602001828103825283818151815260200191508051906020019080838360005b8381101561052957808201518184015260208101905061050e565b50505050905090810190601f1680156105565780820380516001836020036101000a031916815260200191505b509250505060405180910390f35b61056c6112da565b604051808215151515815260200191505060405180910390f35b6105f26004803603606081101561059c57600080fd5b81019080803573ffffffffffffffffffffffffffffffffffffffff169060200190929190803573ffffffffffffffffffffffffffffffffffffffff169060200190929190803590602001909291905050506112ed565b604051808215151515815260200191505060405180910390f35b6106146115b9565b604051808260ff1660ff16815260200191505060405180910390f35b61067c6004803603604081101561064657600080fd5b81019080803573ffffffffffffffffffffffffffffffffffffffff169060200190929190803590602001909291905050506115d0565b604051808215151515815260200191505060405180910390f35b61069e611667565b604051808260ff1660ff16815260200191505060405180910390f35b6106c261167a565b005b610710600480360360408110156106da57600080fd5b81019080803573ffffffffffffffffffffffffffffffffffffffff169060200190929190803590602001909291905050506116e1565b604051808215151515815260200191505060405180910390f35b6107566004803603602081101561074057600080fd5b8101908080359060200190929190505050611777565b005b610760611805565b604051808215151515815260200191505060405180910390f35b6107bc6004803603602081101561079057600080fd5b81019080803573ffffffffffffffffffffffffffffffffffffffff169060200190929190505050611818565b604051808215151515815260200191505060405180910390f35b6107de611835565b6040518082815260200191505060405180910390f35b6107fc61183b565b6040518080602001828103825283818151815260200191508051906020019080838360005b8381101561083c578082015181840152602081019050610821565b50505050905090810190601f1680156108695780820380516001836020036101000a031916815260200191505b509250505060405180910390f35b61087f6118d9565b604051808215151515815260200191505060405180910390f35b6108a16118f0565b005b6108e5600480360360208110156108b957600080fd5b81019080803573ffffffffffffffffffffffffffffffffffffffff169060200190929190505050611902565b6040518082815260200191505060405180910390f35b61090361194b565b6040518080602001828103825283818151815260200191508051906020019080838360005b83811015610943578082015181840152602081019050610928565b50505050905090810190601f1680156109705780820380516001836020036101000a031916815260200191505b509250505060405180910390f35b6109866119e9565b6040518082815260200191505060405180910390f35b6109e8600480360360408110156109b257600080fd5b81019080803573ffffffffffffffffffffffffffffffffffffffff169060200190929190803590602001909291905050506119ef565b005b610a2c60048036036020811015610a0057600080fd5b81019080803573ffffffffffffffffffffffffffffffffffffffff169060200190929190505050611a7f565b005b610a36611af0565b005b610a40611b5f565b604051808215151515815260200191505060405180910390f35b610a62611b72565b6040518080602001828103825283818151815260200191508051906020019080838360005b83811015610aa2578082015181840152602081019050610a87565b50505050905090810190601f168015610acf5780820380516001836020036101000a031916815260200191505b509250505060405180910390f35b610ae5611c10565b6040518080602001828103825283818151815260200191508051906020019080838360005b83811015610b25578082015181840152602081019050610b0a565b50505050905090810190601f168015610b525780820380516001836020036101000a031916815260200191505b509250505060405180910390f35b610ba260048036036020811015610b7657600080fd5b81019080803573ffffffffffffffffffffffffffffffffffffffff169060200190929190505050611cb2565b005b610bac611d23565b005b610bfa60048036036040811015610bc457600080fd5b81019080803573ffffffffffffffffffffffffffffffffffffffff16906020019092919080359060200190929190505050611d35565b604051808215151515815260200191505060405180910390f35b610c6060048036036040811015610c2a57600080fd5b81019080803573ffffffffffffffffffffffffffffffffffffffff16906020019092919080359060200190929190505050611dcc565b604051808215151515815260200191505060405180910390f35b610cbc60048036036020811015610c9057600080fd5b81019080803573ffffffffffffffffffffffffffffffffffffffff169060200190929190505050611f55565b604051808215151515815260200191505060405180910390f35b610cde611f72565b604051808681526020018581526020018481526020018060200180602001838103835285818151815260200191508051906020019060200280838360005b83811015610d37578082015181840152602081019050610d1c565b50505050905001838103825284818151815260200191508051906020019060200280838360005b83811015610d79578082015181840152602081019050610d5e565b5050505090500197505050505050505060405180910390f35b610d9a612116565b604051808273ffffffffffffffffffffffffffffffffffffffff1673ffffffffffffffffffffffffffffffffffffffff16815260200191505060405180910390f35b610e3e60048036036040811015610df257600080fd5b81019080803573ffffffffffffffffffffffffffffffffffffffff169060200190929190803573ffffffffffffffffffffffffffffffffffffffff16906020019092919050505061213c565b6040518082815260200191505060405180910390f35b610eb660048036036040811015610e6a57600080fd5b81019080803573ffffffffffffffffffffffffffffffffffffffff169060200190929190803573ffffffffffffffffffffffffffffffffffffffff1690602001909291905050506121c3565b604051808215151515815260200191505060405180910390f35b610f3260048036036040811015610ee657600080fd5b81019080803573ffffffffffffffffffffffffffffffffffffffff169060200190929190803573ffffffffffffffffffffffffffffffffffffffff169060200190929190505050612207565b604051808215151515815260200191505060405180910390f35b606060098054600181600116156101000203166002900480601f016020809104026020016040519081016040528092919081815260200182805460018160011615610100020316600290048015610fe45780601f10610fb957610100808354040283529160200191610fe4565b820191906000526020600020905b815481529060010190602001808311610fc757829003601f168201915b5050505050905090565b600081610ffa33611902565b101561106e576040517f08c379a00000000000000000000000000000000000000000000000000000000081526004018080602001828103825260118152602001807f4e6f7420656e6f75676820746f6b656e7300000000000000000000000000000081525060200191505060405180910390fd5b81601360003373ffffffffffffffffffffffffffffffffffffffff1673ffffffffffffffffffffffffffffffffffffffff16815260200190815260200160002060008573ffffffffffffffffffffffffffffffffffffffff1673ffffffffffffffffffffffffffffffffffffffff168152602001908152602001600020819055508273ffffffffffffffffffffffffffffffffffffffff163373ffffffffffffffffffffffffffffffffffffffff167f8c5be1e5ebec7d5bd14f71427d1e84f3dd0314c0f7b2291e5b200ac8c7c3b925846040518082815260200191505060405180910390a36001905092915050565b6000601154905090565b6060806060600080611178610f4c565b611180611c10565b600c61118a61115e565b600d54828054600181600116156101000203166002900480601f0160208091040260200160405190810160405280929190818152602001828054600181600116156101000203166002900480156112225780601f106111f757610100808354040283529160200191611222565b820191906000526020600020905b81548152906001019060200180831161120557829003601f168201915b505050505092509450945094509450945091939590929450565b600a8054600181600116156101000203166002900480601f0160208091040260200160405190810160405280929190818152602001828054600181600116156101000203166002900480156112d25780601f106112a7576101008083540402835291602001916112d2565b820191906000526020600020905b8154815290600101906020018083116112b557829003601f168201915b505050505081565b601060159054906101000a900460ff1681565b60006112f884611902565b821115611350576040517f08c379a000000000000000000000000000000000000000000000000000000000815260040180806020018281038252602d8152602001806131c8602d913960400191505060405180910390fd5b601360008573ffffffffffffffffffffffffffffffffffffffff1673ffffffffffffffffffffffffffffffffffffffff16815260200190815260200160002060003373ffffffffffffffffffffffffffffffffffffffff1673ffffffffffffffffffffffffffffffffffffffff16815260200190815260200160002054821115611425576040517f08c379a00000000000000000000000000000000000000000000000000000000081526004018080602001828103825260318152602001806132466031913960400191505060405180910390fd5b81601260008673ffffffffffffffffffffffffffffffffffffffff1673ffffffffffffffffffffffffffffffffffffffff1681526020019081526020016000206000828254039250508190555081601260008573ffffffffffffffffffffffffffffffffffffffff1673ffffffffffffffffffffffffffffffffffffffff1681526020019081526020016000206000828254019250508190555081601360008673ffffffffffffffffffffffffffffffffffffffff1673ffffffffffffffffffffffffffffffffffffffff16815260200190815260200160002060003373ffffffffffffffffffffffffffffffffffffffff1673ffffffffffffffffffffffffffffffffffffffff168152602001908152602001600020600082825403925050819055508273ffffffffffffffffffffffffffffffffffffffff168473ffffffffffffffffffffffffffffffffffffffff167fddf252ad1be2c89b69c2b068fc378daa952ba7f163c4a11628f55a4df523b3ef846040518082815260200191505060405180910390a3600190509392505050565b6000600260009054906101000a900460ff16905090565b6000600860009054906101000a900460ff1615611655576040517f08c379a00000000000000000000000000000000000000000000000000000000081526004018080602001828103825260108152602001807f5061757361626c653a207061757365640000000000000000000000000000000081525060200191505060405180910390fd5b61165f8383612212565b905092915050565b601060179054906101000a900460ff1681565b600860049054906101000a900460ff166116df576040517f08c379a00000000000000000000000000000000000000000000000000000000081526004018080602001828103825260298152602001806133026029913960400191505060405180910390fd5b565b6000600860039054906101000a900460ff16611765576040517f08c379a00000000000000000000000000000000000000000000000000000000081526004018080602001828103825260118152602001807f436f696e206e6f74206d696e7461626c6500000000000000000000000000000081525060200191505060405180910390fd5b61176f83836122c5565b905092915050565b600860019054906101000a900460ff166117f9576040517f08c379a00000000000000000000000000000000000000000000000000000000081526004018080602001828103825260118152602001807f436f696e206e6f74206275726e61626c6500000000000000000000000000000081525060200191505060405180910390fd5b61180281612340565b50565b601060169054906101000a900460ff1681565b600061182e82600761235490919063ffffffff16565b9050919050565b60115481565b600b8054600181600116156101000203166002900480601f0160208091040260200160405190810160405280929190818152602001828054600181600116156101000203166002900480156118d15780601f106118a6576101008083540402835291602001916118d1565b820191906000526020600020905b8154815290600101906020018083116118b457829003601f168201915b505050505081565b6000600860009054906101000a900460ff16905090565b6119006118fb612432565b61243a565b565b6000601260008373ffffffffffffffffffffffffffffffffffffffff1673ffffffffffffffffffffffffffffffffffffffff168152602001908152602001600020549050919050565b600c8054600181600116156101000203166002900480601f0160208091040260200160405190810160405280929190818152602001828054600181600116156101000203166002900480156119e15780601f106119b6576101008083540402835291602001916119e1565b820191906000526020600020905b8154815290600101906020018083116119c457829003601f168201915b505050505081565b600d5481565b600860019054906101000a900460ff16611a71576040517f08c379a00000000000000000000000000000000000000000000000000000000081526004018080602001828103825260118152602001807f436f696e206e6f74206275726e61626c6500000000000000000000000000000081525060200191505060405180910390fd5b611a7b8282612494565b5050565b611a8f611a8a612432565b611818565b611ae4576040517f08c379a00000000000000000000000000000000000000000000000000000000081526004018080602001828103825260308152602001806131766030913960400191505060405180910390fd5b611aed816124a2565b50565b600860049054906101000a900460ff16611b55576040517f08c379a00000000000000000000000000000000000000000000000000000000081526004018080602001828103825260298152602001806133026029913960400191505060405180910390fd5b611b5d6124fc565b565b601060149054906101000a900460ff1681565b60098054600181600116156101000203166002900480601f016020809104026020016040519081016040528092919081815260200182805460018160011615610100020316600290048015611c085780601f10611bdd57610100808354040283529160200191611c08565b820191906000526020600020905b815481529060010190602001808311611beb57829003601f168201915b505050505081565b6060600a8054600181600116156101000203166002900480601f016020809104026020016040519081016040528092919081815260200182805460018160011615610100020316600290048015611ca85780601f10611c7d57610100808354040283529160200191611ca8565b820191906000526020600020905b815481529060010190602001808311611c8b57829003601f168201915b5050505050905090565b611cc2611cbd612432565b611f55565b611d17576040517f08c379a00000000000000000000000000000000000000000000000000000000081526004018080602001828103825260308152602001806131f56030913960400191505060405180910390fd5b611d208161266b565b50565b611d33611d2e612432565b6126c5565b565b6000600860009054906101000a900460ff1615611dba576040517f08c379a00000000000000000000000000000000000000000000000000000000081526004018080602001828103825260108152602001807f5061757361626c653a207061757365640000000000000000000000000000000081525060200191505060405180910390fd5b611dc4838361271f565b905092915050565b600081611dd833611902565b1015611e4c576040517f08c379a00000000000000000000000000000000000000000000000000000000081526004018080602001828103825260118152602001807f4e6f7420656e6f75676820746f6b656e7300000000000000000000000000000081525060200191505060405180910390fd5b81601260003373ffffffffffffffffffffffffffffffffffffffff1673ffffffffffffffffffffffffffffffffffffffff1681526020019081526020016000206000828254039250508190555081601260008573ffffffffffffffffffffffffffffffffffffffff1673ffffffffffffffffffffffffffffffffffffffff168152602001908152602001600020600082825401925050819055508273ffffffffffffffffffffffffffffffffffffffff163373ffffffffffffffffffffffffffffffffffffffff167fddf252ad1be2c89b69c2b068fc378daa952ba7f163c4a11628f55a4df523b3ef846040518082815260200191505060405180910390a36001905092915050565b6000611f6b82600661235490919063ffffffff16565b9050919050565b600080600060608060606004604051908082528060200260200182016040528015611fac5781602001602082028038833980820191505090505b509050601060159054906101000a900460ff1681600081518110611fcc57fe5b602002602001019015159081151581525050601060169054906101000a900460ff1681600181518110611ffb57fe5b602002602001019015159081151581525050601060149054906101000a900460ff168160028151811061202a57fe5b60200260200101901515908115158152505060008160038151811061204b57fe5b6020026020010190151590811515815250506060600360405190808252806020026020018201604052801561208f5781602001602082028038833980820191505090505b5090506000816000815181106120a157fe5b6020026020010181815250506120b56115b9565b60ff16816001815181106120c557fe5b602002602001018181525050600f54816002815181106120e157fe5b6020026020010181815250506120f633611902565b6120fe61115e565b600d5484849650965096509650965050509091929394565b600e60009054906101000a900473ffffffffffffffffffffffffffffffffffffffff1681565b6000600460008473ffffffffffffffffffffffffffffffffffffffff1673ffffffffffffffffffffffffffffffffffffffff16815260200190815260200160002060008373ffffffffffffffffffffffffffffffffffffffff1673ffffffffffffffffffffffffffffffffffffffff16815260200190815260200160002054905092915050565b60008273ffffffffffffffffffffffffffffffffffffffff163373ffffffffffffffffffffffffffffffffffffffff16146121fd57600080fd5b6001905092915050565b600080905092915050565b60006122bb61221f612432565b846122b68560046000612230612432565b73ffffffffffffffffffffffffffffffffffffffff1673ffffffffffffffffffffffffffffffffffffffff16815260200190815260200160002060008973ffffffffffffffffffffffffffffffffffffffff1673ffffffffffffffffffffffffffffffffffffffff168152602001908152602001600020546127ec90919063ffffffff16565b612874565b6001905092915050565b60006122d76122d2612432565b611f55565b61232c576040517f08c379a00000000000000000000000000000000000000000000000000000000081526004018080602001828103825260308152602001806131f56030913960400191505060405180910390fd5b6123368383612a6b565b6001905092915050565b61235161234b612432565b82612c28565b50565b60008073ffffffffffffffffffffffffffffffffffffffff168273ffffffffffffffffffffffffffffffffffffffff1614156123db576040517f08c379a00000000000000000000000000000000000000000000000000000000081526004018080602001828103825260228152602001806132776022913960400191505060405180910390fd5b8260000160008373ffffffffffffffffffffffffffffffffffffffff1673ffffffffffffffffffffffffffffffffffffffff16815260200190815260200160002060009054906101000a900460ff16905092915050565b600033905090565b61244e816007612de290919063ffffffff16565b8073ffffffffffffffffffffffffffffffffffffffff167fcd265ebaf09df2871cc7bd4133404a235ba12eff2041bb89d9c714a2621c7c7e60405160405180910390a250565b61249e8282612e9f565b5050565b6124b6816007612f6e90919063ffffffff16565b8073ffffffffffffffffffffffffffffffffffffffff167f6719d08c1888103bea251a4ed56406bd0c3e69723c8a1686e017e7bbe159b6f860405160405180910390a250565b61250c612507612432565b611818565b612561576040517f08c379a00000000000000000000000000000000000000000000000000000000081526004018080602001828103825260308152602001806131766030913960400191505060405180910390fd5b600860009054906101000a900460ff16156125e4576040517f08c379a00000000000000000000000000000000000000000000000000000000081526004018080602001828103825260108152602001807f5061757361626c653a207061757365640000000000000000000000000000000081525060200191505060405180910390fd5b6001600860006101000a81548160ff0219169083151502179055507f62e78cea01bee320cd4e420270b5ea74000d11b0c9f74754ebdbfc544b05a258612628612432565b604051808273ffffffffffffffffffffffffffffffffffffffff1673ffffffffffffffffffffffffffffffffffffffff16815260200191505060405180910390a1565b61267f816006612f6e90919063ffffffff16565b8073ffffffffffffffffffffffffffffffffffffffff167f6ae172837ea30b801fbfcdd4108aa1d5bf8ff775444fd70256b44e6bf3dfc3f660405160405180910390a250565b6126d9816006612de290919063ffffffff16565b8073ffffffffffffffffffffffffffffffffffffffff167fe94479a9f7e1952cc78f2d6baab678adc1b772d936c6583def489e524cb6669260405160405180910390a250565b60006127e261272c612432565b846127dd8560405180606001604052806025815260200161332b6025913960046000612756612432565b73ffffffffffffffffffffffffffffffffffffffff1673ffffffffffffffffffffffffffffffffffffffff16815260200190815260200160002060008a73ffffffffffffffffffffffffffffffffffffffff1673ffffffffffffffffffffffffffffffffffffffff168152602001908152602001600020546130499092919063ffffffff16565b612874565b6001905092915050565b60008082840190508381101561286a576040517f08c379a000000000000000000000000000000000000000000000000000000000815260040180806020018281038252601b8152602001807f536166654d6174683a206164646974696f6e206f766572666c6f77000000000081525060200191505060405180910390fd5b8091505092915050565b600073ffffffffffffffffffffffffffffffffffffffff168373ffffffffffffffffffffffffffffffffffffffff1614156128fa576040517f08c379a00000000000000000000000000000000000000000000000000000000081526004018080602001828103825260248152602001806132de6024913960400191505060405180910390fd5b600073ffffffffffffffffffffffffffffffffffffffff168273ffffffffffffffffffffffffffffffffffffffff161415612980576040517f08c379a00000000000000000000000000000000000000000000000000000000081526004018080602001828103825260228152602001806131a66022913960400191505060405180910390fd5b80600460008573ffffffffffffffffffffffffffffffffffffffff1673ffffffffffffffffffffffffffffffffffffffff16815260200190815260200160002060008473ffffffffffffffffffffffffffffffffffffffff1673ffffffffffffffffffffffffffffffffffffffff168152602001908152602001600020819055508173ffffffffffffffffffffffffffffffffffffffff168373ffffffffffffffffffffffffffffffffffffffff167f8c5be1e5ebec7d5bd14f71427d1e84f3dd0314c0f7b2291e5b200ac8c7c3b925836040518082815260200191505060405180910390a3505050565b600073ffffffffffffffffffffffffffffffffffffffff168273ffffffffffffffffffffffffffffffffffffffff161415612b0e576040517f08c379a000000000000000000000000000000000000000000000000000000000815260040180806020018281038252601f8152602001807f45524332303a206d696e7420746f20746865207a65726f20616464726573730081525060200191505060405180910390fd5b612b23816005546127ec90919063ffffffff16565b600581905550612b7b81600360008573ffffffffffffffffffffffffffffffffffffffff1673ffffffffffffffffffffffffffffffffffffffff168152602001908152602001600020546127ec90919063ffffffff16565b600360008473ffffffffffffffffffffffffffffffffffffffff1673ffffffffffffffffffffffffffffffffffffffff168152602001908152602001600020819055508173ffffffffffffffffffffffffffffffffffffffff16600073ffffffffffffffffffffffffffffffffffffffff167fddf252ad1be2c89b69c2b068fc378daa952ba7f163c4a11628f55a4df523b3ef836040518082815260200191505060405180910390a35050565b600073ffffffffffffffffffffffffffffffffffffffff168273ffffffffffffffffffffffffffffffffffffffff161415612cae576040517f08c379a00000000000000000000000000000000000000000000000000000000081526004018080602001828103825260218152602001806132bd6021913960400191505060405180910390fd5b612d1a8160405180606001604052806022815260200161315460229139600360008673ffffffffffffffffffffffffffffffffffffffff1673ffffffffffffffffffffffffffffffffffffffff168152602001908152602001600020546130499092919063ffffffff16565b600360008473ffffffffffffffffffffffffffffffffffffffff1673ffffffffffffffffffffffffffffffffffffffff16815260200190815260200160002081905550612d728160055461310990919063ffffffff16565b600581905550600073ffffffffffffffffffffffffffffffffffffffff168273ffffffffffffffffffffffffffffffffffffffff167fddf252ad1be2c89b69c2b068fc378daa952ba7f163c4a11628f55a4df523b3ef836040518082815260200191505060405180910390a35050565b612dec8282612354565b612e41576040517f08c379a00000000000000000000000000000000000000000000000000000000081526004018080602001828103825260218152602001806132256021913960400191505060405180910390fd5b60008260000160008373ffffffffffffffffffffffffffffffffffffffff1673ffffffffffffffffffffffffffffffffffffffff16815260200190815260200160002060006101000a81548160ff0219169083151502179055505050565b612ea98282612c28565b612f6a82612eb5612432565b612f658460405180606001604052806024815260200161329960249139600460008973ffffffffffffffffffffffffffffffffffffffff1673ffffffffffffffffffffffffffffffffffffffff1681526020019081526020016000206000612f1b612432565b73ffffffffffffffffffffffffffffffffffffffff1673ffffffffffffffffffffffffffffffffffffffff168152602001908152602001600020546130499092919063ffffffff16565b612874565b5050565b612f788282612354565b15612feb576040517f08c379a000000000000000000000000000000000000000000000000000000000815260040180806020018281038252601f8152602001807f526f6c65733a206163636f756e7420616c72656164792068617320726f6c650081525060200191505060405180910390fd5b60018260000160008373ffffffffffffffffffffffffffffffffffffffff1673ffffffffffffffffffffffffffffffffffffffff16815260200190815260200160002060006101000a81548160ff0219169083151502179055505050565b60008383111582906130f6576040517f08c379a00000000000000000000000000000000000000000000000000000000081526004018080602001828103825283818151815260200191508051906020019080838360005b838110156130bb5780820151818401526020810190506130a0565b50505050905090810190601f1680156130e85780820380516001836020036101000a031916815260200191505b509250505060405180910390fd5b5060008385039050809150509392505050565b600061314b83836040518060400160405280601e81526020017f536166654d6174683a207375627472616374696f6e206f766572666c6f770000815250613049565b90509291505056fe45524332303a206275726e20616d6f756e7420657863656564732062616c616e6365506175736572526f6c653a2063616c6c657220646f6573206e6f742068617665207468652050617573657220726f6c6545524332303a20617070726f766520746f20746865207a65726f20616464726573734e6f7420656e6f75676820746f6b656e7320746f207472616e7366657220726571756972656420616d6f756e744d696e746572526f6c653a2063616c6c657220646f6573206e6f74206861766520746865204d696e74657220726f6c65526f6c65733a206163636f756e7420646f6573206e6f74206861766520726f6c65596f75206561726e656420616c6c207468652061677265656420746f6b656e732c2063616e6e6f7420676574206d6f7265526f6c65733a206163636f756e7420697320746865207a65726f206164647265737345524332303a206275726e20616d6f756e74206578636565647320616c6c6f77616e636545524332303a206275726e2066726f6d20746865207a65726f206164647265737345524332303a20617070726f76652066726f6d20746865207a65726f2061646472657373746869732066756e6374696f6e2063616e206f6e6c792062652072756e206f6e206372656174696f6e45524332303a2064656372656173656420616c6c6f77616e63652062656c6f77207a65726fa265627a7a72315820c10d8acff29f8581e8bdebe41b674b9c3c548f1705e1e37e967cab814223f1d064736f6c63430005100032506175736572526f6c653a2063616c6c657220646f6573206e6f742068617665207468652050617573657220726f6c65526f6c65733a206163636f756e7420697320746865207a65726f2061646472657373536176654d65206973206120546f6b656e20666f72204865616c74682e2049742061696d7320746f2061776172642070617469656e7473206f662064696162657465732061726f756e642074686520776f726c642c20666f722073656c662d6361746572696e6720616e6420656e676167656d656e7420746f2072657461696e20737461626c6520626c6f6f6420676c75636f7365206c6576656c73207468726f7567686f75742074686520646179746869732066756e6374696f6e2063616e206f6e6c792062652072756e206f6e206372656174696f6e",
  "source": "pragma solidity ^0.5.16;\n\nimport 'contracts/tokens/ERC20Plus.sol';\nimport '@openzeppelin/contracts/math/SafeMath.sol';\n//import 'DataAccess.sol';\n\n\n\n/*This Contract creates a SaveMe token . The parameters that need to be aprsed are the amount of token supply , the owner and the token creator*/\n\n\n\ncontract SaveMeToken is  ERC20Plus {\n\n    using SafeMath for uint256;\n    using SafeMath for uint8; //use safemath for all math operations to avoid overflows and hacking of your smart contracts\n    string public token_name = \"SaveMe\";\n    string  public token_symbol = \"SVM\";\n    string  public standard = \"SaveMe v1.0\";\n    string public description = \"SaveMe is a Token for Health. It aims to award patients of diabetes around the world, for self-catering and engagement to retain stable blood glucose levels throughout the day\";\n    uint public tokenCreationTime;\n    address public tokenCreator;\n    uint initialSupply; //others can access as well\n    address initialSupplyOwner; //others can access as well\n    bool public  isBurnable = true ;\n    bool public isTransferable = true ;\n    bool public isMintable = true ;\n    uint8 public token_decimals = 0 ; //we don't want our token to be divisable\n    uint256 public token_totalSupply;\n    \n    mapping(address =>uint256) private balances;\n    mapping(address =>mapping(address => uint256)) private allowances;\n    mapping (address=> bool) private minters;\n    event Transfer(\n        address indexed _from,\n        address indexed _to,\n        uint256 _value);\n\n    event Approval(\n        address indexed _owner,\n        address indexed _spender,\n        uint256 _value\n    );\n\n    event MinterRemoved(\n        address indexed account\n        );\n\n    event MinterAdded(\n        address indexed account\n        );\n    //call an instance of the token and parse in the initial supply, the owner and the token creator address\n\n\n    constructor(uint _initialSupply)\n        ERC20Plus( token_name, token_symbol, token_decimals, address(0),\n        isBurnable, isTransferable, isMintable, _initialSupply, address(0)) //_initialSupplyOwner)\n        public {\n        tokenCreator = msg.sender;//_tokenCreator;\n        initialSupply = _initialSupply;\n        initialSupplyOwner = address(0);\n        token_totalSupply = initialSupply;\n    }\n\n     function transfer(address _to, uint256 _value) public returns (bool success) {  //method deploying contract and sending tokens\n        require(balanceOf(msg.sender) >= _value, \"Not enough tokens\");\n        balances[msg.sender] -= _value;\n        balances[_to] += _value;\n\n        emit Transfer(msg.sender, _to, _value);\n\n        return true;\n    }\n\n    function approve(address _spender, uint256 _value) public returns (bool success) { //give approval to an account to withdraw from another account\n        require(balanceOf(msg.sender) >= _value, \"Not enough tokens\"); //ensure that the user has enough tokens\n        allowances[msg.sender][_spender] = _value;\n        emit Approval(msg.sender, _spender, _value);\n\n        return true;\n    }\n\n    function transferFrom(address _from, address _to, uint256 _value) public returns (bool success) { //transfer from one account to another\n        require(_value <= balanceOf(_from), \"Not enough tokens to transfer required amount\");\n        require(_value <= allowances[_from][msg.sender], \"You earned all the agreed tokens, cannot get more\");\n\n        balances[_from] -= _value; //remove from other account address\n        balances[_to] += _value;  //add to one account address\n\n        allowances[_from][msg.sender] -= _value; //reduce amount of allowance by 1 everytime\n\n        emit Transfer(_from, _to, _value); //trigger even for token transfer\n\n        return true;\n    }\n\n\n\n    function getTokenInfo(address user) public view returns( string memory, string memory,\n        string memory, uint256, uint) {\n        return (name(), symbol(), description, totalSupply(),tokenCreationTime);\n    }\n\n    function getDetailedTokenInfo() public view returns(uint256, uint256, uint,\n        bool[] memory, uint[] memory) {\n\n        bool[] memory props = new bool[](4);\n        props[0] = isTransferable;\n        props[1] = isMintable;\n        props[2] = isBurnable;\n        props[3] = false; // isCapped\n\n        uint[] memory values = new uint[](3);\n        values[0] = 0; // cap\n        values[1] = uint(decimals());\n        values[2] = initialSupply;\n\n        return (balanceOf(msg.sender), totalSupply(), tokenCreationTime, props, values);\n    }\n\n    function totalSupply() public view returns (uint _totalSupply){\n        _totalSupply = token_totalSupply;\n    }\n\n    function balanceOf(address _of) public view returns  (uint _balance){\n        return balances[_of];\n    }\n\n    function name() public view returns(string memory){\n            return token_name;\n        }\n    function symbol() public view returns(string memory){\n            return token_symbol;\n    }\n\n\n    function giveDataAccess( address _from , address _to) public returns (bool success) {\n        //Deploy contract\n        /* require(msg.sender == _to); //we want the one who pays for the contract to be the one asking for access\n        DataAccess instance = DataAccess(_to );\n        bool grantedAccess =  instance.giveAccess(_from , _to);\n        if (grantedAccess =true ){\n           return true;\n        }\n        */\n        return false ;\n\n    }\n\n    function validateTokens( address _from, address _to ) public returns (bool success){\n        require (msg.sender == _from) ; // require the one paying for the contract to be the one paying the tokens\n        /*TokenValidation instance = TokenValidation(_from );\n        instance.deployTokens(_from,_to);\n        */\n        return true;\n    }\n\n    // Mint new tokens.\n    // It accepts only an address with Minter Role => Token Validation Contract\n\n    //function isMinter(address account) public view returns (bool);= //Checks if a specific address has Minter Role\n\n    //function addMinter(address account) public;//Add an address as a Minter with Minter Role rights\n\n    //function renounceMinter() public;//only the address that has Minter roles can renounce itself from its role\n\n}\n",
  "sourcePath": "/home/cantonioupao/susDAO-saveMe/SaveMeContracts/contracts/SaveMeToken.sol",
  "compiler": {
    "name": "solc",
    "version": "0.5.16+commit.9c3226ce.Emscripten.clang"
  },
  "schemaVersion": "3.3.1",
  "updatedAt": "2020-12-14T17:21:52.260Z",
  "devdoc": {
    "methods": {
      "allowance(address,address)": {
        "details": "See {IERC20-allowance}."
      },
      "burn(uint256)": {
        "details": "Burns a specific amount of tokens.",
        "params": {
          "value": "The amount of token to be burned."
        }
      },
      "burnFrom(address,uint256)": {
        "details": "Burns a specific amount of tokens from the target address and decrements allowance",
        "params": {
          "from": "address The address which you want to send tokens from",
          "value": "uint256 The amount of token to be burned"
        }
      },
      "decimals()": {
        "details": "Returns the number of decimals used to get its user representation. For example, if `decimals` equals `2`, a balance of `505` tokens should be displayed to a user as `5,05` (`505 / 10 ** 2`).     * Tokens usually opt for a value of 18, imitating the relationship between Ether and Wei.     * NOTE: This information is only used for _display_ purposes: it in no way affects any of the arithmetic of the contract, including {IERC20-balanceOf} and {IERC20-transfer}."
      },
      "mint(address,uint256)": {
        "details": "Function to mint tokens",
        "params": {
          "to": "The address that will receive the minted tokens.",
          "value": "The amount of tokens to mint."
        },
        "return": "A boolean that indicates if the operation was successful."
      },
      "pause()": {
        "details": "called by the owner to pause, triggers stopped state. This means functions transfer, transferFrom, approve, increaseAllowance, and decreasAllowance, will not execute."
      },
      "paused()": {
        "details": "Returns true if the contract is paused, and false otherwise."
      },
      "unpause()": {
        "details": "This will undo pause(). The purpose of this declaration is to disable this function, as this function must not be called (unless making an untransferable token transferable again is wanted, but this is currently not an offered feature)."
      }
    }
  },
  "userdoc": {
    "methods": {}
  }
}