{
  "contractName": "utils",
  "abi": [
    {
      "constant": true,
      "inputs": [
        {
          "internalType": "address",
          "name": "_addr",
          "type": "address"
        }
      ],
      "name": "addressToString",
      "outputs": [
        {
          "internalType": "string",
          "name": "",
          "type": "string"
        }
      ],
      "payable": false,
      "stateMutability": "pure",
      "type": "function"
    },
    {
      "constant": true,
      "inputs": [
        {
          "internalType": "address[]",
          "name": "arr",
          "type": "address[]"
        },
        {
          "internalType": "address",
          "name": "addrToCheck",
          "type": "address"
        }
      ],
      "name": "arrayContainsAddress",
      "outputs": [
        {
          "internalType": "bool",
          "name": "",
          "type": "bool"
        }
      ],
      "payable": false,
      "stateMutability": "pure",
      "type": "function"
    }
  ],
  "bytecode": "0x608060405234801561001057600080fd5b50610519806100206000396000f3fe608060405234801561001057600080fd5b50600436106100365760003560e01c80635e57966d1461003b5780639259360c146100f8575b600080fd5b61007d6004803603602081101561005157600080fd5b81019080803573ffffffffffffffffffffffffffffffffffffffff1690602001909291905050506101e8565b6040518080602001828103825283818151815260200191508051906020019080838360005b838110156100bd5780820151818401526020810190506100a2565b50505050905090810190601f1680156100ea5780820380516001836020036101000a031916815260200191505b509250505060405180910390f35b6101ce6004803603604081101561010e57600080fd5b810190808035906020019064010000000081111561012b57600080fd5b82018360208201111561013d57600080fd5b8035906020019184602083028401116401000000008311171561015f57600080fd5b919080806020026020016040519081016040528093929190818152602001838360200280828437600081840152601f19601f820116905080830192505050505050509192919290803573ffffffffffffffffffffffffffffffffffffffff169060200190929190505050610469565b604051808215151515815260200191505060405180910390f35b606060008273ffffffffffffffffffffffffffffffffffffffff1660001b905060606040518060400160405280601081526020017f303132333435363738396162636465660000000000000000000000000000000081525090506060602a6040519080825280601f01601f1916602001820160405280156102785781602001600182028038833980820191505090505b5090507f3000000000000000000000000000000000000000000000000000000000000000816000815181106102a957fe5b60200101907effffffffffffffffffffffffffffffffffffffffffffffffffffffffffffff1916908160001a9053507f78000000000000000000000000000000000000000000000000000000000000008160018151811061030657fe5b60200101907effffffffffffffffffffffffffffffffffffffffffffffffffffffffffffff1916908160001a90535060008090505b601481101561045d5782600485600c84016020811061035657fe5b1a60f81b7effffffffffffffffffffffffffffffffffffffffffffffffffffffffffffff1916901c60f81c60ff168151811061038e57fe5b602001015160f81c60f81b8260028302600201815181106103ab57fe5b60200101907effffffffffffffffffffffffffffffffffffffffffffffffffffffffffffff1916908160001a90535082600f60f81b85600c8401602081106103ef57fe5b1a60f81b1660f81c60ff168151811061040457fe5b602001015160f81c60f81b82600283026003018151811061042157fe5b60200101907effffffffffffffffffffffffffffffffffffffffffffffffffffffffffffff1916908160001a905350808060010191505061033b565b50809350505050919050565b600080600090505b83518110156104d8578273ffffffffffffffffffffffffffffffffffffffff1684828151811061049d57fe5b602002602001015173ffffffffffffffffffffffffffffffffffffffff1614156104cb5760019150506104de565b8080600101915050610471565b50600090505b9291505056fea265627a7a723158209ab963c122aceb81598f6f62263f13bcbeea13f24c52f1cb0f2d1b50c608ed0964736f6c63430005100032",
  "source": "pragma solidity ^0.5.16;\n\ncontract utils {\n\n    // from https://ethereum.stackexchange.com/a/40977\n    function uint2str(uint numb) internal pure returns (string memory) {\n        uint _i = numb;\n        if (_i == 0) {\n            return \"0\";\n        }\n        uint j = _i;\n        uint len;\n        while (j != 0) {\n            len++;\n            j /= 10;\n        }\n        bytes memory bstr = new bytes(len);\n        uint k = len - 1;\n        while (_i != 0) {\n            bstr[k--] = byte(uint8(48 + _i % 10));\n            _i /= 10;\n        }\n        return string(bstr);\n    }\n\n    // from https://ethereum.stackexchange.com/a/72679/56047, plus using 42 from the comment below\n    function addressToString(address _addr) public pure returns(string memory) {\n        bytes32 value = bytes32(uint256(_addr));\n        bytes memory alphabet = \"0123456789abcdef\";\n        bytes memory str = new bytes(42);\n        str[0] = '0';\n        str[1] = 'x';\n        for (uint256 i = 0; i < 20; i++) {\n            str[2+i*2] = alphabet[uint8(value[i + 12] >> 4)];\n            str[3+i*2] = alphabet[uint8(value[i + 12] & 0x0f)];\n        }\n        return string(str);\n    }\n\n    function arrayContainsAddress(address[] memory arr, address addrToCheck) public pure returns(bool) {\n        for (uint i = 0; i < arr.length; i++) {\n            if (arr[i] == addrToCheck) {\n                return true;\n            }\n        }\n        return false;\n    }\n\n/*function _countNonZeroBytes(bytes32 value) private returns(uint8) {\n        // via https://ethereum.stackexchange.com/a/80456/56047\n        uint8 i = 0;\n        while(i < 32 && value[i] != 0) {\n            i++;\n        }\n        return i;\n    }*/\n}\n",
  "sourcePath": "/home/cantonioupao/susDAO-saveMe/SaveMeContracts/contracts/util/utils.sol",
  "compiler": {
    "name": "solc",
    "version": "0.5.16+commit.9c3226ce.Emscripten.clang"
  },
  "schemaVersion": "3.3.1",
  "updatedAt": "2020-12-14T13:47:56.062Z",
  "devdoc": {
    "methods": {}
  },
  "userdoc": {
    "methods": {}
  }
}